{
  "_format": "hh-sol-artifact-1",
  "contractName": "MinimalForwarder",
  "sourceName": "@openzeppelin/contracts/metatx/MinimalForwarder.sol",
  "abi": [
    {
      "inputs": [],
      "stateMutability": "nonpayable",
      "type": "constructor"
    },
    {
      "inputs": [
        {
          "components": [
            {
              "internalType": "address",
              "name": "from",
              "type": "address"
            },
            {
              "internalType": "address",
              "name": "to",
              "type": "address"
            },
            {
              "internalType": "uint256",
              "name": "value",
              "type": "uint256"
            },
            {
              "internalType": "uint256",
              "name": "gas",
              "type": "uint256"
            },
            {
              "internalType": "uint256",
              "name": "nonce",
              "type": "uint256"
            },
            {
              "internalType": "bytes",
              "name": "data",
              "type": "bytes"
            }
          ],
          "internalType": "struct MinimalForwarder.ForwardRequest",
          "name": "req",
          "type": "tuple"
        },
        {
          "internalType": "bytes",
          "name": "signature",
          "type": "bytes"
        }
      ],
      "name": "execute",
      "outputs": [
        {
          "internalType": "bool",
          "name": "",
          "type": "bool"
        },
        {
          "internalType": "bytes",
          "name": "",
          "type": "bytes"
        }
      ],
      "stateMutability": "payable",
      "type": "function"
    },
    {
      "inputs": [
        {
          "internalType": "address",
          "name": "from",
          "type": "address"
        }
      ],
      "name": "getNonce",
      "outputs": [
        {
          "internalType": "uint256",
          "name": "",
          "type": "uint256"
        }
      ],
      "stateMutability": "view",
      "type": "function"
    },
    {
      "inputs": [
        {
          "components": [
            {
              "internalType": "address",
              "name": "from",
              "type": "address"
            },
            {
              "internalType": "address",
              "name": "to",
              "type": "address"
            },
            {
              "internalType": "uint256",
              "name": "value",
              "type": "uint256"
            },
            {
              "internalType": "uint256",
              "name": "gas",
              "type": "uint256"
            },
            {
              "internalType": "uint256",
              "name": "nonce",
              "type": "uint256"
            },
            {
              "internalType": "bytes",
              "name": "data",
              "type": "bytes"
            }
          ],
          "internalType": "struct MinimalForwarder.ForwardRequest",
          "name": "req",
          "type": "tuple"
        },
        {
          "internalType": "bytes",
          "name": "signature",
          "type": "bytes"
        }
      ],
      "name": "verify",
      "outputs": [
        {
          "internalType": "bool",
          "name": "",
          "type": "bool"
        }
      ],
      "stateMutability": "view",
      "type": "function"
    }
  ],
  "bytecode": "0x6101406040523480156200001257600080fd5b506040518060400160405280601081526020017f4d696e696d616c466f72776172646572000000000000000000000000000000008152506040518060400160405280600581526020017f302e302e3100000000000000000000000000000000000000000000000000000081525060008280519060200120905060008280519060200120905060007f8b73c3c69bb8fe3d512ecc4cf759cc79239f7b179b0ffacaa9a75d522b39400f90508260e081815250508161010081815250504660a08181525050620000e88184846200013760201b60201c565b608081815250503073ffffffffffffffffffffffffffffffffffffffff1660c08173ffffffffffffffffffffffffffffffffffffffff168152505080610120818152505050505050506200024b565b6000838383463060405160200162000154959493929190620001ee565b6040516020818303038152906040528051906020012090509392505050565b6000819050919050565b620001888162000173565b82525050565b6000819050919050565b620001a3816200018e565b82525050565b600073ffffffffffffffffffffffffffffffffffffffff82169050919050565b6000620001d682620001a9565b9050919050565b620001e881620001c9565b82525050565b600060a0820190506200020560008301886200017d565b6200021460208301876200017d565b6200022360408301866200017d565b62000232606083018562000198565b620002416080830184620001dd565b9695505050505050565b60805160a05160c05160e05161010051610120516114406200029b600039600061057b015260006105bd0152600061059c015260006104d1015260006105270152600061055001526114406000f3fe6080604052600436106100345760003560e01c80632d0335ab1461003957806347153f8214610076578063bf5d3bdb146100a7575b600080fd5b34801561004557600080fd5b50610060600480360381019061005b9190610a74565b6100e4565b60405161006d9190610aba565b60405180910390f35b610090600480360381019061008b9190610b5e565b61012c565b60405161009e929190610c8e565b60405180910390f35b3480156100b357600080fd5b506100ce60048036038101906100c99190610b5e565b6102d7565b6040516100db9190610cbe565b60405180910390f35b60008060008373ffffffffffffffffffffffffffffffffffffffff1673ffffffffffffffffffffffffffffffffffffffff168152602001908152602001600020549050919050565b6000606061013b8585856102d7565b61017a576040517f08c379a000000000000000000000000000000000000000000000000000000000815260040161017190610d5c565b60405180910390fd5b6001856080013561018b9190610dab565b6000808760000160208101906101a19190610a74565b73ffffffffffffffffffffffffffffffffffffffff1673ffffffffffffffffffffffffffffffffffffffff168152602001908152602001600020819055506000808660200160208101906101f59190610a74565b73ffffffffffffffffffffffffffffffffffffffff1687606001358860400135898060a001906102259190610e10565b8b60000160208101906102389190610a74565b60405160200161024a93929190610efa565b6040516020818303038152906040526040516102669190610f55565b600060405180830381858888f193505050503d80600081146102a4576040519150601f19603f3d011682016040523d82523d6000602084013e6102a9565b606091505b5091509150603f87606001356102bf9190610f9b565b5a116102c757fe5b8181935093505050935093915050565b6000806103e084848080601f016020809104026020016040519081016040528093929190818152602001838380828437600081840152601f19601f820116905080830192505050505050506103d27fdd8f4b70b0f4393e889bd39128a30628a78b61816a9eb8199759e7a349657e488860000160208101906103599190610a74565b89602001602081019061036c9190610a74565b8a604001358b606001358c608001358d8060a0019061038b9190610e10565b604051610399929190610fcc565b60405180910390206040516020016103b7979695949392919061100d565b6040516020818303038152906040528051906020012061048c565b6104a690919063ffffffff16565b905084608001356000808760000160208101906103fd9190610a74565b73ffffffffffffffffffffffffffffffffffffffff1673ffffffffffffffffffffffffffffffffffffffff1681526020019081526020016000205414801561048257508460000160208101906104539190610a74565b73ffffffffffffffffffffffffffffffffffffffff168173ffffffffffffffffffffffffffffffffffffffff16145b9150509392505050565b600061049f6104996104cd565b836105e7565b9050919050565b60008060006104b5858561061a565b915091506104c28161069b565b819250505092915050565b60007f000000000000000000000000000000000000000000000000000000000000000073ffffffffffffffffffffffffffffffffffffffff163073ffffffffffffffffffffffffffffffffffffffff1614801561054957507f000000000000000000000000000000000000000000000000000000000000000046145b15610576577f000000000000000000000000000000000000000000000000000000000000000090506105e4565b6105e17f00000000000000000000000000000000000000000000000000000000000000007f00000000000000000000000000000000000000000000000000000000000000007f0000000000000000000000000000000000000000000000000000000000000000610867565b90505b90565b600082826040516020016105fc9291906110f4565b60405160208183030381529060405280519060200120905092915050565b600080604183510361065b5760008060006020860151925060408601519150606086015160001a905061064f878285856108a1565b94509450505050610694565b604083510361068b5760008060208501519150604085015190506106808683836109ad565b935093505050610694565b60006002915091505b9250929050565b600060048111156106af576106ae61112b565b5b8160048111156106c2576106c161112b565b5b031561086457600160048111156106dc576106db61112b565b5b8160048111156106ef576106ee61112b565b5b0361072f576040517f08c379a0000000000000000000000000000000000000000000000000000000008152600401610726906111a6565b60405180910390fd5b600260048111156107435761074261112b565b5b8160048111156107565761075561112b565b5b03610796576040517f08c379a000000000000000000000000000000000000000000000000000000000815260040161078d90611212565b60405180910390fd5b600360048111156107aa576107a961112b565b5b8160048111156107bd576107bc61112b565b5b036107fd576040517f08c379a00000000000000000000000000000000000000000000000000000000081526004016107f4906112a4565b60405180910390fd5b6004808111156108105761080f61112b565b5b8160048111156108235761082261112b565b5b03610863576040517f08c379a000000000000000000000000000000000000000000000000000000000815260040161085a90611336565b60405180910390fd5b5b50565b60008383834630604051602001610882959493929190611356565b6040516020818303038152906040528051906020012090509392505050565b6000807f7fffffffffffffffffffffffffffffff5d576e7357a4501ddfe92f46681b20a08360001c11156108dc5760006003915091506109a4565b601b8560ff16141580156108f45750601c8560ff1614155b156109065760006004915091506109a4565b60006001878787876040516000815260200160405260405161092b94939291906113c5565b6020604051602081039080840390855afa15801561094d573d6000803e3d6000fd5b505050602060405103519050600073ffffffffffffffffffffffffffffffffffffffff168173ffffffffffffffffffffffffffffffffffffffff160361099b576000600192509250506109a4565b80600092509250505b94509492505050565b60008060007f7fffffffffffffffffffffffffffffffffffffffffffffffffffffffffffffff60001b841690506000601b60ff8660001c901c6109f09190610dab565b90506109fe878288856108a1565b935093505050935093915050565b600080fd5b600080fd5b600073ffffffffffffffffffffffffffffffffffffffff82169050919050565b6000610a4182610a16565b9050919050565b610a5181610a36565b8114610a5c57600080fd5b50565b600081359050610a6e81610a48565b92915050565b600060208284031215610a8a57610a89610a0c565b5b6000610a9884828501610a5f565b91505092915050565b6000819050919050565b610ab481610aa1565b82525050565b6000602082019050610acf6000830184610aab565b92915050565b600080fd5b600060c08284031215610af057610aef610ad5565b5b81905092915050565b600080fd5b600080fd5b600080fd5b60008083601f840112610b1e57610b1d610af9565b5b8235905067ffffffffffffffff811115610b3b57610b3a610afe565b5b602083019150836001820283011115610b5757610b56610b03565b5b9250929050565b600080600060408486031215610b7757610b76610a0c565b5b600084013567ffffffffffffffff811115610b9557610b94610a11565b5b610ba186828701610ada565b935050602084013567ffffffffffffffff811115610bc257610bc1610a11565b5b610bce86828701610b08565b92509250509250925092565b60008115159050919050565b610bef81610bda565b82525050565b600081519050919050565b600082825260208201905092915050565b60005b83811015610c2f578082015181840152602081019050610c14565b83811115610c3e576000848401525b50505050565b6000601f19601f8301169050919050565b6000610c6082610bf5565b610c6a8185610c00565b9350610c7a818560208601610c11565b610c8381610c44565b840191505092915050565b6000604082019050610ca36000830185610be6565b8181036020830152610cb58184610c55565b90509392505050565b6000602082019050610cd36000830184610be6565b92915050565b600082825260208201905092915050565b7f4d696e696d616c466f727761726465723a207369676e617475726520646f657360008201527f206e6f74206d6174636820726571756573740000000000000000000000000000602082015250565b6000610d46603283610cd9565b9150610d5182610cea565b604082019050919050565b60006020820190508181036000830152610d7581610d39565b9050919050565b7f4e487b7100000000000000000000000000000000000000000000000000000000600052601160045260246000fd5b6000610db682610aa1565b9150610dc183610aa1565b9250827fffffffffffffffffffffffffffffffffffffffffffffffffffffffffffffffff03821115610df657610df5610d7c565b5b828201905092915050565b600080fd5b600080fd5b600080fd5b60008083356001602003843603038112610e2d57610e2c610e01565b5b80840192508235915067ffffffffffffffff821115610e4f57610e4e610e06565b5b602083019250600182023603831315610e6b57610e6a610e0b565b5b509250929050565b600081905092915050565b82818337600083830152505050565b6000610e998385610e73565b9350610ea6838584610e7e565b82840190509392505050565b60008160601b9050919050565b6000610eca82610eb2565b9050919050565b6000610edc82610ebf565b9050919050565b610ef4610eef82610a36565b610ed1565b82525050565b6000610f07828587610e8d565b9150610f138284610ee3565b601482019150819050949350505050565b6000610f2f82610bf5565b610f398185610e73565b9350610f49818560208601610c11565b80840191505092915050565b6000610f618284610f24565b915081905092915050565b7f4e487b7100000000000000000000000000000000000000000000000000000000600052601260045260246000fd5b6000610fa682610aa1565b9150610fb183610aa1565b925082610fc157610fc0610f6c565b5b828204905092915050565b6000610fd9828486610e8d565b91508190509392505050565b6000819050919050565b610ff881610fe5565b82525050565b61100781610a36565b82525050565b600060e082019050611022600083018a610fef565b61102f6020830189610ffe565b61103c6040830188610ffe565b6110496060830187610aab565b6110566080830186610aab565b61106360a0830185610aab565b61107060c0830184610fef565b98975050505050505050565b600081905092915050565b7f1901000000000000000000000000000000000000000000000000000000000000600082015250565b60006110bd60028361107c565b91506110c882611087565b600282019050919050565b6000819050919050565b6110ee6110e982610fe5565b6110d3565b82525050565b60006110ff826110b0565b915061110b82856110dd565b60208201915061111b82846110dd565b6020820191508190509392505050565b7f4e487b7100000000000000000000000000000000000000000000000000000000600052602160045260246000fd5b7f45434453413a20696e76616c6964207369676e61747572650000000000000000600082015250565b6000611190601883610cd9565b915061119b8261115a565b602082019050919050565b600060208201905081810360008301526111bf81611183565b9050919050565b7f45434453413a20696e76616c6964207369676e6174757265206c656e67746800600082015250565b60006111fc601f83610cd9565b9150611207826111c6565b602082019050919050565b6000602082019050818103600083015261122b816111ef565b9050919050565b7f45434453413a20696e76616c6964207369676e6174757265202773272076616c60008201527f7565000000000000000000000000000000000000000000000000000000000000602082015250565b600061128e602283610cd9565b915061129982611232565b604082019050919050565b600060208201905081810360008301526112bd81611281565b9050919050565b7f45434453413a20696e76616c6964207369676e6174757265202776272076616c60008201527f7565000000000000000000000000000000000000000000000000000000000000602082015250565b6000611320602283610cd9565b915061132b826112c4565b604082019050919050565b6000602082019050818103600083015261134f81611313565b9050919050565b600060a08201905061136b6000830188610fef565b6113786020830187610fef565b6113856040830186610fef565b6113926060830185610aab565b61139f6080830184610ffe565b9695505050505050565b600060ff82169050919050565b6113bf816113a9565b82525050565b60006080820190506113da6000830187610fef565b6113e760208301866113b6565b6113f46040830185610fef565b6114016060830184610fef565b9594505050505056fea264697066735822122083c8dae73eacc16bfd0ed4861dfe3a7f3771145dc24df19ba0bbf5771d414ee964736f6c634300080d0033",
  "linkReferences": {},
  "deployedLinkReferences": {}
}