{
  "_format": "hh-sol-artifact-1",
  "contractName": "copyrightGraph",
  "sourceName": "contracts/copyrightGraph.sol",
  "abi": [
    {
      "inputs": [],
      "stateMutability": "nonpayable",
      "type": "constructor"
    },
    {
      "anonymous": false,
      "inputs": [
        {
          "components": [
            {
              "internalType": "uint256",
              "name": "weight",
              "type": "uint256"
            },
            {
              "internalType": "uint256",
              "name": "timeStamp",
              "type": "uint256"
            },
            {
              "internalType": "bool",
              "name": "isBlacklisted",
              "type": "bool"
            },
            {
              "components": [
                {
                  "internalType": "uint256",
                  "name": "to",
                  "type": "uint256"
                },
                {
                  "internalType": "uint256",
                  "name": "weight",
                  "type": "uint256"
                }
              ],
              "internalType": "struct ICopyrightMaster.Edge[]",
              "name": "edge",
              "type": "tuple[]"
            },
            {
              "internalType": "uint256",
              "name": "numberOfTokensBehind",
              "type": "uint256"
            }
          ],
          "indexed": false,
          "internalType": "struct ICopyrightMaster.Token",
          "name": "token",
          "type": "tuple"
        }
      ],
      "name": "AddTokenToGraph",
      "type": "event"
    },
    {
      "anonymous": false,
      "inputs": [
        {
          "indexed": false,
          "internalType": "uint256",
          "name": "id",
          "type": "uint256"
        },
        {
          "indexed": false,
          "internalType": "uint256",
          "name": "newWeight",
          "type": "uint256"
        }
      ],
      "name": "ChangeTokenWeight",
      "type": "event"
    },
    {
      "anonymous": false,
      "inputs": [
        {
          "indexed": false,
          "internalType": "uint256",
          "name": "id",
          "type": "uint256"
        },
        {
          "indexed": false,
          "internalType": "bool",
          "name": "isBlacklisted",
          "type": "bool"
        }
      ],
      "name": "TokenBlacklisted",
      "type": "event"
    },
    {
      "inputs": [
        {
          "internalType": "uint256",
          "name": "",
          "type": "uint256"
        }
      ],
      "name": "_idToTokenStruct",
      "outputs": [
        {
          "internalType": "uint256",
          "name": "weight",
          "type": "uint256"
        },
        {
          "internalType": "uint256",
          "name": "timeStamp",
          "type": "uint256"
        },
        {
          "internalType": "bool",
          "name": "isBlacklisted",
          "type": "bool"
        },
        {
          "internalType": "uint256",
          "name": "numberOfTokensBehind",
          "type": "uint256"
        }
      ],
      "stateMutability": "view",
      "type": "function"
    },
    {
      "inputs": [
        {
          "internalType": "uint256",
          "name": "id",
          "type": "uint256"
        },
        {
          "internalType": "uint256",
          "name": "addToSet",
          "type": "uint256"
        }
      ],
      "name": "add",
      "outputs": [],
      "stateMutability": "nonpayable",
      "type": "function"
    },
    {
      "inputs": [
        {
          "internalType": "uint256",
          "name": "id",
          "type": "uint256"
        }
      ],
      "name": "bfsTraversal",
      "outputs": [
        {
          "internalType": "uint256[]",
          "name": "",
          "type": "uint256[]"
        },
        {
          "internalType": "uint256[]",
          "name": "",
          "type": "uint256[]"
        }
      ],
      "stateMutability": "nonpayable",
      "type": "function"
    },
    {
      "inputs": [
        {
          "internalType": "uint256",
          "name": "id",
          "type": "uint256"
        },
        {
          "internalType": "bool",
          "name": "isBlacklisted",
          "type": "bool"
        }
      ],
      "name": "blacklistToken",
      "outputs": [],
      "stateMutability": "nonpayable",
      "type": "function"
    },
    {
      "inputs": [
        {
          "internalType": "uint256",
          "name": "id",
          "type": "uint256"
        },
        {
          "internalType": "uint256",
          "name": "newWeight",
          "type": "uint256"
        }
      ],
      "name": "changeTokenWeight",
      "outputs": [],
      "stateMutability": "nonpayable",
      "type": "function"
    },
    {
      "inputs": [
        {
          "internalType": "uint256",
          "name": "id",
          "type": "uint256"
        }
      ],
      "name": "clearSet",
      "outputs": [],
      "stateMutability": "nonpayable",
      "type": "function"
    },
    {
      "inputs": [],
      "name": "dequeue",
      "outputs": [
        {
          "internalType": "uint256",
          "name": "id",
          "type": "uint256"
        }
      ],
      "stateMutability": "nonpayable",
      "type": "function"
    },
    {
      "inputs": [
        {
          "internalType": "uint256",
          "name": "id",
          "type": "uint256"
        }
      ],
      "name": "enqueue",
      "outputs": [],
      "stateMutability": "nonpayable",
      "type": "function"
    },
    {
      "inputs": [],
      "name": "getAdmin",
      "outputs": [
        {
          "internalType": "address",
          "name": "",
          "type": "address"
        }
      ],
      "stateMutability": "view",
      "type": "function"
    },
    {
      "inputs": [
        {
          "internalType": "uint256",
          "name": "id",
          "type": "uint256"
        }
      ],
      "name": "getEdge",
      "outputs": [
        {
          "components": [
            {
              "internalType": "uint256",
              "name": "to",
              "type": "uint256"
            },
            {
              "internalType": "uint256",
              "name": "weight",
              "type": "uint256"
            }
          ],
          "internalType": "struct ICopyrightMaster.Edge[]",
          "name": "edge",
          "type": "tuple[]"
        }
      ],
      "stateMutability": "view",
      "type": "function"
    },
    {
      "inputs": [],
      "name": "getTokenRegisteredCount",
      "outputs": [
        {
          "internalType": "uint256",
          "name": "",
          "type": "uint256"
        }
      ],
      "stateMutability": "view",
      "type": "function"
    },
    {
      "inputs": [],
      "name": "getTotalEdgeCount",
      "outputs": [
        {
          "internalType": "uint256",
          "name": "",
          "type": "uint256"
        }
      ],
      "stateMutability": "view",
      "type": "function"
    },
    {
      "inputs": [
        {
          "internalType": "uint256[]",
          "name": "parentIds",
          "type": "uint256[]"
        },
        {
          "internalType": "uint256[]",
          "name": "parentWeights",
          "type": "uint256[]"
        },
        {
          "internalType": "uint256",
          "name": "id",
          "type": "uint256"
        }
      ],
      "name": "insertEdges",
      "outputs": [],
      "stateMutability": "nonpayable",
      "type": "function"
    },
    {
      "inputs": [
        {
          "internalType": "uint256[]",
          "name": "parentIds",
          "type": "uint256[]"
        },
        {
          "internalType": "uint256[]",
          "name": "parentWeights",
          "type": "uint256[]"
        },
        {
          "internalType": "uint256",
          "name": "id",
          "type": "uint256"
        },
        {
          "internalType": "uint256",
          "name": "weight",
          "type": "uint256"
        }
      ],
      "name": "insertToken",
      "outputs": [],
      "stateMutability": "nonpayable",
      "type": "function"
    },
    {
      "inputs": [
        {
          "internalType": "uint256",
          "name": "id",
          "type": "uint256"
        },
        {
          "internalType": "uint256[]",
          "name": "parentTokenIds",
          "type": "uint256[]"
        }
      ],
      "name": "isSubset",
      "outputs": [
        {
          "internalType": "bool",
          "name": "",
          "type": "bool"
        },
        {
          "internalType": "uint256",
          "name": "",
          "type": "uint256"
        }
      ],
      "stateMutability": "pure",
      "type": "function"
    },
    {
      "inputs": [],
      "name": "makeERC1155ForTesting",
      "outputs": [],
      "stateMutability": "nonpayable",
      "type": "function"
    },
    {
      "inputs": [
        {
          "components": [
            {
              "internalType": "uint256",
              "name": "weight",
              "type": "uint256"
            },
            {
              "internalType": "uint256",
              "name": "timeStamp",
              "type": "uint256"
            },
            {
              "internalType": "bool",
              "name": "isBlacklisted",
              "type": "bool"
            },
            {
              "components": [
                {
                  "internalType": "uint256",
                  "name": "to",
                  "type": "uint256"
                },
                {
                  "internalType": "uint256",
                  "name": "weight",
                  "type": "uint256"
                }
              ],
              "internalType": "struct ICopyrightMaster.Edge[]",
              "name": "edge",
              "type": "tuple[]"
            },
            {
              "internalType": "uint256",
              "name": "numberOfTokensBehind",
              "type": "uint256"
            }
          ],
          "internalType": "struct ICopyrightMaster.Token",
          "name": "token",
          "type": "tuple"
        }
      ],
      "name": "returnId",
      "outputs": [
        {
          "internalType": "uint256",
          "name": "id",
          "type": "uint256"
        }
      ],
      "stateMutability": "pure",
      "type": "function"
    },
    {
      "inputs": [
        {
          "internalType": "uint256",
          "name": "id",
          "type": "uint256"
        }
      ],
      "name": "returnIsBlacklisted",
      "outputs": [
        {
          "internalType": "bool",
          "name": "isBlacklisted",
          "type": "bool"
        }
      ],
      "stateMutability": "view",
      "type": "function"
    },
    {
      "inputs": [
        {
          "internalType": "uint256",
          "name": "id",
          "type": "uint256"
        }
      ],
      "name": "returnTime",
      "outputs": [
        {
          "internalType": "uint256",
          "name": "timeStamp",
          "type": "uint256"
        }
      ],
      "stateMutability": "view",
      "type": "function"
    },
    {
      "inputs": [
        {
          "internalType": "uint256",
          "name": "id",
          "type": "uint256"
        }
      ],
      "name": "returnTokenWeight",
      "outputs": [
        {
          "internalType": "uint256",
          "name": "weight",
          "type": "uint256"
        }
      ],
      "stateMutability": "view",
      "type": "function"
    },
    {
      "inputs": [],
      "name": "tokenCount",
      "outputs": [
        {
          "internalType": "uint256",
          "name": "",
          "type": "uint256"
        }
      ],
      "stateMutability": "view",
      "type": "function"
    },
    {
      "inputs": [
        {
          "internalType": "uint256",
          "name": "id",
          "type": "uint256"
        }
      ],
      "name": "tokenExists",
      "outputs": [
        {
          "internalType": "bool",
          "name": "exists",
          "type": "bool"
        }
      ],
      "stateMutability": "view",
      "type": "function"
    }
  ],
  "bytecode": "0x60806040526001805560006002556001600360006101000a81548160ff0219169083151502179055506000600855600060095534801561003e57600080fd5b5033600560006101000a81548173ffffffffffffffffffffffffffffffffffffffff021916908373ffffffffffffffffffffffffffffffffffffffff1602179055506139228061008f6000396000f3fe608060405234801561001057600080fd5b50600436106101415760003560e01c806389e0496f116100b8578063a91388611161007c578063a9138861146103b2578063aca382a0146103d0578063beae494214610401578063ce8b4afd1461041d578063d7753a6514610439578063d8be1fd41461044357610141565b806389e0496f146102e3578063957908d114610316578063981ad468146103345780639a914c44146103645780639f181b5e1461039457610141565b80631ffc735d1161010a5780631ffc735d146102225780635ee3c5881461023e5780636cf611271461025c5780636e9960c31461028d578063771602f7146102ab578063866fe41a146102c757610141565b8062923f9e14610146578063076fcc1f146101765780630ab71fb1146101925780630b8e12fc146101c257806316b407a8146101f2575b600080fd5b610160600480360381019061015b9190612813565b61045f565b60405161016d9190612d5d565b60405180910390f35b610190600480360381019061018b91906128dc565b610488565b005b6101ac60048036038101906101a791906127ca565b6106a0565b6040516101b99190612fe1565b60405180910390f35b6101dc60048036038101906101d79190612813565b6106a7565b6040516101e99190612fe1565b60405180910390f35b61020c60048036038101906102079190612813565b6106c7565b6040516102199190612fe1565b60405180910390f35b61023c60048036038101906102379190612813565b6106e7565b005b610246610738565b6040516102539190612fe1565b60405180910390f35b61027660048036038101906102719190612840565b610742565b604051610284929190612d78565b60405180910390f35b6102956107e8565b6040516102a29190612ce9565b60405180910390f35b6102c560048036038101906102c091906128dc565b610812565b005b6102e160048036038101906102dc919061272b565b61090c565b005b6102fd60048036038101906102f89190612813565b610f74565b60405161030d9493929190612ffc565b60405180910390f35b61031e610fb1565b60405161032b9190612fe1565b60405180910390f35b61034e60048036038101906103499190612813565b611037565b60405161035b9190612d5d565b60405180910390f35b61037e60048036038101906103799190612813565b611064565b60405161038b9190612d04565b60405180910390f35b61039c6110ed565b6040516103a99190612fe1565b60405180910390f35b6103ba6110f7565b6040516103c79190612fe1565b60405180910390f35b6103ea60048036038101906103e59190612813565b611101565b6040516103f8929190612d26565b60405180910390f35b61041b600480360381019061041691906126a0565b611878565b005b6104376004803603810190610432919061289c565b6120b3565b005b6104416122b2565b005b61045d60048036038101906104589190612813565b6123cb565b005b60008060076000848152602001908152602001600020600101541461048357600190505b919050565b600560009054906101000a900473ffffffffffffffffffffffffffffffffffffffff1673ffffffffffffffffffffffffffffffffffffffff163373ffffffffffffffffffffffffffffffffffffffff1614610518576040517f08c379a000000000000000000000000000000000000000000000000000000000815260040161050f90612f81565b60405180910390fd5b600082141561055c576040517f08c379a000000000000000000000000000000000000000000000000000000000815260040161055390612de1565b60405180910390fd5b600115156006600084815260200190815260200160002060009054906101000a900460ff161515146105c3576040517f08c379a00000000000000000000000000000000000000000000000000000000081526004016105ba90612dc1565b60405180910390fd5b60006007600084815260200190815260200160002060010154141561061d576040517f08c379a000000000000000000000000000000000000000000000000000000000815260040161061490612ee1565b60405180910390fd5b6007600083815260200190815260200160002060020160009054906101000a900460ff1615610681576040517f08c379a000000000000000000000000000000000000000000000000000000000815260040161067890612da1565b60405180910390fd5b8060076000848152602001908152602001600020600001819055505050565b6000919050565b600060076000838152602001908152602001600020600101549050919050565b600060076000838152602001908152602001600020600001549050919050565b6001600260008282546106fa9190613141565b925050819055506000600360006101000a81548160ff0219169083151502179055508060008060025481526020019081526020016000208190555050565b6000600854905090565b60008060008351905060008114156107615760008092509250506107e1565b60005b818110156107d757858582815181106107805761077f613315565b5b6020026020010151141561079c576001819350935050506107e1565b60008582815181106107b1576107b0613315565b5b602002602001015114156107c4576107d7565b80806107cf9061326e565b915050610764565b5060008092509250505b9250929050565b6000600560009054906101000a900473ffffffffffffffffffffffffffffffffffffffff16905090565b60046000838152602001908152602001600020600101600082815260200190815260200160002060009054906101000a900460ff166108cd57600160046000848152602001908152602001600020600101600083815260200190815260200160002060006101000a81548160ff02191690831515021790555060046000838152602001908152602001600020600001819080600181540180825580915050600190039060005260206000200160009091909190915055610908565b6040517f08c379a00000000000000000000000000000000000000000000000000000000081526004016108ff90612e81565b60405180910390fd5b5050565b600560009054906101000a900473ffffffffffffffffffffffffffffffffffffffff1673ffffffffffffffffffffffffffffffffffffffff163373ffffffffffffffffffffffffffffffffffffffff161461099c576040517f08c379a000000000000000000000000000000000000000000000000000000000815260040161099390612f81565b60405180910390fd5b8160008114156109e1576040517f08c379a00000000000000000000000000000000000000000000000000000000081526004016109d890612de1565b60405180910390fd5b600115156006600083815260200190815260200160002060009054906101000a900460ff16151514610a48576040517f08c379a0000000000000000000000000000000000000000000000000000000008152600401610a3f90612dc1565b60405180910390fd5b6000600760008381526020019081526020016000206001015414610aa1576040517f08c379a0000000000000000000000000000000000000000000000000000000008152600401610a9890612f61565b60405180910390fd5b8351855114610ae5576040517f08c379a0000000000000000000000000000000000000000000000000000000008152600401610adc90612e21565b60405180910390fd5b60005b8551811015610d8b57610b1584878381518110610b0857610b07613315565b5b6020026020010151610812565b6000868281518110610b2a57610b29613315565b5b60200260200101511415610b73576040517f08c379a0000000000000000000000000000000000000000000000000000000008152600401610b6a90612fa1565b60405180910390fd5b6001151560066000888481518110610b8e57610b8d613315565b5b6020026020010151815260200190815260200160002060009054906101000a900460ff16151514610bf4576040517f08c379a0000000000000000000000000000000000000000000000000000000008152600401610beb90612fc1565b60405180910390fd5b600060076000888481518110610c0d57610c0c613315565b5b60200260200101518152602001908152602001600020600101541415610c68576040517f08c379a0000000000000000000000000000000000000000000000000000000008152600401610c5f90612f21565b60405180910390fd5b848181518110610c7b57610c7a613315565b5b602002602001015160076000888481518110610c9a57610c99613315565b5b602002602001015181526020019081526020016000206000015414610cf4576040517f08c379a0000000000000000000000000000000000000000000000000000000008152600401610ceb90612ea1565b60405180910390fd5b6000151560076000888481518110610d0f57610d0e613315565b5b6020026020010151815260200190815260200160002060020160009054906101000a900460ff16151514610d78576040517f08c379a0000000000000000000000000000000000000000000000000000000008152600401610d6f90612e61565b60405180910390fd5b8080610d839061326e565b915050610ae8565b5060086000815480929190610d9f9061326e565b9190505550816007600085815260200190815260200160002060000181905550426007600085815260200190815260200160002060010181905550600085511415610e055760006007600085815260200190815260200160002060040181905550610f6d565b60005b8551811015610f515760006040518060400160405280888481518110610e3157610e30613315565b5b60200260200101518152602001878481518110610e5157610e50613315565b5b60200260200101518152509050600760008681526020019081526020016000206003018190806001815401808255809150506001900390600052602060002090600202016000909190919091506000820151816000015560208201518160010155505060076000888481518110610ecb57610eca613315565b5b6020026020010151815260200190815260200160002060040154600760008781526020019081526020016000206004016000828254610f0a9190613141565b92505081905550600760008681526020019081526020016000206004016000815480929190610f389061326e565b9190505550508080610f499061326e565b915050610e08565b50845160096000828254610f659190613141565b925050819055505b5050505050565b60076020528060005260406000206000915090508060000154908060010154908060020160009054906101000a900460ff16908060040154905084565b60006001546002541015610fc457600080fd5b60008060015481526020019081526020016000205490506002546001541415611003576001600360006101000a81548160ff0219169083151502179055505b600080600154815260200190815260200160002060009055600180600082825461102d9190613141565b9250508190555090565b60006007600083815260200190815260200160002060020160009054906101000a900460ff169050919050565b606060076000838152602001908152602001600020600301805480602002602001604051908101604052809291908181526020016000905b828210156110e25783829060005260206000209060020201604051806040016040529081600082015481526020016001820154815250508152602001906001019061109c565b505050509050919050565b6000600854905090565b6000600954905090565b6060806000831415611148576040517f08c379a000000000000000000000000000000000000000000000000000000000815260040161113f90612de1565b60405180910390fd5b600115156006600085815260200190815260200160002060009054906101000a900460ff161515146111af576040517f08c379a00000000000000000000000000000000000000000000000000000000081526004016111a690612dc1565b60405180910390fd5b600060076000858152602001908152602001600020600101541415611209576040517f08c379a000000000000000000000000000000000000000000000000000000000815260040161120090612ee1565b60405180910390fd5b6007600084815260200190815260200160002060020160009054906101000a900460ff161561126d576040517f08c379a000000000000000000000000000000000000000000000000000000000815260040161126490612da1565b60405180910390fd5b6000600160076000868152602001908152602001600020600401546112929190613141565b905060008167ffffffffffffffff8111156112b0576112af613344565b5b6040519080825280602002602001820160405280156112de5781602001602082028036833780820191505090505b50905060008267ffffffffffffffff8111156112fd576112fc613344565b5b60405190808252806020026020018201604052801561132b5781602001602082028036833780820191505090505b50905060008061133a886106e7565b60005b600360009054906101000a900460ff1661186757611359610fb1565b9050888114156113d6578085848151811061137757611376613315565b5b602002602001018181525050828061138e9061326e565b93505060076000828152602001908152602001600020600001548483815181106113bb576113ba613315565b5b60200260200101818152505081806113d29061326e565b9250505b60006007600083815260200190815260200160002060030180549050905060005b81811015611860576007600060076000868152602001908152602001600020600301838154811061142b5761142a613315565b5b906000526020600020906002020160000154815260200190815260200160002060020160009054906101000a900460ff161561149c576040517f08c379a000000000000000000000000000000000000000000000000000000000815260040161149390612f01565b60405180910390fd5b6114de6007600085815260200190815260200160002060030182815481106114c7576114c6613315565b5b9060005260206000209060020201600001546106e7565b60008061152460076000878152602001908152602001600020600301848154811061150c5761150b613315565b5b9060005260206000209060020201600001548a610742565b91509150816117975760076000868152602001908152602001600020600301838154811061155557611554613315565b5b90600052602060002090600202016000015489888151811061157a57611579613315565b5b60200260200101818152505086806115919061326e565b9750506007600086815260200190815260200160002060030183815481106115bc576115bb613315565b5b9060005260206000209060020201600101548887815181106115e1576115e0613315565b5b60200260200101818152505085806115f89061326e565b965050600060018861160a9190613197565b90505b6000811115611791576000600760008c848151811061162f5761162e613315565b5b60200260200101518152602001908152602001600020600101549050600060018361165a9190613197565b905060008c828151811061167157611670613315565b5b6020026020010151905060008c83815181106116905761168f613315565b5b602002602001015190508360076000848152602001908152602001600020600101541015611771578d85815181106116cb576116ca613315565b5b60200260200101518e84815181106116e6576116e5613315565b5b602002602001018181525050818e868151811061170657611705613315565b5b6020026020010181815250508c858151811061172557611724613315565b5b60200260200101518d84815181106117405761173f613315565b5b602002602001018181525050808d86815181106117605761175f613315565b5b60200260200101818152505061177a565b50505050611791565b50505050808061178990613213565b91505061160d565b5061184b565b6000600760008b84815181106117b0576117af613315565b5b6020026020010151815260200190815260200160002060000154905060006007600088815260200190815260200160002060030185815481106117f6576117f5613315565b5b9060005260206000209060020201600101549050818110156118485780600760008d868151811061182a57611829613315565b5b60200260200101518152602001908152602001600020600001819055505b50505b505080806118589061326e565b9150506113f7565b505061133d565b848497509750505050505050915091565b600560009054906101000a900473ffffffffffffffffffffffffffffffffffffffff1673ffffffffffffffffffffffffffffffffffffffff163373ffffffffffffffffffffffffffffffffffffffff1614611908576040517f08c379a00000000000000000000000000000000000000000000000000000000081526004016118ff90612f81565b60405180910390fd5b600081141561194c576040517f08c379a000000000000000000000000000000000000000000000000000000000815260040161194390612de1565b60405180910390fd5b600115156006600083815260200190815260200160002060009054906101000a900460ff161515146119b3576040517f08c379a00000000000000000000000000000000000000000000000000000000081526004016119aa90612dc1565b60405180910390fd5b600060076000838152602001908152602001600020600101541415611a0d576040517f08c379a0000000000000000000000000000000000000000000000000000000008152600401611a0490612ee1565b60405180910390fd5b600015156007600083815260200190815260200160002060020160009054906101000a900460ff16151514611a77576040517f08c379a0000000000000000000000000000000000000000000000000000000008152600401611a6e90612da1565b60405180910390fd5b600083511415611a86576120ae565b60005b8351811015611d2c57611ab682858381518110611aa957611aa8613315565b5b6020026020010151610812565b6000848281518110611acb57611aca613315565b5b60200260200101511415611b14576040517f08c379a0000000000000000000000000000000000000000000000000000000008152600401611b0b90612fa1565b60405180910390fd5b6001151560066000868481518110611b2f57611b2e613315565b5b6020026020010151815260200190815260200160002060009054906101000a900460ff16151514611b95576040517f08c379a0000000000000000000000000000000000000000000000000000000008152600401611b8c90612fc1565b60405180910390fd5b600060076000868481518110611bae57611bad613315565b5b60200260200101518152602001908152602001600020600101541415611c09576040517f08c379a0000000000000000000000000000000000000000000000000000000008152600401611c0090612f41565b60405180910390fd5b828181518110611c1c57611c1b613315565b5b602002602001015160076000868481518110611c3b57611c3a613315565b5b602002602001015181526020019081526020016000206000015414611c95576040517f08c379a0000000000000000000000000000000000000000000000000000000008152600401611c8c90612ea1565b60405180910390fd5b6000151560076000868481518110611cb057611caf613315565b5b6020026020010151815260200190815260200160002060020160009054906101000a900460ff16151514611d19576040517f08c379a0000000000000000000000000000000000000000000000000000000008152600401611d1090612e61565b60405180910390fd5b8080611d249061326e565b915050611a89565b508151835114611d71576040517f08c379a0000000000000000000000000000000000000000000000000000000008152600401611d6890612e21565b60405180910390fd5b6000611d7d8285610742565b5090508015611dc1576040517f08c379a0000000000000000000000000000000000000000000000000000000008152600401611db890612e01565b60405180910390fd5b60005b8451811015611f445760005b6007600085815260200190815260200160002060030180549050811015611f3057858281518110611e0457611e03613315565b5b6020026020010151600760008681526020019081526020016000206003018281548110611e3457611e33613315565b5b9060005260206000209060020201600001541415611e87576040517f08c379a0000000000000000000000000000000000000000000000000000000008152600401611e7e90612ec1565b60405180910390fd5b8360076000888581518110611e9f57611e9e613315565b5b602002602001015181526020019081526020016000206003018281548110611eca57611ec9613315565b5b9060005260206000209060020201600001541415611f1d576040517f08c379a0000000000000000000000000000000000000000000000000000000008152600401611f1490612e41565b60405180910390fd5b8080611f289061326e565b915050611dd0565b508080611f3c9061326e565b915050611dc4565b50835160096000828254611f589190613141565b9250508190555060005b84518110156120ab5760006040518060400160405280878481518110611f8b57611f8a613315565b5b60200260200101518152602001868481518110611fab57611faa613315565b5b6020026020010151815250905060076000858152602001908152602001600020600301819080600181540180825580915050600190039060005260206000209060020201600090919091909150600082015181600001556020820151816001015550506007600087848151811061202557612024613315565b5b60200260200101518152602001908152602001600020600401546007600086815260200190815260200160002060040160008282546120649190613141565b925050819055506007600085815260200190815260200160002060040160008154809291906120929061326e565b91905055505080806120a39061326e565b915050611f62565b50505b505050565b600560009054906101000a900473ffffffffffffffffffffffffffffffffffffffff1673ffffffffffffffffffffffffffffffffffffffff163373ffffffffffffffffffffffffffffffffffffffff1614612143576040517f08c379a000000000000000000000000000000000000000000000000000000000815260040161213a90612f81565b60405180910390fd5b6000821415612187576040517f08c379a000000000000000000000000000000000000000000000000000000000815260040161217e90612de1565b60405180910390fd5b600115156006600084815260200190815260200160002060009054906101000a900460ff161515146121ee576040517f08c379a00000000000000000000000000000000000000000000000000000000081526004016121e590612dc1565b60405180910390fd5b600060076000848152602001908152602001600020600101541415612248576040517f08c379a000000000000000000000000000000000000000000000000000000000815260040161223f90612ee1565b60405180910390fd5b806007600084815260200190815260200160002060020160006101000a81548160ff02191690831515021790551561227f576122ae565b806007600084815260200190815260200160002060020160006101000a81548160ff0219169083151502179055505b5050565b600560009054906101000a900473ffffffffffffffffffffffffffffffffffffffff1673ffffffffffffffffffffffffffffffffffffffff163373ffffffffffffffffffffffffffffffffffffffff1614612342576040517f08c379a000000000000000000000000000000000000000000000000000000000815260040161233990612f81565b60405180910390fd5b6001600660006001815260200190815260200160002060006101000a81548160ff0219169083151502179055506001600660006002815260200190815260200160002060006101000a81548160ff0219169083151502179055506001600660006003815260200190815260200160002060006101000a81548160ff021916908315150217905550565b60005b600460008381526020019081526020016000206000018054905081101561243e5760046000838152602001908152602001600020600001805480612415576124146132e6565b5b6001900381819060005260206000200160009055905580806124369061326e565b9150506123ce565b5050565b600061245561245084613066565b613041565b9050808382526020820190508285604086028201111561247857612477613382565b5b60005b858110156124a8578161248e8882612593565b84526020840193506040830192505060018101905061247b565b5050509392505050565b60006124c56124c084613092565b613041565b905080838252602082019050828560208602820111156124e8576124e7613382565b5b60005b8581101561251857816124fe888261268b565b8452602084019350602083019250506001810190506124eb565b5050509392505050565b600082601f83011261253757612536613373565b5b8135612547848260208601612442565b91505092915050565b600082601f83011261256557612564613373565b5b81356125758482602086016124b2565b91505092915050565b60008135905061258d816138be565b92915050565b6000604082840312156125a9576125a8613378565b5b6125b36040613041565b905060006125c38482850161268b565b60008301525060206125d78482850161268b565b60208301525092915050565b600060a082840312156125f9576125f8613378565b5b61260360a0613041565b905060006126138482850161268b565b60008301525060206126278482850161268b565b602083015250604061263b8482850161257e565b604083015250606082013567ffffffffffffffff81111561265f5761265e61337d565b5b61266b84828501612522565b606083015250608061267f8482850161268b565b60808301525092915050565b60008135905061269a816138d5565b92915050565b6000806000606084860312156126b9576126b861338c565b5b600084013567ffffffffffffffff8111156126d7576126d6613387565b5b6126e386828701612550565b935050602084013567ffffffffffffffff81111561270457612703613387565b5b61271086828701612550565b92505060406127218682870161268b565b9150509250925092565b600080600080608085870312156127455761274461338c565b5b600085013567ffffffffffffffff81111561276357612762613387565b5b61276f87828801612550565b945050602085013567ffffffffffffffff8111156127905761278f613387565b5b61279c87828801612550565b93505060406127ad8782880161268b565b92505060606127be8782880161268b565b91505092959194509250565b6000602082840312156127e0576127df61338c565b5b600082013567ffffffffffffffff8111156127fe576127fd613387565b5b61280a848285016125e3565b91505092915050565b6000602082840312156128295761282861338c565b5b60006128378482850161268b565b91505092915050565b600080604083850312156128575761285661338c565b5b60006128658582860161268b565b925050602083013567ffffffffffffffff81111561288657612885613387565b5b61289285828601612550565b9150509250929050565b600080604083850312156128b3576128b261338c565b5b60006128c18582860161268b565b92505060206128d28582860161257e565b9150509250929050565b600080604083850312156128f3576128f261338c565b5b60006129018582860161268b565b92505060206129128582860161268b565b9150509250929050565b60006129288383612c9c565b60408301905092915050565b60006129408383612ccb565b60208301905092915050565b612955816131cb565b82525050565b6000612966826130de565b612970818561310e565b935061297b836130be565b8060005b838110156129ac578151612993888261291c565b975061299e836130f4565b92505060018101905061297f565b5085935050505092915050565b60006129c4826130e9565b6129ce818561311f565b93506129d9836130ce565b8060005b83811015612a0a5781516129f18882612934565b97506129fc83613101565b9250506001810190506129dd565b5085935050505092915050565b612a20816131dd565b82525050565b6000612a33603183613130565b9150612a3e826133a2565b604082019050919050565b6000612a56602c83613130565b9150612a61826133f1565b604082019050919050565b6000612a79601b83613130565b9150612a8482613440565b602082019050919050565b6000612a9c602c83613130565b9150612aa782613469565b604082019050919050565b6000612abf603783613130565b9150612aca826134b8565b604082019050919050565b6000612ae2602483613130565b9150612aed82613507565b604082019050919050565b6000612b05603a83613130565b9150612b1082613556565b604082019050919050565b6000612b28603383613130565b9150612b33826135a5565b604082019050919050565b6000612b4b603483613130565b9150612b56826135f4565b604082019050919050565b6000612b6e603c83613130565b9150612b7982613643565b604082019050919050565b6000612b91601f83613130565b9150612b9c82613692565b602082019050919050565b6000612bb4603783613130565b9150612bbf826136bb565b604082019050919050565b6000612bd7602d83613130565b9150612be28261370a565b604082019050919050565b6000612bfa602b83613130565b9150612c0582613759565b604082019050919050565b6000612c1d602483613130565b9150612c28826137a8565b604082019050919050565b6000612c40601383613130565b9150612c4b826137f7565b602082019050919050565b6000612c63602183613130565b9150612c6e82613820565b604082019050919050565b6000612c86602f83613130565b9150612c918261386f565b604082019050919050565b604082016000820151612cb26000850182612ccb565b506020820151612cc56020850182612ccb565b50505050565b612cd481613209565b82525050565b612ce381613209565b82525050565b6000602082019050612cfe600083018461294c565b92915050565b60006020820190508181036000830152612d1e818461295b565b905092915050565b60006040820190508181036000830152612d4081856129b9565b90508181036020830152612d5481846129b9565b90509392505050565b6000602082019050612d726000830184612a17565b92915050565b6000604082019050612d8d6000830185612a17565b612d9a6020830184612cda565b9392505050565b60006020820190508181036000830152612dba81612a26565b9050919050565b60006020820190508181036000830152612dda81612a49565b9050919050565b60006020820190508181036000830152612dfa81612a6c565b9050919050565b60006020820190508181036000830152612e1a81612a8f565b9050919050565b60006020820190508181036000830152612e3a81612ab2565b9050919050565b60006020820190508181036000830152612e5a81612ad5565b9050919050565b60006020820190508181036000830152612e7a81612af8565b9050919050565b60006020820190508181036000830152612e9a81612b1b565b9050919050565b60006020820190508181036000830152612eba81612b3e565b9050919050565b60006020820190508181036000830152612eda81612b61565b9050919050565b60006020820190508181036000830152612efa81612b84565b9050919050565b60006020820190508181036000830152612f1a81612ba7565b9050919050565b60006020820190508181036000830152612f3a81612bca565b9050919050565b60006020820190508181036000830152612f5a81612bed565b9050919050565b60006020820190508181036000830152612f7a81612c10565b9050919050565b60006020820190508181036000830152612f9a81612c33565b9050919050565b60006020820190508181036000830152612fba81612c56565b9050919050565b60006020820190508181036000830152612fda81612c79565b9050919050565b6000602082019050612ff66000830184612cda565b92915050565b60006080820190506130116000830187612cda565b61301e6020830186612cda565b61302b6040830185612a17565b6130386060830184612cda565b95945050505050565b600061304b61305c565b9050613057828261323d565b919050565b6000604051905090565b600067ffffffffffffffff82111561308157613080613344565b5b602082029050602081019050919050565b600067ffffffffffffffff8211156130ad576130ac613344565b5b602082029050602081019050919050565b6000819050602082019050919050565b6000819050602082019050919050565b600081519050919050565b600081519050919050565b6000602082019050919050565b6000602082019050919050565b600082825260208201905092915050565b600082825260208201905092915050565b600082825260208201905092915050565b600061314c82613209565b915061315783613209565b9250827fffffffffffffffffffffffffffffffffffffffffffffffffffffffffffffffff0382111561318c5761318b6132b7565b5b828201905092915050565b60006131a282613209565b91506131ad83613209565b9250828210156131c0576131bf6132b7565b5b828203905092915050565b60006131d6826131e9565b9050919050565b60008115159050919050565b600073ffffffffffffffffffffffffffffffffffffffff82169050919050565b6000819050919050565b600061321e82613209565b91506000821415613232576132316132b7565b5b600182039050919050565b61324682613391565b810181811067ffffffffffffffff8211171561326557613264613344565b5b80604052505050565b600061327982613209565b91507fffffffffffffffffffffffffffffffffffffffffffffffffffffffffffffffff8214156132ac576132ab6132b7565b5b600182019050919050565b7f4e487b7100000000000000000000000000000000000000000000000000000000600052601160045260246000fd5b7f4e487b7100000000000000000000000000000000000000000000000000000000600052603160045260246000fd5b7f4e487b7100000000000000000000000000000000000000000000000000000000600052603260045260246000fd5b7f4e487b7100000000000000000000000000000000000000000000000000000000600052604160045260246000fd5b600080fd5b600080fd5b600080fd5b600080fd5b600080fd5b600080fd5b6000601f19601f8301169050919050565b7f696420697320626c61636b6c697374656420736f20746869732070726f63657360008201527f732063616e6e6f7420636f6e74696e7565000000000000000000000000000000602082015250565b7f54686520746f6b656e206973206e6f742061207265676973746572656420455260008201527f43203131353520746f6b656e0000000000000000000000000000000000000000602082015250565b7f54686520746f6b656e2049442063616e6e6f74206265207a65726f0000000000600082015250565b7f546f6b656e49442063616e6e6f74206265206120737562736574206f6620706160008201527f72656e74546f6b656e4944730000000000000000000000000000000000000000602082015250565b7f546865206c656e677468206f6620706172656e742049647320616e642077656960008201527f676874732073686f756c64206265207468652073616d65000000000000000000602082015250565b7f4572726f723a20616e206772617068206c6f6f702077696c6c2062652063726560008201527f6174656400000000000000000000000000000000000000000000000000000000602082015250565b7f4120706172656e7420494420697320626c61636b6c697374656420736f20746860008201527f69732070726f636573732063616e6e6f7420636f6e74696e7565000000000000602082015250565b7f412076616c756520796f752061726520696e70757474696e6720696e6469636160008201527f746573206120627265616b206f66207365742e00000000000000000000000000602082015250565b7f4120706172656e7420696420646f6573206e6f7420636f6f7265736f6e64207460008201527f6f2074686520636f727265637420776569676874000000000000000000000000602082015250565b7f4572726f723a204564676520636f6e6e656374696f6e20796f7520617265207460008201527f7279696e6720746f2061646420616c6c72656164792065786973747300000000602082015250565b7f494420686173206e6f74206265656e20616464656420746f2067726170682e00600082015250565b7f416e206964206173736f636961746564207769746820616e206564676520636f60008201527f6e6e656374696f6e20697320626c61636b6c6973746564000000000000000000602082015250565b7f4120706172656e7420746f6b656e20494420686173206e6f74206265656e206160008201527f6464656420746f20677261706800000000000000000000000000000000000000602082015250565b7f706172656e7420746f6b656e20494420686173206e6f74206265656e2061646460008201527f656420746f206772617068000000000000000000000000000000000000000000602082015250565b7f49442068617320616c6c7265616479206265656e20616464656420746f20677260008201527f6170682e00000000000000000000000000000000000000000000000000000000602082015250565b7f55736572206d7573742062652061646d696e2e00000000000000000000000000600082015250565b7f54686520746f6b656e204944206f66206120706172656e74206973207a65726f60008201527f2e00000000000000000000000000000000000000000000000000000000000000602082015250565b7f4120706172656e7420746f6b656e206973206e6f74206120726567697374656460008201527f20455243203131353520746f6b656e0000000000000000000000000000000000602082015250565b6138c7816131dd565b81146138d257600080fd5b50565b6138de81613209565b81146138e957600080fd5b5056fea26469706673582212207410a17aa85ab7d10f03f5f00c049a9411f1a50871c50f94cfe722622dab129764736f6c63430008060033",
  "linkReferences": {},
  "deployedLinkReferences": {}
}