{
  "_format": "hh-sol-artifact-1",
  "contractName": "copyrightGraph",
  "sourceName": "contracts/copyrightGraph.sol",
  "abi": [
    {
      "inputs": [],
      "stateMutability": "nonpayable",
      "type": "constructor"
    },
    {
      "anonymous": false,
      "inputs": [
        {
          "components": [
            {
              "internalType": "uint256",
              "name": "weight",
              "type": "uint256"
            },
            {
              "internalType": "uint256",
              "name": "timeStamp",
              "type": "uint256"
            },
            {
              "internalType": "bool",
              "name": "isBlacklisted",
              "type": "bool"
            },
            {
              "components": [
                {
                  "internalType": "uint256",
                  "name": "to",
                  "type": "uint256"
                },
                {
                  "internalType": "uint256",
                  "name": "weight",
                  "type": "uint256"
                }
              ],
              "internalType": "struct ICopyrightMaster.Edge[]",
              "name": "edge",
              "type": "tuple[]"
            }
          ],
          "indexed": false,
          "internalType": "struct ICopyrightMaster.Token",
          "name": "token",
          "type": "tuple"
        }
      ],
      "name": "AddTokenToGraph",
      "type": "event"
    },
    {
      "anonymous": false,
      "inputs": [
        {
          "indexed": false,
          "internalType": "uint256",
          "name": "id",
          "type": "uint256"
        },
        {
          "indexed": false,
          "internalType": "uint256",
          "name": "newWeight",
          "type": "uint256"
        }
      ],
      "name": "ChangeTokenWeight",
      "type": "event"
    },
    {
      "anonymous": false,
      "inputs": [
        {
          "indexed": false,
          "internalType": "uint256",
          "name": "id",
          "type": "uint256"
        },
        {
          "indexed": false,
          "internalType": "bool",
          "name": "isBlacklisted",
          "type": "bool"
        }
      ],
      "name": "TokenBlacklisted",
      "type": "event"
    },
    {
      "inputs": [
        {
          "internalType": "uint256",
          "name": "",
          "type": "uint256"
        }
      ],
      "name": "_idToTokenStruct",
      "outputs": [
        {
          "internalType": "uint256",
          "name": "weight",
          "type": "uint256"
        },
        {
          "internalType": "uint256",
          "name": "timeStamp",
          "type": "uint256"
        },
        {
          "internalType": "bool",
          "name": "isBlacklisted",
          "type": "bool"
        }
      ],
      "stateMutability": "view",
      "type": "function"
    },
    {
      "inputs": [
        {
          "internalType": "uint256",
          "name": "id",
          "type": "uint256"
        },
        {
          "internalType": "uint256",
          "name": "addToSet",
          "type": "uint256"
        }
      ],
      "name": "add",
      "outputs": [],
      "stateMutability": "nonpayable",
      "type": "function"
    },
    {
      "inputs": [
        {
          "internalType": "uint256",
          "name": "id",
          "type": "uint256"
        }
      ],
      "name": "bfsTraversal",
      "outputs": [
        {
          "internalType": "uint256[512]",
          "name": "BFSTokenList",
          "type": "uint256[512]"
        },
        {
          "internalType": "uint256[512]",
          "name": "BFSWeightList",
          "type": "uint256[512]"
        }
      ],
      "stateMutability": "nonpayable",
      "type": "function"
    },
    {
      "inputs": [
        {
          "internalType": "uint256",
          "name": "id",
          "type": "uint256"
        },
        {
          "internalType": "bool",
          "name": "isBlacklisted",
          "type": "bool"
        }
      ],
      "name": "blacklistToken",
      "outputs": [],
      "stateMutability": "nonpayable",
      "type": "function"
    },
    {
      "inputs": [
        {
          "internalType": "uint256",
          "name": "id",
          "type": "uint256"
        },
        {
          "internalType": "uint256",
          "name": "newWeight",
          "type": "uint256"
        }
      ],
      "name": "changeTokenWeight",
      "outputs": [],
      "stateMutability": "nonpayable",
      "type": "function"
    },
    {
      "inputs": [
        {
          "internalType": "uint256",
          "name": "id",
          "type": "uint256"
        }
      ],
      "name": "clearSet",
      "outputs": [],
      "stateMutability": "nonpayable",
      "type": "function"
    },
    {
      "inputs": [],
      "name": "dequeue",
      "outputs": [
        {
          "internalType": "uint256",
          "name": "id",
          "type": "uint256"
        }
      ],
      "stateMutability": "nonpayable",
      "type": "function"
    },
    {
      "inputs": [
        {
          "internalType": "uint256",
          "name": "id",
          "type": "uint256"
        }
      ],
      "name": "enqueue",
      "outputs": [],
      "stateMutability": "nonpayable",
      "type": "function"
    },
    {
      "inputs": [],
      "name": "getAdmin",
      "outputs": [
        {
          "internalType": "address",
          "name": "",
          "type": "address"
        }
      ],
      "stateMutability": "view",
      "type": "function"
    },
    {
      "inputs": [
        {
          "internalType": "uint256",
          "name": "id",
          "type": "uint256"
        }
      ],
      "name": "getEdge",
      "outputs": [
        {
          "components": [
            {
              "internalType": "uint256",
              "name": "to",
              "type": "uint256"
            },
            {
              "internalType": "uint256",
              "name": "weight",
              "type": "uint256"
            }
          ],
          "internalType": "struct ICopyrightMaster.Edge[]",
          "name": "edge",
          "type": "tuple[]"
        }
      ],
      "stateMutability": "view",
      "type": "function"
    },
    {
      "inputs": [],
      "name": "getTokenRegisteredCount",
      "outputs": [
        {
          "internalType": "uint256",
          "name": "",
          "type": "uint256"
        }
      ],
      "stateMutability": "view",
      "type": "function"
    },
    {
      "inputs": [],
      "name": "getTotalEdgeCount",
      "outputs": [
        {
          "internalType": "uint256",
          "name": "",
          "type": "uint256"
        }
      ],
      "stateMutability": "view",
      "type": "function"
    },
    {
      "inputs": [
        {
          "internalType": "uint256[]",
          "name": "parentIds",
          "type": "uint256[]"
        },
        {
          "internalType": "uint256[]",
          "name": "parentWeights",
          "type": "uint256[]"
        },
        {
          "internalType": "uint256",
          "name": "id",
          "type": "uint256"
        }
      ],
      "name": "insertEdges",
      "outputs": [],
      "stateMutability": "nonpayable",
      "type": "function"
    },
    {
      "inputs": [
        {
          "internalType": "uint256[]",
          "name": "parentIds",
          "type": "uint256[]"
        },
        {
          "internalType": "uint256[]",
          "name": "parentWeights",
          "type": "uint256[]"
        },
        {
          "internalType": "uint256",
          "name": "id",
          "type": "uint256"
        },
        {
          "internalType": "uint256",
          "name": "weight",
          "type": "uint256"
        }
      ],
      "name": "insertToken",
      "outputs": [],
      "stateMutability": "nonpayable",
      "type": "function"
    },
    {
      "inputs": [
        {
          "internalType": "uint256",
          "name": "id",
          "type": "uint256"
        },
        {
          "internalType": "uint256[]",
          "name": "parentTokenIds",
          "type": "uint256[]"
        }
      ],
      "name": "isSubset",
      "outputs": [
        {
          "internalType": "bool",
          "name": "",
          "type": "bool"
        }
      ],
      "stateMutability": "pure",
      "type": "function"
    },
    {
      "inputs": [],
      "name": "makeERC1155ForTesting",
      "outputs": [],
      "stateMutability": "nonpayable",
      "type": "function"
    },
    {
      "inputs": [
        {
          "components": [
            {
              "internalType": "uint256",
              "name": "weight",
              "type": "uint256"
            },
            {
              "internalType": "uint256",
              "name": "timeStamp",
              "type": "uint256"
            },
            {
              "internalType": "bool",
              "name": "isBlacklisted",
              "type": "bool"
            },
            {
              "components": [
                {
                  "internalType": "uint256",
                  "name": "to",
                  "type": "uint256"
                },
                {
                  "internalType": "uint256",
                  "name": "weight",
                  "type": "uint256"
                }
              ],
              "internalType": "struct ICopyrightMaster.Edge[]",
              "name": "edge",
              "type": "tuple[]"
            }
          ],
          "internalType": "struct ICopyrightMaster.Token",
          "name": "token",
          "type": "tuple"
        }
      ],
      "name": "returnId",
      "outputs": [
        {
          "internalType": "uint256",
          "name": "id",
          "type": "uint256"
        }
      ],
      "stateMutability": "pure",
      "type": "function"
    },
    {
      "inputs": [
        {
          "internalType": "uint256",
          "name": "id",
          "type": "uint256"
        }
      ],
      "name": "returnIsBlacklisted",
      "outputs": [
        {
          "internalType": "bool",
          "name": "isBlacklisted",
          "type": "bool"
        }
      ],
      "stateMutability": "view",
      "type": "function"
    },
    {
      "inputs": [
        {
          "internalType": "uint256",
          "name": "id",
          "type": "uint256"
        }
      ],
      "name": "returnTime",
      "outputs": [
        {
          "internalType": "uint256",
          "name": "timeStamp",
          "type": "uint256"
        }
      ],
      "stateMutability": "view",
      "type": "function"
    },
    {
      "inputs": [
        {
          "internalType": "uint256",
          "name": "id",
          "type": "uint256"
        }
      ],
      "name": "returnTokenWeight",
      "outputs": [
        {
          "internalType": "uint256",
          "name": "weight",
          "type": "uint256"
        }
      ],
      "stateMutability": "view",
      "type": "function"
    },
    {
      "inputs": [],
      "name": "tokenCount",
      "outputs": [
        {
          "internalType": "uint256",
          "name": "",
          "type": "uint256"
        }
      ],
      "stateMutability": "view",
      "type": "function"
    },
    {
      "inputs": [
        {
          "internalType": "uint256",
          "name": "id",
          "type": "uint256"
        }
      ],
      "name": "tokenExists",
      "outputs": [
        {
          "internalType": "bool",
          "name": "exists",
          "type": "bool"
        }
      ],
      "stateMutability": "view",
      "type": "function"
    }
  ],
  "bytecode": "0x60806040526001805560006002556001600360006101000a81548160ff0219169083151502179055506000600855600060095534801561003e57600080fd5b5033600560006101000a81548173ffffffffffffffffffffffffffffffffffffffff021916908373ffffffffffffffffffffffffffffffffffffffff1602179055506131418061008f6000396000f3fe608060405234801561001057600080fd5b50600436106101415760003560e01c8063957908d1116100b8578063aca382a01161007c578063aca382a01461039e578063be6d291e146103cf578063beae4942146103ff578063ce8b4afd1461041b578063d7753a6514610437578063d8be1fd41461044157610141565b8063957908d1146102e4578063981ad468146103025780639a914c44146103325780639f181b5e14610362578063a91388611461038057610141565b80635ee3c5881161010a5780635ee3c5881461020e5780636cf611271461022c5780636e9960c31461025c578063771602f71461027a578063866fe41a1461029657806389e0496f146102b257610141565b8062923f9e14610146578063076fcc1f146101765780630b8e12fc1461019257806316b407a8146101c25780631ffc735d146101f2575b600080fd5b610160600480360381019061015b9190612177565b61045d565b60405161016d919061268b565b60405180910390f35b610190600480360381019061018b9190612240565b610486565b005b6101ac60048036038101906101a79190612177565b6106a4565b6040516101b991906128c6565b60405180910390f35b6101dc60048036038101906101d79190612177565b6106c4565b6040516101e991906128c6565b60405180910390f35b61020c60048036038101906102079190612177565b6106e4565b005b610216610735565b60405161022391906128c6565b60405180910390f35b610246600480360381019061024191906121a4565b61073f565b604051610253919061268b565b60405180910390f35b6102646107b1565b6040516102719190612623565b60405180910390f35b610294600480360381019061028f9190612240565b6107db565b005b6102b060048036038101906102ab919061208f565b6108d5565b005b6102cc60048036038101906102c79190612177565b610e98565b6040516102db939291906128e1565b60405180910390f35b6102ec610ecf565b6040516102f991906128c6565b60405180910390f35b61031c60048036038101906103179190612177565b610f55565b604051610329919061268b565b60405180910390f35b61034c60048036038101906103479190612177565b610f82565b604051610359919061263e565b60405180910390f35b61036a61100b565b60405161037791906128c6565b60405180910390f35b610388611015565b60405161039591906128c6565b60405180910390f35b6103b860048036038101906103b39190612177565b61101f565b6040516103c6929190612660565b60405180910390f35b6103e960048036038101906103e4919061212e565b6111ce565b6040516103f691906128c6565b60405180910390f35b61041960048036038101906104149190612004565b6111d5565b005b61043560048036038101906104309190612200565b611986565b005b61043f611b85565b005b61045b60048036038101906104569190612177565b611c9e565b005b60008060076000848152602001908152602001600020600101541461048157600190505b919050565b600560009054906101000a900473ffffffffffffffffffffffffffffffffffffffff1673ffffffffffffffffffffffffffffffffffffffff163373ffffffffffffffffffffffffffffffffffffffff1614610516576040517f08c379a000000000000000000000000000000000000000000000000000000000815260040161050d90612866565b60405180910390fd5b600082141561055a576040517f08c379a0000000000000000000000000000000000000000000000000000000008152600401610551906126e6565b60405180910390fd5b600115156006600084815260200190815260200160002060009054906101000a900460ff161515146105c1576040517f08c379a00000000000000000000000000000000000000000000000000000000081526004016105b8906126c6565b60405180910390fd5b60006007600084815260200190815260200160002060010154141561061b576040517f08c379a0000000000000000000000000000000000000000000000000000000008152600401610612906127e6565b60405180910390fd5b600015156007600084815260200190815260200160002060020160009054906101000a900460ff16151514610685576040517f08c379a000000000000000000000000000000000000000000000000000000000815260040161067c906126a6565b60405180910390fd5b8060076000848152602001908152602001600020600001819055505050565b600060076000838152602001908152602001600020600101549050919050565b600060076000838152602001908152602001600020600001549050919050565b6001600260008282546106f79190612a0d565b925050819055506000600360006101000a81548160ff0219169083151502179055508060008060025481526020019081526020016000208190555050565b6000600854905090565b6000808251905060008114156107595760009150506107ab565b60005b818110156107a4578484828151811061077857610777612b83565b5b60200260200101511415610791576001925050506107ab565b808061079c90612adc565b91505061075c565b5060009150505b92915050565b6000600560009054906101000a900473ffffffffffffffffffffffffffffffffffffffff16905090565b60046000838152602001908152602001600020600101600082815260200190815260200160002060009054906101000a900460ff1661089657600160046000848152602001908152602001600020600101600083815260200190815260200160002060006101000a81548160ff021916908315150217905550600460008381526020019081526020016000206000018190806001815401808255809150506001900390600052602060002001600090919091909150556108d1565b6040517f08c379a00000000000000000000000000000000000000000000000000000000081526004016108c890612786565b60405180910390fd5b5050565b600560009054906101000a900473ffffffffffffffffffffffffffffffffffffffff1673ffffffffffffffffffffffffffffffffffffffff163373ffffffffffffffffffffffffffffffffffffffff1614610965576040517f08c379a000000000000000000000000000000000000000000000000000000000815260040161095c90612866565b60405180910390fd5b8160008114156109aa576040517f08c379a00000000000000000000000000000000000000000000000000000000081526004016109a1906126e6565b60405180910390fd5b600115156006600083815260200190815260200160002060009054906101000a900460ff16151514610a11576040517f08c379a0000000000000000000000000000000000000000000000000000000008152600401610a08906126c6565b60405180910390fd5b6000600760008381526020019081526020016000206001015414610a6a576040517f08c379a0000000000000000000000000000000000000000000000000000000008152600401610a6190612846565b60405180910390fd5b8351855114610aae576040517f08c379a0000000000000000000000000000000000000000000000000000000008152600401610aa590612726565b60405180910390fd5b60005b8551811015610d5457610ade84878381518110610ad157610ad0612b83565b5b60200260200101516107db565b6000868281518110610af357610af2612b83565b5b60200260200101511415610b3c576040517f08c379a0000000000000000000000000000000000000000000000000000000008152600401610b3390612886565b60405180910390fd5b6001151560066000888481518110610b5757610b56612b83565b5b6020026020010151815260200190815260200160002060009054906101000a900460ff16151514610bbd576040517f08c379a0000000000000000000000000000000000000000000000000000000008152600401610bb4906128a6565b60405180910390fd5b600060076000888481518110610bd657610bd5612b83565b5b60200260200101518152602001908152602001600020600101541415610c31576040517f08c379a0000000000000000000000000000000000000000000000000000000008152600401610c2890612806565b60405180910390fd5b848181518110610c4457610c43612b83565b5b602002602001015160076000888481518110610c6357610c62612b83565b5b602002602001015181526020019081526020016000206000015414610cbd576040517f08c379a0000000000000000000000000000000000000000000000000000000008152600401610cb4906127a6565b60405180910390fd5b6000151560076000888481518110610cd857610cd7612b83565b5b6020026020010151815260200190815260200160002060020160009054906101000a900460ff16151514610d41576040517f08c379a0000000000000000000000000000000000000000000000000000000008152600401610d3890612766565b60405180910390fd5b8080610d4c90612adc565b915050610ab1565b5060086000815480929190610d6890612adc565b9190505550816007600085815260200190815260200160002060000181905550426007600085815260200190815260200160002060010181905550600085511415610db257610e91565b845160096000828254610dc59190612a0d565b9250508190555060005b8551811015610e8f5760006040518060400160405280888481518110610df857610df7612b83565b5b60200260200101518152602001878481518110610e1857610e17612b83565b5b602002602001015181525090506007600086815260200190815260200160002060030181908060018154018082558091505060019003906000526020600020906002020160009091909190915060008201518160000155602082015181600101555050508080610e8790612adc565b915050610dcf565b505b5050505050565b60076020528060005260406000206000915090508060000154908060010154908060020160009054906101000a900460ff16905083565b60006001546002541015610ee257600080fd5b60008060015481526020019081526020016000205490506002546001541415610f21576001600360006101000a81548160ff0219169083151502179055505b6000806001548152602001908152602001600020600090556001806000828254610f4b9190612a0d565b9250508190555090565b60006007600083815260200190815260200160002060020160009054906101000a900460ff169050919050565b606060076000838152602001908152602001600020600301805480602002602001604051908101604052809291908181526020016000905b8282101561100057838290600052602060002090600202016040518060400160405290816000820154815260200160018201548152505081526020019060010190610fba565b505050509050919050565b6000600854905090565b6000600954905090565b611027611d96565b61102f611d96565b60008061103b856106e4565b60005b600360009054906101000a900460ff166111c65761105a610ecf565b90506110668186611d15565b6110e257808584610200811061107f5761107e612b83565b5b602002018181525050828061109390612adc565b935050858114156110e1576007600082815260200190815260200160002060000154848361020081106110c9576110c8612b83565b5b60200201818152505081806110dd90612adc565b9250505b5b60005b60076000838152602001908152602001600020600301805490508110156111c05761114860076000848152602001908152602001600020600301828154811061113157611130612b83565b5b9060005260206000209060020201600001546106e4565b6007600083815260200190815260200160002060030181815481106111705761116f612b83565b5b9060005260206000209060020201600101548584610200811061119657611195612b83565b5b60200201818152505082806111aa90612adc565b93505080806111b890612adc565b9150506110e5565b5061103e565b505050915091565b6000919050565b600560009054906101000a900473ffffffffffffffffffffffffffffffffffffffff1673ffffffffffffffffffffffffffffffffffffffff163373ffffffffffffffffffffffffffffffffffffffff1614611265576040517f08c379a000000000000000000000000000000000000000000000000000000000815260040161125c90612866565b60405180910390fd5b60008114156112a9576040517f08c379a00000000000000000000000000000000000000000000000000000000081526004016112a0906126e6565b60405180910390fd5b600115156006600083815260200190815260200160002060009054906101000a900460ff16151514611310576040517f08c379a0000000000000000000000000000000000000000000000000000000008152600401611307906126c6565b60405180910390fd5b60006007600083815260200190815260200160002060010154141561136a576040517f08c379a0000000000000000000000000000000000000000000000000000000008152600401611361906127e6565b60405180910390fd5b600015156007600083815260200190815260200160002060020160009054906101000a900460ff161515146113d4576040517f08c379a00000000000000000000000000000000000000000000000000000000081526004016113cb906126a6565b60405180910390fd5b6000835114156113e357611981565b60005b8351811015611689576114138285838151811061140657611405612b83565b5b60200260200101516107db565b600084828151811061142857611427612b83565b5b60200260200101511415611471576040517f08c379a000000000000000000000000000000000000000000000000000000000815260040161146890612886565b60405180910390fd5b600115156006600086848151811061148c5761148b612b83565b5b6020026020010151815260200190815260200160002060009054906101000a900460ff161515146114f2576040517f08c379a00000000000000000000000000000000000000000000000000000000081526004016114e9906128a6565b60405180910390fd5b60006007600086848151811061150b5761150a612b83565b5b60200260200101518152602001908152602001600020600101541415611566576040517f08c379a000000000000000000000000000000000000000000000000000000000815260040161155d90612826565b60405180910390fd5b82818151811061157957611578612b83565b5b60200260200101516007600086848151811061159857611597612b83565b5b6020026020010151815260200190815260200160002060000154146115f2576040517f08c379a00000000000000000000000000000000000000000000000000000000081526004016115e9906127a6565b60405180910390fd5b600015156007600086848151811061160d5761160c612b83565b5b6020026020010151815260200190815260200160002060020160009054906101000a900460ff16151514611676576040517f08c379a000000000000000000000000000000000000000000000000000000000815260040161166d90612766565b60405180910390fd5b808061168190612adc565b9150506113e6565b5081518351146116ce576040517f08c379a00000000000000000000000000000000000000000000000000000000081526004016116c590612726565b60405180910390fd5b60006116da828561073f565b9050801561171d576040517f08c379a000000000000000000000000000000000000000000000000000000000815260040161171490612706565b60405180910390fd5b60005b84518110156118a05760005b600760008581526020019081526020016000206003018054905081101561188c578582815181106117605761175f612b83565b5b60200260200101516007600086815260200190815260200160002060030182815481106117905761178f612b83565b5b90600052602060002090600202016000015414156117e3576040517f08c379a00000000000000000000000000000000000000000000000000000000081526004016117da906127c6565b60405180910390fd5b83600760008885815181106117fb576117fa612b83565b5b60200260200101518152602001908152602001600020600301828154811061182657611825612b83565b5b9060005260206000209060020201600001541415611879576040517f08c379a000000000000000000000000000000000000000000000000000000000815260040161187090612746565b60405180910390fd5b808061188490612adc565b91505061172c565b50808061189890612adc565b915050611720565b508351600960008282546118b49190612a0d565b9250508190555060005b845181101561197e57600060405180604001604052808784815181106118e7576118e6612b83565b5b6020026020010151815260200186848151811061190757611906612b83565b5b60200260200101518152509050600760008581526020019081526020016000206003018190806001815401808255809150506001900390600052602060002090600202016000909190919091506000820151816000015560208201518160010155505050808061197690612adc565b9150506118be565b50505b505050565b600560009054906101000a900473ffffffffffffffffffffffffffffffffffffffff1673ffffffffffffffffffffffffffffffffffffffff163373ffffffffffffffffffffffffffffffffffffffff1614611a16576040517f08c379a0000000000000000000000000000000000000000000000000000000008152600401611a0d90612866565b60405180910390fd5b6000821415611a5a576040517f08c379a0000000000000000000000000000000000000000000000000000000008152600401611a51906126e6565b60405180910390fd5b600115156006600084815260200190815260200160002060009054906101000a900460ff16151514611ac1576040517f08c379a0000000000000000000000000000000000000000000000000000000008152600401611ab8906126c6565b60405180910390fd5b600060076000848152602001908152602001600020600101541415611b1b576040517f08c379a0000000000000000000000000000000000000000000000000000000008152600401611b12906127e6565b60405180910390fd5b806007600084815260200190815260200160002060020160006101000a81548160ff021916908315150217905515611b5257611b81565b806007600084815260200190815260200160002060020160006101000a81548160ff0219169083151502179055505b5050565b600560009054906101000a900473ffffffffffffffffffffffffffffffffffffffff1673ffffffffffffffffffffffffffffffffffffffff163373ffffffffffffffffffffffffffffffffffffffff1614611c15576040517f08c379a0000000000000000000000000000000000000000000000000000000008152600401611c0c90612866565b60405180910390fd5b6001600660006001815260200190815260200160002060006101000a81548160ff0219169083151502179055506001600660006002815260200190815260200160002060006101000a81548160ff0219169083151502179055506001600660006003815260200190815260200160002060006101000a81548160ff021916908315150217905550565b60005b6004600083815260200190815260200160002060000180549050811015611d115760046000838152602001908152602001600020600001805480611ce857611ce7612b54565b5b600190038181906000526020600020016000905590558080611d0990612adc565b915050611ca1565b5050565b600080600090505b610200811015611d8a578383826102008110611d3c57611d3b612b83565b5b60200201511415611d51576001915050611d90565b600083826102008110611d6757611d66612b83565b5b60200201511415611d7757611d8a565b8080611d8290612adc565b915050611d1d565b50600090505b92915050565b60405180614000016040528061020090602082028036833780820191505090505090565b6000611dcd611dc88461293d565b612918565b90508083825260208201905082856040860282011115611df057611def612bf0565b5b60005b85811015611e205781611e068882611f0b565b845260208401935060408301925050600181019050611df3565b5050509392505050565b6000611e3d611e3884612969565b612918565b90508083825260208201905082856020860282011115611e6057611e5f612bf0565b5b60005b85811015611e905781611e768882611fef565b845260208401935060208301925050600181019050611e63565b5050509392505050565b600082601f830112611eaf57611eae612be1565b5b8135611ebf848260208601611dba565b91505092915050565b600082601f830112611edd57611edc612be1565b5b8135611eed848260208601611e2a565b91505092915050565b600081359050611f05816130dd565b92915050565b600060408284031215611f2157611f20612be6565b5b611f2b6040612918565b90506000611f3b84828501611fef565b6000830152506020611f4f84828501611fef565b60208301525092915050565b600060808284031215611f7157611f70612be6565b5b611f7b6080612918565b90506000611f8b84828501611fef565b6000830152506020611f9f84828501611fef565b6020830152506040611fb384828501611ef6565b604083015250606082013567ffffffffffffffff811115611fd757611fd6612beb565b5b611fe384828501611e9a565b60608301525092915050565b600081359050611ffe816130f4565b92915050565b60008060006060848603121561201d5761201c612bfa565b5b600084013567ffffffffffffffff81111561203b5761203a612bf5565b5b61204786828701611ec8565b935050602084013567ffffffffffffffff81111561206857612067612bf5565b5b61207486828701611ec8565b925050604061208586828701611fef565b9150509250925092565b600080600080608085870312156120a9576120a8612bfa565b5b600085013567ffffffffffffffff8111156120c7576120c6612bf5565b5b6120d387828801611ec8565b945050602085013567ffffffffffffffff8111156120f4576120f3612bf5565b5b61210087828801611ec8565b935050604061211187828801611fef565b925050606061212287828801611fef565b91505092959194509250565b60006020828403121561214457612143612bfa565b5b600082013567ffffffffffffffff81111561216257612161612bf5565b5b61216e84828501611f5b565b91505092915050565b60006020828403121561218d5761218c612bfa565b5b600061219b84828501611fef565b91505092915050565b600080604083850312156121bb576121ba612bfa565b5b60006121c985828601611fef565b925050602083013567ffffffffffffffff8111156121ea576121e9612bf5565b5b6121f685828601611ec8565b9150509250929050565b6000806040838503121561221757612216612bfa565b5b600061222585828601611fef565b925050602061223685828601611ef6565b9150509250929050565b6000806040838503121561225757612256612bfa565b5b600061226585828601611fef565b925050602061227685828601611fef565b9150509250929050565b600061228c83836125d6565b60408301905092915050565b60006122a48383612605565b60208301905092915050565b6122b981612a63565b82525050565b60006122ca826129af565b6122d481856129e0565b93506122df83612995565b8060005b838110156123105781516122f78882612280565b9750612302836129c6565b9250506001810190506122e3565b5085935050505092915050565b612326816129ba565b61233081846129f1565b925061233b826129a5565b8060005b8381101561236c5781516123538782612298565b965061235e836129d3565b92505060018101905061233f565b505050505050565b61237d81612a75565b82525050565b60006123906031836129fc565b915061239b82612c10565b604082019050919050565b60006123b3602c836129fc565b91506123be82612c5f565b604082019050919050565b60006123d6601b836129fc565b91506123e182612cae565b602082019050919050565b60006123f9602c836129fc565b915061240482612cd7565b604082019050919050565b600061241c6037836129fc565b915061242782612d26565b604082019050919050565b600061243f6024836129fc565b915061244a82612d75565b604082019050919050565b6000612462603a836129fc565b915061246d82612dc4565b604082019050919050565b60006124856033836129fc565b915061249082612e13565b604082019050919050565b60006124a86034836129fc565b91506124b382612e62565b604082019050919050565b60006124cb603c836129fc565b91506124d682612eb1565b604082019050919050565b60006124ee601f836129fc565b91506124f982612f00565b602082019050919050565b6000612511602d836129fc565b915061251c82612f29565b604082019050919050565b6000612534602b836129fc565b915061253f82612f78565b604082019050919050565b60006125576024836129fc565b915061256282612fc7565b604082019050919050565b600061257a6013836129fc565b915061258582613016565b602082019050919050565b600061259d6021836129fc565b91506125a88261303f565b604082019050919050565b60006125c0602f836129fc565b91506125cb8261308e565b604082019050919050565b6040820160008201516125ec6000850182612605565b5060208201516125ff6020850182612605565b50505050565b61260e81612aa1565b82525050565b61261d81612aa1565b82525050565b600060208201905061263860008301846122b0565b92915050565b6000602082019050818103600083015261265881846122bf565b905092915050565b600061800082019050612676600083018561231d565b61268461400083018461231d565b9392505050565b60006020820190506126a06000830184612374565b92915050565b600060208201905081810360008301526126bf81612383565b9050919050565b600060208201905081810360008301526126df816123a6565b9050919050565b600060208201905081810360008301526126ff816123c9565b9050919050565b6000602082019050818103600083015261271f816123ec565b9050919050565b6000602082019050818103600083015261273f8161240f565b9050919050565b6000602082019050818103600083015261275f81612432565b9050919050565b6000602082019050818103600083015261277f81612455565b9050919050565b6000602082019050818103600083015261279f81612478565b9050919050565b600060208201905081810360008301526127bf8161249b565b9050919050565b600060208201905081810360008301526127df816124be565b9050919050565b600060208201905081810360008301526127ff816124e1565b9050919050565b6000602082019050818103600083015261281f81612504565b9050919050565b6000602082019050818103600083015261283f81612527565b9050919050565b6000602082019050818103600083015261285f8161254a565b9050919050565b6000602082019050818103600083015261287f8161256d565b9050919050565b6000602082019050818103600083015261289f81612590565b9050919050565b600060208201905081810360008301526128bf816125b3565b9050919050565b60006020820190506128db6000830184612614565b92915050565b60006060820190506128f66000830186612614565b6129036020830185612614565b6129106040830184612374565b949350505050565b6000612922612933565b905061292e8282612aab565b919050565b6000604051905090565b600067ffffffffffffffff82111561295857612957612bb2565b5b602082029050602081019050919050565b600067ffffffffffffffff82111561298457612983612bb2565b5b602082029050602081019050919050565b6000819050602082019050919050565b6000819050919050565b600081519050919050565b60006102009050919050565b6000602082019050919050565b6000602082019050919050565b600082825260208201905092915050565b600081905092915050565b600082825260208201905092915050565b6000612a1882612aa1565b9150612a2383612aa1565b9250827fffffffffffffffffffffffffffffffffffffffffffffffffffffffffffffffff03821115612a5857612a57612b25565b5b828201905092915050565b6000612a6e82612a81565b9050919050565b60008115159050919050565b600073ffffffffffffffffffffffffffffffffffffffff82169050919050565b6000819050919050565b612ab482612bff565b810181811067ffffffffffffffff82111715612ad357612ad2612bb2565b5b80604052505050565b6000612ae782612aa1565b91507fffffffffffffffffffffffffffffffffffffffffffffffffffffffffffffffff821415612b1a57612b19612b25565b5b600182019050919050565b7f4e487b7100000000000000000000000000000000000000000000000000000000600052601160045260246000fd5b7f4e487b7100000000000000000000000000000000000000000000000000000000600052603160045260246000fd5b7f4e487b7100000000000000000000000000000000000000000000000000000000600052603260045260246000fd5b7f4e487b7100000000000000000000000000000000000000000000000000000000600052604160045260246000fd5b600080fd5b600080fd5b600080fd5b600080fd5b600080fd5b600080fd5b6000601f19601f8301169050919050565b7f696420697320626c61636b6c697374656420736f20746869732070726f63657360008201527f732063616e6e6f7420636f6e74696e7565000000000000000000000000000000602082015250565b7f54686520746f6b656e206973206e6f742061207265676973746572656420455260008201527f43203131353520746f6b656e0000000000000000000000000000000000000000602082015250565b7f54686520746f6b656e2049442063616e6e6f74206265207a65726f0000000000600082015250565b7f546f6b656e49442063616e6e6f74206265206120737562736574206f6620706160008201527f72656e74546f6b656e4944730000000000000000000000000000000000000000602082015250565b7f546865206c656e677468206f6620706172656e742049647320616e642077656960008201527f676874732073686f756c64206265207468652073616d65000000000000000000602082015250565b7f4572726f723a20616e206772617068206c6f6f702077696c6c2062652063726560008201527f6174656400000000000000000000000000000000000000000000000000000000602082015250565b7f4120706172656e7420494420697320626c61636b6c697374656420736f20746860008201527f69732070726f636573732063616e6e6f7420636f6e74696e7565000000000000602082015250565b7f412076616c756520796f752061726520696e70757474696e6720696e6469636160008201527f746573206120627265616b206f66207365742e00000000000000000000000000602082015250565b7f4120706172656e7420696420646f6573206e6f7420636f6f7265736f6e64207460008201527f6f2074686520636f727265637420776569676874000000000000000000000000602082015250565b7f4572726f723a204564676520636f6e6e656374696f6e20796f7520617265207460008201527f7279696e6720746f2061646420616c6c72656164792065786973747300000000602082015250565b7f494420686173206e6f74206265656e20616464656420746f2067726170682e00600082015250565b7f4120706172656e7420746f6b656e20494420686173206e6f74206265656e206160008201527f6464656420746f20677261706800000000000000000000000000000000000000602082015250565b7f706172656e7420746f6b656e20494420686173206e6f74206265656e2061646460008201527f656420746f206772617068000000000000000000000000000000000000000000602082015250565b7f49442068617320616c6c7265616479206265656e20616464656420746f20677260008201527f6170682e00000000000000000000000000000000000000000000000000000000602082015250565b7f55736572206d7573742062652061646d696e2e00000000000000000000000000600082015250565b7f54686520746f6b656e204944206f66206120706172656e74206973207a65726f60008201527f2e00000000000000000000000000000000000000000000000000000000000000602082015250565b7f4120706172656e7420746f6b656e206973206e6f74206120726567697374656460008201527f20455243203131353520746f6b656e0000000000000000000000000000000000602082015250565b6130e681612a75565b81146130f157600080fd5b50565b6130fd81612aa1565b811461310857600080fd5b5056fea264697066735822122042990a761c721aa9a8ba5f7ea004499738f2046e54fb8550cdedaa572afe740064736f6c63430008060033",
  "linkReferences": {},
  "deployedLinkReferences": {}
}