{
  "contracts/copyrightMaster.sol": {
    "copyrightGraph": {
      "abi": [
        {
          "inputs": [],
          "stateMutability": "nonpayable",
          "type": "constructor"
        },
        {
          "anonymous": false,
          "inputs": [
            {
              "components": [
                {
                  "internalType": "uint256",
                  "name": "weight",
                  "type": "uint256"
                },
                {
                  "internalType": "uint256",
                  "name": "timeStamp",
                  "type": "uint256"
                },
                {
                  "internalType": "bool",
                  "name": "isBlacklisted",
                  "type": "bool"
                },
                {
                  "components": [
                    {
                      "internalType": "uint256[]",
                      "name": "to",
                      "type": "uint256[]"
                    },
                    {
                      "internalType": "uint256[]",
                      "name": "weight",
                      "type": "uint256[]"
                    }
                  ],
                  "internalType": "struct ICopyrightMaster.Edge",
                  "name": "edge",
                  "type": "tuple"
                }
              ],
              "indexed": false,
              "internalType": "struct ICopyrightMaster.Token",
              "name": "token",
              "type": "tuple"
            }
          ],
          "name": "AddTokenToGraph",
          "type": "event"
        },
        {
          "anonymous": false,
          "inputs": [
            {
              "indexed": false,
              "internalType": "uint256",
              "name": "id",
              "type": "uint256"
            },
            {
              "indexed": false,
              "internalType": "uint256",
              "name": "newWeight",
              "type": "uint256"
            }
          ],
          "name": "ChangeTokenWeight",
          "type": "event"
        },
        {
          "anonymous": false,
          "inputs": [
            {
              "indexed": false,
              "internalType": "uint256",
              "name": "id",
              "type": "uint256"
            },
            {
              "indexed": false,
              "internalType": "bool",
              "name": "isBlacklisted",
              "type": "bool"
            }
          ],
          "name": "TokenBlacklisted",
          "type": "event"
        },
        {
          "inputs": [
            {
              "internalType": "uint256",
              "name": "",
              "type": "uint256"
            }
          ],
          "name": "_idToTokenStruct",
          "outputs": [
            {
              "internalType": "uint256",
              "name": "weight",
              "type": "uint256"
            },
            {
              "internalType": "uint256",
              "name": "timeStamp",
              "type": "uint256"
            },
            {
              "internalType": "bool",
              "name": "isBlacklisted",
              "type": "bool"
            },
            {
              "components": [
                {
                  "internalType": "uint256[]",
                  "name": "to",
                  "type": "uint256[]"
                },
                {
                  "internalType": "uint256[]",
                  "name": "weight",
                  "type": "uint256[]"
                }
              ],
              "internalType": "struct ICopyrightMaster.Edge",
              "name": "edge",
              "type": "tuple"
            }
          ],
          "stateMutability": "view",
          "type": "function"
        },
        {
          "inputs": [
            {
              "internalType": "uint256",
              "name": "id",
              "type": "uint256"
            },
            {
              "internalType": "uint256",
              "name": "addToSet",
              "type": "uint256"
            }
          ],
          "name": "add",
          "outputs": [],
          "stateMutability": "nonpayable",
          "type": "function"
        },
        {
          "inputs": [
            {
              "internalType": "uint256",
              "name": "id",
              "type": "uint256"
            }
          ],
          "name": "bfsTraversal",
          "outputs": [],
          "stateMutability": "nonpayable",
          "type": "function"
        },
        {
          "inputs": [
            {
              "internalType": "uint256",
              "name": "id",
              "type": "uint256"
            },
            {
              "internalType": "bool",
              "name": "isBlacklisted",
              "type": "bool"
            }
          ],
          "name": "blacklistToken",
          "outputs": [],
          "stateMutability": "nonpayable",
          "type": "function"
        },
        {
          "inputs": [
            {
              "internalType": "uint256",
              "name": "id",
              "type": "uint256"
            },
            {
              "internalType": "uint256",
              "name": "newWeight",
              "type": "uint256"
            }
          ],
          "name": "changeTokenWeight",
          "outputs": [],
          "stateMutability": "nonpayable",
          "type": "function"
        },
        {
          "inputs": [
            {
              "internalType": "uint256",
              "name": "id",
              "type": "uint256"
            }
          ],
          "name": "clearSet",
          "outputs": [],
          "stateMutability": "nonpayable",
          "type": "function"
        },
        {
          "inputs": [],
          "name": "dequeue",
          "outputs": [
            {
              "internalType": "uint256",
              "name": "id",
              "type": "uint256"
            }
          ],
          "stateMutability": "nonpayable",
          "type": "function"
        },
        {
          "inputs": [],
          "name": "edgeCount",
          "outputs": [
            {
              "internalType": "uint256",
              "name": "",
              "type": "uint256"
            }
          ],
          "stateMutability": "view",
          "type": "function"
        },
        {
          "inputs": [
            {
              "internalType": "uint256",
              "name": "id",
              "type": "uint256"
            }
          ],
          "name": "edgeTo",
          "outputs": [
            {
              "internalType": "uint256[]",
              "name": "",
              "type": "uint256[]"
            }
          ],
          "stateMutability": "view",
          "type": "function"
        },
        {
          "inputs": [
            {
              "internalType": "uint256",
              "name": "id",
              "type": "uint256"
            }
          ],
          "name": "edgeWeights",
          "outputs": [
            {
              "internalType": "uint256[]",
              "name": "",
              "type": "uint256[]"
            }
          ],
          "stateMutability": "view",
          "type": "function"
        },
        {
          "inputs": [
            {
              "internalType": "uint256",
              "name": "id",
              "type": "uint256"
            }
          ],
          "name": "enqueue",
          "outputs": [],
          "stateMutability": "nonpayable",
          "type": "function"
        },
        {
          "inputs": [],
          "name": "getAdmin",
          "outputs": [
            {
              "internalType": "address",
              "name": "",
              "type": "address"
            }
          ],
          "stateMutability": "view",
          "type": "function"
        },
        {
          "inputs": [],
          "name": "getTokenRegisteredCount",
          "outputs": [
            {
              "internalType": "uint256",
              "name": "",
              "type": "uint256"
            }
          ],
          "stateMutability": "view",
          "type": "function"
        },
        {
          "inputs": [],
          "name": "getTotalEdgeCount",
          "outputs": [
            {
              "internalType": "uint256",
              "name": "",
              "type": "uint256"
            }
          ],
          "stateMutability": "view",
          "type": "function"
        },
        {
          "inputs": [
            {
              "internalType": "uint256[]",
              "name": "parentIds",
              "type": "uint256[]"
            },
            {
              "internalType": "uint256[]",
              "name": "parentWeights",
              "type": "uint256[]"
            },
            {
              "internalType": "uint256",
              "name": "id",
              "type": "uint256"
            }
          ],
          "name": "insertEdges",
          "outputs": [],
          "stateMutability": "nonpayable",
          "type": "function"
        },
        {
          "inputs": [
            {
              "internalType": "uint256[]",
              "name": "parentIds",
              "type": "uint256[]"
            },
            {
              "internalType": "uint256[]",
              "name": "parentWeights",
              "type": "uint256[]"
            },
            {
              "internalType": "uint256",
              "name": "id",
              "type": "uint256"
            },
            {
              "internalType": "uint256",
              "name": "weight",
              "type": "uint256"
            }
          ],
          "name": "insertToken",
          "outputs": [],
          "stateMutability": "nonpayable",
          "type": "function"
        },
        {
          "inputs": [
            {
              "internalType": "uint256",
              "name": "id",
              "type": "uint256"
            },
            {
              "internalType": "uint256[]",
              "name": "parentTokenIds",
              "type": "uint256[]"
            }
          ],
          "name": "isSubset",
          "outputs": [
            {
              "internalType": "bool",
              "name": "",
              "type": "bool"
            }
          ],
          "stateMutability": "pure",
          "type": "function"
        },
        {
          "inputs": [
            {
              "internalType": "uint256",
              "name": "id",
              "type": "uint256"
            },
            {
              "internalType": "uint256[512]",
              "name": "parentTokenIds",
              "type": "uint256[512]"
            }
          ],
          "name": "isSubsetSpecialMemory",
          "outputs": [
            {
              "internalType": "bool",
              "name": "",
              "type": "bool"
            }
          ],
          "stateMutability": "pure",
          "type": "function"
        },
        {
          "inputs": [],
          "name": "makeERC1155ForTesting",
          "outputs": [],
          "stateMutability": "nonpayable",
          "type": "function"
        },
        {
          "inputs": [
            {
              "internalType": "uint256",
              "name": "id",
              "type": "uint256"
            }
          ],
          "name": "returnEdge",
          "outputs": [
            {
              "components": [
                {
                  "internalType": "uint256[]",
                  "name": "to",
                  "type": "uint256[]"
                },
                {
                  "internalType": "uint256[]",
                  "name": "weight",
                  "type": "uint256[]"
                }
              ],
              "internalType": "struct ICopyrightMaster.Edge",
              "name": "edge",
              "type": "tuple"
            }
          ],
          "stateMutability": "view",
          "type": "function"
        },
        {
          "inputs": [
            {
              "components": [
                {
                  "internalType": "uint256",
                  "name": "weight",
                  "type": "uint256"
                },
                {
                  "internalType": "uint256",
                  "name": "timeStamp",
                  "type": "uint256"
                },
                {
                  "internalType": "bool",
                  "name": "isBlacklisted",
                  "type": "bool"
                },
                {
                  "components": [
                    {
                      "internalType": "uint256[]",
                      "name": "to",
                      "type": "uint256[]"
                    },
                    {
                      "internalType": "uint256[]",
                      "name": "weight",
                      "type": "uint256[]"
                    }
                  ],
                  "internalType": "struct ICopyrightMaster.Edge",
                  "name": "edge",
                  "type": "tuple"
                }
              ],
              "internalType": "struct ICopyrightMaster.Token",
              "name": "token",
              "type": "tuple"
            }
          ],
          "name": "returnId",
          "outputs": [
            {
              "internalType": "uint256",
              "name": "id",
              "type": "uint256"
            }
          ],
          "stateMutability": "pure",
          "type": "function"
        },
        {
          "inputs": [
            {
              "internalType": "uint256",
              "name": "id",
              "type": "uint256"
            }
          ],
          "name": "returnIsBlacklisted",
          "outputs": [
            {
              "internalType": "bool",
              "name": "isBlacklisted",
              "type": "bool"
            }
          ],
          "stateMutability": "view",
          "type": "function"
        },
        {
          "inputs": [
            {
              "internalType": "uint256",
              "name": "id",
              "type": "uint256"
            }
          ],
          "name": "returnTime",
          "outputs": [
            {
              "internalType": "uint256",
              "name": "timeStamp",
              "type": "uint256"
            }
          ],
          "stateMutability": "view",
          "type": "function"
        },
        {
          "inputs": [
            {
              "internalType": "uint256",
              "name": "id",
              "type": "uint256"
            }
          ],
          "name": "returnTokenWeight",
          "outputs": [
            {
              "internalType": "uint256",
              "name": "weight",
              "type": "uint256"
            }
          ],
          "stateMutability": "view",
          "type": "function"
        },
        {
          "inputs": [
            {
              "internalType": "uint256",
              "name": "id",
              "type": "uint256"
            }
          ],
          "name": "sortByTime",
          "outputs": [],
          "stateMutability": "nonpayable",
          "type": "function"
        },
        {
          "inputs": [],
          "name": "tokenCount",
          "outputs": [
            {
              "internalType": "uint256",
              "name": "",
              "type": "uint256"
            }
          ],
          "stateMutability": "view",
          "type": "function"
        },
        {
          "inputs": [
            {
              "internalType": "uint256",
              "name": "id",
              "type": "uint256"
            }
          ],
          "name": "tokenExists",
          "outputs": [
            {
              "internalType": "bool",
              "name": "exists",
              "type": "bool"
            }
          ],
          "stateMutability": "view",
          "type": "function"
        }
      ],
      "evm": {
        "bytecode": {
          "linkReferences": {},
          "object": "60806040526001805560006002556001600360006101000a81548160ff0219169083151502179055506000600855600060095534801561003e57600080fd5b5033600560006101000a81548173ffffffffffffffffffffffffffffffffffffffff021916908373ffffffffffffffffffffffffffffffffffffffff1602179055506134988061008f6000396000f3fe608060405234801561001057600080fd5b50600436106101a85760003560e01c8063957908d1116100f9578063beae494211610097578063d7753a6511610071578063d7753a6514610506578063d8be1fd414610510578063e8ca8c3e1461052c578063ee8a9fd61461055c576101a8565b8063beae49421461049e578063c9557449146104ba578063ce8b4afd146104ea576101a8565b8063a6c7c955116100d3578063a6c7c95514610418578063a913886114610448578063aca382a014610466578063b0f555ae14610482576101a8565b8063957908d1146103ac578063981ad468146103ca5780639f181b5e146103fa576101a8565b80635ee3c58811610166578063771602f711610140578063771602f714610311578063866fe41a1461032d57806389e0496f1461034957806394b908301461037c576101a8565b80635ee3c588146102a55780636cf61127146102c35780636e9960c3146102f3576101a8565b8062923f9e146101ad578063076fcc1f146101dd5780630b8e12fc146101f957806316b407a81461022957806318182eaa146102595780631ffc735d14610289575b600080fd5b6101c760048036038101906101c29190612532565b61057a565b6040516101d49190612a3d565b60405180910390f35b6101f760048036038101906101f2919061263c565b6105a3565b005b610213600480360381019061020e9190612532565b610758565b6040516102209190612c7a565b60405180910390f35b610243600480360381019061023e9190612532565b610778565b6040516102509190612c7a565b60405180910390f35b610273600480360381019061026e919061255f565b610798565b6040516102809190612a3d565b60405180910390f35b6102a3600480360381019061029e9190612532565b61080b565b005b6102ad61085c565b6040516102ba9190612c7a565b60405180910390f35b6102dd60048036038101906102d891906125a0565b610866565b6040516102ea9190612a3d565b60405180910390f35b6102fb6108d8565b6040516103089190612a00565b60405180910390f35b61032b6004803603810190610326919061263c565b610902565b005b6103476004803603810190610342919061244a565b6109fc565b005b610363600480360381019061035e9190612532565b610f57565b6040516103739493929190612c95565b60405180910390f35b61039660048036038101906103919190612532565b61104e565b6040516103a39190612c58565b60405180910390f35b6103b461112e565b6040516103c19190612c7a565b60405180910390f35b6103e460048036038101906103df9190612532565b6111b4565b6040516103f19190612a3d565b60405180910390f35b6104026111e1565b60405161040f9190612c7a565b60405180910390f35b610432600480360381019061042d91906124e9565b6111eb565b60405161043f9190612c7a565b60405180910390f35b6104506111f2565b60405161045d9190612c7a565b60405180910390f35b610480600480360381019061047b9190612532565b6111fc565b005b61049c60048036038101906104979190612532565b61135c565b005b6104b860048036038101906104b391906123bf565b6114f5565b005b6104d460048036038101906104cf9190612532565b611c25565b6040516104e19190612a1b565b60405180910390f35b61050460048036038101906104ff91906125fc565b611c96565b005b61050e611e95565b005b61052a60048036038101906105259190612532565b611fae565b005b61054660048036038101906105419190612532565b612025565b6040516105539190612a1b565b60405180910390f35b610564612096565b6040516105719190612c7a565b60405180910390f35b60008060076000848152602001908152602001600020600101541461059e57600190505b919050565b600560009054906101000a900473ffffffffffffffffffffffffffffffffffffffff1673ffffffffffffffffffffffffffffffffffffffff163373ffffffffffffffffffffffffffffffffffffffff1614610633576040517f08c379a000000000000000000000000000000000000000000000000000000000815260040161062a90612bf8565b60405180910390fd5b816000811415610678576040517f08c379a000000000000000000000000000000000000000000000000000000000815260040161066f90612a78565b60405180910390fd5b600115156006600083815260200190815260200160002060009054906101000a900460ff161515146106df576040517f08c379a00000000000000000000000000000000000000000000000000000000081526004016106d690612a58565b60405180910390fd5b6000600760008381526020019081526020016000206001015414610738576040517f08c379a000000000000000000000000000000000000000000000000000000000815260040161072f90612bd8565b60405180910390fd5b816007600085815260200190815260200160002060000181905550505050565b600060076000838152602001908152602001600020600101549050919050565b600060076000838152602001908152602001600020600001549050919050565b600080610200905060008114156107b3576000915050610805565b60005b6102008110156107fe5784848261020081106107d5576107d4612f29565b5b602002015114156107eb57600192505050610805565b80806107f690612e82565b9150506107b6565b5060009150505b92915050565b60016002600082825461081e9190612db3565b925050819055506000600360006101000a81548160ff0219169083151502179055508060008060025481526020019081526020016000208190555050565b6000600854905090565b6000808251905060008114156108805760009150506108d2565b60005b818110156108cb578484828151811061089f5761089e612f29565b5b602002602001015114156108b8576001925050506108d2565b80806108c390612e82565b915050610883565b5060009150505b92915050565b6000600560009054906101000a900473ffffffffffffffffffffffffffffffffffffffff16905090565b60046000838152602001908152602001600020600101600082815260200190815260200160002060009054906101000a900460ff166109bd57600160046000848152602001908152602001600020600101600083815260200190815260200160002060006101000a81548160ff021916908315150217905550600460008381526020019081526020016000206000018190806001815401808255809150506001900390600052602060002001600090919091909150556109f8565b6040517f08c379a00000000000000000000000000000000000000000000000000000000081526004016109ef90612b18565b60405180910390fd5b5050565b600560009054906101000a900473ffffffffffffffffffffffffffffffffffffffff1673ffffffffffffffffffffffffffffffffffffffff163373ffffffffffffffffffffffffffffffffffffffff1614610a8c576040517f08c379a0000000000000000000000000000000000000000000000000000000008152600401610a8390612bf8565b60405180910390fd5b816000811415610ad1576040517f08c379a0000000000000000000000000000000000000000000000000000000008152600401610ac890612a78565b60405180910390fd5b600115156006600083815260200190815260200160002060009054906101000a900460ff16151514610b38576040517f08c379a0000000000000000000000000000000000000000000000000000000008152600401610b2f90612a58565b60405180910390fd5b6000600760008381526020019081526020016000206001015414610b91576040517f08c379a0000000000000000000000000000000000000000000000000000000008152600401610b8890612bd8565b60405180910390fd5b8351855114610bd5576040517f08c379a0000000000000000000000000000000000000000000000000000000008152600401610bcc90612ab8565b60405180910390fd5b60005b8551811015610e7b57610c0584878381518110610bf857610bf7612f29565b5b6020026020010151610902565b6000868281518110610c1a57610c19612f29565b5b60200260200101511415610c63576040517f08c379a0000000000000000000000000000000000000000000000000000000008152600401610c5a90612c18565b60405180910390fd5b6001151560066000888481518110610c7e57610c7d612f29565b5b6020026020010151815260200190815260200160002060009054906101000a900460ff16151514610ce4576040517f08c379a0000000000000000000000000000000000000000000000000000000008152600401610cdb90612c38565b60405180910390fd5b600060076000888481518110610cfd57610cfc612f29565b5b60200260200101518152602001908152602001600020600101541415610d58576040517f08c379a0000000000000000000000000000000000000000000000000000000008152600401610d4f90612b98565b60405180910390fd5b848181518110610d6b57610d6a612f29565b5b602002602001015160076000888481518110610d8a57610d89612f29565b5b602002602001015181526020019081526020016000206000015414610de4576040517f08c379a0000000000000000000000000000000000000000000000000000000008152600401610ddb90612b38565b60405180910390fd5b6000151560076000888481518110610dff57610dfe612f29565b5b6020026020010151815260200190815260200160002060020160009054906101000a900460ff16151514610e68576040517f08c379a0000000000000000000000000000000000000000000000000000000008152600401610e5f90612af8565b60405180910390fd5b8080610e7390612e82565b915050610bd8565b5060086000815480929190610e8f90612e82565b9190505550816007600085815260200190815260200160002060000181905550426007600085815260200190815260200160002060010181905550600085511415610ed957610f50565b845160096000828254610eec9190612db3565b9250508190555084600760008581526020019081526020016000206003016000019080519060200190610f209291906120a0565b5083600760008581526020019081526020016000206003016001019080519060200190610f4e9291906120a0565b505b5050505050565b60076020528060005260406000206000915090508060000154908060010154908060020160009054906101000a900460ff16908060030160405180604001604052908160008201805480602002602001604051908101604052809291908181526020018280548015610fe857602002820191906000526020600020905b815481526020019060010190808311610fd4575b505050505081526020016001820180548060200260200160405190810160405280929190818152602001828054801561104057602002820191906000526020600020905b81548152602001906001019080831161102c575b505050505081525050905084565b6110566120ed565b60076000838152602001908152602001600020600301604051806040016040529081600082018054806020026020016040519081016040528092919081815260200182805480156110c657602002820191906000526020600020905b8154815260200190600101908083116110b2575b505050505081526020016001820180548060200260200160405190810160405280929190818152602001828054801561111e57602002820191906000526020600020905b81548152602001906001019080831161110a575b5050505050815250509050919050565b6000600154600254101561114157600080fd5b60008060015481526020019081526020016000205490506002546001541415611180576001600360006101000a81548160ff0219169083151502179055505b60008060015481526020019081526020016000206000905560018060008282546111aa9190612db3565b9250508190555090565b60006007600083815260200190815260200160002060020160009054906101000a900460ff169050919050565b6000600854905090565b6000919050565b6000600954905090565b611204612107565b600061120e612107565b60006112198561080b565b60005b600360009054906101000a900460ff166113545761123861112e565b90506112448186610798565b61127557808585610200811061125d5761125c612f29565b5b602002018181525050838061127190612e82565b9450505b60005b600760008381526020019081526020016000206003016000018054905081101561134e576112da6007600084815260200190815260200160002060030160000182815481106112ca576112c9612f29565b5b906000526020600020015461080b565b60076000838152602001908152602001600020600301600101818154811061130557611304612f29565b5b90600052602060002001548484610200811061132457611323612f29565b5b602002018181525050828061133890612e82565b935050808061134690612e82565b915050611278565b5061121c565b505050505050565b600560009054906101000a900473ffffffffffffffffffffffffffffffffffffffff1673ffffffffffffffffffffffffffffffffffffffff163373ffffffffffffffffffffffffffffffffffffffff16146113ec576040517f08c379a00000000000000000000000000000000000000000000000000000000081526004016113e390612bf8565b60405180910390fd5b806000811415611431576040517f08c379a000000000000000000000000000000000000000000000000000000000815260040161142890612a78565b60405180910390fd5b600115156006600083815260200190815260200160002060009054906101000a900460ff16151514611498576040517f08c379a000000000000000000000000000000000000000000000000000000000815260040161148f90612a58565b60405180910390fd5b60006007600083815260200190815260200160002060010154146114f1576040517f08c379a00000000000000000000000000000000000000000000000000000000081526004016114e890612bd8565b60405180910390fd5b5050565b600560009054906101000a900473ffffffffffffffffffffffffffffffffffffffff1673ffffffffffffffffffffffffffffffffffffffff163373ffffffffffffffffffffffffffffffffffffffff1614611585576040517f08c379a000000000000000000000000000000000000000000000000000000000815260040161157c90612bf8565b60405180910390fd5b60008114156115c9576040517f08c379a00000000000000000000000000000000000000000000000000000000081526004016115c090612a78565b60405180910390fd5b600115156006600083815260200190815260200160002060009054906101000a900460ff16151514611630576040517f08c379a000000000000000000000000000000000000000000000000000000000815260040161162790612a58565b60405180910390fd5b60006007600083815260200190815260200160002060010154141561168a576040517f08c379a000000000000000000000000000000000000000000000000000000000815260040161168190612b78565b60405180910390fd5b60008351141561169957611c20565b60005b835181101561193f576116c9828583815181106116bc576116bb612f29565b5b6020026020010151610902565b60008482815181106116de576116dd612f29565b5b60200260200101511415611727576040517f08c379a000000000000000000000000000000000000000000000000000000000815260040161171e90612c18565b60405180910390fd5b600115156006600086848151811061174257611741612f29565b5b6020026020010151815260200190815260200160002060009054906101000a900460ff161515146117a8576040517f08c379a000000000000000000000000000000000000000000000000000000000815260040161179f90612c38565b60405180910390fd5b6000600760008684815181106117c1576117c0612f29565b5b6020026020010151815260200190815260200160002060010154141561181c576040517f08c379a000000000000000000000000000000000000000000000000000000000815260040161181390612bb8565b60405180910390fd5b82818151811061182f5761182e612f29565b5b60200260200101516007600086848151811061184e5761184d612f29565b5b6020026020010151815260200190815260200160002060000154146118a8576040517f08c379a000000000000000000000000000000000000000000000000000000000815260040161189f90612b38565b60405180910390fd5b60001515600760008684815181106118c3576118c2612f29565b5b6020026020010151815260200190815260200160002060020160009054906101000a900460ff1615151461192c576040517f08c379a000000000000000000000000000000000000000000000000000000000815260040161192390612af8565b60405180910390fd5b808061193790612e82565b91505061169c565b508151835114611984576040517f08c379a000000000000000000000000000000000000000000000000000000000815260040161197b90612ab8565b60405180910390fd5b60006119908285610866565b905080156119d3576040517f08c379a00000000000000000000000000000000000000000000000000000000081526004016119ca90612a98565b60405180910390fd5b60005b8451811015611c1d5760005b6007600085815260200190815260200160002060030160000180549050811015611b3d57858281518110611a1957611a18612f29565b5b6020026020010151600760008681526020019081526020016000206003016000018281548110611a4c57611a4b612f29565b5b90600052602060002001541415611a98576040517f08c379a0000000000000000000000000000000000000000000000000000000008152600401611a8f90612b58565b60405180910390fd5b8360076000888581518110611ab057611aaf612f29565b5b602002602001015181526020019081526020016000206003016000018281548110611ade57611add612f29565b5b90600052602060002001541415611b2a576040517f08c379a0000000000000000000000000000000000000000000000000000000008152600401611b2190612ad8565b60405180910390fd5b8080611b3590612e82565b9150506119e2565b5060096000815480929190611b5190612e82565b919050555060076000848152602001908152602001600020600301600001858281518110611b8257611b81612f29565b5b6020026020010151908060018154018082558091505060019003906000526020600020016000909190919091505560076000848152602001908152602001600020600301600101848281518110611bdc57611bdb612f29565b5b602002602001015190806001815401808255809150506001900390600052602060002001600090919091909150558080611c1590612e82565b9150506119d6565b50505b505050565b606060076000838152602001908152602001600020600301600101805480602002602001604051908101604052809291908181526020018280548015611c8a57602002820191906000526020600020905b815481526020019060010190808311611c76575b50505050509050919050565b600560009054906101000a900473ffffffffffffffffffffffffffffffffffffffff1673ffffffffffffffffffffffffffffffffffffffff163373ffffffffffffffffffffffffffffffffffffffff1614611d26576040517f08c379a0000000000000000000000000000000000000000000000000000000008152600401611d1d90612bf8565b60405180910390fd5b6000821415611d6a576040517f08c379a0000000000000000000000000000000000000000000000000000000008152600401611d6190612a78565b60405180910390fd5b600115156006600084815260200190815260200160002060009054906101000a900460ff16151514611dd1576040517f08c379a0000000000000000000000000000000000000000000000000000000008152600401611dc890612a58565b60405180910390fd5b600060076000848152602001908152602001600020600101541415611e2b576040517f08c379a0000000000000000000000000000000000000000000000000000000008152600401611e2290612b78565b60405180910390fd5b806007600084815260200190815260200160002060020160006101000a81548160ff021916908315150217905515611e6257611e91565b806007600084815260200190815260200160002060020160006101000a81548160ff0219169083151502179055505b5050565b600560009054906101000a900473ffffffffffffffffffffffffffffffffffffffff1673ffffffffffffffffffffffffffffffffffffffff163373ffffffffffffffffffffffffffffffffffffffff1614611f25576040517f08c379a0000000000000000000000000000000000000000000000000000000008152600401611f1c90612bf8565b60405180910390fd5b6001600660006001815260200190815260200160002060006101000a81548160ff0219169083151502179055506001600660006002815260200190815260200160002060006101000a81548160ff0219169083151502179055506001600660006003815260200190815260200160002060006101000a81548160ff021916908315150217905550565b60005b60046000838152602001908152602001600020600001805490508110156120215760046000838152602001908152602001600020600001805480611ff857611ff7612efa565b5b60019003818190600052602060002001600090559055808061201990612e82565b915050611fb1565b5050565b60606007600083815260200190815260200160002060030160000180548060200260200160405190810160405280929190818152602001828054801561208a57602002820191906000526020600020905b815481526020019060010190808311612076575b50505050509050919050565b6000600954905090565b8280548282559060005260206000209081019282156120dc579160200282015b828111156120db5782518255916020019190600101906120c0565b5b5090506120e9919061212b565b5090565b604051806040016040528060608152602001606081525090565b60405180614000016040528061020090602082028036833780820191505090505090565b5b8082111561214457600081600090555060010161212c565b5090565b600061215b61215684612d06565b612ce1565b9050808285602086028201111561217557612174612f96565b5b60005b858110156121a5578161218b88826123aa565b845260208401935060208301925050600181019050612178565b5050509392505050565b60006121c26121bd84612d2c565b612ce1565b905080838252602082019050828560208602820111156121e5576121e4612f96565b5b60005b8581101561221557816121fb88826123aa565b8452602084019350602083019250506001810190506121e8565b5050509392505050565b600082601f83011261223457612233612f87565b5b610200612242848285612148565b91505092915050565b600082601f8301126122605761225f612f87565b5b81356122708482602086016121af565b91505092915050565b60008135905061228881613434565b92915050565b6000604082840312156122a4576122a3612f8c565b5b6122ae6040612ce1565b9050600082013567ffffffffffffffff8111156122ce576122cd612f91565b5b6122da8482850161224b565b600083015250602082013567ffffffffffffffff8111156122fe576122fd612f91565b5b61230a8482850161224b565b60208301525092915050565b60006080828403121561232c5761232b612f8c565b5b6123366080612ce1565b90506000612346848285016123aa565b600083015250602061235a848285016123aa565b602083015250604061236e84828501612279565b604083015250606082013567ffffffffffffffff81111561239257612391612f91565b5b61239e8482850161228e565b60608301525092915050565b6000813590506123b98161344b565b92915050565b6000806000606084860312156123d8576123d7612fa0565b5b600084013567ffffffffffffffff8111156123f6576123f5612f9b565b5b6124028682870161224b565b935050602084013567ffffffffffffffff81111561242357612422612f9b565b5b61242f8682870161224b565b9250506040612440868287016123aa565b9150509250925092565b6000806000806080858703121561246457612463612fa0565b5b600085013567ffffffffffffffff81111561248257612481612f9b565b5b61248e8782880161224b565b945050602085013567ffffffffffffffff8111156124af576124ae612f9b565b5b6124bb8782880161224b565b93505060406124cc878288016123aa565b92505060606124dd878288016123aa565b91505092959194509250565b6000602082840312156124ff576124fe612fa0565b5b600082013567ffffffffffffffff81111561251d5761251c612f9b565b5b61252984828501612316565b91505092915050565b60006020828403121561254857612547612fa0565b5b6000612556848285016123aa565b91505092915050565b600080614020838503121561257757612576612fa0565b5b6000612585858286016123aa565b92505060206125968582860161221f565b9150509250929050565b600080604083850312156125b7576125b6612fa0565b5b60006125c5858286016123aa565b925050602083013567ffffffffffffffff8111156125e6576125e5612f9b565b5b6125f28582860161224b565b9150509250929050565b6000806040838503121561261357612612612fa0565b5b6000612621858286016123aa565b925050602061263285828601612279565b9150509250929050565b6000806040838503121561265357612652612fa0565b5b6000612661858286016123aa565b9250506020612672858286016123aa565b9150509250929050565b600061268883836129e2565b60208301905092915050565b61269d81612e09565b82525050565b60006126ae82612d68565b6126b88185612d80565b93506126c383612d58565b8060005b838110156126f45781516126db888261267c565b97506126e683612d73565b9250506001810190506126c7565b5085935050505092915050565b600061270c82612d68565b6127168185612d91565b935061272183612d58565b8060005b83811015612752578151612739888261267c565b975061274483612d73565b925050600181019050612725565b5085935050505092915050565b61276881612e1b565b82525050565b600061277b602c83612da2565b915061278682612fb6565b604082019050919050565b600061279e601b83612da2565b91506127a982613005565b602082019050919050565b60006127c1602c83612da2565b91506127cc8261302e565b604082019050919050565b60006127e4603783612da2565b91506127ef8261307d565b604082019050919050565b6000612807602483612da2565b9150612812826130cc565b604082019050919050565b600061282a603a83612da2565b91506128358261311b565b604082019050919050565b600061284d603383612da2565b91506128588261316a565b604082019050919050565b6000612870603483612da2565b915061287b826131b9565b604082019050919050565b6000612893603c83612da2565b915061289e82613208565b604082019050919050565b60006128b6601f83612da2565b91506128c182613257565b602082019050919050565b60006128d9602d83612da2565b91506128e482613280565b604082019050919050565b60006128fc602b83612da2565b9150612907826132cf565b604082019050919050565b600061291f602483612da2565b915061292a8261331e565b604082019050919050565b6000612942601383612da2565b915061294d8261336d565b602082019050919050565b6000612965602183612da2565b915061297082613396565b604082019050919050565b6000612988602f83612da2565b9150612993826133e5565b604082019050919050565b600060408301600083015184820360008601526129bb82826126a3565b915050602083015184820360208601526129d582826126a3565b9150508091505092915050565b6129eb81612e47565b82525050565b6129fa81612e47565b82525050565b6000602082019050612a156000830184612694565b92915050565b60006020820190508181036000830152612a358184612701565b905092915050565b6000602082019050612a52600083018461275f565b92915050565b60006020820190508181036000830152612a718161276e565b9050919050565b60006020820190508181036000830152612a9181612791565b9050919050565b60006020820190508181036000830152612ab1816127b4565b9050919050565b60006020820190508181036000830152612ad1816127d7565b9050919050565b60006020820190508181036000830152612af1816127fa565b9050919050565b60006020820190508181036000830152612b118161281d565b9050919050565b60006020820190508181036000830152612b3181612840565b9050919050565b60006020820190508181036000830152612b5181612863565b9050919050565b60006020820190508181036000830152612b7181612886565b9050919050565b60006020820190508181036000830152612b91816128a9565b9050919050565b60006020820190508181036000830152612bb1816128cc565b9050919050565b60006020820190508181036000830152612bd1816128ef565b9050919050565b60006020820190508181036000830152612bf181612912565b9050919050565b60006020820190508181036000830152612c1181612935565b9050919050565b60006020820190508181036000830152612c3181612958565b9050919050565b60006020820190508181036000830152612c518161297b565b9050919050565b60006020820190508181036000830152612c72818461299e565b905092915050565b6000602082019050612c8f60008301846129f1565b92915050565b6000608082019050612caa60008301876129f1565b612cb760208301866129f1565b612cc4604083018561275f565b8181036060830152612cd6818461299e565b905095945050505050565b6000612ceb612cfc565b9050612cf78282612e51565b919050565b6000604051905090565b600067ffffffffffffffff821115612d2157612d20612f58565b5b602082029050919050565b600067ffffffffffffffff821115612d4757612d46612f58565b5b602082029050602081019050919050565b6000819050602082019050919050565b600081519050919050565b6000602082019050919050565b600082825260208201905092915050565b600082825260208201905092915050565b600082825260208201905092915050565b6000612dbe82612e47565b9150612dc983612e47565b9250827fffffffffffffffffffffffffffffffffffffffffffffffffffffffffffffffff03821115612dfe57612dfd612ecb565b5b828201905092915050565b6000612e1482612e27565b9050919050565b60008115159050919050565b600073ffffffffffffffffffffffffffffffffffffffff82169050919050565b6000819050919050565b612e5a82612fa5565b810181811067ffffffffffffffff82111715612e7957612e78612f58565b5b80604052505050565b6000612e8d82612e47565b91507fffffffffffffffffffffffffffffffffffffffffffffffffffffffffffffffff821415612ec057612ebf612ecb565b5b600182019050919050565b7f4e487b7100000000000000000000000000000000000000000000000000000000600052601160045260246000fd5b7f4e487b7100000000000000000000000000000000000000000000000000000000600052603160045260246000fd5b7f4e487b7100000000000000000000000000000000000000000000000000000000600052603260045260246000fd5b7f4e487b7100000000000000000000000000000000000000000000000000000000600052604160045260246000fd5b600080fd5b600080fd5b600080fd5b600080fd5b600080fd5b600080fd5b6000601f19601f8301169050919050565b7f54686520746f6b656e206973206e6f742061207265676973746572656420455260008201527f43203131353520746f6b656e0000000000000000000000000000000000000000602082015250565b7f54686520746f6b656e2049442063616e6e6f74206265207a65726f0000000000600082015250565b7f546f6b656e49442063616e6e6f74206265206120737562736574206f6620706160008201527f72656e74546f6b656e4944730000000000000000000000000000000000000000602082015250565b7f546865206c656e677468206f6620706172656e742049647320616e642077656960008201527f676874732073686f756c64206265207468652073616d65000000000000000000602082015250565b7f4572726f723a20616e206772617068206c6f6f702077696c6c2062652063726560008201527f6174656400000000000000000000000000000000000000000000000000000000602082015250565b7f4120706172656e7420494420697320626c61636b6c697374656420736f20746860008201527f69732070726f636573732063616e6e6f7420636f6e74696e7565000000000000602082015250565b7f412076616c756520796f752061726520696e70757474696e6720696e6469636160008201527f746573206120627265616b206f66207365742e00000000000000000000000000602082015250565b7f4120706172656e7420696420646f6573206e6f7420636f6f7265736f6e64207460008201527f6f2074686520636f727265637420776569676874000000000000000000000000602082015250565b7f4572726f723a204564676520636f6e6e656374696f6e20796f7520617265207460008201527f7279696e6720746f2061646420616c6c72656164792065786973747300000000602082015250565b7f494420686173206e6f74206265656e20616464656420746f2067726170682e00600082015250565b7f4120706172656e7420746f6b656e20494420686173206e6f74206265656e206160008201527f6464656420746f20677261706800000000000000000000000000000000000000602082015250565b7f706172656e7420746f6b656e20494420686173206e6f74206265656e2061646460008201527f656420746f206772617068000000000000000000000000000000000000000000602082015250565b7f49442068617320616c6c7265616479206265656e20616464656420746f20677260008201527f6170682e00000000000000000000000000000000000000000000000000000000602082015250565b7f55736572206d7573742062652061646d696e2e00000000000000000000000000600082015250565b7f54686520746f6b656e204944206f66206120706172656e74206973207a65726f60008201527f2e00000000000000000000000000000000000000000000000000000000000000602082015250565b7f4120706172656e7420746f6b656e206973206e6f74206120726567697374656460008201527f20455243203131353520746f6b656e0000000000000000000000000000000000602082015250565b61343d81612e1b565b811461344857600080fd5b50565b61345481612e47565b811461345f57600080fd5b5056fea264697066735822122083b4ff60f79c55561d5b3def524569108c41691247a9a2f74ba6567ba0d6f7be64736f6c63430008060033",
          "opcodes": "PUSH1 0x80 PUSH1 0x40 MSTORE PUSH1 0x1 DUP1 SSTORE PUSH1 0x0 PUSH1 0x2 SSTORE PUSH1 0x1 PUSH1 0x3 PUSH1 0x0 PUSH2 0x100 EXP DUP2 SLOAD DUP2 PUSH1 0xFF MUL NOT AND SWAP1 DUP4 ISZERO ISZERO MUL OR SWAP1 SSTORE POP PUSH1 0x0 PUSH1 0x8 SSTORE PUSH1 0x0 PUSH1 0x9 SSTORE CALLVALUE DUP1 ISZERO PUSH2 0x3E JUMPI PUSH1 0x0 DUP1 REVERT JUMPDEST POP CALLER PUSH1 0x5 PUSH1 0x0 PUSH2 0x100 EXP DUP2 SLOAD DUP2 PUSH20 0xFFFFFFFFFFFFFFFFFFFFFFFFFFFFFFFFFFFFFFFF MUL NOT AND SWAP1 DUP4 PUSH20 0xFFFFFFFFFFFFFFFFFFFFFFFFFFFFFFFFFFFFFFFF AND MUL OR SWAP1 SSTORE POP PUSH2 0x3498 DUP1 PUSH2 0x8F PUSH1 0x0 CODECOPY PUSH1 0x0 RETURN INVALID PUSH1 0x80 PUSH1 0x40 MSTORE CALLVALUE DUP1 ISZERO PUSH2 0x10 JUMPI PUSH1 0x0 DUP1 REVERT JUMPDEST POP PUSH1 0x4 CALLDATASIZE LT PUSH2 0x1A8 JUMPI PUSH1 0x0 CALLDATALOAD PUSH1 0xE0 SHR DUP1 PUSH4 0x957908D1 GT PUSH2 0xF9 JUMPI DUP1 PUSH4 0xBEAE4942 GT PUSH2 0x97 JUMPI DUP1 PUSH4 0xD7753A65 GT PUSH2 0x71 JUMPI DUP1 PUSH4 0xD7753A65 EQ PUSH2 0x506 JUMPI DUP1 PUSH4 0xD8BE1FD4 EQ PUSH2 0x510 JUMPI DUP1 PUSH4 0xE8CA8C3E EQ PUSH2 0x52C JUMPI DUP1 PUSH4 0xEE8A9FD6 EQ PUSH2 0x55C JUMPI PUSH2 0x1A8 JUMP JUMPDEST DUP1 PUSH4 0xBEAE4942 EQ PUSH2 0x49E JUMPI DUP1 PUSH4 0xC9557449 EQ PUSH2 0x4BA JUMPI DUP1 PUSH4 0xCE8B4AFD EQ PUSH2 0x4EA JUMPI PUSH2 0x1A8 JUMP JUMPDEST DUP1 PUSH4 0xA6C7C955 GT PUSH2 0xD3 JUMPI DUP1 PUSH4 0xA6C7C955 EQ PUSH2 0x418 JUMPI DUP1 PUSH4 0xA9138861 EQ PUSH2 0x448 JUMPI DUP1 PUSH4 0xACA382A0 EQ PUSH2 0x466 JUMPI DUP1 PUSH4 0xB0F555AE EQ PUSH2 0x482 JUMPI PUSH2 0x1A8 JUMP JUMPDEST DUP1 PUSH4 0x957908D1 EQ PUSH2 0x3AC JUMPI DUP1 PUSH4 0x981AD468 EQ PUSH2 0x3CA JUMPI DUP1 PUSH4 0x9F181B5E EQ PUSH2 0x3FA JUMPI PUSH2 0x1A8 JUMP JUMPDEST DUP1 PUSH4 0x5EE3C588 GT PUSH2 0x166 JUMPI DUP1 PUSH4 0x771602F7 GT PUSH2 0x140 JUMPI DUP1 PUSH4 0x771602F7 EQ PUSH2 0x311 JUMPI DUP1 PUSH4 0x866FE41A EQ PUSH2 0x32D JUMPI DUP1 PUSH4 0x89E0496F EQ PUSH2 0x349 JUMPI DUP1 PUSH4 0x94B90830 EQ PUSH2 0x37C JUMPI PUSH2 0x1A8 JUMP JUMPDEST DUP1 PUSH4 0x5EE3C588 EQ PUSH2 0x2A5 JUMPI DUP1 PUSH4 0x6CF61127 EQ PUSH2 0x2C3 JUMPI DUP1 PUSH4 0x6E9960C3 EQ PUSH2 0x2F3 JUMPI PUSH2 0x1A8 JUMP JUMPDEST DUP1 PUSH3 0x923F9E EQ PUSH2 0x1AD JUMPI DUP1 PUSH4 0x76FCC1F EQ PUSH2 0x1DD JUMPI DUP1 PUSH4 0xB8E12FC EQ PUSH2 0x1F9 JUMPI DUP1 PUSH4 0x16B407A8 EQ PUSH2 0x229 JUMPI DUP1 PUSH4 0x18182EAA EQ PUSH2 0x259 JUMPI DUP1 PUSH4 0x1FFC735D EQ PUSH2 0x289 JUMPI JUMPDEST PUSH1 0x0 DUP1 REVERT JUMPDEST PUSH2 0x1C7 PUSH1 0x4 DUP1 CALLDATASIZE SUB DUP2 ADD SWAP1 PUSH2 0x1C2 SWAP2 SWAP1 PUSH2 0x2532 JUMP JUMPDEST PUSH2 0x57A JUMP JUMPDEST PUSH1 0x40 MLOAD PUSH2 0x1D4 SWAP2 SWAP1 PUSH2 0x2A3D JUMP JUMPDEST PUSH1 0x40 MLOAD DUP1 SWAP2 SUB SWAP1 RETURN JUMPDEST PUSH2 0x1F7 PUSH1 0x4 DUP1 CALLDATASIZE SUB DUP2 ADD SWAP1 PUSH2 0x1F2 SWAP2 SWAP1 PUSH2 0x263C JUMP JUMPDEST PUSH2 0x5A3 JUMP JUMPDEST STOP JUMPDEST PUSH2 0x213 PUSH1 0x4 DUP1 CALLDATASIZE SUB DUP2 ADD SWAP1 PUSH2 0x20E SWAP2 SWAP1 PUSH2 0x2532 JUMP JUMPDEST PUSH2 0x758 JUMP JUMPDEST PUSH1 0x40 MLOAD PUSH2 0x220 SWAP2 SWAP1 PUSH2 0x2C7A JUMP JUMPDEST PUSH1 0x40 MLOAD DUP1 SWAP2 SUB SWAP1 RETURN JUMPDEST PUSH2 0x243 PUSH1 0x4 DUP1 CALLDATASIZE SUB DUP2 ADD SWAP1 PUSH2 0x23E SWAP2 SWAP1 PUSH2 0x2532 JUMP JUMPDEST PUSH2 0x778 JUMP JUMPDEST PUSH1 0x40 MLOAD PUSH2 0x250 SWAP2 SWAP1 PUSH2 0x2C7A JUMP JUMPDEST PUSH1 0x40 MLOAD DUP1 SWAP2 SUB SWAP1 RETURN JUMPDEST PUSH2 0x273 PUSH1 0x4 DUP1 CALLDATASIZE SUB DUP2 ADD SWAP1 PUSH2 0x26E SWAP2 SWAP1 PUSH2 0x255F JUMP JUMPDEST PUSH2 0x798 JUMP JUMPDEST PUSH1 0x40 MLOAD PUSH2 0x280 SWAP2 SWAP1 PUSH2 0x2A3D JUMP JUMPDEST PUSH1 0x40 MLOAD DUP1 SWAP2 SUB SWAP1 RETURN JUMPDEST PUSH2 0x2A3 PUSH1 0x4 DUP1 CALLDATASIZE SUB DUP2 ADD SWAP1 PUSH2 0x29E SWAP2 SWAP1 PUSH2 0x2532 JUMP JUMPDEST PUSH2 0x80B JUMP JUMPDEST STOP JUMPDEST PUSH2 0x2AD PUSH2 0x85C JUMP JUMPDEST PUSH1 0x40 MLOAD PUSH2 0x2BA SWAP2 SWAP1 PUSH2 0x2C7A JUMP JUMPDEST PUSH1 0x40 MLOAD DUP1 SWAP2 SUB SWAP1 RETURN JUMPDEST PUSH2 0x2DD PUSH1 0x4 DUP1 CALLDATASIZE SUB DUP2 ADD SWAP1 PUSH2 0x2D8 SWAP2 SWAP1 PUSH2 0x25A0 JUMP JUMPDEST PUSH2 0x866 JUMP JUMPDEST PUSH1 0x40 MLOAD PUSH2 0x2EA SWAP2 SWAP1 PUSH2 0x2A3D JUMP JUMPDEST PUSH1 0x40 MLOAD DUP1 SWAP2 SUB SWAP1 RETURN JUMPDEST PUSH2 0x2FB PUSH2 0x8D8 JUMP JUMPDEST PUSH1 0x40 MLOAD PUSH2 0x308 SWAP2 SWAP1 PUSH2 0x2A00 JUMP JUMPDEST PUSH1 0x40 MLOAD DUP1 SWAP2 SUB SWAP1 RETURN JUMPDEST PUSH2 0x32B PUSH1 0x4 DUP1 CALLDATASIZE SUB DUP2 ADD SWAP1 PUSH2 0x326 SWAP2 SWAP1 PUSH2 0x263C JUMP JUMPDEST PUSH2 0x902 JUMP JUMPDEST STOP JUMPDEST PUSH2 0x347 PUSH1 0x4 DUP1 CALLDATASIZE SUB DUP2 ADD SWAP1 PUSH2 0x342 SWAP2 SWAP1 PUSH2 0x244A JUMP JUMPDEST PUSH2 0x9FC JUMP JUMPDEST STOP JUMPDEST PUSH2 0x363 PUSH1 0x4 DUP1 CALLDATASIZE SUB DUP2 ADD SWAP1 PUSH2 0x35E SWAP2 SWAP1 PUSH2 0x2532 JUMP JUMPDEST PUSH2 0xF57 JUMP JUMPDEST PUSH1 0x40 MLOAD PUSH2 0x373 SWAP5 SWAP4 SWAP3 SWAP2 SWAP1 PUSH2 0x2C95 JUMP JUMPDEST PUSH1 0x40 MLOAD DUP1 SWAP2 SUB SWAP1 RETURN JUMPDEST PUSH2 0x396 PUSH1 0x4 DUP1 CALLDATASIZE SUB DUP2 ADD SWAP1 PUSH2 0x391 SWAP2 SWAP1 PUSH2 0x2532 JUMP JUMPDEST PUSH2 0x104E JUMP JUMPDEST PUSH1 0x40 MLOAD PUSH2 0x3A3 SWAP2 SWAP1 PUSH2 0x2C58 JUMP JUMPDEST PUSH1 0x40 MLOAD DUP1 SWAP2 SUB SWAP1 RETURN JUMPDEST PUSH2 0x3B4 PUSH2 0x112E JUMP JUMPDEST PUSH1 0x40 MLOAD PUSH2 0x3C1 SWAP2 SWAP1 PUSH2 0x2C7A JUMP JUMPDEST PUSH1 0x40 MLOAD DUP1 SWAP2 SUB SWAP1 RETURN JUMPDEST PUSH2 0x3E4 PUSH1 0x4 DUP1 CALLDATASIZE SUB DUP2 ADD SWAP1 PUSH2 0x3DF SWAP2 SWAP1 PUSH2 0x2532 JUMP JUMPDEST PUSH2 0x11B4 JUMP JUMPDEST PUSH1 0x40 MLOAD PUSH2 0x3F1 SWAP2 SWAP1 PUSH2 0x2A3D JUMP JUMPDEST PUSH1 0x40 MLOAD DUP1 SWAP2 SUB SWAP1 RETURN JUMPDEST PUSH2 0x402 PUSH2 0x11E1 JUMP JUMPDEST PUSH1 0x40 MLOAD PUSH2 0x40F SWAP2 SWAP1 PUSH2 0x2C7A JUMP JUMPDEST PUSH1 0x40 MLOAD DUP1 SWAP2 SUB SWAP1 RETURN JUMPDEST PUSH2 0x432 PUSH1 0x4 DUP1 CALLDATASIZE SUB DUP2 ADD SWAP1 PUSH2 0x42D SWAP2 SWAP1 PUSH2 0x24E9 JUMP JUMPDEST PUSH2 0x11EB JUMP JUMPDEST PUSH1 0x40 MLOAD PUSH2 0x43F SWAP2 SWAP1 PUSH2 0x2C7A JUMP JUMPDEST PUSH1 0x40 MLOAD DUP1 SWAP2 SUB SWAP1 RETURN JUMPDEST PUSH2 0x450 PUSH2 0x11F2 JUMP JUMPDEST PUSH1 0x40 MLOAD PUSH2 0x45D SWAP2 SWAP1 PUSH2 0x2C7A JUMP JUMPDEST PUSH1 0x40 MLOAD DUP1 SWAP2 SUB SWAP1 RETURN JUMPDEST PUSH2 0x480 PUSH1 0x4 DUP1 CALLDATASIZE SUB DUP2 ADD SWAP1 PUSH2 0x47B SWAP2 SWAP1 PUSH2 0x2532 JUMP JUMPDEST PUSH2 0x11FC JUMP JUMPDEST STOP JUMPDEST PUSH2 0x49C PUSH1 0x4 DUP1 CALLDATASIZE SUB DUP2 ADD SWAP1 PUSH2 0x497 SWAP2 SWAP1 PUSH2 0x2532 JUMP JUMPDEST PUSH2 0x135C JUMP JUMPDEST STOP JUMPDEST PUSH2 0x4B8 PUSH1 0x4 DUP1 CALLDATASIZE SUB DUP2 ADD SWAP1 PUSH2 0x4B3 SWAP2 SWAP1 PUSH2 0x23BF JUMP JUMPDEST PUSH2 0x14F5 JUMP JUMPDEST STOP JUMPDEST PUSH2 0x4D4 PUSH1 0x4 DUP1 CALLDATASIZE SUB DUP2 ADD SWAP1 PUSH2 0x4CF SWAP2 SWAP1 PUSH2 0x2532 JUMP JUMPDEST PUSH2 0x1C25 JUMP JUMPDEST PUSH1 0x40 MLOAD PUSH2 0x4E1 SWAP2 SWAP1 PUSH2 0x2A1B JUMP JUMPDEST PUSH1 0x40 MLOAD DUP1 SWAP2 SUB SWAP1 RETURN JUMPDEST PUSH2 0x504 PUSH1 0x4 DUP1 CALLDATASIZE SUB DUP2 ADD SWAP1 PUSH2 0x4FF SWAP2 SWAP1 PUSH2 0x25FC JUMP JUMPDEST PUSH2 0x1C96 JUMP JUMPDEST STOP JUMPDEST PUSH2 0x50E PUSH2 0x1E95 JUMP JUMPDEST STOP JUMPDEST PUSH2 0x52A PUSH1 0x4 DUP1 CALLDATASIZE SUB DUP2 ADD SWAP1 PUSH2 0x525 SWAP2 SWAP1 PUSH2 0x2532 JUMP JUMPDEST PUSH2 0x1FAE JUMP JUMPDEST STOP JUMPDEST PUSH2 0x546 PUSH1 0x4 DUP1 CALLDATASIZE SUB DUP2 ADD SWAP1 PUSH2 0x541 SWAP2 SWAP1 PUSH2 0x2532 JUMP JUMPDEST PUSH2 0x2025 JUMP JUMPDEST PUSH1 0x40 MLOAD PUSH2 0x553 SWAP2 SWAP1 PUSH2 0x2A1B JUMP JUMPDEST PUSH1 0x40 MLOAD DUP1 SWAP2 SUB SWAP1 RETURN JUMPDEST PUSH2 0x564 PUSH2 0x2096 JUMP JUMPDEST PUSH1 0x40 MLOAD PUSH2 0x571 SWAP2 SWAP1 PUSH2 0x2C7A JUMP JUMPDEST PUSH1 0x40 MLOAD DUP1 SWAP2 SUB SWAP1 RETURN JUMPDEST PUSH1 0x0 DUP1 PUSH1 0x7 PUSH1 0x0 DUP5 DUP2 MSTORE PUSH1 0x20 ADD SWAP1 DUP2 MSTORE PUSH1 0x20 ADD PUSH1 0x0 KECCAK256 PUSH1 0x1 ADD SLOAD EQ PUSH2 0x59E JUMPI PUSH1 0x1 SWAP1 POP JUMPDEST SWAP2 SWAP1 POP JUMP JUMPDEST PUSH1 0x5 PUSH1 0x0 SWAP1 SLOAD SWAP1 PUSH2 0x100 EXP SWAP1 DIV PUSH20 0xFFFFFFFFFFFFFFFFFFFFFFFFFFFFFFFFFFFFFFFF AND PUSH20 0xFFFFFFFFFFFFFFFFFFFFFFFFFFFFFFFFFFFFFFFF AND CALLER PUSH20 0xFFFFFFFFFFFFFFFFFFFFFFFFFFFFFFFFFFFFFFFF AND EQ PUSH2 0x633 JUMPI PUSH1 0x40 MLOAD PUSH32 0x8C379A000000000000000000000000000000000000000000000000000000000 DUP2 MSTORE PUSH1 0x4 ADD PUSH2 0x62A SWAP1 PUSH2 0x2BF8 JUMP JUMPDEST PUSH1 0x40 MLOAD DUP1 SWAP2 SUB SWAP1 REVERT JUMPDEST DUP2 PUSH1 0x0 DUP2 EQ ISZERO PUSH2 0x678 JUMPI PUSH1 0x40 MLOAD PUSH32 0x8C379A000000000000000000000000000000000000000000000000000000000 DUP2 MSTORE PUSH1 0x4 ADD PUSH2 0x66F SWAP1 PUSH2 0x2A78 JUMP JUMPDEST PUSH1 0x40 MLOAD DUP1 SWAP2 SUB SWAP1 REVERT JUMPDEST PUSH1 0x1 ISZERO ISZERO PUSH1 0x6 PUSH1 0x0 DUP4 DUP2 MSTORE PUSH1 0x20 ADD SWAP1 DUP2 MSTORE PUSH1 0x20 ADD PUSH1 0x0 KECCAK256 PUSH1 0x0 SWAP1 SLOAD SWAP1 PUSH2 0x100 EXP SWAP1 DIV PUSH1 0xFF AND ISZERO ISZERO EQ PUSH2 0x6DF JUMPI PUSH1 0x40 MLOAD PUSH32 0x8C379A000000000000000000000000000000000000000000000000000000000 DUP2 MSTORE PUSH1 0x4 ADD PUSH2 0x6D6 SWAP1 PUSH2 0x2A58 JUMP JUMPDEST PUSH1 0x40 MLOAD DUP1 SWAP2 SUB SWAP1 REVERT JUMPDEST PUSH1 0x0 PUSH1 0x7 PUSH1 0x0 DUP4 DUP2 MSTORE PUSH1 0x20 ADD SWAP1 DUP2 MSTORE PUSH1 0x20 ADD PUSH1 0x0 KECCAK256 PUSH1 0x1 ADD SLOAD EQ PUSH2 0x738 JUMPI PUSH1 0x40 MLOAD PUSH32 0x8C379A000000000000000000000000000000000000000000000000000000000 DUP2 MSTORE PUSH1 0x4 ADD PUSH2 0x72F SWAP1 PUSH2 0x2BD8 JUMP JUMPDEST PUSH1 0x40 MLOAD DUP1 SWAP2 SUB SWAP1 REVERT JUMPDEST DUP2 PUSH1 0x7 PUSH1 0x0 DUP6 DUP2 MSTORE PUSH1 0x20 ADD SWAP1 DUP2 MSTORE PUSH1 0x20 ADD PUSH1 0x0 KECCAK256 PUSH1 0x0 ADD DUP2 SWAP1 SSTORE POP POP POP POP JUMP JUMPDEST PUSH1 0x0 PUSH1 0x7 PUSH1 0x0 DUP4 DUP2 MSTORE PUSH1 0x20 ADD SWAP1 DUP2 MSTORE PUSH1 0x20 ADD PUSH1 0x0 KECCAK256 PUSH1 0x1 ADD SLOAD SWAP1 POP SWAP2 SWAP1 POP JUMP JUMPDEST PUSH1 0x0 PUSH1 0x7 PUSH1 0x0 DUP4 DUP2 MSTORE PUSH1 0x20 ADD SWAP1 DUP2 MSTORE PUSH1 0x20 ADD PUSH1 0x0 KECCAK256 PUSH1 0x0 ADD SLOAD SWAP1 POP SWAP2 SWAP1 POP JUMP JUMPDEST PUSH1 0x0 DUP1 PUSH2 0x200 SWAP1 POP PUSH1 0x0 DUP2 EQ ISZERO PUSH2 0x7B3 JUMPI PUSH1 0x0 SWAP2 POP POP PUSH2 0x805 JUMP JUMPDEST PUSH1 0x0 JUMPDEST PUSH2 0x200 DUP2 LT ISZERO PUSH2 0x7FE JUMPI DUP5 DUP5 DUP3 PUSH2 0x200 DUP2 LT PUSH2 0x7D5 JUMPI PUSH2 0x7D4 PUSH2 0x2F29 JUMP JUMPDEST JUMPDEST PUSH1 0x20 MUL ADD MLOAD EQ ISZERO PUSH2 0x7EB JUMPI PUSH1 0x1 SWAP3 POP POP POP PUSH2 0x805 JUMP JUMPDEST DUP1 DUP1 PUSH2 0x7F6 SWAP1 PUSH2 0x2E82 JUMP JUMPDEST SWAP2 POP POP PUSH2 0x7B6 JUMP JUMPDEST POP PUSH1 0x0 SWAP2 POP POP JUMPDEST SWAP3 SWAP2 POP POP JUMP JUMPDEST PUSH1 0x1 PUSH1 0x2 PUSH1 0x0 DUP3 DUP3 SLOAD PUSH2 0x81E SWAP2 SWAP1 PUSH2 0x2DB3 JUMP JUMPDEST SWAP3 POP POP DUP2 SWAP1 SSTORE POP PUSH1 0x0 PUSH1 0x3 PUSH1 0x0 PUSH2 0x100 EXP DUP2 SLOAD DUP2 PUSH1 0xFF MUL NOT AND SWAP1 DUP4 ISZERO ISZERO MUL OR SWAP1 SSTORE POP DUP1 PUSH1 0x0 DUP1 PUSH1 0x2 SLOAD DUP2 MSTORE PUSH1 0x20 ADD SWAP1 DUP2 MSTORE PUSH1 0x20 ADD PUSH1 0x0 KECCAK256 DUP2 SWAP1 SSTORE POP POP JUMP JUMPDEST PUSH1 0x0 PUSH1 0x8 SLOAD SWAP1 POP SWAP1 JUMP JUMPDEST PUSH1 0x0 DUP1 DUP3 MLOAD SWAP1 POP PUSH1 0x0 DUP2 EQ ISZERO PUSH2 0x880 JUMPI PUSH1 0x0 SWAP2 POP POP PUSH2 0x8D2 JUMP JUMPDEST PUSH1 0x0 JUMPDEST DUP2 DUP2 LT ISZERO PUSH2 0x8CB JUMPI DUP5 DUP5 DUP3 DUP2 MLOAD DUP2 LT PUSH2 0x89F JUMPI PUSH2 0x89E PUSH2 0x2F29 JUMP JUMPDEST JUMPDEST PUSH1 0x20 MUL PUSH1 0x20 ADD ADD MLOAD EQ ISZERO PUSH2 0x8B8 JUMPI PUSH1 0x1 SWAP3 POP POP POP PUSH2 0x8D2 JUMP JUMPDEST DUP1 DUP1 PUSH2 0x8C3 SWAP1 PUSH2 0x2E82 JUMP JUMPDEST SWAP2 POP POP PUSH2 0x883 JUMP JUMPDEST POP PUSH1 0x0 SWAP2 POP POP JUMPDEST SWAP3 SWAP2 POP POP JUMP JUMPDEST PUSH1 0x0 PUSH1 0x5 PUSH1 0x0 SWAP1 SLOAD SWAP1 PUSH2 0x100 EXP SWAP1 DIV PUSH20 0xFFFFFFFFFFFFFFFFFFFFFFFFFFFFFFFFFFFFFFFF AND SWAP1 POP SWAP1 JUMP JUMPDEST PUSH1 0x4 PUSH1 0x0 DUP4 DUP2 MSTORE PUSH1 0x20 ADD SWAP1 DUP2 MSTORE PUSH1 0x20 ADD PUSH1 0x0 KECCAK256 PUSH1 0x1 ADD PUSH1 0x0 DUP3 DUP2 MSTORE PUSH1 0x20 ADD SWAP1 DUP2 MSTORE PUSH1 0x20 ADD PUSH1 0x0 KECCAK256 PUSH1 0x0 SWAP1 SLOAD SWAP1 PUSH2 0x100 EXP SWAP1 DIV PUSH1 0xFF AND PUSH2 0x9BD JUMPI PUSH1 0x1 PUSH1 0x4 PUSH1 0x0 DUP5 DUP2 MSTORE PUSH1 0x20 ADD SWAP1 DUP2 MSTORE PUSH1 0x20 ADD PUSH1 0x0 KECCAK256 PUSH1 0x1 ADD PUSH1 0x0 DUP4 DUP2 MSTORE PUSH1 0x20 ADD SWAP1 DUP2 MSTORE PUSH1 0x20 ADD PUSH1 0x0 KECCAK256 PUSH1 0x0 PUSH2 0x100 EXP DUP2 SLOAD DUP2 PUSH1 0xFF MUL NOT AND SWAP1 DUP4 ISZERO ISZERO MUL OR SWAP1 SSTORE POP PUSH1 0x4 PUSH1 0x0 DUP4 DUP2 MSTORE PUSH1 0x20 ADD SWAP1 DUP2 MSTORE PUSH1 0x20 ADD PUSH1 0x0 KECCAK256 PUSH1 0x0 ADD DUP2 SWAP1 DUP1 PUSH1 0x1 DUP2 SLOAD ADD DUP1 DUP3 SSTORE DUP1 SWAP2 POP POP PUSH1 0x1 SWAP1 SUB SWAP1 PUSH1 0x0 MSTORE PUSH1 0x20 PUSH1 0x0 KECCAK256 ADD PUSH1 0x0 SWAP1 SWAP2 SWAP1 SWAP2 SWAP1 SWAP2 POP SSTORE PUSH2 0x9F8 JUMP JUMPDEST PUSH1 0x40 MLOAD PUSH32 0x8C379A000000000000000000000000000000000000000000000000000000000 DUP2 MSTORE PUSH1 0x4 ADD PUSH2 0x9EF SWAP1 PUSH2 0x2B18 JUMP JUMPDEST PUSH1 0x40 MLOAD DUP1 SWAP2 SUB SWAP1 REVERT JUMPDEST POP POP JUMP JUMPDEST PUSH1 0x5 PUSH1 0x0 SWAP1 SLOAD SWAP1 PUSH2 0x100 EXP SWAP1 DIV PUSH20 0xFFFFFFFFFFFFFFFFFFFFFFFFFFFFFFFFFFFFFFFF AND PUSH20 0xFFFFFFFFFFFFFFFFFFFFFFFFFFFFFFFFFFFFFFFF AND CALLER PUSH20 0xFFFFFFFFFFFFFFFFFFFFFFFFFFFFFFFFFFFFFFFF AND EQ PUSH2 0xA8C JUMPI PUSH1 0x40 MLOAD PUSH32 0x8C379A000000000000000000000000000000000000000000000000000000000 DUP2 MSTORE PUSH1 0x4 ADD PUSH2 0xA83 SWAP1 PUSH2 0x2BF8 JUMP JUMPDEST PUSH1 0x40 MLOAD DUP1 SWAP2 SUB SWAP1 REVERT JUMPDEST DUP2 PUSH1 0x0 DUP2 EQ ISZERO PUSH2 0xAD1 JUMPI PUSH1 0x40 MLOAD PUSH32 0x8C379A000000000000000000000000000000000000000000000000000000000 DUP2 MSTORE PUSH1 0x4 ADD PUSH2 0xAC8 SWAP1 PUSH2 0x2A78 JUMP JUMPDEST PUSH1 0x40 MLOAD DUP1 SWAP2 SUB SWAP1 REVERT JUMPDEST PUSH1 0x1 ISZERO ISZERO PUSH1 0x6 PUSH1 0x0 DUP4 DUP2 MSTORE PUSH1 0x20 ADD SWAP1 DUP2 MSTORE PUSH1 0x20 ADD PUSH1 0x0 KECCAK256 PUSH1 0x0 SWAP1 SLOAD SWAP1 PUSH2 0x100 EXP SWAP1 DIV PUSH1 0xFF AND ISZERO ISZERO EQ PUSH2 0xB38 JUMPI PUSH1 0x40 MLOAD PUSH32 0x8C379A000000000000000000000000000000000000000000000000000000000 DUP2 MSTORE PUSH1 0x4 ADD PUSH2 0xB2F SWAP1 PUSH2 0x2A58 JUMP JUMPDEST PUSH1 0x40 MLOAD DUP1 SWAP2 SUB SWAP1 REVERT JUMPDEST PUSH1 0x0 PUSH1 0x7 PUSH1 0x0 DUP4 DUP2 MSTORE PUSH1 0x20 ADD SWAP1 DUP2 MSTORE PUSH1 0x20 ADD PUSH1 0x0 KECCAK256 PUSH1 0x1 ADD SLOAD EQ PUSH2 0xB91 JUMPI PUSH1 0x40 MLOAD PUSH32 0x8C379A000000000000000000000000000000000000000000000000000000000 DUP2 MSTORE PUSH1 0x4 ADD PUSH2 0xB88 SWAP1 PUSH2 0x2BD8 JUMP JUMPDEST PUSH1 0x40 MLOAD DUP1 SWAP2 SUB SWAP1 REVERT JUMPDEST DUP4 MLOAD DUP6 MLOAD EQ PUSH2 0xBD5 JUMPI PUSH1 0x40 MLOAD PUSH32 0x8C379A000000000000000000000000000000000000000000000000000000000 DUP2 MSTORE PUSH1 0x4 ADD PUSH2 0xBCC SWAP1 PUSH2 0x2AB8 JUMP JUMPDEST PUSH1 0x40 MLOAD DUP1 SWAP2 SUB SWAP1 REVERT JUMPDEST PUSH1 0x0 JUMPDEST DUP6 MLOAD DUP2 LT ISZERO PUSH2 0xE7B JUMPI PUSH2 0xC05 DUP5 DUP8 DUP4 DUP2 MLOAD DUP2 LT PUSH2 0xBF8 JUMPI PUSH2 0xBF7 PUSH2 0x2F29 JUMP JUMPDEST JUMPDEST PUSH1 0x20 MUL PUSH1 0x20 ADD ADD MLOAD PUSH2 0x902 JUMP JUMPDEST PUSH1 0x0 DUP7 DUP3 DUP2 MLOAD DUP2 LT PUSH2 0xC1A JUMPI PUSH2 0xC19 PUSH2 0x2F29 JUMP JUMPDEST JUMPDEST PUSH1 0x20 MUL PUSH1 0x20 ADD ADD MLOAD EQ ISZERO PUSH2 0xC63 JUMPI PUSH1 0x40 MLOAD PUSH32 0x8C379A000000000000000000000000000000000000000000000000000000000 DUP2 MSTORE PUSH1 0x4 ADD PUSH2 0xC5A SWAP1 PUSH2 0x2C18 JUMP JUMPDEST PUSH1 0x40 MLOAD DUP1 SWAP2 SUB SWAP1 REVERT JUMPDEST PUSH1 0x1 ISZERO ISZERO PUSH1 0x6 PUSH1 0x0 DUP9 DUP5 DUP2 MLOAD DUP2 LT PUSH2 0xC7E JUMPI PUSH2 0xC7D PUSH2 0x2F29 JUMP JUMPDEST JUMPDEST PUSH1 0x20 MUL PUSH1 0x20 ADD ADD MLOAD DUP2 MSTORE PUSH1 0x20 ADD SWAP1 DUP2 MSTORE PUSH1 0x20 ADD PUSH1 0x0 KECCAK256 PUSH1 0x0 SWAP1 SLOAD SWAP1 PUSH2 0x100 EXP SWAP1 DIV PUSH1 0xFF AND ISZERO ISZERO EQ PUSH2 0xCE4 JUMPI PUSH1 0x40 MLOAD PUSH32 0x8C379A000000000000000000000000000000000000000000000000000000000 DUP2 MSTORE PUSH1 0x4 ADD PUSH2 0xCDB SWAP1 PUSH2 0x2C38 JUMP JUMPDEST PUSH1 0x40 MLOAD DUP1 SWAP2 SUB SWAP1 REVERT JUMPDEST PUSH1 0x0 PUSH1 0x7 PUSH1 0x0 DUP9 DUP5 DUP2 MLOAD DUP2 LT PUSH2 0xCFD JUMPI PUSH2 0xCFC PUSH2 0x2F29 JUMP JUMPDEST JUMPDEST PUSH1 0x20 MUL PUSH1 0x20 ADD ADD MLOAD DUP2 MSTORE PUSH1 0x20 ADD SWAP1 DUP2 MSTORE PUSH1 0x20 ADD PUSH1 0x0 KECCAK256 PUSH1 0x1 ADD SLOAD EQ ISZERO PUSH2 0xD58 JUMPI PUSH1 0x40 MLOAD PUSH32 0x8C379A000000000000000000000000000000000000000000000000000000000 DUP2 MSTORE PUSH1 0x4 ADD PUSH2 0xD4F SWAP1 PUSH2 0x2B98 JUMP JUMPDEST PUSH1 0x40 MLOAD DUP1 SWAP2 SUB SWAP1 REVERT JUMPDEST DUP5 DUP2 DUP2 MLOAD DUP2 LT PUSH2 0xD6B JUMPI PUSH2 0xD6A PUSH2 0x2F29 JUMP JUMPDEST JUMPDEST PUSH1 0x20 MUL PUSH1 0x20 ADD ADD MLOAD PUSH1 0x7 PUSH1 0x0 DUP9 DUP5 DUP2 MLOAD DUP2 LT PUSH2 0xD8A JUMPI PUSH2 0xD89 PUSH2 0x2F29 JUMP JUMPDEST JUMPDEST PUSH1 0x20 MUL PUSH1 0x20 ADD ADD MLOAD DUP2 MSTORE PUSH1 0x20 ADD SWAP1 DUP2 MSTORE PUSH1 0x20 ADD PUSH1 0x0 KECCAK256 PUSH1 0x0 ADD SLOAD EQ PUSH2 0xDE4 JUMPI PUSH1 0x40 MLOAD PUSH32 0x8C379A000000000000000000000000000000000000000000000000000000000 DUP2 MSTORE PUSH1 0x4 ADD PUSH2 0xDDB SWAP1 PUSH2 0x2B38 JUMP JUMPDEST PUSH1 0x40 MLOAD DUP1 SWAP2 SUB SWAP1 REVERT JUMPDEST PUSH1 0x0 ISZERO ISZERO PUSH1 0x7 PUSH1 0x0 DUP9 DUP5 DUP2 MLOAD DUP2 LT PUSH2 0xDFF JUMPI PUSH2 0xDFE PUSH2 0x2F29 JUMP JUMPDEST JUMPDEST PUSH1 0x20 MUL PUSH1 0x20 ADD ADD MLOAD DUP2 MSTORE PUSH1 0x20 ADD SWAP1 DUP2 MSTORE PUSH1 0x20 ADD PUSH1 0x0 KECCAK256 PUSH1 0x2 ADD PUSH1 0x0 SWAP1 SLOAD SWAP1 PUSH2 0x100 EXP SWAP1 DIV PUSH1 0xFF AND ISZERO ISZERO EQ PUSH2 0xE68 JUMPI PUSH1 0x40 MLOAD PUSH32 0x8C379A000000000000000000000000000000000000000000000000000000000 DUP2 MSTORE PUSH1 0x4 ADD PUSH2 0xE5F SWAP1 PUSH2 0x2AF8 JUMP JUMPDEST PUSH1 0x40 MLOAD DUP1 SWAP2 SUB SWAP1 REVERT JUMPDEST DUP1 DUP1 PUSH2 0xE73 SWAP1 PUSH2 0x2E82 JUMP JUMPDEST SWAP2 POP POP PUSH2 0xBD8 JUMP JUMPDEST POP PUSH1 0x8 PUSH1 0x0 DUP2 SLOAD DUP1 SWAP3 SWAP2 SWAP1 PUSH2 0xE8F SWAP1 PUSH2 0x2E82 JUMP JUMPDEST SWAP2 SWAP1 POP SSTORE POP DUP2 PUSH1 0x7 PUSH1 0x0 DUP6 DUP2 MSTORE PUSH1 0x20 ADD SWAP1 DUP2 MSTORE PUSH1 0x20 ADD PUSH1 0x0 KECCAK256 PUSH1 0x0 ADD DUP2 SWAP1 SSTORE POP TIMESTAMP PUSH1 0x7 PUSH1 0x0 DUP6 DUP2 MSTORE PUSH1 0x20 ADD SWAP1 DUP2 MSTORE PUSH1 0x20 ADD PUSH1 0x0 KECCAK256 PUSH1 0x1 ADD DUP2 SWAP1 SSTORE POP PUSH1 0x0 DUP6 MLOAD EQ ISZERO PUSH2 0xED9 JUMPI PUSH2 0xF50 JUMP JUMPDEST DUP5 MLOAD PUSH1 0x9 PUSH1 0x0 DUP3 DUP3 SLOAD PUSH2 0xEEC SWAP2 SWAP1 PUSH2 0x2DB3 JUMP JUMPDEST SWAP3 POP POP DUP2 SWAP1 SSTORE POP DUP5 PUSH1 0x7 PUSH1 0x0 DUP6 DUP2 MSTORE PUSH1 0x20 ADD SWAP1 DUP2 MSTORE PUSH1 0x20 ADD PUSH1 0x0 KECCAK256 PUSH1 0x3 ADD PUSH1 0x0 ADD SWAP1 DUP1 MLOAD SWAP1 PUSH1 0x20 ADD SWAP1 PUSH2 0xF20 SWAP3 SWAP2 SWAP1 PUSH2 0x20A0 JUMP JUMPDEST POP DUP4 PUSH1 0x7 PUSH1 0x0 DUP6 DUP2 MSTORE PUSH1 0x20 ADD SWAP1 DUP2 MSTORE PUSH1 0x20 ADD PUSH1 0x0 KECCAK256 PUSH1 0x3 ADD PUSH1 0x1 ADD SWAP1 DUP1 MLOAD SWAP1 PUSH1 0x20 ADD SWAP1 PUSH2 0xF4E SWAP3 SWAP2 SWAP1 PUSH2 0x20A0 JUMP JUMPDEST POP JUMPDEST POP POP POP POP POP JUMP JUMPDEST PUSH1 0x7 PUSH1 0x20 MSTORE DUP1 PUSH1 0x0 MSTORE PUSH1 0x40 PUSH1 0x0 KECCAK256 PUSH1 0x0 SWAP2 POP SWAP1 POP DUP1 PUSH1 0x0 ADD SLOAD SWAP1 DUP1 PUSH1 0x1 ADD SLOAD SWAP1 DUP1 PUSH1 0x2 ADD PUSH1 0x0 SWAP1 SLOAD SWAP1 PUSH2 0x100 EXP SWAP1 DIV PUSH1 0xFF AND SWAP1 DUP1 PUSH1 0x3 ADD PUSH1 0x40 MLOAD DUP1 PUSH1 0x40 ADD PUSH1 0x40 MSTORE SWAP1 DUP2 PUSH1 0x0 DUP3 ADD DUP1 SLOAD DUP1 PUSH1 0x20 MUL PUSH1 0x20 ADD PUSH1 0x40 MLOAD SWAP1 DUP2 ADD PUSH1 0x40 MSTORE DUP1 SWAP3 SWAP2 SWAP1 DUP2 DUP2 MSTORE PUSH1 0x20 ADD DUP3 DUP1 SLOAD DUP1 ISZERO PUSH2 0xFE8 JUMPI PUSH1 0x20 MUL DUP3 ADD SWAP2 SWAP1 PUSH1 0x0 MSTORE PUSH1 0x20 PUSH1 0x0 KECCAK256 SWAP1 JUMPDEST DUP2 SLOAD DUP2 MSTORE PUSH1 0x20 ADD SWAP1 PUSH1 0x1 ADD SWAP1 DUP1 DUP4 GT PUSH2 0xFD4 JUMPI JUMPDEST POP POP POP POP POP DUP2 MSTORE PUSH1 0x20 ADD PUSH1 0x1 DUP3 ADD DUP1 SLOAD DUP1 PUSH1 0x20 MUL PUSH1 0x20 ADD PUSH1 0x40 MLOAD SWAP1 DUP2 ADD PUSH1 0x40 MSTORE DUP1 SWAP3 SWAP2 SWAP1 DUP2 DUP2 MSTORE PUSH1 0x20 ADD DUP3 DUP1 SLOAD DUP1 ISZERO PUSH2 0x1040 JUMPI PUSH1 0x20 MUL DUP3 ADD SWAP2 SWAP1 PUSH1 0x0 MSTORE PUSH1 0x20 PUSH1 0x0 KECCAK256 SWAP1 JUMPDEST DUP2 SLOAD DUP2 MSTORE PUSH1 0x20 ADD SWAP1 PUSH1 0x1 ADD SWAP1 DUP1 DUP4 GT PUSH2 0x102C JUMPI JUMPDEST POP POP POP POP POP DUP2 MSTORE POP POP SWAP1 POP DUP5 JUMP JUMPDEST PUSH2 0x1056 PUSH2 0x20ED JUMP JUMPDEST PUSH1 0x7 PUSH1 0x0 DUP4 DUP2 MSTORE PUSH1 0x20 ADD SWAP1 DUP2 MSTORE PUSH1 0x20 ADD PUSH1 0x0 KECCAK256 PUSH1 0x3 ADD PUSH1 0x40 MLOAD DUP1 PUSH1 0x40 ADD PUSH1 0x40 MSTORE SWAP1 DUP2 PUSH1 0x0 DUP3 ADD DUP1 SLOAD DUP1 PUSH1 0x20 MUL PUSH1 0x20 ADD PUSH1 0x40 MLOAD SWAP1 DUP2 ADD PUSH1 0x40 MSTORE DUP1 SWAP3 SWAP2 SWAP1 DUP2 DUP2 MSTORE PUSH1 0x20 ADD DUP3 DUP1 SLOAD DUP1 ISZERO PUSH2 0x10C6 JUMPI PUSH1 0x20 MUL DUP3 ADD SWAP2 SWAP1 PUSH1 0x0 MSTORE PUSH1 0x20 PUSH1 0x0 KECCAK256 SWAP1 JUMPDEST DUP2 SLOAD DUP2 MSTORE PUSH1 0x20 ADD SWAP1 PUSH1 0x1 ADD SWAP1 DUP1 DUP4 GT PUSH2 0x10B2 JUMPI JUMPDEST POP POP POP POP POP DUP2 MSTORE PUSH1 0x20 ADD PUSH1 0x1 DUP3 ADD DUP1 SLOAD DUP1 PUSH1 0x20 MUL PUSH1 0x20 ADD PUSH1 0x40 MLOAD SWAP1 DUP2 ADD PUSH1 0x40 MSTORE DUP1 SWAP3 SWAP2 SWAP1 DUP2 DUP2 MSTORE PUSH1 0x20 ADD DUP3 DUP1 SLOAD DUP1 ISZERO PUSH2 0x111E JUMPI PUSH1 0x20 MUL DUP3 ADD SWAP2 SWAP1 PUSH1 0x0 MSTORE PUSH1 0x20 PUSH1 0x0 KECCAK256 SWAP1 JUMPDEST DUP2 SLOAD DUP2 MSTORE PUSH1 0x20 ADD SWAP1 PUSH1 0x1 ADD SWAP1 DUP1 DUP4 GT PUSH2 0x110A JUMPI JUMPDEST POP POP POP POP POP DUP2 MSTORE POP POP SWAP1 POP SWAP2 SWAP1 POP JUMP JUMPDEST PUSH1 0x0 PUSH1 0x1 SLOAD PUSH1 0x2 SLOAD LT ISZERO PUSH2 0x1141 JUMPI PUSH1 0x0 DUP1 REVERT JUMPDEST PUSH1 0x0 DUP1 PUSH1 0x1 SLOAD DUP2 MSTORE PUSH1 0x20 ADD SWAP1 DUP2 MSTORE PUSH1 0x20 ADD PUSH1 0x0 KECCAK256 SLOAD SWAP1 POP PUSH1 0x2 SLOAD PUSH1 0x1 SLOAD EQ ISZERO PUSH2 0x1180 JUMPI PUSH1 0x1 PUSH1 0x3 PUSH1 0x0 PUSH2 0x100 EXP DUP2 SLOAD DUP2 PUSH1 0xFF MUL NOT AND SWAP1 DUP4 ISZERO ISZERO MUL OR SWAP1 SSTORE POP JUMPDEST PUSH1 0x0 DUP1 PUSH1 0x1 SLOAD DUP2 MSTORE PUSH1 0x20 ADD SWAP1 DUP2 MSTORE PUSH1 0x20 ADD PUSH1 0x0 KECCAK256 PUSH1 0x0 SWAP1 SSTORE PUSH1 0x1 DUP1 PUSH1 0x0 DUP3 DUP3 SLOAD PUSH2 0x11AA SWAP2 SWAP1 PUSH2 0x2DB3 JUMP JUMPDEST SWAP3 POP POP DUP2 SWAP1 SSTORE POP SWAP1 JUMP JUMPDEST PUSH1 0x0 PUSH1 0x7 PUSH1 0x0 DUP4 DUP2 MSTORE PUSH1 0x20 ADD SWAP1 DUP2 MSTORE PUSH1 0x20 ADD PUSH1 0x0 KECCAK256 PUSH1 0x2 ADD PUSH1 0x0 SWAP1 SLOAD SWAP1 PUSH2 0x100 EXP SWAP1 DIV PUSH1 0xFF AND SWAP1 POP SWAP2 SWAP1 POP JUMP JUMPDEST PUSH1 0x0 PUSH1 0x8 SLOAD SWAP1 POP SWAP1 JUMP JUMPDEST PUSH1 0x0 SWAP2 SWAP1 POP JUMP JUMPDEST PUSH1 0x0 PUSH1 0x9 SLOAD SWAP1 POP SWAP1 JUMP JUMPDEST PUSH2 0x1204 PUSH2 0x2107 JUMP JUMPDEST PUSH1 0x0 PUSH2 0x120E PUSH2 0x2107 JUMP JUMPDEST PUSH1 0x0 PUSH2 0x1219 DUP6 PUSH2 0x80B JUMP JUMPDEST PUSH1 0x0 JUMPDEST PUSH1 0x3 PUSH1 0x0 SWAP1 SLOAD SWAP1 PUSH2 0x100 EXP SWAP1 DIV PUSH1 0xFF AND PUSH2 0x1354 JUMPI PUSH2 0x1238 PUSH2 0x112E JUMP JUMPDEST SWAP1 POP PUSH2 0x1244 DUP2 DUP7 PUSH2 0x798 JUMP JUMPDEST PUSH2 0x1275 JUMPI DUP1 DUP6 DUP6 PUSH2 0x200 DUP2 LT PUSH2 0x125D JUMPI PUSH2 0x125C PUSH2 0x2F29 JUMP JUMPDEST JUMPDEST PUSH1 0x20 MUL ADD DUP2 DUP2 MSTORE POP POP DUP4 DUP1 PUSH2 0x1271 SWAP1 PUSH2 0x2E82 JUMP JUMPDEST SWAP5 POP POP JUMPDEST PUSH1 0x0 JUMPDEST PUSH1 0x7 PUSH1 0x0 DUP4 DUP2 MSTORE PUSH1 0x20 ADD SWAP1 DUP2 MSTORE PUSH1 0x20 ADD PUSH1 0x0 KECCAK256 PUSH1 0x3 ADD PUSH1 0x0 ADD DUP1 SLOAD SWAP1 POP DUP2 LT ISZERO PUSH2 0x134E JUMPI PUSH2 0x12DA PUSH1 0x7 PUSH1 0x0 DUP5 DUP2 MSTORE PUSH1 0x20 ADD SWAP1 DUP2 MSTORE PUSH1 0x20 ADD PUSH1 0x0 KECCAK256 PUSH1 0x3 ADD PUSH1 0x0 ADD DUP3 DUP2 SLOAD DUP2 LT PUSH2 0x12CA JUMPI PUSH2 0x12C9 PUSH2 0x2F29 JUMP JUMPDEST JUMPDEST SWAP1 PUSH1 0x0 MSTORE PUSH1 0x20 PUSH1 0x0 KECCAK256 ADD SLOAD PUSH2 0x80B JUMP JUMPDEST PUSH1 0x7 PUSH1 0x0 DUP4 DUP2 MSTORE PUSH1 0x20 ADD SWAP1 DUP2 MSTORE PUSH1 0x20 ADD PUSH1 0x0 KECCAK256 PUSH1 0x3 ADD PUSH1 0x1 ADD DUP2 DUP2 SLOAD DUP2 LT PUSH2 0x1305 JUMPI PUSH2 0x1304 PUSH2 0x2F29 JUMP JUMPDEST JUMPDEST SWAP1 PUSH1 0x0 MSTORE PUSH1 0x20 PUSH1 0x0 KECCAK256 ADD SLOAD DUP5 DUP5 PUSH2 0x200 DUP2 LT PUSH2 0x1324 JUMPI PUSH2 0x1323 PUSH2 0x2F29 JUMP JUMPDEST JUMPDEST PUSH1 0x20 MUL ADD DUP2 DUP2 MSTORE POP POP DUP3 DUP1 PUSH2 0x1338 SWAP1 PUSH2 0x2E82 JUMP JUMPDEST SWAP4 POP POP DUP1 DUP1 PUSH2 0x1346 SWAP1 PUSH2 0x2E82 JUMP JUMPDEST SWAP2 POP POP PUSH2 0x1278 JUMP JUMPDEST POP PUSH2 0x121C JUMP JUMPDEST POP POP POP POP POP POP JUMP JUMPDEST PUSH1 0x5 PUSH1 0x0 SWAP1 SLOAD SWAP1 PUSH2 0x100 EXP SWAP1 DIV PUSH20 0xFFFFFFFFFFFFFFFFFFFFFFFFFFFFFFFFFFFFFFFF AND PUSH20 0xFFFFFFFFFFFFFFFFFFFFFFFFFFFFFFFFFFFFFFFF AND CALLER PUSH20 0xFFFFFFFFFFFFFFFFFFFFFFFFFFFFFFFFFFFFFFFF AND EQ PUSH2 0x13EC JUMPI PUSH1 0x40 MLOAD PUSH32 0x8C379A000000000000000000000000000000000000000000000000000000000 DUP2 MSTORE PUSH1 0x4 ADD PUSH2 0x13E3 SWAP1 PUSH2 0x2BF8 JUMP JUMPDEST PUSH1 0x40 MLOAD DUP1 SWAP2 SUB SWAP1 REVERT JUMPDEST DUP1 PUSH1 0x0 DUP2 EQ ISZERO PUSH2 0x1431 JUMPI PUSH1 0x40 MLOAD PUSH32 0x8C379A000000000000000000000000000000000000000000000000000000000 DUP2 MSTORE PUSH1 0x4 ADD PUSH2 0x1428 SWAP1 PUSH2 0x2A78 JUMP JUMPDEST PUSH1 0x40 MLOAD DUP1 SWAP2 SUB SWAP1 REVERT JUMPDEST PUSH1 0x1 ISZERO ISZERO PUSH1 0x6 PUSH1 0x0 DUP4 DUP2 MSTORE PUSH1 0x20 ADD SWAP1 DUP2 MSTORE PUSH1 0x20 ADD PUSH1 0x0 KECCAK256 PUSH1 0x0 SWAP1 SLOAD SWAP1 PUSH2 0x100 EXP SWAP1 DIV PUSH1 0xFF AND ISZERO ISZERO EQ PUSH2 0x1498 JUMPI PUSH1 0x40 MLOAD PUSH32 0x8C379A000000000000000000000000000000000000000000000000000000000 DUP2 MSTORE PUSH1 0x4 ADD PUSH2 0x148F SWAP1 PUSH2 0x2A58 JUMP JUMPDEST PUSH1 0x40 MLOAD DUP1 SWAP2 SUB SWAP1 REVERT JUMPDEST PUSH1 0x0 PUSH1 0x7 PUSH1 0x0 DUP4 DUP2 MSTORE PUSH1 0x20 ADD SWAP1 DUP2 MSTORE PUSH1 0x20 ADD PUSH1 0x0 KECCAK256 PUSH1 0x1 ADD SLOAD EQ PUSH2 0x14F1 JUMPI PUSH1 0x40 MLOAD PUSH32 0x8C379A000000000000000000000000000000000000000000000000000000000 DUP2 MSTORE PUSH1 0x4 ADD PUSH2 0x14E8 SWAP1 PUSH2 0x2BD8 JUMP JUMPDEST PUSH1 0x40 MLOAD DUP1 SWAP2 SUB SWAP1 REVERT JUMPDEST POP POP JUMP JUMPDEST PUSH1 0x5 PUSH1 0x0 SWAP1 SLOAD SWAP1 PUSH2 0x100 EXP SWAP1 DIV PUSH20 0xFFFFFFFFFFFFFFFFFFFFFFFFFFFFFFFFFFFFFFFF AND PUSH20 0xFFFFFFFFFFFFFFFFFFFFFFFFFFFFFFFFFFFFFFFF AND CALLER PUSH20 0xFFFFFFFFFFFFFFFFFFFFFFFFFFFFFFFFFFFFFFFF AND EQ PUSH2 0x1585 JUMPI PUSH1 0x40 MLOAD PUSH32 0x8C379A000000000000000000000000000000000000000000000000000000000 DUP2 MSTORE PUSH1 0x4 ADD PUSH2 0x157C SWAP1 PUSH2 0x2BF8 JUMP JUMPDEST PUSH1 0x40 MLOAD DUP1 SWAP2 SUB SWAP1 REVERT JUMPDEST PUSH1 0x0 DUP2 EQ ISZERO PUSH2 0x15C9 JUMPI PUSH1 0x40 MLOAD PUSH32 0x8C379A000000000000000000000000000000000000000000000000000000000 DUP2 MSTORE PUSH1 0x4 ADD PUSH2 0x15C0 SWAP1 PUSH2 0x2A78 JUMP JUMPDEST PUSH1 0x40 MLOAD DUP1 SWAP2 SUB SWAP1 REVERT JUMPDEST PUSH1 0x1 ISZERO ISZERO PUSH1 0x6 PUSH1 0x0 DUP4 DUP2 MSTORE PUSH1 0x20 ADD SWAP1 DUP2 MSTORE PUSH1 0x20 ADD PUSH1 0x0 KECCAK256 PUSH1 0x0 SWAP1 SLOAD SWAP1 PUSH2 0x100 EXP SWAP1 DIV PUSH1 0xFF AND ISZERO ISZERO EQ PUSH2 0x1630 JUMPI PUSH1 0x40 MLOAD PUSH32 0x8C379A000000000000000000000000000000000000000000000000000000000 DUP2 MSTORE PUSH1 0x4 ADD PUSH2 0x1627 SWAP1 PUSH2 0x2A58 JUMP JUMPDEST PUSH1 0x40 MLOAD DUP1 SWAP2 SUB SWAP1 REVERT JUMPDEST PUSH1 0x0 PUSH1 0x7 PUSH1 0x0 DUP4 DUP2 MSTORE PUSH1 0x20 ADD SWAP1 DUP2 MSTORE PUSH1 0x20 ADD PUSH1 0x0 KECCAK256 PUSH1 0x1 ADD SLOAD EQ ISZERO PUSH2 0x168A JUMPI PUSH1 0x40 MLOAD PUSH32 0x8C379A000000000000000000000000000000000000000000000000000000000 DUP2 MSTORE PUSH1 0x4 ADD PUSH2 0x1681 SWAP1 PUSH2 0x2B78 JUMP JUMPDEST PUSH1 0x40 MLOAD DUP1 SWAP2 SUB SWAP1 REVERT JUMPDEST PUSH1 0x0 DUP4 MLOAD EQ ISZERO PUSH2 0x1699 JUMPI PUSH2 0x1C20 JUMP JUMPDEST PUSH1 0x0 JUMPDEST DUP4 MLOAD DUP2 LT ISZERO PUSH2 0x193F JUMPI PUSH2 0x16C9 DUP3 DUP6 DUP4 DUP2 MLOAD DUP2 LT PUSH2 0x16BC JUMPI PUSH2 0x16BB PUSH2 0x2F29 JUMP JUMPDEST JUMPDEST PUSH1 0x20 MUL PUSH1 0x20 ADD ADD MLOAD PUSH2 0x902 JUMP JUMPDEST PUSH1 0x0 DUP5 DUP3 DUP2 MLOAD DUP2 LT PUSH2 0x16DE JUMPI PUSH2 0x16DD PUSH2 0x2F29 JUMP JUMPDEST JUMPDEST PUSH1 0x20 MUL PUSH1 0x20 ADD ADD MLOAD EQ ISZERO PUSH2 0x1727 JUMPI PUSH1 0x40 MLOAD PUSH32 0x8C379A000000000000000000000000000000000000000000000000000000000 DUP2 MSTORE PUSH1 0x4 ADD PUSH2 0x171E SWAP1 PUSH2 0x2C18 JUMP JUMPDEST PUSH1 0x40 MLOAD DUP1 SWAP2 SUB SWAP1 REVERT JUMPDEST PUSH1 0x1 ISZERO ISZERO PUSH1 0x6 PUSH1 0x0 DUP7 DUP5 DUP2 MLOAD DUP2 LT PUSH2 0x1742 JUMPI PUSH2 0x1741 PUSH2 0x2F29 JUMP JUMPDEST JUMPDEST PUSH1 0x20 MUL PUSH1 0x20 ADD ADD MLOAD DUP2 MSTORE PUSH1 0x20 ADD SWAP1 DUP2 MSTORE PUSH1 0x20 ADD PUSH1 0x0 KECCAK256 PUSH1 0x0 SWAP1 SLOAD SWAP1 PUSH2 0x100 EXP SWAP1 DIV PUSH1 0xFF AND ISZERO ISZERO EQ PUSH2 0x17A8 JUMPI PUSH1 0x40 MLOAD PUSH32 0x8C379A000000000000000000000000000000000000000000000000000000000 DUP2 MSTORE PUSH1 0x4 ADD PUSH2 0x179F SWAP1 PUSH2 0x2C38 JUMP JUMPDEST PUSH1 0x40 MLOAD DUP1 SWAP2 SUB SWAP1 REVERT JUMPDEST PUSH1 0x0 PUSH1 0x7 PUSH1 0x0 DUP7 DUP5 DUP2 MLOAD DUP2 LT PUSH2 0x17C1 JUMPI PUSH2 0x17C0 PUSH2 0x2F29 JUMP JUMPDEST JUMPDEST PUSH1 0x20 MUL PUSH1 0x20 ADD ADD MLOAD DUP2 MSTORE PUSH1 0x20 ADD SWAP1 DUP2 MSTORE PUSH1 0x20 ADD PUSH1 0x0 KECCAK256 PUSH1 0x1 ADD SLOAD EQ ISZERO PUSH2 0x181C JUMPI PUSH1 0x40 MLOAD PUSH32 0x8C379A000000000000000000000000000000000000000000000000000000000 DUP2 MSTORE PUSH1 0x4 ADD PUSH2 0x1813 SWAP1 PUSH2 0x2BB8 JUMP JUMPDEST PUSH1 0x40 MLOAD DUP1 SWAP2 SUB SWAP1 REVERT JUMPDEST DUP3 DUP2 DUP2 MLOAD DUP2 LT PUSH2 0x182F JUMPI PUSH2 0x182E PUSH2 0x2F29 JUMP JUMPDEST JUMPDEST PUSH1 0x20 MUL PUSH1 0x20 ADD ADD MLOAD PUSH1 0x7 PUSH1 0x0 DUP7 DUP5 DUP2 MLOAD DUP2 LT PUSH2 0x184E JUMPI PUSH2 0x184D PUSH2 0x2F29 JUMP JUMPDEST JUMPDEST PUSH1 0x20 MUL PUSH1 0x20 ADD ADD MLOAD DUP2 MSTORE PUSH1 0x20 ADD SWAP1 DUP2 MSTORE PUSH1 0x20 ADD PUSH1 0x0 KECCAK256 PUSH1 0x0 ADD SLOAD EQ PUSH2 0x18A8 JUMPI PUSH1 0x40 MLOAD PUSH32 0x8C379A000000000000000000000000000000000000000000000000000000000 DUP2 MSTORE PUSH1 0x4 ADD PUSH2 0x189F SWAP1 PUSH2 0x2B38 JUMP JUMPDEST PUSH1 0x40 MLOAD DUP1 SWAP2 SUB SWAP1 REVERT JUMPDEST PUSH1 0x0 ISZERO ISZERO PUSH1 0x7 PUSH1 0x0 DUP7 DUP5 DUP2 MLOAD DUP2 LT PUSH2 0x18C3 JUMPI PUSH2 0x18C2 PUSH2 0x2F29 JUMP JUMPDEST JUMPDEST PUSH1 0x20 MUL PUSH1 0x20 ADD ADD MLOAD DUP2 MSTORE PUSH1 0x20 ADD SWAP1 DUP2 MSTORE PUSH1 0x20 ADD PUSH1 0x0 KECCAK256 PUSH1 0x2 ADD PUSH1 0x0 SWAP1 SLOAD SWAP1 PUSH2 0x100 EXP SWAP1 DIV PUSH1 0xFF AND ISZERO ISZERO EQ PUSH2 0x192C JUMPI PUSH1 0x40 MLOAD PUSH32 0x8C379A000000000000000000000000000000000000000000000000000000000 DUP2 MSTORE PUSH1 0x4 ADD PUSH2 0x1923 SWAP1 PUSH2 0x2AF8 JUMP JUMPDEST PUSH1 0x40 MLOAD DUP1 SWAP2 SUB SWAP1 REVERT JUMPDEST DUP1 DUP1 PUSH2 0x1937 SWAP1 PUSH2 0x2E82 JUMP JUMPDEST SWAP2 POP POP PUSH2 0x169C JUMP JUMPDEST POP DUP2 MLOAD DUP4 MLOAD EQ PUSH2 0x1984 JUMPI PUSH1 0x40 MLOAD PUSH32 0x8C379A000000000000000000000000000000000000000000000000000000000 DUP2 MSTORE PUSH1 0x4 ADD PUSH2 0x197B SWAP1 PUSH2 0x2AB8 JUMP JUMPDEST PUSH1 0x40 MLOAD DUP1 SWAP2 SUB SWAP1 REVERT JUMPDEST PUSH1 0x0 PUSH2 0x1990 DUP3 DUP6 PUSH2 0x866 JUMP JUMPDEST SWAP1 POP DUP1 ISZERO PUSH2 0x19D3 JUMPI PUSH1 0x40 MLOAD PUSH32 0x8C379A000000000000000000000000000000000000000000000000000000000 DUP2 MSTORE PUSH1 0x4 ADD PUSH2 0x19CA SWAP1 PUSH2 0x2A98 JUMP JUMPDEST PUSH1 0x40 MLOAD DUP1 SWAP2 SUB SWAP1 REVERT JUMPDEST PUSH1 0x0 JUMPDEST DUP5 MLOAD DUP2 LT ISZERO PUSH2 0x1C1D JUMPI PUSH1 0x0 JUMPDEST PUSH1 0x7 PUSH1 0x0 DUP6 DUP2 MSTORE PUSH1 0x20 ADD SWAP1 DUP2 MSTORE PUSH1 0x20 ADD PUSH1 0x0 KECCAK256 PUSH1 0x3 ADD PUSH1 0x0 ADD DUP1 SLOAD SWAP1 POP DUP2 LT ISZERO PUSH2 0x1B3D JUMPI DUP6 DUP3 DUP2 MLOAD DUP2 LT PUSH2 0x1A19 JUMPI PUSH2 0x1A18 PUSH2 0x2F29 JUMP JUMPDEST JUMPDEST PUSH1 0x20 MUL PUSH1 0x20 ADD ADD MLOAD PUSH1 0x7 PUSH1 0x0 DUP7 DUP2 MSTORE PUSH1 0x20 ADD SWAP1 DUP2 MSTORE PUSH1 0x20 ADD PUSH1 0x0 KECCAK256 PUSH1 0x3 ADD PUSH1 0x0 ADD DUP3 DUP2 SLOAD DUP2 LT PUSH2 0x1A4C JUMPI PUSH2 0x1A4B PUSH2 0x2F29 JUMP JUMPDEST JUMPDEST SWAP1 PUSH1 0x0 MSTORE PUSH1 0x20 PUSH1 0x0 KECCAK256 ADD SLOAD EQ ISZERO PUSH2 0x1A98 JUMPI PUSH1 0x40 MLOAD PUSH32 0x8C379A000000000000000000000000000000000000000000000000000000000 DUP2 MSTORE PUSH1 0x4 ADD PUSH2 0x1A8F SWAP1 PUSH2 0x2B58 JUMP JUMPDEST PUSH1 0x40 MLOAD DUP1 SWAP2 SUB SWAP1 REVERT JUMPDEST DUP4 PUSH1 0x7 PUSH1 0x0 DUP9 DUP6 DUP2 MLOAD DUP2 LT PUSH2 0x1AB0 JUMPI PUSH2 0x1AAF PUSH2 0x2F29 JUMP JUMPDEST JUMPDEST PUSH1 0x20 MUL PUSH1 0x20 ADD ADD MLOAD DUP2 MSTORE PUSH1 0x20 ADD SWAP1 DUP2 MSTORE PUSH1 0x20 ADD PUSH1 0x0 KECCAK256 PUSH1 0x3 ADD PUSH1 0x0 ADD DUP3 DUP2 SLOAD DUP2 LT PUSH2 0x1ADE JUMPI PUSH2 0x1ADD PUSH2 0x2F29 JUMP JUMPDEST JUMPDEST SWAP1 PUSH1 0x0 MSTORE PUSH1 0x20 PUSH1 0x0 KECCAK256 ADD SLOAD EQ ISZERO PUSH2 0x1B2A JUMPI PUSH1 0x40 MLOAD PUSH32 0x8C379A000000000000000000000000000000000000000000000000000000000 DUP2 MSTORE PUSH1 0x4 ADD PUSH2 0x1B21 SWAP1 PUSH2 0x2AD8 JUMP JUMPDEST PUSH1 0x40 MLOAD DUP1 SWAP2 SUB SWAP1 REVERT JUMPDEST DUP1 DUP1 PUSH2 0x1B35 SWAP1 PUSH2 0x2E82 JUMP JUMPDEST SWAP2 POP POP PUSH2 0x19E2 JUMP JUMPDEST POP PUSH1 0x9 PUSH1 0x0 DUP2 SLOAD DUP1 SWAP3 SWAP2 SWAP1 PUSH2 0x1B51 SWAP1 PUSH2 0x2E82 JUMP JUMPDEST SWAP2 SWAP1 POP SSTORE POP PUSH1 0x7 PUSH1 0x0 DUP5 DUP2 MSTORE PUSH1 0x20 ADD SWAP1 DUP2 MSTORE PUSH1 0x20 ADD PUSH1 0x0 KECCAK256 PUSH1 0x3 ADD PUSH1 0x0 ADD DUP6 DUP3 DUP2 MLOAD DUP2 LT PUSH2 0x1B82 JUMPI PUSH2 0x1B81 PUSH2 0x2F29 JUMP JUMPDEST JUMPDEST PUSH1 0x20 MUL PUSH1 0x20 ADD ADD MLOAD SWAP1 DUP1 PUSH1 0x1 DUP2 SLOAD ADD DUP1 DUP3 SSTORE DUP1 SWAP2 POP POP PUSH1 0x1 SWAP1 SUB SWAP1 PUSH1 0x0 MSTORE PUSH1 0x20 PUSH1 0x0 KECCAK256 ADD PUSH1 0x0 SWAP1 SWAP2 SWAP1 SWAP2 SWAP1 SWAP2 POP SSTORE PUSH1 0x7 PUSH1 0x0 DUP5 DUP2 MSTORE PUSH1 0x20 ADD SWAP1 DUP2 MSTORE PUSH1 0x20 ADD PUSH1 0x0 KECCAK256 PUSH1 0x3 ADD PUSH1 0x1 ADD DUP5 DUP3 DUP2 MLOAD DUP2 LT PUSH2 0x1BDC JUMPI PUSH2 0x1BDB PUSH2 0x2F29 JUMP JUMPDEST JUMPDEST PUSH1 0x20 MUL PUSH1 0x20 ADD ADD MLOAD SWAP1 DUP1 PUSH1 0x1 DUP2 SLOAD ADD DUP1 DUP3 SSTORE DUP1 SWAP2 POP POP PUSH1 0x1 SWAP1 SUB SWAP1 PUSH1 0x0 MSTORE PUSH1 0x20 PUSH1 0x0 KECCAK256 ADD PUSH1 0x0 SWAP1 SWAP2 SWAP1 SWAP2 SWAP1 SWAP2 POP SSTORE DUP1 DUP1 PUSH2 0x1C15 SWAP1 PUSH2 0x2E82 JUMP JUMPDEST SWAP2 POP POP PUSH2 0x19D6 JUMP JUMPDEST POP POP JUMPDEST POP POP POP JUMP JUMPDEST PUSH1 0x60 PUSH1 0x7 PUSH1 0x0 DUP4 DUP2 MSTORE PUSH1 0x20 ADD SWAP1 DUP2 MSTORE PUSH1 0x20 ADD PUSH1 0x0 KECCAK256 PUSH1 0x3 ADD PUSH1 0x1 ADD DUP1 SLOAD DUP1 PUSH1 0x20 MUL PUSH1 0x20 ADD PUSH1 0x40 MLOAD SWAP1 DUP2 ADD PUSH1 0x40 MSTORE DUP1 SWAP3 SWAP2 SWAP1 DUP2 DUP2 MSTORE PUSH1 0x20 ADD DUP3 DUP1 SLOAD DUP1 ISZERO PUSH2 0x1C8A JUMPI PUSH1 0x20 MUL DUP3 ADD SWAP2 SWAP1 PUSH1 0x0 MSTORE PUSH1 0x20 PUSH1 0x0 KECCAK256 SWAP1 JUMPDEST DUP2 SLOAD DUP2 MSTORE PUSH1 0x20 ADD SWAP1 PUSH1 0x1 ADD SWAP1 DUP1 DUP4 GT PUSH2 0x1C76 JUMPI JUMPDEST POP POP POP POP POP SWAP1 POP SWAP2 SWAP1 POP JUMP JUMPDEST PUSH1 0x5 PUSH1 0x0 SWAP1 SLOAD SWAP1 PUSH2 0x100 EXP SWAP1 DIV PUSH20 0xFFFFFFFFFFFFFFFFFFFFFFFFFFFFFFFFFFFFFFFF AND PUSH20 0xFFFFFFFFFFFFFFFFFFFFFFFFFFFFFFFFFFFFFFFF AND CALLER PUSH20 0xFFFFFFFFFFFFFFFFFFFFFFFFFFFFFFFFFFFFFFFF AND EQ PUSH2 0x1D26 JUMPI PUSH1 0x40 MLOAD PUSH32 0x8C379A000000000000000000000000000000000000000000000000000000000 DUP2 MSTORE PUSH1 0x4 ADD PUSH2 0x1D1D SWAP1 PUSH2 0x2BF8 JUMP JUMPDEST PUSH1 0x40 MLOAD DUP1 SWAP2 SUB SWAP1 REVERT JUMPDEST PUSH1 0x0 DUP3 EQ ISZERO PUSH2 0x1D6A JUMPI PUSH1 0x40 MLOAD PUSH32 0x8C379A000000000000000000000000000000000000000000000000000000000 DUP2 MSTORE PUSH1 0x4 ADD PUSH2 0x1D61 SWAP1 PUSH2 0x2A78 JUMP JUMPDEST PUSH1 0x40 MLOAD DUP1 SWAP2 SUB SWAP1 REVERT JUMPDEST PUSH1 0x1 ISZERO ISZERO PUSH1 0x6 PUSH1 0x0 DUP5 DUP2 MSTORE PUSH1 0x20 ADD SWAP1 DUP2 MSTORE PUSH1 0x20 ADD PUSH1 0x0 KECCAK256 PUSH1 0x0 SWAP1 SLOAD SWAP1 PUSH2 0x100 EXP SWAP1 DIV PUSH1 0xFF AND ISZERO ISZERO EQ PUSH2 0x1DD1 JUMPI PUSH1 0x40 MLOAD PUSH32 0x8C379A000000000000000000000000000000000000000000000000000000000 DUP2 MSTORE PUSH1 0x4 ADD PUSH2 0x1DC8 SWAP1 PUSH2 0x2A58 JUMP JUMPDEST PUSH1 0x40 MLOAD DUP1 SWAP2 SUB SWAP1 REVERT JUMPDEST PUSH1 0x0 PUSH1 0x7 PUSH1 0x0 DUP5 DUP2 MSTORE PUSH1 0x20 ADD SWAP1 DUP2 MSTORE PUSH1 0x20 ADD PUSH1 0x0 KECCAK256 PUSH1 0x1 ADD SLOAD EQ ISZERO PUSH2 0x1E2B JUMPI PUSH1 0x40 MLOAD PUSH32 0x8C379A000000000000000000000000000000000000000000000000000000000 DUP2 MSTORE PUSH1 0x4 ADD PUSH2 0x1E22 SWAP1 PUSH2 0x2B78 JUMP JUMPDEST PUSH1 0x40 MLOAD DUP1 SWAP2 SUB SWAP1 REVERT JUMPDEST DUP1 PUSH1 0x7 PUSH1 0x0 DUP5 DUP2 MSTORE PUSH1 0x20 ADD SWAP1 DUP2 MSTORE PUSH1 0x20 ADD PUSH1 0x0 KECCAK256 PUSH1 0x2 ADD PUSH1 0x0 PUSH2 0x100 EXP DUP2 SLOAD DUP2 PUSH1 0xFF MUL NOT AND SWAP1 DUP4 ISZERO ISZERO MUL OR SWAP1 SSTORE ISZERO PUSH2 0x1E62 JUMPI PUSH2 0x1E91 JUMP JUMPDEST DUP1 PUSH1 0x7 PUSH1 0x0 DUP5 DUP2 MSTORE PUSH1 0x20 ADD SWAP1 DUP2 MSTORE PUSH1 0x20 ADD PUSH1 0x0 KECCAK256 PUSH1 0x2 ADD PUSH1 0x0 PUSH2 0x100 EXP DUP2 SLOAD DUP2 PUSH1 0xFF MUL NOT AND SWAP1 DUP4 ISZERO ISZERO MUL OR SWAP1 SSTORE POP JUMPDEST POP POP JUMP JUMPDEST PUSH1 0x5 PUSH1 0x0 SWAP1 SLOAD SWAP1 PUSH2 0x100 EXP SWAP1 DIV PUSH20 0xFFFFFFFFFFFFFFFFFFFFFFFFFFFFFFFFFFFFFFFF AND PUSH20 0xFFFFFFFFFFFFFFFFFFFFFFFFFFFFFFFFFFFFFFFF AND CALLER PUSH20 0xFFFFFFFFFFFFFFFFFFFFFFFFFFFFFFFFFFFFFFFF AND EQ PUSH2 0x1F25 JUMPI PUSH1 0x40 MLOAD PUSH32 0x8C379A000000000000000000000000000000000000000000000000000000000 DUP2 MSTORE PUSH1 0x4 ADD PUSH2 0x1F1C SWAP1 PUSH2 0x2BF8 JUMP JUMPDEST PUSH1 0x40 MLOAD DUP1 SWAP2 SUB SWAP1 REVERT JUMPDEST PUSH1 0x1 PUSH1 0x6 PUSH1 0x0 PUSH1 0x1 DUP2 MSTORE PUSH1 0x20 ADD SWAP1 DUP2 MSTORE PUSH1 0x20 ADD PUSH1 0x0 KECCAK256 PUSH1 0x0 PUSH2 0x100 EXP DUP2 SLOAD DUP2 PUSH1 0xFF MUL NOT AND SWAP1 DUP4 ISZERO ISZERO MUL OR SWAP1 SSTORE POP PUSH1 0x1 PUSH1 0x6 PUSH1 0x0 PUSH1 0x2 DUP2 MSTORE PUSH1 0x20 ADD SWAP1 DUP2 MSTORE PUSH1 0x20 ADD PUSH1 0x0 KECCAK256 PUSH1 0x0 PUSH2 0x100 EXP DUP2 SLOAD DUP2 PUSH1 0xFF MUL NOT AND SWAP1 DUP4 ISZERO ISZERO MUL OR SWAP1 SSTORE POP PUSH1 0x1 PUSH1 0x6 PUSH1 0x0 PUSH1 0x3 DUP2 MSTORE PUSH1 0x20 ADD SWAP1 DUP2 MSTORE PUSH1 0x20 ADD PUSH1 0x0 KECCAK256 PUSH1 0x0 PUSH2 0x100 EXP DUP2 SLOAD DUP2 PUSH1 0xFF MUL NOT AND SWAP1 DUP4 ISZERO ISZERO MUL OR SWAP1 SSTORE POP JUMP JUMPDEST PUSH1 0x0 JUMPDEST PUSH1 0x4 PUSH1 0x0 DUP4 DUP2 MSTORE PUSH1 0x20 ADD SWAP1 DUP2 MSTORE PUSH1 0x20 ADD PUSH1 0x0 KECCAK256 PUSH1 0x0 ADD DUP1 SLOAD SWAP1 POP DUP2 LT ISZERO PUSH2 0x2021 JUMPI PUSH1 0x4 PUSH1 0x0 DUP4 DUP2 MSTORE PUSH1 0x20 ADD SWAP1 DUP2 MSTORE PUSH1 0x20 ADD PUSH1 0x0 KECCAK256 PUSH1 0x0 ADD DUP1 SLOAD DUP1 PUSH2 0x1FF8 JUMPI PUSH2 0x1FF7 PUSH2 0x2EFA JUMP JUMPDEST JUMPDEST PUSH1 0x1 SWAP1 SUB DUP2 DUP2 SWAP1 PUSH1 0x0 MSTORE PUSH1 0x20 PUSH1 0x0 KECCAK256 ADD PUSH1 0x0 SWAP1 SSTORE SWAP1 SSTORE DUP1 DUP1 PUSH2 0x2019 SWAP1 PUSH2 0x2E82 JUMP JUMPDEST SWAP2 POP POP PUSH2 0x1FB1 JUMP JUMPDEST POP POP JUMP JUMPDEST PUSH1 0x60 PUSH1 0x7 PUSH1 0x0 DUP4 DUP2 MSTORE PUSH1 0x20 ADD SWAP1 DUP2 MSTORE PUSH1 0x20 ADD PUSH1 0x0 KECCAK256 PUSH1 0x3 ADD PUSH1 0x0 ADD DUP1 SLOAD DUP1 PUSH1 0x20 MUL PUSH1 0x20 ADD PUSH1 0x40 MLOAD SWAP1 DUP2 ADD PUSH1 0x40 MSTORE DUP1 SWAP3 SWAP2 SWAP1 DUP2 DUP2 MSTORE PUSH1 0x20 ADD DUP3 DUP1 SLOAD DUP1 ISZERO PUSH2 0x208A JUMPI PUSH1 0x20 MUL DUP3 ADD SWAP2 SWAP1 PUSH1 0x0 MSTORE PUSH1 0x20 PUSH1 0x0 KECCAK256 SWAP1 JUMPDEST DUP2 SLOAD DUP2 MSTORE PUSH1 0x20 ADD SWAP1 PUSH1 0x1 ADD SWAP1 DUP1 DUP4 GT PUSH2 0x2076 JUMPI JUMPDEST POP POP POP POP POP SWAP1 POP SWAP2 SWAP1 POP JUMP JUMPDEST PUSH1 0x0 PUSH1 0x9 SLOAD SWAP1 POP SWAP1 JUMP JUMPDEST DUP3 DUP1 SLOAD DUP3 DUP3 SSTORE SWAP1 PUSH1 0x0 MSTORE PUSH1 0x20 PUSH1 0x0 KECCAK256 SWAP1 DUP2 ADD SWAP3 DUP3 ISZERO PUSH2 0x20DC JUMPI SWAP2 PUSH1 0x20 MUL DUP3 ADD JUMPDEST DUP3 DUP2 GT ISZERO PUSH2 0x20DB JUMPI DUP3 MLOAD DUP3 SSTORE SWAP2 PUSH1 0x20 ADD SWAP2 SWAP1 PUSH1 0x1 ADD SWAP1 PUSH2 0x20C0 JUMP JUMPDEST JUMPDEST POP SWAP1 POP PUSH2 0x20E9 SWAP2 SWAP1 PUSH2 0x212B JUMP JUMPDEST POP SWAP1 JUMP JUMPDEST PUSH1 0x40 MLOAD DUP1 PUSH1 0x40 ADD PUSH1 0x40 MSTORE DUP1 PUSH1 0x60 DUP2 MSTORE PUSH1 0x20 ADD PUSH1 0x60 DUP2 MSTORE POP SWAP1 JUMP JUMPDEST PUSH1 0x40 MLOAD DUP1 PUSH2 0x4000 ADD PUSH1 0x40 MSTORE DUP1 PUSH2 0x200 SWAP1 PUSH1 0x20 DUP3 MUL DUP1 CALLDATASIZE DUP4 CALLDATACOPY DUP1 DUP3 ADD SWAP2 POP POP SWAP1 POP POP SWAP1 JUMP JUMPDEST JUMPDEST DUP1 DUP3 GT ISZERO PUSH2 0x2144 JUMPI PUSH1 0x0 DUP2 PUSH1 0x0 SWAP1 SSTORE POP PUSH1 0x1 ADD PUSH2 0x212C JUMP JUMPDEST POP SWAP1 JUMP JUMPDEST PUSH1 0x0 PUSH2 0x215B PUSH2 0x2156 DUP5 PUSH2 0x2D06 JUMP JUMPDEST PUSH2 0x2CE1 JUMP JUMPDEST SWAP1 POP DUP1 DUP3 DUP6 PUSH1 0x20 DUP7 MUL DUP3 ADD GT ISZERO PUSH2 0x2175 JUMPI PUSH2 0x2174 PUSH2 0x2F96 JUMP JUMPDEST JUMPDEST PUSH1 0x0 JUMPDEST DUP6 DUP2 LT ISZERO PUSH2 0x21A5 JUMPI DUP2 PUSH2 0x218B DUP9 DUP3 PUSH2 0x23AA JUMP JUMPDEST DUP5 MSTORE PUSH1 0x20 DUP5 ADD SWAP4 POP PUSH1 0x20 DUP4 ADD SWAP3 POP POP PUSH1 0x1 DUP2 ADD SWAP1 POP PUSH2 0x2178 JUMP JUMPDEST POP POP POP SWAP4 SWAP3 POP POP POP JUMP JUMPDEST PUSH1 0x0 PUSH2 0x21C2 PUSH2 0x21BD DUP5 PUSH2 0x2D2C JUMP JUMPDEST PUSH2 0x2CE1 JUMP JUMPDEST SWAP1 POP DUP1 DUP4 DUP3 MSTORE PUSH1 0x20 DUP3 ADD SWAP1 POP DUP3 DUP6 PUSH1 0x20 DUP7 MUL DUP3 ADD GT ISZERO PUSH2 0x21E5 JUMPI PUSH2 0x21E4 PUSH2 0x2F96 JUMP JUMPDEST JUMPDEST PUSH1 0x0 JUMPDEST DUP6 DUP2 LT ISZERO PUSH2 0x2215 JUMPI DUP2 PUSH2 0x21FB DUP9 DUP3 PUSH2 0x23AA JUMP JUMPDEST DUP5 MSTORE PUSH1 0x20 DUP5 ADD SWAP4 POP PUSH1 0x20 DUP4 ADD SWAP3 POP POP PUSH1 0x1 DUP2 ADD SWAP1 POP PUSH2 0x21E8 JUMP JUMPDEST POP POP POP SWAP4 SWAP3 POP POP POP JUMP JUMPDEST PUSH1 0x0 DUP3 PUSH1 0x1F DUP4 ADD SLT PUSH2 0x2234 JUMPI PUSH2 0x2233 PUSH2 0x2F87 JUMP JUMPDEST JUMPDEST PUSH2 0x200 PUSH2 0x2242 DUP5 DUP3 DUP6 PUSH2 0x2148 JUMP JUMPDEST SWAP2 POP POP SWAP3 SWAP2 POP POP JUMP JUMPDEST PUSH1 0x0 DUP3 PUSH1 0x1F DUP4 ADD SLT PUSH2 0x2260 JUMPI PUSH2 0x225F PUSH2 0x2F87 JUMP JUMPDEST JUMPDEST DUP2 CALLDATALOAD PUSH2 0x2270 DUP5 DUP3 PUSH1 0x20 DUP7 ADD PUSH2 0x21AF JUMP JUMPDEST SWAP2 POP POP SWAP3 SWAP2 POP POP JUMP JUMPDEST PUSH1 0x0 DUP2 CALLDATALOAD SWAP1 POP PUSH2 0x2288 DUP2 PUSH2 0x3434 JUMP JUMPDEST SWAP3 SWAP2 POP POP JUMP JUMPDEST PUSH1 0x0 PUSH1 0x40 DUP3 DUP5 SUB SLT ISZERO PUSH2 0x22A4 JUMPI PUSH2 0x22A3 PUSH2 0x2F8C JUMP JUMPDEST JUMPDEST PUSH2 0x22AE PUSH1 0x40 PUSH2 0x2CE1 JUMP JUMPDEST SWAP1 POP PUSH1 0x0 DUP3 ADD CALLDATALOAD PUSH8 0xFFFFFFFFFFFFFFFF DUP2 GT ISZERO PUSH2 0x22CE JUMPI PUSH2 0x22CD PUSH2 0x2F91 JUMP JUMPDEST JUMPDEST PUSH2 0x22DA DUP5 DUP3 DUP6 ADD PUSH2 0x224B JUMP JUMPDEST PUSH1 0x0 DUP4 ADD MSTORE POP PUSH1 0x20 DUP3 ADD CALLDATALOAD PUSH8 0xFFFFFFFFFFFFFFFF DUP2 GT ISZERO PUSH2 0x22FE JUMPI PUSH2 0x22FD PUSH2 0x2F91 JUMP JUMPDEST JUMPDEST PUSH2 0x230A DUP5 DUP3 DUP6 ADD PUSH2 0x224B JUMP JUMPDEST PUSH1 0x20 DUP4 ADD MSTORE POP SWAP3 SWAP2 POP POP JUMP JUMPDEST PUSH1 0x0 PUSH1 0x80 DUP3 DUP5 SUB SLT ISZERO PUSH2 0x232C JUMPI PUSH2 0x232B PUSH2 0x2F8C JUMP JUMPDEST JUMPDEST PUSH2 0x2336 PUSH1 0x80 PUSH2 0x2CE1 JUMP JUMPDEST SWAP1 POP PUSH1 0x0 PUSH2 0x2346 DUP5 DUP3 DUP6 ADD PUSH2 0x23AA JUMP JUMPDEST PUSH1 0x0 DUP4 ADD MSTORE POP PUSH1 0x20 PUSH2 0x235A DUP5 DUP3 DUP6 ADD PUSH2 0x23AA JUMP JUMPDEST PUSH1 0x20 DUP4 ADD MSTORE POP PUSH1 0x40 PUSH2 0x236E DUP5 DUP3 DUP6 ADD PUSH2 0x2279 JUMP JUMPDEST PUSH1 0x40 DUP4 ADD MSTORE POP PUSH1 0x60 DUP3 ADD CALLDATALOAD PUSH8 0xFFFFFFFFFFFFFFFF DUP2 GT ISZERO PUSH2 0x2392 JUMPI PUSH2 0x2391 PUSH2 0x2F91 JUMP JUMPDEST JUMPDEST PUSH2 0x239E DUP5 DUP3 DUP6 ADD PUSH2 0x228E JUMP JUMPDEST PUSH1 0x60 DUP4 ADD MSTORE POP SWAP3 SWAP2 POP POP JUMP JUMPDEST PUSH1 0x0 DUP2 CALLDATALOAD SWAP1 POP PUSH2 0x23B9 DUP2 PUSH2 0x344B JUMP JUMPDEST SWAP3 SWAP2 POP POP JUMP JUMPDEST PUSH1 0x0 DUP1 PUSH1 0x0 PUSH1 0x60 DUP5 DUP7 SUB SLT ISZERO PUSH2 0x23D8 JUMPI PUSH2 0x23D7 PUSH2 0x2FA0 JUMP JUMPDEST JUMPDEST PUSH1 0x0 DUP5 ADD CALLDATALOAD PUSH8 0xFFFFFFFFFFFFFFFF DUP2 GT ISZERO PUSH2 0x23F6 JUMPI PUSH2 0x23F5 PUSH2 0x2F9B JUMP JUMPDEST JUMPDEST PUSH2 0x2402 DUP7 DUP3 DUP8 ADD PUSH2 0x224B JUMP JUMPDEST SWAP4 POP POP PUSH1 0x20 DUP5 ADD CALLDATALOAD PUSH8 0xFFFFFFFFFFFFFFFF DUP2 GT ISZERO PUSH2 0x2423 JUMPI PUSH2 0x2422 PUSH2 0x2F9B JUMP JUMPDEST JUMPDEST PUSH2 0x242F DUP7 DUP3 DUP8 ADD PUSH2 0x224B JUMP JUMPDEST SWAP3 POP POP PUSH1 0x40 PUSH2 0x2440 DUP7 DUP3 DUP8 ADD PUSH2 0x23AA JUMP JUMPDEST SWAP2 POP POP SWAP3 POP SWAP3 POP SWAP3 JUMP JUMPDEST PUSH1 0x0 DUP1 PUSH1 0x0 DUP1 PUSH1 0x80 DUP6 DUP8 SUB SLT ISZERO PUSH2 0x2464 JUMPI PUSH2 0x2463 PUSH2 0x2FA0 JUMP JUMPDEST JUMPDEST PUSH1 0x0 DUP6 ADD CALLDATALOAD PUSH8 0xFFFFFFFFFFFFFFFF DUP2 GT ISZERO PUSH2 0x2482 JUMPI PUSH2 0x2481 PUSH2 0x2F9B JUMP JUMPDEST JUMPDEST PUSH2 0x248E DUP8 DUP3 DUP9 ADD PUSH2 0x224B JUMP JUMPDEST SWAP5 POP POP PUSH1 0x20 DUP6 ADD CALLDATALOAD PUSH8 0xFFFFFFFFFFFFFFFF DUP2 GT ISZERO PUSH2 0x24AF JUMPI PUSH2 0x24AE PUSH2 0x2F9B JUMP JUMPDEST JUMPDEST PUSH2 0x24BB DUP8 DUP3 DUP9 ADD PUSH2 0x224B JUMP JUMPDEST SWAP4 POP POP PUSH1 0x40 PUSH2 0x24CC DUP8 DUP3 DUP9 ADD PUSH2 0x23AA JUMP JUMPDEST SWAP3 POP POP PUSH1 0x60 PUSH2 0x24DD DUP8 DUP3 DUP9 ADD PUSH2 0x23AA JUMP JUMPDEST SWAP2 POP POP SWAP3 SWAP6 SWAP2 SWAP5 POP SWAP3 POP JUMP JUMPDEST PUSH1 0x0 PUSH1 0x20 DUP3 DUP5 SUB SLT ISZERO PUSH2 0x24FF JUMPI PUSH2 0x24FE PUSH2 0x2FA0 JUMP JUMPDEST JUMPDEST PUSH1 0x0 DUP3 ADD CALLDATALOAD PUSH8 0xFFFFFFFFFFFFFFFF DUP2 GT ISZERO PUSH2 0x251D JUMPI PUSH2 0x251C PUSH2 0x2F9B JUMP JUMPDEST JUMPDEST PUSH2 0x2529 DUP5 DUP3 DUP6 ADD PUSH2 0x2316 JUMP JUMPDEST SWAP2 POP POP SWAP3 SWAP2 POP POP JUMP JUMPDEST PUSH1 0x0 PUSH1 0x20 DUP3 DUP5 SUB SLT ISZERO PUSH2 0x2548 JUMPI PUSH2 0x2547 PUSH2 0x2FA0 JUMP JUMPDEST JUMPDEST PUSH1 0x0 PUSH2 0x2556 DUP5 DUP3 DUP6 ADD PUSH2 0x23AA JUMP JUMPDEST SWAP2 POP POP SWAP3 SWAP2 POP POP JUMP JUMPDEST PUSH1 0x0 DUP1 PUSH2 0x4020 DUP4 DUP6 SUB SLT ISZERO PUSH2 0x2577 JUMPI PUSH2 0x2576 PUSH2 0x2FA0 JUMP JUMPDEST JUMPDEST PUSH1 0x0 PUSH2 0x2585 DUP6 DUP3 DUP7 ADD PUSH2 0x23AA JUMP JUMPDEST SWAP3 POP POP PUSH1 0x20 PUSH2 0x2596 DUP6 DUP3 DUP7 ADD PUSH2 0x221F JUMP JUMPDEST SWAP2 POP POP SWAP3 POP SWAP3 SWAP1 POP JUMP JUMPDEST PUSH1 0x0 DUP1 PUSH1 0x40 DUP4 DUP6 SUB SLT ISZERO PUSH2 0x25B7 JUMPI PUSH2 0x25B6 PUSH2 0x2FA0 JUMP JUMPDEST JUMPDEST PUSH1 0x0 PUSH2 0x25C5 DUP6 DUP3 DUP7 ADD PUSH2 0x23AA JUMP JUMPDEST SWAP3 POP POP PUSH1 0x20 DUP4 ADD CALLDATALOAD PUSH8 0xFFFFFFFFFFFFFFFF DUP2 GT ISZERO PUSH2 0x25E6 JUMPI PUSH2 0x25E5 PUSH2 0x2F9B JUMP JUMPDEST JUMPDEST PUSH2 0x25F2 DUP6 DUP3 DUP7 ADD PUSH2 0x224B JUMP JUMPDEST SWAP2 POP POP SWAP3 POP SWAP3 SWAP1 POP JUMP JUMPDEST PUSH1 0x0 DUP1 PUSH1 0x40 DUP4 DUP6 SUB SLT ISZERO PUSH2 0x2613 JUMPI PUSH2 0x2612 PUSH2 0x2FA0 JUMP JUMPDEST JUMPDEST PUSH1 0x0 PUSH2 0x2621 DUP6 DUP3 DUP7 ADD PUSH2 0x23AA JUMP JUMPDEST SWAP3 POP POP PUSH1 0x20 PUSH2 0x2632 DUP6 DUP3 DUP7 ADD PUSH2 0x2279 JUMP JUMPDEST SWAP2 POP POP SWAP3 POP SWAP3 SWAP1 POP JUMP JUMPDEST PUSH1 0x0 DUP1 PUSH1 0x40 DUP4 DUP6 SUB SLT ISZERO PUSH2 0x2653 JUMPI PUSH2 0x2652 PUSH2 0x2FA0 JUMP JUMPDEST JUMPDEST PUSH1 0x0 PUSH2 0x2661 DUP6 DUP3 DUP7 ADD PUSH2 0x23AA JUMP JUMPDEST SWAP3 POP POP PUSH1 0x20 PUSH2 0x2672 DUP6 DUP3 DUP7 ADD PUSH2 0x23AA JUMP JUMPDEST SWAP2 POP POP SWAP3 POP SWAP3 SWAP1 POP JUMP JUMPDEST PUSH1 0x0 PUSH2 0x2688 DUP4 DUP4 PUSH2 0x29E2 JUMP JUMPDEST PUSH1 0x20 DUP4 ADD SWAP1 POP SWAP3 SWAP2 POP POP JUMP JUMPDEST PUSH2 0x269D DUP2 PUSH2 0x2E09 JUMP JUMPDEST DUP3 MSTORE POP POP JUMP JUMPDEST PUSH1 0x0 PUSH2 0x26AE DUP3 PUSH2 0x2D68 JUMP JUMPDEST PUSH2 0x26B8 DUP2 DUP6 PUSH2 0x2D80 JUMP JUMPDEST SWAP4 POP PUSH2 0x26C3 DUP4 PUSH2 0x2D58 JUMP JUMPDEST DUP1 PUSH1 0x0 JUMPDEST DUP4 DUP2 LT ISZERO PUSH2 0x26F4 JUMPI DUP2 MLOAD PUSH2 0x26DB DUP9 DUP3 PUSH2 0x267C JUMP JUMPDEST SWAP8 POP PUSH2 0x26E6 DUP4 PUSH2 0x2D73 JUMP JUMPDEST SWAP3 POP POP PUSH1 0x1 DUP2 ADD SWAP1 POP PUSH2 0x26C7 JUMP JUMPDEST POP DUP6 SWAP4 POP POP POP POP SWAP3 SWAP2 POP POP JUMP JUMPDEST PUSH1 0x0 PUSH2 0x270C DUP3 PUSH2 0x2D68 JUMP JUMPDEST PUSH2 0x2716 DUP2 DUP6 PUSH2 0x2D91 JUMP JUMPDEST SWAP4 POP PUSH2 0x2721 DUP4 PUSH2 0x2D58 JUMP JUMPDEST DUP1 PUSH1 0x0 JUMPDEST DUP4 DUP2 LT ISZERO PUSH2 0x2752 JUMPI DUP2 MLOAD PUSH2 0x2739 DUP9 DUP3 PUSH2 0x267C JUMP JUMPDEST SWAP8 POP PUSH2 0x2744 DUP4 PUSH2 0x2D73 JUMP JUMPDEST SWAP3 POP POP PUSH1 0x1 DUP2 ADD SWAP1 POP PUSH2 0x2725 JUMP JUMPDEST POP DUP6 SWAP4 POP POP POP POP SWAP3 SWAP2 POP POP JUMP JUMPDEST PUSH2 0x2768 DUP2 PUSH2 0x2E1B JUMP JUMPDEST DUP3 MSTORE POP POP JUMP JUMPDEST PUSH1 0x0 PUSH2 0x277B PUSH1 0x2C DUP4 PUSH2 0x2DA2 JUMP JUMPDEST SWAP2 POP PUSH2 0x2786 DUP3 PUSH2 0x2FB6 JUMP JUMPDEST PUSH1 0x40 DUP3 ADD SWAP1 POP SWAP2 SWAP1 POP JUMP JUMPDEST PUSH1 0x0 PUSH2 0x279E PUSH1 0x1B DUP4 PUSH2 0x2DA2 JUMP JUMPDEST SWAP2 POP PUSH2 0x27A9 DUP3 PUSH2 0x3005 JUMP JUMPDEST PUSH1 0x20 DUP3 ADD SWAP1 POP SWAP2 SWAP1 POP JUMP JUMPDEST PUSH1 0x0 PUSH2 0x27C1 PUSH1 0x2C DUP4 PUSH2 0x2DA2 JUMP JUMPDEST SWAP2 POP PUSH2 0x27CC DUP3 PUSH2 0x302E JUMP JUMPDEST PUSH1 0x40 DUP3 ADD SWAP1 POP SWAP2 SWAP1 POP JUMP JUMPDEST PUSH1 0x0 PUSH2 0x27E4 PUSH1 0x37 DUP4 PUSH2 0x2DA2 JUMP JUMPDEST SWAP2 POP PUSH2 0x27EF DUP3 PUSH2 0x307D JUMP JUMPDEST PUSH1 0x40 DUP3 ADD SWAP1 POP SWAP2 SWAP1 POP JUMP JUMPDEST PUSH1 0x0 PUSH2 0x2807 PUSH1 0x24 DUP4 PUSH2 0x2DA2 JUMP JUMPDEST SWAP2 POP PUSH2 0x2812 DUP3 PUSH2 0x30CC JUMP JUMPDEST PUSH1 0x40 DUP3 ADD SWAP1 POP SWAP2 SWAP1 POP JUMP JUMPDEST PUSH1 0x0 PUSH2 0x282A PUSH1 0x3A DUP4 PUSH2 0x2DA2 JUMP JUMPDEST SWAP2 POP PUSH2 0x2835 DUP3 PUSH2 0x311B JUMP JUMPDEST PUSH1 0x40 DUP3 ADD SWAP1 POP SWAP2 SWAP1 POP JUMP JUMPDEST PUSH1 0x0 PUSH2 0x284D PUSH1 0x33 DUP4 PUSH2 0x2DA2 JUMP JUMPDEST SWAP2 POP PUSH2 0x2858 DUP3 PUSH2 0x316A JUMP JUMPDEST PUSH1 0x40 DUP3 ADD SWAP1 POP SWAP2 SWAP1 POP JUMP JUMPDEST PUSH1 0x0 PUSH2 0x2870 PUSH1 0x34 DUP4 PUSH2 0x2DA2 JUMP JUMPDEST SWAP2 POP PUSH2 0x287B DUP3 PUSH2 0x31B9 JUMP JUMPDEST PUSH1 0x40 DUP3 ADD SWAP1 POP SWAP2 SWAP1 POP JUMP JUMPDEST PUSH1 0x0 PUSH2 0x2893 PUSH1 0x3C DUP4 PUSH2 0x2DA2 JUMP JUMPDEST SWAP2 POP PUSH2 0x289E DUP3 PUSH2 0x3208 JUMP JUMPDEST PUSH1 0x40 DUP3 ADD SWAP1 POP SWAP2 SWAP1 POP JUMP JUMPDEST PUSH1 0x0 PUSH2 0x28B6 PUSH1 0x1F DUP4 PUSH2 0x2DA2 JUMP JUMPDEST SWAP2 POP PUSH2 0x28C1 DUP3 PUSH2 0x3257 JUMP JUMPDEST PUSH1 0x20 DUP3 ADD SWAP1 POP SWAP2 SWAP1 POP JUMP JUMPDEST PUSH1 0x0 PUSH2 0x28D9 PUSH1 0x2D DUP4 PUSH2 0x2DA2 JUMP JUMPDEST SWAP2 POP PUSH2 0x28E4 DUP3 PUSH2 0x3280 JUMP JUMPDEST PUSH1 0x40 DUP3 ADD SWAP1 POP SWAP2 SWAP1 POP JUMP JUMPDEST PUSH1 0x0 PUSH2 0x28FC PUSH1 0x2B DUP4 PUSH2 0x2DA2 JUMP JUMPDEST SWAP2 POP PUSH2 0x2907 DUP3 PUSH2 0x32CF JUMP JUMPDEST PUSH1 0x40 DUP3 ADD SWAP1 POP SWAP2 SWAP1 POP JUMP JUMPDEST PUSH1 0x0 PUSH2 0x291F PUSH1 0x24 DUP4 PUSH2 0x2DA2 JUMP JUMPDEST SWAP2 POP PUSH2 0x292A DUP3 PUSH2 0x331E JUMP JUMPDEST PUSH1 0x40 DUP3 ADD SWAP1 POP SWAP2 SWAP1 POP JUMP JUMPDEST PUSH1 0x0 PUSH2 0x2942 PUSH1 0x13 DUP4 PUSH2 0x2DA2 JUMP JUMPDEST SWAP2 POP PUSH2 0x294D DUP3 PUSH2 0x336D JUMP JUMPDEST PUSH1 0x20 DUP3 ADD SWAP1 POP SWAP2 SWAP1 POP JUMP JUMPDEST PUSH1 0x0 PUSH2 0x2965 PUSH1 0x21 DUP4 PUSH2 0x2DA2 JUMP JUMPDEST SWAP2 POP PUSH2 0x2970 DUP3 PUSH2 0x3396 JUMP JUMPDEST PUSH1 0x40 DUP3 ADD SWAP1 POP SWAP2 SWAP1 POP JUMP JUMPDEST PUSH1 0x0 PUSH2 0x2988 PUSH1 0x2F DUP4 PUSH2 0x2DA2 JUMP JUMPDEST SWAP2 POP PUSH2 0x2993 DUP3 PUSH2 0x33E5 JUMP JUMPDEST PUSH1 0x40 DUP3 ADD SWAP1 POP SWAP2 SWAP1 POP JUMP JUMPDEST PUSH1 0x0 PUSH1 0x40 DUP4 ADD PUSH1 0x0 DUP4 ADD MLOAD DUP5 DUP3 SUB PUSH1 0x0 DUP7 ADD MSTORE PUSH2 0x29BB DUP3 DUP3 PUSH2 0x26A3 JUMP JUMPDEST SWAP2 POP POP PUSH1 0x20 DUP4 ADD MLOAD DUP5 DUP3 SUB PUSH1 0x20 DUP7 ADD MSTORE PUSH2 0x29D5 DUP3 DUP3 PUSH2 0x26A3 JUMP JUMPDEST SWAP2 POP POP DUP1 SWAP2 POP POP SWAP3 SWAP2 POP POP JUMP JUMPDEST PUSH2 0x29EB DUP2 PUSH2 0x2E47 JUMP JUMPDEST DUP3 MSTORE POP POP JUMP JUMPDEST PUSH2 0x29FA DUP2 PUSH2 0x2E47 JUMP JUMPDEST DUP3 MSTORE POP POP JUMP JUMPDEST PUSH1 0x0 PUSH1 0x20 DUP3 ADD SWAP1 POP PUSH2 0x2A15 PUSH1 0x0 DUP4 ADD DUP5 PUSH2 0x2694 JUMP JUMPDEST SWAP3 SWAP2 POP POP JUMP JUMPDEST PUSH1 0x0 PUSH1 0x20 DUP3 ADD SWAP1 POP DUP2 DUP2 SUB PUSH1 0x0 DUP4 ADD MSTORE PUSH2 0x2A35 DUP2 DUP5 PUSH2 0x2701 JUMP JUMPDEST SWAP1 POP SWAP3 SWAP2 POP POP JUMP JUMPDEST PUSH1 0x0 PUSH1 0x20 DUP3 ADD SWAP1 POP PUSH2 0x2A52 PUSH1 0x0 DUP4 ADD DUP5 PUSH2 0x275F JUMP JUMPDEST SWAP3 SWAP2 POP POP JUMP JUMPDEST PUSH1 0x0 PUSH1 0x20 DUP3 ADD SWAP1 POP DUP2 DUP2 SUB PUSH1 0x0 DUP4 ADD MSTORE PUSH2 0x2A71 DUP2 PUSH2 0x276E JUMP JUMPDEST SWAP1 POP SWAP2 SWAP1 POP JUMP JUMPDEST PUSH1 0x0 PUSH1 0x20 DUP3 ADD SWAP1 POP DUP2 DUP2 SUB PUSH1 0x0 DUP4 ADD MSTORE PUSH2 0x2A91 DUP2 PUSH2 0x2791 JUMP JUMPDEST SWAP1 POP SWAP2 SWAP1 POP JUMP JUMPDEST PUSH1 0x0 PUSH1 0x20 DUP3 ADD SWAP1 POP DUP2 DUP2 SUB PUSH1 0x0 DUP4 ADD MSTORE PUSH2 0x2AB1 DUP2 PUSH2 0x27B4 JUMP JUMPDEST SWAP1 POP SWAP2 SWAP1 POP JUMP JUMPDEST PUSH1 0x0 PUSH1 0x20 DUP3 ADD SWAP1 POP DUP2 DUP2 SUB PUSH1 0x0 DUP4 ADD MSTORE PUSH2 0x2AD1 DUP2 PUSH2 0x27D7 JUMP JUMPDEST SWAP1 POP SWAP2 SWAP1 POP JUMP JUMPDEST PUSH1 0x0 PUSH1 0x20 DUP3 ADD SWAP1 POP DUP2 DUP2 SUB PUSH1 0x0 DUP4 ADD MSTORE PUSH2 0x2AF1 DUP2 PUSH2 0x27FA JUMP JUMPDEST SWAP1 POP SWAP2 SWAP1 POP JUMP JUMPDEST PUSH1 0x0 PUSH1 0x20 DUP3 ADD SWAP1 POP DUP2 DUP2 SUB PUSH1 0x0 DUP4 ADD MSTORE PUSH2 0x2B11 DUP2 PUSH2 0x281D JUMP JUMPDEST SWAP1 POP SWAP2 SWAP1 POP JUMP JUMPDEST PUSH1 0x0 PUSH1 0x20 DUP3 ADD SWAP1 POP DUP2 DUP2 SUB PUSH1 0x0 DUP4 ADD MSTORE PUSH2 0x2B31 DUP2 PUSH2 0x2840 JUMP JUMPDEST SWAP1 POP SWAP2 SWAP1 POP JUMP JUMPDEST PUSH1 0x0 PUSH1 0x20 DUP3 ADD SWAP1 POP DUP2 DUP2 SUB PUSH1 0x0 DUP4 ADD MSTORE PUSH2 0x2B51 DUP2 PUSH2 0x2863 JUMP JUMPDEST SWAP1 POP SWAP2 SWAP1 POP JUMP JUMPDEST PUSH1 0x0 PUSH1 0x20 DUP3 ADD SWAP1 POP DUP2 DUP2 SUB PUSH1 0x0 DUP4 ADD MSTORE PUSH2 0x2B71 DUP2 PUSH2 0x2886 JUMP JUMPDEST SWAP1 POP SWAP2 SWAP1 POP JUMP JUMPDEST PUSH1 0x0 PUSH1 0x20 DUP3 ADD SWAP1 POP DUP2 DUP2 SUB PUSH1 0x0 DUP4 ADD MSTORE PUSH2 0x2B91 DUP2 PUSH2 0x28A9 JUMP JUMPDEST SWAP1 POP SWAP2 SWAP1 POP JUMP JUMPDEST PUSH1 0x0 PUSH1 0x20 DUP3 ADD SWAP1 POP DUP2 DUP2 SUB PUSH1 0x0 DUP4 ADD MSTORE PUSH2 0x2BB1 DUP2 PUSH2 0x28CC JUMP JUMPDEST SWAP1 POP SWAP2 SWAP1 POP JUMP JUMPDEST PUSH1 0x0 PUSH1 0x20 DUP3 ADD SWAP1 POP DUP2 DUP2 SUB PUSH1 0x0 DUP4 ADD MSTORE PUSH2 0x2BD1 DUP2 PUSH2 0x28EF JUMP JUMPDEST SWAP1 POP SWAP2 SWAP1 POP JUMP JUMPDEST PUSH1 0x0 PUSH1 0x20 DUP3 ADD SWAP1 POP DUP2 DUP2 SUB PUSH1 0x0 DUP4 ADD MSTORE PUSH2 0x2BF1 DUP2 PUSH2 0x2912 JUMP JUMPDEST SWAP1 POP SWAP2 SWAP1 POP JUMP JUMPDEST PUSH1 0x0 PUSH1 0x20 DUP3 ADD SWAP1 POP DUP2 DUP2 SUB PUSH1 0x0 DUP4 ADD MSTORE PUSH2 0x2C11 DUP2 PUSH2 0x2935 JUMP JUMPDEST SWAP1 POP SWAP2 SWAP1 POP JUMP JUMPDEST PUSH1 0x0 PUSH1 0x20 DUP3 ADD SWAP1 POP DUP2 DUP2 SUB PUSH1 0x0 DUP4 ADD MSTORE PUSH2 0x2C31 DUP2 PUSH2 0x2958 JUMP JUMPDEST SWAP1 POP SWAP2 SWAP1 POP JUMP JUMPDEST PUSH1 0x0 PUSH1 0x20 DUP3 ADD SWAP1 POP DUP2 DUP2 SUB PUSH1 0x0 DUP4 ADD MSTORE PUSH2 0x2C51 DUP2 PUSH2 0x297B JUMP JUMPDEST SWAP1 POP SWAP2 SWAP1 POP JUMP JUMPDEST PUSH1 0x0 PUSH1 0x20 DUP3 ADD SWAP1 POP DUP2 DUP2 SUB PUSH1 0x0 DUP4 ADD MSTORE PUSH2 0x2C72 DUP2 DUP5 PUSH2 0x299E JUMP JUMPDEST SWAP1 POP SWAP3 SWAP2 POP POP JUMP JUMPDEST PUSH1 0x0 PUSH1 0x20 DUP3 ADD SWAP1 POP PUSH2 0x2C8F PUSH1 0x0 DUP4 ADD DUP5 PUSH2 0x29F1 JUMP JUMPDEST SWAP3 SWAP2 POP POP JUMP JUMPDEST PUSH1 0x0 PUSH1 0x80 DUP3 ADD SWAP1 POP PUSH2 0x2CAA PUSH1 0x0 DUP4 ADD DUP8 PUSH2 0x29F1 JUMP JUMPDEST PUSH2 0x2CB7 PUSH1 0x20 DUP4 ADD DUP7 PUSH2 0x29F1 JUMP JUMPDEST PUSH2 0x2CC4 PUSH1 0x40 DUP4 ADD DUP6 PUSH2 0x275F JUMP JUMPDEST DUP2 DUP2 SUB PUSH1 0x60 DUP4 ADD MSTORE PUSH2 0x2CD6 DUP2 DUP5 PUSH2 0x299E JUMP JUMPDEST SWAP1 POP SWAP6 SWAP5 POP POP POP POP POP JUMP JUMPDEST PUSH1 0x0 PUSH2 0x2CEB PUSH2 0x2CFC JUMP JUMPDEST SWAP1 POP PUSH2 0x2CF7 DUP3 DUP3 PUSH2 0x2E51 JUMP JUMPDEST SWAP2 SWAP1 POP JUMP JUMPDEST PUSH1 0x0 PUSH1 0x40 MLOAD SWAP1 POP SWAP1 JUMP JUMPDEST PUSH1 0x0 PUSH8 0xFFFFFFFFFFFFFFFF DUP3 GT ISZERO PUSH2 0x2D21 JUMPI PUSH2 0x2D20 PUSH2 0x2F58 JUMP JUMPDEST JUMPDEST PUSH1 0x20 DUP3 MUL SWAP1 POP SWAP2 SWAP1 POP JUMP JUMPDEST PUSH1 0x0 PUSH8 0xFFFFFFFFFFFFFFFF DUP3 GT ISZERO PUSH2 0x2D47 JUMPI PUSH2 0x2D46 PUSH2 0x2F58 JUMP JUMPDEST JUMPDEST PUSH1 0x20 DUP3 MUL SWAP1 POP PUSH1 0x20 DUP2 ADD SWAP1 POP SWAP2 SWAP1 POP JUMP JUMPDEST PUSH1 0x0 DUP2 SWAP1 POP PUSH1 0x20 DUP3 ADD SWAP1 POP SWAP2 SWAP1 POP JUMP JUMPDEST PUSH1 0x0 DUP2 MLOAD SWAP1 POP SWAP2 SWAP1 POP JUMP JUMPDEST PUSH1 0x0 PUSH1 0x20 DUP3 ADD SWAP1 POP SWAP2 SWAP1 POP JUMP JUMPDEST PUSH1 0x0 DUP3 DUP3 MSTORE PUSH1 0x20 DUP3 ADD SWAP1 POP SWAP3 SWAP2 POP POP JUMP JUMPDEST PUSH1 0x0 DUP3 DUP3 MSTORE PUSH1 0x20 DUP3 ADD SWAP1 POP SWAP3 SWAP2 POP POP JUMP JUMPDEST PUSH1 0x0 DUP3 DUP3 MSTORE PUSH1 0x20 DUP3 ADD SWAP1 POP SWAP3 SWAP2 POP POP JUMP JUMPDEST PUSH1 0x0 PUSH2 0x2DBE DUP3 PUSH2 0x2E47 JUMP JUMPDEST SWAP2 POP PUSH2 0x2DC9 DUP4 PUSH2 0x2E47 JUMP JUMPDEST SWAP3 POP DUP3 PUSH32 0xFFFFFFFFFFFFFFFFFFFFFFFFFFFFFFFFFFFFFFFFFFFFFFFFFFFFFFFFFFFFFFFF SUB DUP3 GT ISZERO PUSH2 0x2DFE JUMPI PUSH2 0x2DFD PUSH2 0x2ECB JUMP JUMPDEST JUMPDEST DUP3 DUP3 ADD SWAP1 POP SWAP3 SWAP2 POP POP JUMP JUMPDEST PUSH1 0x0 PUSH2 0x2E14 DUP3 PUSH2 0x2E27 JUMP JUMPDEST SWAP1 POP SWAP2 SWAP1 POP JUMP JUMPDEST PUSH1 0x0 DUP2 ISZERO ISZERO SWAP1 POP SWAP2 SWAP1 POP JUMP JUMPDEST PUSH1 0x0 PUSH20 0xFFFFFFFFFFFFFFFFFFFFFFFFFFFFFFFFFFFFFFFF DUP3 AND SWAP1 POP SWAP2 SWAP1 POP JUMP JUMPDEST PUSH1 0x0 DUP2 SWAP1 POP SWAP2 SWAP1 POP JUMP JUMPDEST PUSH2 0x2E5A DUP3 PUSH2 0x2FA5 JUMP JUMPDEST DUP2 ADD DUP2 DUP2 LT PUSH8 0xFFFFFFFFFFFFFFFF DUP3 GT OR ISZERO PUSH2 0x2E79 JUMPI PUSH2 0x2E78 PUSH2 0x2F58 JUMP JUMPDEST JUMPDEST DUP1 PUSH1 0x40 MSTORE POP POP POP JUMP JUMPDEST PUSH1 0x0 PUSH2 0x2E8D DUP3 PUSH2 0x2E47 JUMP JUMPDEST SWAP2 POP PUSH32 0xFFFFFFFFFFFFFFFFFFFFFFFFFFFFFFFFFFFFFFFFFFFFFFFFFFFFFFFFFFFFFFFF DUP3 EQ ISZERO PUSH2 0x2EC0 JUMPI PUSH2 0x2EBF PUSH2 0x2ECB JUMP JUMPDEST JUMPDEST PUSH1 0x1 DUP3 ADD SWAP1 POP SWAP2 SWAP1 POP JUMP JUMPDEST PUSH32 0x4E487B7100000000000000000000000000000000000000000000000000000000 PUSH1 0x0 MSTORE PUSH1 0x11 PUSH1 0x4 MSTORE PUSH1 0x24 PUSH1 0x0 REVERT JUMPDEST PUSH32 0x4E487B7100000000000000000000000000000000000000000000000000000000 PUSH1 0x0 MSTORE PUSH1 0x31 PUSH1 0x4 MSTORE PUSH1 0x24 PUSH1 0x0 REVERT JUMPDEST PUSH32 0x4E487B7100000000000000000000000000000000000000000000000000000000 PUSH1 0x0 MSTORE PUSH1 0x32 PUSH1 0x4 MSTORE PUSH1 0x24 PUSH1 0x0 REVERT JUMPDEST PUSH32 0x4E487B7100000000000000000000000000000000000000000000000000000000 PUSH1 0x0 MSTORE PUSH1 0x41 PUSH1 0x4 MSTORE PUSH1 0x24 PUSH1 0x0 REVERT JUMPDEST PUSH1 0x0 DUP1 REVERT JUMPDEST PUSH1 0x0 DUP1 REVERT JUMPDEST PUSH1 0x0 DUP1 REVERT JUMPDEST PUSH1 0x0 DUP1 REVERT JUMPDEST PUSH1 0x0 DUP1 REVERT JUMPDEST PUSH1 0x0 DUP1 REVERT JUMPDEST PUSH1 0x0 PUSH1 0x1F NOT PUSH1 0x1F DUP4 ADD AND SWAP1 POP SWAP2 SWAP1 POP JUMP JUMPDEST PUSH32 0x54686520746F6B656E206973206E6F7420612072656769737465726564204552 PUSH1 0x0 DUP3 ADD MSTORE PUSH32 0x43203131353520746F6B656E0000000000000000000000000000000000000000 PUSH1 0x20 DUP3 ADD MSTORE POP JUMP JUMPDEST PUSH32 0x54686520746F6B656E2049442063616E6E6F74206265207A65726F0000000000 PUSH1 0x0 DUP3 ADD MSTORE POP JUMP JUMPDEST PUSH32 0x546F6B656E49442063616E6E6F74206265206120737562736574206F66207061 PUSH1 0x0 DUP3 ADD MSTORE PUSH32 0x72656E74546F6B656E4944730000000000000000000000000000000000000000 PUSH1 0x20 DUP3 ADD MSTORE POP JUMP JUMPDEST PUSH32 0x546865206C656E677468206F6620706172656E742049647320616E6420776569 PUSH1 0x0 DUP3 ADD MSTORE PUSH32 0x676874732073686F756C64206265207468652073616D65000000000000000000 PUSH1 0x20 DUP3 ADD MSTORE POP JUMP JUMPDEST PUSH32 0x4572726F723A20616E206772617068206C6F6F702077696C6C20626520637265 PUSH1 0x0 DUP3 ADD MSTORE PUSH32 0x6174656400000000000000000000000000000000000000000000000000000000 PUSH1 0x20 DUP3 ADD MSTORE POP JUMP JUMPDEST PUSH32 0x4120706172656E7420494420697320626C61636B6C697374656420736F207468 PUSH1 0x0 DUP3 ADD MSTORE PUSH32 0x69732070726F636573732063616E6E6F7420636F6E74696E7565000000000000 PUSH1 0x20 DUP3 ADD MSTORE POP JUMP JUMPDEST PUSH32 0x412076616C756520796F752061726520696E70757474696E6720696E64696361 PUSH1 0x0 DUP3 ADD MSTORE PUSH32 0x746573206120627265616B206F66207365742E00000000000000000000000000 PUSH1 0x20 DUP3 ADD MSTORE POP JUMP JUMPDEST PUSH32 0x4120706172656E7420696420646F6573206E6F7420636F6F7265736F6E642074 PUSH1 0x0 DUP3 ADD MSTORE PUSH32 0x6F2074686520636F727265637420776569676874000000000000000000000000 PUSH1 0x20 DUP3 ADD MSTORE POP JUMP JUMPDEST PUSH32 0x4572726F723A204564676520636F6E6E656374696F6E20796F75206172652074 PUSH1 0x0 DUP3 ADD MSTORE PUSH32 0x7279696E6720746F2061646420616C6C72656164792065786973747300000000 PUSH1 0x20 DUP3 ADD MSTORE POP JUMP JUMPDEST PUSH32 0x494420686173206E6F74206265656E20616464656420746F2067726170682E00 PUSH1 0x0 DUP3 ADD MSTORE POP JUMP JUMPDEST PUSH32 0x4120706172656E7420746F6B656E20494420686173206E6F74206265656E2061 PUSH1 0x0 DUP3 ADD MSTORE PUSH32 0x6464656420746F20677261706800000000000000000000000000000000000000 PUSH1 0x20 DUP3 ADD MSTORE POP JUMP JUMPDEST PUSH32 0x706172656E7420746F6B656E20494420686173206E6F74206265656E20616464 PUSH1 0x0 DUP3 ADD MSTORE PUSH32 0x656420746F206772617068000000000000000000000000000000000000000000 PUSH1 0x20 DUP3 ADD MSTORE POP JUMP JUMPDEST PUSH32 0x49442068617320616C6C7265616479206265656E20616464656420746F206772 PUSH1 0x0 DUP3 ADD MSTORE PUSH32 0x6170682E00000000000000000000000000000000000000000000000000000000 PUSH1 0x20 DUP3 ADD MSTORE POP JUMP JUMPDEST PUSH32 0x55736572206D7573742062652061646D696E2E00000000000000000000000000 PUSH1 0x0 DUP3 ADD MSTORE POP JUMP JUMPDEST PUSH32 0x54686520746F6B656E204944206F66206120706172656E74206973207A65726F PUSH1 0x0 DUP3 ADD MSTORE PUSH32 0x2E00000000000000000000000000000000000000000000000000000000000000 PUSH1 0x20 DUP3 ADD MSTORE POP JUMP JUMPDEST PUSH32 0x4120706172656E7420746F6B656E206973206E6F742061207265676973746564 PUSH1 0x0 DUP3 ADD MSTORE PUSH32 0x20455243203131353520746F6B656E0000000000000000000000000000000000 PUSH1 0x20 DUP3 ADD MSTORE POP JUMP JUMPDEST PUSH2 0x343D DUP2 PUSH2 0x2E1B JUMP JUMPDEST DUP2 EQ PUSH2 0x3448 JUMPI PUSH1 0x0 DUP1 REVERT JUMPDEST POP JUMP JUMPDEST PUSH2 0x3454 DUP2 PUSH2 0x2E47 JUMP JUMPDEST DUP2 EQ PUSH2 0x345F JUMPI PUSH1 0x0 DUP1 REVERT JUMPDEST POP JUMP INVALID LOG2 PUSH5 0x6970667358 0x22 SLT KECCAK256 DUP4 0xB4 SELFDESTRUCT PUSH1 0xF7 SWAP13 SSTORE JUMP SAR JUMPDEST RETURNDATASIZE 0xEF MSTORE GASLIMIT PUSH10 0x108C41691247A9A2F74B 0xA6 JUMP PUSH28 0xA0D6F7BE64736F6C6343000806003300000000000000000000000000 "
        },
        "methodIdentifiers": {
          "_idToTokenStruct(uint256)": "89e0496f",
          "add(uint256,uint256)": "771602f7",
          "bfsTraversal(uint256)": "aca382a0",
          "blacklistToken(uint256,bool)": "ce8b4afd",
          "changeTokenWeight(uint256,uint256)": "076fcc1f",
          "clearSet(uint256)": "d8be1fd4",
          "dequeue()": "957908d1",
          "edgeCount()": "ee8a9fd6",
          "edgeTo(uint256)": "e8ca8c3e",
          "edgeWeights(uint256)": "c9557449",
          "enqueue(uint256)": "1ffc735d",
          "getAdmin()": "6e9960c3",
          "getTokenRegisteredCount()": "5ee3c588",
          "getTotalEdgeCount()": "a9138861",
          "insertEdges(uint256[],uint256[],uint256)": "beae4942",
          "insertToken(uint256[],uint256[],uint256,uint256)": "866fe41a",
          "isSubset(uint256,uint256[])": "6cf61127",
          "isSubsetSpecialMemory(uint256,uint256[512])": "18182eaa",
          "makeERC1155ForTesting()": "d7753a65",
          "returnEdge(uint256)": "94b90830",
          "returnId((uint256,uint256,bool,(uint256[],uint256[])))": "a6c7c955",
          "returnIsBlacklisted(uint256)": "981ad468",
          "returnTime(uint256)": "0b8e12fc",
          "returnTokenWeight(uint256)": "16b407a8",
          "sortByTime(uint256)": "b0f555ae",
          "tokenCount()": "9f181b5e",
          "tokenExists(uint256)": "00923f9e"
        }
      }
    }
  }
}