{
  "contracts/copyrightMaster.sol": {
    "copyrightGraph": {
      "abi": [
        {
          "inputs": [],
          "stateMutability": "nonpayable",
          "type": "constructor"
        },
        {
          "anonymous": false,
          "inputs": [
            {
              "components": [
                {
                  "internalType": "uint256",
                  "name": "weight",
                  "type": "uint256"
                },
                {
                  "internalType": "uint256",
                  "name": "timeStamp",
                  "type": "uint256"
                },
                {
                  "internalType": "bool",
                  "name": "isBlacklisted",
                  "type": "bool"
                },
                {
                  "components": [
                    {
                      "internalType": "uint256",
                      "name": "to",
                      "type": "uint256"
                    },
                    {
                      "internalType": "uint256",
                      "name": "weight",
                      "type": "uint256"
                    }
                  ],
                  "internalType": "struct ICopyrightMaster.Edge[]",
                  "name": "edge",
                  "type": "tuple[]"
                }
              ],
              "indexed": false,
              "internalType": "struct ICopyrightMaster.Token",
              "name": "token",
              "type": "tuple"
            }
          ],
          "name": "AddTokenToGraph",
          "type": "event"
        },
        {
          "anonymous": false,
          "inputs": [
            {
              "indexed": false,
              "internalType": "uint256",
              "name": "id",
              "type": "uint256"
            },
            {
              "indexed": false,
              "internalType": "uint256",
              "name": "newWeight",
              "type": "uint256"
            }
          ],
          "name": "ChangeTokenWeight",
          "type": "event"
        },
        {
          "anonymous": false,
          "inputs": [
            {
              "indexed": false,
              "internalType": "uint256",
              "name": "id",
              "type": "uint256"
            },
            {
              "indexed": false,
              "internalType": "bool",
              "name": "isBlacklisted",
              "type": "bool"
            }
          ],
          "name": "TokenBlacklisted",
          "type": "event"
        },
        {
          "inputs": [
            {
              "internalType": "uint256",
              "name": "",
              "type": "uint256"
            }
          ],
          "name": "_idToTokenStruct",
          "outputs": [
            {
              "internalType": "uint256",
              "name": "weight",
              "type": "uint256"
            },
            {
              "internalType": "uint256",
              "name": "timeStamp",
              "type": "uint256"
            },
            {
              "internalType": "bool",
              "name": "isBlacklisted",
              "type": "bool"
            }
          ],
          "stateMutability": "view",
          "type": "function"
        },
        {
          "inputs": [
            {
              "internalType": "uint256",
              "name": "id",
              "type": "uint256"
            },
            {
              "internalType": "uint256",
              "name": "addToSet",
              "type": "uint256"
            }
          ],
          "name": "add",
          "outputs": [],
          "stateMutability": "nonpayable",
          "type": "function"
        },
        {
          "inputs": [
            {
              "internalType": "uint256",
              "name": "id",
              "type": "uint256"
            }
          ],
          "name": "bfsTraversal",
          "outputs": [],
          "stateMutability": "nonpayable",
          "type": "function"
        },
        {
          "inputs": [
            {
              "internalType": "uint256",
              "name": "id",
              "type": "uint256"
            },
            {
              "internalType": "bool",
              "name": "isBlacklisted",
              "type": "bool"
            }
          ],
          "name": "blacklistToken",
          "outputs": [],
          "stateMutability": "nonpayable",
          "type": "function"
        },
        {
          "inputs": [
            {
              "internalType": "uint256",
              "name": "id",
              "type": "uint256"
            },
            {
              "internalType": "uint256",
              "name": "newWeight",
              "type": "uint256"
            }
          ],
          "name": "changeTokenWeight",
          "outputs": [],
          "stateMutability": "nonpayable",
          "type": "function"
        },
        {
          "inputs": [
            {
              "internalType": "uint256",
              "name": "id",
              "type": "uint256"
            }
          ],
          "name": "clearSet",
          "outputs": [],
          "stateMutability": "nonpayable",
          "type": "function"
        },
        {
          "inputs": [],
          "name": "dequeue",
          "outputs": [
            {
              "internalType": "uint256",
              "name": "id",
              "type": "uint256"
            }
          ],
          "stateMutability": "nonpayable",
          "type": "function"
        },
        {
          "inputs": [
            {
              "internalType": "uint256",
              "name": "id",
              "type": "uint256"
            }
          ],
          "name": "enqueue",
          "outputs": [],
          "stateMutability": "nonpayable",
          "type": "function"
        },
        {
          "inputs": [],
          "name": "getAdmin",
          "outputs": [
            {
              "internalType": "address",
              "name": "",
              "type": "address"
            }
          ],
          "stateMutability": "view",
          "type": "function"
        },
        {
          "inputs": [],
          "name": "getTokenRegisteredCount",
          "outputs": [
            {
              "internalType": "uint256",
              "name": "",
              "type": "uint256"
            }
          ],
          "stateMutability": "view",
          "type": "function"
        },
        {
          "inputs": [],
          "name": "getTotalEdgeCount",
          "outputs": [
            {
              "internalType": "uint256",
              "name": "",
              "type": "uint256"
            }
          ],
          "stateMutability": "view",
          "type": "function"
        },
        {
          "inputs": [
            {
              "internalType": "uint256[]",
              "name": "parentIds",
              "type": "uint256[]"
            },
            {
              "internalType": "uint256[]",
              "name": "parentWeights",
              "type": "uint256[]"
            },
            {
              "internalType": "uint256",
              "name": "id",
              "type": "uint256"
            }
          ],
          "name": "insertEdges",
          "outputs": [],
          "stateMutability": "nonpayable",
          "type": "function"
        },
        {
          "inputs": [
            {
              "internalType": "uint256[]",
              "name": "parentIds",
              "type": "uint256[]"
            },
            {
              "internalType": "uint256[]",
              "name": "parentWeights",
              "type": "uint256[]"
            },
            {
              "internalType": "uint256",
              "name": "id",
              "type": "uint256"
            },
            {
              "internalType": "uint256",
              "name": "weight",
              "type": "uint256"
            }
          ],
          "name": "insertToken",
          "outputs": [],
          "stateMutability": "nonpayable",
          "type": "function"
        },
        {
          "inputs": [
            {
              "internalType": "uint256",
              "name": "id",
              "type": "uint256"
            },
            {
              "internalType": "uint256[]",
              "name": "parentTokenIds",
              "type": "uint256[]"
            }
          ],
          "name": "isSubset",
          "outputs": [
            {
              "internalType": "bool",
              "name": "",
              "type": "bool"
            }
          ],
          "stateMutability": "pure",
          "type": "function"
        },
        {
          "inputs": [
            {
              "internalType": "uint256",
              "name": "id",
              "type": "uint256"
            },
            {
              "internalType": "uint256[512]",
              "name": "parentTokenIds",
              "type": "uint256[512]"
            }
          ],
          "name": "isSubsetSpecialMemory",
          "outputs": [
            {
              "internalType": "bool",
              "name": "",
              "type": "bool"
            }
          ],
          "stateMutability": "pure",
          "type": "function"
        },
        {
          "inputs": [],
          "name": "makeERC1155ForTesting",
          "outputs": [],
          "stateMutability": "nonpayable",
          "type": "function"
        },
        {
          "inputs": [
            {
              "components": [
                {
                  "internalType": "uint256",
                  "name": "weight",
                  "type": "uint256"
                },
                {
                  "internalType": "uint256",
                  "name": "timeStamp",
                  "type": "uint256"
                },
                {
                  "internalType": "bool",
                  "name": "isBlacklisted",
                  "type": "bool"
                },
                {
                  "components": [
                    {
                      "internalType": "uint256",
                      "name": "to",
                      "type": "uint256"
                    },
                    {
                      "internalType": "uint256",
                      "name": "weight",
                      "type": "uint256"
                    }
                  ],
                  "internalType": "struct ICopyrightMaster.Edge[]",
                  "name": "edge",
                  "type": "tuple[]"
                }
              ],
              "internalType": "struct ICopyrightMaster.Token",
              "name": "token",
              "type": "tuple"
            }
          ],
          "name": "returnId",
          "outputs": [
            {
              "internalType": "uint256",
              "name": "id",
              "type": "uint256"
            }
          ],
          "stateMutability": "pure",
          "type": "function"
        },
        {
          "inputs": [
            {
              "internalType": "uint256",
              "name": "id",
              "type": "uint256"
            }
          ],
          "name": "returnIsBlacklisted",
          "outputs": [
            {
              "internalType": "bool",
              "name": "isBlacklisted",
              "type": "bool"
            }
          ],
          "stateMutability": "view",
          "type": "function"
        },
        {
          "inputs": [
            {
              "internalType": "uint256",
              "name": "id",
              "type": "uint256"
            }
          ],
          "name": "returnTime",
          "outputs": [
            {
              "internalType": "uint256",
              "name": "timeStamp",
              "type": "uint256"
            }
          ],
          "stateMutability": "view",
          "type": "function"
        },
        {
          "inputs": [
            {
              "internalType": "uint256",
              "name": "id",
              "type": "uint256"
            }
          ],
          "name": "returnTokenWeight",
          "outputs": [
            {
              "internalType": "uint256",
              "name": "weight",
              "type": "uint256"
            }
          ],
          "stateMutability": "view",
          "type": "function"
        },
        {
          "inputs": [
            {
              "internalType": "uint256",
              "name": "id",
              "type": "uint256"
            }
          ],
          "name": "sortByTime",
          "outputs": [],
          "stateMutability": "nonpayable",
          "type": "function"
        },
        {
          "inputs": [],
          "name": "tokenCount",
          "outputs": [
            {
              "internalType": "uint256",
              "name": "",
              "type": "uint256"
            }
          ],
          "stateMutability": "view",
          "type": "function"
        },
        {
          "inputs": [
            {
              "internalType": "uint256",
              "name": "id",
              "type": "uint256"
            }
          ],
          "name": "tokenExists",
          "outputs": [
            {
              "internalType": "bool",
              "name": "exists",
              "type": "bool"
            }
          ],
          "stateMutability": "view",
          "type": "function"
        }
      ],
      "evm": {
        "bytecode": {
          "linkReferences": {},
          "object": "60806040526001805560006002556001600360006101000a81548160ff0219169083151502179055506000600855600060095534801561003e57600080fd5b5033600560006101000a81548173ffffffffffffffffffffffffffffffffffffffff021916908373ffffffffffffffffffffffffffffffffffffffff160217905550612f038061008f6000396000f3fe608060405234801561001057600080fd5b506004361061014c5760003560e01c806389e0496f116100c3578063b0f555ae1161007c578063b0f555ae146103c5578063be6d291e146103e1578063beae494214610411578063ce8b4afd1461042d578063d7753a6514610449578063d8be1fd4146104535761014c565b806389e0496f146102ed578063957908d11461031f578063981ad4681461033d5780639f181b5e1461036d578063a91388611461038b578063aca382a0146103a95761014c565b80631ffc735d116101155780631ffc735d1461022d5780635ee3c588146102495780636cf61127146102675780636e9960c314610297578063771602f7146102b5578063866fe41a146102d15761014c565b8062923f9e14610151578063076fcc1f146101815780630b8e12fc1461019d57806316b407a8146101cd57806318182eaa146101fd575b600080fd5b61016b6004803603810190610166919061213b565b61046f565b60405161017891906124fd565b60405180910390f35b61019b60048036038101906101969190612245565b610498565b005b6101b760048036038101906101b2919061213b565b61064d565b6040516101c49190612718565b60405180910390f35b6101e760048036038101906101e2919061213b565b61066d565b6040516101f49190612718565b60405180910390f35b61021760048036038101906102129190612168565b61068d565b60405161022491906124fd565b60405180910390f35b6102476004803603810190610242919061213b565b610700565b005b610251610751565b60405161025e9190612718565b60405180910390f35b610281600480360381019061027c91906121a9565b61075b565b60405161028e91906124fd565b60405180910390f35b61029f6107cd565b6040516102ac91906124e2565b60405180910390f35b6102cf60048036038101906102ca9190612245565b6107f7565b005b6102eb60048036038101906102e69190612053565b6108f1565b005b6103076004803603810190610302919061213b565b610eb4565b60405161031693929190612733565b60405180910390f35b610327610eeb565b6040516103349190612718565b60405180910390f35b6103576004803603810190610352919061213b565b610f71565b60405161036491906124fd565b60405180910390f35b610375610f9e565b6040516103829190612718565b60405180910390f35b610393610fa8565b6040516103a09190612718565b60405180910390f35b6103c360048036038101906103be919061213b565b610fb2565b005b6103df60048036038101906103da919061213b565b611117565b005b6103fb60048036038101906103f691906120f2565b6112b0565b6040516104089190612718565b60405180910390f35b61042b60048036038101906104269190611fc8565b6112b7565b005b61044760048036038101906104429190612205565b611938565b005b610451611b37565b005b61046d6004803603810190610468919061213b565b611c50565b005b60008060076000848152602001908152602001600020600101541461049357600190505b919050565b600560009054906101000a900473ffffffffffffffffffffffffffffffffffffffff1673ffffffffffffffffffffffffffffffffffffffff163373ffffffffffffffffffffffffffffffffffffffff1614610528576040517f08c379a000000000000000000000000000000000000000000000000000000000815260040161051f906126b8565b60405180910390fd5b81600081141561056d576040517f08c379a000000000000000000000000000000000000000000000000000000000815260040161056490612538565b60405180910390fd5b600115156006600083815260200190815260200160002060009054906101000a900460ff161515146105d4576040517f08c379a00000000000000000000000000000000000000000000000000000000081526004016105cb90612518565b60405180910390fd5b600060076000838152602001908152602001600020600101541461062d576040517f08c379a000000000000000000000000000000000000000000000000000000000815260040161062490612698565b60405180910390fd5b816007600085815260200190815260200160002060000181905550505050565b600060076000838152602001908152602001600020600101549050919050565b600060076000838152602001908152602001600020600001549050919050565b600080610200905060008114156106a85760009150506106fa565b60005b6102008110156106f35784848261020081106106ca576106c9612994565b5b602002015114156106e0576001925050506106fa565b80806106eb906128ed565b9150506106ab565b5060009150505b92915050565b600160026000828254610713919061281e565b925050819055506000600360006101000a81548160ff0219169083151502179055508060008060025481526020019081526020016000208190555050565b6000600854905090565b6000808251905060008114156107755760009150506107c7565b60005b818110156107c0578484828151811061079457610793612994565b5b602002602001015114156107ad576001925050506107c7565b80806107b8906128ed565b915050610778565b5060009150505b92915050565b6000600560009054906101000a900473ffffffffffffffffffffffffffffffffffffffff16905090565b60046000838152602001908152602001600020600101600082815260200190815260200160002060009054906101000a900460ff166108b257600160046000848152602001908152602001600020600101600083815260200190815260200160002060006101000a81548160ff021916908315150217905550600460008381526020019081526020016000206000018190806001815401808255809150506001900390600052602060002001600090919091909150556108ed565b6040517f08c379a00000000000000000000000000000000000000000000000000000000081526004016108e4906125d8565b60405180910390fd5b5050565b600560009054906101000a900473ffffffffffffffffffffffffffffffffffffffff1673ffffffffffffffffffffffffffffffffffffffff163373ffffffffffffffffffffffffffffffffffffffff1614610981576040517f08c379a0000000000000000000000000000000000000000000000000000000008152600401610978906126b8565b60405180910390fd5b8160008114156109c6576040517f08c379a00000000000000000000000000000000000000000000000000000000081526004016109bd90612538565b60405180910390fd5b600115156006600083815260200190815260200160002060009054906101000a900460ff16151514610a2d576040517f08c379a0000000000000000000000000000000000000000000000000000000008152600401610a2490612518565b60405180910390fd5b6000600760008381526020019081526020016000206001015414610a86576040517f08c379a0000000000000000000000000000000000000000000000000000000008152600401610a7d90612698565b60405180910390fd5b8351855114610aca576040517f08c379a0000000000000000000000000000000000000000000000000000000008152600401610ac190612578565b60405180910390fd5b60005b8551811015610d7057610afa84878381518110610aed57610aec612994565b5b60200260200101516107f7565b6000868281518110610b0f57610b0e612994565b5b60200260200101511415610b58576040517f08c379a0000000000000000000000000000000000000000000000000000000008152600401610b4f906126d8565b60405180910390fd5b6001151560066000888481518110610b7357610b72612994565b5b6020026020010151815260200190815260200160002060009054906101000a900460ff16151514610bd9576040517f08c379a0000000000000000000000000000000000000000000000000000000008152600401610bd0906126f8565b60405180910390fd5b600060076000888481518110610bf257610bf1612994565b5b60200260200101518152602001908152602001600020600101541415610c4d576040517f08c379a0000000000000000000000000000000000000000000000000000000008152600401610c4490612658565b60405180910390fd5b848181518110610c6057610c5f612994565b5b602002602001015160076000888481518110610c7f57610c7e612994565b5b602002602001015181526020019081526020016000206000015414610cd9576040517f08c379a0000000000000000000000000000000000000000000000000000000008152600401610cd0906125f8565b60405180910390fd5b6000151560076000888481518110610cf457610cf3612994565b5b6020026020010151815260200190815260200160002060020160009054906101000a900460ff16151514610d5d576040517f08c379a0000000000000000000000000000000000000000000000000000000008152600401610d54906125b8565b60405180910390fd5b8080610d68906128ed565b915050610acd565b5060086000815480929190610d84906128ed565b9190505550816007600085815260200190815260200160002060000181905550426007600085815260200190815260200160002060010181905550600085511415610dce57610ead565b845160096000828254610de1919061281e565b9250508190555060005b8551811015610eab5760006040518060400160405280888481518110610e1457610e13612994565b5b60200260200101518152602001878481518110610e3457610e33612994565b5b602002602001015181525090506007600086815260200190815260200160002060030181908060018154018082558091505060019003906000526020600020906002020160009091909190915060008201518160000155602082015181600101555050508080610ea3906128ed565b915050610deb565b505b5050505050565b60076020528060005260406000206000915090508060000154908060010154908060020160009054906101000a900460ff16905083565b60006001546002541015610efe57600080fd5b60008060015481526020019081526020016000205490506002546001541415610f3d576001600360006101000a81548160ff0219169083151502179055505b6000806001548152602001908152602001600020600090556001806000828254610f67919061281e565b9250508190555090565b60006007600083815260200190815260200160002060020160009054906101000a900460ff169050919050565b6000600854905090565b6000600954905090565b610fba611cc7565b6000610fc4611cc7565b6000610fcf85610700565b60005b600360009054906101000a900460ff1661110f57610fee610eeb565b9050610ffa818661068d565b61102b57808585610200811061101357611012612994565b5b6020020181815250508380611027906128ed565b9450505b60005b60076000838152602001908152602001600020600301805490508110156111095761109160076000848152602001908152602001600020600301828154811061107a57611079612994565b5b906000526020600020906002020160000154610700565b6007600083815260200190815260200160002060030181815481106110b9576110b8612994565b5b906000526020600020906002020160010154848461020081106110df576110de612994565b5b60200201818152505082806110f3906128ed565b9350508080611101906128ed565b91505061102e565b50610fd2565b505050505050565b600560009054906101000a900473ffffffffffffffffffffffffffffffffffffffff1673ffffffffffffffffffffffffffffffffffffffff163373ffffffffffffffffffffffffffffffffffffffff16146111a7576040517f08c379a000000000000000000000000000000000000000000000000000000000815260040161119e906126b8565b60405180910390fd5b8060008114156111ec576040517f08c379a00000000000000000000000000000000000000000000000000000000081526004016111e390612538565b60405180910390fd5b600115156006600083815260200190815260200160002060009054906101000a900460ff16151514611253576040517f08c379a000000000000000000000000000000000000000000000000000000000815260040161124a90612518565b60405180910390fd5b60006007600083815260200190815260200160002060010154146112ac576040517f08c379a00000000000000000000000000000000000000000000000000000000081526004016112a390612698565b60405180910390fd5b5050565b6000919050565b600560009054906101000a900473ffffffffffffffffffffffffffffffffffffffff1673ffffffffffffffffffffffffffffffffffffffff163373ffffffffffffffffffffffffffffffffffffffff1614611347576040517f08c379a000000000000000000000000000000000000000000000000000000000815260040161133e906126b8565b60405180910390fd5b600081141561138b576040517f08c379a000000000000000000000000000000000000000000000000000000000815260040161138290612538565b60405180910390fd5b600115156006600083815260200190815260200160002060009054906101000a900460ff161515146113f2576040517f08c379a00000000000000000000000000000000000000000000000000000000081526004016113e990612518565b60405180910390fd5b60006007600083815260200190815260200160002060010154141561144c576040517f08c379a000000000000000000000000000000000000000000000000000000000815260040161144390612638565b60405180910390fd5b60008351141561145b57611933565b60005b83518110156117015761148b8285838151811061147e5761147d612994565b5b60200260200101516107f7565b60008482815181106114a05761149f612994565b5b602002602001015114156114e9576040517f08c379a00000000000000000000000000000000000000000000000000000000081526004016114e0906126d8565b60405180910390fd5b600115156006600086848151811061150457611503612994565b5b6020026020010151815260200190815260200160002060009054906101000a900460ff1615151461156a576040517f08c379a0000000000000000000000000000000000000000000000000000000008152600401611561906126f8565b60405180910390fd5b60006007600086848151811061158357611582612994565b5b602002602001015181526020019081526020016000206001015414156115de576040517f08c379a00000000000000000000000000000000000000000000000000000000081526004016115d590612678565b60405180910390fd5b8281815181106115f1576115f0612994565b5b6020026020010151600760008684815181106116105761160f612994565b5b60200260200101518152602001908152602001600020600001541461166a576040517f08c379a0000000000000000000000000000000000000000000000000000000008152600401611661906125f8565b60405180910390fd5b600015156007600086848151811061168557611684612994565b5b6020026020010151815260200190815260200160002060020160009054906101000a900460ff161515146116ee576040517f08c379a00000000000000000000000000000000000000000000000000000000081526004016116e5906125b8565b60405180910390fd5b80806116f9906128ed565b91505061145e565b508151835114611746576040517f08c379a000000000000000000000000000000000000000000000000000000000815260040161173d90612578565b60405180910390fd5b6000611752828561075b565b90508015611795576040517f08c379a000000000000000000000000000000000000000000000000000000000815260040161178c90612558565b60405180910390fd5b60005b84518110156119305760005b6007600085815260200190815260200160002060030180549050811015611904578582815181106117d8576117d7612994565b5b602002602001015160076000868152602001908152602001600020600301828154811061180857611807612994565b5b906000526020600020906002020160000154141561185b576040517f08c379a000000000000000000000000000000000000000000000000000000000815260040161185290612618565b60405180910390fd5b836007600088858151811061187357611872612994565b5b60200260200101518152602001908152602001600020600301828154811061189e5761189d612994565b5b90600052602060002090600202016000015414156118f1576040517f08c379a00000000000000000000000000000000000000000000000000000000081526004016118e890612598565b60405180910390fd5b80806118fc906128ed565b9150506117a4565b5060096000815480929190611918906128ed565b91905055508080611928906128ed565b915050611798565b50505b505050565b600560009054906101000a900473ffffffffffffffffffffffffffffffffffffffff1673ffffffffffffffffffffffffffffffffffffffff163373ffffffffffffffffffffffffffffffffffffffff16146119c8576040517f08c379a00000000000000000000000000000000000000000000000000000000081526004016119bf906126b8565b60405180910390fd5b6000821415611a0c576040517f08c379a0000000000000000000000000000000000000000000000000000000008152600401611a0390612538565b60405180910390fd5b600115156006600084815260200190815260200160002060009054906101000a900460ff16151514611a73576040517f08c379a0000000000000000000000000000000000000000000000000000000008152600401611a6a90612518565b60405180910390fd5b600060076000848152602001908152602001600020600101541415611acd576040517f08c379a0000000000000000000000000000000000000000000000000000000008152600401611ac490612638565b60405180910390fd5b806007600084815260200190815260200160002060020160006101000a81548160ff021916908315150217905515611b0457611b33565b806007600084815260200190815260200160002060020160006101000a81548160ff0219169083151502179055505b5050565b600560009054906101000a900473ffffffffffffffffffffffffffffffffffffffff1673ffffffffffffffffffffffffffffffffffffffff163373ffffffffffffffffffffffffffffffffffffffff1614611bc7576040517f08c379a0000000000000000000000000000000000000000000000000000000008152600401611bbe906126b8565b60405180910390fd5b6001600660006001815260200190815260200160002060006101000a81548160ff0219169083151502179055506001600660006002815260200190815260200160002060006101000a81548160ff0219169083151502179055506001600660006003815260200190815260200160002060006101000a81548160ff021916908315150217905550565b60005b6004600083815260200190815260200160002060000180549050811015611cc35760046000838152602001908152602001600020600001805480611c9a57611c99612965565b5b600190038181906000526020600020016000905590558080611cbb906128ed565b915050611c53565b5050565b60405180614000016040528061020090602082028036833780820191505090505090565b6000611cfe611cf98461278f565b61276a565b90508083825260208201905082856040860282011115611d2157611d20612a01565b5b60005b85811015611d515781611d378882611ecf565b845260208401935060408301925050600181019050611d24565b5050509392505050565b6000611d6e611d69846127bb565b61276a565b90508082856020860282011115611d8857611d87612a01565b5b60005b85811015611db85781611d9e8882611fb3565b845260208401935060208301925050600181019050611d8b565b5050509392505050565b6000611dd5611dd0846127e1565b61276a565b90508083825260208201905082856020860282011115611df857611df7612a01565b5b60005b85811015611e285781611e0e8882611fb3565b845260208401935060208301925050600181019050611dfb565b5050509392505050565b600082601f830112611e4757611e466129f2565b5b8135611e57848260208601611ceb565b91505092915050565b600082601f830112611e7557611e746129f2565b5b610200611e83848285611d5b565b91505092915050565b600082601f830112611ea157611ea06129f2565b5b8135611eb1848260208601611dc2565b91505092915050565b600081359050611ec981612e9f565b92915050565b600060408284031215611ee557611ee46129f7565b5b611eef604061276a565b90506000611eff84828501611fb3565b6000830152506020611f1384828501611fb3565b60208301525092915050565b600060808284031215611f3557611f346129f7565b5b611f3f608061276a565b90506000611f4f84828501611fb3565b6000830152506020611f6384828501611fb3565b6020830152506040611f7784828501611eba565b604083015250606082013567ffffffffffffffff811115611f9b57611f9a6129fc565b5b611fa784828501611e32565b60608301525092915050565b600081359050611fc281612eb6565b92915050565b600080600060608486031215611fe157611fe0612a0b565b5b600084013567ffffffffffffffff811115611fff57611ffe612a06565b5b61200b86828701611e8c565b935050602084013567ffffffffffffffff81111561202c5761202b612a06565b5b61203886828701611e8c565b925050604061204986828701611fb3565b9150509250925092565b6000806000806080858703121561206d5761206c612a0b565b5b600085013567ffffffffffffffff81111561208b5761208a612a06565b5b61209787828801611e8c565b945050602085013567ffffffffffffffff8111156120b8576120b7612a06565b5b6120c487828801611e8c565b93505060406120d587828801611fb3565b92505060606120e687828801611fb3565b91505092959194509250565b60006020828403121561210857612107612a0b565b5b600082013567ffffffffffffffff81111561212657612125612a06565b5b61213284828501611f1f565b91505092915050565b60006020828403121561215157612150612a0b565b5b600061215f84828501611fb3565b91505092915050565b60008061402083850312156121805761217f612a0b565b5b600061218e85828601611fb3565b925050602061219f85828601611e60565b9150509250929050565b600080604083850312156121c0576121bf612a0b565b5b60006121ce85828601611fb3565b925050602083013567ffffffffffffffff8111156121ef576121ee612a06565b5b6121fb85828601611e8c565b9150509250929050565b6000806040838503121561221c5761221b612a0b565b5b600061222a85828601611fb3565b925050602061223b85828601611eba565b9150509250929050565b6000806040838503121561225c5761225b612a0b565b5b600061226a85828601611fb3565b925050602061227b85828601611fb3565b9150509250929050565b61228e81612874565b82525050565b61229d81612886565b82525050565b60006122b0602c8361280d565b91506122bb82612a21565b604082019050919050565b60006122d3601b8361280d565b91506122de82612a70565b602082019050919050565b60006122f6602c8361280d565b915061230182612a99565b604082019050919050565b600061231960378361280d565b915061232482612ae8565b604082019050919050565b600061233c60248361280d565b915061234782612b37565b604082019050919050565b600061235f603a8361280d565b915061236a82612b86565b604082019050919050565b600061238260338361280d565b915061238d82612bd5565b604082019050919050565b60006123a560348361280d565b91506123b082612c24565b604082019050919050565b60006123c8603c8361280d565b91506123d382612c73565b604082019050919050565b60006123eb601f8361280d565b91506123f682612cc2565b602082019050919050565b600061240e602d8361280d565b915061241982612ceb565b604082019050919050565b6000612431602b8361280d565b915061243c82612d3a565b604082019050919050565b600061245460248361280d565b915061245f82612d89565b604082019050919050565b600061247760138361280d565b915061248282612dd8565b602082019050919050565b600061249a60218361280d565b91506124a582612e01565b604082019050919050565b60006124bd602f8361280d565b91506124c882612e50565b604082019050919050565b6124dc816128b2565b82525050565b60006020820190506124f76000830184612285565b92915050565b60006020820190506125126000830184612294565b92915050565b60006020820190508181036000830152612531816122a3565b9050919050565b60006020820190508181036000830152612551816122c6565b9050919050565b60006020820190508181036000830152612571816122e9565b9050919050565b600060208201905081810360008301526125918161230c565b9050919050565b600060208201905081810360008301526125b18161232f565b9050919050565b600060208201905081810360008301526125d181612352565b9050919050565b600060208201905081810360008301526125f181612375565b9050919050565b6000602082019050818103600083015261261181612398565b9050919050565b60006020820190508181036000830152612631816123bb565b9050919050565b60006020820190508181036000830152612651816123de565b9050919050565b6000602082019050818103600083015261267181612401565b9050919050565b6000602082019050818103600083015261269181612424565b9050919050565b600060208201905081810360008301526126b181612447565b9050919050565b600060208201905081810360008301526126d18161246a565b9050919050565b600060208201905081810360008301526126f18161248d565b9050919050565b60006020820190508181036000830152612711816124b0565b9050919050565b600060208201905061272d60008301846124d3565b92915050565b600060608201905061274860008301866124d3565b61275560208301856124d3565b6127626040830184612294565b949350505050565b6000612774612785565b905061278082826128bc565b919050565b6000604051905090565b600067ffffffffffffffff8211156127aa576127a96129c3565b5b602082029050602081019050919050565b600067ffffffffffffffff8211156127d6576127d56129c3565b5b602082029050919050565b600067ffffffffffffffff8211156127fc576127fb6129c3565b5b602082029050602081019050919050565b600082825260208201905092915050565b6000612829826128b2565b9150612834836128b2565b9250827fffffffffffffffffffffffffffffffffffffffffffffffffffffffffffffffff0382111561286957612868612936565b5b828201905092915050565b600061287f82612892565b9050919050565b60008115159050919050565b600073ffffffffffffffffffffffffffffffffffffffff82169050919050565b6000819050919050565b6128c582612a10565b810181811067ffffffffffffffff821117156128e4576128e36129c3565b5b80604052505050565b60006128f8826128b2565b91507fffffffffffffffffffffffffffffffffffffffffffffffffffffffffffffffff82141561292b5761292a612936565b5b600182019050919050565b7f4e487b7100000000000000000000000000000000000000000000000000000000600052601160045260246000fd5b7f4e487b7100000000000000000000000000000000000000000000000000000000600052603160045260246000fd5b7f4e487b7100000000000000000000000000000000000000000000000000000000600052603260045260246000fd5b7f4e487b7100000000000000000000000000000000000000000000000000000000600052604160045260246000fd5b600080fd5b600080fd5b600080fd5b600080fd5b600080fd5b600080fd5b6000601f19601f8301169050919050565b7f54686520746f6b656e206973206e6f742061207265676973746572656420455260008201527f43203131353520746f6b656e0000000000000000000000000000000000000000602082015250565b7f54686520746f6b656e2049442063616e6e6f74206265207a65726f0000000000600082015250565b7f546f6b656e49442063616e6e6f74206265206120737562736574206f6620706160008201527f72656e74546f6b656e4944730000000000000000000000000000000000000000602082015250565b7f546865206c656e677468206f6620706172656e742049647320616e642077656960008201527f676874732073686f756c64206265207468652073616d65000000000000000000602082015250565b7f4572726f723a20616e206772617068206c6f6f702077696c6c2062652063726560008201527f6174656400000000000000000000000000000000000000000000000000000000602082015250565b7f4120706172656e7420494420697320626c61636b6c697374656420736f20746860008201527f69732070726f636573732063616e6e6f7420636f6e74696e7565000000000000602082015250565b7f412076616c756520796f752061726520696e70757474696e6720696e6469636160008201527f746573206120627265616b206f66207365742e00000000000000000000000000602082015250565b7f4120706172656e7420696420646f6573206e6f7420636f6f7265736f6e64207460008201527f6f2074686520636f727265637420776569676874000000000000000000000000602082015250565b7f4572726f723a204564676520636f6e6e656374696f6e20796f7520617265207460008201527f7279696e6720746f2061646420616c6c72656164792065786973747300000000602082015250565b7f494420686173206e6f74206265656e20616464656420746f2067726170682e00600082015250565b7f4120706172656e7420746f6b656e20494420686173206e6f74206265656e206160008201527f6464656420746f20677261706800000000000000000000000000000000000000602082015250565b7f706172656e7420746f6b656e20494420686173206e6f74206265656e2061646460008201527f656420746f206772617068000000000000000000000000000000000000000000602082015250565b7f49442068617320616c6c7265616479206265656e20616464656420746f20677260008201527f6170682e00000000000000000000000000000000000000000000000000000000602082015250565b7f55736572206d7573742062652061646d696e2e00000000000000000000000000600082015250565b7f54686520746f6b656e204944206f66206120706172656e74206973207a65726f60008201527f2e00000000000000000000000000000000000000000000000000000000000000602082015250565b7f4120706172656e7420746f6b656e206973206e6f74206120726567697374656460008201527f20455243203131353520746f6b656e0000000000000000000000000000000000602082015250565b612ea881612886565b8114612eb357600080fd5b50565b612ebf816128b2565b8114612eca57600080fd5b5056fea264697066735822122056ab456a994a7d6383c30cfb855405063304b92c3f447bf8ef7555b9d49acb6864736f6c63430008060033",
          "opcodes": "PUSH1 0x80 PUSH1 0x40 MSTORE PUSH1 0x1 DUP1 SSTORE PUSH1 0x0 PUSH1 0x2 SSTORE PUSH1 0x1 PUSH1 0x3 PUSH1 0x0 PUSH2 0x100 EXP DUP2 SLOAD DUP2 PUSH1 0xFF MUL NOT AND SWAP1 DUP4 ISZERO ISZERO MUL OR SWAP1 SSTORE POP PUSH1 0x0 PUSH1 0x8 SSTORE PUSH1 0x0 PUSH1 0x9 SSTORE CALLVALUE DUP1 ISZERO PUSH2 0x3E JUMPI PUSH1 0x0 DUP1 REVERT JUMPDEST POP CALLER PUSH1 0x5 PUSH1 0x0 PUSH2 0x100 EXP DUP2 SLOAD DUP2 PUSH20 0xFFFFFFFFFFFFFFFFFFFFFFFFFFFFFFFFFFFFFFFF MUL NOT AND SWAP1 DUP4 PUSH20 0xFFFFFFFFFFFFFFFFFFFFFFFFFFFFFFFFFFFFFFFF AND MUL OR SWAP1 SSTORE POP PUSH2 0x2F03 DUP1 PUSH2 0x8F PUSH1 0x0 CODECOPY PUSH1 0x0 RETURN INVALID PUSH1 0x80 PUSH1 0x40 MSTORE CALLVALUE DUP1 ISZERO PUSH2 0x10 JUMPI PUSH1 0x0 DUP1 REVERT JUMPDEST POP PUSH1 0x4 CALLDATASIZE LT PUSH2 0x14C JUMPI PUSH1 0x0 CALLDATALOAD PUSH1 0xE0 SHR DUP1 PUSH4 0x89E0496F GT PUSH2 0xC3 JUMPI DUP1 PUSH4 0xB0F555AE GT PUSH2 0x7C JUMPI DUP1 PUSH4 0xB0F555AE EQ PUSH2 0x3C5 JUMPI DUP1 PUSH4 0xBE6D291E EQ PUSH2 0x3E1 JUMPI DUP1 PUSH4 0xBEAE4942 EQ PUSH2 0x411 JUMPI DUP1 PUSH4 0xCE8B4AFD EQ PUSH2 0x42D JUMPI DUP1 PUSH4 0xD7753A65 EQ PUSH2 0x449 JUMPI DUP1 PUSH4 0xD8BE1FD4 EQ PUSH2 0x453 JUMPI PUSH2 0x14C JUMP JUMPDEST DUP1 PUSH4 0x89E0496F EQ PUSH2 0x2ED JUMPI DUP1 PUSH4 0x957908D1 EQ PUSH2 0x31F JUMPI DUP1 PUSH4 0x981AD468 EQ PUSH2 0x33D JUMPI DUP1 PUSH4 0x9F181B5E EQ PUSH2 0x36D JUMPI DUP1 PUSH4 0xA9138861 EQ PUSH2 0x38B JUMPI DUP1 PUSH4 0xACA382A0 EQ PUSH2 0x3A9 JUMPI PUSH2 0x14C JUMP JUMPDEST DUP1 PUSH4 0x1FFC735D GT PUSH2 0x115 JUMPI DUP1 PUSH4 0x1FFC735D EQ PUSH2 0x22D JUMPI DUP1 PUSH4 0x5EE3C588 EQ PUSH2 0x249 JUMPI DUP1 PUSH4 0x6CF61127 EQ PUSH2 0x267 JUMPI DUP1 PUSH4 0x6E9960C3 EQ PUSH2 0x297 JUMPI DUP1 PUSH4 0x771602F7 EQ PUSH2 0x2B5 JUMPI DUP1 PUSH4 0x866FE41A EQ PUSH2 0x2D1 JUMPI PUSH2 0x14C JUMP JUMPDEST DUP1 PUSH3 0x923F9E EQ PUSH2 0x151 JUMPI DUP1 PUSH4 0x76FCC1F EQ PUSH2 0x181 JUMPI DUP1 PUSH4 0xB8E12FC EQ PUSH2 0x19D JUMPI DUP1 PUSH4 0x16B407A8 EQ PUSH2 0x1CD JUMPI DUP1 PUSH4 0x18182EAA EQ PUSH2 0x1FD JUMPI JUMPDEST PUSH1 0x0 DUP1 REVERT JUMPDEST PUSH2 0x16B PUSH1 0x4 DUP1 CALLDATASIZE SUB DUP2 ADD SWAP1 PUSH2 0x166 SWAP2 SWAP1 PUSH2 0x213B JUMP JUMPDEST PUSH2 0x46F JUMP JUMPDEST PUSH1 0x40 MLOAD PUSH2 0x178 SWAP2 SWAP1 PUSH2 0x24FD JUMP JUMPDEST PUSH1 0x40 MLOAD DUP1 SWAP2 SUB SWAP1 RETURN JUMPDEST PUSH2 0x19B PUSH1 0x4 DUP1 CALLDATASIZE SUB DUP2 ADD SWAP1 PUSH2 0x196 SWAP2 SWAP1 PUSH2 0x2245 JUMP JUMPDEST PUSH2 0x498 JUMP JUMPDEST STOP JUMPDEST PUSH2 0x1B7 PUSH1 0x4 DUP1 CALLDATASIZE SUB DUP2 ADD SWAP1 PUSH2 0x1B2 SWAP2 SWAP1 PUSH2 0x213B JUMP JUMPDEST PUSH2 0x64D JUMP JUMPDEST PUSH1 0x40 MLOAD PUSH2 0x1C4 SWAP2 SWAP1 PUSH2 0x2718 JUMP JUMPDEST PUSH1 0x40 MLOAD DUP1 SWAP2 SUB SWAP1 RETURN JUMPDEST PUSH2 0x1E7 PUSH1 0x4 DUP1 CALLDATASIZE SUB DUP2 ADD SWAP1 PUSH2 0x1E2 SWAP2 SWAP1 PUSH2 0x213B JUMP JUMPDEST PUSH2 0x66D JUMP JUMPDEST PUSH1 0x40 MLOAD PUSH2 0x1F4 SWAP2 SWAP1 PUSH2 0x2718 JUMP JUMPDEST PUSH1 0x40 MLOAD DUP1 SWAP2 SUB SWAP1 RETURN JUMPDEST PUSH2 0x217 PUSH1 0x4 DUP1 CALLDATASIZE SUB DUP2 ADD SWAP1 PUSH2 0x212 SWAP2 SWAP1 PUSH2 0x2168 JUMP JUMPDEST PUSH2 0x68D JUMP JUMPDEST PUSH1 0x40 MLOAD PUSH2 0x224 SWAP2 SWAP1 PUSH2 0x24FD JUMP JUMPDEST PUSH1 0x40 MLOAD DUP1 SWAP2 SUB SWAP1 RETURN JUMPDEST PUSH2 0x247 PUSH1 0x4 DUP1 CALLDATASIZE SUB DUP2 ADD SWAP1 PUSH2 0x242 SWAP2 SWAP1 PUSH2 0x213B JUMP JUMPDEST PUSH2 0x700 JUMP JUMPDEST STOP JUMPDEST PUSH2 0x251 PUSH2 0x751 JUMP JUMPDEST PUSH1 0x40 MLOAD PUSH2 0x25E SWAP2 SWAP1 PUSH2 0x2718 JUMP JUMPDEST PUSH1 0x40 MLOAD DUP1 SWAP2 SUB SWAP1 RETURN JUMPDEST PUSH2 0x281 PUSH1 0x4 DUP1 CALLDATASIZE SUB DUP2 ADD SWAP1 PUSH2 0x27C SWAP2 SWAP1 PUSH2 0x21A9 JUMP JUMPDEST PUSH2 0x75B JUMP JUMPDEST PUSH1 0x40 MLOAD PUSH2 0x28E SWAP2 SWAP1 PUSH2 0x24FD JUMP JUMPDEST PUSH1 0x40 MLOAD DUP1 SWAP2 SUB SWAP1 RETURN JUMPDEST PUSH2 0x29F PUSH2 0x7CD JUMP JUMPDEST PUSH1 0x40 MLOAD PUSH2 0x2AC SWAP2 SWAP1 PUSH2 0x24E2 JUMP JUMPDEST PUSH1 0x40 MLOAD DUP1 SWAP2 SUB SWAP1 RETURN JUMPDEST PUSH2 0x2CF PUSH1 0x4 DUP1 CALLDATASIZE SUB DUP2 ADD SWAP1 PUSH2 0x2CA SWAP2 SWAP1 PUSH2 0x2245 JUMP JUMPDEST PUSH2 0x7F7 JUMP JUMPDEST STOP JUMPDEST PUSH2 0x2EB PUSH1 0x4 DUP1 CALLDATASIZE SUB DUP2 ADD SWAP1 PUSH2 0x2E6 SWAP2 SWAP1 PUSH2 0x2053 JUMP JUMPDEST PUSH2 0x8F1 JUMP JUMPDEST STOP JUMPDEST PUSH2 0x307 PUSH1 0x4 DUP1 CALLDATASIZE SUB DUP2 ADD SWAP1 PUSH2 0x302 SWAP2 SWAP1 PUSH2 0x213B JUMP JUMPDEST PUSH2 0xEB4 JUMP JUMPDEST PUSH1 0x40 MLOAD PUSH2 0x316 SWAP4 SWAP3 SWAP2 SWAP1 PUSH2 0x2733 JUMP JUMPDEST PUSH1 0x40 MLOAD DUP1 SWAP2 SUB SWAP1 RETURN JUMPDEST PUSH2 0x327 PUSH2 0xEEB JUMP JUMPDEST PUSH1 0x40 MLOAD PUSH2 0x334 SWAP2 SWAP1 PUSH2 0x2718 JUMP JUMPDEST PUSH1 0x40 MLOAD DUP1 SWAP2 SUB SWAP1 RETURN JUMPDEST PUSH2 0x357 PUSH1 0x4 DUP1 CALLDATASIZE SUB DUP2 ADD SWAP1 PUSH2 0x352 SWAP2 SWAP1 PUSH2 0x213B JUMP JUMPDEST PUSH2 0xF71 JUMP JUMPDEST PUSH1 0x40 MLOAD PUSH2 0x364 SWAP2 SWAP1 PUSH2 0x24FD JUMP JUMPDEST PUSH1 0x40 MLOAD DUP1 SWAP2 SUB SWAP1 RETURN JUMPDEST PUSH2 0x375 PUSH2 0xF9E JUMP JUMPDEST PUSH1 0x40 MLOAD PUSH2 0x382 SWAP2 SWAP1 PUSH2 0x2718 JUMP JUMPDEST PUSH1 0x40 MLOAD DUP1 SWAP2 SUB SWAP1 RETURN JUMPDEST PUSH2 0x393 PUSH2 0xFA8 JUMP JUMPDEST PUSH1 0x40 MLOAD PUSH2 0x3A0 SWAP2 SWAP1 PUSH2 0x2718 JUMP JUMPDEST PUSH1 0x40 MLOAD DUP1 SWAP2 SUB SWAP1 RETURN JUMPDEST PUSH2 0x3C3 PUSH1 0x4 DUP1 CALLDATASIZE SUB DUP2 ADD SWAP1 PUSH2 0x3BE SWAP2 SWAP1 PUSH2 0x213B JUMP JUMPDEST PUSH2 0xFB2 JUMP JUMPDEST STOP JUMPDEST PUSH2 0x3DF PUSH1 0x4 DUP1 CALLDATASIZE SUB DUP2 ADD SWAP1 PUSH2 0x3DA SWAP2 SWAP1 PUSH2 0x213B JUMP JUMPDEST PUSH2 0x1117 JUMP JUMPDEST STOP JUMPDEST PUSH2 0x3FB PUSH1 0x4 DUP1 CALLDATASIZE SUB DUP2 ADD SWAP1 PUSH2 0x3F6 SWAP2 SWAP1 PUSH2 0x20F2 JUMP JUMPDEST PUSH2 0x12B0 JUMP JUMPDEST PUSH1 0x40 MLOAD PUSH2 0x408 SWAP2 SWAP1 PUSH2 0x2718 JUMP JUMPDEST PUSH1 0x40 MLOAD DUP1 SWAP2 SUB SWAP1 RETURN JUMPDEST PUSH2 0x42B PUSH1 0x4 DUP1 CALLDATASIZE SUB DUP2 ADD SWAP1 PUSH2 0x426 SWAP2 SWAP1 PUSH2 0x1FC8 JUMP JUMPDEST PUSH2 0x12B7 JUMP JUMPDEST STOP JUMPDEST PUSH2 0x447 PUSH1 0x4 DUP1 CALLDATASIZE SUB DUP2 ADD SWAP1 PUSH2 0x442 SWAP2 SWAP1 PUSH2 0x2205 JUMP JUMPDEST PUSH2 0x1938 JUMP JUMPDEST STOP JUMPDEST PUSH2 0x451 PUSH2 0x1B37 JUMP JUMPDEST STOP JUMPDEST PUSH2 0x46D PUSH1 0x4 DUP1 CALLDATASIZE SUB DUP2 ADD SWAP1 PUSH2 0x468 SWAP2 SWAP1 PUSH2 0x213B JUMP JUMPDEST PUSH2 0x1C50 JUMP JUMPDEST STOP JUMPDEST PUSH1 0x0 DUP1 PUSH1 0x7 PUSH1 0x0 DUP5 DUP2 MSTORE PUSH1 0x20 ADD SWAP1 DUP2 MSTORE PUSH1 0x20 ADD PUSH1 0x0 KECCAK256 PUSH1 0x1 ADD SLOAD EQ PUSH2 0x493 JUMPI PUSH1 0x1 SWAP1 POP JUMPDEST SWAP2 SWAP1 POP JUMP JUMPDEST PUSH1 0x5 PUSH1 0x0 SWAP1 SLOAD SWAP1 PUSH2 0x100 EXP SWAP1 DIV PUSH20 0xFFFFFFFFFFFFFFFFFFFFFFFFFFFFFFFFFFFFFFFF AND PUSH20 0xFFFFFFFFFFFFFFFFFFFFFFFFFFFFFFFFFFFFFFFF AND CALLER PUSH20 0xFFFFFFFFFFFFFFFFFFFFFFFFFFFFFFFFFFFFFFFF AND EQ PUSH2 0x528 JUMPI PUSH1 0x40 MLOAD PUSH32 0x8C379A000000000000000000000000000000000000000000000000000000000 DUP2 MSTORE PUSH1 0x4 ADD PUSH2 0x51F SWAP1 PUSH2 0x26B8 JUMP JUMPDEST PUSH1 0x40 MLOAD DUP1 SWAP2 SUB SWAP1 REVERT JUMPDEST DUP2 PUSH1 0x0 DUP2 EQ ISZERO PUSH2 0x56D JUMPI PUSH1 0x40 MLOAD PUSH32 0x8C379A000000000000000000000000000000000000000000000000000000000 DUP2 MSTORE PUSH1 0x4 ADD PUSH2 0x564 SWAP1 PUSH2 0x2538 JUMP JUMPDEST PUSH1 0x40 MLOAD DUP1 SWAP2 SUB SWAP1 REVERT JUMPDEST PUSH1 0x1 ISZERO ISZERO PUSH1 0x6 PUSH1 0x0 DUP4 DUP2 MSTORE PUSH1 0x20 ADD SWAP1 DUP2 MSTORE PUSH1 0x20 ADD PUSH1 0x0 KECCAK256 PUSH1 0x0 SWAP1 SLOAD SWAP1 PUSH2 0x100 EXP SWAP1 DIV PUSH1 0xFF AND ISZERO ISZERO EQ PUSH2 0x5D4 JUMPI PUSH1 0x40 MLOAD PUSH32 0x8C379A000000000000000000000000000000000000000000000000000000000 DUP2 MSTORE PUSH1 0x4 ADD PUSH2 0x5CB SWAP1 PUSH2 0x2518 JUMP JUMPDEST PUSH1 0x40 MLOAD DUP1 SWAP2 SUB SWAP1 REVERT JUMPDEST PUSH1 0x0 PUSH1 0x7 PUSH1 0x0 DUP4 DUP2 MSTORE PUSH1 0x20 ADD SWAP1 DUP2 MSTORE PUSH1 0x20 ADD PUSH1 0x0 KECCAK256 PUSH1 0x1 ADD SLOAD EQ PUSH2 0x62D JUMPI PUSH1 0x40 MLOAD PUSH32 0x8C379A000000000000000000000000000000000000000000000000000000000 DUP2 MSTORE PUSH1 0x4 ADD PUSH2 0x624 SWAP1 PUSH2 0x2698 JUMP JUMPDEST PUSH1 0x40 MLOAD DUP1 SWAP2 SUB SWAP1 REVERT JUMPDEST DUP2 PUSH1 0x7 PUSH1 0x0 DUP6 DUP2 MSTORE PUSH1 0x20 ADD SWAP1 DUP2 MSTORE PUSH1 0x20 ADD PUSH1 0x0 KECCAK256 PUSH1 0x0 ADD DUP2 SWAP1 SSTORE POP POP POP POP JUMP JUMPDEST PUSH1 0x0 PUSH1 0x7 PUSH1 0x0 DUP4 DUP2 MSTORE PUSH1 0x20 ADD SWAP1 DUP2 MSTORE PUSH1 0x20 ADD PUSH1 0x0 KECCAK256 PUSH1 0x1 ADD SLOAD SWAP1 POP SWAP2 SWAP1 POP JUMP JUMPDEST PUSH1 0x0 PUSH1 0x7 PUSH1 0x0 DUP4 DUP2 MSTORE PUSH1 0x20 ADD SWAP1 DUP2 MSTORE PUSH1 0x20 ADD PUSH1 0x0 KECCAK256 PUSH1 0x0 ADD SLOAD SWAP1 POP SWAP2 SWAP1 POP JUMP JUMPDEST PUSH1 0x0 DUP1 PUSH2 0x200 SWAP1 POP PUSH1 0x0 DUP2 EQ ISZERO PUSH2 0x6A8 JUMPI PUSH1 0x0 SWAP2 POP POP PUSH2 0x6FA JUMP JUMPDEST PUSH1 0x0 JUMPDEST PUSH2 0x200 DUP2 LT ISZERO PUSH2 0x6F3 JUMPI DUP5 DUP5 DUP3 PUSH2 0x200 DUP2 LT PUSH2 0x6CA JUMPI PUSH2 0x6C9 PUSH2 0x2994 JUMP JUMPDEST JUMPDEST PUSH1 0x20 MUL ADD MLOAD EQ ISZERO PUSH2 0x6E0 JUMPI PUSH1 0x1 SWAP3 POP POP POP PUSH2 0x6FA JUMP JUMPDEST DUP1 DUP1 PUSH2 0x6EB SWAP1 PUSH2 0x28ED JUMP JUMPDEST SWAP2 POP POP PUSH2 0x6AB JUMP JUMPDEST POP PUSH1 0x0 SWAP2 POP POP JUMPDEST SWAP3 SWAP2 POP POP JUMP JUMPDEST PUSH1 0x1 PUSH1 0x2 PUSH1 0x0 DUP3 DUP3 SLOAD PUSH2 0x713 SWAP2 SWAP1 PUSH2 0x281E JUMP JUMPDEST SWAP3 POP POP DUP2 SWAP1 SSTORE POP PUSH1 0x0 PUSH1 0x3 PUSH1 0x0 PUSH2 0x100 EXP DUP2 SLOAD DUP2 PUSH1 0xFF MUL NOT AND SWAP1 DUP4 ISZERO ISZERO MUL OR SWAP1 SSTORE POP DUP1 PUSH1 0x0 DUP1 PUSH1 0x2 SLOAD DUP2 MSTORE PUSH1 0x20 ADD SWAP1 DUP2 MSTORE PUSH1 0x20 ADD PUSH1 0x0 KECCAK256 DUP2 SWAP1 SSTORE POP POP JUMP JUMPDEST PUSH1 0x0 PUSH1 0x8 SLOAD SWAP1 POP SWAP1 JUMP JUMPDEST PUSH1 0x0 DUP1 DUP3 MLOAD SWAP1 POP PUSH1 0x0 DUP2 EQ ISZERO PUSH2 0x775 JUMPI PUSH1 0x0 SWAP2 POP POP PUSH2 0x7C7 JUMP JUMPDEST PUSH1 0x0 JUMPDEST DUP2 DUP2 LT ISZERO PUSH2 0x7C0 JUMPI DUP5 DUP5 DUP3 DUP2 MLOAD DUP2 LT PUSH2 0x794 JUMPI PUSH2 0x793 PUSH2 0x2994 JUMP JUMPDEST JUMPDEST PUSH1 0x20 MUL PUSH1 0x20 ADD ADD MLOAD EQ ISZERO PUSH2 0x7AD JUMPI PUSH1 0x1 SWAP3 POP POP POP PUSH2 0x7C7 JUMP JUMPDEST DUP1 DUP1 PUSH2 0x7B8 SWAP1 PUSH2 0x28ED JUMP JUMPDEST SWAP2 POP POP PUSH2 0x778 JUMP JUMPDEST POP PUSH1 0x0 SWAP2 POP POP JUMPDEST SWAP3 SWAP2 POP POP JUMP JUMPDEST PUSH1 0x0 PUSH1 0x5 PUSH1 0x0 SWAP1 SLOAD SWAP1 PUSH2 0x100 EXP SWAP1 DIV PUSH20 0xFFFFFFFFFFFFFFFFFFFFFFFFFFFFFFFFFFFFFFFF AND SWAP1 POP SWAP1 JUMP JUMPDEST PUSH1 0x4 PUSH1 0x0 DUP4 DUP2 MSTORE PUSH1 0x20 ADD SWAP1 DUP2 MSTORE PUSH1 0x20 ADD PUSH1 0x0 KECCAK256 PUSH1 0x1 ADD PUSH1 0x0 DUP3 DUP2 MSTORE PUSH1 0x20 ADD SWAP1 DUP2 MSTORE PUSH1 0x20 ADD PUSH1 0x0 KECCAK256 PUSH1 0x0 SWAP1 SLOAD SWAP1 PUSH2 0x100 EXP SWAP1 DIV PUSH1 0xFF AND PUSH2 0x8B2 JUMPI PUSH1 0x1 PUSH1 0x4 PUSH1 0x0 DUP5 DUP2 MSTORE PUSH1 0x20 ADD SWAP1 DUP2 MSTORE PUSH1 0x20 ADD PUSH1 0x0 KECCAK256 PUSH1 0x1 ADD PUSH1 0x0 DUP4 DUP2 MSTORE PUSH1 0x20 ADD SWAP1 DUP2 MSTORE PUSH1 0x20 ADD PUSH1 0x0 KECCAK256 PUSH1 0x0 PUSH2 0x100 EXP DUP2 SLOAD DUP2 PUSH1 0xFF MUL NOT AND SWAP1 DUP4 ISZERO ISZERO MUL OR SWAP1 SSTORE POP PUSH1 0x4 PUSH1 0x0 DUP4 DUP2 MSTORE PUSH1 0x20 ADD SWAP1 DUP2 MSTORE PUSH1 0x20 ADD PUSH1 0x0 KECCAK256 PUSH1 0x0 ADD DUP2 SWAP1 DUP1 PUSH1 0x1 DUP2 SLOAD ADD DUP1 DUP3 SSTORE DUP1 SWAP2 POP POP PUSH1 0x1 SWAP1 SUB SWAP1 PUSH1 0x0 MSTORE PUSH1 0x20 PUSH1 0x0 KECCAK256 ADD PUSH1 0x0 SWAP1 SWAP2 SWAP1 SWAP2 SWAP1 SWAP2 POP SSTORE PUSH2 0x8ED JUMP JUMPDEST PUSH1 0x40 MLOAD PUSH32 0x8C379A000000000000000000000000000000000000000000000000000000000 DUP2 MSTORE PUSH1 0x4 ADD PUSH2 0x8E4 SWAP1 PUSH2 0x25D8 JUMP JUMPDEST PUSH1 0x40 MLOAD DUP1 SWAP2 SUB SWAP1 REVERT JUMPDEST POP POP JUMP JUMPDEST PUSH1 0x5 PUSH1 0x0 SWAP1 SLOAD SWAP1 PUSH2 0x100 EXP SWAP1 DIV PUSH20 0xFFFFFFFFFFFFFFFFFFFFFFFFFFFFFFFFFFFFFFFF AND PUSH20 0xFFFFFFFFFFFFFFFFFFFFFFFFFFFFFFFFFFFFFFFF AND CALLER PUSH20 0xFFFFFFFFFFFFFFFFFFFFFFFFFFFFFFFFFFFFFFFF AND EQ PUSH2 0x981 JUMPI PUSH1 0x40 MLOAD PUSH32 0x8C379A000000000000000000000000000000000000000000000000000000000 DUP2 MSTORE PUSH1 0x4 ADD PUSH2 0x978 SWAP1 PUSH2 0x26B8 JUMP JUMPDEST PUSH1 0x40 MLOAD DUP1 SWAP2 SUB SWAP1 REVERT JUMPDEST DUP2 PUSH1 0x0 DUP2 EQ ISZERO PUSH2 0x9C6 JUMPI PUSH1 0x40 MLOAD PUSH32 0x8C379A000000000000000000000000000000000000000000000000000000000 DUP2 MSTORE PUSH1 0x4 ADD PUSH2 0x9BD SWAP1 PUSH2 0x2538 JUMP JUMPDEST PUSH1 0x40 MLOAD DUP1 SWAP2 SUB SWAP1 REVERT JUMPDEST PUSH1 0x1 ISZERO ISZERO PUSH1 0x6 PUSH1 0x0 DUP4 DUP2 MSTORE PUSH1 0x20 ADD SWAP1 DUP2 MSTORE PUSH1 0x20 ADD PUSH1 0x0 KECCAK256 PUSH1 0x0 SWAP1 SLOAD SWAP1 PUSH2 0x100 EXP SWAP1 DIV PUSH1 0xFF AND ISZERO ISZERO EQ PUSH2 0xA2D JUMPI PUSH1 0x40 MLOAD PUSH32 0x8C379A000000000000000000000000000000000000000000000000000000000 DUP2 MSTORE PUSH1 0x4 ADD PUSH2 0xA24 SWAP1 PUSH2 0x2518 JUMP JUMPDEST PUSH1 0x40 MLOAD DUP1 SWAP2 SUB SWAP1 REVERT JUMPDEST PUSH1 0x0 PUSH1 0x7 PUSH1 0x0 DUP4 DUP2 MSTORE PUSH1 0x20 ADD SWAP1 DUP2 MSTORE PUSH1 0x20 ADD PUSH1 0x0 KECCAK256 PUSH1 0x1 ADD SLOAD EQ PUSH2 0xA86 JUMPI PUSH1 0x40 MLOAD PUSH32 0x8C379A000000000000000000000000000000000000000000000000000000000 DUP2 MSTORE PUSH1 0x4 ADD PUSH2 0xA7D SWAP1 PUSH2 0x2698 JUMP JUMPDEST PUSH1 0x40 MLOAD DUP1 SWAP2 SUB SWAP1 REVERT JUMPDEST DUP4 MLOAD DUP6 MLOAD EQ PUSH2 0xACA JUMPI PUSH1 0x40 MLOAD PUSH32 0x8C379A000000000000000000000000000000000000000000000000000000000 DUP2 MSTORE PUSH1 0x4 ADD PUSH2 0xAC1 SWAP1 PUSH2 0x2578 JUMP JUMPDEST PUSH1 0x40 MLOAD DUP1 SWAP2 SUB SWAP1 REVERT JUMPDEST PUSH1 0x0 JUMPDEST DUP6 MLOAD DUP2 LT ISZERO PUSH2 0xD70 JUMPI PUSH2 0xAFA DUP5 DUP8 DUP4 DUP2 MLOAD DUP2 LT PUSH2 0xAED JUMPI PUSH2 0xAEC PUSH2 0x2994 JUMP JUMPDEST JUMPDEST PUSH1 0x20 MUL PUSH1 0x20 ADD ADD MLOAD PUSH2 0x7F7 JUMP JUMPDEST PUSH1 0x0 DUP7 DUP3 DUP2 MLOAD DUP2 LT PUSH2 0xB0F JUMPI PUSH2 0xB0E PUSH2 0x2994 JUMP JUMPDEST JUMPDEST PUSH1 0x20 MUL PUSH1 0x20 ADD ADD MLOAD EQ ISZERO PUSH2 0xB58 JUMPI PUSH1 0x40 MLOAD PUSH32 0x8C379A000000000000000000000000000000000000000000000000000000000 DUP2 MSTORE PUSH1 0x4 ADD PUSH2 0xB4F SWAP1 PUSH2 0x26D8 JUMP JUMPDEST PUSH1 0x40 MLOAD DUP1 SWAP2 SUB SWAP1 REVERT JUMPDEST PUSH1 0x1 ISZERO ISZERO PUSH1 0x6 PUSH1 0x0 DUP9 DUP5 DUP2 MLOAD DUP2 LT PUSH2 0xB73 JUMPI PUSH2 0xB72 PUSH2 0x2994 JUMP JUMPDEST JUMPDEST PUSH1 0x20 MUL PUSH1 0x20 ADD ADD MLOAD DUP2 MSTORE PUSH1 0x20 ADD SWAP1 DUP2 MSTORE PUSH1 0x20 ADD PUSH1 0x0 KECCAK256 PUSH1 0x0 SWAP1 SLOAD SWAP1 PUSH2 0x100 EXP SWAP1 DIV PUSH1 0xFF AND ISZERO ISZERO EQ PUSH2 0xBD9 JUMPI PUSH1 0x40 MLOAD PUSH32 0x8C379A000000000000000000000000000000000000000000000000000000000 DUP2 MSTORE PUSH1 0x4 ADD PUSH2 0xBD0 SWAP1 PUSH2 0x26F8 JUMP JUMPDEST PUSH1 0x40 MLOAD DUP1 SWAP2 SUB SWAP1 REVERT JUMPDEST PUSH1 0x0 PUSH1 0x7 PUSH1 0x0 DUP9 DUP5 DUP2 MLOAD DUP2 LT PUSH2 0xBF2 JUMPI PUSH2 0xBF1 PUSH2 0x2994 JUMP JUMPDEST JUMPDEST PUSH1 0x20 MUL PUSH1 0x20 ADD ADD MLOAD DUP2 MSTORE PUSH1 0x20 ADD SWAP1 DUP2 MSTORE PUSH1 0x20 ADD PUSH1 0x0 KECCAK256 PUSH1 0x1 ADD SLOAD EQ ISZERO PUSH2 0xC4D JUMPI PUSH1 0x40 MLOAD PUSH32 0x8C379A000000000000000000000000000000000000000000000000000000000 DUP2 MSTORE PUSH1 0x4 ADD PUSH2 0xC44 SWAP1 PUSH2 0x2658 JUMP JUMPDEST PUSH1 0x40 MLOAD DUP1 SWAP2 SUB SWAP1 REVERT JUMPDEST DUP5 DUP2 DUP2 MLOAD DUP2 LT PUSH2 0xC60 JUMPI PUSH2 0xC5F PUSH2 0x2994 JUMP JUMPDEST JUMPDEST PUSH1 0x20 MUL PUSH1 0x20 ADD ADD MLOAD PUSH1 0x7 PUSH1 0x0 DUP9 DUP5 DUP2 MLOAD DUP2 LT PUSH2 0xC7F JUMPI PUSH2 0xC7E PUSH2 0x2994 JUMP JUMPDEST JUMPDEST PUSH1 0x20 MUL PUSH1 0x20 ADD ADD MLOAD DUP2 MSTORE PUSH1 0x20 ADD SWAP1 DUP2 MSTORE PUSH1 0x20 ADD PUSH1 0x0 KECCAK256 PUSH1 0x0 ADD SLOAD EQ PUSH2 0xCD9 JUMPI PUSH1 0x40 MLOAD PUSH32 0x8C379A000000000000000000000000000000000000000000000000000000000 DUP2 MSTORE PUSH1 0x4 ADD PUSH2 0xCD0 SWAP1 PUSH2 0x25F8 JUMP JUMPDEST PUSH1 0x40 MLOAD DUP1 SWAP2 SUB SWAP1 REVERT JUMPDEST PUSH1 0x0 ISZERO ISZERO PUSH1 0x7 PUSH1 0x0 DUP9 DUP5 DUP2 MLOAD DUP2 LT PUSH2 0xCF4 JUMPI PUSH2 0xCF3 PUSH2 0x2994 JUMP JUMPDEST JUMPDEST PUSH1 0x20 MUL PUSH1 0x20 ADD ADD MLOAD DUP2 MSTORE PUSH1 0x20 ADD SWAP1 DUP2 MSTORE PUSH1 0x20 ADD PUSH1 0x0 KECCAK256 PUSH1 0x2 ADD PUSH1 0x0 SWAP1 SLOAD SWAP1 PUSH2 0x100 EXP SWAP1 DIV PUSH1 0xFF AND ISZERO ISZERO EQ PUSH2 0xD5D JUMPI PUSH1 0x40 MLOAD PUSH32 0x8C379A000000000000000000000000000000000000000000000000000000000 DUP2 MSTORE PUSH1 0x4 ADD PUSH2 0xD54 SWAP1 PUSH2 0x25B8 JUMP JUMPDEST PUSH1 0x40 MLOAD DUP1 SWAP2 SUB SWAP1 REVERT JUMPDEST DUP1 DUP1 PUSH2 0xD68 SWAP1 PUSH2 0x28ED JUMP JUMPDEST SWAP2 POP POP PUSH2 0xACD JUMP JUMPDEST POP PUSH1 0x8 PUSH1 0x0 DUP2 SLOAD DUP1 SWAP3 SWAP2 SWAP1 PUSH2 0xD84 SWAP1 PUSH2 0x28ED JUMP JUMPDEST SWAP2 SWAP1 POP SSTORE POP DUP2 PUSH1 0x7 PUSH1 0x0 DUP6 DUP2 MSTORE PUSH1 0x20 ADD SWAP1 DUP2 MSTORE PUSH1 0x20 ADD PUSH1 0x0 KECCAK256 PUSH1 0x0 ADD DUP2 SWAP1 SSTORE POP TIMESTAMP PUSH1 0x7 PUSH1 0x0 DUP6 DUP2 MSTORE PUSH1 0x20 ADD SWAP1 DUP2 MSTORE PUSH1 0x20 ADD PUSH1 0x0 KECCAK256 PUSH1 0x1 ADD DUP2 SWAP1 SSTORE POP PUSH1 0x0 DUP6 MLOAD EQ ISZERO PUSH2 0xDCE JUMPI PUSH2 0xEAD JUMP JUMPDEST DUP5 MLOAD PUSH1 0x9 PUSH1 0x0 DUP3 DUP3 SLOAD PUSH2 0xDE1 SWAP2 SWAP1 PUSH2 0x281E JUMP JUMPDEST SWAP3 POP POP DUP2 SWAP1 SSTORE POP PUSH1 0x0 JUMPDEST DUP6 MLOAD DUP2 LT ISZERO PUSH2 0xEAB JUMPI PUSH1 0x0 PUSH1 0x40 MLOAD DUP1 PUSH1 0x40 ADD PUSH1 0x40 MSTORE DUP1 DUP9 DUP5 DUP2 MLOAD DUP2 LT PUSH2 0xE14 JUMPI PUSH2 0xE13 PUSH2 0x2994 JUMP JUMPDEST JUMPDEST PUSH1 0x20 MUL PUSH1 0x20 ADD ADD MLOAD DUP2 MSTORE PUSH1 0x20 ADD DUP8 DUP5 DUP2 MLOAD DUP2 LT PUSH2 0xE34 JUMPI PUSH2 0xE33 PUSH2 0x2994 JUMP JUMPDEST JUMPDEST PUSH1 0x20 MUL PUSH1 0x20 ADD ADD MLOAD DUP2 MSTORE POP SWAP1 POP PUSH1 0x7 PUSH1 0x0 DUP7 DUP2 MSTORE PUSH1 0x20 ADD SWAP1 DUP2 MSTORE PUSH1 0x20 ADD PUSH1 0x0 KECCAK256 PUSH1 0x3 ADD DUP2 SWAP1 DUP1 PUSH1 0x1 DUP2 SLOAD ADD DUP1 DUP3 SSTORE DUP1 SWAP2 POP POP PUSH1 0x1 SWAP1 SUB SWAP1 PUSH1 0x0 MSTORE PUSH1 0x20 PUSH1 0x0 KECCAK256 SWAP1 PUSH1 0x2 MUL ADD PUSH1 0x0 SWAP1 SWAP2 SWAP1 SWAP2 SWAP1 SWAP2 POP PUSH1 0x0 DUP3 ADD MLOAD DUP2 PUSH1 0x0 ADD SSTORE PUSH1 0x20 DUP3 ADD MLOAD DUP2 PUSH1 0x1 ADD SSTORE POP POP POP DUP1 DUP1 PUSH2 0xEA3 SWAP1 PUSH2 0x28ED JUMP JUMPDEST SWAP2 POP POP PUSH2 0xDEB JUMP JUMPDEST POP JUMPDEST POP POP POP POP POP JUMP JUMPDEST PUSH1 0x7 PUSH1 0x20 MSTORE DUP1 PUSH1 0x0 MSTORE PUSH1 0x40 PUSH1 0x0 KECCAK256 PUSH1 0x0 SWAP2 POP SWAP1 POP DUP1 PUSH1 0x0 ADD SLOAD SWAP1 DUP1 PUSH1 0x1 ADD SLOAD SWAP1 DUP1 PUSH1 0x2 ADD PUSH1 0x0 SWAP1 SLOAD SWAP1 PUSH2 0x100 EXP SWAP1 DIV PUSH1 0xFF AND SWAP1 POP DUP4 JUMP JUMPDEST PUSH1 0x0 PUSH1 0x1 SLOAD PUSH1 0x2 SLOAD LT ISZERO PUSH2 0xEFE JUMPI PUSH1 0x0 DUP1 REVERT JUMPDEST PUSH1 0x0 DUP1 PUSH1 0x1 SLOAD DUP2 MSTORE PUSH1 0x20 ADD SWAP1 DUP2 MSTORE PUSH1 0x20 ADD PUSH1 0x0 KECCAK256 SLOAD SWAP1 POP PUSH1 0x2 SLOAD PUSH1 0x1 SLOAD EQ ISZERO PUSH2 0xF3D JUMPI PUSH1 0x1 PUSH1 0x3 PUSH1 0x0 PUSH2 0x100 EXP DUP2 SLOAD DUP2 PUSH1 0xFF MUL NOT AND SWAP1 DUP4 ISZERO ISZERO MUL OR SWAP1 SSTORE POP JUMPDEST PUSH1 0x0 DUP1 PUSH1 0x1 SLOAD DUP2 MSTORE PUSH1 0x20 ADD SWAP1 DUP2 MSTORE PUSH1 0x20 ADD PUSH1 0x0 KECCAK256 PUSH1 0x0 SWAP1 SSTORE PUSH1 0x1 DUP1 PUSH1 0x0 DUP3 DUP3 SLOAD PUSH2 0xF67 SWAP2 SWAP1 PUSH2 0x281E JUMP JUMPDEST SWAP3 POP POP DUP2 SWAP1 SSTORE POP SWAP1 JUMP JUMPDEST PUSH1 0x0 PUSH1 0x7 PUSH1 0x0 DUP4 DUP2 MSTORE PUSH1 0x20 ADD SWAP1 DUP2 MSTORE PUSH1 0x20 ADD PUSH1 0x0 KECCAK256 PUSH1 0x2 ADD PUSH1 0x0 SWAP1 SLOAD SWAP1 PUSH2 0x100 EXP SWAP1 DIV PUSH1 0xFF AND SWAP1 POP SWAP2 SWAP1 POP JUMP JUMPDEST PUSH1 0x0 PUSH1 0x8 SLOAD SWAP1 POP SWAP1 JUMP JUMPDEST PUSH1 0x0 PUSH1 0x9 SLOAD SWAP1 POP SWAP1 JUMP JUMPDEST PUSH2 0xFBA PUSH2 0x1CC7 JUMP JUMPDEST PUSH1 0x0 PUSH2 0xFC4 PUSH2 0x1CC7 JUMP JUMPDEST PUSH1 0x0 PUSH2 0xFCF DUP6 PUSH2 0x700 JUMP JUMPDEST PUSH1 0x0 JUMPDEST PUSH1 0x3 PUSH1 0x0 SWAP1 SLOAD SWAP1 PUSH2 0x100 EXP SWAP1 DIV PUSH1 0xFF AND PUSH2 0x110F JUMPI PUSH2 0xFEE PUSH2 0xEEB JUMP JUMPDEST SWAP1 POP PUSH2 0xFFA DUP2 DUP7 PUSH2 0x68D JUMP JUMPDEST PUSH2 0x102B JUMPI DUP1 DUP6 DUP6 PUSH2 0x200 DUP2 LT PUSH2 0x1013 JUMPI PUSH2 0x1012 PUSH2 0x2994 JUMP JUMPDEST JUMPDEST PUSH1 0x20 MUL ADD DUP2 DUP2 MSTORE POP POP DUP4 DUP1 PUSH2 0x1027 SWAP1 PUSH2 0x28ED JUMP JUMPDEST SWAP5 POP POP JUMPDEST PUSH1 0x0 JUMPDEST PUSH1 0x7 PUSH1 0x0 DUP4 DUP2 MSTORE PUSH1 0x20 ADD SWAP1 DUP2 MSTORE PUSH1 0x20 ADD PUSH1 0x0 KECCAK256 PUSH1 0x3 ADD DUP1 SLOAD SWAP1 POP DUP2 LT ISZERO PUSH2 0x1109 JUMPI PUSH2 0x1091 PUSH1 0x7 PUSH1 0x0 DUP5 DUP2 MSTORE PUSH1 0x20 ADD SWAP1 DUP2 MSTORE PUSH1 0x20 ADD PUSH1 0x0 KECCAK256 PUSH1 0x3 ADD DUP3 DUP2 SLOAD DUP2 LT PUSH2 0x107A JUMPI PUSH2 0x1079 PUSH2 0x2994 JUMP JUMPDEST JUMPDEST SWAP1 PUSH1 0x0 MSTORE PUSH1 0x20 PUSH1 0x0 KECCAK256 SWAP1 PUSH1 0x2 MUL ADD PUSH1 0x0 ADD SLOAD PUSH2 0x700 JUMP JUMPDEST PUSH1 0x7 PUSH1 0x0 DUP4 DUP2 MSTORE PUSH1 0x20 ADD SWAP1 DUP2 MSTORE PUSH1 0x20 ADD PUSH1 0x0 KECCAK256 PUSH1 0x3 ADD DUP2 DUP2 SLOAD DUP2 LT PUSH2 0x10B9 JUMPI PUSH2 0x10B8 PUSH2 0x2994 JUMP JUMPDEST JUMPDEST SWAP1 PUSH1 0x0 MSTORE PUSH1 0x20 PUSH1 0x0 KECCAK256 SWAP1 PUSH1 0x2 MUL ADD PUSH1 0x1 ADD SLOAD DUP5 DUP5 PUSH2 0x200 DUP2 LT PUSH2 0x10DF JUMPI PUSH2 0x10DE PUSH2 0x2994 JUMP JUMPDEST JUMPDEST PUSH1 0x20 MUL ADD DUP2 DUP2 MSTORE POP POP DUP3 DUP1 PUSH2 0x10F3 SWAP1 PUSH2 0x28ED JUMP JUMPDEST SWAP4 POP POP DUP1 DUP1 PUSH2 0x1101 SWAP1 PUSH2 0x28ED JUMP JUMPDEST SWAP2 POP POP PUSH2 0x102E JUMP JUMPDEST POP PUSH2 0xFD2 JUMP JUMPDEST POP POP POP POP POP POP JUMP JUMPDEST PUSH1 0x5 PUSH1 0x0 SWAP1 SLOAD SWAP1 PUSH2 0x100 EXP SWAP1 DIV PUSH20 0xFFFFFFFFFFFFFFFFFFFFFFFFFFFFFFFFFFFFFFFF AND PUSH20 0xFFFFFFFFFFFFFFFFFFFFFFFFFFFFFFFFFFFFFFFF AND CALLER PUSH20 0xFFFFFFFFFFFFFFFFFFFFFFFFFFFFFFFFFFFFFFFF AND EQ PUSH2 0x11A7 JUMPI PUSH1 0x40 MLOAD PUSH32 0x8C379A000000000000000000000000000000000000000000000000000000000 DUP2 MSTORE PUSH1 0x4 ADD PUSH2 0x119E SWAP1 PUSH2 0x26B8 JUMP JUMPDEST PUSH1 0x40 MLOAD DUP1 SWAP2 SUB SWAP1 REVERT JUMPDEST DUP1 PUSH1 0x0 DUP2 EQ ISZERO PUSH2 0x11EC JUMPI PUSH1 0x40 MLOAD PUSH32 0x8C379A000000000000000000000000000000000000000000000000000000000 DUP2 MSTORE PUSH1 0x4 ADD PUSH2 0x11E3 SWAP1 PUSH2 0x2538 JUMP JUMPDEST PUSH1 0x40 MLOAD DUP1 SWAP2 SUB SWAP1 REVERT JUMPDEST PUSH1 0x1 ISZERO ISZERO PUSH1 0x6 PUSH1 0x0 DUP4 DUP2 MSTORE PUSH1 0x20 ADD SWAP1 DUP2 MSTORE PUSH1 0x20 ADD PUSH1 0x0 KECCAK256 PUSH1 0x0 SWAP1 SLOAD SWAP1 PUSH2 0x100 EXP SWAP1 DIV PUSH1 0xFF AND ISZERO ISZERO EQ PUSH2 0x1253 JUMPI PUSH1 0x40 MLOAD PUSH32 0x8C379A000000000000000000000000000000000000000000000000000000000 DUP2 MSTORE PUSH1 0x4 ADD PUSH2 0x124A SWAP1 PUSH2 0x2518 JUMP JUMPDEST PUSH1 0x40 MLOAD DUP1 SWAP2 SUB SWAP1 REVERT JUMPDEST PUSH1 0x0 PUSH1 0x7 PUSH1 0x0 DUP4 DUP2 MSTORE PUSH1 0x20 ADD SWAP1 DUP2 MSTORE PUSH1 0x20 ADD PUSH1 0x0 KECCAK256 PUSH1 0x1 ADD SLOAD EQ PUSH2 0x12AC JUMPI PUSH1 0x40 MLOAD PUSH32 0x8C379A000000000000000000000000000000000000000000000000000000000 DUP2 MSTORE PUSH1 0x4 ADD PUSH2 0x12A3 SWAP1 PUSH2 0x2698 JUMP JUMPDEST PUSH1 0x40 MLOAD DUP1 SWAP2 SUB SWAP1 REVERT JUMPDEST POP POP JUMP JUMPDEST PUSH1 0x0 SWAP2 SWAP1 POP JUMP JUMPDEST PUSH1 0x5 PUSH1 0x0 SWAP1 SLOAD SWAP1 PUSH2 0x100 EXP SWAP1 DIV PUSH20 0xFFFFFFFFFFFFFFFFFFFFFFFFFFFFFFFFFFFFFFFF AND PUSH20 0xFFFFFFFFFFFFFFFFFFFFFFFFFFFFFFFFFFFFFFFF AND CALLER PUSH20 0xFFFFFFFFFFFFFFFFFFFFFFFFFFFFFFFFFFFFFFFF AND EQ PUSH2 0x1347 JUMPI PUSH1 0x40 MLOAD PUSH32 0x8C379A000000000000000000000000000000000000000000000000000000000 DUP2 MSTORE PUSH1 0x4 ADD PUSH2 0x133E SWAP1 PUSH2 0x26B8 JUMP JUMPDEST PUSH1 0x40 MLOAD DUP1 SWAP2 SUB SWAP1 REVERT JUMPDEST PUSH1 0x0 DUP2 EQ ISZERO PUSH2 0x138B JUMPI PUSH1 0x40 MLOAD PUSH32 0x8C379A000000000000000000000000000000000000000000000000000000000 DUP2 MSTORE PUSH1 0x4 ADD PUSH2 0x1382 SWAP1 PUSH2 0x2538 JUMP JUMPDEST PUSH1 0x40 MLOAD DUP1 SWAP2 SUB SWAP1 REVERT JUMPDEST PUSH1 0x1 ISZERO ISZERO PUSH1 0x6 PUSH1 0x0 DUP4 DUP2 MSTORE PUSH1 0x20 ADD SWAP1 DUP2 MSTORE PUSH1 0x20 ADD PUSH1 0x0 KECCAK256 PUSH1 0x0 SWAP1 SLOAD SWAP1 PUSH2 0x100 EXP SWAP1 DIV PUSH1 0xFF AND ISZERO ISZERO EQ PUSH2 0x13F2 JUMPI PUSH1 0x40 MLOAD PUSH32 0x8C379A000000000000000000000000000000000000000000000000000000000 DUP2 MSTORE PUSH1 0x4 ADD PUSH2 0x13E9 SWAP1 PUSH2 0x2518 JUMP JUMPDEST PUSH1 0x40 MLOAD DUP1 SWAP2 SUB SWAP1 REVERT JUMPDEST PUSH1 0x0 PUSH1 0x7 PUSH1 0x0 DUP4 DUP2 MSTORE PUSH1 0x20 ADD SWAP1 DUP2 MSTORE PUSH1 0x20 ADD PUSH1 0x0 KECCAK256 PUSH1 0x1 ADD SLOAD EQ ISZERO PUSH2 0x144C JUMPI PUSH1 0x40 MLOAD PUSH32 0x8C379A000000000000000000000000000000000000000000000000000000000 DUP2 MSTORE PUSH1 0x4 ADD PUSH2 0x1443 SWAP1 PUSH2 0x2638 JUMP JUMPDEST PUSH1 0x40 MLOAD DUP1 SWAP2 SUB SWAP1 REVERT JUMPDEST PUSH1 0x0 DUP4 MLOAD EQ ISZERO PUSH2 0x145B JUMPI PUSH2 0x1933 JUMP JUMPDEST PUSH1 0x0 JUMPDEST DUP4 MLOAD DUP2 LT ISZERO PUSH2 0x1701 JUMPI PUSH2 0x148B DUP3 DUP6 DUP4 DUP2 MLOAD DUP2 LT PUSH2 0x147E JUMPI PUSH2 0x147D PUSH2 0x2994 JUMP JUMPDEST JUMPDEST PUSH1 0x20 MUL PUSH1 0x20 ADD ADD MLOAD PUSH2 0x7F7 JUMP JUMPDEST PUSH1 0x0 DUP5 DUP3 DUP2 MLOAD DUP2 LT PUSH2 0x14A0 JUMPI PUSH2 0x149F PUSH2 0x2994 JUMP JUMPDEST JUMPDEST PUSH1 0x20 MUL PUSH1 0x20 ADD ADD MLOAD EQ ISZERO PUSH2 0x14E9 JUMPI PUSH1 0x40 MLOAD PUSH32 0x8C379A000000000000000000000000000000000000000000000000000000000 DUP2 MSTORE PUSH1 0x4 ADD PUSH2 0x14E0 SWAP1 PUSH2 0x26D8 JUMP JUMPDEST PUSH1 0x40 MLOAD DUP1 SWAP2 SUB SWAP1 REVERT JUMPDEST PUSH1 0x1 ISZERO ISZERO PUSH1 0x6 PUSH1 0x0 DUP7 DUP5 DUP2 MLOAD DUP2 LT PUSH2 0x1504 JUMPI PUSH2 0x1503 PUSH2 0x2994 JUMP JUMPDEST JUMPDEST PUSH1 0x20 MUL PUSH1 0x20 ADD ADD MLOAD DUP2 MSTORE PUSH1 0x20 ADD SWAP1 DUP2 MSTORE PUSH1 0x20 ADD PUSH1 0x0 KECCAK256 PUSH1 0x0 SWAP1 SLOAD SWAP1 PUSH2 0x100 EXP SWAP1 DIV PUSH1 0xFF AND ISZERO ISZERO EQ PUSH2 0x156A JUMPI PUSH1 0x40 MLOAD PUSH32 0x8C379A000000000000000000000000000000000000000000000000000000000 DUP2 MSTORE PUSH1 0x4 ADD PUSH2 0x1561 SWAP1 PUSH2 0x26F8 JUMP JUMPDEST PUSH1 0x40 MLOAD DUP1 SWAP2 SUB SWAP1 REVERT JUMPDEST PUSH1 0x0 PUSH1 0x7 PUSH1 0x0 DUP7 DUP5 DUP2 MLOAD DUP2 LT PUSH2 0x1583 JUMPI PUSH2 0x1582 PUSH2 0x2994 JUMP JUMPDEST JUMPDEST PUSH1 0x20 MUL PUSH1 0x20 ADD ADD MLOAD DUP2 MSTORE PUSH1 0x20 ADD SWAP1 DUP2 MSTORE PUSH1 0x20 ADD PUSH1 0x0 KECCAK256 PUSH1 0x1 ADD SLOAD EQ ISZERO PUSH2 0x15DE JUMPI PUSH1 0x40 MLOAD PUSH32 0x8C379A000000000000000000000000000000000000000000000000000000000 DUP2 MSTORE PUSH1 0x4 ADD PUSH2 0x15D5 SWAP1 PUSH2 0x2678 JUMP JUMPDEST PUSH1 0x40 MLOAD DUP1 SWAP2 SUB SWAP1 REVERT JUMPDEST DUP3 DUP2 DUP2 MLOAD DUP2 LT PUSH2 0x15F1 JUMPI PUSH2 0x15F0 PUSH2 0x2994 JUMP JUMPDEST JUMPDEST PUSH1 0x20 MUL PUSH1 0x20 ADD ADD MLOAD PUSH1 0x7 PUSH1 0x0 DUP7 DUP5 DUP2 MLOAD DUP2 LT PUSH2 0x1610 JUMPI PUSH2 0x160F PUSH2 0x2994 JUMP JUMPDEST JUMPDEST PUSH1 0x20 MUL PUSH1 0x20 ADD ADD MLOAD DUP2 MSTORE PUSH1 0x20 ADD SWAP1 DUP2 MSTORE PUSH1 0x20 ADD PUSH1 0x0 KECCAK256 PUSH1 0x0 ADD SLOAD EQ PUSH2 0x166A JUMPI PUSH1 0x40 MLOAD PUSH32 0x8C379A000000000000000000000000000000000000000000000000000000000 DUP2 MSTORE PUSH1 0x4 ADD PUSH2 0x1661 SWAP1 PUSH2 0x25F8 JUMP JUMPDEST PUSH1 0x40 MLOAD DUP1 SWAP2 SUB SWAP1 REVERT JUMPDEST PUSH1 0x0 ISZERO ISZERO PUSH1 0x7 PUSH1 0x0 DUP7 DUP5 DUP2 MLOAD DUP2 LT PUSH2 0x1685 JUMPI PUSH2 0x1684 PUSH2 0x2994 JUMP JUMPDEST JUMPDEST PUSH1 0x20 MUL PUSH1 0x20 ADD ADD MLOAD DUP2 MSTORE PUSH1 0x20 ADD SWAP1 DUP2 MSTORE PUSH1 0x20 ADD PUSH1 0x0 KECCAK256 PUSH1 0x2 ADD PUSH1 0x0 SWAP1 SLOAD SWAP1 PUSH2 0x100 EXP SWAP1 DIV PUSH1 0xFF AND ISZERO ISZERO EQ PUSH2 0x16EE JUMPI PUSH1 0x40 MLOAD PUSH32 0x8C379A000000000000000000000000000000000000000000000000000000000 DUP2 MSTORE PUSH1 0x4 ADD PUSH2 0x16E5 SWAP1 PUSH2 0x25B8 JUMP JUMPDEST PUSH1 0x40 MLOAD DUP1 SWAP2 SUB SWAP1 REVERT JUMPDEST DUP1 DUP1 PUSH2 0x16F9 SWAP1 PUSH2 0x28ED JUMP JUMPDEST SWAP2 POP POP PUSH2 0x145E JUMP JUMPDEST POP DUP2 MLOAD DUP4 MLOAD EQ PUSH2 0x1746 JUMPI PUSH1 0x40 MLOAD PUSH32 0x8C379A000000000000000000000000000000000000000000000000000000000 DUP2 MSTORE PUSH1 0x4 ADD PUSH2 0x173D SWAP1 PUSH2 0x2578 JUMP JUMPDEST PUSH1 0x40 MLOAD DUP1 SWAP2 SUB SWAP1 REVERT JUMPDEST PUSH1 0x0 PUSH2 0x1752 DUP3 DUP6 PUSH2 0x75B JUMP JUMPDEST SWAP1 POP DUP1 ISZERO PUSH2 0x1795 JUMPI PUSH1 0x40 MLOAD PUSH32 0x8C379A000000000000000000000000000000000000000000000000000000000 DUP2 MSTORE PUSH1 0x4 ADD PUSH2 0x178C SWAP1 PUSH2 0x2558 JUMP JUMPDEST PUSH1 0x40 MLOAD DUP1 SWAP2 SUB SWAP1 REVERT JUMPDEST PUSH1 0x0 JUMPDEST DUP5 MLOAD DUP2 LT ISZERO PUSH2 0x1930 JUMPI PUSH1 0x0 JUMPDEST PUSH1 0x7 PUSH1 0x0 DUP6 DUP2 MSTORE PUSH1 0x20 ADD SWAP1 DUP2 MSTORE PUSH1 0x20 ADD PUSH1 0x0 KECCAK256 PUSH1 0x3 ADD DUP1 SLOAD SWAP1 POP DUP2 LT ISZERO PUSH2 0x1904 JUMPI DUP6 DUP3 DUP2 MLOAD DUP2 LT PUSH2 0x17D8 JUMPI PUSH2 0x17D7 PUSH2 0x2994 JUMP JUMPDEST JUMPDEST PUSH1 0x20 MUL PUSH1 0x20 ADD ADD MLOAD PUSH1 0x7 PUSH1 0x0 DUP7 DUP2 MSTORE PUSH1 0x20 ADD SWAP1 DUP2 MSTORE PUSH1 0x20 ADD PUSH1 0x0 KECCAK256 PUSH1 0x3 ADD DUP3 DUP2 SLOAD DUP2 LT PUSH2 0x1808 JUMPI PUSH2 0x1807 PUSH2 0x2994 JUMP JUMPDEST JUMPDEST SWAP1 PUSH1 0x0 MSTORE PUSH1 0x20 PUSH1 0x0 KECCAK256 SWAP1 PUSH1 0x2 MUL ADD PUSH1 0x0 ADD SLOAD EQ ISZERO PUSH2 0x185B JUMPI PUSH1 0x40 MLOAD PUSH32 0x8C379A000000000000000000000000000000000000000000000000000000000 DUP2 MSTORE PUSH1 0x4 ADD PUSH2 0x1852 SWAP1 PUSH2 0x2618 JUMP JUMPDEST PUSH1 0x40 MLOAD DUP1 SWAP2 SUB SWAP1 REVERT JUMPDEST DUP4 PUSH1 0x7 PUSH1 0x0 DUP9 DUP6 DUP2 MLOAD DUP2 LT PUSH2 0x1873 JUMPI PUSH2 0x1872 PUSH2 0x2994 JUMP JUMPDEST JUMPDEST PUSH1 0x20 MUL PUSH1 0x20 ADD ADD MLOAD DUP2 MSTORE PUSH1 0x20 ADD SWAP1 DUP2 MSTORE PUSH1 0x20 ADD PUSH1 0x0 KECCAK256 PUSH1 0x3 ADD DUP3 DUP2 SLOAD DUP2 LT PUSH2 0x189E JUMPI PUSH2 0x189D PUSH2 0x2994 JUMP JUMPDEST JUMPDEST SWAP1 PUSH1 0x0 MSTORE PUSH1 0x20 PUSH1 0x0 KECCAK256 SWAP1 PUSH1 0x2 MUL ADD PUSH1 0x0 ADD SLOAD EQ ISZERO PUSH2 0x18F1 JUMPI PUSH1 0x40 MLOAD PUSH32 0x8C379A000000000000000000000000000000000000000000000000000000000 DUP2 MSTORE PUSH1 0x4 ADD PUSH2 0x18E8 SWAP1 PUSH2 0x2598 JUMP JUMPDEST PUSH1 0x40 MLOAD DUP1 SWAP2 SUB SWAP1 REVERT JUMPDEST DUP1 DUP1 PUSH2 0x18FC SWAP1 PUSH2 0x28ED JUMP JUMPDEST SWAP2 POP POP PUSH2 0x17A4 JUMP JUMPDEST POP PUSH1 0x9 PUSH1 0x0 DUP2 SLOAD DUP1 SWAP3 SWAP2 SWAP1 PUSH2 0x1918 SWAP1 PUSH2 0x28ED JUMP JUMPDEST SWAP2 SWAP1 POP SSTORE POP DUP1 DUP1 PUSH2 0x1928 SWAP1 PUSH2 0x28ED JUMP JUMPDEST SWAP2 POP POP PUSH2 0x1798 JUMP JUMPDEST POP POP JUMPDEST POP POP POP JUMP JUMPDEST PUSH1 0x5 PUSH1 0x0 SWAP1 SLOAD SWAP1 PUSH2 0x100 EXP SWAP1 DIV PUSH20 0xFFFFFFFFFFFFFFFFFFFFFFFFFFFFFFFFFFFFFFFF AND PUSH20 0xFFFFFFFFFFFFFFFFFFFFFFFFFFFFFFFFFFFFFFFF AND CALLER PUSH20 0xFFFFFFFFFFFFFFFFFFFFFFFFFFFFFFFFFFFFFFFF AND EQ PUSH2 0x19C8 JUMPI PUSH1 0x40 MLOAD PUSH32 0x8C379A000000000000000000000000000000000000000000000000000000000 DUP2 MSTORE PUSH1 0x4 ADD PUSH2 0x19BF SWAP1 PUSH2 0x26B8 JUMP JUMPDEST PUSH1 0x40 MLOAD DUP1 SWAP2 SUB SWAP1 REVERT JUMPDEST PUSH1 0x0 DUP3 EQ ISZERO PUSH2 0x1A0C JUMPI PUSH1 0x40 MLOAD PUSH32 0x8C379A000000000000000000000000000000000000000000000000000000000 DUP2 MSTORE PUSH1 0x4 ADD PUSH2 0x1A03 SWAP1 PUSH2 0x2538 JUMP JUMPDEST PUSH1 0x40 MLOAD DUP1 SWAP2 SUB SWAP1 REVERT JUMPDEST PUSH1 0x1 ISZERO ISZERO PUSH1 0x6 PUSH1 0x0 DUP5 DUP2 MSTORE PUSH1 0x20 ADD SWAP1 DUP2 MSTORE PUSH1 0x20 ADD PUSH1 0x0 KECCAK256 PUSH1 0x0 SWAP1 SLOAD SWAP1 PUSH2 0x100 EXP SWAP1 DIV PUSH1 0xFF AND ISZERO ISZERO EQ PUSH2 0x1A73 JUMPI PUSH1 0x40 MLOAD PUSH32 0x8C379A000000000000000000000000000000000000000000000000000000000 DUP2 MSTORE PUSH1 0x4 ADD PUSH2 0x1A6A SWAP1 PUSH2 0x2518 JUMP JUMPDEST PUSH1 0x40 MLOAD DUP1 SWAP2 SUB SWAP1 REVERT JUMPDEST PUSH1 0x0 PUSH1 0x7 PUSH1 0x0 DUP5 DUP2 MSTORE PUSH1 0x20 ADD SWAP1 DUP2 MSTORE PUSH1 0x20 ADD PUSH1 0x0 KECCAK256 PUSH1 0x1 ADD SLOAD EQ ISZERO PUSH2 0x1ACD JUMPI PUSH1 0x40 MLOAD PUSH32 0x8C379A000000000000000000000000000000000000000000000000000000000 DUP2 MSTORE PUSH1 0x4 ADD PUSH2 0x1AC4 SWAP1 PUSH2 0x2638 JUMP JUMPDEST PUSH1 0x40 MLOAD DUP1 SWAP2 SUB SWAP1 REVERT JUMPDEST DUP1 PUSH1 0x7 PUSH1 0x0 DUP5 DUP2 MSTORE PUSH1 0x20 ADD SWAP1 DUP2 MSTORE PUSH1 0x20 ADD PUSH1 0x0 KECCAK256 PUSH1 0x2 ADD PUSH1 0x0 PUSH2 0x100 EXP DUP2 SLOAD DUP2 PUSH1 0xFF MUL NOT AND SWAP1 DUP4 ISZERO ISZERO MUL OR SWAP1 SSTORE ISZERO PUSH2 0x1B04 JUMPI PUSH2 0x1B33 JUMP JUMPDEST DUP1 PUSH1 0x7 PUSH1 0x0 DUP5 DUP2 MSTORE PUSH1 0x20 ADD SWAP1 DUP2 MSTORE PUSH1 0x20 ADD PUSH1 0x0 KECCAK256 PUSH1 0x2 ADD PUSH1 0x0 PUSH2 0x100 EXP DUP2 SLOAD DUP2 PUSH1 0xFF MUL NOT AND SWAP1 DUP4 ISZERO ISZERO MUL OR SWAP1 SSTORE POP JUMPDEST POP POP JUMP JUMPDEST PUSH1 0x5 PUSH1 0x0 SWAP1 SLOAD SWAP1 PUSH2 0x100 EXP SWAP1 DIV PUSH20 0xFFFFFFFFFFFFFFFFFFFFFFFFFFFFFFFFFFFFFFFF AND PUSH20 0xFFFFFFFFFFFFFFFFFFFFFFFFFFFFFFFFFFFFFFFF AND CALLER PUSH20 0xFFFFFFFFFFFFFFFFFFFFFFFFFFFFFFFFFFFFFFFF AND EQ PUSH2 0x1BC7 JUMPI PUSH1 0x40 MLOAD PUSH32 0x8C379A000000000000000000000000000000000000000000000000000000000 DUP2 MSTORE PUSH1 0x4 ADD PUSH2 0x1BBE SWAP1 PUSH2 0x26B8 JUMP JUMPDEST PUSH1 0x40 MLOAD DUP1 SWAP2 SUB SWAP1 REVERT JUMPDEST PUSH1 0x1 PUSH1 0x6 PUSH1 0x0 PUSH1 0x1 DUP2 MSTORE PUSH1 0x20 ADD SWAP1 DUP2 MSTORE PUSH1 0x20 ADD PUSH1 0x0 KECCAK256 PUSH1 0x0 PUSH2 0x100 EXP DUP2 SLOAD DUP2 PUSH1 0xFF MUL NOT AND SWAP1 DUP4 ISZERO ISZERO MUL OR SWAP1 SSTORE POP PUSH1 0x1 PUSH1 0x6 PUSH1 0x0 PUSH1 0x2 DUP2 MSTORE PUSH1 0x20 ADD SWAP1 DUP2 MSTORE PUSH1 0x20 ADD PUSH1 0x0 KECCAK256 PUSH1 0x0 PUSH2 0x100 EXP DUP2 SLOAD DUP2 PUSH1 0xFF MUL NOT AND SWAP1 DUP4 ISZERO ISZERO MUL OR SWAP1 SSTORE POP PUSH1 0x1 PUSH1 0x6 PUSH1 0x0 PUSH1 0x3 DUP2 MSTORE PUSH1 0x20 ADD SWAP1 DUP2 MSTORE PUSH1 0x20 ADD PUSH1 0x0 KECCAK256 PUSH1 0x0 PUSH2 0x100 EXP DUP2 SLOAD DUP2 PUSH1 0xFF MUL NOT AND SWAP1 DUP4 ISZERO ISZERO MUL OR SWAP1 SSTORE POP JUMP JUMPDEST PUSH1 0x0 JUMPDEST PUSH1 0x4 PUSH1 0x0 DUP4 DUP2 MSTORE PUSH1 0x20 ADD SWAP1 DUP2 MSTORE PUSH1 0x20 ADD PUSH1 0x0 KECCAK256 PUSH1 0x0 ADD DUP1 SLOAD SWAP1 POP DUP2 LT ISZERO PUSH2 0x1CC3 JUMPI PUSH1 0x4 PUSH1 0x0 DUP4 DUP2 MSTORE PUSH1 0x20 ADD SWAP1 DUP2 MSTORE PUSH1 0x20 ADD PUSH1 0x0 KECCAK256 PUSH1 0x0 ADD DUP1 SLOAD DUP1 PUSH2 0x1C9A JUMPI PUSH2 0x1C99 PUSH2 0x2965 JUMP JUMPDEST JUMPDEST PUSH1 0x1 SWAP1 SUB DUP2 DUP2 SWAP1 PUSH1 0x0 MSTORE PUSH1 0x20 PUSH1 0x0 KECCAK256 ADD PUSH1 0x0 SWAP1 SSTORE SWAP1 SSTORE DUP1 DUP1 PUSH2 0x1CBB SWAP1 PUSH2 0x28ED JUMP JUMPDEST SWAP2 POP POP PUSH2 0x1C53 JUMP JUMPDEST POP POP JUMP JUMPDEST PUSH1 0x40 MLOAD DUP1 PUSH2 0x4000 ADD PUSH1 0x40 MSTORE DUP1 PUSH2 0x200 SWAP1 PUSH1 0x20 DUP3 MUL DUP1 CALLDATASIZE DUP4 CALLDATACOPY DUP1 DUP3 ADD SWAP2 POP POP SWAP1 POP POP SWAP1 JUMP JUMPDEST PUSH1 0x0 PUSH2 0x1CFE PUSH2 0x1CF9 DUP5 PUSH2 0x278F JUMP JUMPDEST PUSH2 0x276A JUMP JUMPDEST SWAP1 POP DUP1 DUP4 DUP3 MSTORE PUSH1 0x20 DUP3 ADD SWAP1 POP DUP3 DUP6 PUSH1 0x40 DUP7 MUL DUP3 ADD GT ISZERO PUSH2 0x1D21 JUMPI PUSH2 0x1D20 PUSH2 0x2A01 JUMP JUMPDEST JUMPDEST PUSH1 0x0 JUMPDEST DUP6 DUP2 LT ISZERO PUSH2 0x1D51 JUMPI DUP2 PUSH2 0x1D37 DUP9 DUP3 PUSH2 0x1ECF JUMP JUMPDEST DUP5 MSTORE PUSH1 0x20 DUP5 ADD SWAP4 POP PUSH1 0x40 DUP4 ADD SWAP3 POP POP PUSH1 0x1 DUP2 ADD SWAP1 POP PUSH2 0x1D24 JUMP JUMPDEST POP POP POP SWAP4 SWAP3 POP POP POP JUMP JUMPDEST PUSH1 0x0 PUSH2 0x1D6E PUSH2 0x1D69 DUP5 PUSH2 0x27BB JUMP JUMPDEST PUSH2 0x276A JUMP JUMPDEST SWAP1 POP DUP1 DUP3 DUP6 PUSH1 0x20 DUP7 MUL DUP3 ADD GT ISZERO PUSH2 0x1D88 JUMPI PUSH2 0x1D87 PUSH2 0x2A01 JUMP JUMPDEST JUMPDEST PUSH1 0x0 JUMPDEST DUP6 DUP2 LT ISZERO PUSH2 0x1DB8 JUMPI DUP2 PUSH2 0x1D9E DUP9 DUP3 PUSH2 0x1FB3 JUMP JUMPDEST DUP5 MSTORE PUSH1 0x20 DUP5 ADD SWAP4 POP PUSH1 0x20 DUP4 ADD SWAP3 POP POP PUSH1 0x1 DUP2 ADD SWAP1 POP PUSH2 0x1D8B JUMP JUMPDEST POP POP POP SWAP4 SWAP3 POP POP POP JUMP JUMPDEST PUSH1 0x0 PUSH2 0x1DD5 PUSH2 0x1DD0 DUP5 PUSH2 0x27E1 JUMP JUMPDEST PUSH2 0x276A JUMP JUMPDEST SWAP1 POP DUP1 DUP4 DUP3 MSTORE PUSH1 0x20 DUP3 ADD SWAP1 POP DUP3 DUP6 PUSH1 0x20 DUP7 MUL DUP3 ADD GT ISZERO PUSH2 0x1DF8 JUMPI PUSH2 0x1DF7 PUSH2 0x2A01 JUMP JUMPDEST JUMPDEST PUSH1 0x0 JUMPDEST DUP6 DUP2 LT ISZERO PUSH2 0x1E28 JUMPI DUP2 PUSH2 0x1E0E DUP9 DUP3 PUSH2 0x1FB3 JUMP JUMPDEST DUP5 MSTORE PUSH1 0x20 DUP5 ADD SWAP4 POP PUSH1 0x20 DUP4 ADD SWAP3 POP POP PUSH1 0x1 DUP2 ADD SWAP1 POP PUSH2 0x1DFB JUMP JUMPDEST POP POP POP SWAP4 SWAP3 POP POP POP JUMP JUMPDEST PUSH1 0x0 DUP3 PUSH1 0x1F DUP4 ADD SLT PUSH2 0x1E47 JUMPI PUSH2 0x1E46 PUSH2 0x29F2 JUMP JUMPDEST JUMPDEST DUP2 CALLDATALOAD PUSH2 0x1E57 DUP5 DUP3 PUSH1 0x20 DUP7 ADD PUSH2 0x1CEB JUMP JUMPDEST SWAP2 POP POP SWAP3 SWAP2 POP POP JUMP JUMPDEST PUSH1 0x0 DUP3 PUSH1 0x1F DUP4 ADD SLT PUSH2 0x1E75 JUMPI PUSH2 0x1E74 PUSH2 0x29F2 JUMP JUMPDEST JUMPDEST PUSH2 0x200 PUSH2 0x1E83 DUP5 DUP3 DUP6 PUSH2 0x1D5B JUMP JUMPDEST SWAP2 POP POP SWAP3 SWAP2 POP POP JUMP JUMPDEST PUSH1 0x0 DUP3 PUSH1 0x1F DUP4 ADD SLT PUSH2 0x1EA1 JUMPI PUSH2 0x1EA0 PUSH2 0x29F2 JUMP JUMPDEST JUMPDEST DUP2 CALLDATALOAD PUSH2 0x1EB1 DUP5 DUP3 PUSH1 0x20 DUP7 ADD PUSH2 0x1DC2 JUMP JUMPDEST SWAP2 POP POP SWAP3 SWAP2 POP POP JUMP JUMPDEST PUSH1 0x0 DUP2 CALLDATALOAD SWAP1 POP PUSH2 0x1EC9 DUP2 PUSH2 0x2E9F JUMP JUMPDEST SWAP3 SWAP2 POP POP JUMP JUMPDEST PUSH1 0x0 PUSH1 0x40 DUP3 DUP5 SUB SLT ISZERO PUSH2 0x1EE5 JUMPI PUSH2 0x1EE4 PUSH2 0x29F7 JUMP JUMPDEST JUMPDEST PUSH2 0x1EEF PUSH1 0x40 PUSH2 0x276A JUMP JUMPDEST SWAP1 POP PUSH1 0x0 PUSH2 0x1EFF DUP5 DUP3 DUP6 ADD PUSH2 0x1FB3 JUMP JUMPDEST PUSH1 0x0 DUP4 ADD MSTORE POP PUSH1 0x20 PUSH2 0x1F13 DUP5 DUP3 DUP6 ADD PUSH2 0x1FB3 JUMP JUMPDEST PUSH1 0x20 DUP4 ADD MSTORE POP SWAP3 SWAP2 POP POP JUMP JUMPDEST PUSH1 0x0 PUSH1 0x80 DUP3 DUP5 SUB SLT ISZERO PUSH2 0x1F35 JUMPI PUSH2 0x1F34 PUSH2 0x29F7 JUMP JUMPDEST JUMPDEST PUSH2 0x1F3F PUSH1 0x80 PUSH2 0x276A JUMP JUMPDEST SWAP1 POP PUSH1 0x0 PUSH2 0x1F4F DUP5 DUP3 DUP6 ADD PUSH2 0x1FB3 JUMP JUMPDEST PUSH1 0x0 DUP4 ADD MSTORE POP PUSH1 0x20 PUSH2 0x1F63 DUP5 DUP3 DUP6 ADD PUSH2 0x1FB3 JUMP JUMPDEST PUSH1 0x20 DUP4 ADD MSTORE POP PUSH1 0x40 PUSH2 0x1F77 DUP5 DUP3 DUP6 ADD PUSH2 0x1EBA JUMP JUMPDEST PUSH1 0x40 DUP4 ADD MSTORE POP PUSH1 0x60 DUP3 ADD CALLDATALOAD PUSH8 0xFFFFFFFFFFFFFFFF DUP2 GT ISZERO PUSH2 0x1F9B JUMPI PUSH2 0x1F9A PUSH2 0x29FC JUMP JUMPDEST JUMPDEST PUSH2 0x1FA7 DUP5 DUP3 DUP6 ADD PUSH2 0x1E32 JUMP JUMPDEST PUSH1 0x60 DUP4 ADD MSTORE POP SWAP3 SWAP2 POP POP JUMP JUMPDEST PUSH1 0x0 DUP2 CALLDATALOAD SWAP1 POP PUSH2 0x1FC2 DUP2 PUSH2 0x2EB6 JUMP JUMPDEST SWAP3 SWAP2 POP POP JUMP JUMPDEST PUSH1 0x0 DUP1 PUSH1 0x0 PUSH1 0x60 DUP5 DUP7 SUB SLT ISZERO PUSH2 0x1FE1 JUMPI PUSH2 0x1FE0 PUSH2 0x2A0B JUMP JUMPDEST JUMPDEST PUSH1 0x0 DUP5 ADD CALLDATALOAD PUSH8 0xFFFFFFFFFFFFFFFF DUP2 GT ISZERO PUSH2 0x1FFF JUMPI PUSH2 0x1FFE PUSH2 0x2A06 JUMP JUMPDEST JUMPDEST PUSH2 0x200B DUP7 DUP3 DUP8 ADD PUSH2 0x1E8C JUMP JUMPDEST SWAP4 POP POP PUSH1 0x20 DUP5 ADD CALLDATALOAD PUSH8 0xFFFFFFFFFFFFFFFF DUP2 GT ISZERO PUSH2 0x202C JUMPI PUSH2 0x202B PUSH2 0x2A06 JUMP JUMPDEST JUMPDEST PUSH2 0x2038 DUP7 DUP3 DUP8 ADD PUSH2 0x1E8C JUMP JUMPDEST SWAP3 POP POP PUSH1 0x40 PUSH2 0x2049 DUP7 DUP3 DUP8 ADD PUSH2 0x1FB3 JUMP JUMPDEST SWAP2 POP POP SWAP3 POP SWAP3 POP SWAP3 JUMP JUMPDEST PUSH1 0x0 DUP1 PUSH1 0x0 DUP1 PUSH1 0x80 DUP6 DUP8 SUB SLT ISZERO PUSH2 0x206D JUMPI PUSH2 0x206C PUSH2 0x2A0B JUMP JUMPDEST JUMPDEST PUSH1 0x0 DUP6 ADD CALLDATALOAD PUSH8 0xFFFFFFFFFFFFFFFF DUP2 GT ISZERO PUSH2 0x208B JUMPI PUSH2 0x208A PUSH2 0x2A06 JUMP JUMPDEST JUMPDEST PUSH2 0x2097 DUP8 DUP3 DUP9 ADD PUSH2 0x1E8C JUMP JUMPDEST SWAP5 POP POP PUSH1 0x20 DUP6 ADD CALLDATALOAD PUSH8 0xFFFFFFFFFFFFFFFF DUP2 GT ISZERO PUSH2 0x20B8 JUMPI PUSH2 0x20B7 PUSH2 0x2A06 JUMP JUMPDEST JUMPDEST PUSH2 0x20C4 DUP8 DUP3 DUP9 ADD PUSH2 0x1E8C JUMP JUMPDEST SWAP4 POP POP PUSH1 0x40 PUSH2 0x20D5 DUP8 DUP3 DUP9 ADD PUSH2 0x1FB3 JUMP JUMPDEST SWAP3 POP POP PUSH1 0x60 PUSH2 0x20E6 DUP8 DUP3 DUP9 ADD PUSH2 0x1FB3 JUMP JUMPDEST SWAP2 POP POP SWAP3 SWAP6 SWAP2 SWAP5 POP SWAP3 POP JUMP JUMPDEST PUSH1 0x0 PUSH1 0x20 DUP3 DUP5 SUB SLT ISZERO PUSH2 0x2108 JUMPI PUSH2 0x2107 PUSH2 0x2A0B JUMP JUMPDEST JUMPDEST PUSH1 0x0 DUP3 ADD CALLDATALOAD PUSH8 0xFFFFFFFFFFFFFFFF DUP2 GT ISZERO PUSH2 0x2126 JUMPI PUSH2 0x2125 PUSH2 0x2A06 JUMP JUMPDEST JUMPDEST PUSH2 0x2132 DUP5 DUP3 DUP6 ADD PUSH2 0x1F1F JUMP JUMPDEST SWAP2 POP POP SWAP3 SWAP2 POP POP JUMP JUMPDEST PUSH1 0x0 PUSH1 0x20 DUP3 DUP5 SUB SLT ISZERO PUSH2 0x2151 JUMPI PUSH2 0x2150 PUSH2 0x2A0B JUMP JUMPDEST JUMPDEST PUSH1 0x0 PUSH2 0x215F DUP5 DUP3 DUP6 ADD PUSH2 0x1FB3 JUMP JUMPDEST SWAP2 POP POP SWAP3 SWAP2 POP POP JUMP JUMPDEST PUSH1 0x0 DUP1 PUSH2 0x4020 DUP4 DUP6 SUB SLT ISZERO PUSH2 0x2180 JUMPI PUSH2 0x217F PUSH2 0x2A0B JUMP JUMPDEST JUMPDEST PUSH1 0x0 PUSH2 0x218E DUP6 DUP3 DUP7 ADD PUSH2 0x1FB3 JUMP JUMPDEST SWAP3 POP POP PUSH1 0x20 PUSH2 0x219F DUP6 DUP3 DUP7 ADD PUSH2 0x1E60 JUMP JUMPDEST SWAP2 POP POP SWAP3 POP SWAP3 SWAP1 POP JUMP JUMPDEST PUSH1 0x0 DUP1 PUSH1 0x40 DUP4 DUP6 SUB SLT ISZERO PUSH2 0x21C0 JUMPI PUSH2 0x21BF PUSH2 0x2A0B JUMP JUMPDEST JUMPDEST PUSH1 0x0 PUSH2 0x21CE DUP6 DUP3 DUP7 ADD PUSH2 0x1FB3 JUMP JUMPDEST SWAP3 POP POP PUSH1 0x20 DUP4 ADD CALLDATALOAD PUSH8 0xFFFFFFFFFFFFFFFF DUP2 GT ISZERO PUSH2 0x21EF JUMPI PUSH2 0x21EE PUSH2 0x2A06 JUMP JUMPDEST JUMPDEST PUSH2 0x21FB DUP6 DUP3 DUP7 ADD PUSH2 0x1E8C JUMP JUMPDEST SWAP2 POP POP SWAP3 POP SWAP3 SWAP1 POP JUMP JUMPDEST PUSH1 0x0 DUP1 PUSH1 0x40 DUP4 DUP6 SUB SLT ISZERO PUSH2 0x221C JUMPI PUSH2 0x221B PUSH2 0x2A0B JUMP JUMPDEST JUMPDEST PUSH1 0x0 PUSH2 0x222A DUP6 DUP3 DUP7 ADD PUSH2 0x1FB3 JUMP JUMPDEST SWAP3 POP POP PUSH1 0x20 PUSH2 0x223B DUP6 DUP3 DUP7 ADD PUSH2 0x1EBA JUMP JUMPDEST SWAP2 POP POP SWAP3 POP SWAP3 SWAP1 POP JUMP JUMPDEST PUSH1 0x0 DUP1 PUSH1 0x40 DUP4 DUP6 SUB SLT ISZERO PUSH2 0x225C JUMPI PUSH2 0x225B PUSH2 0x2A0B JUMP JUMPDEST JUMPDEST PUSH1 0x0 PUSH2 0x226A DUP6 DUP3 DUP7 ADD PUSH2 0x1FB3 JUMP JUMPDEST SWAP3 POP POP PUSH1 0x20 PUSH2 0x227B DUP6 DUP3 DUP7 ADD PUSH2 0x1FB3 JUMP JUMPDEST SWAP2 POP POP SWAP3 POP SWAP3 SWAP1 POP JUMP JUMPDEST PUSH2 0x228E DUP2 PUSH2 0x2874 JUMP JUMPDEST DUP3 MSTORE POP POP JUMP JUMPDEST PUSH2 0x229D DUP2 PUSH2 0x2886 JUMP JUMPDEST DUP3 MSTORE POP POP JUMP JUMPDEST PUSH1 0x0 PUSH2 0x22B0 PUSH1 0x2C DUP4 PUSH2 0x280D JUMP JUMPDEST SWAP2 POP PUSH2 0x22BB DUP3 PUSH2 0x2A21 JUMP JUMPDEST PUSH1 0x40 DUP3 ADD SWAP1 POP SWAP2 SWAP1 POP JUMP JUMPDEST PUSH1 0x0 PUSH2 0x22D3 PUSH1 0x1B DUP4 PUSH2 0x280D JUMP JUMPDEST SWAP2 POP PUSH2 0x22DE DUP3 PUSH2 0x2A70 JUMP JUMPDEST PUSH1 0x20 DUP3 ADD SWAP1 POP SWAP2 SWAP1 POP JUMP JUMPDEST PUSH1 0x0 PUSH2 0x22F6 PUSH1 0x2C DUP4 PUSH2 0x280D JUMP JUMPDEST SWAP2 POP PUSH2 0x2301 DUP3 PUSH2 0x2A99 JUMP JUMPDEST PUSH1 0x40 DUP3 ADD SWAP1 POP SWAP2 SWAP1 POP JUMP JUMPDEST PUSH1 0x0 PUSH2 0x2319 PUSH1 0x37 DUP4 PUSH2 0x280D JUMP JUMPDEST SWAP2 POP PUSH2 0x2324 DUP3 PUSH2 0x2AE8 JUMP JUMPDEST PUSH1 0x40 DUP3 ADD SWAP1 POP SWAP2 SWAP1 POP JUMP JUMPDEST PUSH1 0x0 PUSH2 0x233C PUSH1 0x24 DUP4 PUSH2 0x280D JUMP JUMPDEST SWAP2 POP PUSH2 0x2347 DUP3 PUSH2 0x2B37 JUMP JUMPDEST PUSH1 0x40 DUP3 ADD SWAP1 POP SWAP2 SWAP1 POP JUMP JUMPDEST PUSH1 0x0 PUSH2 0x235F PUSH1 0x3A DUP4 PUSH2 0x280D JUMP JUMPDEST SWAP2 POP PUSH2 0x236A DUP3 PUSH2 0x2B86 JUMP JUMPDEST PUSH1 0x40 DUP3 ADD SWAP1 POP SWAP2 SWAP1 POP JUMP JUMPDEST PUSH1 0x0 PUSH2 0x2382 PUSH1 0x33 DUP4 PUSH2 0x280D JUMP JUMPDEST SWAP2 POP PUSH2 0x238D DUP3 PUSH2 0x2BD5 JUMP JUMPDEST PUSH1 0x40 DUP3 ADD SWAP1 POP SWAP2 SWAP1 POP JUMP JUMPDEST PUSH1 0x0 PUSH2 0x23A5 PUSH1 0x34 DUP4 PUSH2 0x280D JUMP JUMPDEST SWAP2 POP PUSH2 0x23B0 DUP3 PUSH2 0x2C24 JUMP JUMPDEST PUSH1 0x40 DUP3 ADD SWAP1 POP SWAP2 SWAP1 POP JUMP JUMPDEST PUSH1 0x0 PUSH2 0x23C8 PUSH1 0x3C DUP4 PUSH2 0x280D JUMP JUMPDEST SWAP2 POP PUSH2 0x23D3 DUP3 PUSH2 0x2C73 JUMP JUMPDEST PUSH1 0x40 DUP3 ADD SWAP1 POP SWAP2 SWAP1 POP JUMP JUMPDEST PUSH1 0x0 PUSH2 0x23EB PUSH1 0x1F DUP4 PUSH2 0x280D JUMP JUMPDEST SWAP2 POP PUSH2 0x23F6 DUP3 PUSH2 0x2CC2 JUMP JUMPDEST PUSH1 0x20 DUP3 ADD SWAP1 POP SWAP2 SWAP1 POP JUMP JUMPDEST PUSH1 0x0 PUSH2 0x240E PUSH1 0x2D DUP4 PUSH2 0x280D JUMP JUMPDEST SWAP2 POP PUSH2 0x2419 DUP3 PUSH2 0x2CEB JUMP JUMPDEST PUSH1 0x40 DUP3 ADD SWAP1 POP SWAP2 SWAP1 POP JUMP JUMPDEST PUSH1 0x0 PUSH2 0x2431 PUSH1 0x2B DUP4 PUSH2 0x280D JUMP JUMPDEST SWAP2 POP PUSH2 0x243C DUP3 PUSH2 0x2D3A JUMP JUMPDEST PUSH1 0x40 DUP3 ADD SWAP1 POP SWAP2 SWAP1 POP JUMP JUMPDEST PUSH1 0x0 PUSH2 0x2454 PUSH1 0x24 DUP4 PUSH2 0x280D JUMP JUMPDEST SWAP2 POP PUSH2 0x245F DUP3 PUSH2 0x2D89 JUMP JUMPDEST PUSH1 0x40 DUP3 ADD SWAP1 POP SWAP2 SWAP1 POP JUMP JUMPDEST PUSH1 0x0 PUSH2 0x2477 PUSH1 0x13 DUP4 PUSH2 0x280D JUMP JUMPDEST SWAP2 POP PUSH2 0x2482 DUP3 PUSH2 0x2DD8 JUMP JUMPDEST PUSH1 0x20 DUP3 ADD SWAP1 POP SWAP2 SWAP1 POP JUMP JUMPDEST PUSH1 0x0 PUSH2 0x249A PUSH1 0x21 DUP4 PUSH2 0x280D JUMP JUMPDEST SWAP2 POP PUSH2 0x24A5 DUP3 PUSH2 0x2E01 JUMP JUMPDEST PUSH1 0x40 DUP3 ADD SWAP1 POP SWAP2 SWAP1 POP JUMP JUMPDEST PUSH1 0x0 PUSH2 0x24BD PUSH1 0x2F DUP4 PUSH2 0x280D JUMP JUMPDEST SWAP2 POP PUSH2 0x24C8 DUP3 PUSH2 0x2E50 JUMP JUMPDEST PUSH1 0x40 DUP3 ADD SWAP1 POP SWAP2 SWAP1 POP JUMP JUMPDEST PUSH2 0x24DC DUP2 PUSH2 0x28B2 JUMP JUMPDEST DUP3 MSTORE POP POP JUMP JUMPDEST PUSH1 0x0 PUSH1 0x20 DUP3 ADD SWAP1 POP PUSH2 0x24F7 PUSH1 0x0 DUP4 ADD DUP5 PUSH2 0x2285 JUMP JUMPDEST SWAP3 SWAP2 POP POP JUMP JUMPDEST PUSH1 0x0 PUSH1 0x20 DUP3 ADD SWAP1 POP PUSH2 0x2512 PUSH1 0x0 DUP4 ADD DUP5 PUSH2 0x2294 JUMP JUMPDEST SWAP3 SWAP2 POP POP JUMP JUMPDEST PUSH1 0x0 PUSH1 0x20 DUP3 ADD SWAP1 POP DUP2 DUP2 SUB PUSH1 0x0 DUP4 ADD MSTORE PUSH2 0x2531 DUP2 PUSH2 0x22A3 JUMP JUMPDEST SWAP1 POP SWAP2 SWAP1 POP JUMP JUMPDEST PUSH1 0x0 PUSH1 0x20 DUP3 ADD SWAP1 POP DUP2 DUP2 SUB PUSH1 0x0 DUP4 ADD MSTORE PUSH2 0x2551 DUP2 PUSH2 0x22C6 JUMP JUMPDEST SWAP1 POP SWAP2 SWAP1 POP JUMP JUMPDEST PUSH1 0x0 PUSH1 0x20 DUP3 ADD SWAP1 POP DUP2 DUP2 SUB PUSH1 0x0 DUP4 ADD MSTORE PUSH2 0x2571 DUP2 PUSH2 0x22E9 JUMP JUMPDEST SWAP1 POP SWAP2 SWAP1 POP JUMP JUMPDEST PUSH1 0x0 PUSH1 0x20 DUP3 ADD SWAP1 POP DUP2 DUP2 SUB PUSH1 0x0 DUP4 ADD MSTORE PUSH2 0x2591 DUP2 PUSH2 0x230C JUMP JUMPDEST SWAP1 POP SWAP2 SWAP1 POP JUMP JUMPDEST PUSH1 0x0 PUSH1 0x20 DUP3 ADD SWAP1 POP DUP2 DUP2 SUB PUSH1 0x0 DUP4 ADD MSTORE PUSH2 0x25B1 DUP2 PUSH2 0x232F JUMP JUMPDEST SWAP1 POP SWAP2 SWAP1 POP JUMP JUMPDEST PUSH1 0x0 PUSH1 0x20 DUP3 ADD SWAP1 POP DUP2 DUP2 SUB PUSH1 0x0 DUP4 ADD MSTORE PUSH2 0x25D1 DUP2 PUSH2 0x2352 JUMP JUMPDEST SWAP1 POP SWAP2 SWAP1 POP JUMP JUMPDEST PUSH1 0x0 PUSH1 0x20 DUP3 ADD SWAP1 POP DUP2 DUP2 SUB PUSH1 0x0 DUP4 ADD MSTORE PUSH2 0x25F1 DUP2 PUSH2 0x2375 JUMP JUMPDEST SWAP1 POP SWAP2 SWAP1 POP JUMP JUMPDEST PUSH1 0x0 PUSH1 0x20 DUP3 ADD SWAP1 POP DUP2 DUP2 SUB PUSH1 0x0 DUP4 ADD MSTORE PUSH2 0x2611 DUP2 PUSH2 0x2398 JUMP JUMPDEST SWAP1 POP SWAP2 SWAP1 POP JUMP JUMPDEST PUSH1 0x0 PUSH1 0x20 DUP3 ADD SWAP1 POP DUP2 DUP2 SUB PUSH1 0x0 DUP4 ADD MSTORE PUSH2 0x2631 DUP2 PUSH2 0x23BB JUMP JUMPDEST SWAP1 POP SWAP2 SWAP1 POP JUMP JUMPDEST PUSH1 0x0 PUSH1 0x20 DUP3 ADD SWAP1 POP DUP2 DUP2 SUB PUSH1 0x0 DUP4 ADD MSTORE PUSH2 0x2651 DUP2 PUSH2 0x23DE JUMP JUMPDEST SWAP1 POP SWAP2 SWAP1 POP JUMP JUMPDEST PUSH1 0x0 PUSH1 0x20 DUP3 ADD SWAP1 POP DUP2 DUP2 SUB PUSH1 0x0 DUP4 ADD MSTORE PUSH2 0x2671 DUP2 PUSH2 0x2401 JUMP JUMPDEST SWAP1 POP SWAP2 SWAP1 POP JUMP JUMPDEST PUSH1 0x0 PUSH1 0x20 DUP3 ADD SWAP1 POP DUP2 DUP2 SUB PUSH1 0x0 DUP4 ADD MSTORE PUSH2 0x2691 DUP2 PUSH2 0x2424 JUMP JUMPDEST SWAP1 POP SWAP2 SWAP1 POP JUMP JUMPDEST PUSH1 0x0 PUSH1 0x20 DUP3 ADD SWAP1 POP DUP2 DUP2 SUB PUSH1 0x0 DUP4 ADD MSTORE PUSH2 0x26B1 DUP2 PUSH2 0x2447 JUMP JUMPDEST SWAP1 POP SWAP2 SWAP1 POP JUMP JUMPDEST PUSH1 0x0 PUSH1 0x20 DUP3 ADD SWAP1 POP DUP2 DUP2 SUB PUSH1 0x0 DUP4 ADD MSTORE PUSH2 0x26D1 DUP2 PUSH2 0x246A JUMP JUMPDEST SWAP1 POP SWAP2 SWAP1 POP JUMP JUMPDEST PUSH1 0x0 PUSH1 0x20 DUP3 ADD SWAP1 POP DUP2 DUP2 SUB PUSH1 0x0 DUP4 ADD MSTORE PUSH2 0x26F1 DUP2 PUSH2 0x248D JUMP JUMPDEST SWAP1 POP SWAP2 SWAP1 POP JUMP JUMPDEST PUSH1 0x0 PUSH1 0x20 DUP3 ADD SWAP1 POP DUP2 DUP2 SUB PUSH1 0x0 DUP4 ADD MSTORE PUSH2 0x2711 DUP2 PUSH2 0x24B0 JUMP JUMPDEST SWAP1 POP SWAP2 SWAP1 POP JUMP JUMPDEST PUSH1 0x0 PUSH1 0x20 DUP3 ADD SWAP1 POP PUSH2 0x272D PUSH1 0x0 DUP4 ADD DUP5 PUSH2 0x24D3 JUMP JUMPDEST SWAP3 SWAP2 POP POP JUMP JUMPDEST PUSH1 0x0 PUSH1 0x60 DUP3 ADD SWAP1 POP PUSH2 0x2748 PUSH1 0x0 DUP4 ADD DUP7 PUSH2 0x24D3 JUMP JUMPDEST PUSH2 0x2755 PUSH1 0x20 DUP4 ADD DUP6 PUSH2 0x24D3 JUMP JUMPDEST PUSH2 0x2762 PUSH1 0x40 DUP4 ADD DUP5 PUSH2 0x2294 JUMP JUMPDEST SWAP5 SWAP4 POP POP POP POP JUMP JUMPDEST PUSH1 0x0 PUSH2 0x2774 PUSH2 0x2785 JUMP JUMPDEST SWAP1 POP PUSH2 0x2780 DUP3 DUP3 PUSH2 0x28BC JUMP JUMPDEST SWAP2 SWAP1 POP JUMP JUMPDEST PUSH1 0x0 PUSH1 0x40 MLOAD SWAP1 POP SWAP1 JUMP JUMPDEST PUSH1 0x0 PUSH8 0xFFFFFFFFFFFFFFFF DUP3 GT ISZERO PUSH2 0x27AA JUMPI PUSH2 0x27A9 PUSH2 0x29C3 JUMP JUMPDEST JUMPDEST PUSH1 0x20 DUP3 MUL SWAP1 POP PUSH1 0x20 DUP2 ADD SWAP1 POP SWAP2 SWAP1 POP JUMP JUMPDEST PUSH1 0x0 PUSH8 0xFFFFFFFFFFFFFFFF DUP3 GT ISZERO PUSH2 0x27D6 JUMPI PUSH2 0x27D5 PUSH2 0x29C3 JUMP JUMPDEST JUMPDEST PUSH1 0x20 DUP3 MUL SWAP1 POP SWAP2 SWAP1 POP JUMP JUMPDEST PUSH1 0x0 PUSH8 0xFFFFFFFFFFFFFFFF DUP3 GT ISZERO PUSH2 0x27FC JUMPI PUSH2 0x27FB PUSH2 0x29C3 JUMP JUMPDEST JUMPDEST PUSH1 0x20 DUP3 MUL SWAP1 POP PUSH1 0x20 DUP2 ADD SWAP1 POP SWAP2 SWAP1 POP JUMP JUMPDEST PUSH1 0x0 DUP3 DUP3 MSTORE PUSH1 0x20 DUP3 ADD SWAP1 POP SWAP3 SWAP2 POP POP JUMP JUMPDEST PUSH1 0x0 PUSH2 0x2829 DUP3 PUSH2 0x28B2 JUMP JUMPDEST SWAP2 POP PUSH2 0x2834 DUP4 PUSH2 0x28B2 JUMP JUMPDEST SWAP3 POP DUP3 PUSH32 0xFFFFFFFFFFFFFFFFFFFFFFFFFFFFFFFFFFFFFFFFFFFFFFFFFFFFFFFFFFFFFFFF SUB DUP3 GT ISZERO PUSH2 0x2869 JUMPI PUSH2 0x2868 PUSH2 0x2936 JUMP JUMPDEST JUMPDEST DUP3 DUP3 ADD SWAP1 POP SWAP3 SWAP2 POP POP JUMP JUMPDEST PUSH1 0x0 PUSH2 0x287F DUP3 PUSH2 0x2892 JUMP JUMPDEST SWAP1 POP SWAP2 SWAP1 POP JUMP JUMPDEST PUSH1 0x0 DUP2 ISZERO ISZERO SWAP1 POP SWAP2 SWAP1 POP JUMP JUMPDEST PUSH1 0x0 PUSH20 0xFFFFFFFFFFFFFFFFFFFFFFFFFFFFFFFFFFFFFFFF DUP3 AND SWAP1 POP SWAP2 SWAP1 POP JUMP JUMPDEST PUSH1 0x0 DUP2 SWAP1 POP SWAP2 SWAP1 POP JUMP JUMPDEST PUSH2 0x28C5 DUP3 PUSH2 0x2A10 JUMP JUMPDEST DUP2 ADD DUP2 DUP2 LT PUSH8 0xFFFFFFFFFFFFFFFF DUP3 GT OR ISZERO PUSH2 0x28E4 JUMPI PUSH2 0x28E3 PUSH2 0x29C3 JUMP JUMPDEST JUMPDEST DUP1 PUSH1 0x40 MSTORE POP POP POP JUMP JUMPDEST PUSH1 0x0 PUSH2 0x28F8 DUP3 PUSH2 0x28B2 JUMP JUMPDEST SWAP2 POP PUSH32 0xFFFFFFFFFFFFFFFFFFFFFFFFFFFFFFFFFFFFFFFFFFFFFFFFFFFFFFFFFFFFFFFF DUP3 EQ ISZERO PUSH2 0x292B JUMPI PUSH2 0x292A PUSH2 0x2936 JUMP JUMPDEST JUMPDEST PUSH1 0x1 DUP3 ADD SWAP1 POP SWAP2 SWAP1 POP JUMP JUMPDEST PUSH32 0x4E487B7100000000000000000000000000000000000000000000000000000000 PUSH1 0x0 MSTORE PUSH1 0x11 PUSH1 0x4 MSTORE PUSH1 0x24 PUSH1 0x0 REVERT JUMPDEST PUSH32 0x4E487B7100000000000000000000000000000000000000000000000000000000 PUSH1 0x0 MSTORE PUSH1 0x31 PUSH1 0x4 MSTORE PUSH1 0x24 PUSH1 0x0 REVERT JUMPDEST PUSH32 0x4E487B7100000000000000000000000000000000000000000000000000000000 PUSH1 0x0 MSTORE PUSH1 0x32 PUSH1 0x4 MSTORE PUSH1 0x24 PUSH1 0x0 REVERT JUMPDEST PUSH32 0x4E487B7100000000000000000000000000000000000000000000000000000000 PUSH1 0x0 MSTORE PUSH1 0x41 PUSH1 0x4 MSTORE PUSH1 0x24 PUSH1 0x0 REVERT JUMPDEST PUSH1 0x0 DUP1 REVERT JUMPDEST PUSH1 0x0 DUP1 REVERT JUMPDEST PUSH1 0x0 DUP1 REVERT JUMPDEST PUSH1 0x0 DUP1 REVERT JUMPDEST PUSH1 0x0 DUP1 REVERT JUMPDEST PUSH1 0x0 DUP1 REVERT JUMPDEST PUSH1 0x0 PUSH1 0x1F NOT PUSH1 0x1F DUP4 ADD AND SWAP1 POP SWAP2 SWAP1 POP JUMP JUMPDEST PUSH32 0x54686520746F6B656E206973206E6F7420612072656769737465726564204552 PUSH1 0x0 DUP3 ADD MSTORE PUSH32 0x43203131353520746F6B656E0000000000000000000000000000000000000000 PUSH1 0x20 DUP3 ADD MSTORE POP JUMP JUMPDEST PUSH32 0x54686520746F6B656E2049442063616E6E6F74206265207A65726F0000000000 PUSH1 0x0 DUP3 ADD MSTORE POP JUMP JUMPDEST PUSH32 0x546F6B656E49442063616E6E6F74206265206120737562736574206F66207061 PUSH1 0x0 DUP3 ADD MSTORE PUSH32 0x72656E74546F6B656E4944730000000000000000000000000000000000000000 PUSH1 0x20 DUP3 ADD MSTORE POP JUMP JUMPDEST PUSH32 0x546865206C656E677468206F6620706172656E742049647320616E6420776569 PUSH1 0x0 DUP3 ADD MSTORE PUSH32 0x676874732073686F756C64206265207468652073616D65000000000000000000 PUSH1 0x20 DUP3 ADD MSTORE POP JUMP JUMPDEST PUSH32 0x4572726F723A20616E206772617068206C6F6F702077696C6C20626520637265 PUSH1 0x0 DUP3 ADD MSTORE PUSH32 0x6174656400000000000000000000000000000000000000000000000000000000 PUSH1 0x20 DUP3 ADD MSTORE POP JUMP JUMPDEST PUSH32 0x4120706172656E7420494420697320626C61636B6C697374656420736F207468 PUSH1 0x0 DUP3 ADD MSTORE PUSH32 0x69732070726F636573732063616E6E6F7420636F6E74696E7565000000000000 PUSH1 0x20 DUP3 ADD MSTORE POP JUMP JUMPDEST PUSH32 0x412076616C756520796F752061726520696E70757474696E6720696E64696361 PUSH1 0x0 DUP3 ADD MSTORE PUSH32 0x746573206120627265616B206F66207365742E00000000000000000000000000 PUSH1 0x20 DUP3 ADD MSTORE POP JUMP JUMPDEST PUSH32 0x4120706172656E7420696420646F6573206E6F7420636F6F7265736F6E642074 PUSH1 0x0 DUP3 ADD MSTORE PUSH32 0x6F2074686520636F727265637420776569676874000000000000000000000000 PUSH1 0x20 DUP3 ADD MSTORE POP JUMP JUMPDEST PUSH32 0x4572726F723A204564676520636F6E6E656374696F6E20796F75206172652074 PUSH1 0x0 DUP3 ADD MSTORE PUSH32 0x7279696E6720746F2061646420616C6C72656164792065786973747300000000 PUSH1 0x20 DUP3 ADD MSTORE POP JUMP JUMPDEST PUSH32 0x494420686173206E6F74206265656E20616464656420746F2067726170682E00 PUSH1 0x0 DUP3 ADD MSTORE POP JUMP JUMPDEST PUSH32 0x4120706172656E7420746F6B656E20494420686173206E6F74206265656E2061 PUSH1 0x0 DUP3 ADD MSTORE PUSH32 0x6464656420746F20677261706800000000000000000000000000000000000000 PUSH1 0x20 DUP3 ADD MSTORE POP JUMP JUMPDEST PUSH32 0x706172656E7420746F6B656E20494420686173206E6F74206265656E20616464 PUSH1 0x0 DUP3 ADD MSTORE PUSH32 0x656420746F206772617068000000000000000000000000000000000000000000 PUSH1 0x20 DUP3 ADD MSTORE POP JUMP JUMPDEST PUSH32 0x49442068617320616C6C7265616479206265656E20616464656420746F206772 PUSH1 0x0 DUP3 ADD MSTORE PUSH32 0x6170682E00000000000000000000000000000000000000000000000000000000 PUSH1 0x20 DUP3 ADD MSTORE POP JUMP JUMPDEST PUSH32 0x55736572206D7573742062652061646D696E2E00000000000000000000000000 PUSH1 0x0 DUP3 ADD MSTORE POP JUMP JUMPDEST PUSH32 0x54686520746F6B656E204944206F66206120706172656E74206973207A65726F PUSH1 0x0 DUP3 ADD MSTORE PUSH32 0x2E00000000000000000000000000000000000000000000000000000000000000 PUSH1 0x20 DUP3 ADD MSTORE POP JUMP JUMPDEST PUSH32 0x4120706172656E7420746F6B656E206973206E6F742061207265676973746564 PUSH1 0x0 DUP3 ADD MSTORE PUSH32 0x20455243203131353520746F6B656E0000000000000000000000000000000000 PUSH1 0x20 DUP3 ADD MSTORE POP JUMP JUMPDEST PUSH2 0x2EA8 DUP2 PUSH2 0x2886 JUMP JUMPDEST DUP2 EQ PUSH2 0x2EB3 JUMPI PUSH1 0x0 DUP1 REVERT JUMPDEST POP JUMP JUMPDEST PUSH2 0x2EBF DUP2 PUSH2 0x28B2 JUMP JUMPDEST DUP2 EQ PUSH2 0x2ECA JUMPI PUSH1 0x0 DUP1 REVERT JUMPDEST POP JUMP INVALID LOG2 PUSH5 0x6970667358 0x22 SLT KECCAK256 JUMP 0xAB GASLIMIT PUSH11 0x994A7D6383C30CFB855405 MOD CALLER DIV 0xB9 0x2C EXTCODEHASH DIFFICULTY PUSH28 0xF8EF7555B9D49ACB6864736F6C634300080600330000000000000000 "
        },
        "methodIdentifiers": {
          "_idToTokenStruct(uint256)": "89e0496f",
          "add(uint256,uint256)": "771602f7",
          "bfsTraversal(uint256)": "aca382a0",
          "blacklistToken(uint256,bool)": "ce8b4afd",
          "changeTokenWeight(uint256,uint256)": "076fcc1f",
          "clearSet(uint256)": "d8be1fd4",
          "dequeue()": "957908d1",
          "enqueue(uint256)": "1ffc735d",
          "getAdmin()": "6e9960c3",
          "getTokenRegisteredCount()": "5ee3c588",
          "getTotalEdgeCount()": "a9138861",
          "insertEdges(uint256[],uint256[],uint256)": "beae4942",
          "insertToken(uint256[],uint256[],uint256,uint256)": "866fe41a",
          "isSubset(uint256,uint256[])": "6cf61127",
          "isSubsetSpecialMemory(uint256,uint256[512])": "18182eaa",
          "makeERC1155ForTesting()": "d7753a65",
          "returnId((uint256,uint256,bool,(uint256,uint256)[]))": "be6d291e",
          "returnIsBlacklisted(uint256)": "981ad468",
          "returnTime(uint256)": "0b8e12fc",
          "returnTokenWeight(uint256)": "16b407a8",
          "sortByTime(uint256)": "b0f555ae",
          "tokenCount()": "9f181b5e",
          "tokenExists(uint256)": "00923f9e"
        }
      }
    }
  }
}