{
  "contracts/copyrightMaster.sol": {
    "copyrightMaster": {
      "abi": [
        {
          "inputs": [],
          "stateMutability": "nonpayable",
          "type": "constructor"
        },
        {
          "anonymous": false,
          "inputs": [
            {
              "components": [
                {
                  "internalType": "uint256",
                  "name": "id",
                  "type": "uint256"
                },
                {
                  "internalType": "uint256",
                  "name": "weight",
                  "type": "uint256"
                },
                {
                  "internalType": "uint256",
                  "name": "timeStamp",
                  "type": "uint256"
                },
                {
                  "internalType": "bool",
                  "name": "isBlacklisted",
                  "type": "bool"
                },
                {
                  "components": [
                    {
                      "internalType": "uint256[]",
                      "name": "to",
                      "type": "uint256[]"
                    },
                    {
                      "internalType": "uint256[]",
                      "name": "weight",
                      "type": "uint256[]"
                    }
                  ],
                  "internalType": "struct ICopyrightMaster.Edge",
                  "name": "edge",
                  "type": "tuple"
                }
              ],
              "indexed": false,
              "internalType": "struct ICopyrightMaster.Token",
              "name": "token",
              "type": "tuple"
            }
          ],
          "name": "AddTokenToGraph",
          "type": "event"
        },
        {
          "anonymous": false,
          "inputs": [
            {
              "indexed": false,
              "internalType": "uint256",
              "name": "id",
              "type": "uint256"
            },
            {
              "indexed": false,
              "internalType": "uint256",
              "name": "newWeight",
              "type": "uint256"
            }
          ],
          "name": "ChangeTokenWeight",
          "type": "event"
        },
        {
          "anonymous": false,
          "inputs": [
            {
              "indexed": false,
              "internalType": "uint256",
              "name": "id",
              "type": "uint256"
            },
            {
              "indexed": false,
              "internalType": "bool",
              "name": "isBlacklisted",
              "type": "bool"
            }
          ],
          "name": "TokenBlacklisted",
          "type": "event"
        },
        {
          "inputs": [
            {
              "internalType": "uint256",
              "name": "",
              "type": "uint256"
            }
          ],
          "name": "_idToIsERC1155",
          "outputs": [
            {
              "internalType": "bool",
              "name": "",
              "type": "bool"
            }
          ],
          "stateMutability": "view",
          "type": "function"
        },
        {
          "inputs": [
            {
              "internalType": "uint256",
              "name": "id",
              "type": "uint256"
            }
          ],
          "name": "bfsTraversal",
          "outputs": [],
          "stateMutability": "nonpayable",
          "type": "function"
        },
        {
          "inputs": [
            {
              "internalType": "uint256",
              "name": "id",
              "type": "uint256"
            },
            {
              "internalType": "bool",
              "name": "isBlacklisted",
              "type": "bool"
            }
          ],
          "name": "blacklistToken",
          "outputs": [],
          "stateMutability": "nonpayable",
          "type": "function"
        },
        {
          "inputs": [
            {
              "internalType": "uint256",
              "name": "id",
              "type": "uint256"
            },
            {
              "internalType": "uint256",
              "name": "newWeight",
              "type": "uint256"
            }
          ],
          "name": "changeTokenWeight",
          "outputs": [],
          "stateMutability": "nonpayable",
          "type": "function"
        },
        {
          "inputs": [],
          "name": "dequeue",
          "outputs": [
            {
              "internalType": "uint256",
              "name": "id",
              "type": "uint256"
            }
          ],
          "stateMutability": "nonpayable",
          "type": "function"
        },
        {
          "inputs": [],
          "name": "edgeCount",
          "outputs": [
            {
              "internalType": "uint256",
              "name": "",
              "type": "uint256"
            }
          ],
          "stateMutability": "view",
          "type": "function"
        },
        {
          "inputs": [
            {
              "internalType": "uint256",
              "name": "id",
              "type": "uint256"
            }
          ],
          "name": "edgeTo",
          "outputs": [
            {
              "internalType": "uint256[]",
              "name": "",
              "type": "uint256[]"
            }
          ],
          "stateMutability": "view",
          "type": "function"
        },
        {
          "inputs": [
            {
              "internalType": "uint256",
              "name": "id",
              "type": "uint256"
            }
          ],
          "name": "edgeWeights",
          "outputs": [
            {
              "internalType": "uint256[]",
              "name": "",
              "type": "uint256[]"
            }
          ],
          "stateMutability": "view",
          "type": "function"
        },
        {
          "inputs": [
            {
              "internalType": "uint256",
              "name": "id",
              "type": "uint256"
            }
          ],
          "name": "enqueue",
          "outputs": [],
          "stateMutability": "nonpayable",
          "type": "function"
        },
        {
          "inputs": [],
          "name": "getAdmin",
          "outputs": [
            {
              "internalType": "address",
              "name": "",
              "type": "address"
            }
          ],
          "stateMutability": "view",
          "type": "function"
        },
        {
          "inputs": [
            {
              "internalType": "uint256[]",
              "name": "parentIds",
              "type": "uint256[]"
            },
            {
              "internalType": "uint256[]",
              "name": "parentWeights",
              "type": "uint256[]"
            },
            {
              "internalType": "uint256",
              "name": "id",
              "type": "uint256"
            }
          ],
          "name": "insertEdges",
          "outputs": [],
          "stateMutability": "nonpayable",
          "type": "function"
        },
        {
          "inputs": [
            {
              "internalType": "uint256[]",
              "name": "parentIds",
              "type": "uint256[]"
            },
            {
              "internalType": "uint256[]",
              "name": "parentWeights",
              "type": "uint256[]"
            },
            {
              "internalType": "uint256",
              "name": "id",
              "type": "uint256"
            },
            {
              "internalType": "uint256",
              "name": "weight",
              "type": "uint256"
            }
          ],
          "name": "insertToken",
          "outputs": [],
          "stateMutability": "nonpayable",
          "type": "function"
        },
        {
          "inputs": [
            {
              "internalType": "uint256",
              "name": "id",
              "type": "uint256"
            },
            {
              "internalType": "uint256[]",
              "name": "parentTokenIds",
              "type": "uint256[]"
            }
          ],
          "name": "isSubset",
          "outputs": [
            {
              "internalType": "bool",
              "name": "",
              "type": "bool"
            }
          ],
          "stateMutability": "pure",
          "type": "function"
        },
        {
          "inputs": [
            {
              "internalType": "uint256",
              "name": "id",
              "type": "uint256"
            },
            {
              "internalType": "uint256[512]",
              "name": "parentTokenIds",
              "type": "uint256[512]"
            }
          ],
          "name": "isSubsetSpecialMemory",
          "outputs": [
            {
              "internalType": "bool",
              "name": "",
              "type": "bool"
            }
          ],
          "stateMutability": "pure",
          "type": "function"
        },
        {
          "inputs": [],
          "name": "makeERC1155ForTesting",
          "outputs": [],
          "stateMutability": "nonpayable",
          "type": "function"
        },
        {
          "inputs": [
            {
              "internalType": "uint256",
              "name": "id",
              "type": "uint256"
            }
          ],
          "name": "returnEdge",
          "outputs": [
            {
              "components": [
                {
                  "internalType": "uint256[]",
                  "name": "to",
                  "type": "uint256[]"
                },
                {
                  "internalType": "uint256[]",
                  "name": "weight",
                  "type": "uint256[]"
                }
              ],
              "internalType": "struct ICopyrightMaster.Edge",
              "name": "edge",
              "type": "tuple"
            }
          ],
          "stateMutability": "view",
          "type": "function"
        },
        {
          "inputs": [
            {
              "components": [
                {
                  "internalType": "uint256",
                  "name": "id",
                  "type": "uint256"
                },
                {
                  "internalType": "uint256",
                  "name": "weight",
                  "type": "uint256"
                },
                {
                  "internalType": "uint256",
                  "name": "timeStamp",
                  "type": "uint256"
                },
                {
                  "internalType": "bool",
                  "name": "isBlacklisted",
                  "type": "bool"
                },
                {
                  "components": [
                    {
                      "internalType": "uint256[]",
                      "name": "to",
                      "type": "uint256[]"
                    },
                    {
                      "internalType": "uint256[]",
                      "name": "weight",
                      "type": "uint256[]"
                    }
                  ],
                  "internalType": "struct ICopyrightMaster.Edge",
                  "name": "edge",
                  "type": "tuple"
                }
              ],
              "internalType": "struct ICopyrightMaster.Token",
              "name": "token",
              "type": "tuple"
            }
          ],
          "name": "returnId",
          "outputs": [
            {
              "internalType": "uint256",
              "name": "id",
              "type": "uint256"
            }
          ],
          "stateMutability": "pure",
          "type": "function"
        },
        {
          "inputs": [
            {
              "internalType": "uint256",
              "name": "id",
              "type": "uint256"
            }
          ],
          "name": "returnIsBlacklisted",
          "outputs": [
            {
              "internalType": "bool",
              "name": "isBlacklisted",
              "type": "bool"
            }
          ],
          "stateMutability": "view",
          "type": "function"
        },
        {
          "inputs": [
            {
              "internalType": "uint256",
              "name": "id",
              "type": "uint256"
            }
          ],
          "name": "returnTime",
          "outputs": [
            {
              "internalType": "uint256",
              "name": "timeStamp",
              "type": "uint256"
            }
          ],
          "stateMutability": "view",
          "type": "function"
        },
        {
          "inputs": [
            {
              "internalType": "uint256",
              "name": "id",
              "type": "uint256"
            }
          ],
          "name": "returnTokenWeight",
          "outputs": [
            {
              "internalType": "uint256",
              "name": "weight",
              "type": "uint256"
            }
          ],
          "stateMutability": "view",
          "type": "function"
        },
        {
          "inputs": [
            {
              "internalType": "uint256",
              "name": "id",
              "type": "uint256"
            }
          ],
          "name": "sortByTime",
          "outputs": [],
          "stateMutability": "nonpayable",
          "type": "function"
        },
        {
          "inputs": [],
          "name": "tokenCount",
          "outputs": [
            {
              "internalType": "uint256",
              "name": "",
              "type": "uint256"
            }
          ],
          "stateMutability": "view",
          "type": "function"
        },
        {
          "inputs": [
            {
              "internalType": "uint256",
              "name": "id",
              "type": "uint256"
            }
          ],
          "name": "tokenExists",
          "outputs": [
            {
              "internalType": "bool",
              "name": "exists",
              "type": "bool"
            }
          ],
          "stateMutability": "view",
          "type": "function"
        }
      ],
      "evm": {
        "bytecode": {
          "linkReferences": {},
          "object": "60806040526001805560006002556001600360006101000a81548160ff0219169083151502179055506000600655600060075534801561003e57600080fd5b5033600360016101000a81548173ffffffffffffffffffffffffffffffffffffffff021916908373ffffffffffffffffffffffffffffffffffffffff160217905550612c2e8061008f6000396000f3fe608060405234801561001057600080fd5b506004361061014c5760003560e01c806394b90830116100c3578063beae49421161007c578063beae4942146103e7578063c955744914610403578063ce8b4afd14610433578063d7753a651461044f578063e8ca8c3e14610459578063ee8a9fd6146104895761014c565b806394b9083014610313578063957908d114610343578063981ad468146103615780639f181b5e14610391578063aca382a0146103af578063b0f555ae146103cb5761014c565b80631ffc735d116101155780631ffc735d1461022d578063281d75ab1461024957806365af0366146102795780636cf61127146102a95780636e9960c3146102d9578063866fe41a146102f75761014c565b8062923f9e14610151578063076fcc1f146101815780630b8e12fc1461019d57806316b407a8146101cd57806318182eaa146101fd575b600080fd5b61016b60048036038101906101669190611ff7565b6104a7565b6040516101789190612453565b60405180910390f35b61019b60048036038101906101969190612101565b6104d0565b005b6101b760048036038101906101b29190611ff7565b610685565b6040516101c491906125f0565b60405180910390f35b6101e760048036038101906101e29190611ff7565b6106a5565b6040516101f491906125f0565b60405180910390f35b61021760048036038101906102129190612024565b6106c5565b6040516102249190612453565b60405180910390f35b61024760048036038101906102429190611ff7565b610738565b005b610263600480360381019061025e9190611ff7565b610789565b6040516102709190612453565b60405180910390f35b610293600480360381019061028e9190611fae565b6107a9565b6040516102a091906125f0565b60405180910390f35b6102c360048036038101906102be9190612065565b6107b7565b6040516102d09190612453565b60405180910390f35b6102e1610829565b6040516102ee9190612416565b60405180910390f35b610311600480360381019061030c9190611f0f565b610853565b005b61032d60048036038101906103289190611ff7565b610ce6565b60405161033a91906125ce565b60405180910390f35b61034b610dc6565b60405161035891906125f0565b60405180910390f35b61037b60048036038101906103769190611ff7565b610e4c565b6040516103889190612453565b60405180910390f35b610399610e79565b6040516103a691906125f0565b60405180910390f35b6103c960048036038101906103c49190611ff7565b610e83565b005b6103e560048036038101906103e09190611ff7565b610fe3565b005b61040160048036038101906103fc9190611e84565b61117c565b005b61041d60048036038101906104189190611ff7565b611779565b60405161042a9190612431565b60405180910390f35b61044d600480360381019061044891906120c1565b6117ea565b005b6104576119ea565b005b610473600480360381019061046e9190611ff7565b611ad6565b6040516104809190612431565b60405180910390f35b610491611b47565b60405161049e91906125f0565b60405180910390f35b6000806005600084815260200190815260200160002060000154146104cb57600190505b919050565b600360019054906101000a900473ffffffffffffffffffffffffffffffffffffffff1673ffffffffffffffffffffffffffffffffffffffff163373ffffffffffffffffffffffffffffffffffffffff1614610560576040517f08c379a00000000000000000000000000000000000000000000000000000000081526004016105579061256e565b60405180910390fd5b8160008114156105a5576040517f08c379a000000000000000000000000000000000000000000000000000000000815260040161059c9061248e565b60405180910390fd5b600115156004600083815260200190815260200160002060009054906101000a900460ff1615151461060c576040517f08c379a00000000000000000000000000000000000000000000000000000000081526004016106039061246e565b60405180910390fd5b6000600560008381526020019081526020016000206000015414610665576040517f08c379a000000000000000000000000000000000000000000000000000000000815260040161065c9061254e565b60405180910390fd5b816005600085815260200190815260200160002060010181905550505050565b600060056000838152602001908152602001600020600201549050919050565b600060056000838152602001908152602001600020600101549050919050565b600080610200905060008114156106e0576000915050610732565b60005b61020081101561072b57848482610200811061070257610701612824565b5b6020020151141561071857600192505050610732565b8080610723906127ac565b9150506106e3565b5060009150505b92915050565b60016002600082825461074b91906126dd565b925050819055506000600360006101000a81548160ff0219169083151502179055508060008060025481526020019081526020016000208190555050565b60046020528060005260406000206000915054906101000a900460ff1681565b600081600001519050919050565b6000808251905060008114156107d1576000915050610823565b60005b8181101561081c57848482815181106107f0576107ef612824565b5b6020026020010151141561080957600192505050610823565b8080610814906127ac565b9150506107d4565b5060009150505b92915050565b6000600360019054906101000a900473ffffffffffffffffffffffffffffffffffffffff16905090565b600360019054906101000a900473ffffffffffffffffffffffffffffffffffffffff1673ffffffffffffffffffffffffffffffffffffffff163373ffffffffffffffffffffffffffffffffffffffff16146108e3576040517f08c379a00000000000000000000000000000000000000000000000000000000081526004016108da9061256e565b60405180910390fd5b816000811415610928576040517f08c379a000000000000000000000000000000000000000000000000000000000815260040161091f9061248e565b60405180910390fd5b600115156004600083815260200190815260200160002060009054906101000a900460ff1615151461098f576040517f08c379a00000000000000000000000000000000000000000000000000000000081526004016109869061246e565b60405180910390fd5b60006005600083815260200190815260200160002060000154146109e8576040517f08c379a00000000000000000000000000000000000000000000000000000000081526004016109df9061254e565b60405180910390fd5b60005b8551811015610b5a576000868281518110610a0957610a08612824565b5b60200260200101511415610a52576040517f08c379a0000000000000000000000000000000000000000000000000000000008152600401610a499061258e565b60405180910390fd5b6001151560046000888481518110610a6d57610a6c612824565b5b6020026020010151815260200190815260200160002060009054906101000a900460ff16151514610ad3576040517f08c379a0000000000000000000000000000000000000000000000000000000008152600401610aca906125ae565b60405180910390fd5b600060056000888481518110610aec57610aeb612824565b5b60200260200101518152602001908152602001600020600001541415610b47576040517f08c379a0000000000000000000000000000000000000000000000000000000008152600401610b3e9061252e565b60405180910390fd5b8080610b52906127ac565b9150506109eb565b506000610b6784876107b7565b90508015610baa576040517f08c379a0000000000000000000000000000000000000000000000000000000008152600401610ba1906124ae565b60405180910390fd5b60066000815480929190610bbd906127ac565b9190505550836005600086815260200190815260200160002060000181905550826005600086815260200190815260200160002060010181905550426005600086815260200190815260200160002060020181905550600086511415610c235750610cdf565b8451865114610c67576040517f08c379a0000000000000000000000000000000000000000000000000000000008152600401610c5e906124ee565b60405180910390fd5b855160076000828254610c7a91906126dd565b9250508190555085600560008681526020019081526020016000206004016000019080519060200190610cae929190611b51565b5084600560008681526020019081526020016000206004016001019080519060200190610cdc929190611b51565b50505b5050505050565b610cee611b9e565b6005600083815260200190815260200160002060040160405180604001604052908160008201805480602002602001604051908101604052809291908181526020018280548015610d5e57602002820191906000526020600020905b815481526020019060010190808311610d4a575b5050505050815260200160018201805480602002602001604051908101604052809291908181526020018280548015610db657602002820191906000526020600020905b815481526020019060010190808311610da2575b5050505050815250509050919050565b60006001546002541015610dd957600080fd5b60008060015481526020019081526020016000205490506002546001541415610e18576001600360006101000a81548160ff0219169083151502179055505b6000806001548152602001908152602001600020600090556001806000828254610e4291906126dd565b9250508190555090565b60006005600083815260200190815260200160002060030160009054906101000a900460ff169050919050565b6000600654905090565b610e8b611bb8565b6000610e95611bb8565b6000610ea085610738565b60005b600360009054906101000a900460ff16610fdb57610ebf610dc6565b9050610ecb81866106c5565b610efc578085856102008110610ee457610ee3612824565b5b6020020181815250508380610ef8906127ac565b9450505b60005b6005600083815260200190815260200160002060040160000180549050811015610fd557610f61600560008481526020019081526020016000206004016000018281548110610f5157610f50612824565b5b9060005260206000200154610738565b600560008381526020019081526020016000206004016001018181548110610f8c57610f8b612824565b5b906000526020600020015484846102008110610fab57610faa612824565b5b6020020181815250508280610fbf906127ac565b9350508080610fcd906127ac565b915050610eff565b50610ea3565b505050505050565b600360019054906101000a900473ffffffffffffffffffffffffffffffffffffffff1673ffffffffffffffffffffffffffffffffffffffff163373ffffffffffffffffffffffffffffffffffffffff1614611073576040517f08c379a000000000000000000000000000000000000000000000000000000000815260040161106a9061256e565b60405180910390fd5b8060008114156110b8576040517f08c379a00000000000000000000000000000000000000000000000000000000081526004016110af9061248e565b60405180910390fd5b600115156004600083815260200190815260200160002060009054906101000a900460ff1615151461111f576040517f08c379a00000000000000000000000000000000000000000000000000000000081526004016111169061246e565b60405180910390fd5b6000600560008381526020019081526020016000206000015414611178576040517f08c379a000000000000000000000000000000000000000000000000000000000815260040161116f9061254e565b60405180910390fd5b5050565b600360019054906101000a900473ffffffffffffffffffffffffffffffffffffffff1673ffffffffffffffffffffffffffffffffffffffff163373ffffffffffffffffffffffffffffffffffffffff161461120c576040517f08c379a00000000000000000000000000000000000000000000000000000000081526004016112039061256e565b60405180910390fd5b806000811415611251576040517f08c379a00000000000000000000000000000000000000000000000000000000081526004016112489061248e565b60405180910390fd5b600115156004600083815260200190815260200160002060009054906101000a900460ff161515146112b8576040517f08c379a00000000000000000000000000000000000000000000000000000000081526004016112af9061246e565b60405180910390fd5b6000600560008381526020019081526020016000206000015414611311576040517f08c379a00000000000000000000000000000000000000000000000000000000081526004016113089061254e565b60405180910390fd5b60008451141561132057611773565b60005b845181101561149257600085828151811061134157611340612824565b5b6020026020010151141561138a576040517f08c379a00000000000000000000000000000000000000000000000000000000081526004016113819061248e565b60405180910390fd5b60011515600460008784815181106113a5576113a4612824565b5b6020026020010151815260200190815260200160002060009054906101000a900460ff1615151461140b576040517f08c379a0000000000000000000000000000000000000000000000000000000008152600401611402906125ae565b60405180910390fd5b60006005600087848151811061142457611423612824565b5b6020026020010151815260200190815260200160002060000154141561147f576040517f08c379a00000000000000000000000000000000000000000000000000000000081526004016114769061252e565b60405180910390fd5b808061148a906127ac565b915050611323565b50600061149f83866107b7565b905080156114e2576040517f08c379a00000000000000000000000000000000000000000000000000000000081526004016114d9906124ae565b60405180910390fd5b8351855114611526576040517f08c379a000000000000000000000000000000000000000000000000000000000815260040161151d906124ee565b60405180910390fd5b60005b85518110156117705760005b60056000868152602001908152602001600020600401600001805490508110156116905786828151811061156c5761156b612824565b5b602002602001015160056000878152602001908152602001600020600401600001828154811061159f5761159e612824565b5b906000526020600020015414156115eb576040517f08c379a00000000000000000000000000000000000000000000000000000000081526004016115e29061250e565b60405180910390fd5b846005600089858151811061160357611602612824565b5b60200260200101518152602001908152602001600020600401600001828154811061163157611630612824565b5b9060005260206000200154141561167d576040517f08c379a0000000000000000000000000000000000000000000000000000000008152600401611674906124ce565b60405180910390fd5b8080611688906127ac565b915050611535565b50600760008154809291906116a4906127ac565b9190505550600560008581526020019081526020016000206004016000018682815181106116d5576116d4612824565b5b602002602001015190806001815401808255809150506001900390600052602060002001600090919091909150556005600085815260200190815260200160002060040160010185828151811061172f5761172e612824565b5b602002602001015190806001815401808255809150506001900390600052602060002001600090919091909150558080611768906127ac565b915050611529565b50505b50505050565b6060600560008381526020019081526020016000206004016001018054806020026020016040519081016040528092919081815260200182805480156117de57602002820191906000526020600020905b8154815260200190600101908083116117ca575b50505050509050919050565b600360019054906101000a900473ffffffffffffffffffffffffffffffffffffffff1673ffffffffffffffffffffffffffffffffffffffff163373ffffffffffffffffffffffffffffffffffffffff161461187a576040517f08c379a00000000000000000000000000000000000000000000000000000000081526004016118719061256e565b60405180910390fd5b8160008114156118bf576040517f08c379a00000000000000000000000000000000000000000000000000000000081526004016118b69061248e565b60405180910390fd5b600115156004600083815260200190815260200160002060009054906101000a900460ff16151514611926576040517f08c379a000000000000000000000000000000000000000000000000000000000815260040161191d9061246e565b60405180910390fd5b600060056000838152602001908152602001600020600001541461197f576040517f08c379a00000000000000000000000000000000000000000000000000000000081526004016119769061254e565b60405180910390fd5b816005600085815260200190815260200160002060030160006101000a81548160ff0219169083151502179055156119b6576119e5565b816005600085815260200190815260200160002060030160006101000a81548160ff0219169083151502179055505b505050565b600360019054906101000a900473ffffffffffffffffffffffffffffffffffffffff1673ffffffffffffffffffffffffffffffffffffffff163373ffffffffffffffffffffffffffffffffffffffff1614611a7a576040517f08c379a0000000000000000000000000000000000000000000000000000000008152600401611a719061256e565b60405180910390fd5b6001600460006001815260200190815260200160002060006101000a81548160ff0219169083151502179055506001600460006002815260200190815260200160002060006101000a81548160ff021916908315150217905550565b606060056000838152602001908152602001600020600401600001805480602002602001604051908101604052809291908181526020018280548015611b3b57602002820191906000526020600020905b815481526020019060010190808311611b27575b50505050509050919050565b6000600754905090565b828054828255906000526020600020908101928215611b8d579160200282015b82811115611b8c578251825591602001919060010190611b71565b5b509050611b9a9190611bdc565b5090565b604051806040016040528060608152602001606081525090565b60405180614000016040528061020090602082028036833780820191505090505090565b5b80821115611bf5576000816000905550600101611bdd565b5090565b6000611c0c611c0784612630565b61260b565b90508082856020860282011115611c2657611c25612891565b5b60005b85811015611c565781611c3c8882611e6f565b845260208401935060208301925050600181019050611c29565b5050509392505050565b6000611c73611c6e84612656565b61260b565b90508083825260208201905082856020860282011115611c9657611c95612891565b5b60005b85811015611cc65781611cac8882611e6f565b845260208401935060208301925050600181019050611c99565b5050509392505050565b600082601f830112611ce557611ce4612882565b5b610200611cf3848285611bf9565b91505092915050565b600082601f830112611d1157611d10612882565b5b8135611d21848260208601611c60565b91505092915050565b600081359050611d3981612bca565b92915050565b600060408284031215611d5557611d54612887565b5b611d5f604061260b565b9050600082013567ffffffffffffffff811115611d7f57611d7e61288c565b5b611d8b84828501611cfc565b600083015250602082013567ffffffffffffffff811115611daf57611dae61288c565b5b611dbb84828501611cfc565b60208301525092915050565b600060a08284031215611ddd57611ddc612887565b5b611de760a061260b565b90506000611df784828501611e6f565b6000830152506020611e0b84828501611e6f565b6020830152506040611e1f84828501611e6f565b6040830152506060611e3384828501611d2a565b606083015250608082013567ffffffffffffffff811115611e5757611e5661288c565b5b611e6384828501611d3f565b60808301525092915050565b600081359050611e7e81612be1565b92915050565b600080600060608486031215611e9d57611e9c61289b565b5b600084013567ffffffffffffffff811115611ebb57611eba612896565b5b611ec786828701611cfc565b935050602084013567ffffffffffffffff811115611ee857611ee7612896565b5b611ef486828701611cfc565b9250506040611f0586828701611e6f565b9150509250925092565b60008060008060808587031215611f2957611f2861289b565b5b600085013567ffffffffffffffff811115611f4757611f46612896565b5b611f5387828801611cfc565b945050602085013567ffffffffffffffff811115611f7457611f73612896565b5b611f8087828801611cfc565b9350506040611f9187828801611e6f565b9250506060611fa287828801611e6f565b91505092959194509250565b600060208284031215611fc457611fc361289b565b5b600082013567ffffffffffffffff811115611fe257611fe1612896565b5b611fee84828501611dc7565b91505092915050565b60006020828403121561200d5761200c61289b565b5b600061201b84828501611e6f565b91505092915050565b600080614020838503121561203c5761203b61289b565b5b600061204a85828601611e6f565b925050602061205b85828601611cd0565b9150509250929050565b6000806040838503121561207c5761207b61289b565b5b600061208a85828601611e6f565b925050602083013567ffffffffffffffff8111156120ab576120aa612896565b5b6120b785828601611cfc565b9150509250929050565b600080604083850312156120d8576120d761289b565b5b60006120e685828601611e6f565b92505060206120f785828601611d2a565b9150509250929050565b600080604083850312156121185761211761289b565b5b600061212685828601611e6f565b925050602061213785828601611e6f565b9150509250929050565b600061214d83836123f8565b60208301905092915050565b61216281612733565b82525050565b600061217382612692565b61217d81856126aa565b935061218883612682565b8060005b838110156121b95781516121a08882612141565b97506121ab8361269d565b92505060018101905061218c565b5085935050505092915050565b60006121d182612692565b6121db81856126bb565b93506121e683612682565b8060005b838110156122175781516121fe8882612141565b97506122098361269d565b9250506001810190506121ea565b5085935050505092915050565b61222d81612745565b82525050565b6000612240602c836126cc565b915061224b826128b1565b604082019050919050565b6000612263601b836126cc565b915061226e82612900565b602082019050919050565b6000612286602c836126cc565b915061229182612929565b604082019050919050565b60006122a96024836126cc565b91506122b482612978565b604082019050919050565b60006122cc6030836126cc565b91506122d7826129c7565b604082019050919050565b60006122ef603c836126cc565b91506122fa82612a16565b604082019050919050565b6000612312602b836126cc565b915061231d82612a65565b604082019050919050565b60006123356024836126cc565b915061234082612ab4565b604082019050919050565b60006123586013836126cc565b915061236382612b03565b602082019050919050565b600061237b6021836126cc565b915061238682612b2c565b604082019050919050565b600061239e602f836126cc565b91506123a982612b7b565b604082019050919050565b600060408301600083015184820360008601526123d18282612168565b915050602083015184820360208601526123eb8282612168565b9150508091505092915050565b61240181612771565b82525050565b61241081612771565b82525050565b600060208201905061242b6000830184612159565b92915050565b6000602082019050818103600083015261244b81846121c6565b905092915050565b60006020820190506124686000830184612224565b92915050565b6000602082019050818103600083015261248781612233565b9050919050565b600060208201905081810360008301526124a781612256565b9050919050565b600060208201905081810360008301526124c781612279565b9050919050565b600060208201905081810360008301526124e78161229c565b9050919050565b60006020820190508181036000830152612507816122bf565b9050919050565b60006020820190508181036000830152612527816122e2565b9050919050565b6000602082019050818103600083015261254781612305565b9050919050565b6000602082019050818103600083015261256781612328565b9050919050565b600060208201905081810360008301526125878161234b565b9050919050565b600060208201905081810360008301526125a78161236e565b9050919050565b600060208201905081810360008301526125c781612391565b9050919050565b600060208201905081810360008301526125e881846123b4565b905092915050565b60006020820190506126056000830184612407565b92915050565b6000612615612626565b9050612621828261277b565b919050565b6000604051905090565b600067ffffffffffffffff82111561264b5761264a612853565b5b602082029050919050565b600067ffffffffffffffff82111561267157612670612853565b5b602082029050602081019050919050565b6000819050602082019050919050565b600081519050919050565b6000602082019050919050565b600082825260208201905092915050565b600082825260208201905092915050565b600082825260208201905092915050565b60006126e882612771565b91506126f383612771565b9250827fffffffffffffffffffffffffffffffffffffffffffffffffffffffffffffffff03821115612728576127276127f5565b5b828201905092915050565b600061273e82612751565b9050919050565b60008115159050919050565b600073ffffffffffffffffffffffffffffffffffffffff82169050919050565b6000819050919050565b612784826128a0565b810181811067ffffffffffffffff821117156127a3576127a2612853565b5b80604052505050565b60006127b782612771565b91507fffffffffffffffffffffffffffffffffffffffffffffffffffffffffffffffff8214156127ea576127e96127f5565b5b600182019050919050565b7f4e487b7100000000000000000000000000000000000000000000000000000000600052601160045260246000fd5b7f4e487b7100000000000000000000000000000000000000000000000000000000600052603260045260246000fd5b7f4e487b7100000000000000000000000000000000000000000000000000000000600052604160045260246000fd5b600080fd5b600080fd5b600080fd5b600080fd5b600080fd5b600080fd5b6000601f19601f8301169050919050565b7f54686520746f6b656e206973206e6f742061207265676973746572656420455260008201527f43203131353520746f6b656e0000000000000000000000000000000000000000602082015250565b7f54686520746f6b656e2049442063616e6e6f74206265207a65726f0000000000600082015250565b7f546f6b656e49442063616e6e6f74206265206120737562736574206f6620706160008201527f72656e74546f6b656e4944730000000000000000000000000000000000000000602082015250565b7f4572726f723a20616e206772617068206c6f6f702077696c6c2062652063726560008201527f6174656400000000000000000000000000000000000000000000000000000000602082015250565b7f546865206c656e677468206f662049647320616e64207765696768747320736860008201527f6f756c64206265207468652073616d6500000000000000000000000000000000602082015250565b7f4572726f723a204564676520636f6e6e656374696f6e20796f7520617265207460008201527f7279696e6720746f2061646420616c6c72656164792065786973747300000000602082015250565b7f706172656e7420746f6b656e20494420686173206e6f74206265656e2061646460008201527f656420746f206772617068000000000000000000000000000000000000000000602082015250565b7f49442068617320616c6c7265616479206265656e20616464656420746f20677260008201527f6170682e00000000000000000000000000000000000000000000000000000000602082015250565b7f55736572206d7573742062652061646d696e2e00000000000000000000000000600082015250565b7f54686520746f6b656e204944206f66206120706172656e74206973207a65726f60008201527f2e00000000000000000000000000000000000000000000000000000000000000602082015250565b7f4120706172656e7420746f6b656e206973206e6f74206120726567697374656460008201527f20455243203131353520746f6b656e0000000000000000000000000000000000602082015250565b612bd381612745565b8114612bde57600080fd5b50565b612bea81612771565b8114612bf557600080fd5b5056fea2646970667358221220677d1d914ca82a7007fce3f76046a851bb088fdf2eee0827dd76285c5af05bc764736f6c63430008060033",
          "opcodes": "PUSH1 0x80 PUSH1 0x40 MSTORE PUSH1 0x1 DUP1 SSTORE PUSH1 0x0 PUSH1 0x2 SSTORE PUSH1 0x1 PUSH1 0x3 PUSH1 0x0 PUSH2 0x100 EXP DUP2 SLOAD DUP2 PUSH1 0xFF MUL NOT AND SWAP1 DUP4 ISZERO ISZERO MUL OR SWAP1 SSTORE POP PUSH1 0x0 PUSH1 0x6 SSTORE PUSH1 0x0 PUSH1 0x7 SSTORE CALLVALUE DUP1 ISZERO PUSH2 0x3E JUMPI PUSH1 0x0 DUP1 REVERT JUMPDEST POP CALLER PUSH1 0x3 PUSH1 0x1 PUSH2 0x100 EXP DUP2 SLOAD DUP2 PUSH20 0xFFFFFFFFFFFFFFFFFFFFFFFFFFFFFFFFFFFFFFFF MUL NOT AND SWAP1 DUP4 PUSH20 0xFFFFFFFFFFFFFFFFFFFFFFFFFFFFFFFFFFFFFFFF AND MUL OR SWAP1 SSTORE POP PUSH2 0x2C2E DUP1 PUSH2 0x8F PUSH1 0x0 CODECOPY PUSH1 0x0 RETURN INVALID PUSH1 0x80 PUSH1 0x40 MSTORE CALLVALUE DUP1 ISZERO PUSH2 0x10 JUMPI PUSH1 0x0 DUP1 REVERT JUMPDEST POP PUSH1 0x4 CALLDATASIZE LT PUSH2 0x14C JUMPI PUSH1 0x0 CALLDATALOAD PUSH1 0xE0 SHR DUP1 PUSH4 0x94B90830 GT PUSH2 0xC3 JUMPI DUP1 PUSH4 0xBEAE4942 GT PUSH2 0x7C JUMPI DUP1 PUSH4 0xBEAE4942 EQ PUSH2 0x3E7 JUMPI DUP1 PUSH4 0xC9557449 EQ PUSH2 0x403 JUMPI DUP1 PUSH4 0xCE8B4AFD EQ PUSH2 0x433 JUMPI DUP1 PUSH4 0xD7753A65 EQ PUSH2 0x44F JUMPI DUP1 PUSH4 0xE8CA8C3E EQ PUSH2 0x459 JUMPI DUP1 PUSH4 0xEE8A9FD6 EQ PUSH2 0x489 JUMPI PUSH2 0x14C JUMP JUMPDEST DUP1 PUSH4 0x94B90830 EQ PUSH2 0x313 JUMPI DUP1 PUSH4 0x957908D1 EQ PUSH2 0x343 JUMPI DUP1 PUSH4 0x981AD468 EQ PUSH2 0x361 JUMPI DUP1 PUSH4 0x9F181B5E EQ PUSH2 0x391 JUMPI DUP1 PUSH4 0xACA382A0 EQ PUSH2 0x3AF JUMPI DUP1 PUSH4 0xB0F555AE EQ PUSH2 0x3CB JUMPI PUSH2 0x14C JUMP JUMPDEST DUP1 PUSH4 0x1FFC735D GT PUSH2 0x115 JUMPI DUP1 PUSH4 0x1FFC735D EQ PUSH2 0x22D JUMPI DUP1 PUSH4 0x281D75AB EQ PUSH2 0x249 JUMPI DUP1 PUSH4 0x65AF0366 EQ PUSH2 0x279 JUMPI DUP1 PUSH4 0x6CF61127 EQ PUSH2 0x2A9 JUMPI DUP1 PUSH4 0x6E9960C3 EQ PUSH2 0x2D9 JUMPI DUP1 PUSH4 0x866FE41A EQ PUSH2 0x2F7 JUMPI PUSH2 0x14C JUMP JUMPDEST DUP1 PUSH3 0x923F9E EQ PUSH2 0x151 JUMPI DUP1 PUSH4 0x76FCC1F EQ PUSH2 0x181 JUMPI DUP1 PUSH4 0xB8E12FC EQ PUSH2 0x19D JUMPI DUP1 PUSH4 0x16B407A8 EQ PUSH2 0x1CD JUMPI DUP1 PUSH4 0x18182EAA EQ PUSH2 0x1FD JUMPI JUMPDEST PUSH1 0x0 DUP1 REVERT JUMPDEST PUSH2 0x16B PUSH1 0x4 DUP1 CALLDATASIZE SUB DUP2 ADD SWAP1 PUSH2 0x166 SWAP2 SWAP1 PUSH2 0x1FF7 JUMP JUMPDEST PUSH2 0x4A7 JUMP JUMPDEST PUSH1 0x40 MLOAD PUSH2 0x178 SWAP2 SWAP1 PUSH2 0x2453 JUMP JUMPDEST PUSH1 0x40 MLOAD DUP1 SWAP2 SUB SWAP1 RETURN JUMPDEST PUSH2 0x19B PUSH1 0x4 DUP1 CALLDATASIZE SUB DUP2 ADD SWAP1 PUSH2 0x196 SWAP2 SWAP1 PUSH2 0x2101 JUMP JUMPDEST PUSH2 0x4D0 JUMP JUMPDEST STOP JUMPDEST PUSH2 0x1B7 PUSH1 0x4 DUP1 CALLDATASIZE SUB DUP2 ADD SWAP1 PUSH2 0x1B2 SWAP2 SWAP1 PUSH2 0x1FF7 JUMP JUMPDEST PUSH2 0x685 JUMP JUMPDEST PUSH1 0x40 MLOAD PUSH2 0x1C4 SWAP2 SWAP1 PUSH2 0x25F0 JUMP JUMPDEST PUSH1 0x40 MLOAD DUP1 SWAP2 SUB SWAP1 RETURN JUMPDEST PUSH2 0x1E7 PUSH1 0x4 DUP1 CALLDATASIZE SUB DUP2 ADD SWAP1 PUSH2 0x1E2 SWAP2 SWAP1 PUSH2 0x1FF7 JUMP JUMPDEST PUSH2 0x6A5 JUMP JUMPDEST PUSH1 0x40 MLOAD PUSH2 0x1F4 SWAP2 SWAP1 PUSH2 0x25F0 JUMP JUMPDEST PUSH1 0x40 MLOAD DUP1 SWAP2 SUB SWAP1 RETURN JUMPDEST PUSH2 0x217 PUSH1 0x4 DUP1 CALLDATASIZE SUB DUP2 ADD SWAP1 PUSH2 0x212 SWAP2 SWAP1 PUSH2 0x2024 JUMP JUMPDEST PUSH2 0x6C5 JUMP JUMPDEST PUSH1 0x40 MLOAD PUSH2 0x224 SWAP2 SWAP1 PUSH2 0x2453 JUMP JUMPDEST PUSH1 0x40 MLOAD DUP1 SWAP2 SUB SWAP1 RETURN JUMPDEST PUSH2 0x247 PUSH1 0x4 DUP1 CALLDATASIZE SUB DUP2 ADD SWAP1 PUSH2 0x242 SWAP2 SWAP1 PUSH2 0x1FF7 JUMP JUMPDEST PUSH2 0x738 JUMP JUMPDEST STOP JUMPDEST PUSH2 0x263 PUSH1 0x4 DUP1 CALLDATASIZE SUB DUP2 ADD SWAP1 PUSH2 0x25E SWAP2 SWAP1 PUSH2 0x1FF7 JUMP JUMPDEST PUSH2 0x789 JUMP JUMPDEST PUSH1 0x40 MLOAD PUSH2 0x270 SWAP2 SWAP1 PUSH2 0x2453 JUMP JUMPDEST PUSH1 0x40 MLOAD DUP1 SWAP2 SUB SWAP1 RETURN JUMPDEST PUSH2 0x293 PUSH1 0x4 DUP1 CALLDATASIZE SUB DUP2 ADD SWAP1 PUSH2 0x28E SWAP2 SWAP1 PUSH2 0x1FAE JUMP JUMPDEST PUSH2 0x7A9 JUMP JUMPDEST PUSH1 0x40 MLOAD PUSH2 0x2A0 SWAP2 SWAP1 PUSH2 0x25F0 JUMP JUMPDEST PUSH1 0x40 MLOAD DUP1 SWAP2 SUB SWAP1 RETURN JUMPDEST PUSH2 0x2C3 PUSH1 0x4 DUP1 CALLDATASIZE SUB DUP2 ADD SWAP1 PUSH2 0x2BE SWAP2 SWAP1 PUSH2 0x2065 JUMP JUMPDEST PUSH2 0x7B7 JUMP JUMPDEST PUSH1 0x40 MLOAD PUSH2 0x2D0 SWAP2 SWAP1 PUSH2 0x2453 JUMP JUMPDEST PUSH1 0x40 MLOAD DUP1 SWAP2 SUB SWAP1 RETURN JUMPDEST PUSH2 0x2E1 PUSH2 0x829 JUMP JUMPDEST PUSH1 0x40 MLOAD PUSH2 0x2EE SWAP2 SWAP1 PUSH2 0x2416 JUMP JUMPDEST PUSH1 0x40 MLOAD DUP1 SWAP2 SUB SWAP1 RETURN JUMPDEST PUSH2 0x311 PUSH1 0x4 DUP1 CALLDATASIZE SUB DUP2 ADD SWAP1 PUSH2 0x30C SWAP2 SWAP1 PUSH2 0x1F0F JUMP JUMPDEST PUSH2 0x853 JUMP JUMPDEST STOP JUMPDEST PUSH2 0x32D PUSH1 0x4 DUP1 CALLDATASIZE SUB DUP2 ADD SWAP1 PUSH2 0x328 SWAP2 SWAP1 PUSH2 0x1FF7 JUMP JUMPDEST PUSH2 0xCE6 JUMP JUMPDEST PUSH1 0x40 MLOAD PUSH2 0x33A SWAP2 SWAP1 PUSH2 0x25CE JUMP JUMPDEST PUSH1 0x40 MLOAD DUP1 SWAP2 SUB SWAP1 RETURN JUMPDEST PUSH2 0x34B PUSH2 0xDC6 JUMP JUMPDEST PUSH1 0x40 MLOAD PUSH2 0x358 SWAP2 SWAP1 PUSH2 0x25F0 JUMP JUMPDEST PUSH1 0x40 MLOAD DUP1 SWAP2 SUB SWAP1 RETURN JUMPDEST PUSH2 0x37B PUSH1 0x4 DUP1 CALLDATASIZE SUB DUP2 ADD SWAP1 PUSH2 0x376 SWAP2 SWAP1 PUSH2 0x1FF7 JUMP JUMPDEST PUSH2 0xE4C JUMP JUMPDEST PUSH1 0x40 MLOAD PUSH2 0x388 SWAP2 SWAP1 PUSH2 0x2453 JUMP JUMPDEST PUSH1 0x40 MLOAD DUP1 SWAP2 SUB SWAP1 RETURN JUMPDEST PUSH2 0x399 PUSH2 0xE79 JUMP JUMPDEST PUSH1 0x40 MLOAD PUSH2 0x3A6 SWAP2 SWAP1 PUSH2 0x25F0 JUMP JUMPDEST PUSH1 0x40 MLOAD DUP1 SWAP2 SUB SWAP1 RETURN JUMPDEST PUSH2 0x3C9 PUSH1 0x4 DUP1 CALLDATASIZE SUB DUP2 ADD SWAP1 PUSH2 0x3C4 SWAP2 SWAP1 PUSH2 0x1FF7 JUMP JUMPDEST PUSH2 0xE83 JUMP JUMPDEST STOP JUMPDEST PUSH2 0x3E5 PUSH1 0x4 DUP1 CALLDATASIZE SUB DUP2 ADD SWAP1 PUSH2 0x3E0 SWAP2 SWAP1 PUSH2 0x1FF7 JUMP JUMPDEST PUSH2 0xFE3 JUMP JUMPDEST STOP JUMPDEST PUSH2 0x401 PUSH1 0x4 DUP1 CALLDATASIZE SUB DUP2 ADD SWAP1 PUSH2 0x3FC SWAP2 SWAP1 PUSH2 0x1E84 JUMP JUMPDEST PUSH2 0x117C JUMP JUMPDEST STOP JUMPDEST PUSH2 0x41D PUSH1 0x4 DUP1 CALLDATASIZE SUB DUP2 ADD SWAP1 PUSH2 0x418 SWAP2 SWAP1 PUSH2 0x1FF7 JUMP JUMPDEST PUSH2 0x1779 JUMP JUMPDEST PUSH1 0x40 MLOAD PUSH2 0x42A SWAP2 SWAP1 PUSH2 0x2431 JUMP JUMPDEST PUSH1 0x40 MLOAD DUP1 SWAP2 SUB SWAP1 RETURN JUMPDEST PUSH2 0x44D PUSH1 0x4 DUP1 CALLDATASIZE SUB DUP2 ADD SWAP1 PUSH2 0x448 SWAP2 SWAP1 PUSH2 0x20C1 JUMP JUMPDEST PUSH2 0x17EA JUMP JUMPDEST STOP JUMPDEST PUSH2 0x457 PUSH2 0x19EA JUMP JUMPDEST STOP JUMPDEST PUSH2 0x473 PUSH1 0x4 DUP1 CALLDATASIZE SUB DUP2 ADD SWAP1 PUSH2 0x46E SWAP2 SWAP1 PUSH2 0x1FF7 JUMP JUMPDEST PUSH2 0x1AD6 JUMP JUMPDEST PUSH1 0x40 MLOAD PUSH2 0x480 SWAP2 SWAP1 PUSH2 0x2431 JUMP JUMPDEST PUSH1 0x40 MLOAD DUP1 SWAP2 SUB SWAP1 RETURN JUMPDEST PUSH2 0x491 PUSH2 0x1B47 JUMP JUMPDEST PUSH1 0x40 MLOAD PUSH2 0x49E SWAP2 SWAP1 PUSH2 0x25F0 JUMP JUMPDEST PUSH1 0x40 MLOAD DUP1 SWAP2 SUB SWAP1 RETURN JUMPDEST PUSH1 0x0 DUP1 PUSH1 0x5 PUSH1 0x0 DUP5 DUP2 MSTORE PUSH1 0x20 ADD SWAP1 DUP2 MSTORE PUSH1 0x20 ADD PUSH1 0x0 KECCAK256 PUSH1 0x0 ADD SLOAD EQ PUSH2 0x4CB JUMPI PUSH1 0x1 SWAP1 POP JUMPDEST SWAP2 SWAP1 POP JUMP JUMPDEST PUSH1 0x3 PUSH1 0x1 SWAP1 SLOAD SWAP1 PUSH2 0x100 EXP SWAP1 DIV PUSH20 0xFFFFFFFFFFFFFFFFFFFFFFFFFFFFFFFFFFFFFFFF AND PUSH20 0xFFFFFFFFFFFFFFFFFFFFFFFFFFFFFFFFFFFFFFFF AND CALLER PUSH20 0xFFFFFFFFFFFFFFFFFFFFFFFFFFFFFFFFFFFFFFFF AND EQ PUSH2 0x560 JUMPI PUSH1 0x40 MLOAD PUSH32 0x8C379A000000000000000000000000000000000000000000000000000000000 DUP2 MSTORE PUSH1 0x4 ADD PUSH2 0x557 SWAP1 PUSH2 0x256E JUMP JUMPDEST PUSH1 0x40 MLOAD DUP1 SWAP2 SUB SWAP1 REVERT JUMPDEST DUP2 PUSH1 0x0 DUP2 EQ ISZERO PUSH2 0x5A5 JUMPI PUSH1 0x40 MLOAD PUSH32 0x8C379A000000000000000000000000000000000000000000000000000000000 DUP2 MSTORE PUSH1 0x4 ADD PUSH2 0x59C SWAP1 PUSH2 0x248E JUMP JUMPDEST PUSH1 0x40 MLOAD DUP1 SWAP2 SUB SWAP1 REVERT JUMPDEST PUSH1 0x1 ISZERO ISZERO PUSH1 0x4 PUSH1 0x0 DUP4 DUP2 MSTORE PUSH1 0x20 ADD SWAP1 DUP2 MSTORE PUSH1 0x20 ADD PUSH1 0x0 KECCAK256 PUSH1 0x0 SWAP1 SLOAD SWAP1 PUSH2 0x100 EXP SWAP1 DIV PUSH1 0xFF AND ISZERO ISZERO EQ PUSH2 0x60C JUMPI PUSH1 0x40 MLOAD PUSH32 0x8C379A000000000000000000000000000000000000000000000000000000000 DUP2 MSTORE PUSH1 0x4 ADD PUSH2 0x603 SWAP1 PUSH2 0x246E JUMP JUMPDEST PUSH1 0x40 MLOAD DUP1 SWAP2 SUB SWAP1 REVERT JUMPDEST PUSH1 0x0 PUSH1 0x5 PUSH1 0x0 DUP4 DUP2 MSTORE PUSH1 0x20 ADD SWAP1 DUP2 MSTORE PUSH1 0x20 ADD PUSH1 0x0 KECCAK256 PUSH1 0x0 ADD SLOAD EQ PUSH2 0x665 JUMPI PUSH1 0x40 MLOAD PUSH32 0x8C379A000000000000000000000000000000000000000000000000000000000 DUP2 MSTORE PUSH1 0x4 ADD PUSH2 0x65C SWAP1 PUSH2 0x254E JUMP JUMPDEST PUSH1 0x40 MLOAD DUP1 SWAP2 SUB SWAP1 REVERT JUMPDEST DUP2 PUSH1 0x5 PUSH1 0x0 DUP6 DUP2 MSTORE PUSH1 0x20 ADD SWAP1 DUP2 MSTORE PUSH1 0x20 ADD PUSH1 0x0 KECCAK256 PUSH1 0x1 ADD DUP2 SWAP1 SSTORE POP POP POP POP JUMP JUMPDEST PUSH1 0x0 PUSH1 0x5 PUSH1 0x0 DUP4 DUP2 MSTORE PUSH1 0x20 ADD SWAP1 DUP2 MSTORE PUSH1 0x20 ADD PUSH1 0x0 KECCAK256 PUSH1 0x2 ADD SLOAD SWAP1 POP SWAP2 SWAP1 POP JUMP JUMPDEST PUSH1 0x0 PUSH1 0x5 PUSH1 0x0 DUP4 DUP2 MSTORE PUSH1 0x20 ADD SWAP1 DUP2 MSTORE PUSH1 0x20 ADD PUSH1 0x0 KECCAK256 PUSH1 0x1 ADD SLOAD SWAP1 POP SWAP2 SWAP1 POP JUMP JUMPDEST PUSH1 0x0 DUP1 PUSH2 0x200 SWAP1 POP PUSH1 0x0 DUP2 EQ ISZERO PUSH2 0x6E0 JUMPI PUSH1 0x0 SWAP2 POP POP PUSH2 0x732 JUMP JUMPDEST PUSH1 0x0 JUMPDEST PUSH2 0x200 DUP2 LT ISZERO PUSH2 0x72B JUMPI DUP5 DUP5 DUP3 PUSH2 0x200 DUP2 LT PUSH2 0x702 JUMPI PUSH2 0x701 PUSH2 0x2824 JUMP JUMPDEST JUMPDEST PUSH1 0x20 MUL ADD MLOAD EQ ISZERO PUSH2 0x718 JUMPI PUSH1 0x1 SWAP3 POP POP POP PUSH2 0x732 JUMP JUMPDEST DUP1 DUP1 PUSH2 0x723 SWAP1 PUSH2 0x27AC JUMP JUMPDEST SWAP2 POP POP PUSH2 0x6E3 JUMP JUMPDEST POP PUSH1 0x0 SWAP2 POP POP JUMPDEST SWAP3 SWAP2 POP POP JUMP JUMPDEST PUSH1 0x1 PUSH1 0x2 PUSH1 0x0 DUP3 DUP3 SLOAD PUSH2 0x74B SWAP2 SWAP1 PUSH2 0x26DD JUMP JUMPDEST SWAP3 POP POP DUP2 SWAP1 SSTORE POP PUSH1 0x0 PUSH1 0x3 PUSH1 0x0 PUSH2 0x100 EXP DUP2 SLOAD DUP2 PUSH1 0xFF MUL NOT AND SWAP1 DUP4 ISZERO ISZERO MUL OR SWAP1 SSTORE POP DUP1 PUSH1 0x0 DUP1 PUSH1 0x2 SLOAD DUP2 MSTORE PUSH1 0x20 ADD SWAP1 DUP2 MSTORE PUSH1 0x20 ADD PUSH1 0x0 KECCAK256 DUP2 SWAP1 SSTORE POP POP JUMP JUMPDEST PUSH1 0x4 PUSH1 0x20 MSTORE DUP1 PUSH1 0x0 MSTORE PUSH1 0x40 PUSH1 0x0 KECCAK256 PUSH1 0x0 SWAP2 POP SLOAD SWAP1 PUSH2 0x100 EXP SWAP1 DIV PUSH1 0xFF AND DUP2 JUMP JUMPDEST PUSH1 0x0 DUP2 PUSH1 0x0 ADD MLOAD SWAP1 POP SWAP2 SWAP1 POP JUMP JUMPDEST PUSH1 0x0 DUP1 DUP3 MLOAD SWAP1 POP PUSH1 0x0 DUP2 EQ ISZERO PUSH2 0x7D1 JUMPI PUSH1 0x0 SWAP2 POP POP PUSH2 0x823 JUMP JUMPDEST PUSH1 0x0 JUMPDEST DUP2 DUP2 LT ISZERO PUSH2 0x81C JUMPI DUP5 DUP5 DUP3 DUP2 MLOAD DUP2 LT PUSH2 0x7F0 JUMPI PUSH2 0x7EF PUSH2 0x2824 JUMP JUMPDEST JUMPDEST PUSH1 0x20 MUL PUSH1 0x20 ADD ADD MLOAD EQ ISZERO PUSH2 0x809 JUMPI PUSH1 0x1 SWAP3 POP POP POP PUSH2 0x823 JUMP JUMPDEST DUP1 DUP1 PUSH2 0x814 SWAP1 PUSH2 0x27AC JUMP JUMPDEST SWAP2 POP POP PUSH2 0x7D4 JUMP JUMPDEST POP PUSH1 0x0 SWAP2 POP POP JUMPDEST SWAP3 SWAP2 POP POP JUMP JUMPDEST PUSH1 0x0 PUSH1 0x3 PUSH1 0x1 SWAP1 SLOAD SWAP1 PUSH2 0x100 EXP SWAP1 DIV PUSH20 0xFFFFFFFFFFFFFFFFFFFFFFFFFFFFFFFFFFFFFFFF AND SWAP1 POP SWAP1 JUMP JUMPDEST PUSH1 0x3 PUSH1 0x1 SWAP1 SLOAD SWAP1 PUSH2 0x100 EXP SWAP1 DIV PUSH20 0xFFFFFFFFFFFFFFFFFFFFFFFFFFFFFFFFFFFFFFFF AND PUSH20 0xFFFFFFFFFFFFFFFFFFFFFFFFFFFFFFFFFFFFFFFF AND CALLER PUSH20 0xFFFFFFFFFFFFFFFFFFFFFFFFFFFFFFFFFFFFFFFF AND EQ PUSH2 0x8E3 JUMPI PUSH1 0x40 MLOAD PUSH32 0x8C379A000000000000000000000000000000000000000000000000000000000 DUP2 MSTORE PUSH1 0x4 ADD PUSH2 0x8DA SWAP1 PUSH2 0x256E JUMP JUMPDEST PUSH1 0x40 MLOAD DUP1 SWAP2 SUB SWAP1 REVERT JUMPDEST DUP2 PUSH1 0x0 DUP2 EQ ISZERO PUSH2 0x928 JUMPI PUSH1 0x40 MLOAD PUSH32 0x8C379A000000000000000000000000000000000000000000000000000000000 DUP2 MSTORE PUSH1 0x4 ADD PUSH2 0x91F SWAP1 PUSH2 0x248E JUMP JUMPDEST PUSH1 0x40 MLOAD DUP1 SWAP2 SUB SWAP1 REVERT JUMPDEST PUSH1 0x1 ISZERO ISZERO PUSH1 0x4 PUSH1 0x0 DUP4 DUP2 MSTORE PUSH1 0x20 ADD SWAP1 DUP2 MSTORE PUSH1 0x20 ADD PUSH1 0x0 KECCAK256 PUSH1 0x0 SWAP1 SLOAD SWAP1 PUSH2 0x100 EXP SWAP1 DIV PUSH1 0xFF AND ISZERO ISZERO EQ PUSH2 0x98F JUMPI PUSH1 0x40 MLOAD PUSH32 0x8C379A000000000000000000000000000000000000000000000000000000000 DUP2 MSTORE PUSH1 0x4 ADD PUSH2 0x986 SWAP1 PUSH2 0x246E JUMP JUMPDEST PUSH1 0x40 MLOAD DUP1 SWAP2 SUB SWAP1 REVERT JUMPDEST PUSH1 0x0 PUSH1 0x5 PUSH1 0x0 DUP4 DUP2 MSTORE PUSH1 0x20 ADD SWAP1 DUP2 MSTORE PUSH1 0x20 ADD PUSH1 0x0 KECCAK256 PUSH1 0x0 ADD SLOAD EQ PUSH2 0x9E8 JUMPI PUSH1 0x40 MLOAD PUSH32 0x8C379A000000000000000000000000000000000000000000000000000000000 DUP2 MSTORE PUSH1 0x4 ADD PUSH2 0x9DF SWAP1 PUSH2 0x254E JUMP JUMPDEST PUSH1 0x40 MLOAD DUP1 SWAP2 SUB SWAP1 REVERT JUMPDEST PUSH1 0x0 JUMPDEST DUP6 MLOAD DUP2 LT ISZERO PUSH2 0xB5A JUMPI PUSH1 0x0 DUP7 DUP3 DUP2 MLOAD DUP2 LT PUSH2 0xA09 JUMPI PUSH2 0xA08 PUSH2 0x2824 JUMP JUMPDEST JUMPDEST PUSH1 0x20 MUL PUSH1 0x20 ADD ADD MLOAD EQ ISZERO PUSH2 0xA52 JUMPI PUSH1 0x40 MLOAD PUSH32 0x8C379A000000000000000000000000000000000000000000000000000000000 DUP2 MSTORE PUSH1 0x4 ADD PUSH2 0xA49 SWAP1 PUSH2 0x258E JUMP JUMPDEST PUSH1 0x40 MLOAD DUP1 SWAP2 SUB SWAP1 REVERT JUMPDEST PUSH1 0x1 ISZERO ISZERO PUSH1 0x4 PUSH1 0x0 DUP9 DUP5 DUP2 MLOAD DUP2 LT PUSH2 0xA6D JUMPI PUSH2 0xA6C PUSH2 0x2824 JUMP JUMPDEST JUMPDEST PUSH1 0x20 MUL PUSH1 0x20 ADD ADD MLOAD DUP2 MSTORE PUSH1 0x20 ADD SWAP1 DUP2 MSTORE PUSH1 0x20 ADD PUSH1 0x0 KECCAK256 PUSH1 0x0 SWAP1 SLOAD SWAP1 PUSH2 0x100 EXP SWAP1 DIV PUSH1 0xFF AND ISZERO ISZERO EQ PUSH2 0xAD3 JUMPI PUSH1 0x40 MLOAD PUSH32 0x8C379A000000000000000000000000000000000000000000000000000000000 DUP2 MSTORE PUSH1 0x4 ADD PUSH2 0xACA SWAP1 PUSH2 0x25AE JUMP JUMPDEST PUSH1 0x40 MLOAD DUP1 SWAP2 SUB SWAP1 REVERT JUMPDEST PUSH1 0x0 PUSH1 0x5 PUSH1 0x0 DUP9 DUP5 DUP2 MLOAD DUP2 LT PUSH2 0xAEC JUMPI PUSH2 0xAEB PUSH2 0x2824 JUMP JUMPDEST JUMPDEST PUSH1 0x20 MUL PUSH1 0x20 ADD ADD MLOAD DUP2 MSTORE PUSH1 0x20 ADD SWAP1 DUP2 MSTORE PUSH1 0x20 ADD PUSH1 0x0 KECCAK256 PUSH1 0x0 ADD SLOAD EQ ISZERO PUSH2 0xB47 JUMPI PUSH1 0x40 MLOAD PUSH32 0x8C379A000000000000000000000000000000000000000000000000000000000 DUP2 MSTORE PUSH1 0x4 ADD PUSH2 0xB3E SWAP1 PUSH2 0x252E JUMP JUMPDEST PUSH1 0x40 MLOAD DUP1 SWAP2 SUB SWAP1 REVERT JUMPDEST DUP1 DUP1 PUSH2 0xB52 SWAP1 PUSH2 0x27AC JUMP JUMPDEST SWAP2 POP POP PUSH2 0x9EB JUMP JUMPDEST POP PUSH1 0x0 PUSH2 0xB67 DUP5 DUP8 PUSH2 0x7B7 JUMP JUMPDEST SWAP1 POP DUP1 ISZERO PUSH2 0xBAA JUMPI PUSH1 0x40 MLOAD PUSH32 0x8C379A000000000000000000000000000000000000000000000000000000000 DUP2 MSTORE PUSH1 0x4 ADD PUSH2 0xBA1 SWAP1 PUSH2 0x24AE JUMP JUMPDEST PUSH1 0x40 MLOAD DUP1 SWAP2 SUB SWAP1 REVERT JUMPDEST PUSH1 0x6 PUSH1 0x0 DUP2 SLOAD DUP1 SWAP3 SWAP2 SWAP1 PUSH2 0xBBD SWAP1 PUSH2 0x27AC JUMP JUMPDEST SWAP2 SWAP1 POP SSTORE POP DUP4 PUSH1 0x5 PUSH1 0x0 DUP7 DUP2 MSTORE PUSH1 0x20 ADD SWAP1 DUP2 MSTORE PUSH1 0x20 ADD PUSH1 0x0 KECCAK256 PUSH1 0x0 ADD DUP2 SWAP1 SSTORE POP DUP3 PUSH1 0x5 PUSH1 0x0 DUP7 DUP2 MSTORE PUSH1 0x20 ADD SWAP1 DUP2 MSTORE PUSH1 0x20 ADD PUSH1 0x0 KECCAK256 PUSH1 0x1 ADD DUP2 SWAP1 SSTORE POP TIMESTAMP PUSH1 0x5 PUSH1 0x0 DUP7 DUP2 MSTORE PUSH1 0x20 ADD SWAP1 DUP2 MSTORE PUSH1 0x20 ADD PUSH1 0x0 KECCAK256 PUSH1 0x2 ADD DUP2 SWAP1 SSTORE POP PUSH1 0x0 DUP7 MLOAD EQ ISZERO PUSH2 0xC23 JUMPI POP PUSH2 0xCDF JUMP JUMPDEST DUP5 MLOAD DUP7 MLOAD EQ PUSH2 0xC67 JUMPI PUSH1 0x40 MLOAD PUSH32 0x8C379A000000000000000000000000000000000000000000000000000000000 DUP2 MSTORE PUSH1 0x4 ADD PUSH2 0xC5E SWAP1 PUSH2 0x24EE JUMP JUMPDEST PUSH1 0x40 MLOAD DUP1 SWAP2 SUB SWAP1 REVERT JUMPDEST DUP6 MLOAD PUSH1 0x7 PUSH1 0x0 DUP3 DUP3 SLOAD PUSH2 0xC7A SWAP2 SWAP1 PUSH2 0x26DD JUMP JUMPDEST SWAP3 POP POP DUP2 SWAP1 SSTORE POP DUP6 PUSH1 0x5 PUSH1 0x0 DUP7 DUP2 MSTORE PUSH1 0x20 ADD SWAP1 DUP2 MSTORE PUSH1 0x20 ADD PUSH1 0x0 KECCAK256 PUSH1 0x4 ADD PUSH1 0x0 ADD SWAP1 DUP1 MLOAD SWAP1 PUSH1 0x20 ADD SWAP1 PUSH2 0xCAE SWAP3 SWAP2 SWAP1 PUSH2 0x1B51 JUMP JUMPDEST POP DUP5 PUSH1 0x5 PUSH1 0x0 DUP7 DUP2 MSTORE PUSH1 0x20 ADD SWAP1 DUP2 MSTORE PUSH1 0x20 ADD PUSH1 0x0 KECCAK256 PUSH1 0x4 ADD PUSH1 0x1 ADD SWAP1 DUP1 MLOAD SWAP1 PUSH1 0x20 ADD SWAP1 PUSH2 0xCDC SWAP3 SWAP2 SWAP1 PUSH2 0x1B51 JUMP JUMPDEST POP POP JUMPDEST POP POP POP POP POP JUMP JUMPDEST PUSH2 0xCEE PUSH2 0x1B9E JUMP JUMPDEST PUSH1 0x5 PUSH1 0x0 DUP4 DUP2 MSTORE PUSH1 0x20 ADD SWAP1 DUP2 MSTORE PUSH1 0x20 ADD PUSH1 0x0 KECCAK256 PUSH1 0x4 ADD PUSH1 0x40 MLOAD DUP1 PUSH1 0x40 ADD PUSH1 0x40 MSTORE SWAP1 DUP2 PUSH1 0x0 DUP3 ADD DUP1 SLOAD DUP1 PUSH1 0x20 MUL PUSH1 0x20 ADD PUSH1 0x40 MLOAD SWAP1 DUP2 ADD PUSH1 0x40 MSTORE DUP1 SWAP3 SWAP2 SWAP1 DUP2 DUP2 MSTORE PUSH1 0x20 ADD DUP3 DUP1 SLOAD DUP1 ISZERO PUSH2 0xD5E JUMPI PUSH1 0x20 MUL DUP3 ADD SWAP2 SWAP1 PUSH1 0x0 MSTORE PUSH1 0x20 PUSH1 0x0 KECCAK256 SWAP1 JUMPDEST DUP2 SLOAD DUP2 MSTORE PUSH1 0x20 ADD SWAP1 PUSH1 0x1 ADD SWAP1 DUP1 DUP4 GT PUSH2 0xD4A JUMPI JUMPDEST POP POP POP POP POP DUP2 MSTORE PUSH1 0x20 ADD PUSH1 0x1 DUP3 ADD DUP1 SLOAD DUP1 PUSH1 0x20 MUL PUSH1 0x20 ADD PUSH1 0x40 MLOAD SWAP1 DUP2 ADD PUSH1 0x40 MSTORE DUP1 SWAP3 SWAP2 SWAP1 DUP2 DUP2 MSTORE PUSH1 0x20 ADD DUP3 DUP1 SLOAD DUP1 ISZERO PUSH2 0xDB6 JUMPI PUSH1 0x20 MUL DUP3 ADD SWAP2 SWAP1 PUSH1 0x0 MSTORE PUSH1 0x20 PUSH1 0x0 KECCAK256 SWAP1 JUMPDEST DUP2 SLOAD DUP2 MSTORE PUSH1 0x20 ADD SWAP1 PUSH1 0x1 ADD SWAP1 DUP1 DUP4 GT PUSH2 0xDA2 JUMPI JUMPDEST POP POP POP POP POP DUP2 MSTORE POP POP SWAP1 POP SWAP2 SWAP1 POP JUMP JUMPDEST PUSH1 0x0 PUSH1 0x1 SLOAD PUSH1 0x2 SLOAD LT ISZERO PUSH2 0xDD9 JUMPI PUSH1 0x0 DUP1 REVERT JUMPDEST PUSH1 0x0 DUP1 PUSH1 0x1 SLOAD DUP2 MSTORE PUSH1 0x20 ADD SWAP1 DUP2 MSTORE PUSH1 0x20 ADD PUSH1 0x0 KECCAK256 SLOAD SWAP1 POP PUSH1 0x2 SLOAD PUSH1 0x1 SLOAD EQ ISZERO PUSH2 0xE18 JUMPI PUSH1 0x1 PUSH1 0x3 PUSH1 0x0 PUSH2 0x100 EXP DUP2 SLOAD DUP2 PUSH1 0xFF MUL NOT AND SWAP1 DUP4 ISZERO ISZERO MUL OR SWAP1 SSTORE POP JUMPDEST PUSH1 0x0 DUP1 PUSH1 0x1 SLOAD DUP2 MSTORE PUSH1 0x20 ADD SWAP1 DUP2 MSTORE PUSH1 0x20 ADD PUSH1 0x0 KECCAK256 PUSH1 0x0 SWAP1 SSTORE PUSH1 0x1 DUP1 PUSH1 0x0 DUP3 DUP3 SLOAD PUSH2 0xE42 SWAP2 SWAP1 PUSH2 0x26DD JUMP JUMPDEST SWAP3 POP POP DUP2 SWAP1 SSTORE POP SWAP1 JUMP JUMPDEST PUSH1 0x0 PUSH1 0x5 PUSH1 0x0 DUP4 DUP2 MSTORE PUSH1 0x20 ADD SWAP1 DUP2 MSTORE PUSH1 0x20 ADD PUSH1 0x0 KECCAK256 PUSH1 0x3 ADD PUSH1 0x0 SWAP1 SLOAD SWAP1 PUSH2 0x100 EXP SWAP1 DIV PUSH1 0xFF AND SWAP1 POP SWAP2 SWAP1 POP JUMP JUMPDEST PUSH1 0x0 PUSH1 0x6 SLOAD SWAP1 POP SWAP1 JUMP JUMPDEST PUSH2 0xE8B PUSH2 0x1BB8 JUMP JUMPDEST PUSH1 0x0 PUSH2 0xE95 PUSH2 0x1BB8 JUMP JUMPDEST PUSH1 0x0 PUSH2 0xEA0 DUP6 PUSH2 0x738 JUMP JUMPDEST PUSH1 0x0 JUMPDEST PUSH1 0x3 PUSH1 0x0 SWAP1 SLOAD SWAP1 PUSH2 0x100 EXP SWAP1 DIV PUSH1 0xFF AND PUSH2 0xFDB JUMPI PUSH2 0xEBF PUSH2 0xDC6 JUMP JUMPDEST SWAP1 POP PUSH2 0xECB DUP2 DUP7 PUSH2 0x6C5 JUMP JUMPDEST PUSH2 0xEFC JUMPI DUP1 DUP6 DUP6 PUSH2 0x200 DUP2 LT PUSH2 0xEE4 JUMPI PUSH2 0xEE3 PUSH2 0x2824 JUMP JUMPDEST JUMPDEST PUSH1 0x20 MUL ADD DUP2 DUP2 MSTORE POP POP DUP4 DUP1 PUSH2 0xEF8 SWAP1 PUSH2 0x27AC JUMP JUMPDEST SWAP5 POP POP JUMPDEST PUSH1 0x0 JUMPDEST PUSH1 0x5 PUSH1 0x0 DUP4 DUP2 MSTORE PUSH1 0x20 ADD SWAP1 DUP2 MSTORE PUSH1 0x20 ADD PUSH1 0x0 KECCAK256 PUSH1 0x4 ADD PUSH1 0x0 ADD DUP1 SLOAD SWAP1 POP DUP2 LT ISZERO PUSH2 0xFD5 JUMPI PUSH2 0xF61 PUSH1 0x5 PUSH1 0x0 DUP5 DUP2 MSTORE PUSH1 0x20 ADD SWAP1 DUP2 MSTORE PUSH1 0x20 ADD PUSH1 0x0 KECCAK256 PUSH1 0x4 ADD PUSH1 0x0 ADD DUP3 DUP2 SLOAD DUP2 LT PUSH2 0xF51 JUMPI PUSH2 0xF50 PUSH2 0x2824 JUMP JUMPDEST JUMPDEST SWAP1 PUSH1 0x0 MSTORE PUSH1 0x20 PUSH1 0x0 KECCAK256 ADD SLOAD PUSH2 0x738 JUMP JUMPDEST PUSH1 0x5 PUSH1 0x0 DUP4 DUP2 MSTORE PUSH1 0x20 ADD SWAP1 DUP2 MSTORE PUSH1 0x20 ADD PUSH1 0x0 KECCAK256 PUSH1 0x4 ADD PUSH1 0x1 ADD DUP2 DUP2 SLOAD DUP2 LT PUSH2 0xF8C JUMPI PUSH2 0xF8B PUSH2 0x2824 JUMP JUMPDEST JUMPDEST SWAP1 PUSH1 0x0 MSTORE PUSH1 0x20 PUSH1 0x0 KECCAK256 ADD SLOAD DUP5 DUP5 PUSH2 0x200 DUP2 LT PUSH2 0xFAB JUMPI PUSH2 0xFAA PUSH2 0x2824 JUMP JUMPDEST JUMPDEST PUSH1 0x20 MUL ADD DUP2 DUP2 MSTORE POP POP DUP3 DUP1 PUSH2 0xFBF SWAP1 PUSH2 0x27AC JUMP JUMPDEST SWAP4 POP POP DUP1 DUP1 PUSH2 0xFCD SWAP1 PUSH2 0x27AC JUMP JUMPDEST SWAP2 POP POP PUSH2 0xEFF JUMP JUMPDEST POP PUSH2 0xEA3 JUMP JUMPDEST POP POP POP POP POP POP JUMP JUMPDEST PUSH1 0x3 PUSH1 0x1 SWAP1 SLOAD SWAP1 PUSH2 0x100 EXP SWAP1 DIV PUSH20 0xFFFFFFFFFFFFFFFFFFFFFFFFFFFFFFFFFFFFFFFF AND PUSH20 0xFFFFFFFFFFFFFFFFFFFFFFFFFFFFFFFFFFFFFFFF AND CALLER PUSH20 0xFFFFFFFFFFFFFFFFFFFFFFFFFFFFFFFFFFFFFFFF AND EQ PUSH2 0x1073 JUMPI PUSH1 0x40 MLOAD PUSH32 0x8C379A000000000000000000000000000000000000000000000000000000000 DUP2 MSTORE PUSH1 0x4 ADD PUSH2 0x106A SWAP1 PUSH2 0x256E JUMP JUMPDEST PUSH1 0x40 MLOAD DUP1 SWAP2 SUB SWAP1 REVERT JUMPDEST DUP1 PUSH1 0x0 DUP2 EQ ISZERO PUSH2 0x10B8 JUMPI PUSH1 0x40 MLOAD PUSH32 0x8C379A000000000000000000000000000000000000000000000000000000000 DUP2 MSTORE PUSH1 0x4 ADD PUSH2 0x10AF SWAP1 PUSH2 0x248E JUMP JUMPDEST PUSH1 0x40 MLOAD DUP1 SWAP2 SUB SWAP1 REVERT JUMPDEST PUSH1 0x1 ISZERO ISZERO PUSH1 0x4 PUSH1 0x0 DUP4 DUP2 MSTORE PUSH1 0x20 ADD SWAP1 DUP2 MSTORE PUSH1 0x20 ADD PUSH1 0x0 KECCAK256 PUSH1 0x0 SWAP1 SLOAD SWAP1 PUSH2 0x100 EXP SWAP1 DIV PUSH1 0xFF AND ISZERO ISZERO EQ PUSH2 0x111F JUMPI PUSH1 0x40 MLOAD PUSH32 0x8C379A000000000000000000000000000000000000000000000000000000000 DUP2 MSTORE PUSH1 0x4 ADD PUSH2 0x1116 SWAP1 PUSH2 0x246E JUMP JUMPDEST PUSH1 0x40 MLOAD DUP1 SWAP2 SUB SWAP1 REVERT JUMPDEST PUSH1 0x0 PUSH1 0x5 PUSH1 0x0 DUP4 DUP2 MSTORE PUSH1 0x20 ADD SWAP1 DUP2 MSTORE PUSH1 0x20 ADD PUSH1 0x0 KECCAK256 PUSH1 0x0 ADD SLOAD EQ PUSH2 0x1178 JUMPI PUSH1 0x40 MLOAD PUSH32 0x8C379A000000000000000000000000000000000000000000000000000000000 DUP2 MSTORE PUSH1 0x4 ADD PUSH2 0x116F SWAP1 PUSH2 0x254E JUMP JUMPDEST PUSH1 0x40 MLOAD DUP1 SWAP2 SUB SWAP1 REVERT JUMPDEST POP POP JUMP JUMPDEST PUSH1 0x3 PUSH1 0x1 SWAP1 SLOAD SWAP1 PUSH2 0x100 EXP SWAP1 DIV PUSH20 0xFFFFFFFFFFFFFFFFFFFFFFFFFFFFFFFFFFFFFFFF AND PUSH20 0xFFFFFFFFFFFFFFFFFFFFFFFFFFFFFFFFFFFFFFFF AND CALLER PUSH20 0xFFFFFFFFFFFFFFFFFFFFFFFFFFFFFFFFFFFFFFFF AND EQ PUSH2 0x120C JUMPI PUSH1 0x40 MLOAD PUSH32 0x8C379A000000000000000000000000000000000000000000000000000000000 DUP2 MSTORE PUSH1 0x4 ADD PUSH2 0x1203 SWAP1 PUSH2 0x256E JUMP JUMPDEST PUSH1 0x40 MLOAD DUP1 SWAP2 SUB SWAP1 REVERT JUMPDEST DUP1 PUSH1 0x0 DUP2 EQ ISZERO PUSH2 0x1251 JUMPI PUSH1 0x40 MLOAD PUSH32 0x8C379A000000000000000000000000000000000000000000000000000000000 DUP2 MSTORE PUSH1 0x4 ADD PUSH2 0x1248 SWAP1 PUSH2 0x248E JUMP JUMPDEST PUSH1 0x40 MLOAD DUP1 SWAP2 SUB SWAP1 REVERT JUMPDEST PUSH1 0x1 ISZERO ISZERO PUSH1 0x4 PUSH1 0x0 DUP4 DUP2 MSTORE PUSH1 0x20 ADD SWAP1 DUP2 MSTORE PUSH1 0x20 ADD PUSH1 0x0 KECCAK256 PUSH1 0x0 SWAP1 SLOAD SWAP1 PUSH2 0x100 EXP SWAP1 DIV PUSH1 0xFF AND ISZERO ISZERO EQ PUSH2 0x12B8 JUMPI PUSH1 0x40 MLOAD PUSH32 0x8C379A000000000000000000000000000000000000000000000000000000000 DUP2 MSTORE PUSH1 0x4 ADD PUSH2 0x12AF SWAP1 PUSH2 0x246E JUMP JUMPDEST PUSH1 0x40 MLOAD DUP1 SWAP2 SUB SWAP1 REVERT JUMPDEST PUSH1 0x0 PUSH1 0x5 PUSH1 0x0 DUP4 DUP2 MSTORE PUSH1 0x20 ADD SWAP1 DUP2 MSTORE PUSH1 0x20 ADD PUSH1 0x0 KECCAK256 PUSH1 0x0 ADD SLOAD EQ PUSH2 0x1311 JUMPI PUSH1 0x40 MLOAD PUSH32 0x8C379A000000000000000000000000000000000000000000000000000000000 DUP2 MSTORE PUSH1 0x4 ADD PUSH2 0x1308 SWAP1 PUSH2 0x254E JUMP JUMPDEST PUSH1 0x40 MLOAD DUP1 SWAP2 SUB SWAP1 REVERT JUMPDEST PUSH1 0x0 DUP5 MLOAD EQ ISZERO PUSH2 0x1320 JUMPI PUSH2 0x1773 JUMP JUMPDEST PUSH1 0x0 JUMPDEST DUP5 MLOAD DUP2 LT ISZERO PUSH2 0x1492 JUMPI PUSH1 0x0 DUP6 DUP3 DUP2 MLOAD DUP2 LT PUSH2 0x1341 JUMPI PUSH2 0x1340 PUSH2 0x2824 JUMP JUMPDEST JUMPDEST PUSH1 0x20 MUL PUSH1 0x20 ADD ADD MLOAD EQ ISZERO PUSH2 0x138A JUMPI PUSH1 0x40 MLOAD PUSH32 0x8C379A000000000000000000000000000000000000000000000000000000000 DUP2 MSTORE PUSH1 0x4 ADD PUSH2 0x1381 SWAP1 PUSH2 0x248E JUMP JUMPDEST PUSH1 0x40 MLOAD DUP1 SWAP2 SUB SWAP1 REVERT JUMPDEST PUSH1 0x1 ISZERO ISZERO PUSH1 0x4 PUSH1 0x0 DUP8 DUP5 DUP2 MLOAD DUP2 LT PUSH2 0x13A5 JUMPI PUSH2 0x13A4 PUSH2 0x2824 JUMP JUMPDEST JUMPDEST PUSH1 0x20 MUL PUSH1 0x20 ADD ADD MLOAD DUP2 MSTORE PUSH1 0x20 ADD SWAP1 DUP2 MSTORE PUSH1 0x20 ADD PUSH1 0x0 KECCAK256 PUSH1 0x0 SWAP1 SLOAD SWAP1 PUSH2 0x100 EXP SWAP1 DIV PUSH1 0xFF AND ISZERO ISZERO EQ PUSH2 0x140B JUMPI PUSH1 0x40 MLOAD PUSH32 0x8C379A000000000000000000000000000000000000000000000000000000000 DUP2 MSTORE PUSH1 0x4 ADD PUSH2 0x1402 SWAP1 PUSH2 0x25AE JUMP JUMPDEST PUSH1 0x40 MLOAD DUP1 SWAP2 SUB SWAP1 REVERT JUMPDEST PUSH1 0x0 PUSH1 0x5 PUSH1 0x0 DUP8 DUP5 DUP2 MLOAD DUP2 LT PUSH2 0x1424 JUMPI PUSH2 0x1423 PUSH2 0x2824 JUMP JUMPDEST JUMPDEST PUSH1 0x20 MUL PUSH1 0x20 ADD ADD MLOAD DUP2 MSTORE PUSH1 0x20 ADD SWAP1 DUP2 MSTORE PUSH1 0x20 ADD PUSH1 0x0 KECCAK256 PUSH1 0x0 ADD SLOAD EQ ISZERO PUSH2 0x147F JUMPI PUSH1 0x40 MLOAD PUSH32 0x8C379A000000000000000000000000000000000000000000000000000000000 DUP2 MSTORE PUSH1 0x4 ADD PUSH2 0x1476 SWAP1 PUSH2 0x252E JUMP JUMPDEST PUSH1 0x40 MLOAD DUP1 SWAP2 SUB SWAP1 REVERT JUMPDEST DUP1 DUP1 PUSH2 0x148A SWAP1 PUSH2 0x27AC JUMP JUMPDEST SWAP2 POP POP PUSH2 0x1323 JUMP JUMPDEST POP PUSH1 0x0 PUSH2 0x149F DUP4 DUP7 PUSH2 0x7B7 JUMP JUMPDEST SWAP1 POP DUP1 ISZERO PUSH2 0x14E2 JUMPI PUSH1 0x40 MLOAD PUSH32 0x8C379A000000000000000000000000000000000000000000000000000000000 DUP2 MSTORE PUSH1 0x4 ADD PUSH2 0x14D9 SWAP1 PUSH2 0x24AE JUMP JUMPDEST PUSH1 0x40 MLOAD DUP1 SWAP2 SUB SWAP1 REVERT JUMPDEST DUP4 MLOAD DUP6 MLOAD EQ PUSH2 0x1526 JUMPI PUSH1 0x40 MLOAD PUSH32 0x8C379A000000000000000000000000000000000000000000000000000000000 DUP2 MSTORE PUSH1 0x4 ADD PUSH2 0x151D SWAP1 PUSH2 0x24EE JUMP JUMPDEST PUSH1 0x40 MLOAD DUP1 SWAP2 SUB SWAP1 REVERT JUMPDEST PUSH1 0x0 JUMPDEST DUP6 MLOAD DUP2 LT ISZERO PUSH2 0x1770 JUMPI PUSH1 0x0 JUMPDEST PUSH1 0x5 PUSH1 0x0 DUP7 DUP2 MSTORE PUSH1 0x20 ADD SWAP1 DUP2 MSTORE PUSH1 0x20 ADD PUSH1 0x0 KECCAK256 PUSH1 0x4 ADD PUSH1 0x0 ADD DUP1 SLOAD SWAP1 POP DUP2 LT ISZERO PUSH2 0x1690 JUMPI DUP7 DUP3 DUP2 MLOAD DUP2 LT PUSH2 0x156C JUMPI PUSH2 0x156B PUSH2 0x2824 JUMP JUMPDEST JUMPDEST PUSH1 0x20 MUL PUSH1 0x20 ADD ADD MLOAD PUSH1 0x5 PUSH1 0x0 DUP8 DUP2 MSTORE PUSH1 0x20 ADD SWAP1 DUP2 MSTORE PUSH1 0x20 ADD PUSH1 0x0 KECCAK256 PUSH1 0x4 ADD PUSH1 0x0 ADD DUP3 DUP2 SLOAD DUP2 LT PUSH2 0x159F JUMPI PUSH2 0x159E PUSH2 0x2824 JUMP JUMPDEST JUMPDEST SWAP1 PUSH1 0x0 MSTORE PUSH1 0x20 PUSH1 0x0 KECCAK256 ADD SLOAD EQ ISZERO PUSH2 0x15EB JUMPI PUSH1 0x40 MLOAD PUSH32 0x8C379A000000000000000000000000000000000000000000000000000000000 DUP2 MSTORE PUSH1 0x4 ADD PUSH2 0x15E2 SWAP1 PUSH2 0x250E JUMP JUMPDEST PUSH1 0x40 MLOAD DUP1 SWAP2 SUB SWAP1 REVERT JUMPDEST DUP5 PUSH1 0x5 PUSH1 0x0 DUP10 DUP6 DUP2 MLOAD DUP2 LT PUSH2 0x1603 JUMPI PUSH2 0x1602 PUSH2 0x2824 JUMP JUMPDEST JUMPDEST PUSH1 0x20 MUL PUSH1 0x20 ADD ADD MLOAD DUP2 MSTORE PUSH1 0x20 ADD SWAP1 DUP2 MSTORE PUSH1 0x20 ADD PUSH1 0x0 KECCAK256 PUSH1 0x4 ADD PUSH1 0x0 ADD DUP3 DUP2 SLOAD DUP2 LT PUSH2 0x1631 JUMPI PUSH2 0x1630 PUSH2 0x2824 JUMP JUMPDEST JUMPDEST SWAP1 PUSH1 0x0 MSTORE PUSH1 0x20 PUSH1 0x0 KECCAK256 ADD SLOAD EQ ISZERO PUSH2 0x167D JUMPI PUSH1 0x40 MLOAD PUSH32 0x8C379A000000000000000000000000000000000000000000000000000000000 DUP2 MSTORE PUSH1 0x4 ADD PUSH2 0x1674 SWAP1 PUSH2 0x24CE JUMP JUMPDEST PUSH1 0x40 MLOAD DUP1 SWAP2 SUB SWAP1 REVERT JUMPDEST DUP1 DUP1 PUSH2 0x1688 SWAP1 PUSH2 0x27AC JUMP JUMPDEST SWAP2 POP POP PUSH2 0x1535 JUMP JUMPDEST POP PUSH1 0x7 PUSH1 0x0 DUP2 SLOAD DUP1 SWAP3 SWAP2 SWAP1 PUSH2 0x16A4 SWAP1 PUSH2 0x27AC JUMP JUMPDEST SWAP2 SWAP1 POP SSTORE POP PUSH1 0x5 PUSH1 0x0 DUP6 DUP2 MSTORE PUSH1 0x20 ADD SWAP1 DUP2 MSTORE PUSH1 0x20 ADD PUSH1 0x0 KECCAK256 PUSH1 0x4 ADD PUSH1 0x0 ADD DUP7 DUP3 DUP2 MLOAD DUP2 LT PUSH2 0x16D5 JUMPI PUSH2 0x16D4 PUSH2 0x2824 JUMP JUMPDEST JUMPDEST PUSH1 0x20 MUL PUSH1 0x20 ADD ADD MLOAD SWAP1 DUP1 PUSH1 0x1 DUP2 SLOAD ADD DUP1 DUP3 SSTORE DUP1 SWAP2 POP POP PUSH1 0x1 SWAP1 SUB SWAP1 PUSH1 0x0 MSTORE PUSH1 0x20 PUSH1 0x0 KECCAK256 ADD PUSH1 0x0 SWAP1 SWAP2 SWAP1 SWAP2 SWAP1 SWAP2 POP SSTORE PUSH1 0x5 PUSH1 0x0 DUP6 DUP2 MSTORE PUSH1 0x20 ADD SWAP1 DUP2 MSTORE PUSH1 0x20 ADD PUSH1 0x0 KECCAK256 PUSH1 0x4 ADD PUSH1 0x1 ADD DUP6 DUP3 DUP2 MLOAD DUP2 LT PUSH2 0x172F JUMPI PUSH2 0x172E PUSH2 0x2824 JUMP JUMPDEST JUMPDEST PUSH1 0x20 MUL PUSH1 0x20 ADD ADD MLOAD SWAP1 DUP1 PUSH1 0x1 DUP2 SLOAD ADD DUP1 DUP3 SSTORE DUP1 SWAP2 POP POP PUSH1 0x1 SWAP1 SUB SWAP1 PUSH1 0x0 MSTORE PUSH1 0x20 PUSH1 0x0 KECCAK256 ADD PUSH1 0x0 SWAP1 SWAP2 SWAP1 SWAP2 SWAP1 SWAP2 POP SSTORE DUP1 DUP1 PUSH2 0x1768 SWAP1 PUSH2 0x27AC JUMP JUMPDEST SWAP2 POP POP PUSH2 0x1529 JUMP JUMPDEST POP POP JUMPDEST POP POP POP POP JUMP JUMPDEST PUSH1 0x60 PUSH1 0x5 PUSH1 0x0 DUP4 DUP2 MSTORE PUSH1 0x20 ADD SWAP1 DUP2 MSTORE PUSH1 0x20 ADD PUSH1 0x0 KECCAK256 PUSH1 0x4 ADD PUSH1 0x1 ADD DUP1 SLOAD DUP1 PUSH1 0x20 MUL PUSH1 0x20 ADD PUSH1 0x40 MLOAD SWAP1 DUP2 ADD PUSH1 0x40 MSTORE DUP1 SWAP3 SWAP2 SWAP1 DUP2 DUP2 MSTORE PUSH1 0x20 ADD DUP3 DUP1 SLOAD DUP1 ISZERO PUSH2 0x17DE JUMPI PUSH1 0x20 MUL DUP3 ADD SWAP2 SWAP1 PUSH1 0x0 MSTORE PUSH1 0x20 PUSH1 0x0 KECCAK256 SWAP1 JUMPDEST DUP2 SLOAD DUP2 MSTORE PUSH1 0x20 ADD SWAP1 PUSH1 0x1 ADD SWAP1 DUP1 DUP4 GT PUSH2 0x17CA JUMPI JUMPDEST POP POP POP POP POP SWAP1 POP SWAP2 SWAP1 POP JUMP JUMPDEST PUSH1 0x3 PUSH1 0x1 SWAP1 SLOAD SWAP1 PUSH2 0x100 EXP SWAP1 DIV PUSH20 0xFFFFFFFFFFFFFFFFFFFFFFFFFFFFFFFFFFFFFFFF AND PUSH20 0xFFFFFFFFFFFFFFFFFFFFFFFFFFFFFFFFFFFFFFFF AND CALLER PUSH20 0xFFFFFFFFFFFFFFFFFFFFFFFFFFFFFFFFFFFFFFFF AND EQ PUSH2 0x187A JUMPI PUSH1 0x40 MLOAD PUSH32 0x8C379A000000000000000000000000000000000000000000000000000000000 DUP2 MSTORE PUSH1 0x4 ADD PUSH2 0x1871 SWAP1 PUSH2 0x256E JUMP JUMPDEST PUSH1 0x40 MLOAD DUP1 SWAP2 SUB SWAP1 REVERT JUMPDEST DUP2 PUSH1 0x0 DUP2 EQ ISZERO PUSH2 0x18BF JUMPI PUSH1 0x40 MLOAD PUSH32 0x8C379A000000000000000000000000000000000000000000000000000000000 DUP2 MSTORE PUSH1 0x4 ADD PUSH2 0x18B6 SWAP1 PUSH2 0x248E JUMP JUMPDEST PUSH1 0x40 MLOAD DUP1 SWAP2 SUB SWAP1 REVERT JUMPDEST PUSH1 0x1 ISZERO ISZERO PUSH1 0x4 PUSH1 0x0 DUP4 DUP2 MSTORE PUSH1 0x20 ADD SWAP1 DUP2 MSTORE PUSH1 0x20 ADD PUSH1 0x0 KECCAK256 PUSH1 0x0 SWAP1 SLOAD SWAP1 PUSH2 0x100 EXP SWAP1 DIV PUSH1 0xFF AND ISZERO ISZERO EQ PUSH2 0x1926 JUMPI PUSH1 0x40 MLOAD PUSH32 0x8C379A000000000000000000000000000000000000000000000000000000000 DUP2 MSTORE PUSH1 0x4 ADD PUSH2 0x191D SWAP1 PUSH2 0x246E JUMP JUMPDEST PUSH1 0x40 MLOAD DUP1 SWAP2 SUB SWAP1 REVERT JUMPDEST PUSH1 0x0 PUSH1 0x5 PUSH1 0x0 DUP4 DUP2 MSTORE PUSH1 0x20 ADD SWAP1 DUP2 MSTORE PUSH1 0x20 ADD PUSH1 0x0 KECCAK256 PUSH1 0x0 ADD SLOAD EQ PUSH2 0x197F JUMPI PUSH1 0x40 MLOAD PUSH32 0x8C379A000000000000000000000000000000000000000000000000000000000 DUP2 MSTORE PUSH1 0x4 ADD PUSH2 0x1976 SWAP1 PUSH2 0x254E JUMP JUMPDEST PUSH1 0x40 MLOAD DUP1 SWAP2 SUB SWAP1 REVERT JUMPDEST DUP2 PUSH1 0x5 PUSH1 0x0 DUP6 DUP2 MSTORE PUSH1 0x20 ADD SWAP1 DUP2 MSTORE PUSH1 0x20 ADD PUSH1 0x0 KECCAK256 PUSH1 0x3 ADD PUSH1 0x0 PUSH2 0x100 EXP DUP2 SLOAD DUP2 PUSH1 0xFF MUL NOT AND SWAP1 DUP4 ISZERO ISZERO MUL OR SWAP1 SSTORE ISZERO PUSH2 0x19B6 JUMPI PUSH2 0x19E5 JUMP JUMPDEST DUP2 PUSH1 0x5 PUSH1 0x0 DUP6 DUP2 MSTORE PUSH1 0x20 ADD SWAP1 DUP2 MSTORE PUSH1 0x20 ADD PUSH1 0x0 KECCAK256 PUSH1 0x3 ADD PUSH1 0x0 PUSH2 0x100 EXP DUP2 SLOAD DUP2 PUSH1 0xFF MUL NOT AND SWAP1 DUP4 ISZERO ISZERO MUL OR SWAP1 SSTORE POP JUMPDEST POP POP POP JUMP JUMPDEST PUSH1 0x3 PUSH1 0x1 SWAP1 SLOAD SWAP1 PUSH2 0x100 EXP SWAP1 DIV PUSH20 0xFFFFFFFFFFFFFFFFFFFFFFFFFFFFFFFFFFFFFFFF AND PUSH20 0xFFFFFFFFFFFFFFFFFFFFFFFFFFFFFFFFFFFFFFFF AND CALLER PUSH20 0xFFFFFFFFFFFFFFFFFFFFFFFFFFFFFFFFFFFFFFFF AND EQ PUSH2 0x1A7A JUMPI PUSH1 0x40 MLOAD PUSH32 0x8C379A000000000000000000000000000000000000000000000000000000000 DUP2 MSTORE PUSH1 0x4 ADD PUSH2 0x1A71 SWAP1 PUSH2 0x256E JUMP JUMPDEST PUSH1 0x40 MLOAD DUP1 SWAP2 SUB SWAP1 REVERT JUMPDEST PUSH1 0x1 PUSH1 0x4 PUSH1 0x0 PUSH1 0x1 DUP2 MSTORE PUSH1 0x20 ADD SWAP1 DUP2 MSTORE PUSH1 0x20 ADD PUSH1 0x0 KECCAK256 PUSH1 0x0 PUSH2 0x100 EXP DUP2 SLOAD DUP2 PUSH1 0xFF MUL NOT AND SWAP1 DUP4 ISZERO ISZERO MUL OR SWAP1 SSTORE POP PUSH1 0x1 PUSH1 0x4 PUSH1 0x0 PUSH1 0x2 DUP2 MSTORE PUSH1 0x20 ADD SWAP1 DUP2 MSTORE PUSH1 0x20 ADD PUSH1 0x0 KECCAK256 PUSH1 0x0 PUSH2 0x100 EXP DUP2 SLOAD DUP2 PUSH1 0xFF MUL NOT AND SWAP1 DUP4 ISZERO ISZERO MUL OR SWAP1 SSTORE POP JUMP JUMPDEST PUSH1 0x60 PUSH1 0x5 PUSH1 0x0 DUP4 DUP2 MSTORE PUSH1 0x20 ADD SWAP1 DUP2 MSTORE PUSH1 0x20 ADD PUSH1 0x0 KECCAK256 PUSH1 0x4 ADD PUSH1 0x0 ADD DUP1 SLOAD DUP1 PUSH1 0x20 MUL PUSH1 0x20 ADD PUSH1 0x40 MLOAD SWAP1 DUP2 ADD PUSH1 0x40 MSTORE DUP1 SWAP3 SWAP2 SWAP1 DUP2 DUP2 MSTORE PUSH1 0x20 ADD DUP3 DUP1 SLOAD DUP1 ISZERO PUSH2 0x1B3B JUMPI PUSH1 0x20 MUL DUP3 ADD SWAP2 SWAP1 PUSH1 0x0 MSTORE PUSH1 0x20 PUSH1 0x0 KECCAK256 SWAP1 JUMPDEST DUP2 SLOAD DUP2 MSTORE PUSH1 0x20 ADD SWAP1 PUSH1 0x1 ADD SWAP1 DUP1 DUP4 GT PUSH2 0x1B27 JUMPI JUMPDEST POP POP POP POP POP SWAP1 POP SWAP2 SWAP1 POP JUMP JUMPDEST PUSH1 0x0 PUSH1 0x7 SLOAD SWAP1 POP SWAP1 JUMP JUMPDEST DUP3 DUP1 SLOAD DUP3 DUP3 SSTORE SWAP1 PUSH1 0x0 MSTORE PUSH1 0x20 PUSH1 0x0 KECCAK256 SWAP1 DUP2 ADD SWAP3 DUP3 ISZERO PUSH2 0x1B8D JUMPI SWAP2 PUSH1 0x20 MUL DUP3 ADD JUMPDEST DUP3 DUP2 GT ISZERO PUSH2 0x1B8C JUMPI DUP3 MLOAD DUP3 SSTORE SWAP2 PUSH1 0x20 ADD SWAP2 SWAP1 PUSH1 0x1 ADD SWAP1 PUSH2 0x1B71 JUMP JUMPDEST JUMPDEST POP SWAP1 POP PUSH2 0x1B9A SWAP2 SWAP1 PUSH2 0x1BDC JUMP JUMPDEST POP SWAP1 JUMP JUMPDEST PUSH1 0x40 MLOAD DUP1 PUSH1 0x40 ADD PUSH1 0x40 MSTORE DUP1 PUSH1 0x60 DUP2 MSTORE PUSH1 0x20 ADD PUSH1 0x60 DUP2 MSTORE POP SWAP1 JUMP JUMPDEST PUSH1 0x40 MLOAD DUP1 PUSH2 0x4000 ADD PUSH1 0x40 MSTORE DUP1 PUSH2 0x200 SWAP1 PUSH1 0x20 DUP3 MUL DUP1 CALLDATASIZE DUP4 CALLDATACOPY DUP1 DUP3 ADD SWAP2 POP POP SWAP1 POP POP SWAP1 JUMP JUMPDEST JUMPDEST DUP1 DUP3 GT ISZERO PUSH2 0x1BF5 JUMPI PUSH1 0x0 DUP2 PUSH1 0x0 SWAP1 SSTORE POP PUSH1 0x1 ADD PUSH2 0x1BDD JUMP JUMPDEST POP SWAP1 JUMP JUMPDEST PUSH1 0x0 PUSH2 0x1C0C PUSH2 0x1C07 DUP5 PUSH2 0x2630 JUMP JUMPDEST PUSH2 0x260B JUMP JUMPDEST SWAP1 POP DUP1 DUP3 DUP6 PUSH1 0x20 DUP7 MUL DUP3 ADD GT ISZERO PUSH2 0x1C26 JUMPI PUSH2 0x1C25 PUSH2 0x2891 JUMP JUMPDEST JUMPDEST PUSH1 0x0 JUMPDEST DUP6 DUP2 LT ISZERO PUSH2 0x1C56 JUMPI DUP2 PUSH2 0x1C3C DUP9 DUP3 PUSH2 0x1E6F JUMP JUMPDEST DUP5 MSTORE PUSH1 0x20 DUP5 ADD SWAP4 POP PUSH1 0x20 DUP4 ADD SWAP3 POP POP PUSH1 0x1 DUP2 ADD SWAP1 POP PUSH2 0x1C29 JUMP JUMPDEST POP POP POP SWAP4 SWAP3 POP POP POP JUMP JUMPDEST PUSH1 0x0 PUSH2 0x1C73 PUSH2 0x1C6E DUP5 PUSH2 0x2656 JUMP JUMPDEST PUSH2 0x260B JUMP JUMPDEST SWAP1 POP DUP1 DUP4 DUP3 MSTORE PUSH1 0x20 DUP3 ADD SWAP1 POP DUP3 DUP6 PUSH1 0x20 DUP7 MUL DUP3 ADD GT ISZERO PUSH2 0x1C96 JUMPI PUSH2 0x1C95 PUSH2 0x2891 JUMP JUMPDEST JUMPDEST PUSH1 0x0 JUMPDEST DUP6 DUP2 LT ISZERO PUSH2 0x1CC6 JUMPI DUP2 PUSH2 0x1CAC DUP9 DUP3 PUSH2 0x1E6F JUMP JUMPDEST DUP5 MSTORE PUSH1 0x20 DUP5 ADD SWAP4 POP PUSH1 0x20 DUP4 ADD SWAP3 POP POP PUSH1 0x1 DUP2 ADD SWAP1 POP PUSH2 0x1C99 JUMP JUMPDEST POP POP POP SWAP4 SWAP3 POP POP POP JUMP JUMPDEST PUSH1 0x0 DUP3 PUSH1 0x1F DUP4 ADD SLT PUSH2 0x1CE5 JUMPI PUSH2 0x1CE4 PUSH2 0x2882 JUMP JUMPDEST JUMPDEST PUSH2 0x200 PUSH2 0x1CF3 DUP5 DUP3 DUP6 PUSH2 0x1BF9 JUMP JUMPDEST SWAP2 POP POP SWAP3 SWAP2 POP POP JUMP JUMPDEST PUSH1 0x0 DUP3 PUSH1 0x1F DUP4 ADD SLT PUSH2 0x1D11 JUMPI PUSH2 0x1D10 PUSH2 0x2882 JUMP JUMPDEST JUMPDEST DUP2 CALLDATALOAD PUSH2 0x1D21 DUP5 DUP3 PUSH1 0x20 DUP7 ADD PUSH2 0x1C60 JUMP JUMPDEST SWAP2 POP POP SWAP3 SWAP2 POP POP JUMP JUMPDEST PUSH1 0x0 DUP2 CALLDATALOAD SWAP1 POP PUSH2 0x1D39 DUP2 PUSH2 0x2BCA JUMP JUMPDEST SWAP3 SWAP2 POP POP JUMP JUMPDEST PUSH1 0x0 PUSH1 0x40 DUP3 DUP5 SUB SLT ISZERO PUSH2 0x1D55 JUMPI PUSH2 0x1D54 PUSH2 0x2887 JUMP JUMPDEST JUMPDEST PUSH2 0x1D5F PUSH1 0x40 PUSH2 0x260B JUMP JUMPDEST SWAP1 POP PUSH1 0x0 DUP3 ADD CALLDATALOAD PUSH8 0xFFFFFFFFFFFFFFFF DUP2 GT ISZERO PUSH2 0x1D7F JUMPI PUSH2 0x1D7E PUSH2 0x288C JUMP JUMPDEST JUMPDEST PUSH2 0x1D8B DUP5 DUP3 DUP6 ADD PUSH2 0x1CFC JUMP JUMPDEST PUSH1 0x0 DUP4 ADD MSTORE POP PUSH1 0x20 DUP3 ADD CALLDATALOAD PUSH8 0xFFFFFFFFFFFFFFFF DUP2 GT ISZERO PUSH2 0x1DAF JUMPI PUSH2 0x1DAE PUSH2 0x288C JUMP JUMPDEST JUMPDEST PUSH2 0x1DBB DUP5 DUP3 DUP6 ADD PUSH2 0x1CFC JUMP JUMPDEST PUSH1 0x20 DUP4 ADD MSTORE POP SWAP3 SWAP2 POP POP JUMP JUMPDEST PUSH1 0x0 PUSH1 0xA0 DUP3 DUP5 SUB SLT ISZERO PUSH2 0x1DDD JUMPI PUSH2 0x1DDC PUSH2 0x2887 JUMP JUMPDEST JUMPDEST PUSH2 0x1DE7 PUSH1 0xA0 PUSH2 0x260B JUMP JUMPDEST SWAP1 POP PUSH1 0x0 PUSH2 0x1DF7 DUP5 DUP3 DUP6 ADD PUSH2 0x1E6F JUMP JUMPDEST PUSH1 0x0 DUP4 ADD MSTORE POP PUSH1 0x20 PUSH2 0x1E0B DUP5 DUP3 DUP6 ADD PUSH2 0x1E6F JUMP JUMPDEST PUSH1 0x20 DUP4 ADD MSTORE POP PUSH1 0x40 PUSH2 0x1E1F DUP5 DUP3 DUP6 ADD PUSH2 0x1E6F JUMP JUMPDEST PUSH1 0x40 DUP4 ADD MSTORE POP PUSH1 0x60 PUSH2 0x1E33 DUP5 DUP3 DUP6 ADD PUSH2 0x1D2A JUMP JUMPDEST PUSH1 0x60 DUP4 ADD MSTORE POP PUSH1 0x80 DUP3 ADD CALLDATALOAD PUSH8 0xFFFFFFFFFFFFFFFF DUP2 GT ISZERO PUSH2 0x1E57 JUMPI PUSH2 0x1E56 PUSH2 0x288C JUMP JUMPDEST JUMPDEST PUSH2 0x1E63 DUP5 DUP3 DUP6 ADD PUSH2 0x1D3F JUMP JUMPDEST PUSH1 0x80 DUP4 ADD MSTORE POP SWAP3 SWAP2 POP POP JUMP JUMPDEST PUSH1 0x0 DUP2 CALLDATALOAD SWAP1 POP PUSH2 0x1E7E DUP2 PUSH2 0x2BE1 JUMP JUMPDEST SWAP3 SWAP2 POP POP JUMP JUMPDEST PUSH1 0x0 DUP1 PUSH1 0x0 PUSH1 0x60 DUP5 DUP7 SUB SLT ISZERO PUSH2 0x1E9D JUMPI PUSH2 0x1E9C PUSH2 0x289B JUMP JUMPDEST JUMPDEST PUSH1 0x0 DUP5 ADD CALLDATALOAD PUSH8 0xFFFFFFFFFFFFFFFF DUP2 GT ISZERO PUSH2 0x1EBB JUMPI PUSH2 0x1EBA PUSH2 0x2896 JUMP JUMPDEST JUMPDEST PUSH2 0x1EC7 DUP7 DUP3 DUP8 ADD PUSH2 0x1CFC JUMP JUMPDEST SWAP4 POP POP PUSH1 0x20 DUP5 ADD CALLDATALOAD PUSH8 0xFFFFFFFFFFFFFFFF DUP2 GT ISZERO PUSH2 0x1EE8 JUMPI PUSH2 0x1EE7 PUSH2 0x2896 JUMP JUMPDEST JUMPDEST PUSH2 0x1EF4 DUP7 DUP3 DUP8 ADD PUSH2 0x1CFC JUMP JUMPDEST SWAP3 POP POP PUSH1 0x40 PUSH2 0x1F05 DUP7 DUP3 DUP8 ADD PUSH2 0x1E6F JUMP JUMPDEST SWAP2 POP POP SWAP3 POP SWAP3 POP SWAP3 JUMP JUMPDEST PUSH1 0x0 DUP1 PUSH1 0x0 DUP1 PUSH1 0x80 DUP6 DUP8 SUB SLT ISZERO PUSH2 0x1F29 JUMPI PUSH2 0x1F28 PUSH2 0x289B JUMP JUMPDEST JUMPDEST PUSH1 0x0 DUP6 ADD CALLDATALOAD PUSH8 0xFFFFFFFFFFFFFFFF DUP2 GT ISZERO PUSH2 0x1F47 JUMPI PUSH2 0x1F46 PUSH2 0x2896 JUMP JUMPDEST JUMPDEST PUSH2 0x1F53 DUP8 DUP3 DUP9 ADD PUSH2 0x1CFC JUMP JUMPDEST SWAP5 POP POP PUSH1 0x20 DUP6 ADD CALLDATALOAD PUSH8 0xFFFFFFFFFFFFFFFF DUP2 GT ISZERO PUSH2 0x1F74 JUMPI PUSH2 0x1F73 PUSH2 0x2896 JUMP JUMPDEST JUMPDEST PUSH2 0x1F80 DUP8 DUP3 DUP9 ADD PUSH2 0x1CFC JUMP JUMPDEST SWAP4 POP POP PUSH1 0x40 PUSH2 0x1F91 DUP8 DUP3 DUP9 ADD PUSH2 0x1E6F JUMP JUMPDEST SWAP3 POP POP PUSH1 0x60 PUSH2 0x1FA2 DUP8 DUP3 DUP9 ADD PUSH2 0x1E6F JUMP JUMPDEST SWAP2 POP POP SWAP3 SWAP6 SWAP2 SWAP5 POP SWAP3 POP JUMP JUMPDEST PUSH1 0x0 PUSH1 0x20 DUP3 DUP5 SUB SLT ISZERO PUSH2 0x1FC4 JUMPI PUSH2 0x1FC3 PUSH2 0x289B JUMP JUMPDEST JUMPDEST PUSH1 0x0 DUP3 ADD CALLDATALOAD PUSH8 0xFFFFFFFFFFFFFFFF DUP2 GT ISZERO PUSH2 0x1FE2 JUMPI PUSH2 0x1FE1 PUSH2 0x2896 JUMP JUMPDEST JUMPDEST PUSH2 0x1FEE DUP5 DUP3 DUP6 ADD PUSH2 0x1DC7 JUMP JUMPDEST SWAP2 POP POP SWAP3 SWAP2 POP POP JUMP JUMPDEST PUSH1 0x0 PUSH1 0x20 DUP3 DUP5 SUB SLT ISZERO PUSH2 0x200D JUMPI PUSH2 0x200C PUSH2 0x289B JUMP JUMPDEST JUMPDEST PUSH1 0x0 PUSH2 0x201B DUP5 DUP3 DUP6 ADD PUSH2 0x1E6F JUMP JUMPDEST SWAP2 POP POP SWAP3 SWAP2 POP POP JUMP JUMPDEST PUSH1 0x0 DUP1 PUSH2 0x4020 DUP4 DUP6 SUB SLT ISZERO PUSH2 0x203C JUMPI PUSH2 0x203B PUSH2 0x289B JUMP JUMPDEST JUMPDEST PUSH1 0x0 PUSH2 0x204A DUP6 DUP3 DUP7 ADD PUSH2 0x1E6F JUMP JUMPDEST SWAP3 POP POP PUSH1 0x20 PUSH2 0x205B DUP6 DUP3 DUP7 ADD PUSH2 0x1CD0 JUMP JUMPDEST SWAP2 POP POP SWAP3 POP SWAP3 SWAP1 POP JUMP JUMPDEST PUSH1 0x0 DUP1 PUSH1 0x40 DUP4 DUP6 SUB SLT ISZERO PUSH2 0x207C JUMPI PUSH2 0x207B PUSH2 0x289B JUMP JUMPDEST JUMPDEST PUSH1 0x0 PUSH2 0x208A DUP6 DUP3 DUP7 ADD PUSH2 0x1E6F JUMP JUMPDEST SWAP3 POP POP PUSH1 0x20 DUP4 ADD CALLDATALOAD PUSH8 0xFFFFFFFFFFFFFFFF DUP2 GT ISZERO PUSH2 0x20AB JUMPI PUSH2 0x20AA PUSH2 0x2896 JUMP JUMPDEST JUMPDEST PUSH2 0x20B7 DUP6 DUP3 DUP7 ADD PUSH2 0x1CFC JUMP JUMPDEST SWAP2 POP POP SWAP3 POP SWAP3 SWAP1 POP JUMP JUMPDEST PUSH1 0x0 DUP1 PUSH1 0x40 DUP4 DUP6 SUB SLT ISZERO PUSH2 0x20D8 JUMPI PUSH2 0x20D7 PUSH2 0x289B JUMP JUMPDEST JUMPDEST PUSH1 0x0 PUSH2 0x20E6 DUP6 DUP3 DUP7 ADD PUSH2 0x1E6F JUMP JUMPDEST SWAP3 POP POP PUSH1 0x20 PUSH2 0x20F7 DUP6 DUP3 DUP7 ADD PUSH2 0x1D2A JUMP JUMPDEST SWAP2 POP POP SWAP3 POP SWAP3 SWAP1 POP JUMP JUMPDEST PUSH1 0x0 DUP1 PUSH1 0x40 DUP4 DUP6 SUB SLT ISZERO PUSH2 0x2118 JUMPI PUSH2 0x2117 PUSH2 0x289B JUMP JUMPDEST JUMPDEST PUSH1 0x0 PUSH2 0x2126 DUP6 DUP3 DUP7 ADD PUSH2 0x1E6F JUMP JUMPDEST SWAP3 POP POP PUSH1 0x20 PUSH2 0x2137 DUP6 DUP3 DUP7 ADD PUSH2 0x1E6F JUMP JUMPDEST SWAP2 POP POP SWAP3 POP SWAP3 SWAP1 POP JUMP JUMPDEST PUSH1 0x0 PUSH2 0x214D DUP4 DUP4 PUSH2 0x23F8 JUMP JUMPDEST PUSH1 0x20 DUP4 ADD SWAP1 POP SWAP3 SWAP2 POP POP JUMP JUMPDEST PUSH2 0x2162 DUP2 PUSH2 0x2733 JUMP JUMPDEST DUP3 MSTORE POP POP JUMP JUMPDEST PUSH1 0x0 PUSH2 0x2173 DUP3 PUSH2 0x2692 JUMP JUMPDEST PUSH2 0x217D DUP2 DUP6 PUSH2 0x26AA JUMP JUMPDEST SWAP4 POP PUSH2 0x2188 DUP4 PUSH2 0x2682 JUMP JUMPDEST DUP1 PUSH1 0x0 JUMPDEST DUP4 DUP2 LT ISZERO PUSH2 0x21B9 JUMPI DUP2 MLOAD PUSH2 0x21A0 DUP9 DUP3 PUSH2 0x2141 JUMP JUMPDEST SWAP8 POP PUSH2 0x21AB DUP4 PUSH2 0x269D JUMP JUMPDEST SWAP3 POP POP PUSH1 0x1 DUP2 ADD SWAP1 POP PUSH2 0x218C JUMP JUMPDEST POP DUP6 SWAP4 POP POP POP POP SWAP3 SWAP2 POP POP JUMP JUMPDEST PUSH1 0x0 PUSH2 0x21D1 DUP3 PUSH2 0x2692 JUMP JUMPDEST PUSH2 0x21DB DUP2 DUP6 PUSH2 0x26BB JUMP JUMPDEST SWAP4 POP PUSH2 0x21E6 DUP4 PUSH2 0x2682 JUMP JUMPDEST DUP1 PUSH1 0x0 JUMPDEST DUP4 DUP2 LT ISZERO PUSH2 0x2217 JUMPI DUP2 MLOAD PUSH2 0x21FE DUP9 DUP3 PUSH2 0x2141 JUMP JUMPDEST SWAP8 POP PUSH2 0x2209 DUP4 PUSH2 0x269D JUMP JUMPDEST SWAP3 POP POP PUSH1 0x1 DUP2 ADD SWAP1 POP PUSH2 0x21EA JUMP JUMPDEST POP DUP6 SWAP4 POP POP POP POP SWAP3 SWAP2 POP POP JUMP JUMPDEST PUSH2 0x222D DUP2 PUSH2 0x2745 JUMP JUMPDEST DUP3 MSTORE POP POP JUMP JUMPDEST PUSH1 0x0 PUSH2 0x2240 PUSH1 0x2C DUP4 PUSH2 0x26CC JUMP JUMPDEST SWAP2 POP PUSH2 0x224B DUP3 PUSH2 0x28B1 JUMP JUMPDEST PUSH1 0x40 DUP3 ADD SWAP1 POP SWAP2 SWAP1 POP JUMP JUMPDEST PUSH1 0x0 PUSH2 0x2263 PUSH1 0x1B DUP4 PUSH2 0x26CC JUMP JUMPDEST SWAP2 POP PUSH2 0x226E DUP3 PUSH2 0x2900 JUMP JUMPDEST PUSH1 0x20 DUP3 ADD SWAP1 POP SWAP2 SWAP1 POP JUMP JUMPDEST PUSH1 0x0 PUSH2 0x2286 PUSH1 0x2C DUP4 PUSH2 0x26CC JUMP JUMPDEST SWAP2 POP PUSH2 0x2291 DUP3 PUSH2 0x2929 JUMP JUMPDEST PUSH1 0x40 DUP3 ADD SWAP1 POP SWAP2 SWAP1 POP JUMP JUMPDEST PUSH1 0x0 PUSH2 0x22A9 PUSH1 0x24 DUP4 PUSH2 0x26CC JUMP JUMPDEST SWAP2 POP PUSH2 0x22B4 DUP3 PUSH2 0x2978 JUMP JUMPDEST PUSH1 0x40 DUP3 ADD SWAP1 POP SWAP2 SWAP1 POP JUMP JUMPDEST PUSH1 0x0 PUSH2 0x22CC PUSH1 0x30 DUP4 PUSH2 0x26CC JUMP JUMPDEST SWAP2 POP PUSH2 0x22D7 DUP3 PUSH2 0x29C7 JUMP JUMPDEST PUSH1 0x40 DUP3 ADD SWAP1 POP SWAP2 SWAP1 POP JUMP JUMPDEST PUSH1 0x0 PUSH2 0x22EF PUSH1 0x3C DUP4 PUSH2 0x26CC JUMP JUMPDEST SWAP2 POP PUSH2 0x22FA DUP3 PUSH2 0x2A16 JUMP JUMPDEST PUSH1 0x40 DUP3 ADD SWAP1 POP SWAP2 SWAP1 POP JUMP JUMPDEST PUSH1 0x0 PUSH2 0x2312 PUSH1 0x2B DUP4 PUSH2 0x26CC JUMP JUMPDEST SWAP2 POP PUSH2 0x231D DUP3 PUSH2 0x2A65 JUMP JUMPDEST PUSH1 0x40 DUP3 ADD SWAP1 POP SWAP2 SWAP1 POP JUMP JUMPDEST PUSH1 0x0 PUSH2 0x2335 PUSH1 0x24 DUP4 PUSH2 0x26CC JUMP JUMPDEST SWAP2 POP PUSH2 0x2340 DUP3 PUSH2 0x2AB4 JUMP JUMPDEST PUSH1 0x40 DUP3 ADD SWAP1 POP SWAP2 SWAP1 POP JUMP JUMPDEST PUSH1 0x0 PUSH2 0x2358 PUSH1 0x13 DUP4 PUSH2 0x26CC JUMP JUMPDEST SWAP2 POP PUSH2 0x2363 DUP3 PUSH2 0x2B03 JUMP JUMPDEST PUSH1 0x20 DUP3 ADD SWAP1 POP SWAP2 SWAP1 POP JUMP JUMPDEST PUSH1 0x0 PUSH2 0x237B PUSH1 0x21 DUP4 PUSH2 0x26CC JUMP JUMPDEST SWAP2 POP PUSH2 0x2386 DUP3 PUSH2 0x2B2C JUMP JUMPDEST PUSH1 0x40 DUP3 ADD SWAP1 POP SWAP2 SWAP1 POP JUMP JUMPDEST PUSH1 0x0 PUSH2 0x239E PUSH1 0x2F DUP4 PUSH2 0x26CC JUMP JUMPDEST SWAP2 POP PUSH2 0x23A9 DUP3 PUSH2 0x2B7B JUMP JUMPDEST PUSH1 0x40 DUP3 ADD SWAP1 POP SWAP2 SWAP1 POP JUMP JUMPDEST PUSH1 0x0 PUSH1 0x40 DUP4 ADD PUSH1 0x0 DUP4 ADD MLOAD DUP5 DUP3 SUB PUSH1 0x0 DUP7 ADD MSTORE PUSH2 0x23D1 DUP3 DUP3 PUSH2 0x2168 JUMP JUMPDEST SWAP2 POP POP PUSH1 0x20 DUP4 ADD MLOAD DUP5 DUP3 SUB PUSH1 0x20 DUP7 ADD MSTORE PUSH2 0x23EB DUP3 DUP3 PUSH2 0x2168 JUMP JUMPDEST SWAP2 POP POP DUP1 SWAP2 POP POP SWAP3 SWAP2 POP POP JUMP JUMPDEST PUSH2 0x2401 DUP2 PUSH2 0x2771 JUMP JUMPDEST DUP3 MSTORE POP POP JUMP JUMPDEST PUSH2 0x2410 DUP2 PUSH2 0x2771 JUMP JUMPDEST DUP3 MSTORE POP POP JUMP JUMPDEST PUSH1 0x0 PUSH1 0x20 DUP3 ADD SWAP1 POP PUSH2 0x242B PUSH1 0x0 DUP4 ADD DUP5 PUSH2 0x2159 JUMP JUMPDEST SWAP3 SWAP2 POP POP JUMP JUMPDEST PUSH1 0x0 PUSH1 0x20 DUP3 ADD SWAP1 POP DUP2 DUP2 SUB PUSH1 0x0 DUP4 ADD MSTORE PUSH2 0x244B DUP2 DUP5 PUSH2 0x21C6 JUMP JUMPDEST SWAP1 POP SWAP3 SWAP2 POP POP JUMP JUMPDEST PUSH1 0x0 PUSH1 0x20 DUP3 ADD SWAP1 POP PUSH2 0x2468 PUSH1 0x0 DUP4 ADD DUP5 PUSH2 0x2224 JUMP JUMPDEST SWAP3 SWAP2 POP POP JUMP JUMPDEST PUSH1 0x0 PUSH1 0x20 DUP3 ADD SWAP1 POP DUP2 DUP2 SUB PUSH1 0x0 DUP4 ADD MSTORE PUSH2 0x2487 DUP2 PUSH2 0x2233 JUMP JUMPDEST SWAP1 POP SWAP2 SWAP1 POP JUMP JUMPDEST PUSH1 0x0 PUSH1 0x20 DUP3 ADD SWAP1 POP DUP2 DUP2 SUB PUSH1 0x0 DUP4 ADD MSTORE PUSH2 0x24A7 DUP2 PUSH2 0x2256 JUMP JUMPDEST SWAP1 POP SWAP2 SWAP1 POP JUMP JUMPDEST PUSH1 0x0 PUSH1 0x20 DUP3 ADD SWAP1 POP DUP2 DUP2 SUB PUSH1 0x0 DUP4 ADD MSTORE PUSH2 0x24C7 DUP2 PUSH2 0x2279 JUMP JUMPDEST SWAP1 POP SWAP2 SWAP1 POP JUMP JUMPDEST PUSH1 0x0 PUSH1 0x20 DUP3 ADD SWAP1 POP DUP2 DUP2 SUB PUSH1 0x0 DUP4 ADD MSTORE PUSH2 0x24E7 DUP2 PUSH2 0x229C JUMP JUMPDEST SWAP1 POP SWAP2 SWAP1 POP JUMP JUMPDEST PUSH1 0x0 PUSH1 0x20 DUP3 ADD SWAP1 POP DUP2 DUP2 SUB PUSH1 0x0 DUP4 ADD MSTORE PUSH2 0x2507 DUP2 PUSH2 0x22BF JUMP JUMPDEST SWAP1 POP SWAP2 SWAP1 POP JUMP JUMPDEST PUSH1 0x0 PUSH1 0x20 DUP3 ADD SWAP1 POP DUP2 DUP2 SUB PUSH1 0x0 DUP4 ADD MSTORE PUSH2 0x2527 DUP2 PUSH2 0x22E2 JUMP JUMPDEST SWAP1 POP SWAP2 SWAP1 POP JUMP JUMPDEST PUSH1 0x0 PUSH1 0x20 DUP3 ADD SWAP1 POP DUP2 DUP2 SUB PUSH1 0x0 DUP4 ADD MSTORE PUSH2 0x2547 DUP2 PUSH2 0x2305 JUMP JUMPDEST SWAP1 POP SWAP2 SWAP1 POP JUMP JUMPDEST PUSH1 0x0 PUSH1 0x20 DUP3 ADD SWAP1 POP DUP2 DUP2 SUB PUSH1 0x0 DUP4 ADD MSTORE PUSH2 0x2567 DUP2 PUSH2 0x2328 JUMP JUMPDEST SWAP1 POP SWAP2 SWAP1 POP JUMP JUMPDEST PUSH1 0x0 PUSH1 0x20 DUP3 ADD SWAP1 POP DUP2 DUP2 SUB PUSH1 0x0 DUP4 ADD MSTORE PUSH2 0x2587 DUP2 PUSH2 0x234B JUMP JUMPDEST SWAP1 POP SWAP2 SWAP1 POP JUMP JUMPDEST PUSH1 0x0 PUSH1 0x20 DUP3 ADD SWAP1 POP DUP2 DUP2 SUB PUSH1 0x0 DUP4 ADD MSTORE PUSH2 0x25A7 DUP2 PUSH2 0x236E JUMP JUMPDEST SWAP1 POP SWAP2 SWAP1 POP JUMP JUMPDEST PUSH1 0x0 PUSH1 0x20 DUP3 ADD SWAP1 POP DUP2 DUP2 SUB PUSH1 0x0 DUP4 ADD MSTORE PUSH2 0x25C7 DUP2 PUSH2 0x2391 JUMP JUMPDEST SWAP1 POP SWAP2 SWAP1 POP JUMP JUMPDEST PUSH1 0x0 PUSH1 0x20 DUP3 ADD SWAP1 POP DUP2 DUP2 SUB PUSH1 0x0 DUP4 ADD MSTORE PUSH2 0x25E8 DUP2 DUP5 PUSH2 0x23B4 JUMP JUMPDEST SWAP1 POP SWAP3 SWAP2 POP POP JUMP JUMPDEST PUSH1 0x0 PUSH1 0x20 DUP3 ADD SWAP1 POP PUSH2 0x2605 PUSH1 0x0 DUP4 ADD DUP5 PUSH2 0x2407 JUMP JUMPDEST SWAP3 SWAP2 POP POP JUMP JUMPDEST PUSH1 0x0 PUSH2 0x2615 PUSH2 0x2626 JUMP JUMPDEST SWAP1 POP PUSH2 0x2621 DUP3 DUP3 PUSH2 0x277B JUMP JUMPDEST SWAP2 SWAP1 POP JUMP JUMPDEST PUSH1 0x0 PUSH1 0x40 MLOAD SWAP1 POP SWAP1 JUMP JUMPDEST PUSH1 0x0 PUSH8 0xFFFFFFFFFFFFFFFF DUP3 GT ISZERO PUSH2 0x264B JUMPI PUSH2 0x264A PUSH2 0x2853 JUMP JUMPDEST JUMPDEST PUSH1 0x20 DUP3 MUL SWAP1 POP SWAP2 SWAP1 POP JUMP JUMPDEST PUSH1 0x0 PUSH8 0xFFFFFFFFFFFFFFFF DUP3 GT ISZERO PUSH2 0x2671 JUMPI PUSH2 0x2670 PUSH2 0x2853 JUMP JUMPDEST JUMPDEST PUSH1 0x20 DUP3 MUL SWAP1 POP PUSH1 0x20 DUP2 ADD SWAP1 POP SWAP2 SWAP1 POP JUMP JUMPDEST PUSH1 0x0 DUP2 SWAP1 POP PUSH1 0x20 DUP3 ADD SWAP1 POP SWAP2 SWAP1 POP JUMP JUMPDEST PUSH1 0x0 DUP2 MLOAD SWAP1 POP SWAP2 SWAP1 POP JUMP JUMPDEST PUSH1 0x0 PUSH1 0x20 DUP3 ADD SWAP1 POP SWAP2 SWAP1 POP JUMP JUMPDEST PUSH1 0x0 DUP3 DUP3 MSTORE PUSH1 0x20 DUP3 ADD SWAP1 POP SWAP3 SWAP2 POP POP JUMP JUMPDEST PUSH1 0x0 DUP3 DUP3 MSTORE PUSH1 0x20 DUP3 ADD SWAP1 POP SWAP3 SWAP2 POP POP JUMP JUMPDEST PUSH1 0x0 DUP3 DUP3 MSTORE PUSH1 0x20 DUP3 ADD SWAP1 POP SWAP3 SWAP2 POP POP JUMP JUMPDEST PUSH1 0x0 PUSH2 0x26E8 DUP3 PUSH2 0x2771 JUMP JUMPDEST SWAP2 POP PUSH2 0x26F3 DUP4 PUSH2 0x2771 JUMP JUMPDEST SWAP3 POP DUP3 PUSH32 0xFFFFFFFFFFFFFFFFFFFFFFFFFFFFFFFFFFFFFFFFFFFFFFFFFFFFFFFFFFFFFFFF SUB DUP3 GT ISZERO PUSH2 0x2728 JUMPI PUSH2 0x2727 PUSH2 0x27F5 JUMP JUMPDEST JUMPDEST DUP3 DUP3 ADD SWAP1 POP SWAP3 SWAP2 POP POP JUMP JUMPDEST PUSH1 0x0 PUSH2 0x273E DUP3 PUSH2 0x2751 JUMP JUMPDEST SWAP1 POP SWAP2 SWAP1 POP JUMP JUMPDEST PUSH1 0x0 DUP2 ISZERO ISZERO SWAP1 POP SWAP2 SWAP1 POP JUMP JUMPDEST PUSH1 0x0 PUSH20 0xFFFFFFFFFFFFFFFFFFFFFFFFFFFFFFFFFFFFFFFF DUP3 AND SWAP1 POP SWAP2 SWAP1 POP JUMP JUMPDEST PUSH1 0x0 DUP2 SWAP1 POP SWAP2 SWAP1 POP JUMP JUMPDEST PUSH2 0x2784 DUP3 PUSH2 0x28A0 JUMP JUMPDEST DUP2 ADD DUP2 DUP2 LT PUSH8 0xFFFFFFFFFFFFFFFF DUP3 GT OR ISZERO PUSH2 0x27A3 JUMPI PUSH2 0x27A2 PUSH2 0x2853 JUMP JUMPDEST JUMPDEST DUP1 PUSH1 0x40 MSTORE POP POP POP JUMP JUMPDEST PUSH1 0x0 PUSH2 0x27B7 DUP3 PUSH2 0x2771 JUMP JUMPDEST SWAP2 POP PUSH32 0xFFFFFFFFFFFFFFFFFFFFFFFFFFFFFFFFFFFFFFFFFFFFFFFFFFFFFFFFFFFFFFFF DUP3 EQ ISZERO PUSH2 0x27EA JUMPI PUSH2 0x27E9 PUSH2 0x27F5 JUMP JUMPDEST JUMPDEST PUSH1 0x1 DUP3 ADD SWAP1 POP SWAP2 SWAP1 POP JUMP JUMPDEST PUSH32 0x4E487B7100000000000000000000000000000000000000000000000000000000 PUSH1 0x0 MSTORE PUSH1 0x11 PUSH1 0x4 MSTORE PUSH1 0x24 PUSH1 0x0 REVERT JUMPDEST PUSH32 0x4E487B7100000000000000000000000000000000000000000000000000000000 PUSH1 0x0 MSTORE PUSH1 0x32 PUSH1 0x4 MSTORE PUSH1 0x24 PUSH1 0x0 REVERT JUMPDEST PUSH32 0x4E487B7100000000000000000000000000000000000000000000000000000000 PUSH1 0x0 MSTORE PUSH1 0x41 PUSH1 0x4 MSTORE PUSH1 0x24 PUSH1 0x0 REVERT JUMPDEST PUSH1 0x0 DUP1 REVERT JUMPDEST PUSH1 0x0 DUP1 REVERT JUMPDEST PUSH1 0x0 DUP1 REVERT JUMPDEST PUSH1 0x0 DUP1 REVERT JUMPDEST PUSH1 0x0 DUP1 REVERT JUMPDEST PUSH1 0x0 DUP1 REVERT JUMPDEST PUSH1 0x0 PUSH1 0x1F NOT PUSH1 0x1F DUP4 ADD AND SWAP1 POP SWAP2 SWAP1 POP JUMP JUMPDEST PUSH32 0x54686520746F6B656E206973206E6F7420612072656769737465726564204552 PUSH1 0x0 DUP3 ADD MSTORE PUSH32 0x43203131353520746F6B656E0000000000000000000000000000000000000000 PUSH1 0x20 DUP3 ADD MSTORE POP JUMP JUMPDEST PUSH32 0x54686520746F6B656E2049442063616E6E6F74206265207A65726F0000000000 PUSH1 0x0 DUP3 ADD MSTORE POP JUMP JUMPDEST PUSH32 0x546F6B656E49442063616E6E6F74206265206120737562736574206F66207061 PUSH1 0x0 DUP3 ADD MSTORE PUSH32 0x72656E74546F6B656E4944730000000000000000000000000000000000000000 PUSH1 0x20 DUP3 ADD MSTORE POP JUMP JUMPDEST PUSH32 0x4572726F723A20616E206772617068206C6F6F702077696C6C20626520637265 PUSH1 0x0 DUP3 ADD MSTORE PUSH32 0x6174656400000000000000000000000000000000000000000000000000000000 PUSH1 0x20 DUP3 ADD MSTORE POP JUMP JUMPDEST PUSH32 0x546865206C656E677468206F662049647320616E642077656967687473207368 PUSH1 0x0 DUP3 ADD MSTORE PUSH32 0x6F756C64206265207468652073616D6500000000000000000000000000000000 PUSH1 0x20 DUP3 ADD MSTORE POP JUMP JUMPDEST PUSH32 0x4572726F723A204564676520636F6E6E656374696F6E20796F75206172652074 PUSH1 0x0 DUP3 ADD MSTORE PUSH32 0x7279696E6720746F2061646420616C6C72656164792065786973747300000000 PUSH1 0x20 DUP3 ADD MSTORE POP JUMP JUMPDEST PUSH32 0x706172656E7420746F6B656E20494420686173206E6F74206265656E20616464 PUSH1 0x0 DUP3 ADD MSTORE PUSH32 0x656420746F206772617068000000000000000000000000000000000000000000 PUSH1 0x20 DUP3 ADD MSTORE POP JUMP JUMPDEST PUSH32 0x49442068617320616C6C7265616479206265656E20616464656420746F206772 PUSH1 0x0 DUP3 ADD MSTORE PUSH32 0x6170682E00000000000000000000000000000000000000000000000000000000 PUSH1 0x20 DUP3 ADD MSTORE POP JUMP JUMPDEST PUSH32 0x55736572206D7573742062652061646D696E2E00000000000000000000000000 PUSH1 0x0 DUP3 ADD MSTORE POP JUMP JUMPDEST PUSH32 0x54686520746F6B656E204944206F66206120706172656E74206973207A65726F PUSH1 0x0 DUP3 ADD MSTORE PUSH32 0x2E00000000000000000000000000000000000000000000000000000000000000 PUSH1 0x20 DUP3 ADD MSTORE POP JUMP JUMPDEST PUSH32 0x4120706172656E7420746F6B656E206973206E6F742061207265676973746564 PUSH1 0x0 DUP3 ADD MSTORE PUSH32 0x20455243203131353520746F6B656E0000000000000000000000000000000000 PUSH1 0x20 DUP3 ADD MSTORE POP JUMP JUMPDEST PUSH2 0x2BD3 DUP2 PUSH2 0x2745 JUMP JUMPDEST DUP2 EQ PUSH2 0x2BDE JUMPI PUSH1 0x0 DUP1 REVERT JUMPDEST POP JUMP JUMPDEST PUSH2 0x2BEA DUP2 PUSH2 0x2771 JUMP JUMPDEST DUP2 EQ PUSH2 0x2BF5 JUMPI PUSH1 0x0 DUP1 REVERT JUMPDEST POP JUMP INVALID LOG2 PUSH5 0x6970667358 0x22 SLT KECCAK256 PUSH8 0x7D1D914CA82A7007 0xFC 0xE3 0xF7 PUSH1 0x46 0xA8 MLOAD 0xBB ADDMOD DUP16 0xDF 0x2E 0xEE ADDMOD 0x27 0xDD PUSH23 0x285C5AF05BC764736F6C63430008060033000000000000 "
        },
        "methodIdentifiers": {
          "_idToIsERC1155(uint256)": "281d75ab",
          "bfsTraversal(uint256)": "aca382a0",
          "blacklistToken(uint256,bool)": "ce8b4afd",
          "changeTokenWeight(uint256,uint256)": "076fcc1f",
          "dequeue()": "957908d1",
          "edgeCount()": "ee8a9fd6",
          "edgeTo(uint256)": "e8ca8c3e",
          "edgeWeights(uint256)": "c9557449",
          "enqueue(uint256)": "1ffc735d",
          "getAdmin()": "6e9960c3",
          "insertEdges(uint256[],uint256[],uint256)": "beae4942",
          "insertToken(uint256[],uint256[],uint256,uint256)": "866fe41a",
          "isSubset(uint256,uint256[])": "6cf61127",
          "isSubsetSpecialMemory(uint256,uint256[512])": "18182eaa",
          "makeERC1155ForTesting()": "d7753a65",
          "returnEdge(uint256)": "94b90830",
          "returnId((uint256,uint256,uint256,bool,(uint256[],uint256[])))": "65af0366",
          "returnIsBlacklisted(uint256)": "981ad468",
          "returnTime(uint256)": "0b8e12fc",
          "returnTokenWeight(uint256)": "16b407a8",
          "sortByTime(uint256)": "b0f555ae",
          "tokenCount()": "9f181b5e",
          "tokenExists(uint256)": "00923f9e"
        }
      }
    }
  }
}