{
  "_format": "hh-sol-artifact-1",
  "contractName": "STFounderCollection",
  "sourceName": "src/backend/contracts/STFounderCollection.sol",
  "abi": [
    {
      "inputs": [
        {
          "internalType": "address",
          "name": "forwarder",
          "type": "address"
        }
      ],
      "stateMutability": "nonpayable",
      "type": "constructor"
    },
    {
      "anonymous": false,
      "inputs": [
        {
          "indexed": true,
          "internalType": "address",
          "name": "owner",
          "type": "address"
        },
        {
          "indexed": true,
          "internalType": "address",
          "name": "approved",
          "type": "address"
        },
        {
          "indexed": true,
          "internalType": "uint256",
          "name": "tokenId",
          "type": "uint256"
        }
      ],
      "name": "Approval",
      "type": "event"
    },
    {
      "anonymous": false,
      "inputs": [
        {
          "indexed": true,
          "internalType": "address",
          "name": "owner",
          "type": "address"
        },
        {
          "indexed": true,
          "internalType": "address",
          "name": "operator",
          "type": "address"
        },
        {
          "indexed": false,
          "internalType": "bool",
          "name": "approved",
          "type": "bool"
        }
      ],
      "name": "ApprovalForAll",
      "type": "event"
    },
    {
      "anonymous": false,
      "inputs": [
        {
          "indexed": false,
          "internalType": "address",
          "name": "account",
          "type": "address"
        }
      ],
      "name": "Paused",
      "type": "event"
    },
    {
      "anonymous": false,
      "inputs": [
        {
          "indexed": true,
          "internalType": "bytes32",
          "name": "role",
          "type": "bytes32"
        },
        {
          "indexed": true,
          "internalType": "bytes32",
          "name": "previousAdminRole",
          "type": "bytes32"
        },
        {
          "indexed": true,
          "internalType": "bytes32",
          "name": "newAdminRole",
          "type": "bytes32"
        }
      ],
      "name": "RoleAdminChanged",
      "type": "event"
    },
    {
      "anonymous": false,
      "inputs": [
        {
          "indexed": true,
          "internalType": "bytes32",
          "name": "role",
          "type": "bytes32"
        },
        {
          "indexed": true,
          "internalType": "address",
          "name": "account",
          "type": "address"
        },
        {
          "indexed": true,
          "internalType": "address",
          "name": "sender",
          "type": "address"
        }
      ],
      "name": "RoleGranted",
      "type": "event"
    },
    {
      "anonymous": false,
      "inputs": [
        {
          "indexed": true,
          "internalType": "bytes32",
          "name": "role",
          "type": "bytes32"
        },
        {
          "indexed": true,
          "internalType": "address",
          "name": "account",
          "type": "address"
        },
        {
          "indexed": true,
          "internalType": "address",
          "name": "sender",
          "type": "address"
        }
      ],
      "name": "RoleRevoked",
      "type": "event"
    },
    {
      "anonymous": false,
      "inputs": [
        {
          "indexed": true,
          "internalType": "address",
          "name": "from",
          "type": "address"
        },
        {
          "indexed": true,
          "internalType": "address",
          "name": "to",
          "type": "address"
        },
        {
          "indexed": true,
          "internalType": "uint256",
          "name": "tokenId",
          "type": "uint256"
        }
      ],
      "name": "Transfer",
      "type": "event"
    },
    {
      "anonymous": false,
      "inputs": [
        {
          "indexed": false,
          "internalType": "address",
          "name": "account",
          "type": "address"
        }
      ],
      "name": "Unpaused",
      "type": "event"
    },
    {
      "inputs": [],
      "name": "ALLOW_TRANSACTIONS_ROLE",
      "outputs": [
        {
          "internalType": "bytes32",
          "name": "",
          "type": "bytes32"
        }
      ],
      "stateMutability": "view",
      "type": "function"
    },
    {
      "inputs": [],
      "name": "DEFAULT_ADMIN_ROLE",
      "outputs": [
        {
          "internalType": "bytes32",
          "name": "",
          "type": "bytes32"
        }
      ],
      "stateMutability": "view",
      "type": "function"
    },
    {
      "inputs": [],
      "name": "INCREASE_TOKEN_CAP_ROLE",
      "outputs": [
        {
          "internalType": "bytes32",
          "name": "",
          "type": "bytes32"
        }
      ],
      "stateMutability": "view",
      "type": "function"
    },
    {
      "inputs": [],
      "name": "MINTER_ROLE",
      "outputs": [
        {
          "internalType": "bytes32",
          "name": "",
          "type": "bytes32"
        }
      ],
      "stateMutability": "view",
      "type": "function"
    },
    {
      "inputs": [],
      "name": "PAUSER_ROLE",
      "outputs": [
        {
          "internalType": "bytes32",
          "name": "",
          "type": "bytes32"
        }
      ],
      "stateMutability": "view",
      "type": "function"
    },
    {
      "inputs": [
        {
          "internalType": "address",
          "name": "",
          "type": "address"
        }
      ],
      "name": "_address2id",
      "outputs": [
        {
          "internalType": "uint256",
          "name": "",
          "type": "uint256"
        }
      ],
      "stateMutability": "view",
      "type": "function"
    },
    {
      "inputs": [
        {
          "internalType": "string",
          "name": "",
          "type": "string"
        }
      ],
      "name": "_email2id",
      "outputs": [
        {
          "internalType": "uint256",
          "name": "",
          "type": "uint256"
        }
      ],
      "stateMutability": "view",
      "type": "function"
    },
    {
      "inputs": [
        {
          "internalType": "uint256",
          "name": "",
          "type": "uint256"
        }
      ],
      "name": "_id2email",
      "outputs": [
        {
          "internalType": "string",
          "name": "",
          "type": "string"
        }
      ],
      "stateMutability": "view",
      "type": "function"
    },
    {
      "inputs": [],
      "name": "admin",
      "outputs": [
        {
          "internalType": "address",
          "name": "",
          "type": "address"
        }
      ],
      "stateMutability": "view",
      "type": "function"
    },
    {
      "inputs": [],
      "name": "allowTransfer",
      "outputs": [
        {
          "internalType": "bool",
          "name": "",
          "type": "bool"
        }
      ],
      "stateMutability": "view",
      "type": "function"
    },
    {
      "inputs": [
        {
          "internalType": "address",
          "name": "to",
          "type": "address"
        },
        {
          "internalType": "uint256",
          "name": "tokenId",
          "type": "uint256"
        }
      ],
      "name": "approve",
      "outputs": [],
      "stateMutability": "nonpayable",
      "type": "function"
    },
    {
      "inputs": [
        {
          "internalType": "address",
          "name": "owner",
          "type": "address"
        }
      ],
      "name": "balanceOf",
      "outputs": [
        {
          "internalType": "uint256",
          "name": "",
          "type": "uint256"
        }
      ],
      "stateMutability": "view",
      "type": "function"
    },
    {
      "inputs": [
        {
          "internalType": "bool",
          "name": "allow",
          "type": "bool"
        }
      ],
      "name": "changeAllowTransfer",
      "outputs": [],
      "stateMutability": "nonpayable",
      "type": "function"
    },
    {
      "inputs": [
        {
          "internalType": "string",
          "name": "_email",
          "type": "string"
        }
      ],
      "name": "changeEmail",
      "outputs": [],
      "stateMutability": "nonpayable",
      "type": "function"
    },
    {
      "inputs": [
        {
          "internalType": "uint256",
          "name": "tokenId",
          "type": "uint256"
        }
      ],
      "name": "getApproved",
      "outputs": [
        {
          "internalType": "address",
          "name": "",
          "type": "address"
        }
      ],
      "stateMutability": "view",
      "type": "function"
    },
    {
      "inputs": [
        {
          "internalType": "bytes32",
          "name": "role",
          "type": "bytes32"
        }
      ],
      "name": "getRoleAdmin",
      "outputs": [
        {
          "internalType": "bytes32",
          "name": "",
          "type": "bytes32"
        }
      ],
      "stateMutability": "view",
      "type": "function"
    },
    {
      "inputs": [
        {
          "internalType": "bytes32",
          "name": "role",
          "type": "bytes32"
        },
        {
          "internalType": "address",
          "name": "account",
          "type": "address"
        }
      ],
      "name": "grantRole",
      "outputs": [],
      "stateMutability": "nonpayable",
      "type": "function"
    },
    {
      "inputs": [
        {
          "internalType": "bytes32",
          "name": "role",
          "type": "bytes32"
        },
        {
          "internalType": "address",
          "name": "account",
          "type": "address"
        }
      ],
      "name": "hasRole",
      "outputs": [
        {
          "internalType": "bool",
          "name": "",
          "type": "bool"
        }
      ],
      "stateMutability": "view",
      "type": "function"
    },
    {
      "inputs": [
        {
          "internalType": "uint256",
          "name": "_amount",
          "type": "uint256"
        }
      ],
      "name": "increaseTokenCap",
      "outputs": [],
      "stateMutability": "nonpayable",
      "type": "function"
    },
    {
      "inputs": [
        {
          "internalType": "address",
          "name": "owner",
          "type": "address"
        },
        {
          "internalType": "address",
          "name": "operator",
          "type": "address"
        }
      ],
      "name": "isApprovedForAll",
      "outputs": [
        {
          "internalType": "bool",
          "name": "",
          "type": "bool"
        }
      ],
      "stateMutability": "view",
      "type": "function"
    },
    {
      "inputs": [
        {
          "internalType": "address",
          "name": "forwarder",
          "type": "address"
        }
      ],
      "name": "isTrustedForwarder",
      "outputs": [
        {
          "internalType": "bool",
          "name": "",
          "type": "bool"
        }
      ],
      "stateMutability": "view",
      "type": "function"
    },
    {
      "inputs": [
        {
          "internalType": "string",
          "name": "_email",
          "type": "string"
        }
      ],
      "name": "mint",
      "outputs": [],
      "stateMutability": "nonpayable",
      "type": "function"
    },
    {
      "inputs": [
        {
          "internalType": "string",
          "name": "_email",
          "type": "string"
        },
        {
          "internalType": "string",
          "name": "_referral",
          "type": "string"
        }
      ],
      "name": "mintWithRefferal",
      "outputs": [],
      "stateMutability": "nonpayable",
      "type": "function"
    },
    {
      "inputs": [],
      "name": "name",
      "outputs": [
        {
          "internalType": "string",
          "name": "",
          "type": "string"
        }
      ],
      "stateMutability": "view",
      "type": "function"
    },
    {
      "inputs": [
        {
          "internalType": "uint256",
          "name": "tokenId",
          "type": "uint256"
        }
      ],
      "name": "ownerOf",
      "outputs": [
        {
          "internalType": "address",
          "name": "",
          "type": "address"
        }
      ],
      "stateMutability": "view",
      "type": "function"
    },
    {
      "inputs": [],
      "name": "pause",
      "outputs": [],
      "stateMutability": "nonpayable",
      "type": "function"
    },
    {
      "inputs": [],
      "name": "paused",
      "outputs": [
        {
          "internalType": "bool",
          "name": "",
          "type": "bool"
        }
      ],
      "stateMutability": "view",
      "type": "function"
    },
    {
      "inputs": [
        {
          "internalType": "uint256",
          "name": "",
          "type": "uint256"
        }
      ],
      "name": "referrals",
      "outputs": [
        {
          "internalType": "uint256",
          "name": "",
          "type": "uint256"
        }
      ],
      "stateMutability": "view",
      "type": "function"
    },
    {
      "inputs": [
        {
          "internalType": "bytes32",
          "name": "role",
          "type": "bytes32"
        },
        {
          "internalType": "address",
          "name": "account",
          "type": "address"
        }
      ],
      "name": "renounceRole",
      "outputs": [],
      "stateMutability": "nonpayable",
      "type": "function"
    },
    {
      "inputs": [
        {
          "internalType": "bytes32",
          "name": "role",
          "type": "bytes32"
        },
        {
          "internalType": "address",
          "name": "account",
          "type": "address"
        }
      ],
      "name": "revokeRole",
      "outputs": [],
      "stateMutability": "nonpayable",
      "type": "function"
    },
    {
      "inputs": [
        {
          "internalType": "address",
          "name": "from",
          "type": "address"
        },
        {
          "internalType": "address",
          "name": "to",
          "type": "address"
        },
        {
          "internalType": "uint256",
          "name": "tokenId",
          "type": "uint256"
        }
      ],
      "name": "safeTransferFrom",
      "outputs": [],
      "stateMutability": "nonpayable",
      "type": "function"
    },
    {
      "inputs": [
        {
          "internalType": "address",
          "name": "from",
          "type": "address"
        },
        {
          "internalType": "address",
          "name": "to",
          "type": "address"
        },
        {
          "internalType": "uint256",
          "name": "tokenId",
          "type": "uint256"
        },
        {
          "internalType": "bytes",
          "name": "_data",
          "type": "bytes"
        }
      ],
      "name": "safeTransferFrom",
      "outputs": [],
      "stateMutability": "nonpayable",
      "type": "function"
    },
    {
      "inputs": [
        {
          "internalType": "address",
          "name": "operator",
          "type": "address"
        },
        {
          "internalType": "bool",
          "name": "approved",
          "type": "bool"
        }
      ],
      "name": "setApprovalForAll",
      "outputs": [],
      "stateMutability": "nonpayable",
      "type": "function"
    },
    {
      "inputs": [
        {
          "internalType": "string",
          "name": "newBaseURI",
          "type": "string"
        }
      ],
      "name": "setBaseURI",
      "outputs": [],
      "stateMutability": "nonpayable",
      "type": "function"
    },
    {
      "inputs": [
        {
          "internalType": "address",
          "name": "_trustedForwarder",
          "type": "address"
        }
      ],
      "name": "setTrustedForwarder",
      "outputs": [],
      "stateMutability": "nonpayable",
      "type": "function"
    },
    {
      "inputs": [],
      "name": "supplyCap",
      "outputs": [
        {
          "internalType": "uint256",
          "name": "",
          "type": "uint256"
        }
      ],
      "stateMutability": "view",
      "type": "function"
    },
    {
      "inputs": [
        {
          "internalType": "bytes4",
          "name": "interfaceId",
          "type": "bytes4"
        }
      ],
      "name": "supportsInterface",
      "outputs": [
        {
          "internalType": "bool",
          "name": "",
          "type": "bool"
        }
      ],
      "stateMutability": "view",
      "type": "function"
    },
    {
      "inputs": [],
      "name": "symbol",
      "outputs": [
        {
          "internalType": "string",
          "name": "",
          "type": "string"
        }
      ],
      "stateMutability": "view",
      "type": "function"
    },
    {
      "inputs": [],
      "name": "tokenCount",
      "outputs": [
        {
          "internalType": "uint256",
          "name": "",
          "type": "uint256"
        }
      ],
      "stateMutability": "view",
      "type": "function"
    },
    {
      "inputs": [
        {
          "internalType": "uint256",
          "name": "tokenId",
          "type": "uint256"
        }
      ],
      "name": "tokenURI",
      "outputs": [
        {
          "internalType": "string",
          "name": "",
          "type": "string"
        }
      ],
      "stateMutability": "view",
      "type": "function"
    },
    {
      "inputs": [
        {
          "internalType": "address",
          "name": "from",
          "type": "address"
        },
        {
          "internalType": "address",
          "name": "to",
          "type": "address"
        },
        {
          "internalType": "uint256",
          "name": "tokenId",
          "type": "uint256"
        }
      ],
      "name": "transferFrom",
      "outputs": [],
      "stateMutability": "nonpayable",
      "type": "function"
    },
    {
      "inputs": [],
      "name": "trustedForwarder",
      "outputs": [
        {
          "internalType": "address",
          "name": "",
          "type": "address"
        }
      ],
      "stateMutability": "view",
      "type": "function"
    },
    {
      "inputs": [],
      "name": "unpause",
      "outputs": [],
      "stateMutability": "nonpayable",
      "type": "function"
    }
  ],
  "bytecode": "0x60a06040526000600860146101000a81548160ff02191690831515021790555060016009556064600a556040518060400160405280601581526020017f68747470733a2f2f73742e776f726c642f6e66742f0000000000000000000000815250600f90805190602001906200007692919062000525565b503480156200008457600080fd5b5060405162005060380380620050608339818101604052810190620000aa91906200063f565b806040518060400160405280601381526020017f5354466f756e646572436f6c6c656374696f6e000000000000000000000000008152506040518060400160405280600481526020017f535446430000000000000000000000000000000000000000000000000000000081525081600090805190602001906200012f92919062000525565b5080600190805190602001906200014892919062000525565b5050506000600660006101000a81548160ff0219169083151502179055508073ffffffffffffffffffffffffffffffffffffffff1660808173ffffffffffffffffffffffffffffffffffffffff16815250505080601060006101000a81548173ffffffffffffffffffffffffffffffffffffffff021916908373ffffffffffffffffffffffffffffffffffffffff160217905550620001f16000801b33620002f260201b60201c565b620002237f65d7a28e3265b37a6474929f336521b332c1681b933f6cb9f3376673440d862a33620002f260201b60201c565b620002557f9f2df0fed2c77648de5860a4cc508cd0818c85b8b8a1ab4ceeef8d981c8956a682620002f260201b60201c565b620002877f9f2df0fed2c77648de5860a4cc508cd0818c85b8b8a1ab4ceeef8d981c8956a633620002f260201b60201c565b620002b97fb6cdb4b45d1a9a23f1a43d6790121246912a2bb9d708507d3df25d876cf0441833620002f260201b60201c565b620002eb7ffe4b6109449d071fed6698f2a8959353e87e69dadbd7734111820d374ebb1d7433620002f260201b60201c565b50620006d5565b620003048282620003e460201b60201c565b620003e05760016007600084815260200190815260200160002060000160008373ffffffffffffffffffffffffffffffffffffffff1673ffffffffffffffffffffffffffffffffffffffff16815260200190815260200160002060006101000a81548160ff021916908315150217905550620003856200044f60201b60201c565b73ffffffffffffffffffffffffffffffffffffffff168173ffffffffffffffffffffffffffffffffffffffff16837f2f8788117e7eff1d82e926ec794901d17c78024a50270940304540a733656f0d60405160405180910390a45b5050565b60006007600084815260200190815260200160002060000160008373ffffffffffffffffffffffffffffffffffffffff1673ffffffffffffffffffffffffffffffffffffffff16815260200190815260200160002060009054906101000a900460ff16905092915050565b600062000462336200049960201b60201c565b156200047857601436033560601c905062000495565b6200048d620004d360201b62001a041760201c565b905062000496565b5b90565b600060805173ffffffffffffffffffffffffffffffffffffffff168273ffffffffffffffffffffffffffffffffffffffff16149050919050565b6000620004e6336200049960201b60201c565b15620004fc57601436033560601c905062000519565b620005116200051d60201b62001a361760201c565b90506200051a565b5b90565b600033905090565b8280546200053390620006a0565b90600052602060002090601f016020900481019282620005575760008555620005a3565b82601f106200057257805160ff1916838001178555620005a3565b82800160010185558215620005a3579182015b82811115620005a257825182559160200191906001019062000585565b5b509050620005b29190620005b6565b5090565b5b80821115620005d1576000816000905550600101620005b7565b5090565b600080fd5b600073ffffffffffffffffffffffffffffffffffffffff82169050919050565b60006200060782620005da565b9050919050565b6200061981620005fa565b81146200062557600080fd5b50565b60008151905062000639816200060e565b92915050565b600060208284031215620006585762000657620005d5565b5b6000620006688482850162000628565b91505092915050565b7f4e487b7100000000000000000000000000000000000000000000000000000000600052602260045260246000fd5b60006002820490506001821680620006b957607f821691505b602082108103620006cf57620006ce62000671565b5b50919050565b60805161496f620006f16000396000610faf015261496f6000f3fe608060405234801561001057600080fd5b50600436106102695760003560e01c80637da0a87711610151578063a22cb465116100c3578063d553357d11610087578063d553357d1461075c578063d85d3d2714610778578063da74222814610794578063e63ab1e9146107b0578063e985e9c5146107ce578063f851a440146107fe57610269565b8063a22cb465146106ba578063b88d4fde146106d6578063c87b56dd146106f2578063d539139314610722578063d547741f1461074057610269565b806391d148541161011557806391d14854146105f457806395d89b41146106245780639b08a22f146106425780639f181b5e146106605780639f33208b1461067e578063a217fddf1461069c57610269565b80637da0a8771461056057806380b7c92b1461057e5780638456cb59146105ae5780638c9f5d7c146105b85780638f770ad0146105d657610269565b806336568abe116101ea5780635c975abb116101ae5780635c975abb146104665780636352211e14610484578063677978ec146104b45780636cccc7c1146104d057806370a08231146105005780637aa6f2701461053057610269565b806336568abe146103d85780633f4ba83a146103f457806342842e0e146103fe57806355f804b31461041a578063572b6c051461043657610269565b806321848c9a1161023157806321848c9a1461032457806323b872dd14610340578063248a9ca31461035c5780632f2ff15d1461038c57806333da286f146103a857610269565b80630125849f1461026e57806301ffc9a71461028a57806306fdde03146102ba578063081812fc146102d8578063095ea7b314610308575b600080fd5b6102886004803603810190610283919061314a565b61081c565b005b6102a4600480360381019061029f919061321a565b610b60565b6040516102b19190613262565b60405180910390f35b6102c2610b72565b6040516102cf9190613305565b60405180910390f35b6102f260048036038101906102ed919061335d565b610c04565b6040516102ff91906133cb565b60405180910390f35b610322600480360381019061031d9190613412565b610c89565b005b61033e6004803603810190610339919061347e565b610da0565b005b61035a600480360381019061035591906134ab565b610df0565b005b61037660048036038101906103719190613534565b610e50565b6040516103839190613570565b60405180910390f35b6103a660048036038101906103a1919061358b565b610e70565b005b6103c260048036038101906103bd91906135cb565b610e99565b6040516103cf9190613607565b60405180910390f35b6103f260048036038101906103ed919061358b565b610eb1565b005b6103fc610f34565b005b610418600480360381019061041391906134ab565b610f71565b005b610434600480360381019061042f9190613622565b610f91565b005b610450600480360381019061044b91906135cb565b610fab565b60405161045d9190613262565b60405180910390f35b61046e611003565b60405161047b9190613262565b60405180910390f35b61049e6004803603810190610499919061335d565b61101a565b6040516104ab91906133cb565b60405180910390f35b6104ce60048036038101906104c9919061335d565b6110cb565b005b6104ea60048036038101906104e5919061335d565b61111a565b6040516104f79190613305565b60405180910390f35b61051a600480360381019061051591906135cb565b6111ba565b6040516105279190613607565b60405180910390f35b61054a60048036038101906105459190613622565b611271565b6040516105579190613607565b60405180910390f35b61056861129f565b60405161057591906133cb565b60405180910390f35b6105986004803603810190610593919061335d565b6112c5565b6040516105a59190613607565b60405180910390f35b6105b66112dd565b005b6105c061131a565b6040516105cd9190613570565b60405180910390f35b6105de61133e565b6040516105eb9190613607565b60405180910390f35b61060e6004803603810190610609919061358b565b611344565b60405161061b9190613262565b60405180910390f35b61062c6113af565b6040516106399190613305565b60405180910390f35b61064a611441565b6040516106579190613262565b60405180910390f35b610668611454565b6040516106759190613607565b60405180910390f35b61068661145a565b6040516106939190613570565b60405180910390f35b6106a461147e565b6040516106b19190613570565b60405180910390f35b6106d460048036038101906106cf919061366b565b611485565b005b6106f060048036038101906106eb919061374c565b61149b565b005b61070c6004803603810190610707919061335d565b6114fd565b6040516107199190613305565b60405180910390f35b61072a61150f565b6040516107379190613570565b60405180910390f35b61075a6004803603810190610755919061358b565b611533565b005b61077660048036038101906107719190613622565b61155c565b005b610792600480360381019061078d9190613622565b6116ee565b005b6107ae60048036038101906107a991906135cb565b6118af565b005b6107b8611926565b6040516107c59190613570565b60405180910390f35b6107e860048036038101906107e391906137cf565b61194a565b6040516107f59190613262565b60405180910390f35b6108066119de565b60405161081391906133cb565b60405180910390f35b600a546009541115610863576040517f08c379a000000000000000000000000000000000000000000000000000000000815260040161085a90613881565b60405180910390fd5b80805190602001208280519060200120036108b3576040517f08c379a00000000000000000000000000000000000000000000000000000000081526004016108aa906138ed565b60405180910390fd5b6000600e60006108c1611a3e565b73ffffffffffffffffffffffffffffffffffffffff1673ffffffffffffffffffffffffffffffffffffffff168152602001908152602001600020541461093c576040517f08c379a00000000000000000000000000000000000000000000000000000000081526004016109339061397f565b60405180910390fd5b6000600d8360405161094e91906139db565b9081526020016040518091039020541461099d576040517f08c379a000000000000000000000000000000000000000000000000000000000815260040161099490613a3e565b60405180910390fd5b6000600d826040516109af91906139db565b908152602001604051809103902054036109fe576040517f08c379a00000000000000000000000000000000000000000000000000000000081526004016109f590613ad0565b60405180910390fd5b600860149054906101000a900460ff1615610a4e576040517f08c379a0000000000000000000000000000000000000000000000000000000008152600401610a4590613b3c565b60405180910390fd5b610a61610a59611a3e565b600954611a70565b60096000815480929190610a7490613b8b565b9190505550600954600e6000610a88611a3e565b73ffffffffffffffffffffffffffffffffffffffff1673ffffffffffffffffffffffffffffffffffffffff1681526020019081526020016000208190555081600c600060095481526020019081526020016000209080519060200190610aef929190612f4d565b50600954600d83604051610b0391906139db565b908152602001604051809103902081905550600b6000600d83604051610b2991906139db565b90815260200160405180910390205481526020019081526020016000206000815480929190610b5790613b8b565b91905055505050565b6000610b6b82611a8e565b9050919050565b606060008054610b8190613c02565b80601f0160208091040260200160405190810160405280929190818152602001828054610bad90613c02565b8015610bfa5780601f10610bcf57610100808354040283529160200191610bfa565b820191906000526020600020905b815481529060010190602001808311610bdd57829003601f168201915b5050505050905090565b6000610c0f82611b08565b610c4e576040517f08c379a0000000000000000000000000000000000000000000000000000000008152600401610c4590613ca5565b60405180910390fd5b6004600083815260200190815260200160002060009054906101000a900473ffffffffffffffffffffffffffffffffffffffff169050919050565b6000610c948261101a565b90508073ffffffffffffffffffffffffffffffffffffffff168373ffffffffffffffffffffffffffffffffffffffff1603610d04576040517f08c379a0000000000000000000000000000000000000000000000000000000008152600401610cfb90613d37565b60405180910390fd5b8073ffffffffffffffffffffffffffffffffffffffff16610d23611a3e565b73ffffffffffffffffffffffffffffffffffffffff161480610d525750610d5181610d4c611a3e565b61194a565b5b610d91576040517f08c379a0000000000000000000000000000000000000000000000000000000008152600401610d8890613dc9565b60405180910390fd5b610d9b8383611b74565b505050565b7fb6cdb4b45d1a9a23f1a43d6790121246912a2bb9d708507d3df25d876cf04418610dd281610dcd611a3e565b611c2d565b81600860146101000a81548160ff0219169083151502179055505050565b610e01610dfb611a3e565b82611cca565b610e40576040517f08c379a0000000000000000000000000000000000000000000000000000000008152600401610e3790613e5b565b60405180910390fd5b610e4b838383611da8565b505050565b600060076000838152602001908152602001600020600101549050919050565b610e7982610e50565b610e8a81610e85611a3e565b611c2d565b610e94838361200e565b505050565b600e6020528060005260406000206000915090505481565b610eb9611a3e565b73ffffffffffffffffffffffffffffffffffffffff168173ffffffffffffffffffffffffffffffffffffffff1614610f26576040517f08c379a0000000000000000000000000000000000000000000000000000000008152600401610f1d90613eed565b60405180910390fd5b610f3082826120ef565b5050565b7f65d7a28e3265b37a6474929f336521b332c1681b933f6cb9f3376673440d862a610f6681610f61611a3e565b611c2d565b610f6e6121d1565b50565b610f8c8383836040518060200160405280600081525061149b565b505050565b80600f9080519060200190610fa7929190612f4d565b5050565b60007f000000000000000000000000000000000000000000000000000000000000000073ffffffffffffffffffffffffffffffffffffffff168273ffffffffffffffffffffffffffffffffffffffff16149050919050565b6000600660009054906101000a900460ff16905090565b6000806002600084815260200190815260200160002060009054906101000a900473ffffffffffffffffffffffffffffffffffffffff169050600073ffffffffffffffffffffffffffffffffffffffff168173ffffffffffffffffffffffffffffffffffffffff16036110c2576040517f08c379a00000000000000000000000000000000000000000000000000000000081526004016110b990613f7f565b60405180910390fd5b80915050919050565b7ffe4b6109449d071fed6698f2a8959353e87e69dadbd7734111820d374ebb1d746110fd816110f8611a3e565b611c2d565b81600a600082825461110f9190613f9f565b925050819055505050565b600c602052806000526040600020600091509050805461113990613c02565b80601f016020809104026020016040519081016040528092919081815260200182805461116590613c02565b80156111b25780601f10611187576101008083540402835291602001916111b2565b820191906000526020600020905b81548152906001019060200180831161119557829003601f168201915b505050505081565b60008073ffffffffffffffffffffffffffffffffffffffff168273ffffffffffffffffffffffffffffffffffffffff160361122a576040517f08c379a000000000000000000000000000000000000000000000000000000000815260040161122190614067565b60405180910390fd5b600360008373ffffffffffffffffffffffffffffffffffffffff1673ffffffffffffffffffffffffffffffffffffffff168152602001908152602001600020549050919050565b600d818051602081018201805184825260208301602085012081835280955050505050506000915090505481565b601060009054906101000a900473ffffffffffffffffffffffffffffffffffffffff1681565b600b6020528060005260406000206000915090505481565b7f65d7a28e3265b37a6474929f336521b332c1681b933f6cb9f3376673440d862a61130f8161130a611a3e565b611c2d565b611317612273565b50565b7fb6cdb4b45d1a9a23f1a43d6790121246912a2bb9d708507d3df25d876cf0441881565b600a5481565b60006007600084815260200190815260200160002060000160008373ffffffffffffffffffffffffffffffffffffffff1673ffffffffffffffffffffffffffffffffffffffff16815260200190815260200160002060009054906101000a900460ff16905092915050565b6060600180546113be90613c02565b80601f01602080910402602001604051908101604052809291908181526020018280546113ea90613c02565b80156114375780601f1061140c57610100808354040283529160200191611437565b820191906000526020600020905b81548152906001019060200180831161141a57829003601f168201915b5050505050905090565b600860149054906101000a900460ff1681565b60095481565b7ffe4b6109449d071fed6698f2a8959353e87e69dadbd7734111820d374ebb1d7481565b6000801b81565b611497611490611a3e565b8383612316565b5050565b6114ac6114a6611a3e565b83611cca565b6114eb576040517f08c379a00000000000000000000000000000000000000000000000000000000081526004016114e290613e5b565b60405180910390fd5b6114f784848484612482565b50505050565b6060611508826124de565b9050919050565b7f9f2df0fed2c77648de5860a4cc508cd0818c85b8b8a1ab4ceeef8d981c8956a681565b61153c82610e50565b61154d81611548611a3e565b611c2d565b61155783836120ef565b505050565b7f9f2df0fed2c77648de5860a4cc508cd0818c85b8b8a1ab4ceeef8d981c8956a661158e81611589611a3e565b611c2d565b6000600e600061159c611a3e565b73ffffffffffffffffffffffffffffffffffffffff1673ffffffffffffffffffffffffffffffffffffffff1681526020019081526020016000205490506000600c600083815260200190815260200160002080546115f990613c02565b80601f016020809104026020016040519081016040528092919081815260200182805461162590613c02565b80156116725780601f1061164757610100808354040283529160200191611672565b820191906000526020600020905b81548152906001019060200180831161165557829003601f168201915b505050505090506000600d8260405161168b91906139db565b90815260200160405180910390208190555083600c600084815260200190815260200160002090805190602001906116c4929190612f4d565b5081600d856040516116d691906139db565b90815260200160405180910390208190555050505050565b600a5460095410611734576040517f08c379a000000000000000000000000000000000000000000000000000000000815260040161172b90613881565b60405180910390fd5b6000600d8260405161174691906139db565b90815260200160405180910390205414611795576040517f08c379a000000000000000000000000000000000000000000000000000000000815260040161178c90613a3e565b60405180910390fd5b600860149054906101000a900460ff16156117e5576040517f08c379a00000000000000000000000000000000000000000000000000000000081526004016117dc90613b3c565b60405180910390fd5b6117f86117f0611a3e565b600954611a70565b6009600081548092919061180b90613b8b565b9190505550600954600e600061181f611a3e565b73ffffffffffffffffffffffffffffffffffffffff1673ffffffffffffffffffffffffffffffffffffffff1681526020019081526020016000208190555080600c600060095481526020019081526020016000209080519060200190611886929190612f4d565b50600954600d8260405161189a91906139db565b90815260200160405180910390208190555050565b7f9f2df0fed2c77648de5860a4cc508cd0818c85b8b8a1ab4ceeef8d981c8956a66118e1816118dc611a3e565b611c2d565b81601060006101000a81548173ffffffffffffffffffffffffffffffffffffffff021916908373ffffffffffffffffffffffffffffffffffffffff1602179055505050565b7f65d7a28e3265b37a6474929f336521b332c1681b933f6cb9f3376673440d862a81565b6000600560008473ffffffffffffffffffffffffffffffffffffffff1673ffffffffffffffffffffffffffffffffffffffff16815260200190815260200160002060008373ffffffffffffffffffffffffffffffffffffffff1673ffffffffffffffffffffffffffffffffffffffff16815260200190815260200160002060009054906101000a900460ff16905092915050565b600860009054906101000a900473ffffffffffffffffffffffffffffffffffffffff1681565b6000611a0f33610fab565b15611a2357601436033560601c9050611a32565b611a2b611a36565b9050611a33565b5b90565b600033905090565b6000611a4933610fab565b15611a5d57601436033560601c9050611a6c565b611a65611a04565b9050611a6d565b5b90565b611a8a828260405180602001604052806000815250612585565b5050565b60007f7965db0b000000000000000000000000000000000000000000000000000000007bffffffffffffffffffffffffffffffffffffffffffffffffffffffff1916827bffffffffffffffffffffffffffffffffffffffffffffffffffffffff19161480611b015750611b00826125e0565b5b9050919050565b60008073ffffffffffffffffffffffffffffffffffffffff166002600084815260200190815260200160002060009054906101000a900473ffffffffffffffffffffffffffffffffffffffff1673ffffffffffffffffffffffffffffffffffffffff1614159050919050565b816004600083815260200190815260200160002060006101000a81548173ffffffffffffffffffffffffffffffffffffffff021916908373ffffffffffffffffffffffffffffffffffffffff160217905550808273ffffffffffffffffffffffffffffffffffffffff16611be78361101a565b73ffffffffffffffffffffffffffffffffffffffff167f8c5be1e5ebec7d5bd14f71427d1e84f3dd0314c0f7b2291e5b200ac8c7c3b92560405160405180910390a45050565b611c378282611344565b611cc657611c5c8173ffffffffffffffffffffffffffffffffffffffff1660146126c2565b611c6a8360001c60206126c2565b604051602001611c7b92919061411f565b6040516020818303038152906040526040517f08c379a0000000000000000000000000000000000000000000000000000000008152600401611cbd9190613305565b60405180910390fd5b5050565b6000611cd582611b08565b611d14576040517f08c379a0000000000000000000000000000000000000000000000000000000008152600401611d0b906141cb565b60405180910390fd5b6000611d1f8361101a565b90508073ffffffffffffffffffffffffffffffffffffffff168473ffffffffffffffffffffffffffffffffffffffff161480611d8e57508373ffffffffffffffffffffffffffffffffffffffff16611d7684610c04565b73ffffffffffffffffffffffffffffffffffffffff16145b80611d9f5750611d9e818561194a565b5b91505092915050565b8273ffffffffffffffffffffffffffffffffffffffff16611dc88261101a565b73ffffffffffffffffffffffffffffffffffffffff1614611e1e576040517f08c379a0000000000000000000000000000000000000000000000000000000008152600401611e159061425d565b60405180910390fd5b600073ffffffffffffffffffffffffffffffffffffffff168273ffffffffffffffffffffffffffffffffffffffff1603611e8d576040517f08c379a0000000000000000000000000000000000000000000000000000000008152600401611e84906142ef565b60405180910390fd5b611e988383836128fe565b611ea3600082611b74565b6001600360008573ffffffffffffffffffffffffffffffffffffffff1673ffffffffffffffffffffffffffffffffffffffff1681526020019081526020016000206000828254611ef3919061430f565b925050819055506001600360008473ffffffffffffffffffffffffffffffffffffffff1673ffffffffffffffffffffffffffffffffffffffff1681526020019081526020016000206000828254611f4a9190613f9f565b92505081905550816002600083815260200190815260200160002060006101000a81548173ffffffffffffffffffffffffffffffffffffffff021916908373ffffffffffffffffffffffffffffffffffffffff160217905550808273ffffffffffffffffffffffffffffffffffffffff168473ffffffffffffffffffffffffffffffffffffffff167fddf252ad1be2c89b69c2b068fc378daa952ba7f163c4a11628f55a4df523b3ef60405160405180910390a46120098383836129df565b505050565b6120188282611344565b6120eb5760016007600084815260200190815260200160002060000160008373ffffffffffffffffffffffffffffffffffffffff1673ffffffffffffffffffffffffffffffffffffffff16815260200190815260200160002060006101000a81548160ff021916908315150217905550612090611a3e565b73ffffffffffffffffffffffffffffffffffffffff168173ffffffffffffffffffffffffffffffffffffffff16837f2f8788117e7eff1d82e926ec794901d17c78024a50270940304540a733656f0d60405160405180910390a45b5050565b6120f98282611344565b156121cd5760006007600084815260200190815260200160002060000160008373ffffffffffffffffffffffffffffffffffffffff1673ffffffffffffffffffffffffffffffffffffffff16815260200190815260200160002060006101000a81548160ff021916908315150217905550612172611a3e565b73ffffffffffffffffffffffffffffffffffffffff168173ffffffffffffffffffffffffffffffffffffffff16837ff6391f5c32d9c69d2a47ea670b442974b53935d1edc7fd64eb21e047a839171b60405160405180910390a45b5050565b6121d9611003565b612218576040517f08c379a000000000000000000000000000000000000000000000000000000000815260040161220f9061438f565b60405180910390fd5b6000600660006101000a81548160ff0219169083151502179055507f5db9ee0a495bf2e6ff9c91a7834c1ba4fdd244a5e8aa4e537bd38aeae4b073aa61225c611a3e565b60405161226991906133cb565b60405180910390a1565b61227b611003565b156122bb576040517f08c379a00000000000000000000000000000000000000000000000000000000081526004016122b2906143fb565b60405180910390fd5b6001600660006101000a81548160ff0219169083151502179055507f62e78cea01bee320cd4e420270b5ea74000d11b0c9f74754ebdbfc544b05a2586122ff611a3e565b60405161230c91906133cb565b60405180910390a1565b8173ffffffffffffffffffffffffffffffffffffffff168373ffffffffffffffffffffffffffffffffffffffff1603612384576040517f08c379a000000000000000000000000000000000000000000000000000000000815260040161237b90614467565b60405180910390fd5b80600560008573ffffffffffffffffffffffffffffffffffffffff1673ffffffffffffffffffffffffffffffffffffffff16815260200190815260200160002060008473ffffffffffffffffffffffffffffffffffffffff1673ffffffffffffffffffffffffffffffffffffffff16815260200190815260200160002060006101000a81548160ff0219169083151502179055508173ffffffffffffffffffffffffffffffffffffffff168373ffffffffffffffffffffffffffffffffffffffff167f17307eab39ab6107e8899845ad3d59bd9653f200f220920489ca2b5937696c31836040516124759190613262565b60405180910390a3505050565b61248d848484611da8565b612499848484846129e4565b6124d8576040517f08c379a00000000000000000000000000000000000000000000000000000000081526004016124cf906144f9565b60405180910390fd5b50505050565b60606124e982611b08565b612528576040517f08c379a000000000000000000000000000000000000000000000000000000000815260040161251f9061458b565b60405180910390fd5b6000612532612b6b565b90506000815111612552576040518060200160405280600081525061257d565b8061255c84612b82565b60405160200161256d9291906145ab565b6040516020818303038152906040525b915050919050565b61258f8383612ce2565b61259c60008484846129e4565b6125db576040517f08c379a00000000000000000000000000000000000000000000000000000000081526004016125d2906144f9565b60405180910390fd5b505050565b60007f80ac58cd000000000000000000000000000000000000000000000000000000007bffffffffffffffffffffffffffffffffffffffffffffffffffffffff1916827bffffffffffffffffffffffffffffffffffffffffffffffffffffffff191614806126ab57507f5b5e139f000000000000000000000000000000000000000000000000000000007bffffffffffffffffffffffffffffffffffffffffffffffffffffffff1916827bffffffffffffffffffffffffffffffffffffffffffffffffffffffff1916145b806126bb57506126ba82612ebb565b5b9050919050565b6060600060028360026126d591906145cf565b6126df9190613f9f565b67ffffffffffffffff8111156126f8576126f761301f565b5b6040519080825280601f01601f19166020018201604052801561272a5781602001600182028036833780820191505090505b5090507f30000000000000000000000000000000000000000000000000000000000000008160008151811061276257612761614629565b5b60200101907effffffffffffffffffffffffffffffffffffffffffffffffffffffffffffff1916908160001a9053507f7800000000000000000000000000000000000000000000000000000000000000816001815181106127c6576127c5614629565b5b60200101907effffffffffffffffffffffffffffffffffffffffffffffffffffffffffffff1916908160001a9053506000600184600261280691906145cf565b6128109190613f9f565b90505b60018111156128b0577f3031323334353637383961626364656600000000000000000000000000000000600f86166010811061285257612851614629565b5b1a60f81b82828151811061286957612868614629565b5b60200101907effffffffffffffffffffffffffffffffffffffffffffffffffffffffffffff1916908160001a905350600485901c9450806128a990614658565b9050612813565b50600084146128f4576040517f08c379a00000000000000000000000000000000000000000000000000000000081526004016128eb906146cd565b60405180910390fd5b8091505092915050565b612906611003565b15612946576040517f08c379a000000000000000000000000000000000000000000000000000000000815260040161293d906143fb565b60405180910390fd5b612951838383612f25565b6000600e60008573ffffffffffffffffffffffffffffffffffffffff1673ffffffffffffffffffffffffffffffffffffffff1681526020019081526020016000208190555080600e60008473ffffffffffffffffffffffffffffffffffffffff1673ffffffffffffffffffffffffffffffffffffffff16815260200190815260200160002081905550505050565b505050565b6000612a058473ffffffffffffffffffffffffffffffffffffffff16612f2a565b15612b5e578373ffffffffffffffffffffffffffffffffffffffff1663150b7a02612a2e611a3e565b8786866040518563ffffffff1660e01b8152600401612a509493929190614742565b6020604051808303816000875af1925050508015612a8c57506040513d601f19601f82011682018060405250810190612a8991906147a3565b60015b612b0e573d8060008114612abc576040519150601f19603f3d011682016040523d82523d6000602084013e612ac1565b606091505b506000815103612b06576040517f08c379a0000000000000000000000000000000000000000000000000000000008152600401612afd906144f9565b60405180910390fd5b805181602001fd5b63150b7a0260e01b7bffffffffffffffffffffffffffffffffffffffffffffffffffffffff1916817bffffffffffffffffffffffffffffffffffffffffffffffffffffffff191614915050612b63565b600190505b949350505050565b606060405180602001604052806000815250905090565b606060008203612bc9576040518060400160405280600181526020017f30000000000000000000000000000000000000000000000000000000000000008152509050612cdd565b600082905060005b60008214612bfb578080612be490613b8b565b915050600a82612bf491906147ff565b9150612bd1565b60008167ffffffffffffffff811115612c1757612c1661301f565b5b6040519080825280601f01601f191660200182016040528015612c495781602001600182028036833780820191505090505b5090505b60008514612cd657600182612c62919061430f565b9150600a85612c719190614830565b6030612c7d9190613f9f565b60f81b818381518110612c9357612c92614629565b5b60200101907effffffffffffffffffffffffffffffffffffffffffffffffffffffffffffff1916908160001a905350600a85612ccf91906147ff565b9450612c4d565b8093505050505b919050565b600073ffffffffffffffffffffffffffffffffffffffff168273ffffffffffffffffffffffffffffffffffffffff1603612d51576040517f08c379a0000000000000000000000000000000000000000000000000000000008152600401612d48906148ad565b60405180910390fd5b612d5a81611b08565b15612d9a576040517f08c379a0000000000000000000000000000000000000000000000000000000008152600401612d9190614919565b60405180910390fd5b612da6600083836128fe565b6001600360008473ffffffffffffffffffffffffffffffffffffffff1673ffffffffffffffffffffffffffffffffffffffff1681526020019081526020016000206000828254612df69190613f9f565b92505081905550816002600083815260200190815260200160002060006101000a81548173ffffffffffffffffffffffffffffffffffffffff021916908373ffffffffffffffffffffffffffffffffffffffff160217905550808273ffffffffffffffffffffffffffffffffffffffff16600073ffffffffffffffffffffffffffffffffffffffff167fddf252ad1be2c89b69c2b068fc378daa952ba7f163c4a11628f55a4df523b3ef60405160405180910390a4612eb7600083836129df565b5050565b60007f01ffc9a7000000000000000000000000000000000000000000000000000000007bffffffffffffffffffffffffffffffffffffffffffffffffffffffff1916827bffffffffffffffffffffffffffffffffffffffffffffffffffffffff1916149050919050565b505050565b6000808273ffffffffffffffffffffffffffffffffffffffff163b119050919050565b828054612f5990613c02565b90600052602060002090601f016020900481019282612f7b5760008555612fc2565b82601f10612f9457805160ff1916838001178555612fc2565b82800160010185558215612fc2579182015b82811115612fc1578251825591602001919060010190612fa6565b5b509050612fcf9190612fd3565b5090565b5b80821115612fec576000816000905550600101612fd4565b5090565b6000604051905090565b600080fd5b600080fd5b600080fd5b600080fd5b6000601f19601f8301169050919050565b7f4e487b7100000000000000000000000000000000000000000000000000000000600052604160045260246000fd5b6130578261300e565b810181811067ffffffffffffffff821117156130765761307561301f565b5b80604052505050565b6000613089612ff0565b9050613095828261304e565b919050565b600067ffffffffffffffff8211156130b5576130b461301f565b5b6130be8261300e565b9050602081019050919050565b82818337600083830152505050565b60006130ed6130e88461309a565b61307f565b90508281526020810184848401111561310957613108613009565b5b6131148482856130cb565b509392505050565b600082601f83011261313157613130613004565b5b81356131418482602086016130da565b91505092915050565b6000806040838503121561316157613160612ffa565b5b600083013567ffffffffffffffff81111561317f5761317e612fff565b5b61318b8582860161311c565b925050602083013567ffffffffffffffff8111156131ac576131ab612fff565b5b6131b88582860161311c565b9150509250929050565b60007fffffffff0000000000000000000000000000000000000000000000000000000082169050919050565b6131f7816131c2565b811461320257600080fd5b50565b600081359050613214816131ee565b92915050565b6000602082840312156132305761322f612ffa565b5b600061323e84828501613205565b91505092915050565b60008115159050919050565b61325c81613247565b82525050565b60006020820190506132776000830184613253565b92915050565b600081519050919050565b600082825260208201905092915050565b60005b838110156132b757808201518184015260208101905061329c565b838111156132c6576000848401525b50505050565b60006132d78261327d565b6132e18185613288565b93506132f1818560208601613299565b6132fa8161300e565b840191505092915050565b6000602082019050818103600083015261331f81846132cc565b905092915050565b6000819050919050565b61333a81613327565b811461334557600080fd5b50565b60008135905061335781613331565b92915050565b60006020828403121561337357613372612ffa565b5b600061338184828501613348565b91505092915050565b600073ffffffffffffffffffffffffffffffffffffffff82169050919050565b60006133b58261338a565b9050919050565b6133c5816133aa565b82525050565b60006020820190506133e060008301846133bc565b92915050565b6133ef816133aa565b81146133fa57600080fd5b50565b60008135905061340c816133e6565b92915050565b6000806040838503121561342957613428612ffa565b5b6000613437858286016133fd565b925050602061344885828601613348565b9150509250929050565b61345b81613247565b811461346657600080fd5b50565b60008135905061347881613452565b92915050565b60006020828403121561349457613493612ffa565b5b60006134a284828501613469565b91505092915050565b6000806000606084860312156134c4576134c3612ffa565b5b60006134d2868287016133fd565b93505060206134e3868287016133fd565b92505060406134f486828701613348565b9150509250925092565b6000819050919050565b613511816134fe565b811461351c57600080fd5b50565b60008135905061352e81613508565b92915050565b60006020828403121561354a57613549612ffa565b5b60006135588482850161351f565b91505092915050565b61356a816134fe565b82525050565b60006020820190506135856000830184613561565b92915050565b600080604083850312156135a2576135a1612ffa565b5b60006135b08582860161351f565b92505060206135c1858286016133fd565b9150509250929050565b6000602082840312156135e1576135e0612ffa565b5b60006135ef848285016133fd565b91505092915050565b61360181613327565b82525050565b600060208201905061361c60008301846135f8565b92915050565b60006020828403121561363857613637612ffa565b5b600082013567ffffffffffffffff81111561365657613655612fff565b5b6136628482850161311c565b91505092915050565b6000806040838503121561368257613681612ffa565b5b6000613690858286016133fd565b92505060206136a185828601613469565b9150509250929050565b600067ffffffffffffffff8211156136c6576136c561301f565b5b6136cf8261300e565b9050602081019050919050565b60006136ef6136ea846136ab565b61307f565b90508281526020810184848401111561370b5761370a613009565b5b6137168482856130cb565b509392505050565b600082601f83011261373357613732613004565b5b81356137438482602086016136dc565b91505092915050565b6000806000806080858703121561376657613765612ffa565b5b6000613774878288016133fd565b9450506020613785878288016133fd565b935050604061379687828801613348565b925050606085013567ffffffffffffffff8111156137b7576137b6612fff565b5b6137c38782880161371e565b91505092959194509250565b600080604083850312156137e6576137e5612ffa565b5b60006137f4858286016133fd565b9250506020613805858286016133fd565b9150509250929050565b7f546f6b656e2043617020726561636865642e20436f6e746163742062656c6c4060008201527f73742e776f726c642e0000000000000000000000000000000000000000000000602082015250565b600061386b602983613288565b91506138768261380f565b604082019050919050565b6000602082019050818103600083015261389a8161385e565b9050919050565b7f43616e6e6f7420726566657220796f757273656c662100000000000000000000600082015250565b60006138d7601683613288565b91506138e2826138a1565b602082019050919050565b60006020820190508181036000830152613906816138ca565b9050919050565b7f506c656173652072656d6f766520726566657272616c206669656c642e20596f60008201527f7520616c6c7265616479206f776e20746865204e46542e000000000000000000602082015250565b6000613969603783613288565b91506139748261390d565b604082019050919050565b600060208201905081810360008301526139988161395c565b9050919050565b600081905092915050565b60006139b58261327d565b6139bf818561399f565b93506139cf818560208601613299565b80840191505092915050565b60006139e782846139aa565b915081905092915050565b7f456d61696c20697320616c726561647920726567697374657265642e00000000600082015250565b6000613a28601c83613288565b9150613a33826139f2565b602082019050919050565b60006020820190508181036000830152613a5781613a1b565b9050919050565b7f526566657272616c20656d61696c206973206e6f74207265676973746572656460008201527f2e00000000000000000000000000000000000000000000000000000000000000602082015250565b6000613aba602183613288565b9150613ac582613a5e565b604082019050919050565b60006020820190508181036000830152613ae981613aad565b9050919050565b7f4e6f206e6577206d696e74696e67206174207468697320737461676500000000600082015250565b6000613b26601c83613288565b9150613b3182613af0565b602082019050919050565b60006020820190508181036000830152613b5581613b19565b9050919050565b7f4e487b7100000000000000000000000000000000000000000000000000000000600052601160045260246000fd5b6000613b9682613327565b91507fffffffffffffffffffffffffffffffffffffffffffffffffffffffffffffffff8203613bc857613bc7613b5c565b5b600182019050919050565b7f4e487b7100000000000000000000000000000000000000000000000000000000600052602260045260246000fd5b60006002820490506001821680613c1a57607f821691505b602082108103613c2d57613c2c613bd3565b5b50919050565b7f4552433732313a20617070726f76656420717565727920666f72206e6f6e657860008201527f697374656e7420746f6b656e0000000000000000000000000000000000000000602082015250565b6000613c8f602c83613288565b9150613c9a82613c33565b604082019050919050565b60006020820190508181036000830152613cbe81613c82565b9050919050565b7f4552433732313a20617070726f76616c20746f2063757272656e74206f776e6560008201527f7200000000000000000000000000000000000000000000000000000000000000602082015250565b6000613d21602183613288565b9150613d2c82613cc5565b604082019050919050565b60006020820190508181036000830152613d5081613d14565b9050919050565b7f4552433732313a20617070726f76652063616c6c6572206973206e6f74206f7760008201527f6e6572206e6f7220617070726f76656420666f7220616c6c0000000000000000602082015250565b6000613db3603883613288565b9150613dbe82613d57565b604082019050919050565b60006020820190508181036000830152613de281613da6565b9050919050565b7f4552433732313a207472616e736665722063616c6c6572206973206e6f74206f60008201527f776e6572206e6f7220617070726f766564000000000000000000000000000000602082015250565b6000613e45603183613288565b9150613e5082613de9565b604082019050919050565b60006020820190508181036000830152613e7481613e38565b9050919050565b7f416363657373436f6e74726f6c3a2063616e206f6e6c792072656e6f756e636560008201527f20726f6c657320666f722073656c660000000000000000000000000000000000602082015250565b6000613ed7602f83613288565b9150613ee282613e7b565b604082019050919050565b60006020820190508181036000830152613f0681613eca565b9050919050565b7f4552433732313a206f776e657220717565727920666f72206e6f6e657869737460008201527f656e7420746f6b656e0000000000000000000000000000000000000000000000602082015250565b6000613f69602983613288565b9150613f7482613f0d565b604082019050919050565b60006020820190508181036000830152613f9881613f5c565b9050919050565b6000613faa82613327565b9150613fb583613327565b9250827fffffffffffffffffffffffffffffffffffffffffffffffffffffffffffffffff03821115613fea57613fe9613b5c565b5b828201905092915050565b7f4552433732313a2062616c616e636520717565727920666f7220746865207a6560008201527f726f206164647265737300000000000000000000000000000000000000000000602082015250565b6000614051602a83613288565b915061405c82613ff5565b604082019050919050565b6000602082019050818103600083015261408081614044565b9050919050565b7f416363657373436f6e74726f6c3a206163636f756e7420000000000000000000600082015250565b60006140bd60178361399f565b91506140c882614087565b601782019050919050565b7f206973206d697373696e6720726f6c6520000000000000000000000000000000600082015250565b600061410960118361399f565b9150614114826140d3565b601182019050919050565b600061412a826140b0565b915061413682856139aa565b9150614141826140fc565b915061414d82846139aa565b91508190509392505050565b7f4552433732313a206f70657261746f7220717565727920666f72206e6f6e657860008201527f697374656e7420746f6b656e0000000000000000000000000000000000000000602082015250565b60006141b5602c83613288565b91506141c082614159565b604082019050919050565b600060208201905081810360008301526141e4816141a8565b9050919050565b7f4552433732313a207472616e736665722066726f6d20696e636f72726563742060008201527f6f776e6572000000000000000000000000000000000000000000000000000000602082015250565b6000614247602583613288565b9150614252826141eb565b604082019050919050565b600060208201905081810360008301526142768161423a565b9050919050565b7f4552433732313a207472616e7366657220746f20746865207a65726f2061646460008201527f7265737300000000000000000000000000000000000000000000000000000000602082015250565b60006142d9602483613288565b91506142e48261427d565b604082019050919050565b60006020820190508181036000830152614308816142cc565b9050919050565b600061431a82613327565b915061432583613327565b92508282101561433857614337613b5c565b5b828203905092915050565b7f5061757361626c653a206e6f7420706175736564000000000000000000000000600082015250565b6000614379601483613288565b915061438482614343565b602082019050919050565b600060208201905081810360008301526143a88161436c565b9050919050565b7f5061757361626c653a2070617573656400000000000000000000000000000000600082015250565b60006143e5601083613288565b91506143f0826143af565b602082019050919050565b60006020820190508181036000830152614414816143d8565b9050919050565b7f4552433732313a20617070726f766520746f2063616c6c657200000000000000600082015250565b6000614451601983613288565b915061445c8261441b565b602082019050919050565b6000602082019050818103600083015261448081614444565b9050919050565b7f4552433732313a207472616e7366657220746f206e6f6e20455243373231526560008201527f63656976657220696d706c656d656e7465720000000000000000000000000000602082015250565b60006144e3603283613288565b91506144ee82614487565b604082019050919050565b60006020820190508181036000830152614512816144d6565b9050919050565b7f4552433732314d657461646174613a2055524920717565727920666f72206e6f60008201527f6e6578697374656e7420746f6b656e0000000000000000000000000000000000602082015250565b6000614575602f83613288565b915061458082614519565b604082019050919050565b600060208201905081810360008301526145a481614568565b9050919050565b60006145b782856139aa565b91506145c382846139aa565b91508190509392505050565b60006145da82613327565b91506145e583613327565b9250817fffffffffffffffffffffffffffffffffffffffffffffffffffffffffffffffff048311821515161561461e5761461d613b5c565b5b828202905092915050565b7f4e487b7100000000000000000000000000000000000000000000000000000000600052603260045260246000fd5b600061466382613327565b91506000820361467657614675613b5c565b5b600182039050919050565b7f537472696e67733a20686578206c656e67746820696e73756666696369656e74600082015250565b60006146b7602083613288565b91506146c282614681565b602082019050919050565b600060208201905081810360008301526146e6816146aa565b9050919050565b600081519050919050565b600082825260208201905092915050565b6000614714826146ed565b61471e81856146f8565b935061472e818560208601613299565b6147378161300e565b840191505092915050565b600060808201905061475760008301876133bc565b61476460208301866133bc565b61477160408301856135f8565b81810360608301526147838184614709565b905095945050505050565b60008151905061479d816131ee565b92915050565b6000602082840312156147b9576147b8612ffa565b5b60006147c78482850161478e565b91505092915050565b7f4e487b7100000000000000000000000000000000000000000000000000000000600052601260045260246000fd5b600061480a82613327565b915061481583613327565b925082614825576148246147d0565b5b828204905092915050565b600061483b82613327565b915061484683613327565b925082614856576148556147d0565b5b828206905092915050565b7f4552433732313a206d696e7420746f20746865207a65726f2061646472657373600082015250565b6000614897602083613288565b91506148a282614861565b602082019050919050565b600060208201905081810360008301526148c68161488a565b9050919050565b7f4552433732313a20746f6b656e20616c7265616479206d696e74656400000000600082015250565b6000614903601c83613288565b915061490e826148cd565b602082019050919050565b60006020820190508181036000830152614932816148f6565b905091905056fea26469706673582212207bfd0a7ba991eee42fcf4e8a886ca0b77e328fdaacc0f7601a118d1280a6d2c264736f6c634300080d0033",
  "linkReferences": {},
  "deployedLinkReferences": {}
}