{
  "_format": "hh-sol-artifact-1",
  "contractName": "Queue",
  "sourceName": "contracts/Queue.sol",
  "abi": [
    {
      "inputs": [],
      "name": "dequeue",
      "outputs": [
        {
          "internalType": "uint256",
          "name": "id",
          "type": "uint256"
        }
      ],
      "stateMutability": "nonpayable",
      "type": "function"
    },
    {
      "inputs": [
        {
          "internalType": "uint256",
          "name": "id",
          "type": "uint256"
        }
      ],
      "name": "enqueue",
      "outputs": [],
      "stateMutability": "nonpayable",
      "type": "function"
    }
  ],
  "bytecode": "0x60806040526001805560006002556001600360006101000a81548160ff02191690831515021790555034801561003457600080fd5b50610299806100446000396000f3fe608060405234801561001057600080fd5b50600436106100365760003560e01c80631ffc735d1461003b578063957908d114610057575b600080fd5b61005560048036038101906100509190610161565b610075565b005b61005f6100c6565b60405161006c919061019d565b60405180910390f35b60016002600082825461008891906101b8565b925050819055506000600360006101000a81548160ff0219169083151502179055508060008060025481526020019081526020016000208190555050565b600060015460025410156100d957600080fd5b60008060015481526020019081526020016000205490506002546001541415610118576001600360006101000a81548160ff0219169083151502179055505b600080600154815260200190815260200160002060009055600180600082825461014291906101b8565b9250508190555090565b60008135905061015b8161024c565b92915050565b60006020828403121561017757610176610247565b5b60006101858482850161014c565b91505092915050565b6101978161020e565b82525050565b60006020820190506101b2600083018461018e565b92915050565b60006101c38261020e565b91506101ce8361020e565b9250827fffffffffffffffffffffffffffffffffffffffffffffffffffffffffffffffff0382111561020357610202610218565b5b828201905092915050565b6000819050919050565b7f4e487b7100000000000000000000000000000000000000000000000000000000600052601160045260246000fd5b600080fd5b6102558161020e565b811461026057600080fd5b5056fea26469706673582212201a58e8ae2ea49e3fc100dc46ef6db0544d0db31ee49f1ddc5773f49890bfae2564736f6c63430008060033",
  "linkReferences": {},
  "deployedLinkReferences": {}
}