{
  "_format": "hh-sol-artifact-1",
  "contractName": "ST1155Tokens",
  "sourceName": "contracts/ERC1155.sol",
  "abi": [
    {
      "inputs": [
        {
          "internalType": "string",
          "name": "uri",
          "type": "string"
        }
      ],
      "stateMutability": "nonpayable",
      "type": "constructor"
    },
    {
      "anonymous": false,
      "inputs": [
        {
          "indexed": true,
          "internalType": "address",
          "name": "account",
          "type": "address"
        },
        {
          "indexed": true,
          "internalType": "address",
          "name": "operator",
          "type": "address"
        },
        {
          "indexed": false,
          "internalType": "bool",
          "name": "approved",
          "type": "bool"
        }
      ],
      "name": "ApprovalForAll",
      "type": "event"
    },
    {
      "anonymous": false,
      "inputs": [
        {
          "indexed": true,
          "internalType": "address",
          "name": "operator",
          "type": "address"
        },
        {
          "indexed": true,
          "internalType": "address",
          "name": "from",
          "type": "address"
        },
        {
          "indexed": true,
          "internalType": "address",
          "name": "to",
          "type": "address"
        },
        {
          "indexed": false,
          "internalType": "uint256[]",
          "name": "ids",
          "type": "uint256[]"
        },
        {
          "indexed": false,
          "internalType": "uint256[]",
          "name": "values",
          "type": "uint256[]"
        }
      ],
      "name": "TransferBatch",
      "type": "event"
    },
    {
      "anonymous": false,
      "inputs": [
        {
          "indexed": true,
          "internalType": "address",
          "name": "operator",
          "type": "address"
        },
        {
          "indexed": true,
          "internalType": "address",
          "name": "from",
          "type": "address"
        },
        {
          "indexed": true,
          "internalType": "address",
          "name": "to",
          "type": "address"
        },
        {
          "indexed": false,
          "internalType": "uint256",
          "name": "id",
          "type": "uint256"
        },
        {
          "indexed": false,
          "internalType": "uint256",
          "name": "value",
          "type": "uint256"
        }
      ],
      "name": "TransferSingle",
      "type": "event"
    },
    {
      "anonymous": false,
      "inputs": [
        {
          "indexed": false,
          "internalType": "string",
          "name": "value",
          "type": "string"
        },
        {
          "indexed": true,
          "internalType": "uint256",
          "name": "id",
          "type": "uint256"
        }
      ],
      "name": "URI",
      "type": "event"
    },
    {
      "inputs": [
        {
          "internalType": "address",
          "name": "",
          "type": "address"
        }
      ],
      "name": "_address2Id",
      "outputs": [
        {
          "internalType": "uint256",
          "name": "",
          "type": "uint256"
        }
      ],
      "stateMutability": "view",
      "type": "function"
    },
    {
      "inputs": [
        {
          "internalType": "uint256",
          "name": "",
          "type": "uint256"
        }
      ],
      "name": "_id2Address",
      "outputs": [
        {
          "internalType": "address",
          "name": "",
          "type": "address"
        }
      ],
      "stateMutability": "view",
      "type": "function"
    },
    {
      "inputs": [
        {
          "internalType": "address",
          "name": "account",
          "type": "address"
        },
        {
          "internalType": "uint256",
          "name": "id",
          "type": "uint256"
        }
      ],
      "name": "balanceOf",
      "outputs": [
        {
          "internalType": "uint256",
          "name": "",
          "type": "uint256"
        }
      ],
      "stateMutability": "view",
      "type": "function"
    },
    {
      "inputs": [
        {
          "internalType": "address[]",
          "name": "accounts",
          "type": "address[]"
        },
        {
          "internalType": "uint256[]",
          "name": "ids",
          "type": "uint256[]"
        }
      ],
      "name": "balanceOfBatch",
      "outputs": [
        {
          "internalType": "uint256[]",
          "name": "",
          "type": "uint256[]"
        }
      ],
      "stateMutability": "view",
      "type": "function"
    },
    {
      "inputs": [
        {
          "internalType": "address",
          "name": "account",
          "type": "address"
        },
        {
          "internalType": "address",
          "name": "operator",
          "type": "address"
        }
      ],
      "name": "isApprovedForAll",
      "outputs": [
        {
          "internalType": "bool",
          "name": "",
          "type": "bool"
        }
      ],
      "stateMutability": "view",
      "type": "function"
    },
    {
      "inputs": [
        {
          "internalType": "address",
          "name": "from",
          "type": "address"
        },
        {
          "internalType": "address",
          "name": "to",
          "type": "address"
        },
        {
          "internalType": "uint256[]",
          "name": "ids",
          "type": "uint256[]"
        },
        {
          "internalType": "uint256[]",
          "name": "amounts",
          "type": "uint256[]"
        },
        {
          "internalType": "bytes",
          "name": "data",
          "type": "bytes"
        }
      ],
      "name": "safeBatchTransferFrom",
      "outputs": [],
      "stateMutability": "nonpayable",
      "type": "function"
    },
    {
      "inputs": [
        {
          "internalType": "address",
          "name": "from",
          "type": "address"
        },
        {
          "internalType": "address",
          "name": "to",
          "type": "address"
        },
        {
          "internalType": "uint256",
          "name": "id",
          "type": "uint256"
        },
        {
          "internalType": "uint256",
          "name": "amount",
          "type": "uint256"
        },
        {
          "internalType": "bytes",
          "name": "data",
          "type": "bytes"
        }
      ],
      "name": "safeTransferFrom",
      "outputs": [],
      "stateMutability": "nonpayable",
      "type": "function"
    },
    {
      "inputs": [
        {
          "internalType": "address",
          "name": "operator",
          "type": "address"
        },
        {
          "internalType": "bool",
          "name": "approved",
          "type": "bool"
        }
      ],
      "name": "setApprovalForAll",
      "outputs": [],
      "stateMutability": "nonpayable",
      "type": "function"
    },
    {
      "inputs": [
        {
          "internalType": "string",
          "name": "newuri",
          "type": "string"
        }
      ],
      "name": "setURI",
      "outputs": [],
      "stateMutability": "nonpayable",
      "type": "function"
    },
    {
      "inputs": [
        {
          "internalType": "bytes4",
          "name": "interfaceId",
          "type": "bytes4"
        }
      ],
      "name": "supportsInterface",
      "outputs": [
        {
          "internalType": "bool",
          "name": "",
          "type": "bool"
        }
      ],
      "stateMutability": "view",
      "type": "function"
    },
    {
      "inputs": [
        {
          "internalType": "uint256",
          "name": "",
          "type": "uint256"
        }
      ],
      "name": "uri",
      "outputs": [
        {
          "internalType": "string",
          "name": "",
          "type": "string"
        }
      ],
      "stateMutability": "view",
      "type": "function"
    }
  ],
  "bytecode": "0x608060405260006004553480156200001657600080fd5b5060405162002c9738038062002c9783398181016040528101906200003c9190620001e1565b806200004e816200009760201b60201c565b5033600360006101000a81548173ffffffffffffffffffffffffffffffffffffffff021916908373ffffffffffffffffffffffffffffffffffffffff16021790555050620003b6565b8060029080519060200190620000af929190620000b3565b5050565b828054620000c190620002c7565b90600052602060002090601f016020900481019282620000e5576000855562000131565b82601f106200010057805160ff191683800117855562000131565b8280016001018555821562000131579182015b828111156200013057825182559160200191906001019062000113565b5b50905062000140919062000144565b5090565b5b808211156200015f57600081600090555060010162000145565b5090565b60006200017a62000174846200025b565b62000232565b90508281526020810184848401111562000199576200019862000396565b5b620001a684828562000291565b509392505050565b600082601f830112620001c657620001c562000391565b5b8151620001d884826020860162000163565b91505092915050565b600060208284031215620001fa57620001f9620003a0565b5b600082015167ffffffffffffffff8111156200021b576200021a6200039b565b5b6200022984828501620001ae565b91505092915050565b60006200023e62000251565b90506200024c8282620002fd565b919050565b6000604051905090565b600067ffffffffffffffff82111562000279576200027862000362565b5b6200028482620003a5565b9050602081019050919050565b60005b83811015620002b157808201518184015260208101905062000294565b83811115620002c1576000848401525b50505050565b60006002820490506001821680620002e057607f821691505b60208210811415620002f757620002f662000333565b5b50919050565b6200030882620003a5565b810181811067ffffffffffffffff821117156200032a576200032962000362565b5b80604052505050565b7f4e487b7100000000000000000000000000000000000000000000000000000000600052602260045260246000fd5b7f4e487b7100000000000000000000000000000000000000000000000000000000600052604160045260246000fd5b600080fd5b600080fd5b600080fd5b600080fd5b6000601f19601f8301169050919050565b6128d180620003c66000396000f3fe608060405234801561001057600080fd5b50600436106100a85760003560e01c80634e1273f4116100715780634e1273f4146101755780635d6ae91d146101a557806380d4bb59146101d5578063a22cb46514610205578063e985e9c514610221578063f242432a14610251576100a8565b8062fdd58e146100ad57806301ffc9a7146100dd57806302fe53051461010d5780630e89341c146101295780632eb2c2d614610159575b600080fd5b6100c760048036038101906100c29190611975565b61026d565b6040516100d49190612032565b60405180910390f35b6100f760048036038101906100f29190611a2d565b610336565b6040516101049190611eb5565b60405180910390f35b61012760048036038101906101229190611a87565b610418565b005b610143600480360381019061013e9190611ad0565b610424565b6040516101509190611ed0565b60405180910390f35b610173600480360381019061016e91906117cf565b6104b8565b005b61018f600480360381019061018a91906119b5565b610559565b60405161019c9190611e5c565b60405180910390f35b6101bf60048036038101906101ba9190611ad0565b610672565b6040516101cc9190611d7f565b60405180910390f35b6101ef60048036038101906101ea9190611762565b6106a5565b6040516101fc9190612032565b60405180910390f35b61021f600480360381019061021a9190611935565b6106bd565b005b61023b6004803603810190610236919061178f565b6106d3565b6040516102489190611eb5565b60405180910390f35b61026b6004803603810190610266919061189e565b610767565b005b60008073ffffffffffffffffffffffffffffffffffffffff168373ffffffffffffffffffffffffffffffffffffffff1614156102de576040517f08c379a00000000000000000000000000000000000000000000000000000000081526004016102d590611f32565b60405180910390fd5b60008083815260200190815260200160002060008473ffffffffffffffffffffffffffffffffffffffff1673ffffffffffffffffffffffffffffffffffffffff16815260200190815260200160002054905092915050565b60007fd9b67a26000000000000000000000000000000000000000000000000000000007bffffffffffffffffffffffffffffffffffffffffffffffffffffffff1916827bffffffffffffffffffffffffffffffffffffffffffffffffffffffff1916148061040157507f0e89341c000000000000000000000000000000000000000000000000000000007bffffffffffffffffffffffffffffffffffffffffffffffffffffffff1916827bffffffffffffffffffffffffffffffffffffffffffffffffffffffff1916145b80610411575061041082610808565b5b9050919050565b61042181610872565b50565b606060028054610433906122d2565b80601f016020809104026020016040519081016040528092919081815260200182805461045f906122d2565b80156104ac5780601f10610481576101008083540402835291602001916104ac565b820191906000526020600020905b81548152906001019060200180831161048f57829003601f168201915b50505050509050919050565b6104c061088c565b73ffffffffffffffffffffffffffffffffffffffff168573ffffffffffffffffffffffffffffffffffffffff16148061050657506105058561050061088c565b6106d3565b5b610545576040517f08c379a000000000000000000000000000000000000000000000000000000000815260040161053c90611f92565b60405180910390fd5b6105528585858585610894565b5050505050565b6060815183511461059f576040517f08c379a000000000000000000000000000000000000000000000000000000000815260040161059690611ff2565b60405180910390fd5b6000835167ffffffffffffffff8111156105bc576105bb61240b565b5b6040519080825280602002602001820160405280156105ea5781602001602082028036833780820191505090505b50905060005b84518110156106675761063785828151811061060f5761060e6123dc565b5b602002602001015185838151811061062a576106296123dc565b5b602002602001015161026d565b82828151811061064a576106496123dc565b5b6020026020010181815250508061066090612335565b90506105f0565b508091505092915050565b60066020528060005260406000206000915054906101000a900473ffffffffffffffffffffffffffffffffffffffff1681565b60056020528060005260406000206000915090505481565b6106cf6106c861088c565b8383610bb6565b5050565b6000600160008473ffffffffffffffffffffffffffffffffffffffff1673ffffffffffffffffffffffffffffffffffffffff16815260200190815260200160002060008373ffffffffffffffffffffffffffffffffffffffff1673ffffffffffffffffffffffffffffffffffffffff16815260200190815260200160002060009054906101000a900460ff16905092915050565b61076f61088c565b73ffffffffffffffffffffffffffffffffffffffff168573ffffffffffffffffffffffffffffffffffffffff1614806107b557506107b4856107af61088c565b6106d3565b5b6107f4576040517f08c379a00000000000000000000000000000000000000000000000000000000081526004016107eb90611f52565b60405180910390fd5b6108018585858585610d23565b5050505050565b60007f01ffc9a7000000000000000000000000000000000000000000000000000000007bffffffffffffffffffffffffffffffffffffffffffffffffffffffff1916827bffffffffffffffffffffffffffffffffffffffffffffffffffffffff1916149050919050565b806002908051906020019061088892919061143a565b5050565b600033905090565b81518351146108d8576040517f08c379a00000000000000000000000000000000000000000000000000000000081526004016108cf90612012565b60405180910390fd5b600073ffffffffffffffffffffffffffffffffffffffff168473ffffffffffffffffffffffffffffffffffffffff161415610948576040517f08c379a000000000000000000000000000000000000000000000000000000000815260040161093f90611f72565b60405180910390fd5b600061095261088c565b9050610962818787878787610fbf565b60005b8451811015610b13576000858281518110610983576109826123dc565b5b6020026020010151905060008583815181106109a2576109a16123dc565b5b60200260200101519050600080600084815260200190815260200160002060008b73ffffffffffffffffffffffffffffffffffffffff1673ffffffffffffffffffffffffffffffffffffffff16815260200190815260200160002054905081811015610a43576040517f08c379a0000000000000000000000000000000000000000000000000000000008152600401610a3a90611fb2565b60405180910390fd5b81810360008085815260200190815260200160002060008c73ffffffffffffffffffffffffffffffffffffffff1673ffffffffffffffffffffffffffffffffffffffff168152602001908152602001600020819055508160008085815260200190815260200160002060008b73ffffffffffffffffffffffffffffffffffffffff1673ffffffffffffffffffffffffffffffffffffffff1681526020019081526020016000206000828254610af891906121c6565b9250508190555050505080610b0c90612335565b9050610965565b508473ffffffffffffffffffffffffffffffffffffffff168673ffffffffffffffffffffffffffffffffffffffff168273ffffffffffffffffffffffffffffffffffffffff167f4a39dc06d4c0dbc64b70af90fd698a233a518aa5d07e595d983b8c0526c8f7fb8787604051610b8a929190611e7e565b60405180910390a4610ba0818787878787610fc7565b610bae818787878787610fcf565b505050505050565b8173ffffffffffffffffffffffffffffffffffffffff168373ffffffffffffffffffffffffffffffffffffffff161415610c25576040517f08c379a0000000000000000000000000000000000000000000000000000000008152600401610c1c90611fd2565b60405180910390fd5b80600160008573ffffffffffffffffffffffffffffffffffffffff1673ffffffffffffffffffffffffffffffffffffffff16815260200190815260200160002060008473ffffffffffffffffffffffffffffffffffffffff1673ffffffffffffffffffffffffffffffffffffffff16815260200190815260200160002060006101000a81548160ff0219169083151502179055508173ffffffffffffffffffffffffffffffffffffffff168373ffffffffffffffffffffffffffffffffffffffff167f17307eab39ab6107e8899845ad3d59bd9653f200f220920489ca2b5937696c3183604051610d169190611eb5565b60405180910390a3505050565b600073ffffffffffffffffffffffffffffffffffffffff168473ffffffffffffffffffffffffffffffffffffffff161415610d93576040517f08c379a0000000000000000000000000000000000000000000000000000000008152600401610d8a90611f72565b60405180910390fd5b6000610d9d61088c565b90506000610daa856111b6565b90506000610db7856111b6565b9050610dc7838989858589610fbf565b600080600088815260200190815260200160002060008a73ffffffffffffffffffffffffffffffffffffffff1673ffffffffffffffffffffffffffffffffffffffff16815260200190815260200160002054905085811015610e5e576040517f08c379a0000000000000000000000000000000000000000000000000000000008152600401610e5590611fb2565b60405180910390fd5b85810360008089815260200190815260200160002060008b73ffffffffffffffffffffffffffffffffffffffff1673ffffffffffffffffffffffffffffffffffffffff168152602001908152602001600020819055508560008089815260200190815260200160002060008a73ffffffffffffffffffffffffffffffffffffffff1673ffffffffffffffffffffffffffffffffffffffff1681526020019081526020016000206000828254610f1391906121c6565b925050819055508773ffffffffffffffffffffffffffffffffffffffff168973ffffffffffffffffffffffffffffffffffffffff168573ffffffffffffffffffffffffffffffffffffffff167fc3d58168c5ae7397731d063d5bbf3d657854427343f4c083240f7aacaa2d0f628a8a604051610f9092919061204d565b60405180910390a4610fa6848a8a86868a610fc7565b610fb4848a8a8a8a8a611230565b505050505050505050565b505050505050565b505050505050565b610fee8473ffffffffffffffffffffffffffffffffffffffff16611417565b156111ae578373ffffffffffffffffffffffffffffffffffffffff1663bc197c8187878686866040518663ffffffff1660e01b8152600401611034959493929190611d9a565b602060405180830381600087803b15801561104e57600080fd5b505af192505050801561107f57506040513d601f19601f8201168201806040525081019061107c9190611a5a565b60015b6111255761108b61243a565b806308c379a014156110e857506110a06127a9565b806110ab57506110ea565b806040517f08c379a00000000000000000000000000000000000000000000000000000000081526004016110df9190611ed0565b60405180910390fd5b505b6040517f08c379a000000000000000000000000000000000000000000000000000000000815260040161111c90611ef2565b60405180910390fd5b63bc197c8160e01b7bffffffffffffffffffffffffffffffffffffffffffffffffffffffff1916817bffffffffffffffffffffffffffffffffffffffffffffffffffffffff1916146111ac576040517f08c379a00000000000000000000000000000000000000000000000000000000081526004016111a390611f12565b60405180910390fd5b505b505050505050565b60606000600167ffffffffffffffff8111156111d5576111d461240b565b5b6040519080825280602002602001820160405280156112035781602001602082028036833780820191505090505b509050828160008151811061121b5761121a6123dc565b5b60200260200101818152505080915050919050565b61124f8473ffffffffffffffffffffffffffffffffffffffff16611417565b1561140f578373ffffffffffffffffffffffffffffffffffffffff1663f23a6e6187878686866040518663ffffffff1660e01b8152600401611295959493929190611e02565b602060405180830381600087803b1580156112af57600080fd5b505af19250505080156112e057506040513d601f19601f820116820180604052508101906112dd9190611a5a565b60015b611386576112ec61243a565b806308c379a0141561134957506113016127a9565b8061130c575061134b565b806040517f08c379a00000000000000000000000000000000000000000000000000000000081526004016113409190611ed0565b60405180910390fd5b505b6040517f08c379a000000000000000000000000000000000000000000000000000000000815260040161137d90611ef2565b60405180910390fd5b63f23a6e6160e01b7bffffffffffffffffffffffffffffffffffffffffffffffffffffffff1916817bffffffffffffffffffffffffffffffffffffffffffffffffffffffff19161461140d576040517f08c379a000000000000000000000000000000000000000000000000000000000815260040161140490611f12565b60405180910390fd5b505b505050505050565b6000808273ffffffffffffffffffffffffffffffffffffffff163b119050919050565b828054611446906122d2565b90600052602060002090601f01602090048101928261146857600085556114af565b82601f1061148157805160ff19168380011785556114af565b828001600101855582156114af579182015b828111156114ae578251825591602001919060010190611493565b5b5090506114bc91906114c0565b5090565b5b808211156114d95760008160009055506001016114c1565b5090565b60006114f06114eb8461209b565b612076565b9050808382526020820190508285602086028201111561151357611512612461565b5b60005b8581101561154357816115298882611641565b845260208401935060208301925050600181019050611516565b5050509392505050565b600061156061155b846120c7565b612076565b9050808382526020820190508285602086028201111561158357611582612461565b5b60005b858110156115b35781611599888261174d565b845260208401935060208301925050600181019050611586565b5050509392505050565b60006115d06115cb846120f3565b612076565b9050828152602081018484840111156115ec576115eb612466565b5b6115f7848285612290565b509392505050565b600061161261160d84612124565b612076565b90508281526020810184848401111561162e5761162d612466565b5b611639848285612290565b509392505050565b6000813590506116508161283f565b92915050565b600082601f83011261166b5761166a61245c565b5b813561167b8482602086016114dd565b91505092915050565b600082601f8301126116995761169861245c565b5b81356116a984826020860161154d565b91505092915050565b6000813590506116c181612856565b92915050565b6000813590506116d68161286d565b92915050565b6000815190506116eb8161286d565b92915050565b600082601f8301126117065761170561245c565b5b81356117168482602086016115bd565b91505092915050565b600082601f8301126117345761173361245c565b5b81356117448482602086016115ff565b91505092915050565b60008135905061175c81612884565b92915050565b60006020828403121561177857611777612470565b5b600061178684828501611641565b91505092915050565b600080604083850312156117a6576117a5612470565b5b60006117b485828601611641565b92505060206117c585828601611641565b9150509250929050565b600080600080600060a086880312156117eb576117ea612470565b5b60006117f988828901611641565b955050602061180a88828901611641565b945050604086013567ffffffffffffffff81111561182b5761182a61246b565b5b61183788828901611684565b935050606086013567ffffffffffffffff8111156118585761185761246b565b5b61186488828901611684565b925050608086013567ffffffffffffffff8111156118855761188461246b565b5b611891888289016116f1565b9150509295509295909350565b600080600080600060a086880312156118ba576118b9612470565b5b60006118c888828901611641565b95505060206118d988828901611641565b94505060406118ea8882890161174d565b93505060606118fb8882890161174d565b925050608086013567ffffffffffffffff81111561191c5761191b61246b565b5b611928888289016116f1565b9150509295509295909350565b6000806040838503121561194c5761194b612470565b5b600061195a85828601611641565b925050602061196b858286016116b2565b9150509250929050565b6000806040838503121561198c5761198b612470565b5b600061199a85828601611641565b92505060206119ab8582860161174d565b9150509250929050565b600080604083850312156119cc576119cb612470565b5b600083013567ffffffffffffffff8111156119ea576119e961246b565b5b6119f685828601611656565b925050602083013567ffffffffffffffff811115611a1757611a1661246b565b5b611a2385828601611684565b9150509250929050565b600060208284031215611a4357611a42612470565b5b6000611a51848285016116c7565b91505092915050565b600060208284031215611a7057611a6f612470565b5b6000611a7e848285016116dc565b91505092915050565b600060208284031215611a9d57611a9c612470565b5b600082013567ffffffffffffffff811115611abb57611aba61246b565b5b611ac78482850161171f565b91505092915050565b600060208284031215611ae657611ae5612470565b5b6000611af48482850161174d565b91505092915050565b6000611b098383611d61565b60208301905092915050565b611b1e8161221c565b82525050565b6000611b2f82612165565b611b398185612193565b9350611b4483612155565b8060005b83811015611b75578151611b5c8882611afd565b9750611b6783612186565b925050600181019050611b48565b5085935050505092915050565b611b8b8161222e565b82525050565b6000611b9c82612170565b611ba681856121a4565b9350611bb681856020860161229f565b611bbf81612475565b840191505092915050565b6000611bd58261217b565b611bdf81856121b5565b9350611bef81856020860161229f565b611bf881612475565b840191505092915050565b6000611c106034836121b5565b9150611c1b82612493565b604082019050919050565b6000611c336028836121b5565b9150611c3e826124e2565b604082019050919050565b6000611c56602b836121b5565b9150611c6182612531565b604082019050919050565b6000611c796029836121b5565b9150611c8482612580565b604082019050919050565b6000611c9c6025836121b5565b9150611ca7826125cf565b604082019050919050565b6000611cbf6032836121b5565b9150611cca8261261e565b604082019050919050565b6000611ce2602a836121b5565b9150611ced8261266d565b604082019050919050565b6000611d056029836121b5565b9150611d10826126bc565b604082019050919050565b6000611d286029836121b5565b9150611d338261270b565b604082019050919050565b6000611d4b6028836121b5565b9150611d568261275a565b604082019050919050565b611d6a81612286565b82525050565b611d7981612286565b82525050565b6000602082019050611d946000830184611b15565b92915050565b600060a082019050611daf6000830188611b15565b611dbc6020830187611b15565b8181036040830152611dce8186611b24565b90508181036060830152611de28185611b24565b90508181036080830152611df68184611b91565b90509695505050505050565b600060a082019050611e176000830188611b15565b611e246020830187611b15565b611e316040830186611d70565b611e3e6060830185611d70565b8181036080830152611e508184611b91565b90509695505050505050565b60006020820190508181036000830152611e768184611b24565b905092915050565b60006040820190508181036000830152611e988185611b24565b90508181036020830152611eac8184611b24565b90509392505050565b6000602082019050611eca6000830184611b82565b92915050565b60006020820190508181036000830152611eea8184611bca565b905092915050565b60006020820190508181036000830152611f0b81611c03565b9050919050565b60006020820190508181036000830152611f2b81611c26565b9050919050565b60006020820190508181036000830152611f4b81611c49565b9050919050565b60006020820190508181036000830152611f6b81611c6c565b9050919050565b60006020820190508181036000830152611f8b81611c8f565b9050919050565b60006020820190508181036000830152611fab81611cb2565b9050919050565b60006020820190508181036000830152611fcb81611cd5565b9050919050565b60006020820190508181036000830152611feb81611cf8565b9050919050565b6000602082019050818103600083015261200b81611d1b565b9050919050565b6000602082019050818103600083015261202b81611d3e565b9050919050565b60006020820190506120476000830184611d70565b92915050565b60006040820190506120626000830185611d70565b61206f6020830184611d70565b9392505050565b6000612080612091565b905061208c8282612304565b919050565b6000604051905090565b600067ffffffffffffffff8211156120b6576120b561240b565b5b602082029050602081019050919050565b600067ffffffffffffffff8211156120e2576120e161240b565b5b602082029050602081019050919050565b600067ffffffffffffffff82111561210e5761210d61240b565b5b61211782612475565b9050602081019050919050565b600067ffffffffffffffff82111561213f5761213e61240b565b5b61214882612475565b9050602081019050919050565b6000819050602082019050919050565b600081519050919050565b600081519050919050565b600081519050919050565b6000602082019050919050565b600082825260208201905092915050565b600082825260208201905092915050565b600082825260208201905092915050565b60006121d182612286565b91506121dc83612286565b9250827fffffffffffffffffffffffffffffffffffffffffffffffffffffffffffffffff038211156122115761221061237e565b5b828201905092915050565b600061222782612266565b9050919050565b60008115159050919050565b60007fffffffff0000000000000000000000000000000000000000000000000000000082169050919050565b600073ffffffffffffffffffffffffffffffffffffffff82169050919050565b6000819050919050565b82818337600083830152505050565b60005b838110156122bd5780820151818401526020810190506122a2565b838111156122cc576000848401525b50505050565b600060028204905060018216806122ea57607f821691505b602082108114156122fe576122fd6123ad565b5b50919050565b61230d82612475565b810181811067ffffffffffffffff8211171561232c5761232b61240b565b5b80604052505050565b600061234082612286565b91507fffffffffffffffffffffffffffffffffffffffffffffffffffffffffffffffff8214156123735761237261237e565b5b600182019050919050565b7f4e487b7100000000000000000000000000000000000000000000000000000000600052601160045260246000fd5b7f4e487b7100000000000000000000000000000000000000000000000000000000600052602260045260246000fd5b7f4e487b7100000000000000000000000000000000000000000000000000000000600052603260045260246000fd5b7f4e487b7100000000000000000000000000000000000000000000000000000000600052604160045260246000fd5b600060033d11156124595760046000803e612456600051612486565b90505b90565b600080fd5b600080fd5b600080fd5b600080fd5b600080fd5b6000601f19601f8301169050919050565b60008160e01c9050919050565b7f455243313135353a207472616e7366657220746f206e6f6e204552433131353560008201527f526563656976657220696d706c656d656e746572000000000000000000000000602082015250565b7f455243313135353a204552433131353552656365697665722072656a6563746560008201527f6420746f6b656e73000000000000000000000000000000000000000000000000602082015250565b7f455243313135353a2062616c616e636520717565727920666f7220746865207a60008201527f65726f2061646472657373000000000000000000000000000000000000000000602082015250565b7f455243313135353a2063616c6c6572206973206e6f74206f776e6572206e6f7260008201527f20617070726f7665640000000000000000000000000000000000000000000000602082015250565b7f455243313135353a207472616e7366657220746f20746865207a65726f20616460008201527f6472657373000000000000000000000000000000000000000000000000000000602082015250565b7f455243313135353a207472616e736665722063616c6c6572206973206e6f742060008201527f6f776e6572206e6f7220617070726f7665640000000000000000000000000000602082015250565b7f455243313135353a20696e73756666696369656e742062616c616e636520666f60008201527f72207472616e7366657200000000000000000000000000000000000000000000602082015250565b7f455243313135353a2073657474696e6720617070726f76616c2073746174757360008201527f20666f722073656c660000000000000000000000000000000000000000000000602082015250565b7f455243313135353a206163636f756e747320616e6420696473206c656e67746860008201527f206d69736d617463680000000000000000000000000000000000000000000000602082015250565b7f455243313135353a2069647320616e6420616d6f756e7473206c656e6774682060008201527f6d69736d61746368000000000000000000000000000000000000000000000000602082015250565b600060443d10156127b95761283c565b6127c1612091565b60043d036004823e80513d602482011167ffffffffffffffff821117156127e957505061283c565b808201805167ffffffffffffffff811115612807575050505061283c565b80602083010160043d03850181111561282457505050505061283c565b61283382602001850186612304565b82955050505050505b90565b6128488161221c565b811461285357600080fd5b50565b61285f8161222e565b811461286a57600080fd5b50565b6128768161223a565b811461288157600080fd5b50565b61288d81612286565b811461289857600080fd5b5056fea26469706673582212202f1000389ea7c57b0cf08961b885e66599fddf90accecbfa1ef37626ed56d54c64736f6c63430008060033",
  "linkReferences": {},
  "deployedLinkReferences": {}
}