{
  "_format": "hh-sol-artifact-1",
  "contractName": "ST1155Tokens",
  "sourceName": "contracts/ERC1155.sol",
  "abi": [
    {
      "inputs": [
        {
          "internalType": "string",
          "name": "uri",
          "type": "string"
        }
      ],
      "stateMutability": "nonpayable",
      "type": "constructor"
    },
    {
      "anonymous": false,
      "inputs": [
        {
          "components": [
            {
              "internalType": "uint256",
              "name": "weight",
              "type": "uint256"
            },
            {
              "internalType": "uint256",
              "name": "timeStamp",
              "type": "uint256"
            },
            {
              "internalType": "bool",
              "name": "isBlacklisted",
              "type": "bool"
            },
            {
              "components": [
                {
                  "internalType": "uint256",
                  "name": "to",
                  "type": "uint256"
                },
                {
                  "internalType": "uint256",
                  "name": "weight",
                  "type": "uint256"
                }
              ],
              "internalType": "struct ICopyrightMaster.Edge[]",
              "name": "edge",
              "type": "tuple[]"
            }
          ],
          "indexed": false,
          "internalType": "struct ICopyrightMaster.Token",
          "name": "token",
          "type": "tuple"
        }
      ],
      "name": "AddTokenToGraph",
      "type": "event"
    },
    {
      "anonymous": false,
      "inputs": [
        {
          "indexed": true,
          "internalType": "address",
          "name": "account",
          "type": "address"
        },
        {
          "indexed": true,
          "internalType": "address",
          "name": "operator",
          "type": "address"
        },
        {
          "indexed": false,
          "internalType": "bool",
          "name": "approved",
          "type": "bool"
        }
      ],
      "name": "ApprovalForAll",
      "type": "event"
    },
    {
      "anonymous": false,
      "inputs": [
        {
          "indexed": false,
          "internalType": "uint256",
          "name": "id",
          "type": "uint256"
        },
        {
          "indexed": false,
          "internalType": "uint256",
          "name": "newWeight",
          "type": "uint256"
        }
      ],
      "name": "ChangeTokenWeight",
      "type": "event"
    },
    {
      "anonymous": false,
      "inputs": [
        {
          "indexed": false,
          "internalType": "uint256",
          "name": "id",
          "type": "uint256"
        },
        {
          "indexed": false,
          "internalType": "bool",
          "name": "isBlacklisted",
          "type": "bool"
        }
      ],
      "name": "TokenBlacklisted",
      "type": "event"
    },
    {
      "anonymous": false,
      "inputs": [
        {
          "indexed": true,
          "internalType": "address",
          "name": "operator",
          "type": "address"
        },
        {
          "indexed": true,
          "internalType": "address",
          "name": "from",
          "type": "address"
        },
        {
          "indexed": true,
          "internalType": "address",
          "name": "to",
          "type": "address"
        },
        {
          "indexed": false,
          "internalType": "uint256[]",
          "name": "ids",
          "type": "uint256[]"
        },
        {
          "indexed": false,
          "internalType": "uint256[]",
          "name": "values",
          "type": "uint256[]"
        }
      ],
      "name": "TransferBatch",
      "type": "event"
    },
    {
      "anonymous": false,
      "inputs": [
        {
          "indexed": true,
          "internalType": "address",
          "name": "operator",
          "type": "address"
        },
        {
          "indexed": true,
          "internalType": "address",
          "name": "from",
          "type": "address"
        },
        {
          "indexed": true,
          "internalType": "address",
          "name": "to",
          "type": "address"
        },
        {
          "indexed": false,
          "internalType": "uint256",
          "name": "id",
          "type": "uint256"
        },
        {
          "indexed": false,
          "internalType": "uint256",
          "name": "value",
          "type": "uint256"
        }
      ],
      "name": "TransferSingle",
      "type": "event"
    },
    {
      "anonymous": false,
      "inputs": [
        {
          "indexed": false,
          "internalType": "string",
          "name": "value",
          "type": "string"
        },
        {
          "indexed": true,
          "internalType": "uint256",
          "name": "id",
          "type": "uint256"
        }
      ],
      "name": "URI",
      "type": "event"
    },
    {
      "inputs": [
        {
          "internalType": "address",
          "name": "",
          "type": "address"
        }
      ],
      "name": "_address2Id",
      "outputs": [
        {
          "internalType": "uint256",
          "name": "",
          "type": "uint256"
        }
      ],
      "stateMutability": "view",
      "type": "function"
    },
    {
      "inputs": [
        {
          "internalType": "uint256",
          "name": "",
          "type": "uint256"
        }
      ],
      "name": "_id2Address",
      "outputs": [
        {
          "internalType": "address",
          "name": "",
          "type": "address"
        }
      ],
      "stateMutability": "view",
      "type": "function"
    },
    {
      "inputs": [
        {
          "internalType": "uint256",
          "name": "",
          "type": "uint256"
        }
      ],
      "name": "_idToTokenStruct",
      "outputs": [
        {
          "internalType": "uint256",
          "name": "weight",
          "type": "uint256"
        },
        {
          "internalType": "uint256",
          "name": "timeStamp",
          "type": "uint256"
        },
        {
          "internalType": "bool",
          "name": "isBlacklisted",
          "type": "bool"
        }
      ],
      "stateMutability": "view",
      "type": "function"
    },
    {
      "inputs": [
        {
          "internalType": "uint256",
          "name": "id",
          "type": "uint256"
        },
        {
          "internalType": "uint256",
          "name": "addToSet",
          "type": "uint256"
        }
      ],
      "name": "add",
      "outputs": [],
      "stateMutability": "nonpayable",
      "type": "function"
    },
    {
      "inputs": [
        {
          "internalType": "address",
          "name": "account",
          "type": "address"
        },
        {
          "internalType": "uint256",
          "name": "id",
          "type": "uint256"
        }
      ],
      "name": "balanceOf",
      "outputs": [
        {
          "internalType": "uint256",
          "name": "",
          "type": "uint256"
        }
      ],
      "stateMutability": "view",
      "type": "function"
    },
    {
      "inputs": [
        {
          "internalType": "address[]",
          "name": "accounts",
          "type": "address[]"
        },
        {
          "internalType": "uint256[]",
          "name": "ids",
          "type": "uint256[]"
        }
      ],
      "name": "balanceOfBatch",
      "outputs": [
        {
          "internalType": "uint256[]",
          "name": "",
          "type": "uint256[]"
        }
      ],
      "stateMutability": "view",
      "type": "function"
    },
    {
      "inputs": [
        {
          "internalType": "uint256",
          "name": "id",
          "type": "uint256"
        }
      ],
      "name": "bfsTraversal",
      "outputs": [
        {
          "internalType": "uint256[512]",
          "name": "BFSTokenList",
          "type": "uint256[512]"
        },
        {
          "internalType": "uint256[512]",
          "name": "BFSWeightList",
          "type": "uint256[512]"
        }
      ],
      "stateMutability": "nonpayable",
      "type": "function"
    },
    {
      "inputs": [
        {
          "internalType": "uint256",
          "name": "id",
          "type": "uint256"
        },
        {
          "internalType": "bool",
          "name": "isBlacklisted",
          "type": "bool"
        }
      ],
      "name": "blacklistToken",
      "outputs": [],
      "stateMutability": "nonpayable",
      "type": "function"
    },
    {
      "inputs": [
        {
          "internalType": "uint256",
          "name": "id",
          "type": "uint256"
        },
        {
          "internalType": "uint256",
          "name": "newWeight",
          "type": "uint256"
        }
      ],
      "name": "changeTokenWeight",
      "outputs": [],
      "stateMutability": "nonpayable",
      "type": "function"
    },
    {
      "inputs": [
        {
          "internalType": "uint256",
          "name": "id",
          "type": "uint256"
        }
      ],
      "name": "clearSet",
      "outputs": [],
      "stateMutability": "nonpayable",
      "type": "function"
    },
    {
      "inputs": [],
      "name": "dequeue",
      "outputs": [
        {
          "internalType": "uint256",
          "name": "id",
          "type": "uint256"
        }
      ],
      "stateMutability": "nonpayable",
      "type": "function"
    },
    {
      "inputs": [
        {
          "internalType": "uint256",
          "name": "id",
          "type": "uint256"
        }
      ],
      "name": "enqueue",
      "outputs": [],
      "stateMutability": "nonpayable",
      "type": "function"
    },
    {
      "inputs": [],
      "name": "getAdmin",
      "outputs": [
        {
          "internalType": "address",
          "name": "",
          "type": "address"
        }
      ],
      "stateMutability": "view",
      "type": "function"
    },
    {
      "inputs": [
        {
          "internalType": "uint256",
          "name": "id",
          "type": "uint256"
        }
      ],
      "name": "getEdge",
      "outputs": [
        {
          "components": [
            {
              "internalType": "uint256",
              "name": "to",
              "type": "uint256"
            },
            {
              "internalType": "uint256",
              "name": "weight",
              "type": "uint256"
            }
          ],
          "internalType": "struct ICopyrightMaster.Edge[]",
          "name": "edge",
          "type": "tuple[]"
        }
      ],
      "stateMutability": "view",
      "type": "function"
    },
    {
      "inputs": [],
      "name": "getTokenRegisteredCount",
      "outputs": [
        {
          "internalType": "uint256",
          "name": "",
          "type": "uint256"
        }
      ],
      "stateMutability": "view",
      "type": "function"
    },
    {
      "inputs": [],
      "name": "getTotalEdgeCount",
      "outputs": [
        {
          "internalType": "uint256",
          "name": "",
          "type": "uint256"
        }
      ],
      "stateMutability": "view",
      "type": "function"
    },
    {
      "inputs": [
        {
          "internalType": "uint256[]",
          "name": "parentIds",
          "type": "uint256[]"
        },
        {
          "internalType": "uint256[]",
          "name": "parentWeights",
          "type": "uint256[]"
        },
        {
          "internalType": "uint256",
          "name": "id",
          "type": "uint256"
        }
      ],
      "name": "insertEdges",
      "outputs": [],
      "stateMutability": "nonpayable",
      "type": "function"
    },
    {
      "inputs": [
        {
          "internalType": "uint256[]",
          "name": "parentIds",
          "type": "uint256[]"
        },
        {
          "internalType": "uint256[]",
          "name": "parentWeights",
          "type": "uint256[]"
        },
        {
          "internalType": "uint256",
          "name": "id",
          "type": "uint256"
        },
        {
          "internalType": "uint256",
          "name": "weight",
          "type": "uint256"
        }
      ],
      "name": "insertToken",
      "outputs": [],
      "stateMutability": "nonpayable",
      "type": "function"
    },
    {
      "inputs": [
        {
          "internalType": "address",
          "name": "account",
          "type": "address"
        },
        {
          "internalType": "address",
          "name": "operator",
          "type": "address"
        }
      ],
      "name": "isApprovedForAll",
      "outputs": [
        {
          "internalType": "bool",
          "name": "",
          "type": "bool"
        }
      ],
      "stateMutability": "view",
      "type": "function"
    },
    {
      "inputs": [
        {
          "internalType": "uint256",
          "name": "id",
          "type": "uint256"
        },
        {
          "internalType": "uint256[]",
          "name": "parentTokenIds",
          "type": "uint256[]"
        }
      ],
      "name": "isSubset",
      "outputs": [
        {
          "internalType": "bool",
          "name": "",
          "type": "bool"
        }
      ],
      "stateMutability": "pure",
      "type": "function"
    },
    {
      "inputs": [],
      "name": "makeERC1155ForTesting",
      "outputs": [],
      "stateMutability": "nonpayable",
      "type": "function"
    },
    {
      "inputs": [
        {
          "components": [
            {
              "internalType": "uint256",
              "name": "weight",
              "type": "uint256"
            },
            {
              "internalType": "uint256",
              "name": "timeStamp",
              "type": "uint256"
            },
            {
              "internalType": "bool",
              "name": "isBlacklisted",
              "type": "bool"
            },
            {
              "components": [
                {
                  "internalType": "uint256",
                  "name": "to",
                  "type": "uint256"
                },
                {
                  "internalType": "uint256",
                  "name": "weight",
                  "type": "uint256"
                }
              ],
              "internalType": "struct ICopyrightMaster.Edge[]",
              "name": "edge",
              "type": "tuple[]"
            }
          ],
          "internalType": "struct ICopyrightMaster.Token",
          "name": "token",
          "type": "tuple"
        }
      ],
      "name": "returnId",
      "outputs": [
        {
          "internalType": "uint256",
          "name": "id",
          "type": "uint256"
        }
      ],
      "stateMutability": "pure",
      "type": "function"
    },
    {
      "inputs": [
        {
          "internalType": "uint256",
          "name": "id",
          "type": "uint256"
        }
      ],
      "name": "returnIsBlacklisted",
      "outputs": [
        {
          "internalType": "bool",
          "name": "isBlacklisted",
          "type": "bool"
        }
      ],
      "stateMutability": "view",
      "type": "function"
    },
    {
      "inputs": [
        {
          "internalType": "uint256",
          "name": "id",
          "type": "uint256"
        }
      ],
      "name": "returnTime",
      "outputs": [
        {
          "internalType": "uint256",
          "name": "timeStamp",
          "type": "uint256"
        }
      ],
      "stateMutability": "view",
      "type": "function"
    },
    {
      "inputs": [
        {
          "internalType": "uint256",
          "name": "id",
          "type": "uint256"
        }
      ],
      "name": "returnTokenWeight",
      "outputs": [
        {
          "internalType": "uint256",
          "name": "weight",
          "type": "uint256"
        }
      ],
      "stateMutability": "view",
      "type": "function"
    },
    {
      "inputs": [
        {
          "internalType": "address",
          "name": "from",
          "type": "address"
        },
        {
          "internalType": "address",
          "name": "to",
          "type": "address"
        },
        {
          "internalType": "uint256[]",
          "name": "ids",
          "type": "uint256[]"
        },
        {
          "internalType": "uint256[]",
          "name": "amounts",
          "type": "uint256[]"
        },
        {
          "internalType": "bytes",
          "name": "data",
          "type": "bytes"
        }
      ],
      "name": "safeBatchTransferFrom",
      "outputs": [],
      "stateMutability": "nonpayable",
      "type": "function"
    },
    {
      "inputs": [
        {
          "internalType": "address",
          "name": "from",
          "type": "address"
        },
        {
          "internalType": "address",
          "name": "to",
          "type": "address"
        },
        {
          "internalType": "uint256",
          "name": "id",
          "type": "uint256"
        },
        {
          "internalType": "uint256",
          "name": "amount",
          "type": "uint256"
        },
        {
          "internalType": "bytes",
          "name": "data",
          "type": "bytes"
        }
      ],
      "name": "safeTransferFrom",
      "outputs": [],
      "stateMutability": "nonpayable",
      "type": "function"
    },
    {
      "inputs": [
        {
          "internalType": "address",
          "name": "operator",
          "type": "address"
        },
        {
          "internalType": "bool",
          "name": "approved",
          "type": "bool"
        }
      ],
      "name": "setApprovalForAll",
      "outputs": [],
      "stateMutability": "nonpayable",
      "type": "function"
    },
    {
      "inputs": [
        {
          "internalType": "string",
          "name": "newuri",
          "type": "string"
        }
      ],
      "name": "setURI",
      "outputs": [],
      "stateMutability": "nonpayable",
      "type": "function"
    },
    {
      "inputs": [
        {
          "internalType": "bytes4",
          "name": "interfaceId",
          "type": "bytes4"
        }
      ],
      "name": "supportsInterface",
      "outputs": [
        {
          "internalType": "bool",
          "name": "",
          "type": "bool"
        }
      ],
      "stateMutability": "view",
      "type": "function"
    },
    {
      "inputs": [],
      "name": "tokenCount",
      "outputs": [
        {
          "internalType": "uint256",
          "name": "",
          "type": "uint256"
        }
      ],
      "stateMutability": "view",
      "type": "function"
    },
    {
      "inputs": [
        {
          "internalType": "uint256",
          "name": "id",
          "type": "uint256"
        }
      ],
      "name": "tokenExists",
      "outputs": [
        {
          "internalType": "bool",
          "name": "exists",
          "type": "bool"
        }
      ],
      "stateMutability": "view",
      "type": "function"
    },
    {
      "inputs": [
        {
          "internalType": "uint256",
          "name": "",
          "type": "uint256"
        }
      ],
      "name": "uri",
      "outputs": [
        {
          "internalType": "string",
          "name": "",
          "type": "string"
        }
      ],
      "stateMutability": "view",
      "type": "function"
    }
  ],
  "bytecode": "0x6080604052600160045560006005556001600660006101000a81548160ff0219169083151502179055506000600b556000600c556000600d556000600e60006101000a81548160ff0219169083151502179055503480156200006057600080fd5b5060405162005bd538038062005bd583398181016040528101906200008691906200026c565b8062000098816200012260201b60201c565b5033600860006101000a81548173ffffffffffffffffffffffffffffffffffffffff021916908373ffffffffffffffffffffffffffffffffffffffff16021790555033600860006101000a81548173ffffffffffffffffffffffffffffffffffffffff021916908373ffffffffffffffffffffffffffffffffffffffff1602179055505062000441565b80600290805190602001906200013a9291906200013e565b5050565b8280546200014c9062000352565b90600052602060002090601f016020900481019282620001705760008555620001bc565b82601f106200018b57805160ff1916838001178555620001bc565b82800160010185558215620001bc579182015b82811115620001bb5782518255916020019190600101906200019e565b5b509050620001cb9190620001cf565b5090565b5b80821115620001ea576000816000905550600101620001d0565b5090565b600062000205620001ff84620002e6565b620002bd565b90508281526020810184848401111562000224576200022362000421565b5b620002318482856200031c565b509392505050565b600082601f8301126200025157620002506200041c565b5b815162000263848260208601620001ee565b91505092915050565b6000602082840312156200028557620002846200042b565b5b600082015167ffffffffffffffff811115620002a657620002a562000426565b5b620002b48482850162000239565b91505092915050565b6000620002c9620002dc565b9050620002d7828262000388565b919050565b6000604051905090565b600067ffffffffffffffff821115620003045762000303620003ed565b5b6200030f8262000430565b9050602081019050919050565b60005b838110156200033c5780820151818401526020810190506200031f565b838111156200034c576000848401525b50505050565b600060028204905060018216806200036b57607f821691505b60208210811415620003825762000381620003be565b5b50919050565b620003938262000430565b810181811067ffffffffffffffff82111715620003b557620003b4620003ed565b5b80604052505050565b7f4e487b7100000000000000000000000000000000000000000000000000000000600052602260045260246000fd5b7f4e487b7100000000000000000000000000000000000000000000000000000000600052604160045260246000fd5b600080fd5b600080fd5b600080fd5b600080fd5b6000601f19601f8301169050919050565b61578480620004516000396000f3fe608060405234801561001057600080fd5b50600436106101f95760003560e01c806380d4bb591161011a578063a9138861116100ad578063ce8b4afd1161007c578063ce8b4afd14610647578063d7753a6514610663578063d8be1fd41461066d578063e985e9c514610689578063f242432a146106b9576101f9565b8063a9138861146105ac578063aca382a0146105ca578063be6d291e146105fb578063beae49421461062b576101f9565b8063981ad468116100e9578063981ad468146105125780639a914c44146105425780639f181b5e14610572578063a22cb46514610590576101f9565b806380d4bb5914610476578063866fe41a146104a657806389e0496f146104c2578063957908d1146104f4576101f9565b80631ffc735d116101925780635ee3c588116101615780635ee3c588146103ee5780636cf611271461040c5780636e9960c31461043c578063771602f71461045a576101f9565b80631ffc735d146103565780632eb2c2d6146103725780634e1273f41461038e5780635d6ae91d146103be576101f9565b8063076fcc1f116101ce578063076fcc1f146102aa5780630b8e12fc146102c65780630e89341c146102f657806316b407a814610326576101f9565b8062923f9e146101fe578062fdd58e1461022e57806301ffc9a71461025e57806302fe53051461028e575b600080fd5b610218600480360381019061021391906139c6565b6106d5565b60405161022591906142be565b60405180910390f35b610248600480360381019061024391906136f8565b6106fe565b604051610255919061473b565b60405180910390f35b610278600480360381019061027391906138da565b6107c7565b60405161028591906142be565b60405180910390f35b6102a860048036038101906102a39190613934565b6108a9565b005b6102c460048036038101906102bf9190613a8f565b6108b5565b005b6102e060048036038101906102db91906139c6565b610ad3565b6040516102ed919061473b565b60405180910390f35b610310600480360381019061030b91906139c6565b610af3565b60405161031d91906142d9565b60405180910390f35b610340600480360381019061033b91906139c6565b610b87565b60405161034d919061473b565b60405180910390f35b610370600480360381019061036b91906139c6565b610ba7565b005b61038c60048036038101906103879190613552565b610bf9565b005b6103a860048036038101906103a39190613738565b610de0565b6040516103b59190614265565b60405180910390f35b6103d860048036038101906103d391906139c6565b610ef9565b6040516103e59190614195565b60405180910390f35b6103f6610f2c565b604051610403919061473b565b60405180910390f35b610426600480360381019061042191906139f3565b610f36565b60405161043391906142be565b60405180910390f35b610444610fa8565b6040516104519190614195565b60405180910390f35b610474600480360381019061046f9190613a8f565b610fd2565b005b610490600480360381019061048b91906134e5565b6110cc565b60405161049d919061473b565b60405180910390f35b6104c060048036038101906104bb919061383b565b6110e4565b005b6104dc60048036038101906104d791906139c6565b6116a7565b6040516104eb93929190614756565b60405180910390f35b6104fc6116de565b604051610509919061473b565b60405180910390f35b61052c600480360381019061052791906139c6565b611767565b60405161053991906142be565b60405180910390f35b61055c600480360381019061055791906139c6565b611794565b6040516105699190614218565b60405180910390f35b61057a61181d565b604051610587919061473b565b60405180910390f35b6105aa60048036038101906105a591906136b8565b611827565b005b6105b461183d565b6040516105c1919061473b565b60405180910390f35b6105e460048036038101906105df91906139c6565b611847565b6040516105f292919061423a565b60405180910390f35b6106156004803603810190610610919061397d565b6119f6565b604051610622919061473b565b60405180910390f35b610645600480360381019061064091906137b0565b6119fd565b005b610661600480360381019061065c9190613a4f565b6121ae565b005b61066b6123ad565b005b610687600480360381019061068291906139c6565b6124c6565b005b6106a3600480360381019061069e9190613512565b61253d565b6040516106b091906142be565b60405180910390f35b6106d360048036038101906106ce9190613621565b6125d1565b005b600080600a600084815260200190815260200160002060010154146106f957600190505b919050565b60008073ffffffffffffffffffffffffffffffffffffffff168373ffffffffffffffffffffffffffffffffffffffff16141561076f576040517f08c379a0000000000000000000000000000000000000000000000000000000008152600401610766906143bb565b60405180910390fd5b60008083815260200190815260200160002060008473ffffffffffffffffffffffffffffffffffffffff1673ffffffffffffffffffffffffffffffffffffffff16815260200190815260200160002054905092915050565b60007fd9b67a26000000000000000000000000000000000000000000000000000000007bffffffffffffffffffffffffffffffffffffffffffffffffffffffff1916827bffffffffffffffffffffffffffffffffffffffffffffffffffffffff1916148061089257507f0e89341c000000000000000000000000000000000000000000000000000000007bffffffffffffffffffffffffffffffffffffffffffffffffffffffff1916827bffffffffffffffffffffffffffffffffffffffffffffffffffffffff1916145b806108a257506108a1826127c0565b5b9050919050565b6108b28161282a565b50565b600860009054906101000a900473ffffffffffffffffffffffffffffffffffffffff1673ffffffffffffffffffffffffffffffffffffffff163373ffffffffffffffffffffffffffffffffffffffff1614610945576040517f08c379a000000000000000000000000000000000000000000000000000000000815260040161093c906146db565b60405180910390fd5b6000821415610989576040517f08c379a00000000000000000000000000000000000000000000000000000000081526004016109809061437b565b60405180910390fd5b600115156009600084815260200190815260200160002060009054906101000a900460ff161515146109f0576040517f08c379a00000000000000000000000000000000000000000000000000000000081526004016109e79061435b565b60405180910390fd5b6000600a6000848152602001908152602001600020600101541415610a4a576040517f08c379a0000000000000000000000000000000000000000000000000000000008152600401610a41906145fb565b60405180910390fd5b60001515600a600084815260200190815260200160002060020160009054906101000a900460ff16151514610ab4576040517f08c379a0000000000000000000000000000000000000000000000000000000008152600401610aab9061433b565b60405180910390fd5b80600a6000848152602001908152602001600020600001819055505050565b6000600a6000838152602001908152602001600020600101549050919050565b606060028054610b0290614a7c565b80601f0160208091040260200160405190810160405280929190818152602001828054610b2e90614a7c565b8015610b7b5780601f10610b5057610100808354040283529160200191610b7b565b820191906000526020600020905b815481529060010190602001808311610b5e57829003601f168201915b50505050509050919050565b6000600a6000838152602001908152602001600020600001549050919050565b600160056000828254610bba9190614970565b925050819055506000600660006101000a81548160ff021916908315150217905550806003600060055481526020019081526020016000208190555050565b600073ffffffffffffffffffffffffffffffffffffffff168573ffffffffffffffffffffffffffffffffffffffff161415610c69576040517f08c379a0000000000000000000000000000000000000000000000000000000008152600401610c609061457b565b60405180910390fd5b8151835114610cad576040517f08c379a0000000000000000000000000000000000000000000000000000000008152600401610ca4906146bb565b60405180910390fd5b60005b8351811015610dcb576001151560096000868481518110610cd457610cd3614bb5565b5b6020026020010151815260200190815260200160002060009054906101000a900460ff16151514610d3a576040517f08c379a0000000000000000000000000000000000000000000000000000000008152600401610d319061445b565b60405180910390fd5b600a6000858381518110610d5157610d50614bb5565b5b6020026020010151815260200190815260200160002060020160009054906101000a900460ff1615610db8576040517f08c379a0000000000000000000000000000000000000000000000000000000008152600401610daf9061453b565b60405180910390fd5b8080610dc390614adf565b915050610cb0565b50610dd98585858585612844565b5050505050565b60608151835114610e26576040517f08c379a0000000000000000000000000000000000000000000000000000000008152600401610e1d9061469b565b60405180910390fd5b6000835167ffffffffffffffff811115610e4357610e42614be4565b5b604051908082528060200260200182016040528015610e715781602001602082028036833780820191505090505b50905060005b8451811015610eee57610ebe858281518110610e9657610e95614bb5565b5b6020026020010151858381518110610eb157610eb0614bb5565b5b60200260200101516106fe565b828281518110610ed157610ed0614bb5565b5b60200260200101818152505080610ee790614adf565b9050610e77565b508091505092915050565b60106020528060005260406000206000915054906101000a900473ffffffffffffffffffffffffffffffffffffffff1681565b6000600b54905090565b600080825190506000811415610f50576000915050610fa2565b60005b81811015610f9b5784848281518110610f6f57610f6e614bb5565b5b60200260200101511415610f8857600192505050610fa2565b8080610f9390614adf565b915050610f53565b5060009150505b92915050565b6000600860009054906101000a900473ffffffffffffffffffffffffffffffffffffffff16905090565b60076000838152602001908152602001600020600101600082815260200190815260200160002060009054906101000a900460ff1661108d57600160076000848152602001908152602001600020600101600083815260200190815260200160002060006101000a81548160ff021916908315150217905550600760008381526020019081526020016000206000018190806001815401808255809150506001900390600052602060002001600090919091909150556110c8565b6040517f08c379a00000000000000000000000000000000000000000000000000000000081526004016110bf906144fb565b60405180910390fd5b5050565b600f6020528060005260406000206000915090505481565b600860009054906101000a900473ffffffffffffffffffffffffffffffffffffffff1673ffffffffffffffffffffffffffffffffffffffff163373ffffffffffffffffffffffffffffffffffffffff1614611174576040517f08c379a000000000000000000000000000000000000000000000000000000000815260040161116b906146db565b60405180910390fd5b8160008114156111b9576040517f08c379a00000000000000000000000000000000000000000000000000000000081526004016111b09061437b565b60405180910390fd5b600115156009600083815260200190815260200160002060009054906101000a900460ff16151514611220576040517f08c379a00000000000000000000000000000000000000000000000000000000081526004016112179061435b565b60405180910390fd5b6000600a60008381526020019081526020016000206001015414611279576040517f08c379a00000000000000000000000000000000000000000000000000000000081526004016112709061465b565b60405180910390fd5b83518551146112bd576040517f08c379a00000000000000000000000000000000000000000000000000000000081526004016112b4906143fb565b60405180910390fd5b60005b8551811015611563576112ed848783815181106112e0576112df614bb5565b5b6020026020010151610fd2565b600086828151811061130257611301614bb5565b5b6020026020010151141561134b576040517f08c379a0000000000000000000000000000000000000000000000000000000008152600401611342906146fb565b60405180910390fd5b600115156009600088848151811061136657611365614bb5565b5b6020026020010151815260200190815260200160002060009054906101000a900460ff161515146113cc576040517f08c379a00000000000000000000000000000000000000000000000000000000081526004016113c39061471b565b60405180910390fd5b6000600a60008884815181106113e5576113e4614bb5565b5b60200260200101518152602001908152602001600020600101541415611440576040517f08c379a00000000000000000000000000000000000000000000000000000000081526004016114379061461b565b60405180910390fd5b84818151811061145357611452614bb5565b5b6020026020010151600a600088848151811061147257611471614bb5565b5b6020026020010151815260200190815260200160002060000154146114cc576040517f08c379a00000000000000000000000000000000000000000000000000000000081526004016114c39061459b565b60405180910390fd5b60001515600a60008884815181106114e7576114e6614bb5565b5b6020026020010151815260200190815260200160002060020160009054906101000a900460ff16151514611550576040517f08c379a00000000000000000000000000000000000000000000000000000000081526004016115479061443b565b60405180910390fd5b808061155b90614adf565b9150506112c0565b50600b600081548092919061157790614adf565b919050555081600a60008581526020019081526020016000206000018190555042600a6000858152602001908152602001600020600101819055506000855114156115c1576116a0565b8451600c60008282546115d49190614970565b9250508190555060005b855181101561169e576000604051806040016040528088848151811061160757611606614bb5565b5b6020026020010151815260200187848151811061162757611626614bb5565b5b60200260200101518152509050600a60008681526020019081526020016000206003018190806001815401808255809150506001900390600052602060002090600202016000909190919091506000820151816000015560208201518160010155505050808061169690614adf565b9150506115de565b505b5050505050565b600a6020528060005260406000206000915090508060000154908060010154908060020160009054906101000a900460ff16905083565b600060045460055410156116f157600080fd5b6003600060045481526020019081526020016000205490506005546004541415611731576001600660006101000a81548160ff0219169083151502179055505b6003600060045481526020019081526020016000206000905560016004600082825461175d9190614970565b9250508190555090565b6000600a600083815260200190815260200160002060020160009054906101000a900460ff169050919050565b6060600a6000838152602001908152602001600020600301805480602002602001604051908101604052809291908181526020016000905b82821015611812578382906000526020600020906002020160405180604001604052908160008201548152602001600182015481525050815260200190600101906117cc565b505050509050919050565b6000600b54905090565b6118396118326128e5565b83836128ed565b5050565b6000600c54905090565b61184f613017565b611857613017565b60008061186385610ba7565b60005b600660009054906101000a900460ff166119ee576118826116de565b905061188e8186612a5a565b61190a5780858461020081106118a7576118a6614bb5565b5b60200201818152505082806118bb90614adf565b9350508581141561190957600a600082815260200190815260200160002060000154848361020081106118f1576118f0614bb5565b5b602002018181525050818061190590614adf565b9250505b5b60005b600a6000838152602001908152602001600020600301805490508110156119e857611970600a6000848152602001908152602001600020600301828154811061195957611958614bb5565b5b906000526020600020906002020160000154610ba7565b600a6000838152602001908152602001600020600301818154811061199857611997614bb5565b5b906000526020600020906002020160010154858461020081106119be576119bd614bb5565b5b60200201818152505082806119d290614adf565b93505080806119e090614adf565b91505061190d565b50611866565b505050915091565b6000919050565b600860009054906101000a900473ffffffffffffffffffffffffffffffffffffffff1673ffffffffffffffffffffffffffffffffffffffff163373ffffffffffffffffffffffffffffffffffffffff1614611a8d576040517f08c379a0000000000000000000000000000000000000000000000000000000008152600401611a84906146db565b60405180910390fd5b6000811415611ad1576040517f08c379a0000000000000000000000000000000000000000000000000000000008152600401611ac89061437b565b60405180910390fd5b600115156009600083815260200190815260200160002060009054906101000a900460ff16151514611b38576040517f08c379a0000000000000000000000000000000000000000000000000000000008152600401611b2f9061435b565b60405180910390fd5b6000600a6000838152602001908152602001600020600101541415611b92576040517f08c379a0000000000000000000000000000000000000000000000000000000008152600401611b89906145fb565b60405180910390fd5b60001515600a600083815260200190815260200160002060020160009054906101000a900460ff16151514611bfc576040517f08c379a0000000000000000000000000000000000000000000000000000000008152600401611bf39061433b565b60405180910390fd5b600083511415611c0b576121a9565b60005b8351811015611eb157611c3b82858381518110611c2e57611c2d614bb5565b5b6020026020010151610fd2565b6000848281518110611c5057611c4f614bb5565b5b60200260200101511415611c99576040517f08c379a0000000000000000000000000000000000000000000000000000000008152600401611c90906146fb565b60405180910390fd5b6001151560096000868481518110611cb457611cb3614bb5565b5b6020026020010151815260200190815260200160002060009054906101000a900460ff16151514611d1a576040517f08c379a0000000000000000000000000000000000000000000000000000000008152600401611d119061471b565b60405180910390fd5b6000600a6000868481518110611d3357611d32614bb5565b5b60200260200101518152602001908152602001600020600101541415611d8e576040517f08c379a0000000000000000000000000000000000000000000000000000000008152600401611d859061463b565b60405180910390fd5b828181518110611da157611da0614bb5565b5b6020026020010151600a6000868481518110611dc057611dbf614bb5565b5b602002602001015181526020019081526020016000206000015414611e1a576040517f08c379a0000000000000000000000000000000000000000000000000000000008152600401611e119061459b565b60405180910390fd5b60001515600a6000868481518110611e3557611e34614bb5565b5b6020026020010151815260200190815260200160002060020160009054906101000a900460ff16151514611e9e576040517f08c379a0000000000000000000000000000000000000000000000000000000008152600401611e959061443b565b60405180910390fd5b8080611ea990614adf565b915050611c0e565b508151835114611ef6576040517f08c379a0000000000000000000000000000000000000000000000000000000008152600401611eed906143fb565b60405180910390fd5b6000611f028285610f36565b90508015611f45576040517f08c379a0000000000000000000000000000000000000000000000000000000008152600401611f3c9061439b565b60405180910390fd5b60005b84518110156120c85760005b600a6000858152602001908152602001600020600301805490508110156120b457858281518110611f8857611f87614bb5565b5b6020026020010151600a60008681526020019081526020016000206003018281548110611fb857611fb7614bb5565b5b906000526020600020906002020160000154141561200b576040517f08c379a0000000000000000000000000000000000000000000000000000000008152600401612002906145db565b60405180910390fd5b83600a600088858151811061202357612022614bb5565b5b60200260200101518152602001908152602001600020600301828154811061204e5761204d614bb5565b5b90600052602060002090600202016000015414156120a1576040517f08c379a00000000000000000000000000000000000000000000000000000000081526004016120989061441b565b60405180910390fd5b80806120ac90614adf565b915050611f54565b5080806120c090614adf565b915050611f48565b508351600c60008282546120dc9190614970565b9250508190555060005b84518110156121a6576000604051806040016040528087848151811061210f5761210e614bb5565b5b6020026020010151815260200186848151811061212f5761212e614bb5565b5b60200260200101518152509050600a60008581526020019081526020016000206003018190806001815401808255809150506001900390600052602060002090600202016000909190919091506000820151816000015560208201518160010155505050808061219e90614adf565b9150506120e6565b50505b505050565b600860009054906101000a900473ffffffffffffffffffffffffffffffffffffffff1673ffffffffffffffffffffffffffffffffffffffff163373ffffffffffffffffffffffffffffffffffffffff161461223e576040517f08c379a0000000000000000000000000000000000000000000000000000000008152600401612235906146db565b60405180910390fd5b6000821415612282576040517f08c379a00000000000000000000000000000000000000000000000000000000081526004016122799061437b565b60405180910390fd5b600115156009600084815260200190815260200160002060009054906101000a900460ff161515146122e9576040517f08c379a00000000000000000000000000000000000000000000000000000000081526004016122e09061435b565b60405180910390fd5b6000600a6000848152602001908152602001600020600101541415612343576040517f08c379a000000000000000000000000000000000000000000000000000000000815260040161233a906145fb565b60405180910390fd5b80600a600084815260200190815260200160002060020160006101000a81548160ff02191690831515021790551561237a576123a9565b80600a600084815260200190815260200160002060020160006101000a81548160ff0219169083151502179055505b5050565b600860009054906101000a900473ffffffffffffffffffffffffffffffffffffffff1673ffffffffffffffffffffffffffffffffffffffff163373ffffffffffffffffffffffffffffffffffffffff161461243d576040517f08c379a0000000000000000000000000000000000000000000000000000000008152600401612434906146db565b60405180910390fd5b6001600960006001815260200190815260200160002060006101000a81548160ff0219169083151502179055506001600960006002815260200190815260200160002060006101000a81548160ff0219169083151502179055506001600960006003815260200190815260200160002060006101000a81548160ff021916908315150217905550565b60005b600760008381526020019081526020016000206000018054905081101561253957600760008381526020019081526020016000206000018054806125105761250f614b86565b5b60019003818190600052602060002001600090559055808061253190614adf565b9150506124c9565b5050565b6000600160008473ffffffffffffffffffffffffffffffffffffffff1673ffffffffffffffffffffffffffffffffffffffff16815260200190815260200160002060008373ffffffffffffffffffffffffffffffffffffffff1673ffffffffffffffffffffffffffffffffffffffff16815260200190815260200160002060009054906101000a900460ff16905092915050565b600073ffffffffffffffffffffffffffffffffffffffff168473ffffffffffffffffffffffffffffffffffffffff161415612641576040517f08c379a0000000000000000000000000000000000000000000000000000000008152600401612638906144bb565b60405180910390fd5b600073ffffffffffffffffffffffffffffffffffffffff168573ffffffffffffffffffffffffffffffffffffffff1614156126b1576040517f08c379a00000000000000000000000000000000000000000000000000000000081526004016126a8906144db565b60405180910390fd5b600d548311156126f6576040517f08c379a00000000000000000000000000000000000000000000000000000000081526004016126ed906145bb565b60405180910390fd5b600061270286856106fe565b905080831115612747576040517f08c379a000000000000000000000000000000000000000000000000000000000815260040161273e9061455b565b60405180910390fd5b600a600085815260200190815260200160002060020160009054906101000a900460ff16156127ab576040517f08c379a00000000000000000000000000000000000000000000000000000000081526004016127a2906143db565b60405180910390fd5b6127b886868686866125d1565b505050505050565b60007f01ffc9a7000000000000000000000000000000000000000000000000000000007bffffffffffffffffffffffffffffffffffffffffffffffffffffffff1916827bffffffffffffffffffffffffffffffffffffffffffffffffffffffff1916149050919050565b806002908051906020019061284092919061303b565b5050565b61284c6128e5565b73ffffffffffffffffffffffffffffffffffffffff168573ffffffffffffffffffffffffffffffffffffffff16148061289257506128918561288c6128e5565b61253d565b5b6128d1576040517f08c379a00000000000000000000000000000000000000000000000000000000081526004016128c89061449b565b60405180910390fd5b6128de8585858585612adb565b5050505050565b600033905090565b8173ffffffffffffffffffffffffffffffffffffffff168373ffffffffffffffffffffffffffffffffffffffff16141561295c576040517f08c379a00000000000000000000000000000000000000000000000000000000081526004016129539061467b565b60405180910390fd5b80600160008573ffffffffffffffffffffffffffffffffffffffff1673ffffffffffffffffffffffffffffffffffffffff16815260200190815260200160002060008473ffffffffffffffffffffffffffffffffffffffff1673ffffffffffffffffffffffffffffffffffffffff16815260200190815260200160002060006101000a81548160ff0219169083151502179055508173ffffffffffffffffffffffffffffffffffffffff168373ffffffffffffffffffffffffffffffffffffffff167f17307eab39ab6107e8899845ad3d59bd9653f200f220920489ca2b5937696c3183604051612a4d91906142be565b60405180910390a3505050565b600080600090505b610200811015612acf578383826102008110612a8157612a80614bb5565b5b60200201511415612a96576001915050612ad5565b600083826102008110612aac57612aab614bb5565b5b60200201511415612abc57612acf565b8080612ac790614adf565b915050612a62565b50600090505b92915050565b8151835114612b1f576040517f08c379a0000000000000000000000000000000000000000000000000000000008152600401612b16906146bb565b60405180910390fd5b600073ffffffffffffffffffffffffffffffffffffffff168473ffffffffffffffffffffffffffffffffffffffff161415612b8f576040517f08c379a0000000000000000000000000000000000000000000000000000000008152600401612b869061447b565b60405180910390fd5b6000612b996128e5565b9050612ba9818787878787612dfd565b60005b8451811015612d5a576000858281518110612bca57612bc9614bb5565b5b602002602001015190506000858381518110612be957612be8614bb5565b5b60200260200101519050600080600084815260200190815260200160002060008b73ffffffffffffffffffffffffffffffffffffffff1673ffffffffffffffffffffffffffffffffffffffff16815260200190815260200160002054905081811015612c8a576040517f08c379a0000000000000000000000000000000000000000000000000000000008152600401612c819061451b565b60405180910390fd5b81810360008085815260200190815260200160002060008c73ffffffffffffffffffffffffffffffffffffffff1673ffffffffffffffffffffffffffffffffffffffff168152602001908152602001600020819055508160008085815260200190815260200160002060008b73ffffffffffffffffffffffffffffffffffffffff1673ffffffffffffffffffffffffffffffffffffffff1681526020019081526020016000206000828254612d3f9190614970565b9250508190555050505080612d5390614adf565b9050612bac565b508473ffffffffffffffffffffffffffffffffffffffff168673ffffffffffffffffffffffffffffffffffffffff168273ffffffffffffffffffffffffffffffffffffffff167f4a39dc06d4c0dbc64b70af90fd698a233a518aa5d07e595d983b8c0526c8f7fb8787604051612dd1929190614287565b60405180910390a4612de7818787878787612e05565b612df5818787878787612e0d565b505050505050565b505050505050565b505050505050565b612e2c8473ffffffffffffffffffffffffffffffffffffffff16612ff4565b15612fec578373ffffffffffffffffffffffffffffffffffffffff1663bc197c8187878686866040518663ffffffff1660e01b8152600401612e729594939291906141b0565b602060405180830381600087803b158015612e8c57600080fd5b505af1925050508015612ebd57506040513d601f19601f82011682018060405250810190612eba9190613907565b60015b612f6357612ec9614c13565b806308c379a01415612f265750612ede61565c565b80612ee95750612f28565b806040517f08c379a0000000000000000000000000000000000000000000000000000000008152600401612f1d91906142d9565b60405180910390fd5b505b6040517f08c379a0000000000000000000000000000000000000000000000000000000008152600401612f5a906142fb565b60405180910390fd5b63bc197c8160e01b7bffffffffffffffffffffffffffffffffffffffffffffffffffffffff1916817bffffffffffffffffffffffffffffffffffffffffffffffffffffffff191614612fea576040517f08c379a0000000000000000000000000000000000000000000000000000000008152600401612fe19061431b565b60405180910390fd5b505b505050505050565b6000808273ffffffffffffffffffffffffffffffffffffffff163b119050919050565b60405180614000016040528061020090602082028036833780820191505090505090565b82805461304790614a7c565b90600052602060002090601f01602090048101928261306957600085556130b0565b82601f1061308257805160ff19168380011785556130b0565b828001600101855582156130b0579182015b828111156130af578251825591602001919060010190613094565b5b5090506130bd91906130c1565b5090565b5b808211156130da5760008160009055506001016130c2565b5090565b60006130f16130ec846147b2565b61478d565b9050808382526020820190508285602086028201111561311457613113614c44565b5b60005b85811015613144578161312a88826132b2565b845260208401935060208301925050600181019050613117565b5050509392505050565b600061316161315c846147de565b61478d565b9050808382526020820190508285604086028201111561318457613183614c44565b5b60005b858110156131b4578161319a88826133ec565b845260208401935060408301925050600181019050613187565b5050509392505050565b60006131d16131cc8461480a565b61478d565b905080838252602082019050828560208602820111156131f4576131f3614c44565b5b60005b85811015613224578161320a88826134d0565b8452602084019350602083019250506001810190506131f7565b5050509392505050565b600061324161323c84614836565b61478d565b90508281526020810184848401111561325d5761325c614c49565b5b613268848285614a3a565b509392505050565b600061328361327e84614867565b61478d565b90508281526020810184848401111561329f5761329e614c49565b5b6132aa848285614a3a565b509392505050565b6000813590506132c1816156f2565b92915050565b600082601f8301126132dc576132db614c35565b5b81356132ec8482602086016130de565b91505092915050565b600082601f83011261330a57613309614c35565b5b813561331a84826020860161314e565b91505092915050565b600082601f83011261333857613337614c35565b5b81356133488482602086016131be565b91505092915050565b60008135905061336081615709565b92915050565b60008135905061337581615720565b92915050565b60008151905061338a81615720565b92915050565b600082601f8301126133a5576133a4614c35565b5b81356133b584826020860161322e565b91505092915050565b600082601f8301126133d3576133d2614c35565b5b81356133e3848260208601613270565b91505092915050565b60006040828403121561340257613401614c3a565b5b61340c604061478d565b9050600061341c848285016134d0565b6000830152506020613430848285016134d0565b60208301525092915050565b60006080828403121561345257613451614c3a565b5b61345c608061478d565b9050600061346c848285016134d0565b6000830152506020613480848285016134d0565b602083015250604061349484828501613351565b604083015250606082013567ffffffffffffffff8111156134b8576134b7614c3f565b5b6134c4848285016132f5565b60608301525092915050565b6000813590506134df81615737565b92915050565b6000602082840312156134fb576134fa614c53565b5b6000613509848285016132b2565b91505092915050565b6000806040838503121561352957613528614c53565b5b6000613537858286016132b2565b9250506020613548858286016132b2565b9150509250929050565b600080600080600060a0868803121561356e5761356d614c53565b5b600061357c888289016132b2565b955050602061358d888289016132b2565b945050604086013567ffffffffffffffff8111156135ae576135ad614c4e565b5b6135ba88828901613323565b935050606086013567ffffffffffffffff8111156135db576135da614c4e565b5b6135e788828901613323565b925050608086013567ffffffffffffffff81111561360857613607614c4e565b5b61361488828901613390565b9150509295509295909350565b600080600080600060a0868803121561363d5761363c614c53565b5b600061364b888289016132b2565b955050602061365c888289016132b2565b945050604061366d888289016134d0565b935050606061367e888289016134d0565b925050608086013567ffffffffffffffff81111561369f5761369e614c4e565b5b6136ab88828901613390565b9150509295509295909350565b600080604083850312156136cf576136ce614c53565b5b60006136dd858286016132b2565b92505060206136ee85828601613351565b9150509250929050565b6000806040838503121561370f5761370e614c53565b5b600061371d858286016132b2565b925050602061372e858286016134d0565b9150509250929050565b6000806040838503121561374f5761374e614c53565b5b600083013567ffffffffffffffff81111561376d5761376c614c4e565b5b613779858286016132c7565b925050602083013567ffffffffffffffff81111561379a57613799614c4e565b5b6137a685828601613323565b9150509250929050565b6000806000606084860312156137c9576137c8614c53565b5b600084013567ffffffffffffffff8111156137e7576137e6614c4e565b5b6137f386828701613323565b935050602084013567ffffffffffffffff81111561381457613813614c4e565b5b61382086828701613323565b9250506040613831868287016134d0565b9150509250925092565b6000806000806080858703121561385557613854614c53565b5b600085013567ffffffffffffffff81111561387357613872614c4e565b5b61387f87828801613323565b945050602085013567ffffffffffffffff8111156138a05761389f614c4e565b5b6138ac87828801613323565b93505060406138bd878288016134d0565b92505060606138ce878288016134d0565b91505092959194509250565b6000602082840312156138f0576138ef614c53565b5b60006138fe84828501613366565b91505092915050565b60006020828403121561391d5761391c614c53565b5b600061392b8482850161337b565b91505092915050565b60006020828403121561394a57613949614c53565b5b600082013567ffffffffffffffff81111561396857613967614c4e565b5b613974848285016133be565b91505092915050565b60006020828403121561399357613992614c53565b5b600082013567ffffffffffffffff8111156139b1576139b0614c4e565b5b6139bd8482850161343c565b91505092915050565b6000602082840312156139dc576139db614c53565b5b60006139ea848285016134d0565b91505092915050565b60008060408385031215613a0a57613a09614c53565b5b6000613a18858286016134d0565b925050602083013567ffffffffffffffff811115613a3957613a38614c4e565b5b613a4585828601613323565b9150509250929050565b60008060408385031215613a6657613a65614c53565b5b6000613a74858286016134d0565b9250506020613a8585828601613351565b9150509250929050565b60008060408385031215613aa657613aa5614c53565b5b6000613ab4858286016134d0565b9250506020613ac5858286016134d0565b9150509250929050565b6000613adb8383614148565b60408301905092915050565b6000613af38383614177565b60208301905092915050565b613b08816149c6565b82525050565b6000613b19826148c2565b613b238185614921565b9350613b2e83614898565b8060005b83811015613b5f578151613b468882613acf565b9750613b51836148fa565b925050600181019050613b32565b5085935050505092915050565b613b75816148cd565b613b7f8184614932565b9250613b8a826148a8565b8060005b83811015613bbb578151613ba28782613ae7565b9650613bad83614907565b925050600181019050613b8e565b505050505050565b6000613bce826148d9565b613bd8818561493d565b9350613be3836148b2565b8060005b83811015613c14578151613bfb8882613ae7565b9750613c0683614914565b925050600181019050613be7565b5085935050505092915050565b613c2a816149d8565b82525050565b6000613c3b826148e4565b613c45818561494e565b9350613c55818560208601614a49565b613c5e81614c58565b840191505092915050565b6000613c74826148ef565b613c7e818561495f565b9350613c8e818560208601614a49565b613c9781614c58565b840191505092915050565b6000613caf60348361495f565b9150613cba82614c76565b604082019050919050565b6000613cd260288361495f565b9150613cdd82614cc5565b604082019050919050565b6000613cf560318361495f565b9150613d0082614d14565b604082019050919050565b6000613d18602c8361495f565b9150613d2382614d63565b604082019050919050565b6000613d3b601b8361495f565b9150613d4682614db2565b602082019050919050565b6000613d5e602c8361495f565b9150613d6982614ddb565b604082019050919050565b6000613d81602b8361495f565b9150613d8c82614e2a565b604082019050919050565b6000613da460338361495f565b9150613daf82614e79565b604082019050919050565b6000613dc760378361495f565b9150613dd282614ec8565b604082019050919050565b6000613dea60248361495f565b9150613df582614f17565b604082019050919050565b6000613e0d603a8361495f565b9150613e1882614f66565b604082019050919050565b6000613e3060468361495f565b9150613e3b82614fb5565b606082019050919050565b6000613e5360258361495f565b9150613e5e8261502a565b604082019050919050565b6000613e7660328361495f565b9150613e8182615079565b604082019050919050565b6000613e99601b8361495f565b9150613ea4826150c8565b602082019050919050565b6000613ebc601d8361495f565b9150613ec7826150f1565b602082019050919050565b6000613edf60338361495f565b9150613eea8261511a565b604082019050919050565b6000613f02602a8361495f565b9150613f0d82615169565b604082019050919050565b6000613f25603b8361495f565b9150613f30826151b8565b604082019050919050565b6000613f4860478361495f565b9150613f5382615207565b606082019050919050565b6000613f6b601f8361495f565b9150613f768261527c565b602082019050919050565b6000613f8e60348361495f565b9150613f99826152a5565b604082019050919050565b6000613fb1602a8361495f565b9150613fbc826152f4565b604082019050919050565b6000613fd4603c8361495f565b9150613fdf82615343565b604082019050919050565b6000613ff7601f8361495f565b915061400282615392565b602082019050919050565b600061401a602d8361495f565b9150614025826153bb565b604082019050919050565b600061403d602b8361495f565b91506140488261540a565b604082019050919050565b600061406060248361495f565b915061406b82615459565b604082019050919050565b600061408360298361495f565b915061408e826154a8565b604082019050919050565b60006140a660298361495f565b91506140b1826154f7565b604082019050919050565b60006140c960288361495f565b91506140d482615546565b604082019050919050565b60006140ec60138361495f565b91506140f782615595565b602082019050919050565b600061410f60218361495f565b915061411a826155be565b604082019050919050565b6000614132602f8361495f565b915061413d8261560d565b604082019050919050565b60408201600082015161415e6000850182614177565b5060208201516141716020850182614177565b50505050565b61418081614a30565b82525050565b61418f81614a30565b82525050565b60006020820190506141aa6000830184613aff565b92915050565b600060a0820190506141c56000830188613aff565b6141d26020830187613aff565b81810360408301526141e48186613bc3565b905081810360608301526141f88185613bc3565b9050818103608083015261420c8184613c30565b90509695505050505050565b600060208201905081810360008301526142328184613b0e565b905092915050565b6000618000820190506142506000830185613b6c565b61425e614000830184613b6c565b9392505050565b6000602082019050818103600083015261427f8184613bc3565b905092915050565b600060408201905081810360008301526142a18185613bc3565b905081810360208301526142b58184613bc3565b90509392505050565b60006020820190506142d36000830184613c21565b92915050565b600060208201905081810360008301526142f38184613c69565b905092915050565b6000602082019050818103600083015261431481613ca2565b9050919050565b6000602082019050818103600083015261433481613cc5565b9050919050565b6000602082019050818103600083015261435481613ce8565b9050919050565b6000602082019050818103600083015261437481613d0b565b9050919050565b6000602082019050818103600083015261439481613d2e565b9050919050565b600060208201905081810360008301526143b481613d51565b9050919050565b600060208201905081810360008301526143d481613d74565b9050919050565b600060208201905081810360008301526143f481613d97565b9050919050565b6000602082019050818103600083015261441481613dba565b9050919050565b6000602082019050818103600083015261443481613ddd565b9050919050565b6000602082019050818103600083015261445481613e00565b9050919050565b6000602082019050818103600083015261447481613e23565b9050919050565b6000602082019050818103600083015261449481613e46565b9050919050565b600060208201905081810360008301526144b481613e69565b9050919050565b600060208201905081810360008301526144d481613e8c565b9050919050565b600060208201905081810360008301526144f481613eaf565b9050919050565b6000602082019050818103600083015261451481613ed2565b9050919050565b6000602082019050818103600083015261453481613ef5565b9050919050565b6000602082019050818103600083015261455481613f18565b9050919050565b6000602082019050818103600083015261457481613f3b565b9050919050565b6000602082019050818103600083015261459481613f5e565b9050919050565b600060208201905081810360008301526145b481613f81565b9050919050565b600060208201905081810360008301526145d481613fa4565b9050919050565b600060208201905081810360008301526145f481613fc7565b9050919050565b6000602082019050818103600083015261461481613fea565b9050919050565b600060208201905081810360008301526146348161400d565b9050919050565b6000602082019050818103600083015261465481614030565b9050919050565b6000602082019050818103600083015261467481614053565b9050919050565b6000602082019050818103600083015261469481614076565b9050919050565b600060208201905081810360008301526146b481614099565b9050919050565b600060208201905081810360008301526146d4816140bc565b9050919050565b600060208201905081810360008301526146f4816140df565b9050919050565b6000602082019050818103600083015261471481614102565b9050919050565b6000602082019050818103600083015261473481614125565b9050919050565b60006020820190506147506000830184614186565b92915050565b600060608201905061476b6000830186614186565b6147786020830185614186565b6147856040830184613c21565b949350505050565b60006147976147a8565b90506147a38282614aae565b919050565b6000604051905090565b600067ffffffffffffffff8211156147cd576147cc614be4565b5b602082029050602081019050919050565b600067ffffffffffffffff8211156147f9576147f8614be4565b5b602082029050602081019050919050565b600067ffffffffffffffff82111561482557614824614be4565b5b602082029050602081019050919050565b600067ffffffffffffffff82111561485157614850614be4565b5b61485a82614c58565b9050602081019050919050565b600067ffffffffffffffff82111561488257614881614be4565b5b61488b82614c58565b9050602081019050919050565b6000819050602082019050919050565b6000819050919050565b6000819050602082019050919050565b600081519050919050565b60006102009050919050565b600081519050919050565b600081519050919050565b600081519050919050565b6000602082019050919050565b6000602082019050919050565b6000602082019050919050565b600082825260208201905092915050565b600081905092915050565b600082825260208201905092915050565b600082825260208201905092915050565b600082825260208201905092915050565b600061497b82614a30565b915061498683614a30565b9250827fffffffffffffffffffffffffffffffffffffffffffffffffffffffffffffffff038211156149bb576149ba614b28565b5b828201905092915050565b60006149d182614a10565b9050919050565b60008115159050919050565b60007fffffffff0000000000000000000000000000000000000000000000000000000082169050919050565b600073ffffffffffffffffffffffffffffffffffffffff82169050919050565b6000819050919050565b82818337600083830152505050565b60005b83811015614a67578082015181840152602081019050614a4c565b83811115614a76576000848401525b50505050565b60006002820490506001821680614a9457607f821691505b60208210811415614aa857614aa7614b57565b5b50919050565b614ab782614c58565b810181811067ffffffffffffffff82111715614ad657614ad5614be4565b5b80604052505050565b6000614aea82614a30565b91507fffffffffffffffffffffffffffffffffffffffffffffffffffffffffffffffff821415614b1d57614b1c614b28565b5b600182019050919050565b7f4e487b7100000000000000000000000000000000000000000000000000000000600052601160045260246000fd5b7f4e487b7100000000000000000000000000000000000000000000000000000000600052602260045260246000fd5b7f4e487b7100000000000000000000000000000000000000000000000000000000600052603160045260246000fd5b7f4e487b7100000000000000000000000000000000000000000000000000000000600052603260045260246000fd5b7f4e487b7100000000000000000000000000000000000000000000000000000000600052604160045260246000fd5b600060033d1115614c325760046000803e614c2f600051614c69565b90505b90565b600080fd5b600080fd5b600080fd5b600080fd5b600080fd5b600080fd5b600080fd5b6000601f19601f8301169050919050565b60008160e01c9050919050565b7f455243313135353a207472616e7366657220746f206e6f6e204552433131353560008201527f526563656976657220696d706c656d656e746572000000000000000000000000602082015250565b7f455243313135353a204552433131353552656365697665722072656a6563746560008201527f6420746f6b656e73000000000000000000000000000000000000000000000000602082015250565b7f696420697320626c61636b6c697374656420736f20746869732070726f63657360008201527f732063616e6e6f7420636f6e74696e7565000000000000000000000000000000602082015250565b7f54686520746f6b656e206973206e6f742061207265676973746572656420455260008201527f43203131353520746f6b656e0000000000000000000000000000000000000000602082015250565b7f54686520746f6b656e2049442063616e6e6f74206265207a65726f0000000000600082015250565b7f546f6b656e49442063616e6e6f74206265206120737562736574206f6620706160008201527f72656e74546f6b656e4944730000000000000000000000000000000000000000602082015250565b7f455243313135353a2062616c616e636520717565727920666f7220746865207a60008201527f65726f2061646472657373000000000000000000000000000000000000000000602082015250565b7f54686520746f6b656e20696420747279696e6720746f206265207472616e736660008201527f6572656420697320626c61636b6c697374656400000000000000000000000000602082015250565b7f546865206c656e677468206f6620706172656e742049647320616e642077656960008201527f676874732073686f756c64206265207468652073616d65000000000000000000602082015250565b7f4572726f723a20616e206772617068206c6f6f702077696c6c2062652063726560008201527f6174656400000000000000000000000000000000000000000000000000000000602082015250565b7f4120706172656e7420494420697320626c61636b6c697374656420736f20746860008201527f69732070726f636573732063616e6e6f7420636f6e74696e7565000000000000602082015250565b7f4f6e65206f66207468652049447320747279696e6720746f206265207472616e60008201527f7366657265726564206973206e6f742061207265676973746572656420746f6b60208201527f656e2049642e0000000000000000000000000000000000000000000000000000604082015250565b7f455243313135353a207472616e7366657220746f20746865207a65726f20616460008201527f6472657373000000000000000000000000000000000000000000000000000000602082015250565b7f455243313135353a207472616e736665722063616c6c6572206973206e6f742060008201527f6f776e6572206e6f7220617070726f7665640000000000000000000000000000602082015250565b7f43616e6e6f742073656e6420746f207a65726f20616464726573730000000000600082015250565b7f43616e6e6f742073656e642066726f6d207a65726f2061646472657373000000600082015250565b7f412076616c756520796f752061726520696e70757474696e6720696e6469636160008201527f746573206120627265616b206f66207365742e00000000000000000000000000602082015250565b7f455243313135353a20696e73756666696369656e742062616c616e636520666f60008201527f72207472616e7366657200000000000000000000000000000000000000000000602082015250565b7f4f6e65206f662074686520746f6b656e2069647320747279696e6720746f206260008201527f65207472616e73666572656420697320626c61636b6c69737465640000000000602082015250565b7f54686520616d6f756e74206265696e67207472616e736665726572656420697360008201527f2067726561746572207468616e2074686520616d6f756e7420696e206369726360208201527f756c6174696f6e00000000000000000000000000000000000000000000000000604082015250565b7f66726f6d2063616e6e6f7420626520746865207a65726f206164647265737300600082015250565b7f4120706172656e7420696420646f6573206e6f7420636f6f7265736f6e64207460008201527f6f2074686520636f727265637420776569676874000000000000000000000000602082015250565b7f546865204944206265696e672073656e7420686173206e6f742079657420626560008201527f656e206372656174656400000000000000000000000000000000000000000000602082015250565b7f4572726f723a204564676520636f6e6e656374696f6e20796f7520617265207460008201527f7279696e6720746f2061646420616c6c72656164792065786973747300000000602082015250565b7f494420686173206e6f74206265656e20616464656420746f2067726170682e00600082015250565b7f4120706172656e7420746f6b656e20494420686173206e6f74206265656e206160008201527f6464656420746f20677261706800000000000000000000000000000000000000602082015250565b7f706172656e7420746f6b656e20494420686173206e6f74206265656e2061646460008201527f656420746f206772617068000000000000000000000000000000000000000000602082015250565b7f49442068617320616c6c7265616479206265656e20616464656420746f20677260008201527f6170682e00000000000000000000000000000000000000000000000000000000602082015250565b7f455243313135353a2073657474696e6720617070726f76616c2073746174757360008201527f20666f722073656c660000000000000000000000000000000000000000000000602082015250565b7f455243313135353a206163636f756e747320616e6420696473206c656e67746860008201527f206d69736d617463680000000000000000000000000000000000000000000000602082015250565b7f455243313135353a2069647320616e6420616d6f756e7473206c656e6774682060008201527f6d69736d61746368000000000000000000000000000000000000000000000000602082015250565b7f55736572206d7573742062652061646d696e2e00000000000000000000000000600082015250565b7f54686520746f6b656e204944206f66206120706172656e74206973207a65726f60008201527f2e00000000000000000000000000000000000000000000000000000000000000602082015250565b7f4120706172656e7420746f6b656e206973206e6f74206120726567697374656460008201527f20455243203131353520746f6b656e0000000000000000000000000000000000602082015250565b600060443d101561566c576156ef565b6156746147a8565b60043d036004823e80513d602482011167ffffffffffffffff8211171561569c5750506156ef565b808201805167ffffffffffffffff8111156156ba57505050506156ef565b80602083010160043d0385018111156156d75750505050506156ef565b6156e682602001850186614aae565b82955050505050505b90565b6156fb816149c6565b811461570657600080fd5b50565b615712816149d8565b811461571d57600080fd5b50565b615729816149e4565b811461573457600080fd5b50565b61574081614a30565b811461574b57600080fd5b5056fea26469706673582212209cb47a58ea197102330899d89d897f115c3d592269c3c615d22e6ecb2436f5cf64736f6c63430008060033",
  "linkReferences": {},
  "deployedLinkReferences": {}
}