{
  "_format": "hh-sol-artifact-1",
  "contractName": "ST1155Tokens",
  "sourceName": "contracts/ERC1155.sol",
  "abi": [
    {
      "inputs": [
        {
          "internalType": "string",
          "name": "uri",
          "type": "string"
        }
      ],
      "stateMutability": "nonpayable",
      "type": "constructor"
    },
    {
      "anonymous": false,
      "inputs": [
        {
          "components": [
            {
              "internalType": "uint256",
              "name": "weight",
              "type": "uint256"
            },
            {
              "internalType": "uint256",
              "name": "timeStamp",
              "type": "uint256"
            },
            {
              "internalType": "bool",
              "name": "isBlacklisted",
              "type": "bool"
            },
            {
              "components": [
                {
                  "internalType": "uint256",
                  "name": "to",
                  "type": "uint256"
                },
                {
                  "internalType": "uint256",
                  "name": "weight",
                  "type": "uint256"
                }
              ],
              "internalType": "struct ICopyrightMaster.Edge[]",
              "name": "edge",
              "type": "tuple[]"
            },
            {
              "internalType": "uint256",
              "name": "numberOfTokensBehind",
              "type": "uint256"
            }
          ],
          "indexed": false,
          "internalType": "struct ICopyrightMaster.Token",
          "name": "token",
          "type": "tuple"
        }
      ],
      "name": "AddTokenToGraph",
      "type": "event"
    },
    {
      "anonymous": false,
      "inputs": [
        {
          "indexed": true,
          "internalType": "address",
          "name": "account",
          "type": "address"
        },
        {
          "indexed": true,
          "internalType": "address",
          "name": "operator",
          "type": "address"
        },
        {
          "indexed": false,
          "internalType": "bool",
          "name": "approved",
          "type": "bool"
        }
      ],
      "name": "ApprovalForAll",
      "type": "event"
    },
    {
      "anonymous": false,
      "inputs": [
        {
          "indexed": false,
          "internalType": "uint256",
          "name": "id",
          "type": "uint256"
        },
        {
          "indexed": false,
          "internalType": "uint256",
          "name": "newWeight",
          "type": "uint256"
        }
      ],
      "name": "ChangeTokenWeight",
      "type": "event"
    },
    {
      "anonymous": false,
      "inputs": [
        {
          "indexed": false,
          "internalType": "uint256",
          "name": "id",
          "type": "uint256"
        },
        {
          "indexed": false,
          "internalType": "bool",
          "name": "isBlacklisted",
          "type": "bool"
        }
      ],
      "name": "TokenBlacklisted",
      "type": "event"
    },
    {
      "anonymous": false,
      "inputs": [
        {
          "indexed": true,
          "internalType": "address",
          "name": "operator",
          "type": "address"
        },
        {
          "indexed": true,
          "internalType": "address",
          "name": "from",
          "type": "address"
        },
        {
          "indexed": true,
          "internalType": "address",
          "name": "to",
          "type": "address"
        },
        {
          "indexed": false,
          "internalType": "uint256[]",
          "name": "ids",
          "type": "uint256[]"
        },
        {
          "indexed": false,
          "internalType": "uint256[]",
          "name": "values",
          "type": "uint256[]"
        }
      ],
      "name": "TransferBatch",
      "type": "event"
    },
    {
      "anonymous": false,
      "inputs": [
        {
          "indexed": true,
          "internalType": "address",
          "name": "operator",
          "type": "address"
        },
        {
          "indexed": true,
          "internalType": "address",
          "name": "from",
          "type": "address"
        },
        {
          "indexed": true,
          "internalType": "address",
          "name": "to",
          "type": "address"
        },
        {
          "indexed": false,
          "internalType": "uint256",
          "name": "id",
          "type": "uint256"
        },
        {
          "indexed": false,
          "internalType": "uint256",
          "name": "value",
          "type": "uint256"
        }
      ],
      "name": "TransferSingle",
      "type": "event"
    },
    {
      "anonymous": false,
      "inputs": [
        {
          "indexed": false,
          "internalType": "string",
          "name": "value",
          "type": "string"
        },
        {
          "indexed": true,
          "internalType": "uint256",
          "name": "id",
          "type": "uint256"
        }
      ],
      "name": "URI",
      "type": "event"
    },
    {
      "inputs": [
        {
          "internalType": "address",
          "name": "",
          "type": "address"
        }
      ],
      "name": "_address2Id",
      "outputs": [
        {
          "internalType": "uint256",
          "name": "",
          "type": "uint256"
        }
      ],
      "stateMutability": "view",
      "type": "function"
    },
    {
      "inputs": [
        {
          "internalType": "uint256",
          "name": "",
          "type": "uint256"
        }
      ],
      "name": "_id2Address",
      "outputs": [
        {
          "internalType": "address",
          "name": "",
          "type": "address"
        }
      ],
      "stateMutability": "view",
      "type": "function"
    },
    {
      "inputs": [
        {
          "internalType": "uint256",
          "name": "",
          "type": "uint256"
        }
      ],
      "name": "_idToTokenStruct",
      "outputs": [
        {
          "internalType": "uint256",
          "name": "weight",
          "type": "uint256"
        },
        {
          "internalType": "uint256",
          "name": "timeStamp",
          "type": "uint256"
        },
        {
          "internalType": "bool",
          "name": "isBlacklisted",
          "type": "bool"
        },
        {
          "internalType": "uint256",
          "name": "numberOfTokensBehind",
          "type": "uint256"
        }
      ],
      "stateMutability": "view",
      "type": "function"
    },
    {
      "inputs": [
        {
          "internalType": "uint256",
          "name": "id",
          "type": "uint256"
        },
        {
          "internalType": "uint256",
          "name": "addToSet",
          "type": "uint256"
        }
      ],
      "name": "add",
      "outputs": [],
      "stateMutability": "nonpayable",
      "type": "function"
    },
    {
      "inputs": [
        {
          "internalType": "address",
          "name": "account",
          "type": "address"
        },
        {
          "internalType": "uint256",
          "name": "id",
          "type": "uint256"
        }
      ],
      "name": "balanceOf",
      "outputs": [
        {
          "internalType": "uint256",
          "name": "",
          "type": "uint256"
        }
      ],
      "stateMutability": "view",
      "type": "function"
    },
    {
      "inputs": [
        {
          "internalType": "address[]",
          "name": "accounts",
          "type": "address[]"
        },
        {
          "internalType": "uint256[]",
          "name": "ids",
          "type": "uint256[]"
        }
      ],
      "name": "balanceOfBatch",
      "outputs": [
        {
          "internalType": "uint256[]",
          "name": "",
          "type": "uint256[]"
        }
      ],
      "stateMutability": "view",
      "type": "function"
    },
    {
      "inputs": [
        {
          "internalType": "uint256",
          "name": "id",
          "type": "uint256"
        }
      ],
      "name": "bfsTraversal",
      "outputs": [
        {
          "internalType": "uint256[]",
          "name": "",
          "type": "uint256[]"
        },
        {
          "internalType": "uint256[]",
          "name": "",
          "type": "uint256[]"
        }
      ],
      "stateMutability": "nonpayable",
      "type": "function"
    },
    {
      "inputs": [
        {
          "internalType": "uint256",
          "name": "id",
          "type": "uint256"
        },
        {
          "internalType": "bool",
          "name": "isBlacklisted",
          "type": "bool"
        }
      ],
      "name": "blacklistToken",
      "outputs": [],
      "stateMutability": "nonpayable",
      "type": "function"
    },
    {
      "inputs": [
        {
          "internalType": "uint256",
          "name": "id",
          "type": "uint256"
        },
        {
          "internalType": "uint256",
          "name": "newWeight",
          "type": "uint256"
        }
      ],
      "name": "changeTokenWeight",
      "outputs": [],
      "stateMutability": "nonpayable",
      "type": "function"
    },
    {
      "inputs": [
        {
          "internalType": "uint256",
          "name": "id",
          "type": "uint256"
        }
      ],
      "name": "clearSet",
      "outputs": [],
      "stateMutability": "nonpayable",
      "type": "function"
    },
    {
      "inputs": [],
      "name": "dequeue",
      "outputs": [
        {
          "internalType": "uint256",
          "name": "id",
          "type": "uint256"
        }
      ],
      "stateMutability": "nonpayable",
      "type": "function"
    },
    {
      "inputs": [
        {
          "internalType": "uint256",
          "name": "id",
          "type": "uint256"
        }
      ],
      "name": "enqueue",
      "outputs": [],
      "stateMutability": "nonpayable",
      "type": "function"
    },
    {
      "inputs": [],
      "name": "getAdmin",
      "outputs": [
        {
          "internalType": "address",
          "name": "",
          "type": "address"
        }
      ],
      "stateMutability": "view",
      "type": "function"
    },
    {
      "inputs": [
        {
          "internalType": "uint256",
          "name": "id",
          "type": "uint256"
        }
      ],
      "name": "getEdge",
      "outputs": [
        {
          "components": [
            {
              "internalType": "uint256",
              "name": "to",
              "type": "uint256"
            },
            {
              "internalType": "uint256",
              "name": "weight",
              "type": "uint256"
            }
          ],
          "internalType": "struct ICopyrightMaster.Edge[]",
          "name": "edge",
          "type": "tuple[]"
        }
      ],
      "stateMutability": "view",
      "type": "function"
    },
    {
      "inputs": [],
      "name": "getTokenRegisteredCount",
      "outputs": [
        {
          "internalType": "uint256",
          "name": "",
          "type": "uint256"
        }
      ],
      "stateMutability": "view",
      "type": "function"
    },
    {
      "inputs": [],
      "name": "getTotalEdgeCount",
      "outputs": [
        {
          "internalType": "uint256",
          "name": "",
          "type": "uint256"
        }
      ],
      "stateMutability": "view",
      "type": "function"
    },
    {
      "inputs": [
        {
          "internalType": "uint256[]",
          "name": "parentIds",
          "type": "uint256[]"
        },
        {
          "internalType": "uint256[]",
          "name": "parentWeights",
          "type": "uint256[]"
        },
        {
          "internalType": "uint256",
          "name": "id",
          "type": "uint256"
        }
      ],
      "name": "insertEdges",
      "outputs": [],
      "stateMutability": "nonpayable",
      "type": "function"
    },
    {
      "inputs": [
        {
          "internalType": "uint256[]",
          "name": "parentIds",
          "type": "uint256[]"
        },
        {
          "internalType": "uint256[]",
          "name": "parentWeights",
          "type": "uint256[]"
        },
        {
          "internalType": "uint256",
          "name": "id",
          "type": "uint256"
        },
        {
          "internalType": "uint256",
          "name": "weight",
          "type": "uint256"
        }
      ],
      "name": "insertToken",
      "outputs": [],
      "stateMutability": "nonpayable",
      "type": "function"
    },
    {
      "inputs": [
        {
          "internalType": "address",
          "name": "account",
          "type": "address"
        },
        {
          "internalType": "address",
          "name": "operator",
          "type": "address"
        }
      ],
      "name": "isApprovedForAll",
      "outputs": [
        {
          "internalType": "bool",
          "name": "",
          "type": "bool"
        }
      ],
      "stateMutability": "view",
      "type": "function"
    },
    {
      "inputs": [
        {
          "internalType": "uint256",
          "name": "id",
          "type": "uint256"
        },
        {
          "internalType": "uint256[]",
          "name": "parentTokenIds",
          "type": "uint256[]"
        }
      ],
      "name": "isSubset",
      "outputs": [
        {
          "internalType": "bool",
          "name": "",
          "type": "bool"
        },
        {
          "internalType": "uint256",
          "name": "",
          "type": "uint256"
        }
      ],
      "stateMutability": "pure",
      "type": "function"
    },
    {
      "inputs": [],
      "name": "makeERC1155ForTesting",
      "outputs": [],
      "stateMutability": "nonpayable",
      "type": "function"
    },
    {
      "inputs": [
        {
          "components": [
            {
              "internalType": "uint256",
              "name": "weight",
              "type": "uint256"
            },
            {
              "internalType": "uint256",
              "name": "timeStamp",
              "type": "uint256"
            },
            {
              "internalType": "bool",
              "name": "isBlacklisted",
              "type": "bool"
            },
            {
              "components": [
                {
                  "internalType": "uint256",
                  "name": "to",
                  "type": "uint256"
                },
                {
                  "internalType": "uint256",
                  "name": "weight",
                  "type": "uint256"
                }
              ],
              "internalType": "struct ICopyrightMaster.Edge[]",
              "name": "edge",
              "type": "tuple[]"
            },
            {
              "internalType": "uint256",
              "name": "numberOfTokensBehind",
              "type": "uint256"
            }
          ],
          "internalType": "struct ICopyrightMaster.Token",
          "name": "token",
          "type": "tuple"
        }
      ],
      "name": "returnId",
      "outputs": [
        {
          "internalType": "uint256",
          "name": "id",
          "type": "uint256"
        }
      ],
      "stateMutability": "pure",
      "type": "function"
    },
    {
      "inputs": [
        {
          "internalType": "uint256",
          "name": "id",
          "type": "uint256"
        }
      ],
      "name": "returnIsBlacklisted",
      "outputs": [
        {
          "internalType": "bool",
          "name": "isBlacklisted",
          "type": "bool"
        }
      ],
      "stateMutability": "view",
      "type": "function"
    },
    {
      "inputs": [
        {
          "internalType": "uint256",
          "name": "id",
          "type": "uint256"
        }
      ],
      "name": "returnTime",
      "outputs": [
        {
          "internalType": "uint256",
          "name": "timeStamp",
          "type": "uint256"
        }
      ],
      "stateMutability": "view",
      "type": "function"
    },
    {
      "inputs": [
        {
          "internalType": "uint256",
          "name": "id",
          "type": "uint256"
        }
      ],
      "name": "returnTokenWeight",
      "outputs": [
        {
          "internalType": "uint256",
          "name": "weight",
          "type": "uint256"
        }
      ],
      "stateMutability": "view",
      "type": "function"
    },
    {
      "inputs": [
        {
          "internalType": "address",
          "name": "from",
          "type": "address"
        },
        {
          "internalType": "address",
          "name": "to",
          "type": "address"
        },
        {
          "internalType": "uint256[]",
          "name": "ids",
          "type": "uint256[]"
        },
        {
          "internalType": "uint256[]",
          "name": "amounts",
          "type": "uint256[]"
        },
        {
          "internalType": "bytes",
          "name": "data",
          "type": "bytes"
        }
      ],
      "name": "safeBatchTransferFrom",
      "outputs": [],
      "stateMutability": "nonpayable",
      "type": "function"
    },
    {
      "inputs": [
        {
          "internalType": "address",
          "name": "from",
          "type": "address"
        },
        {
          "internalType": "address",
          "name": "to",
          "type": "address"
        },
        {
          "internalType": "uint256",
          "name": "id",
          "type": "uint256"
        },
        {
          "internalType": "uint256",
          "name": "amount",
          "type": "uint256"
        },
        {
          "internalType": "bytes",
          "name": "data",
          "type": "bytes"
        }
      ],
      "name": "safeTransferFrom",
      "outputs": [],
      "stateMutability": "nonpayable",
      "type": "function"
    },
    {
      "inputs": [
        {
          "internalType": "address",
          "name": "operator",
          "type": "address"
        },
        {
          "internalType": "bool",
          "name": "approved",
          "type": "bool"
        }
      ],
      "name": "setApprovalForAll",
      "outputs": [],
      "stateMutability": "nonpayable",
      "type": "function"
    },
    {
      "inputs": [
        {
          "internalType": "string",
          "name": "newuri",
          "type": "string"
        }
      ],
      "name": "setURI",
      "outputs": [],
      "stateMutability": "nonpayable",
      "type": "function"
    },
    {
      "inputs": [
        {
          "internalType": "bytes4",
          "name": "interfaceId",
          "type": "bytes4"
        }
      ],
      "name": "supportsInterface",
      "outputs": [
        {
          "internalType": "bool",
          "name": "",
          "type": "bool"
        }
      ],
      "stateMutability": "view",
      "type": "function"
    },
    {
      "inputs": [],
      "name": "tokenCount",
      "outputs": [
        {
          "internalType": "uint256",
          "name": "",
          "type": "uint256"
        }
      ],
      "stateMutability": "view",
      "type": "function"
    },
    {
      "inputs": [
        {
          "internalType": "uint256",
          "name": "id",
          "type": "uint256"
        }
      ],
      "name": "tokenExists",
      "outputs": [
        {
          "internalType": "bool",
          "name": "exists",
          "type": "bool"
        }
      ],
      "stateMutability": "view",
      "type": "function"
    },
    {
      "inputs": [
        {
          "internalType": "uint256",
          "name": "",
          "type": "uint256"
        }
      ],
      "name": "uri",
      "outputs": [
        {
          "internalType": "string",
          "name": "",
          "type": "string"
        }
      ],
      "stateMutability": "view",
      "type": "function"
    }
  ],
  "bytecode": "0x6080604052600160045560006005556001600660006101000a81548160ff0219169083151502179055506000600b556000600c556000600d556000600e60006101000a81548160ff0219169083151502179055503480156200006057600080fd5b50604051620062e8380380620062e883398181016040528101906200008691906200026c565b8062000098816200012260201b60201c565b5033600860006101000a81548173ffffffffffffffffffffffffffffffffffffffff021916908373ffffffffffffffffffffffffffffffffffffffff16021790555033600860006101000a81548173ffffffffffffffffffffffffffffffffffffffff021916908373ffffffffffffffffffffffffffffffffffffffff1602179055505062000441565b80600290805190602001906200013a9291906200013e565b5050565b8280546200014c9062000352565b90600052602060002090601f016020900481019282620001705760008555620001bc565b82601f106200018b57805160ff1916838001178555620001bc565b82800160010185558215620001bc579182015b82811115620001bb5782518255916020019190600101906200019e565b5b509050620001cb9190620001cf565b5090565b5b80821115620001ea576000816000905550600101620001d0565b5090565b600062000205620001ff84620002e6565b620002bd565b90508281526020810184848401111562000224576200022362000421565b5b620002318482856200031c565b509392505050565b600082601f8301126200025157620002506200041c565b5b815162000263848260208601620001ee565b91505092915050565b6000602082840312156200028557620002846200042b565b5b600082015167ffffffffffffffff811115620002a657620002a562000426565b5b620002b48482850162000239565b91505092915050565b6000620002c9620002dc565b9050620002d7828262000388565b919050565b6000604051905090565b600067ffffffffffffffff821115620003045762000303620003ed565b5b6200030f8262000430565b9050602081019050919050565b60005b838110156200033c5780820151818401526020810190506200031f565b838111156200034c576000848401525b50505050565b600060028204905060018216806200036b57607f821691505b60208210811415620003825762000381620003be565b5b50919050565b620003938262000430565b810181811067ffffffffffffffff82111715620003b557620003b4620003ed565b5b80604052505050565b7f4e487b7100000000000000000000000000000000000000000000000000000000600052602260045260246000fd5b7f4e487b7100000000000000000000000000000000000000000000000000000000600052604160045260246000fd5b600080fd5b600080fd5b600080fd5b600080fd5b6000601f19601f8301169050919050565b615e9780620004516000396000f3fe608060405234801561001057600080fd5b50600436106101f95760003560e01c8063771602f71161011a578063a22cb465116100ad578063ce8b4afd1161007c578063ce8b4afd14610649578063d7753a6514610665578063d8be1fd41461066f578063e985e9c51461068b578063f242432a146106bb576101f9565b8063a22cb465146105c2578063a9138861146105de578063aca382a0146105fc578063beae49421461062d576101f9565b8063957908d1116100e9578063957908d114610526578063981ad468146105445780639a914c44146105745780639f181b5e146105a4576101f9565b8063771602f71461048b57806380d4bb59146104a7578063866fe41a146104d757806389e0496f146104f3576101f9565b806316b407a8116101925780635d6ae91d116101615780635d6ae91d146103ee5780635ee3c5881461041e5780636cf611271461043c5780636e9960c31461046d576101f9565b806316b407a8146103565780631ffc735d146103865780632eb2c2d6146103a25780634e1273f4146103be576101f9565b8063076fcc1f116101ce578063076fcc1f146102aa5780630ab71fb1146102c65780630b8e12fc146102f65780630e89341c14610326576101f9565b8062923f9e146101fe578062fdd58e1461022e57806301ffc9a71461025e57806302fe53051461028e575b600080fd5b61021860048036038101906102139190614062565b6106d7565b60405161022591906148fb565b60405180910390f35b61024860048036038101906102439190613d94565b610700565b6040516102559190614dc1565b60405180910390f35b61027860048036038101906102739190613f76565b6107c9565b60405161028591906148fb565b60405180910390f35b6102a860048036038101906102a39190613fd0565b6108ab565b005b6102c460048036038101906102bf919061412b565b6108b7565b005b6102e060048036038101906102db9190614019565b610acf565b6040516102ed9190614dc1565b60405180910390f35b610310600480360381019061030b9190614062565b610ad6565b60405161031d9190614dc1565b60405180910390f35b610340600480360381019061033b9190614062565b610af6565b60405161034d919061493f565b60405180910390f35b610370600480360381019061036b9190614062565b610b8a565b60405161037d9190614dc1565b60405180910390f35b6103a0600480360381019061039b9190614062565b610baa565b005b6103bc60048036038101906103b79190613bee565b610bfc565b005b6103d860048036038101906103d39190613dd4565b610de3565b6040516103e591906148a2565b60405180910390f35b61040860048036038101906104039190614062565b610efc565b60405161041591906147fd565b60405180910390f35b610426610f2f565b6040516104339190614dc1565b60405180910390f35b6104566004803603810190610451919061408f565b610f39565b604051610464929190614916565b60405180910390f35b610475610fdf565b60405161048291906147fd565b60405180910390f35b6104a560048036038101906104a0919061412b565b611009565b005b6104c160048036038101906104bc9190613b81565b611103565b6040516104ce9190614dc1565b60405180910390f35b6104f160048036038101906104ec9190613ed7565b61111b565b005b61050d60048036038101906105089190614062565b611783565b60405161051d9493929190614ddc565b60405180910390f35b61052e6117c0565b60405161053b9190614dc1565b60405180910390f35b61055e60048036038101906105599190614062565b611849565b60405161056b91906148fb565b60405180910390f35b61058e60048036038101906105899190614062565b611876565b60405161059b9190614880565b60405180910390f35b6105ac6118ff565b6040516105b99190614dc1565b60405180910390f35b6105dc60048036038101906105d79190613d54565b611909565b005b6105e661191f565b6040516105f39190614dc1565b60405180910390f35b61061660048036038101906106119190614062565b611929565b6040516106249291906148c4565b60405180910390f35b61064760048036038101906106429190613e4c565b6120a0565b005b610663600480360381019061065e91906140eb565b6128db565b005b61066d612ada565b005b61068960048036038101906106849190614062565b612bf3565b005b6106a560048036038101906106a09190613bae565b612c6a565b6040516106b291906148fb565b60405180910390f35b6106d560048036038101906106d09190613cbd565b612cfe565b005b600080600a600084815260200190815260200160002060010154146106fb57600190505b919050565b60008073ffffffffffffffffffffffffffffffffffffffff168373ffffffffffffffffffffffffffffffffffffffff161415610771576040517f08c379a000000000000000000000000000000000000000000000000000000000815260040161076890614a21565b60405180910390fd5b60008083815260200190815260200160002060008473ffffffffffffffffffffffffffffffffffffffff1673ffffffffffffffffffffffffffffffffffffffff16815260200190815260200160002054905092915050565b60007fd9b67a26000000000000000000000000000000000000000000000000000000007bffffffffffffffffffffffffffffffffffffffffffffffffffffffff1916827bffffffffffffffffffffffffffffffffffffffffffffffffffffffff1916148061089457507f0e89341c000000000000000000000000000000000000000000000000000000007bffffffffffffffffffffffffffffffffffffffffffffffffffffffff1916827bffffffffffffffffffffffffffffffffffffffffffffffffffffffff1916145b806108a457506108a382612eed565b5b9050919050565b6108b481612f57565b50565b600860009054906101000a900473ffffffffffffffffffffffffffffffffffffffff1673ffffffffffffffffffffffffffffffffffffffff163373ffffffffffffffffffffffffffffffffffffffff1614610947576040517f08c379a000000000000000000000000000000000000000000000000000000000815260040161093e90614d61565b60405180910390fd5b600082141561098b576040517f08c379a0000000000000000000000000000000000000000000000000000000008152600401610982906149e1565b60405180910390fd5b600115156009600084815260200190815260200160002060009054906101000a900460ff161515146109f2576040517f08c379a00000000000000000000000000000000000000000000000000000000081526004016109e9906149c1565b60405180910390fd5b6000600a6000848152602001908152602001600020600101541415610a4c576040517f08c379a0000000000000000000000000000000000000000000000000000000008152600401610a4390614c61565b60405180910390fd5b600a600083815260200190815260200160002060020160009054906101000a900460ff1615610ab0576040517f08c379a0000000000000000000000000000000000000000000000000000000008152600401610aa7906149a1565b60405180910390fd5b80600a6000848152602001908152602001600020600001819055505050565b6000919050565b6000600a6000838152602001908152602001600020600101549050919050565b606060028054610b0590615140565b80601f0160208091040260200160405190810160405280929190818152602001828054610b3190615140565b8015610b7e5780601f10610b5357610100808354040283529160200191610b7e565b820191906000526020600020905b815481529060010190602001808311610b6157829003601f168201915b50505050509050919050565b6000600a6000838152602001908152602001600020600001549050919050565b600160056000828254610bbd9190614fd6565b925050819055506000600660006101000a81548160ff021916908315150217905550806003600060055481526020019081526020016000208190555050565b600073ffffffffffffffffffffffffffffffffffffffff168573ffffffffffffffffffffffffffffffffffffffff161415610c6c576040517f08c379a0000000000000000000000000000000000000000000000000000000008152600401610c6390614be1565b60405180910390fd5b8151835114610cb0576040517f08c379a0000000000000000000000000000000000000000000000000000000008152600401610ca790614d41565b60405180910390fd5b60005b8351811015610dce576001151560096000868481518110610cd757610cd6615279565b5b6020026020010151815260200190815260200160002060009054906101000a900460ff16151514610d3d576040517f08c379a0000000000000000000000000000000000000000000000000000000008152600401610d3490614ac1565b60405180910390fd5b600a6000858381518110610d5457610d53615279565b5b6020026020010151815260200190815260200160002060020160009054906101000a900460ff1615610dbb576040517f08c379a0000000000000000000000000000000000000000000000000000000008152600401610db290614ba1565b60405180910390fd5b8080610dc6906151a3565b915050610cb3565b50610ddc8585858585612f71565b5050505050565b60608151835114610e29576040517f08c379a0000000000000000000000000000000000000000000000000000000008152600401610e2090614d21565b60405180910390fd5b6000835167ffffffffffffffff811115610e4657610e456152a8565b5b604051908082528060200260200182016040528015610e745781602001602082028036833780820191505090505b50905060005b8451811015610ef157610ec1858281518110610e9957610e98615279565b5b6020026020010151858381518110610eb457610eb3615279565b5b6020026020010151610700565b828281518110610ed457610ed3615279565b5b60200260200101818152505080610eea906151a3565b9050610e7a565b508091505092915050565b60106020528060005260406000206000915054906101000a900473ffffffffffffffffffffffffffffffffffffffff1681565b6000600b54905090565b6000806000835190506000811415610f58576000809250925050610fd8565b60005b81811015610fce5785858281518110610f7757610f76615279565b5b60200260200101511415610f9357600181935093505050610fd8565b6000858281518110610fa857610fa7615279565b5b60200260200101511415610fbb57610fce565b8080610fc6906151a3565b915050610f5b565b5060008092509250505b9250929050565b6000600860009054906101000a900473ffffffffffffffffffffffffffffffffffffffff16905090565b60076000838152602001908152602001600020600101600082815260200190815260200160002060009054906101000a900460ff166110c457600160076000848152602001908152602001600020600101600083815260200190815260200160002060006101000a81548160ff021916908315150217905550600760008381526020019081526020016000206000018190806001815401808255809150506001900390600052602060002001600090919091909150556110ff565b6040517f08c379a00000000000000000000000000000000000000000000000000000000081526004016110f690614b61565b60405180910390fd5b5050565b600f6020528060005260406000206000915090505481565b600860009054906101000a900473ffffffffffffffffffffffffffffffffffffffff1673ffffffffffffffffffffffffffffffffffffffff163373ffffffffffffffffffffffffffffffffffffffff16146111ab576040517f08c379a00000000000000000000000000000000000000000000000000000000081526004016111a290614d61565b60405180910390fd5b8160008114156111f0576040517f08c379a00000000000000000000000000000000000000000000000000000000081526004016111e7906149e1565b60405180910390fd5b600115156009600083815260200190815260200160002060009054906101000a900460ff16151514611257576040517f08c379a000000000000000000000000000000000000000000000000000000000815260040161124e906149c1565b60405180910390fd5b6000600a600083815260200190815260200160002060010154146112b0576040517f08c379a00000000000000000000000000000000000000000000000000000000081526004016112a790614ce1565b60405180910390fd5b83518551146112f4576040517f08c379a00000000000000000000000000000000000000000000000000000000081526004016112eb90614a61565b60405180910390fd5b60005b855181101561159a576113248487838151811061131757611316615279565b5b6020026020010151611009565b600086828151811061133957611338615279565b5b60200260200101511415611382576040517f08c379a000000000000000000000000000000000000000000000000000000000815260040161137990614d81565b60405180910390fd5b600115156009600088848151811061139d5761139c615279565b5b6020026020010151815260200190815260200160002060009054906101000a900460ff16151514611403576040517f08c379a00000000000000000000000000000000000000000000000000000000081526004016113fa90614da1565b60405180910390fd5b6000600a600088848151811061141c5761141b615279565b5b60200260200101518152602001908152602001600020600101541415611477576040517f08c379a000000000000000000000000000000000000000000000000000000000815260040161146e90614ca1565b60405180910390fd5b84818151811061148a57611489615279565b5b6020026020010151600a60008884815181106114a9576114a8615279565b5b602002602001015181526020019081526020016000206000015414611503576040517f08c379a00000000000000000000000000000000000000000000000000000000081526004016114fa90614c01565b60405180910390fd5b60001515600a600088848151811061151e5761151d615279565b5b6020026020010151815260200190815260200160002060020160009054906101000a900460ff16151514611587576040517f08c379a000000000000000000000000000000000000000000000000000000000815260040161157e90614aa1565b60405180910390fd5b8080611592906151a3565b9150506112f7565b50600b60008154809291906115ae906151a3565b919050555081600a60008581526020019081526020016000206000018190555042600a600085815260200190815260200160002060010181905550600085511415611614576000600a60008581526020019081526020016000206004018190555061177c565b60005b855181101561176057600060405180604001604052808884815181106116405761163f615279565b5b602002602001015181526020018784815181106116605761165f615279565b5b60200260200101518152509050600a600086815260200190815260200160002060030181908060018154018082558091505060019003906000526020600020906002020160009091909190915060008201518160000155602082015181600101555050600a60008884815181106116da576116d9615279565b5b6020026020010151815260200190815260200160002060040154600a600087815260200190815260200160002060040160008282546117199190614fd6565b92505081905550600a60008681526020019081526020016000206004016000815480929190611747906151a3565b9190505550508080611758906151a3565b915050611617565b508451600c60008282546117749190614fd6565b925050819055505b5050505050565b600a6020528060005260406000206000915090508060000154908060010154908060020160009054906101000a900460ff16908060040154905084565b600060045460055410156117d357600080fd5b6003600060045481526020019081526020016000205490506005546004541415611813576001600660006101000a81548160ff0219169083151502179055505b6003600060045481526020019081526020016000206000905560016004600082825461183f9190614fd6565b9250508190555090565b6000600a600083815260200190815260200160002060020160009054906101000a900460ff169050919050565b6060600a6000838152602001908152602001600020600301805480602002602001604051908101604052809291908181526020016000905b828210156118f4578382906000526020600020906002020160405180604001604052908160008201548152602001600182015481525050815260200190600101906118ae565b505050509050919050565b6000600b54905090565b61191b611914613012565b838361301a565b5050565b6000600c54905090565b6060806000831415611970576040517f08c379a0000000000000000000000000000000000000000000000000000000008152600401611967906149e1565b60405180910390fd5b600115156009600085815260200190815260200160002060009054906101000a900460ff161515146119d7576040517f08c379a00000000000000000000000000000000000000000000000000000000081526004016119ce906149c1565b60405180910390fd5b6000600a6000858152602001908152602001600020600101541415611a31576040517f08c379a0000000000000000000000000000000000000000000000000000000008152600401611a2890614c61565b60405180910390fd5b600a600084815260200190815260200160002060020160009054906101000a900460ff1615611a95576040517f08c379a0000000000000000000000000000000000000000000000000000000008152600401611a8c906149a1565b60405180910390fd5b60006001600a600086815260200190815260200160002060040154611aba9190614fd6565b905060008167ffffffffffffffff811115611ad857611ad76152a8565b5b604051908082528060200260200182016040528015611b065781602001602082028036833780820191505090505b50905060008267ffffffffffffffff811115611b2557611b246152a8565b5b604051908082528060200260200182016040528015611b535781602001602082028036833780820191505090505b509050600080611b6288610baa565b60005b600660009054906101000a900460ff1661208f57611b816117c0565b905088811415611bfe5780858481518110611b9f57611b9e615279565b5b6020026020010181815250508280611bb6906151a3565b935050600a600082815260200190815260200160002060000154848381518110611be357611be2615279565b5b6020026020010181815250508180611bfa906151a3565b9250505b6000600a600083815260200190815260200160002060030180549050905060005b8181101561208857600a6000600a60008681526020019081526020016000206003018381548110611c5357611c52615279565b5b906000526020600020906002020160000154815260200190815260200160002060020160009054906101000a900460ff1615611cc4576040517f08c379a0000000000000000000000000000000000000000000000000000000008152600401611cbb90614c81565b60405180910390fd5b611d06600a60008581526020019081526020016000206003018281548110611cef57611cee615279565b5b906000526020600020906002020160000154610baa565b600080611d4c600a60008781526020019081526020016000206003018481548110611d3457611d33615279565b5b9060005260206000209060020201600001548a610f39565b9150915081611fbf57600a60008681526020019081526020016000206003018381548110611d7d57611d7c615279565b5b906000526020600020906002020160000154898881518110611da257611da1615279565b5b6020026020010181815250508680611db9906151a3565b975050600a60008681526020019081526020016000206003018381548110611de457611de3615279565b5b906000526020600020906002020160010154888781518110611e0957611e08615279565b5b6020026020010181815250508580611e20906151a3565b9650506000600188611e32919061502c565b90505b6000811115611fb9576000600a60008c8481518110611e5757611e56615279565b5b602002602001015181526020019081526020016000206001015490506000600183611e82919061502c565b905060008c8281518110611e9957611e98615279565b5b6020026020010151905060008c8381518110611eb857611eb7615279565b5b6020026020010151905083600a6000848152602001908152602001600020600101541015611f99578d8581518110611ef357611ef2615279565b5b60200260200101518e8481518110611f0e57611f0d615279565b5b602002602001018181525050818e8681518110611f2e57611f2d615279565b5b6020026020010181815250508c8581518110611f4d57611f4c615279565b5b60200260200101518d8481518110611f6857611f67615279565b5b602002602001018181525050808d8681518110611f8857611f87615279565b5b602002602001018181525050611fa2565b50505050611fb9565b505050508080611fb190615116565b915050611e35565b50612073565b6000600a60008b8481518110611fd857611fd7615279565b5b602002602001015181526020019081526020016000206000015490506000600a6000888152602001908152602001600020600301858154811061201e5761201d615279565b5b9060005260206000209060020201600101549050818110156120705780600a60008d868151811061205257612051615279565b5b60200260200101518152602001908152602001600020600001819055505b50505b50508080612080906151a3565b915050611c1f565b5050611b65565b848497509750505050505050915091565b600860009054906101000a900473ffffffffffffffffffffffffffffffffffffffff1673ffffffffffffffffffffffffffffffffffffffff163373ffffffffffffffffffffffffffffffffffffffff1614612130576040517f08c379a000000000000000000000000000000000000000000000000000000000815260040161212790614d61565b60405180910390fd5b6000811415612174576040517f08c379a000000000000000000000000000000000000000000000000000000000815260040161216b906149e1565b60405180910390fd5b600115156009600083815260200190815260200160002060009054906101000a900460ff161515146121db576040517f08c379a00000000000000000000000000000000000000000000000000000000081526004016121d2906149c1565b60405180910390fd5b6000600a6000838152602001908152602001600020600101541415612235576040517f08c379a000000000000000000000000000000000000000000000000000000000815260040161222c90614c61565b60405180910390fd5b60001515600a600083815260200190815260200160002060020160009054906101000a900460ff1615151461229f576040517f08c379a0000000000000000000000000000000000000000000000000000000008152600401612296906149a1565b60405180910390fd5b6000835114156122ae576128d6565b60005b8351811015612554576122de828583815181106122d1576122d0615279565b5b6020026020010151611009565b60008482815181106122f3576122f2615279565b5b6020026020010151141561233c576040517f08c379a000000000000000000000000000000000000000000000000000000000815260040161233390614d81565b60405180910390fd5b600115156009600086848151811061235757612356615279565b5b6020026020010151815260200190815260200160002060009054906101000a900460ff161515146123bd576040517f08c379a00000000000000000000000000000000000000000000000000000000081526004016123b490614da1565b60405180910390fd5b6000600a60008684815181106123d6576123d5615279565b5b60200260200101518152602001908152602001600020600101541415612431576040517f08c379a000000000000000000000000000000000000000000000000000000000815260040161242890614cc1565b60405180910390fd5b82818151811061244457612443615279565b5b6020026020010151600a600086848151811061246357612462615279565b5b6020026020010151815260200190815260200160002060000154146124bd576040517f08c379a00000000000000000000000000000000000000000000000000000000081526004016124b490614c01565b60405180910390fd5b60001515600a60008684815181106124d8576124d7615279565b5b6020026020010151815260200190815260200160002060020160009054906101000a900460ff16151514612541576040517f08c379a000000000000000000000000000000000000000000000000000000000815260040161253890614aa1565b60405180910390fd5b808061254c906151a3565b9150506122b1565b508151835114612599576040517f08c379a000000000000000000000000000000000000000000000000000000000815260040161259090614a61565b60405180910390fd5b60006125a58285610f39565b50905080156125e9576040517f08c379a00000000000000000000000000000000000000000000000000000000081526004016125e090614a01565b60405180910390fd5b60005b845181101561276c5760005b600a6000858152602001908152602001600020600301805490508110156127585785828151811061262c5761262b615279565b5b6020026020010151600a6000868152602001908152602001600020600301828154811061265c5761265b615279565b5b90600052602060002090600202016000015414156126af576040517f08c379a00000000000000000000000000000000000000000000000000000000081526004016126a690614c41565b60405180910390fd5b83600a60008885815181106126c7576126c6615279565b5b6020026020010151815260200190815260200160002060030182815481106126f2576126f1615279565b5b9060005260206000209060020201600001541415612745576040517f08c379a000000000000000000000000000000000000000000000000000000000815260040161273c90614a81565b60405180910390fd5b8080612750906151a3565b9150506125f8565b508080612764906151a3565b9150506125ec565b508351600c60008282546127809190614fd6565b9250508190555060005b84518110156128d357600060405180604001604052808784815181106127b3576127b2615279565b5b602002602001015181526020018684815181106127d3576127d2615279565b5b60200260200101518152509050600a600085815260200190815260200160002060030181908060018154018082558091505060019003906000526020600020906002020160009091909190915060008201518160000155602082015181600101555050600a600087848151811061284d5761284c615279565b5b6020026020010151815260200190815260200160002060040154600a6000868152602001908152602001600020600401600082825461288c9190614fd6565b92505081905550600a600085815260200190815260200160002060040160008154809291906128ba906151a3565b91905055505080806128cb906151a3565b91505061278a565b50505b505050565b600860009054906101000a900473ffffffffffffffffffffffffffffffffffffffff1673ffffffffffffffffffffffffffffffffffffffff163373ffffffffffffffffffffffffffffffffffffffff161461296b576040517f08c379a000000000000000000000000000000000000000000000000000000000815260040161296290614d61565b60405180910390fd5b60008214156129af576040517f08c379a00000000000000000000000000000000000000000000000000000000081526004016129a6906149e1565b60405180910390fd5b600115156009600084815260200190815260200160002060009054906101000a900460ff16151514612a16576040517f08c379a0000000000000000000000000000000000000000000000000000000008152600401612a0d906149c1565b60405180910390fd5b6000600a6000848152602001908152602001600020600101541415612a70576040517f08c379a0000000000000000000000000000000000000000000000000000000008152600401612a6790614c61565b60405180910390fd5b80600a600084815260200190815260200160002060020160006101000a81548160ff021916908315150217905515612aa757612ad6565b80600a600084815260200190815260200160002060020160006101000a81548160ff0219169083151502179055505b5050565b600860009054906101000a900473ffffffffffffffffffffffffffffffffffffffff1673ffffffffffffffffffffffffffffffffffffffff163373ffffffffffffffffffffffffffffffffffffffff1614612b6a576040517f08c379a0000000000000000000000000000000000000000000000000000000008152600401612b6190614d61565b60405180910390fd5b6001600960006001815260200190815260200160002060006101000a81548160ff0219169083151502179055506001600960006002815260200190815260200160002060006101000a81548160ff0219169083151502179055506001600960006003815260200190815260200160002060006101000a81548160ff021916908315150217905550565b60005b6007600083815260200190815260200160002060000180549050811015612c665760076000838152602001908152602001600020600001805480612c3d57612c3c61524a565b5b600190038181906000526020600020016000905590558080612c5e906151a3565b915050612bf6565b5050565b6000600160008473ffffffffffffffffffffffffffffffffffffffff1673ffffffffffffffffffffffffffffffffffffffff16815260200190815260200160002060008373ffffffffffffffffffffffffffffffffffffffff1673ffffffffffffffffffffffffffffffffffffffff16815260200190815260200160002060009054906101000a900460ff16905092915050565b600073ffffffffffffffffffffffffffffffffffffffff168473ffffffffffffffffffffffffffffffffffffffff161415612d6e576040517f08c379a0000000000000000000000000000000000000000000000000000000008152600401612d6590614b21565b60405180910390fd5b600073ffffffffffffffffffffffffffffffffffffffff168573ffffffffffffffffffffffffffffffffffffffff161415612dde576040517f08c379a0000000000000000000000000000000000000000000000000000000008152600401612dd590614b41565b60405180910390fd5b600d54831115612e23576040517f08c379a0000000000000000000000000000000000000000000000000000000008152600401612e1a90614c21565b60405180910390fd5b6000612e2f8685610700565b905080831115612e74576040517f08c379a0000000000000000000000000000000000000000000000000000000008152600401612e6b90614bc1565b60405180910390fd5b600a600085815260200190815260200160002060020160009054906101000a900460ff1615612ed8576040517f08c379a0000000000000000000000000000000000000000000000000000000008152600401612ecf90614a41565b60405180910390fd5b612ee58686868686612cfe565b505050505050565b60007f01ffc9a7000000000000000000000000000000000000000000000000000000007bffffffffffffffffffffffffffffffffffffffffffffffffffffffff1916827bffffffffffffffffffffffffffffffffffffffffffffffffffffffff1916149050919050565b8060029080519060200190612f6d9291906136c3565b5050565b612f79613012565b73ffffffffffffffffffffffffffffffffffffffff168573ffffffffffffffffffffffffffffffffffffffff161480612fbf5750612fbe85612fb9613012565b612c6a565b5b612ffe576040517f08c379a0000000000000000000000000000000000000000000000000000000008152600401612ff590614b01565b60405180910390fd5b61300b8585858585613187565b5050505050565b600033905090565b8173ffffffffffffffffffffffffffffffffffffffff168373ffffffffffffffffffffffffffffffffffffffff161415613089576040517f08c379a000000000000000000000000000000000000000000000000000000000815260040161308090614d01565b60405180910390fd5b80600160008573ffffffffffffffffffffffffffffffffffffffff1673ffffffffffffffffffffffffffffffffffffffff16815260200190815260200160002060008473ffffffffffffffffffffffffffffffffffffffff1673ffffffffffffffffffffffffffffffffffffffff16815260200190815260200160002060006101000a81548160ff0219169083151502179055508173ffffffffffffffffffffffffffffffffffffffff168373ffffffffffffffffffffffffffffffffffffffff167f17307eab39ab6107e8899845ad3d59bd9653f200f220920489ca2b5937696c318360405161317a91906148fb565b60405180910390a3505050565b81518351146131cb576040517f08c379a00000000000000000000000000000000000000000000000000000000081526004016131c290614d41565b60405180910390fd5b600073ffffffffffffffffffffffffffffffffffffffff168473ffffffffffffffffffffffffffffffffffffffff16141561323b576040517f08c379a000000000000000000000000000000000000000000000000000000000815260040161323290614ae1565b60405180910390fd5b6000613245613012565b90506132558187878787876134a9565b60005b845181101561340657600085828151811061327657613275615279565b5b60200260200101519050600085838151811061329557613294615279565b5b60200260200101519050600080600084815260200190815260200160002060008b73ffffffffffffffffffffffffffffffffffffffff1673ffffffffffffffffffffffffffffffffffffffff16815260200190815260200160002054905081811015613336576040517f08c379a000000000000000000000000000000000000000000000000000000000815260040161332d90614b81565b60405180910390fd5b81810360008085815260200190815260200160002060008c73ffffffffffffffffffffffffffffffffffffffff1673ffffffffffffffffffffffffffffffffffffffff168152602001908152602001600020819055508160008085815260200190815260200160002060008b73ffffffffffffffffffffffffffffffffffffffff1673ffffffffffffffffffffffffffffffffffffffff16815260200190815260200160002060008282546133eb9190614fd6565b92505081905550505050806133ff906151a3565b9050613258565b508473ffffffffffffffffffffffffffffffffffffffff168673ffffffffffffffffffffffffffffffffffffffff168273ffffffffffffffffffffffffffffffffffffffff167f4a39dc06d4c0dbc64b70af90fd698a233a518aa5d07e595d983b8c0526c8f7fb878760405161347d9291906148c4565b60405180910390a46134938187878787876134b1565b6134a18187878787876134b9565b505050505050565b505050505050565b505050505050565b6134d88473ffffffffffffffffffffffffffffffffffffffff166136a0565b15613698578373ffffffffffffffffffffffffffffffffffffffff1663bc197c8187878686866040518663ffffffff1660e01b815260040161351e959493929190614818565b602060405180830381600087803b15801561353857600080fd5b505af192505050801561356957506040513d601f19601f820116820180604052508101906135669190613fa3565b60015b61360f576135756152d7565b806308c379a014156135d2575061358a615d6f565b8061359557506135d4565b806040517f08c379a00000000000000000000000000000000000000000000000000000000081526004016135c9919061493f565b60405180910390fd5b505b6040517f08c379a000000000000000000000000000000000000000000000000000000000815260040161360690614961565b60405180910390fd5b63bc197c8160e01b7bffffffffffffffffffffffffffffffffffffffffffffffffffffffff1916817bffffffffffffffffffffffffffffffffffffffffffffffffffffffff191614613696576040517f08c379a000000000000000000000000000000000000000000000000000000000815260040161368d90614981565b60405180910390fd5b505b505050505050565b6000808273ffffffffffffffffffffffffffffffffffffffff163b119050919050565b8280546136cf90615140565b90600052602060002090601f0160209004810192826136f15760008555613738565b82601f1061370a57805160ff1916838001178555613738565b82800160010185558215613738579182015b8281111561373757825182559160200191906001019061371c565b5b5090506137459190613749565b5090565b5b8082111561376257600081600090555060010161374a565b5090565b600061377961377484614e46565b614e21565b9050808382526020820190508285602086028201111561379c5761379b615308565b5b60005b858110156137cc57816137b2888261393a565b84526020840193506020830192505060018101905061379f565b5050509392505050565b60006137e96137e484614e72565b614e21565b9050808382526020820190508285604086028201111561380c5761380b615308565b5b60005b8581101561383c57816138228882613a74565b84526020840193506040830192505060018101905061380f565b5050509392505050565b600061385961385484614e9e565b614e21565b9050808382526020820190508285602086028201111561387c5761387b615308565b5b60005b858110156138ac57816138928882613b6c565b84526020840193506020830192505060018101905061387f565b5050509392505050565b60006138c96138c484614eca565b614e21565b9050828152602081018484840111156138e5576138e461530d565b5b6138f08482856150d4565b509392505050565b600061390b61390684614efb565b614e21565b9050828152602081018484840111156139275761392661530d565b5b6139328482856150d4565b509392505050565b60008135905061394981615e05565b92915050565b600082601f830112613964576139636152f9565b5b8135613974848260208601613766565b91505092915050565b600082601f830112613992576139916152f9565b5b81356139a28482602086016137d6565b91505092915050565b600082601f8301126139c0576139bf6152f9565b5b81356139d0848260208601613846565b91505092915050565b6000813590506139e881615e1c565b92915050565b6000813590506139fd81615e33565b92915050565b600081519050613a1281615e33565b92915050565b600082601f830112613a2d57613a2c6152f9565b5b8135613a3d8482602086016138b6565b91505092915050565b600082601f830112613a5b57613a5a6152f9565b5b8135613a6b8482602086016138f8565b91505092915050565b600060408284031215613a8a57613a896152fe565b5b613a946040614e21565b90506000613aa484828501613b6c565b6000830152506020613ab884828501613b6c565b60208301525092915050565b600060a08284031215613ada57613ad96152fe565b5b613ae460a0614e21565b90506000613af484828501613b6c565b6000830152506020613b0884828501613b6c565b6020830152506040613b1c848285016139d9565b604083015250606082013567ffffffffffffffff811115613b4057613b3f615303565b5b613b4c8482850161397d565b6060830152506080613b6084828501613b6c565b60808301525092915050565b600081359050613b7b81615e4a565b92915050565b600060208284031215613b9757613b96615317565b5b6000613ba58482850161393a565b91505092915050565b60008060408385031215613bc557613bc4615317565b5b6000613bd38582860161393a565b9250506020613be48582860161393a565b9150509250929050565b600080600080600060a08688031215613c0a57613c09615317565b5b6000613c188882890161393a565b9550506020613c298882890161393a565b945050604086013567ffffffffffffffff811115613c4a57613c49615312565b5b613c56888289016139ab565b935050606086013567ffffffffffffffff811115613c7757613c76615312565b5b613c83888289016139ab565b925050608086013567ffffffffffffffff811115613ca457613ca3615312565b5b613cb088828901613a18565b9150509295509295909350565b600080600080600060a08688031215613cd957613cd8615317565b5b6000613ce78882890161393a565b9550506020613cf88882890161393a565b9450506040613d0988828901613b6c565b9350506060613d1a88828901613b6c565b925050608086013567ffffffffffffffff811115613d3b57613d3a615312565b5b613d4788828901613a18565b9150509295509295909350565b60008060408385031215613d6b57613d6a615317565b5b6000613d798582860161393a565b9250506020613d8a858286016139d9565b9150509250929050565b60008060408385031215613dab57613daa615317565b5b6000613db98582860161393a565b9250506020613dca85828601613b6c565b9150509250929050565b60008060408385031215613deb57613dea615317565b5b600083013567ffffffffffffffff811115613e0957613e08615312565b5b613e158582860161394f565b925050602083013567ffffffffffffffff811115613e3657613e35615312565b5b613e42858286016139ab565b9150509250929050565b600080600060608486031215613e6557613e64615317565b5b600084013567ffffffffffffffff811115613e8357613e82615312565b5b613e8f868287016139ab565b935050602084013567ffffffffffffffff811115613eb057613eaf615312565b5b613ebc868287016139ab565b9250506040613ecd86828701613b6c565b9150509250925092565b60008060008060808587031215613ef157613ef0615317565b5b600085013567ffffffffffffffff811115613f0f57613f0e615312565b5b613f1b878288016139ab565b945050602085013567ffffffffffffffff811115613f3c57613f3b615312565b5b613f48878288016139ab565b9350506040613f5987828801613b6c565b9250506060613f6a87828801613b6c565b91505092959194509250565b600060208284031215613f8c57613f8b615317565b5b6000613f9a848285016139ee565b91505092915050565b600060208284031215613fb957613fb8615317565b5b6000613fc784828501613a03565b91505092915050565b600060208284031215613fe657613fe5615317565b5b600082013567ffffffffffffffff81111561400457614003615312565b5b61401084828501613a46565b91505092915050565b60006020828403121561402f5761402e615317565b5b600082013567ffffffffffffffff81111561404d5761404c615312565b5b61405984828501613ac4565b91505092915050565b60006020828403121561407857614077615317565b5b600061408684828501613b6c565b91505092915050565b600080604083850312156140a6576140a5615317565b5b60006140b485828601613b6c565b925050602083013567ffffffffffffffff8111156140d5576140d4615312565b5b6140e1858286016139ab565b9150509250929050565b6000806040838503121561410257614101615317565b5b600061411085828601613b6c565b9250506020614121858286016139d9565b9150509250929050565b6000806040838503121561414257614141615317565b5b600061415085828601613b6c565b925050602061416185828601613b6c565b9150509250929050565b600061417783836147b0565b60408301905092915050565b600061418f83836147df565b60208301905092915050565b6141a481615060565b82525050565b60006141b582614f4c565b6141bf8185614f92565b93506141ca83614f2c565b8060005b838110156141fb5781516141e2888261416b565b97506141ed83614f78565b9250506001810190506141ce565b5085935050505092915050565b600061421382614f57565b61421d8185614fa3565b935061422883614f3c565b8060005b838110156142595781516142408882614183565b975061424b83614f85565b92505060018101905061422c565b5085935050505092915050565b61426f81615072565b82525050565b600061428082614f62565b61428a8185614fb4565b935061429a8185602086016150e3565b6142a38161531c565b840191505092915050565b60006142b982614f6d565b6142c38185614fc5565b93506142d38185602086016150e3565b6142dc8161531c565b840191505092915050565b60006142f4603483614fc5565b91506142ff8261533a565b604082019050919050565b6000614317602883614fc5565b915061432282615389565b604082019050919050565b600061433a603183614fc5565b9150614345826153d8565b604082019050919050565b600061435d602c83614fc5565b915061436882615427565b604082019050919050565b6000614380601b83614fc5565b915061438b82615476565b602082019050919050565b60006143a3602c83614fc5565b91506143ae8261549f565b604082019050919050565b60006143c6602b83614fc5565b91506143d1826154ee565b604082019050919050565b60006143e9603383614fc5565b91506143f48261553d565b604082019050919050565b600061440c603783614fc5565b91506144178261558c565b604082019050919050565b600061442f602483614fc5565b915061443a826155db565b604082019050919050565b6000614452603a83614fc5565b915061445d8261562a565b604082019050919050565b6000614475604683614fc5565b915061448082615679565b606082019050919050565b6000614498602583614fc5565b91506144a3826156ee565b604082019050919050565b60006144bb603283614fc5565b91506144c68261573d565b604082019050919050565b60006144de601b83614fc5565b91506144e98261578c565b602082019050919050565b6000614501601d83614fc5565b915061450c826157b5565b602082019050919050565b6000614524603383614fc5565b915061452f826157de565b604082019050919050565b6000614547602a83614fc5565b91506145528261582d565b604082019050919050565b600061456a603b83614fc5565b91506145758261587c565b604082019050919050565b600061458d604783614fc5565b9150614598826158cb565b606082019050919050565b60006145b0601f83614fc5565b91506145bb82615940565b602082019050919050565b60006145d3603483614fc5565b91506145de82615969565b604082019050919050565b60006145f6602a83614fc5565b9150614601826159b8565b604082019050919050565b6000614619603c83614fc5565b915061462482615a07565b604082019050919050565b600061463c601f83614fc5565b915061464782615a56565b602082019050919050565b600061465f603783614fc5565b915061466a82615a7f565b604082019050919050565b6000614682602d83614fc5565b915061468d82615ace565b604082019050919050565b60006146a5602b83614fc5565b91506146b082615b1d565b604082019050919050565b60006146c8602483614fc5565b91506146d382615b6c565b604082019050919050565b60006146eb602983614fc5565b91506146f682615bbb565b604082019050919050565b600061470e602983614fc5565b915061471982615c0a565b604082019050919050565b6000614731602883614fc5565b915061473c82615c59565b604082019050919050565b6000614754601383614fc5565b915061475f82615ca8565b602082019050919050565b6000614777602183614fc5565b915061478282615cd1565b604082019050919050565b600061479a602f83614fc5565b91506147a582615d20565b604082019050919050565b6040820160008201516147c660008501826147df565b5060208201516147d960208501826147df565b50505050565b6147e8816150ca565b82525050565b6147f7816150ca565b82525050565b6000602082019050614812600083018461419b565b92915050565b600060a08201905061482d600083018861419b565b61483a602083018761419b565b818103604083015261484c8186614208565b905081810360608301526148608185614208565b905081810360808301526148748184614275565b90509695505050505050565b6000602082019050818103600083015261489a81846141aa565b905092915050565b600060208201905081810360008301526148bc8184614208565b905092915050565b600060408201905081810360008301526148de8185614208565b905081810360208301526148f28184614208565b90509392505050565b60006020820190506149106000830184614266565b92915050565b600060408201905061492b6000830185614266565b61493860208301846147ee565b9392505050565b6000602082019050818103600083015261495981846142ae565b905092915050565b6000602082019050818103600083015261497a816142e7565b9050919050565b6000602082019050818103600083015261499a8161430a565b9050919050565b600060208201905081810360008301526149ba8161432d565b9050919050565b600060208201905081810360008301526149da81614350565b9050919050565b600060208201905081810360008301526149fa81614373565b9050919050565b60006020820190508181036000830152614a1a81614396565b9050919050565b60006020820190508181036000830152614a3a816143b9565b9050919050565b60006020820190508181036000830152614a5a816143dc565b9050919050565b60006020820190508181036000830152614a7a816143ff565b9050919050565b60006020820190508181036000830152614a9a81614422565b9050919050565b60006020820190508181036000830152614aba81614445565b9050919050565b60006020820190508181036000830152614ada81614468565b9050919050565b60006020820190508181036000830152614afa8161448b565b9050919050565b60006020820190508181036000830152614b1a816144ae565b9050919050565b60006020820190508181036000830152614b3a816144d1565b9050919050565b60006020820190508181036000830152614b5a816144f4565b9050919050565b60006020820190508181036000830152614b7a81614517565b9050919050565b60006020820190508181036000830152614b9a8161453a565b9050919050565b60006020820190508181036000830152614bba8161455d565b9050919050565b60006020820190508181036000830152614bda81614580565b9050919050565b60006020820190508181036000830152614bfa816145a3565b9050919050565b60006020820190508181036000830152614c1a816145c6565b9050919050565b60006020820190508181036000830152614c3a816145e9565b9050919050565b60006020820190508181036000830152614c5a8161460c565b9050919050565b60006020820190508181036000830152614c7a8161462f565b9050919050565b60006020820190508181036000830152614c9a81614652565b9050919050565b60006020820190508181036000830152614cba81614675565b9050919050565b60006020820190508181036000830152614cda81614698565b9050919050565b60006020820190508181036000830152614cfa816146bb565b9050919050565b60006020820190508181036000830152614d1a816146de565b9050919050565b60006020820190508181036000830152614d3a81614701565b9050919050565b60006020820190508181036000830152614d5a81614724565b9050919050565b60006020820190508181036000830152614d7a81614747565b9050919050565b60006020820190508181036000830152614d9a8161476a565b9050919050565b60006020820190508181036000830152614dba8161478d565b9050919050565b6000602082019050614dd660008301846147ee565b92915050565b6000608082019050614df160008301876147ee565b614dfe60208301866147ee565b614e0b6040830185614266565b614e1860608301846147ee565b95945050505050565b6000614e2b614e3c565b9050614e378282615172565b919050565b6000604051905090565b600067ffffffffffffffff821115614e6157614e606152a8565b5b602082029050602081019050919050565b600067ffffffffffffffff821115614e8d57614e8c6152a8565b5b602082029050602081019050919050565b600067ffffffffffffffff821115614eb957614eb86152a8565b5b602082029050602081019050919050565b600067ffffffffffffffff821115614ee557614ee46152a8565b5b614eee8261531c565b9050602081019050919050565b600067ffffffffffffffff821115614f1657614f156152a8565b5b614f1f8261531c565b9050602081019050919050565b6000819050602082019050919050565b6000819050602082019050919050565b600081519050919050565b600081519050919050565b600081519050919050565b600081519050919050565b6000602082019050919050565b6000602082019050919050565b600082825260208201905092915050565b600082825260208201905092915050565b600082825260208201905092915050565b600082825260208201905092915050565b6000614fe1826150ca565b9150614fec836150ca565b9250827fffffffffffffffffffffffffffffffffffffffffffffffffffffffffffffffff03821115615021576150206151ec565b5b828201905092915050565b6000615037826150ca565b9150615042836150ca565b925082821015615055576150546151ec565b5b828203905092915050565b600061506b826150aa565b9050919050565b60008115159050919050565b60007fffffffff0000000000000000000000000000000000000000000000000000000082169050919050565b600073ffffffffffffffffffffffffffffffffffffffff82169050919050565b6000819050919050565b82818337600083830152505050565b60005b838110156151015780820151818401526020810190506150e6565b83811115615110576000848401525b50505050565b6000615121826150ca565b91506000821415615135576151346151ec565b5b600182039050919050565b6000600282049050600182168061515857607f821691505b6020821081141561516c5761516b61521b565b5b50919050565b61517b8261531c565b810181811067ffffffffffffffff8211171561519a576151996152a8565b5b80604052505050565b60006151ae826150ca565b91507fffffffffffffffffffffffffffffffffffffffffffffffffffffffffffffffff8214156151e1576151e06151ec565b5b600182019050919050565b7f4e487b7100000000000000000000000000000000000000000000000000000000600052601160045260246000fd5b7f4e487b7100000000000000000000000000000000000000000000000000000000600052602260045260246000fd5b7f4e487b7100000000000000000000000000000000000000000000000000000000600052603160045260246000fd5b7f4e487b7100000000000000000000000000000000000000000000000000000000600052603260045260246000fd5b7f4e487b7100000000000000000000000000000000000000000000000000000000600052604160045260246000fd5b600060033d11156152f65760046000803e6152f360005161532d565b90505b90565b600080fd5b600080fd5b600080fd5b600080fd5b600080fd5b600080fd5b600080fd5b6000601f19601f8301169050919050565b60008160e01c9050919050565b7f455243313135353a207472616e7366657220746f206e6f6e204552433131353560008201527f526563656976657220696d706c656d656e746572000000000000000000000000602082015250565b7f455243313135353a204552433131353552656365697665722072656a6563746560008201527f6420746f6b656e73000000000000000000000000000000000000000000000000602082015250565b7f696420697320626c61636b6c697374656420736f20746869732070726f63657360008201527f732063616e6e6f7420636f6e74696e7565000000000000000000000000000000602082015250565b7f54686520746f6b656e206973206e6f742061207265676973746572656420455260008201527f43203131353520746f6b656e0000000000000000000000000000000000000000602082015250565b7f54686520746f6b656e2049442063616e6e6f74206265207a65726f0000000000600082015250565b7f546f6b656e49442063616e6e6f74206265206120737562736574206f6620706160008201527f72656e74546f6b656e4944730000000000000000000000000000000000000000602082015250565b7f455243313135353a2062616c616e636520717565727920666f7220746865207a60008201527f65726f2061646472657373000000000000000000000000000000000000000000602082015250565b7f54686520746f6b656e20696420747279696e6720746f206265207472616e736660008201527f6572656420697320626c61636b6c697374656400000000000000000000000000602082015250565b7f546865206c656e677468206f6620706172656e742049647320616e642077656960008201527f676874732073686f756c64206265207468652073616d65000000000000000000602082015250565b7f4572726f723a20616e206772617068206c6f6f702077696c6c2062652063726560008201527f6174656400000000000000000000000000000000000000000000000000000000602082015250565b7f4120706172656e7420494420697320626c61636b6c697374656420736f20746860008201527f69732070726f636573732063616e6e6f7420636f6e74696e7565000000000000602082015250565b7f4f6e65206f66207468652049447320747279696e6720746f206265207472616e60008201527f7366657265726564206973206e6f742061207265676973746572656420746f6b60208201527f656e2049642e0000000000000000000000000000000000000000000000000000604082015250565b7f455243313135353a207472616e7366657220746f20746865207a65726f20616460008201527f6472657373000000000000000000000000000000000000000000000000000000602082015250565b7f455243313135353a207472616e736665722063616c6c6572206973206e6f742060008201527f6f776e6572206e6f7220617070726f7665640000000000000000000000000000602082015250565b7f43616e6e6f742073656e6420746f207a65726f20616464726573730000000000600082015250565b7f43616e6e6f742073656e642066726f6d207a65726f2061646472657373000000600082015250565b7f412076616c756520796f752061726520696e70757474696e6720696e6469636160008201527f746573206120627265616b206f66207365742e00000000000000000000000000602082015250565b7f455243313135353a20696e73756666696369656e742062616c616e636520666f60008201527f72207472616e7366657200000000000000000000000000000000000000000000602082015250565b7f4f6e65206f662074686520746f6b656e2069647320747279696e6720746f206260008201527f65207472616e73666572656420697320626c61636b6c69737465640000000000602082015250565b7f54686520616d6f756e74206265696e67207472616e736665726572656420697360008201527f2067726561746572207468616e2074686520616d6f756e7420696e206369726360208201527f756c6174696f6e00000000000000000000000000000000000000000000000000604082015250565b7f66726f6d2063616e6e6f7420626520746865207a65726f206164647265737300600082015250565b7f4120706172656e7420696420646f6573206e6f7420636f6f7265736f6e64207460008201527f6f2074686520636f727265637420776569676874000000000000000000000000602082015250565b7f546865204944206265696e672073656e7420686173206e6f742079657420626560008201527f656e206372656174656400000000000000000000000000000000000000000000602082015250565b7f4572726f723a204564676520636f6e6e656374696f6e20796f7520617265207460008201527f7279696e6720746f2061646420616c6c72656164792065786973747300000000602082015250565b7f494420686173206e6f74206265656e20616464656420746f2067726170682e00600082015250565b7f416e206964206173736f636961746564207769746820616e206564676520636f60008201527f6e6e656374696f6e20697320626c61636b6c6973746564000000000000000000602082015250565b7f4120706172656e7420746f6b656e20494420686173206e6f74206265656e206160008201527f6464656420746f20677261706800000000000000000000000000000000000000602082015250565b7f706172656e7420746f6b656e20494420686173206e6f74206265656e2061646460008201527f656420746f206772617068000000000000000000000000000000000000000000602082015250565b7f49442068617320616c6c7265616479206265656e20616464656420746f20677260008201527f6170682e00000000000000000000000000000000000000000000000000000000602082015250565b7f455243313135353a2073657474696e6720617070726f76616c2073746174757360008201527f20666f722073656c660000000000000000000000000000000000000000000000602082015250565b7f455243313135353a206163636f756e747320616e6420696473206c656e67746860008201527f206d69736d617463680000000000000000000000000000000000000000000000602082015250565b7f455243313135353a2069647320616e6420616d6f756e7473206c656e6774682060008201527f6d69736d61746368000000000000000000000000000000000000000000000000602082015250565b7f55736572206d7573742062652061646d696e2e00000000000000000000000000600082015250565b7f54686520746f6b656e204944206f66206120706172656e74206973207a65726f60008201527f2e00000000000000000000000000000000000000000000000000000000000000602082015250565b7f4120706172656e7420746f6b656e206973206e6f74206120726567697374656460008201527f20455243203131353520746f6b656e0000000000000000000000000000000000602082015250565b600060443d1015615d7f57615e02565b615d87614e3c565b60043d036004823e80513d602482011167ffffffffffffffff82111715615daf575050615e02565b808201805167ffffffffffffffff811115615dcd5750505050615e02565b80602083010160043d038501811115615dea575050505050615e02565b615df982602001850186615172565b82955050505050505b90565b615e0e81615060565b8114615e1957600080fd5b50565b615e2581615072565b8114615e3057600080fd5b50565b615e3c8161507e565b8114615e4757600080fd5b50565b615e53816150ca565b8114615e5e57600080fd5b5056fea264697066735822122084591c15fd49303699aa557fce075eee8fb657275f728fe792df066597ef4add64736f6c63430008060033",
  "linkReferences": {},
  "deployedLinkReferences": {}
}