{
  "_format": "hh-sol-artifact-1",
  "contractName": "Set",
  "sourceName": "contracts/Set.sol",
  "abi": [
    {
      "inputs": [
        {
          "internalType": "uint256",
          "name": "a",
          "type": "uint256"
        }
      ],
      "name": "add",
      "outputs": [],
      "stateMutability": "nonpayable",
      "type": "function"
    },
    {
      "inputs": [],
      "name": "clearSet",
      "outputs": [],
      "stateMutability": "nonpayable",
      "type": "function"
    }
  ],
  "bytecode": "0x608060405234801561001057600080fd5b50610360806100206000396000f3fe608060405234801561001057600080fd5b50600436106100365760003560e01c80631003e2d21461003b578063c2ca4bcc14610057575b600080fd5b6100556004803603810190610050919061018d565b610061565b005b61005f610126565b005b6000600101600082815260200190815260200160002060009054906101000a900460ff166100e85760016000600101600083815260200190815260200160002060006101000a81548160ff02191690831515021790555060008001819080600181540180825580915050600190039060005260206000200160009091909190915055610123565b6040517f08c379a000000000000000000000000000000000000000000000000000000000815260040161011a906101dd565b60405180910390fd5b50565b60005b6000800180549050811015610175576000800180548061014c5761014b610290565b5b60019003818190600052602060002001600090559055808061016d90610218565b915050610129565b50565b60008135905061018781610313565b92915050565b6000602082840312156101a3576101a26102bf565b5b60006101b184828501610178565b91505092915050565b60006101c76036836101fd565b91506101d2826102c4565b604082019050919050565b600060208201905081810360008301526101f6816101ba565b9050919050565b600082825260208201905092915050565b6000819050919050565b60006102238261020e565b91507fffffffffffffffffffffffffffffffffffffffffffffffffffffffffffffffff82141561025657610255610261565b5b600182019050919050565b7f4e487b7100000000000000000000000000000000000000000000000000000000600052601160045260246000fd5b7f4e487b7100000000000000000000000000000000000000000000000000000000600052603160045260246000fd5b600080fd5b7f5468652076616c756520796f752061726520696e70757474696e67206d616b6560008201527f73207468652076616c756573206e6f7420612073657400000000000000000000602082015250565b61031c8161020e565b811461032757600080fd5b5056fea2646970667358221220e79665ebc21aef8edc815784d9c0f36cde6bdd2a9007f461f7142d7a1e3987af64736f6c63430008060033",
  "linkReferences": {},
  "deployedLinkReferences": {}
}