{
  "_format": "hh-sol-artifact-1",
  "contractName": "Set",
  "sourceName": "contracts/Set.sol",
  "abi": [
    {
      "inputs": [
        {
          "internalType": "uint256",
          "name": "id",
          "type": "uint256"
        },
        {
          "internalType": "uint256",
          "name": "addToSet",
          "type": "uint256"
        }
      ],
      "name": "add",
      "outputs": [],
      "stateMutability": "nonpayable",
      "type": "function"
    },
    {
      "inputs": [
        {
          "internalType": "uint256",
          "name": "id",
          "type": "uint256"
        }
      ],
      "name": "clearSet",
      "outputs": [],
      "stateMutability": "nonpayable",
      "type": "function"
    }
  ],
  "bytecode": "0x608060405234801561001057600080fd5b50610407806100206000396000f3fe608060405234801561001057600080fd5b50600436106100365760003560e01c8063771602f71461003b578063d8be1fd414610057575b600080fd5b61005560048036038101906100509190610221565b610073565b005b610071600480360381019061006c91906101f4565b61016a565b005b600080838152602001908152602001600020600101600082815260200190815260200160002060009054906101000a900460ff1661012b576001600080848152602001908152602001600020600101600083815260200190815260200160002060006101000a81548160ff021916908315150217905550600080838152602001908152602001600020600001819080600181540180825580915050600190039060005260206000200160009091909190915055610166565b6040517f08c379a000000000000000000000000000000000000000000000000000000000815260040161015d90610284565b60405180910390fd5b5050565b60005b600080838152602001908152602001600020600001805490508110156101db576000808381526020019081526020016000206000018054806101b2576101b1610337565b5b6001900381819060005260206000200160009055905580806101d3906102bf565b91505061016d565b5050565b6000813590506101ee816103ba565b92915050565b60006020828403121561020a57610209610366565b5b6000610218848285016101df565b91505092915050565b6000806040838503121561023857610237610366565b5b6000610246858286016101df565b9250506020610257858286016101df565b9150509250929050565b600061026e6033836102a4565b91506102798261036b565b604082019050919050565b6000602082019050818103600083015261029d81610261565b9050919050565b600082825260208201905092915050565b6000819050919050565b60006102ca826102b5565b91507fffffffffffffffffffffffffffffffffffffffffffffffffffffffffffffffff8214156102fd576102fc610308565b5b600182019050919050565b7f4e487b7100000000000000000000000000000000000000000000000000000000600052601160045260246000fd5b7f4e487b7100000000000000000000000000000000000000000000000000000000600052603160045260246000fd5b600080fd5b7f412076616c756520796f752061726520696e70757474696e6720696e6469636160008201527f746573206120627265616b206f66207365742e00000000000000000000000000602082015250565b6103c3816102b5565b81146103ce57600080fd5b5056fea26469706673582212207e2b1a0e969badeda6e7b6deeefe7bd6c6f396b795d9eb846144c4b4e4cec0b564736f6c63430008060033",
  "linkReferences": {},
  "deployedLinkReferences": {}
}