{
  "_format": "hh-sol-artifact-1",
  "contractName": "Set",
  "sourceName": "contracts/Set.sol",
  "abi": [
    {
      "inputs": [
        {
          "internalType": "uint256",
          "name": "a",
          "type": "uint256"
        }
      ],
      "name": "add",
      "outputs": [],
      "stateMutability": "nonpayable",
      "type": "function"
    },
    {
      "inputs": [],
      "name": "clearSet",
      "outputs": [],
      "stateMutability": "nonpayable",
      "type": "function"
    }
  ],
  "bytecode": "0x608060405234801561001057600080fd5b5061027e806100206000396000f3fe608060405234801561001057600080fd5b50600436106100365760003560e01c80631003e2d21461003b578063c2ca4bcc14610057575b600080fd5b6100556004803603810190610050919061014e565b610061565b005b61005f6100e7565b005b6000600101600082815260200190815260200160002060009054906101000a900460ff166100e45760016000600101600083815260200190815260200160002060006101000a81548160ff021916908315150217905550600080018190806001815401808255809150506001900390600052602060002001600090919091909150555b50565b60005b6000800180549050811015610136576000800180548061010d5761010c6101fd565b5b60019003818190600052602060002001600090559055808061012e90610185565b9150506100ea565b50565b60008135905061014881610231565b92915050565b6000602082840312156101645761016361022c565b5b600061017284828501610139565b91505092915050565b6000819050919050565b60006101908261017b565b91507fffffffffffffffffffffffffffffffffffffffffffffffffffffffffffffffff8214156101c3576101c26101ce565b5b600182019050919050565b7f4e487b7100000000000000000000000000000000000000000000000000000000600052601160045260246000fd5b7f4e487b7100000000000000000000000000000000000000000000000000000000600052603160045260246000fd5b600080fd5b61023a8161017b565b811461024557600080fd5b5056fea264697066735822122016eaa7baad402fd663c270f40697346815801c4821da47fccd17c83ad070bb3b64736f6c63430008060033",
  "linkReferences": {},
  "deployedLinkReferences": {}
}