{
  "_format": "hh-sol-artifact-1",
  "contractName": "copyrightGraph",
  "sourceName": "contracts/copyrightMaster.sol",
  "abi": [
    {
      "inputs": [],
      "stateMutability": "nonpayable",
      "type": "constructor"
    },
    {
      "anonymous": false,
      "inputs": [
        {
          "components": [
            {
              "internalType": "uint256",
              "name": "weight",
              "type": "uint256"
            },
            {
              "internalType": "uint256",
              "name": "timeStamp",
              "type": "uint256"
            },
            {
              "internalType": "bool",
              "name": "isBlacklisted",
              "type": "bool"
            },
            {
              "components": [
                {
                  "internalType": "uint256[]",
                  "name": "to",
                  "type": "uint256[]"
                },
                {
                  "internalType": "uint256[]",
                  "name": "weight",
                  "type": "uint256[]"
                }
              ],
              "internalType": "struct ICopyrightMaster.Edge",
              "name": "edge",
              "type": "tuple"
            }
          ],
          "indexed": false,
          "internalType": "struct ICopyrightMaster.Token",
          "name": "token",
          "type": "tuple"
        }
      ],
      "name": "AddTokenToGraph",
      "type": "event"
    },
    {
      "anonymous": false,
      "inputs": [
        {
          "indexed": false,
          "internalType": "uint256",
          "name": "id",
          "type": "uint256"
        },
        {
          "indexed": false,
          "internalType": "uint256",
          "name": "newWeight",
          "type": "uint256"
        }
      ],
      "name": "ChangeTokenWeight",
      "type": "event"
    },
    {
      "anonymous": false,
      "inputs": [
        {
          "indexed": false,
          "internalType": "uint256",
          "name": "id",
          "type": "uint256"
        },
        {
          "indexed": false,
          "internalType": "bool",
          "name": "isBlacklisted",
          "type": "bool"
        }
      ],
      "name": "TokenBlacklisted",
      "type": "event"
    },
    {
      "inputs": [
        {
          "internalType": "uint256",
          "name": "",
          "type": "uint256"
        }
      ],
      "name": "_idToTokenStruct",
      "outputs": [
        {
          "internalType": "uint256",
          "name": "weight",
          "type": "uint256"
        },
        {
          "internalType": "uint256",
          "name": "timeStamp",
          "type": "uint256"
        },
        {
          "internalType": "bool",
          "name": "isBlacklisted",
          "type": "bool"
        },
        {
          "components": [
            {
              "internalType": "uint256[]",
              "name": "to",
              "type": "uint256[]"
            },
            {
              "internalType": "uint256[]",
              "name": "weight",
              "type": "uint256[]"
            }
          ],
          "internalType": "struct ICopyrightMaster.Edge",
          "name": "edge",
          "type": "tuple"
        }
      ],
      "stateMutability": "view",
      "type": "function"
    },
    {
      "inputs": [
        {
          "internalType": "uint256",
          "name": "id",
          "type": "uint256"
        },
        {
          "internalType": "uint256",
          "name": "addToSet",
          "type": "uint256"
        }
      ],
      "name": "add",
      "outputs": [],
      "stateMutability": "nonpayable",
      "type": "function"
    },
    {
      "inputs": [
        {
          "internalType": "uint256",
          "name": "id",
          "type": "uint256"
        }
      ],
      "name": "bfsTraversal",
      "outputs": [],
      "stateMutability": "nonpayable",
      "type": "function"
    },
    {
      "inputs": [
        {
          "internalType": "uint256",
          "name": "id",
          "type": "uint256"
        },
        {
          "internalType": "bool",
          "name": "isBlacklisted",
          "type": "bool"
        }
      ],
      "name": "blacklistToken",
      "outputs": [],
      "stateMutability": "nonpayable",
      "type": "function"
    },
    {
      "inputs": [
        {
          "internalType": "uint256",
          "name": "id",
          "type": "uint256"
        },
        {
          "internalType": "uint256",
          "name": "newWeight",
          "type": "uint256"
        }
      ],
      "name": "changeTokenWeight",
      "outputs": [],
      "stateMutability": "nonpayable",
      "type": "function"
    },
    {
      "inputs": [
        {
          "internalType": "uint256",
          "name": "id",
          "type": "uint256"
        }
      ],
      "name": "clearSet",
      "outputs": [],
      "stateMutability": "nonpayable",
      "type": "function"
    },
    {
      "inputs": [],
      "name": "dequeue",
      "outputs": [
        {
          "internalType": "uint256",
          "name": "id",
          "type": "uint256"
        }
      ],
      "stateMutability": "nonpayable",
      "type": "function"
    },
    {
      "inputs": [],
      "name": "edgeCount",
      "outputs": [
        {
          "internalType": "uint256",
          "name": "",
          "type": "uint256"
        }
      ],
      "stateMutability": "view",
      "type": "function"
    },
    {
      "inputs": [
        {
          "internalType": "uint256",
          "name": "id",
          "type": "uint256"
        }
      ],
      "name": "edgeTo",
      "outputs": [
        {
          "internalType": "uint256[]",
          "name": "",
          "type": "uint256[]"
        }
      ],
      "stateMutability": "view",
      "type": "function"
    },
    {
      "inputs": [
        {
          "internalType": "uint256",
          "name": "id",
          "type": "uint256"
        }
      ],
      "name": "edgeWeights",
      "outputs": [
        {
          "internalType": "uint256[]",
          "name": "",
          "type": "uint256[]"
        }
      ],
      "stateMutability": "view",
      "type": "function"
    },
    {
      "inputs": [
        {
          "internalType": "uint256",
          "name": "id",
          "type": "uint256"
        }
      ],
      "name": "enqueue",
      "outputs": [],
      "stateMutability": "nonpayable",
      "type": "function"
    },
    {
      "inputs": [],
      "name": "getAdmin",
      "outputs": [
        {
          "internalType": "address",
          "name": "",
          "type": "address"
        }
      ],
      "stateMutability": "view",
      "type": "function"
    },
    {
      "inputs": [],
      "name": "getTokenRegisteredCount",
      "outputs": [
        {
          "internalType": "uint256",
          "name": "",
          "type": "uint256"
        }
      ],
      "stateMutability": "view",
      "type": "function"
    },
    {
      "inputs": [],
      "name": "getTotalEdgeCount",
      "outputs": [
        {
          "internalType": "uint256",
          "name": "",
          "type": "uint256"
        }
      ],
      "stateMutability": "view",
      "type": "function"
    },
    {
      "inputs": [
        {
          "internalType": "uint256[]",
          "name": "parentIds",
          "type": "uint256[]"
        },
        {
          "internalType": "uint256[]",
          "name": "parentWeights",
          "type": "uint256[]"
        },
        {
          "internalType": "uint256",
          "name": "id",
          "type": "uint256"
        }
      ],
      "name": "insertEdges",
      "outputs": [],
      "stateMutability": "nonpayable",
      "type": "function"
    },
    {
      "inputs": [
        {
          "internalType": "uint256[]",
          "name": "parentIds",
          "type": "uint256[]"
        },
        {
          "internalType": "uint256[]",
          "name": "parentWeights",
          "type": "uint256[]"
        },
        {
          "internalType": "uint256",
          "name": "id",
          "type": "uint256"
        },
        {
          "internalType": "uint256",
          "name": "weight",
          "type": "uint256"
        }
      ],
      "name": "insertToken",
      "outputs": [],
      "stateMutability": "nonpayable",
      "type": "function"
    },
    {
      "inputs": [
        {
          "internalType": "uint256",
          "name": "id",
          "type": "uint256"
        },
        {
          "internalType": "uint256[]",
          "name": "parentTokenIds",
          "type": "uint256[]"
        }
      ],
      "name": "isSubset",
      "outputs": [
        {
          "internalType": "bool",
          "name": "",
          "type": "bool"
        }
      ],
      "stateMutability": "pure",
      "type": "function"
    },
    {
      "inputs": [
        {
          "internalType": "uint256",
          "name": "id",
          "type": "uint256"
        },
        {
          "internalType": "uint256[512]",
          "name": "parentTokenIds",
          "type": "uint256[512]"
        }
      ],
      "name": "isSubsetSpecialMemory",
      "outputs": [
        {
          "internalType": "bool",
          "name": "",
          "type": "bool"
        }
      ],
      "stateMutability": "pure",
      "type": "function"
    },
    {
      "inputs": [],
      "name": "makeERC1155ForTesting",
      "outputs": [],
      "stateMutability": "nonpayable",
      "type": "function"
    },
    {
      "inputs": [
        {
          "internalType": "uint256",
          "name": "id",
          "type": "uint256"
        }
      ],
      "name": "returnEdge",
      "outputs": [
        {
          "components": [
            {
              "internalType": "uint256[]",
              "name": "to",
              "type": "uint256[]"
            },
            {
              "internalType": "uint256[]",
              "name": "weight",
              "type": "uint256[]"
            }
          ],
          "internalType": "struct ICopyrightMaster.Edge",
          "name": "edge",
          "type": "tuple"
        }
      ],
      "stateMutability": "view",
      "type": "function"
    },
    {
      "inputs": [
        {
          "components": [
            {
              "internalType": "uint256",
              "name": "weight",
              "type": "uint256"
            },
            {
              "internalType": "uint256",
              "name": "timeStamp",
              "type": "uint256"
            },
            {
              "internalType": "bool",
              "name": "isBlacklisted",
              "type": "bool"
            },
            {
              "components": [
                {
                  "internalType": "uint256[]",
                  "name": "to",
                  "type": "uint256[]"
                },
                {
                  "internalType": "uint256[]",
                  "name": "weight",
                  "type": "uint256[]"
                }
              ],
              "internalType": "struct ICopyrightMaster.Edge",
              "name": "edge",
              "type": "tuple"
            }
          ],
          "internalType": "struct ICopyrightMaster.Token",
          "name": "token",
          "type": "tuple"
        }
      ],
      "name": "returnId",
      "outputs": [
        {
          "internalType": "uint256",
          "name": "id",
          "type": "uint256"
        }
      ],
      "stateMutability": "pure",
      "type": "function"
    },
    {
      "inputs": [
        {
          "internalType": "uint256",
          "name": "id",
          "type": "uint256"
        }
      ],
      "name": "returnIsBlacklisted",
      "outputs": [
        {
          "internalType": "bool",
          "name": "isBlacklisted",
          "type": "bool"
        }
      ],
      "stateMutability": "view",
      "type": "function"
    },
    {
      "inputs": [
        {
          "internalType": "uint256",
          "name": "id",
          "type": "uint256"
        }
      ],
      "name": "returnTime",
      "outputs": [
        {
          "internalType": "uint256",
          "name": "timeStamp",
          "type": "uint256"
        }
      ],
      "stateMutability": "view",
      "type": "function"
    },
    {
      "inputs": [
        {
          "internalType": "uint256",
          "name": "id",
          "type": "uint256"
        }
      ],
      "name": "returnTokenWeight",
      "outputs": [
        {
          "internalType": "uint256",
          "name": "weight",
          "type": "uint256"
        }
      ],
      "stateMutability": "view",
      "type": "function"
    },
    {
      "inputs": [
        {
          "internalType": "uint256",
          "name": "id",
          "type": "uint256"
        }
      ],
      "name": "sortByTime",
      "outputs": [],
      "stateMutability": "nonpayable",
      "type": "function"
    },
    {
      "inputs": [],
      "name": "tokenCount",
      "outputs": [
        {
          "internalType": "uint256",
          "name": "",
          "type": "uint256"
        }
      ],
      "stateMutability": "view",
      "type": "function"
    },
    {
      "inputs": [
        {
          "internalType": "uint256",
          "name": "id",
          "type": "uint256"
        }
      ],
      "name": "tokenExists",
      "outputs": [
        {
          "internalType": "bool",
          "name": "exists",
          "type": "bool"
        }
      ],
      "stateMutability": "view",
      "type": "function"
    }
  ],
  "bytecode": "0x60806040526001805560006002556001600360006101000a81548160ff0219169083151502179055506000600855600060095534801561003e57600080fd5b5033600560006101000a81548173ffffffffffffffffffffffffffffffffffffffff021916908373ffffffffffffffffffffffffffffffffffffffff1602179055506135108061008f6000396000f3fe608060405234801561001057600080fd5b50600436106101a85760003560e01c8063957908d1116100f9578063beae494211610097578063d7753a6511610071578063d7753a6514610506578063d8be1fd414610510578063e8ca8c3e1461052c578063ee8a9fd61461055c576101a8565b8063beae49421461049e578063c9557449146104ba578063ce8b4afd146104ea576101a8565b8063a6c7c955116100d3578063a6c7c95514610418578063a913886114610448578063aca382a014610466578063b0f555ae14610482576101a8565b8063957908d1146103ac578063981ad468146103ca5780639f181b5e146103fa576101a8565b80635ee3c58811610166578063771602f711610140578063771602f714610311578063866fe41a1461032d57806389e0496f1461034957806394b908301461037c576101a8565b80635ee3c588146102a55780636cf61127146102c35780636e9960c3146102f3576101a8565b8062923f9e146101ad578063076fcc1f146101dd5780630b8e12fc146101f957806316b407a81461022957806318182eaa146102595780631ffc735d14610289575b600080fd5b6101c760048036038101906101c29190612576565b61057a565b6040516101d49190612a81565b60405180910390f35b6101f760048036038101906101f29190612680565b6105a3565b005b610213600480360381019061020e9190612576565b610758565b6040516102209190612cbe565b60405180910390f35b610243600480360381019061023e9190612576565b610778565b6040516102509190612cbe565b60405180910390f35b610273600480360381019061026e91906125a3565b610798565b6040516102809190612a81565b60405180910390f35b6102a3600480360381019061029e9190612576565b61080b565b005b6102ad61085c565b6040516102ba9190612cbe565b60405180910390f35b6102dd60048036038101906102d891906125e4565b610866565b6040516102ea9190612a81565b60405180910390f35b6102fb6108d8565b6040516103089190612a44565b60405180910390f35b61032b60048036038101906103269190612680565b610902565b005b6103476004803603810190610342919061248e565b6109fc565b005b610363600480360381019061035e9190612576565b610f57565b6040516103739493929190612cd9565b60405180910390f35b61039660048036038101906103919190612576565b61104e565b6040516103a39190612c9c565b60405180910390f35b6103b461112e565b6040516103c19190612cbe565b60405180910390f35b6103e460048036038101906103df9190612576565b6111b4565b6040516103f19190612a81565b60405180910390f35b6104026111e1565b60405161040f9190612cbe565b60405180910390f35b610432600480360381019061042d919061252d565b6111eb565b60405161043f9190612cbe565b60405180910390f35b6104506111f2565b60405161045d9190612cbe565b60405180910390f35b610480600480360381019061047b9190612576565b6111fc565b005b61049c60048036038101906104979190612576565b61135c565b005b6104b860048036038101906104b39190612403565b6114f5565b005b6104d460048036038101906104cf9190612576565b611c69565b6040516104e19190612a5f565b60405180910390f35b61050460048036038101906104ff9190612640565b611cda565b005b61050e611ed9565b005b61052a60048036038101906105259190612576565b611ff2565b005b61054660048036038101906105419190612576565b612069565b6040516105539190612a5f565b60405180910390f35b6105646120da565b6040516105719190612cbe565b60405180910390f35b60008060076000848152602001908152602001600020600101541461059e57600190505b919050565b600560009054906101000a900473ffffffffffffffffffffffffffffffffffffffff1673ffffffffffffffffffffffffffffffffffffffff163373ffffffffffffffffffffffffffffffffffffffff1614610633576040517f08c379a000000000000000000000000000000000000000000000000000000000815260040161062a90612c3c565b60405180910390fd5b816000811415610678576040517f08c379a000000000000000000000000000000000000000000000000000000000815260040161066f90612abc565b60405180910390fd5b600115156006600083815260200190815260200160002060009054906101000a900460ff161515146106df576040517f08c379a00000000000000000000000000000000000000000000000000000000081526004016106d690612a9c565b60405180910390fd5b6000600760008381526020019081526020016000206001015414610738576040517f08c379a000000000000000000000000000000000000000000000000000000000815260040161072f90612c1c565b60405180910390fd5b816007600085815260200190815260200160002060000181905550505050565b600060076000838152602001908152602001600020600101549050919050565b600060076000838152602001908152602001600020600001549050919050565b600080610200905060008114156107b3576000915050610805565b60005b6102008110156107fe5784848261020081106107d5576107d4612fa1565b5b602002015114156107eb57600192505050610805565b80806107f690612efa565b9150506107b6565b5060009150505b92915050565b60016002600082825461081e9190612df7565b925050819055506000600360006101000a81548160ff0219169083151502179055508060008060025481526020019081526020016000208190555050565b6000600854905090565b6000808251905060008114156108805760009150506108d2565b60005b818110156108cb578484828151811061089f5761089e612fa1565b5b602002602001015114156108b8576001925050506108d2565b80806108c390612efa565b915050610883565b5060009150505b92915050565b6000600560009054906101000a900473ffffffffffffffffffffffffffffffffffffffff16905090565b60046000838152602001908152602001600020600101600082815260200190815260200160002060009054906101000a900460ff166109bd57600160046000848152602001908152602001600020600101600083815260200190815260200160002060006101000a81548160ff021916908315150217905550600460008381526020019081526020016000206000018190806001815401808255809150506001900390600052602060002001600090919091909150556109f8565b6040517f08c379a00000000000000000000000000000000000000000000000000000000081526004016109ef90612b5c565b60405180910390fd5b5050565b600560009054906101000a900473ffffffffffffffffffffffffffffffffffffffff1673ffffffffffffffffffffffffffffffffffffffff163373ffffffffffffffffffffffffffffffffffffffff1614610a8c576040517f08c379a0000000000000000000000000000000000000000000000000000000008152600401610a8390612c3c565b60405180910390fd5b816000811415610ad1576040517f08c379a0000000000000000000000000000000000000000000000000000000008152600401610ac890612abc565b60405180910390fd5b600115156006600083815260200190815260200160002060009054906101000a900460ff16151514610b38576040517f08c379a0000000000000000000000000000000000000000000000000000000008152600401610b2f90612a9c565b60405180910390fd5b6000600760008381526020019081526020016000206001015414610b91576040517f08c379a0000000000000000000000000000000000000000000000000000000008152600401610b8890612c1c565b60405180910390fd5b8351855114610bd5576040517f08c379a0000000000000000000000000000000000000000000000000000000008152600401610bcc90612afc565b60405180910390fd5b60005b8551811015610e7b57610c0584878381518110610bf857610bf7612fa1565b5b6020026020010151610902565b6000868281518110610c1a57610c19612fa1565b5b60200260200101511415610c63576040517f08c379a0000000000000000000000000000000000000000000000000000000008152600401610c5a90612c5c565b60405180910390fd5b6001151560066000888481518110610c7e57610c7d612fa1565b5b6020026020010151815260200190815260200160002060009054906101000a900460ff16151514610ce4576040517f08c379a0000000000000000000000000000000000000000000000000000000008152600401610cdb90612c7c565b60405180910390fd5b600060076000888481518110610cfd57610cfc612fa1565b5b60200260200101518152602001908152602001600020600101541415610d58576040517f08c379a0000000000000000000000000000000000000000000000000000000008152600401610d4f90612bdc565b60405180910390fd5b848181518110610d6b57610d6a612fa1565b5b602002602001015160076000888481518110610d8a57610d89612fa1565b5b602002602001015181526020019081526020016000206000015414610de4576040517f08c379a0000000000000000000000000000000000000000000000000000000008152600401610ddb90612b7c565b60405180910390fd5b6000151560076000888481518110610dff57610dfe612fa1565b5b6020026020010151815260200190815260200160002060020160009054906101000a900460ff16151514610e68576040517f08c379a0000000000000000000000000000000000000000000000000000000008152600401610e5f90612b3c565b60405180910390fd5b8080610e7390612efa565b915050610bd8565b5060086000815480929190610e8f90612efa565b9190505550816007600085815260200190815260200160002060000181905550426007600085815260200190815260200160002060010181905550600085511415610ed957610f50565b845160096000828254610eec9190612df7565b9250508190555084600760008581526020019081526020016000206003016000019080519060200190610f209291906120e4565b5083600760008581526020019081526020016000206003016001019080519060200190610f4e9291906120e4565b505b5050505050565b60076020528060005260406000206000915090508060000154908060010154908060020160009054906101000a900460ff16908060030160405180604001604052908160008201805480602002602001604051908101604052809291908181526020018280548015610fe857602002820191906000526020600020905b815481526020019060010190808311610fd4575b505050505081526020016001820180548060200260200160405190810160405280929190818152602001828054801561104057602002820191906000526020600020905b81548152602001906001019080831161102c575b505050505081525050905084565b611056612131565b60076000838152602001908152602001600020600301604051806040016040529081600082018054806020026020016040519081016040528092919081815260200182805480156110c657602002820191906000526020600020905b8154815260200190600101908083116110b2575b505050505081526020016001820180548060200260200160405190810160405280929190818152602001828054801561111e57602002820191906000526020600020905b81548152602001906001019080831161110a575b5050505050815250509050919050565b6000600154600254101561114157600080fd5b60008060015481526020019081526020016000205490506002546001541415611180576001600360006101000a81548160ff0219169083151502179055505b60008060015481526020019081526020016000206000905560018060008282546111aa9190612df7565b9250508190555090565b60006007600083815260200190815260200160002060020160009054906101000a900460ff169050919050565b6000600854905090565b6000919050565b6000600954905090565b61120461214b565b600061120e61214b565b60006112198561080b565b60005b600360009054906101000a900460ff166113545761123861112e565b90506112448186610798565b61127557808585610200811061125d5761125c612fa1565b5b602002018181525050838061127190612efa565b9450505b60005b600760008381526020019081526020016000206003016000018054905081101561134e576112da6007600084815260200190815260200160002060030160000182815481106112ca576112c9612fa1565b5b906000526020600020015461080b565b60076000838152602001908152602001600020600301600101818154811061130557611304612fa1565b5b90600052602060002001548484610200811061132457611323612fa1565b5b602002018181525050828061133890612efa565b935050808061134690612efa565b915050611278565b5061121c565b505050505050565b600560009054906101000a900473ffffffffffffffffffffffffffffffffffffffff1673ffffffffffffffffffffffffffffffffffffffff163373ffffffffffffffffffffffffffffffffffffffff16146113ec576040517f08c379a00000000000000000000000000000000000000000000000000000000081526004016113e390612c3c565b60405180910390fd5b806000811415611431576040517f08c379a000000000000000000000000000000000000000000000000000000000815260040161142890612abc565b60405180910390fd5b600115156006600083815260200190815260200160002060009054906101000a900460ff16151514611498576040517f08c379a000000000000000000000000000000000000000000000000000000000815260040161148f90612a9c565b60405180910390fd5b60006007600083815260200190815260200160002060010154146114f1576040517f08c379a00000000000000000000000000000000000000000000000000000000081526004016114e890612c1c565b60405180910390fd5b5050565b600560009054906101000a900473ffffffffffffffffffffffffffffffffffffffff1673ffffffffffffffffffffffffffffffffffffffff163373ffffffffffffffffffffffffffffffffffffffff1614611585576040517f08c379a000000000000000000000000000000000000000000000000000000000815260040161157c90612c3c565b60405180910390fd5b60008114156115c9576040517f08c379a00000000000000000000000000000000000000000000000000000000081526004016115c090612abc565b60405180910390fd5b600115156006600083815260200190815260200160002060009054906101000a900460ff16151514611630576040517f08c379a000000000000000000000000000000000000000000000000000000000815260040161162790612a9c565b60405180910390fd5b60006007600083815260200190815260200160002060010154141561168a576040517f08c379a000000000000000000000000000000000000000000000000000000000815260040161168190612bbc565b60405180910390fd5b60008351141561169957611c64565b60005b835181101561193f576116c9828583815181106116bc576116bb612fa1565b5b6020026020010151610902565b60008482815181106116de576116dd612fa1565b5b60200260200101511415611727576040517f08c379a000000000000000000000000000000000000000000000000000000000815260040161171e90612c5c565b60405180910390fd5b600115156006600086848151811061174257611741612fa1565b5b6020026020010151815260200190815260200160002060009054906101000a900460ff161515146117a8576040517f08c379a000000000000000000000000000000000000000000000000000000000815260040161179f90612c7c565b60405180910390fd5b6000600760008684815181106117c1576117c0612fa1565b5b6020026020010151815260200190815260200160002060010154141561181c576040517f08c379a000000000000000000000000000000000000000000000000000000000815260040161181390612bfc565b60405180910390fd5b82818151811061182f5761182e612fa1565b5b60200260200101516007600086848151811061184e5761184d612fa1565b5b6020026020010151815260200190815260200160002060000154146118a8576040517f08c379a000000000000000000000000000000000000000000000000000000000815260040161189f90612b7c565b60405180910390fd5b60001515600760008684815181106118c3576118c2612fa1565b5b6020026020010151815260200190815260200160002060020160009054906101000a900460ff1615151461192c576040517f08c379a000000000000000000000000000000000000000000000000000000000815260040161192390612b3c565b60405180910390fd5b808061193790612efa565b91505061169c565b508151835114611984576040517f08c379a000000000000000000000000000000000000000000000000000000000815260040161197b90612afc565b60405180910390fd5b60006119908285610866565b905080156119d3576040517f08c379a00000000000000000000000000000000000000000000000000000000081526004016119ca90612adc565b60405180910390fd5b60005b8451811015611c615760005b6007600085815260200190815260200160002060030160000180549050811015611b3d57858281518110611a1957611a18612fa1565b5b6020026020010151600760008681526020019081526020016000206003016000018281548110611a4c57611a4b612fa1565b5b90600052602060002001541415611a98576040517f08c379a0000000000000000000000000000000000000000000000000000000008152600401611a8f90612b9c565b60405180910390fd5b8360076000888581518110611ab057611aaf612fa1565b5b602002602001015181526020019081526020016000206003016000018281548110611ade57611add612fa1565b5b90600052602060002001541415611b2a576040517f08c379a0000000000000000000000000000000000000000000000000000000008152600401611b2190612b1c565b60405180910390fd5b8080611b3590612efa565b9150506119e2565b5060096000815480929190611b5190612efa565b9190505550848181518110611b6957611b68612fa1565b5b60200260200101516007600085815260200190815260200160002060030160000160016007600087815260200190815260200160002060030160000180549050611bb39190612e4d565b81548110611bc457611bc3612fa1565b5b9060005260206000200181905550838181518110611be557611be4612fa1565b5b60200260200101516007600085815260200190815260200160002060030160010160016007600087815260200190815260200160002060030160010180549050611c2f9190612e4d565b81548110611c4057611c3f612fa1565b5b90600052602060002001819055508080611c5990612efa565b9150506119d6565b50505b505050565b606060076000838152602001908152602001600020600301600101805480602002602001604051908101604052809291908181526020018280548015611cce57602002820191906000526020600020905b815481526020019060010190808311611cba575b50505050509050919050565b600560009054906101000a900473ffffffffffffffffffffffffffffffffffffffff1673ffffffffffffffffffffffffffffffffffffffff163373ffffffffffffffffffffffffffffffffffffffff1614611d6a576040517f08c379a0000000000000000000000000000000000000000000000000000000008152600401611d6190612c3c565b60405180910390fd5b6000821415611dae576040517f08c379a0000000000000000000000000000000000000000000000000000000008152600401611da590612abc565b60405180910390fd5b600115156006600084815260200190815260200160002060009054906101000a900460ff16151514611e15576040517f08c379a0000000000000000000000000000000000000000000000000000000008152600401611e0c90612a9c565b60405180910390fd5b600060076000848152602001908152602001600020600101541415611e6f576040517f08c379a0000000000000000000000000000000000000000000000000000000008152600401611e6690612bbc565b60405180910390fd5b806007600084815260200190815260200160002060020160006101000a81548160ff021916908315150217905515611ea657611ed5565b806007600084815260200190815260200160002060020160006101000a81548160ff0219169083151502179055505b5050565b600560009054906101000a900473ffffffffffffffffffffffffffffffffffffffff1673ffffffffffffffffffffffffffffffffffffffff163373ffffffffffffffffffffffffffffffffffffffff1614611f69576040517f08c379a0000000000000000000000000000000000000000000000000000000008152600401611f6090612c3c565b60405180910390fd5b6001600660006001815260200190815260200160002060006101000a81548160ff0219169083151502179055506001600660006002815260200190815260200160002060006101000a81548160ff0219169083151502179055506001600660006003815260200190815260200160002060006101000a81548160ff021916908315150217905550565b60005b6004600083815260200190815260200160002060000180549050811015612065576004600083815260200190815260200160002060000180548061203c5761203b612f72565b5b60019003818190600052602060002001600090559055808061205d90612efa565b915050611ff5565b5050565b6060600760008381526020019081526020016000206003016000018054806020026020016040519081016040528092919081815260200182805480156120ce57602002820191906000526020600020905b8154815260200190600101908083116120ba575b50505050509050919050565b6000600954905090565b828054828255906000526020600020908101928215612120579160200282015b8281111561211f578251825591602001919060010190612104565b5b50905061212d919061216f565b5090565b604051806040016040528060608152602001606081525090565b60405180614000016040528061020090602082028036833780820191505090505090565b5b80821115612188576000816000905550600101612170565b5090565b600061219f61219a84612d4a565b612d25565b905080828560208602820111156121b9576121b861300e565b5b60005b858110156121e957816121cf88826123ee565b8452602084019350602083019250506001810190506121bc565b5050509392505050565b600061220661220184612d70565b612d25565b905080838252602082019050828560208602820111156122295761222861300e565b5b60005b85811015612259578161223f88826123ee565b84526020840193506020830192505060018101905061222c565b5050509392505050565b600082601f83011261227857612277612fff565b5b61020061228684828561218c565b91505092915050565b600082601f8301126122a4576122a3612fff565b5b81356122b48482602086016121f3565b91505092915050565b6000813590506122cc816134ac565b92915050565b6000604082840312156122e8576122e7613004565b5b6122f26040612d25565b9050600082013567ffffffffffffffff81111561231257612311613009565b5b61231e8482850161228f565b600083015250602082013567ffffffffffffffff81111561234257612341613009565b5b61234e8482850161228f565b60208301525092915050565b6000608082840312156123705761236f613004565b5b61237a6080612d25565b9050600061238a848285016123ee565b600083015250602061239e848285016123ee565b60208301525060406123b2848285016122bd565b604083015250606082013567ffffffffffffffff8111156123d6576123d5613009565b5b6123e2848285016122d2565b60608301525092915050565b6000813590506123fd816134c3565b92915050565b60008060006060848603121561241c5761241b613018565b5b600084013567ffffffffffffffff81111561243a57612439613013565b5b6124468682870161228f565b935050602084013567ffffffffffffffff81111561246757612466613013565b5b6124738682870161228f565b9250506040612484868287016123ee565b9150509250925092565b600080600080608085870312156124a8576124a7613018565b5b600085013567ffffffffffffffff8111156124c6576124c5613013565b5b6124d28782880161228f565b945050602085013567ffffffffffffffff8111156124f3576124f2613013565b5b6124ff8782880161228f565b9350506040612510878288016123ee565b9250506060612521878288016123ee565b91505092959194509250565b60006020828403121561254357612542613018565b5b600082013567ffffffffffffffff81111561256157612560613013565b5b61256d8482850161235a565b91505092915050565b60006020828403121561258c5761258b613018565b5b600061259a848285016123ee565b91505092915050565b60008061402083850312156125bb576125ba613018565b5b60006125c9858286016123ee565b92505060206125da85828601612263565b9150509250929050565b600080604083850312156125fb576125fa613018565b5b6000612609858286016123ee565b925050602083013567ffffffffffffffff81111561262a57612629613013565b5b6126368582860161228f565b9150509250929050565b6000806040838503121561265757612656613018565b5b6000612665858286016123ee565b9250506020612676858286016122bd565b9150509250929050565b6000806040838503121561269757612696613018565b5b60006126a5858286016123ee565b92505060206126b6858286016123ee565b9150509250929050565b60006126cc8383612a26565b60208301905092915050565b6126e181612e81565b82525050565b60006126f282612dac565b6126fc8185612dc4565b935061270783612d9c565b8060005b8381101561273857815161271f88826126c0565b975061272a83612db7565b92505060018101905061270b565b5085935050505092915050565b600061275082612dac565b61275a8185612dd5565b935061276583612d9c565b8060005b8381101561279657815161277d88826126c0565b975061278883612db7565b925050600181019050612769565b5085935050505092915050565b6127ac81612e93565b82525050565b60006127bf602c83612de6565b91506127ca8261302e565b604082019050919050565b60006127e2601b83612de6565b91506127ed8261307d565b602082019050919050565b6000612805602c83612de6565b9150612810826130a6565b604082019050919050565b6000612828603783612de6565b9150612833826130f5565b604082019050919050565b600061284b602483612de6565b915061285682613144565b604082019050919050565b600061286e603a83612de6565b915061287982613193565b604082019050919050565b6000612891603383612de6565b915061289c826131e2565b604082019050919050565b60006128b4603483612de6565b91506128bf82613231565b604082019050919050565b60006128d7603c83612de6565b91506128e282613280565b604082019050919050565b60006128fa601f83612de6565b9150612905826132cf565b602082019050919050565b600061291d602d83612de6565b9150612928826132f8565b604082019050919050565b6000612940602b83612de6565b915061294b82613347565b604082019050919050565b6000612963602483612de6565b915061296e82613396565b604082019050919050565b6000612986601383612de6565b9150612991826133e5565b602082019050919050565b60006129a9602183612de6565b91506129b48261340e565b604082019050919050565b60006129cc602f83612de6565b91506129d78261345d565b604082019050919050565b600060408301600083015184820360008601526129ff82826126e7565b91505060208301518482036020860152612a1982826126e7565b9150508091505092915050565b612a2f81612ebf565b82525050565b612a3e81612ebf565b82525050565b6000602082019050612a5960008301846126d8565b92915050565b60006020820190508181036000830152612a798184612745565b905092915050565b6000602082019050612a9660008301846127a3565b92915050565b60006020820190508181036000830152612ab5816127b2565b9050919050565b60006020820190508181036000830152612ad5816127d5565b9050919050565b60006020820190508181036000830152612af5816127f8565b9050919050565b60006020820190508181036000830152612b158161281b565b9050919050565b60006020820190508181036000830152612b358161283e565b9050919050565b60006020820190508181036000830152612b5581612861565b9050919050565b60006020820190508181036000830152612b7581612884565b9050919050565b60006020820190508181036000830152612b95816128a7565b9050919050565b60006020820190508181036000830152612bb5816128ca565b9050919050565b60006020820190508181036000830152612bd5816128ed565b9050919050565b60006020820190508181036000830152612bf581612910565b9050919050565b60006020820190508181036000830152612c1581612933565b9050919050565b60006020820190508181036000830152612c3581612956565b9050919050565b60006020820190508181036000830152612c5581612979565b9050919050565b60006020820190508181036000830152612c758161299c565b9050919050565b60006020820190508181036000830152612c95816129bf565b9050919050565b60006020820190508181036000830152612cb681846129e2565b905092915050565b6000602082019050612cd36000830184612a35565b92915050565b6000608082019050612cee6000830187612a35565b612cfb6020830186612a35565b612d0860408301856127a3565b8181036060830152612d1a81846129e2565b905095945050505050565b6000612d2f612d40565b9050612d3b8282612ec9565b919050565b6000604051905090565b600067ffffffffffffffff821115612d6557612d64612fd0565b5b602082029050919050565b600067ffffffffffffffff821115612d8b57612d8a612fd0565b5b602082029050602081019050919050565b6000819050602082019050919050565b600081519050919050565b6000602082019050919050565b600082825260208201905092915050565b600082825260208201905092915050565b600082825260208201905092915050565b6000612e0282612ebf565b9150612e0d83612ebf565b9250827fffffffffffffffffffffffffffffffffffffffffffffffffffffffffffffffff03821115612e4257612e41612f43565b5b828201905092915050565b6000612e5882612ebf565b9150612e6383612ebf565b925082821015612e7657612e75612f43565b5b828203905092915050565b6000612e8c82612e9f565b9050919050565b60008115159050919050565b600073ffffffffffffffffffffffffffffffffffffffff82169050919050565b6000819050919050565b612ed28261301d565b810181811067ffffffffffffffff82111715612ef157612ef0612fd0565b5b80604052505050565b6000612f0582612ebf565b91507fffffffffffffffffffffffffffffffffffffffffffffffffffffffffffffffff821415612f3857612f37612f43565b5b600182019050919050565b7f4e487b7100000000000000000000000000000000000000000000000000000000600052601160045260246000fd5b7f4e487b7100000000000000000000000000000000000000000000000000000000600052603160045260246000fd5b7f4e487b7100000000000000000000000000000000000000000000000000000000600052603260045260246000fd5b7f4e487b7100000000000000000000000000000000000000000000000000000000600052604160045260246000fd5b600080fd5b600080fd5b600080fd5b600080fd5b600080fd5b600080fd5b6000601f19601f8301169050919050565b7f54686520746f6b656e206973206e6f742061207265676973746572656420455260008201527f43203131353520746f6b656e0000000000000000000000000000000000000000602082015250565b7f54686520746f6b656e2049442063616e6e6f74206265207a65726f0000000000600082015250565b7f546f6b656e49442063616e6e6f74206265206120737562736574206f6620706160008201527f72656e74546f6b656e4944730000000000000000000000000000000000000000602082015250565b7f546865206c656e677468206f6620706172656e742049647320616e642077656960008201527f676874732073686f756c64206265207468652073616d65000000000000000000602082015250565b7f4572726f723a20616e206772617068206c6f6f702077696c6c2062652063726560008201527f6174656400000000000000000000000000000000000000000000000000000000602082015250565b7f4120706172656e7420494420697320626c61636b6c697374656420736f20746860008201527f69732070726f636573732063616e6e6f7420636f6e74696e7565000000000000602082015250565b7f412076616c756520796f752061726520696e70757474696e6720696e6469636160008201527f746573206120627265616b206f66207365742e00000000000000000000000000602082015250565b7f4120706172656e7420696420646f6573206e6f7420636f6f7265736f6e64207460008201527f6f2074686520636f727265637420776569676874000000000000000000000000602082015250565b7f4572726f723a204564676520636f6e6e656374696f6e20796f7520617265207460008201527f7279696e6720746f2061646420616c6c72656164792065786973747300000000602082015250565b7f494420686173206e6f74206265656e20616464656420746f2067726170682e00600082015250565b7f4120706172656e7420746f6b656e20494420686173206e6f74206265656e206160008201527f6464656420746f20677261706800000000000000000000000000000000000000602082015250565b7f706172656e7420746f6b656e20494420686173206e6f74206265656e2061646460008201527f656420746f206772617068000000000000000000000000000000000000000000602082015250565b7f49442068617320616c6c7265616479206265656e20616464656420746f20677260008201527f6170682e00000000000000000000000000000000000000000000000000000000602082015250565b7f55736572206d7573742062652061646d696e2e00000000000000000000000000600082015250565b7f54686520746f6b656e204944206f66206120706172656e74206973207a65726f60008201527f2e00000000000000000000000000000000000000000000000000000000000000602082015250565b7f4120706172656e7420746f6b656e206973206e6f74206120726567697374656460008201527f20455243203131353520746f6b656e0000000000000000000000000000000000602082015250565b6134b581612e93565b81146134c057600080fd5b50565b6134cc81612ebf565b81146134d757600080fd5b5056fea2646970667358221220ecfe2f7d711236349024d3a4867ea1a7b4e75bb48103816b944879c7e1d6c32664736f6c63430008060033",
  "linkReferences": {},
  "deployedLinkReferences": {}
}