{
  "_format": "hh-sol-artifact-1",
  "contractName": "copyrightGraph",
  "sourceName": "contracts/copyrightMaster.sol",
  "abi": [
    {
      "inputs": [],
      "stateMutability": "nonpayable",
      "type": "constructor"
    },
    {
      "anonymous": false,
      "inputs": [
        {
          "components": [
            {
              "internalType": "uint256",
              "name": "weight",
              "type": "uint256"
            },
            {
              "internalType": "uint256",
              "name": "timeStamp",
              "type": "uint256"
            },
            {
              "internalType": "bool",
              "name": "isBlacklisted",
              "type": "bool"
            },
            {
              "components": [
                {
                  "internalType": "uint256[]",
                  "name": "to",
                  "type": "uint256[]"
                },
                {
                  "internalType": "uint256[]",
                  "name": "weight",
                  "type": "uint256[]"
                }
              ],
              "internalType": "struct ICopyrightMaster.Edge",
              "name": "edge",
              "type": "tuple"
            }
          ],
          "indexed": false,
          "internalType": "struct ICopyrightMaster.Token",
          "name": "token",
          "type": "tuple"
        }
      ],
      "name": "AddTokenToGraph",
      "type": "event"
    },
    {
      "anonymous": false,
      "inputs": [
        {
          "indexed": false,
          "internalType": "uint256",
          "name": "id",
          "type": "uint256"
        },
        {
          "indexed": false,
          "internalType": "uint256",
          "name": "newWeight",
          "type": "uint256"
        }
      ],
      "name": "ChangeTokenWeight",
      "type": "event"
    },
    {
      "anonymous": false,
      "inputs": [
        {
          "indexed": false,
          "internalType": "uint256",
          "name": "id",
          "type": "uint256"
        },
        {
          "indexed": false,
          "internalType": "bool",
          "name": "isBlacklisted",
          "type": "bool"
        }
      ],
      "name": "TokenBlacklisted",
      "type": "event"
    },
    {
      "inputs": [
        {
          "internalType": "uint256",
          "name": "",
          "type": "uint256"
        }
      ],
      "name": "_idToTokenStruct",
      "outputs": [
        {
          "internalType": "uint256",
          "name": "weight",
          "type": "uint256"
        },
        {
          "internalType": "uint256",
          "name": "timeStamp",
          "type": "uint256"
        },
        {
          "internalType": "bool",
          "name": "isBlacklisted",
          "type": "bool"
        },
        {
          "components": [
            {
              "internalType": "uint256[]",
              "name": "to",
              "type": "uint256[]"
            },
            {
              "internalType": "uint256[]",
              "name": "weight",
              "type": "uint256[]"
            }
          ],
          "internalType": "struct ICopyrightMaster.Edge",
          "name": "edge",
          "type": "tuple"
        }
      ],
      "stateMutability": "view",
      "type": "function"
    },
    {
      "inputs": [
        {
          "internalType": "uint256",
          "name": "a",
          "type": "uint256"
        }
      ],
      "name": "add",
      "outputs": [],
      "stateMutability": "nonpayable",
      "type": "function"
    },
    {
      "inputs": [
        {
          "internalType": "uint256",
          "name": "id",
          "type": "uint256"
        }
      ],
      "name": "bfsTraversal",
      "outputs": [],
      "stateMutability": "nonpayable",
      "type": "function"
    },
    {
      "inputs": [
        {
          "internalType": "uint256",
          "name": "id",
          "type": "uint256"
        },
        {
          "internalType": "bool",
          "name": "isBlacklisted",
          "type": "bool"
        }
      ],
      "name": "blacklistToken",
      "outputs": [],
      "stateMutability": "nonpayable",
      "type": "function"
    },
    {
      "inputs": [
        {
          "internalType": "uint256",
          "name": "id",
          "type": "uint256"
        },
        {
          "internalType": "uint256",
          "name": "newWeight",
          "type": "uint256"
        }
      ],
      "name": "changeTokenWeight",
      "outputs": [],
      "stateMutability": "nonpayable",
      "type": "function"
    },
    {
      "inputs": [],
      "name": "clearSet",
      "outputs": [],
      "stateMutability": "nonpayable",
      "type": "function"
    },
    {
      "inputs": [],
      "name": "dequeue",
      "outputs": [
        {
          "internalType": "uint256",
          "name": "id",
          "type": "uint256"
        }
      ],
      "stateMutability": "nonpayable",
      "type": "function"
    },
    {
      "inputs": [],
      "name": "edgeCount",
      "outputs": [
        {
          "internalType": "uint256",
          "name": "",
          "type": "uint256"
        }
      ],
      "stateMutability": "view",
      "type": "function"
    },
    {
      "inputs": [
        {
          "internalType": "uint256",
          "name": "id",
          "type": "uint256"
        }
      ],
      "name": "edgeTo",
      "outputs": [
        {
          "internalType": "uint256[]",
          "name": "",
          "type": "uint256[]"
        }
      ],
      "stateMutability": "view",
      "type": "function"
    },
    {
      "inputs": [
        {
          "internalType": "uint256",
          "name": "id",
          "type": "uint256"
        }
      ],
      "name": "edgeWeights",
      "outputs": [
        {
          "internalType": "uint256[]",
          "name": "",
          "type": "uint256[]"
        }
      ],
      "stateMutability": "view",
      "type": "function"
    },
    {
      "inputs": [
        {
          "internalType": "uint256",
          "name": "id",
          "type": "uint256"
        }
      ],
      "name": "enqueue",
      "outputs": [],
      "stateMutability": "nonpayable",
      "type": "function"
    },
    {
      "inputs": [],
      "name": "getAdmin",
      "outputs": [
        {
          "internalType": "address",
          "name": "",
          "type": "address"
        }
      ],
      "stateMutability": "view",
      "type": "function"
    },
    {
      "inputs": [],
      "name": "getTokenRegisteredCount",
      "outputs": [
        {
          "internalType": "uint256",
          "name": "",
          "type": "uint256"
        }
      ],
      "stateMutability": "view",
      "type": "function"
    },
    {
      "inputs": [],
      "name": "getTotalEdgeCount",
      "outputs": [
        {
          "internalType": "uint256",
          "name": "",
          "type": "uint256"
        }
      ],
      "stateMutability": "view",
      "type": "function"
    },
    {
      "inputs": [
        {
          "internalType": "uint256[]",
          "name": "parentIds",
          "type": "uint256[]"
        },
        {
          "internalType": "uint256[]",
          "name": "parentWeights",
          "type": "uint256[]"
        },
        {
          "internalType": "uint256",
          "name": "id",
          "type": "uint256"
        }
      ],
      "name": "insertEdges",
      "outputs": [],
      "stateMutability": "nonpayable",
      "type": "function"
    },
    {
      "inputs": [
        {
          "internalType": "uint256[]",
          "name": "parentIds",
          "type": "uint256[]"
        },
        {
          "internalType": "uint256[]",
          "name": "parentWeights",
          "type": "uint256[]"
        },
        {
          "internalType": "uint256",
          "name": "id",
          "type": "uint256"
        },
        {
          "internalType": "uint256",
          "name": "weight",
          "type": "uint256"
        }
      ],
      "name": "insertToken",
      "outputs": [],
      "stateMutability": "nonpayable",
      "type": "function"
    },
    {
      "inputs": [
        {
          "internalType": "uint256",
          "name": "id",
          "type": "uint256"
        },
        {
          "internalType": "uint256[]",
          "name": "parentTokenIds",
          "type": "uint256[]"
        }
      ],
      "name": "isSubset",
      "outputs": [
        {
          "internalType": "bool",
          "name": "",
          "type": "bool"
        }
      ],
      "stateMutability": "pure",
      "type": "function"
    },
    {
      "inputs": [
        {
          "internalType": "uint256",
          "name": "id",
          "type": "uint256"
        },
        {
          "internalType": "uint256[512]",
          "name": "parentTokenIds",
          "type": "uint256[512]"
        }
      ],
      "name": "isSubsetSpecialMemory",
      "outputs": [
        {
          "internalType": "bool",
          "name": "",
          "type": "bool"
        }
      ],
      "stateMutability": "pure",
      "type": "function"
    },
    {
      "inputs": [],
      "name": "makeERC1155ForTesting",
      "outputs": [],
      "stateMutability": "nonpayable",
      "type": "function"
    },
    {
      "inputs": [
        {
          "internalType": "uint256",
          "name": "id",
          "type": "uint256"
        }
      ],
      "name": "returnEdge",
      "outputs": [
        {
          "components": [
            {
              "internalType": "uint256[]",
              "name": "to",
              "type": "uint256[]"
            },
            {
              "internalType": "uint256[]",
              "name": "weight",
              "type": "uint256[]"
            }
          ],
          "internalType": "struct ICopyrightMaster.Edge",
          "name": "edge",
          "type": "tuple"
        }
      ],
      "stateMutability": "view",
      "type": "function"
    },
    {
      "inputs": [
        {
          "components": [
            {
              "internalType": "uint256",
              "name": "weight",
              "type": "uint256"
            },
            {
              "internalType": "uint256",
              "name": "timeStamp",
              "type": "uint256"
            },
            {
              "internalType": "bool",
              "name": "isBlacklisted",
              "type": "bool"
            },
            {
              "components": [
                {
                  "internalType": "uint256[]",
                  "name": "to",
                  "type": "uint256[]"
                },
                {
                  "internalType": "uint256[]",
                  "name": "weight",
                  "type": "uint256[]"
                }
              ],
              "internalType": "struct ICopyrightMaster.Edge",
              "name": "edge",
              "type": "tuple"
            }
          ],
          "internalType": "struct ICopyrightMaster.Token",
          "name": "token",
          "type": "tuple"
        }
      ],
      "name": "returnId",
      "outputs": [
        {
          "internalType": "uint256",
          "name": "id",
          "type": "uint256"
        }
      ],
      "stateMutability": "pure",
      "type": "function"
    },
    {
      "inputs": [
        {
          "internalType": "uint256",
          "name": "id",
          "type": "uint256"
        }
      ],
      "name": "returnIsBlacklisted",
      "outputs": [
        {
          "internalType": "bool",
          "name": "isBlacklisted",
          "type": "bool"
        }
      ],
      "stateMutability": "view",
      "type": "function"
    },
    {
      "inputs": [
        {
          "internalType": "uint256",
          "name": "id",
          "type": "uint256"
        }
      ],
      "name": "returnTime",
      "outputs": [
        {
          "internalType": "uint256",
          "name": "timeStamp",
          "type": "uint256"
        }
      ],
      "stateMutability": "view",
      "type": "function"
    },
    {
      "inputs": [
        {
          "internalType": "uint256",
          "name": "id",
          "type": "uint256"
        }
      ],
      "name": "returnTokenWeight",
      "outputs": [
        {
          "internalType": "uint256",
          "name": "weight",
          "type": "uint256"
        }
      ],
      "stateMutability": "view",
      "type": "function"
    },
    {
      "inputs": [
        {
          "internalType": "uint256",
          "name": "id",
          "type": "uint256"
        }
      ],
      "name": "sortByTime",
      "outputs": [],
      "stateMutability": "nonpayable",
      "type": "function"
    },
    {
      "inputs": [],
      "name": "tokenCount",
      "outputs": [
        {
          "internalType": "uint256",
          "name": "",
          "type": "uint256"
        }
      ],
      "stateMutability": "view",
      "type": "function"
    },
    {
      "inputs": [
        {
          "internalType": "uint256",
          "name": "id",
          "type": "uint256"
        }
      ],
      "name": "tokenExists",
      "outputs": [
        {
          "internalType": "bool",
          "name": "exists",
          "type": "bool"
        }
      ],
      "stateMutability": "view",
      "type": "function"
    }
  ],
  "bytecode": "0x60806040526001805560006002556001600360006101000a81548160ff02191690831515021790555060006009556000600a5534801561003e57600080fd5b5033600660006101000a81548173ffffffffffffffffffffffffffffffffffffffff021916908373ffffffffffffffffffffffffffffffffffffffff1602179055506135038061008f6000396000f3fe608060405234801561001057600080fd5b50600436106101a85760003560e01c8063957908d1116100f9578063beae494211610097578063ce8b4afd11610071578063ce8b4afd146104f4578063d7753a6514610510578063e8ca8c3e1461051a578063ee8a9fd61461054a576101a8565b8063beae49421461049e578063c2ca4bcc146104ba578063c9557449146104c4576101a8565b8063a6c7c955116100d3578063a6c7c95514610418578063a913886114610448578063aca382a014610466578063b0f555ae14610482576101a8565b8063957908d1146103ac578063981ad468146103ca5780639f181b5e146103fa576101a8565b80631ffc735d116101665780636e9960c3116101405780636e9960c31461030f578063866fe41a1461032d57806389e0496f1461034957806394b908301461037c576101a8565b80631ffc735d146102a55780635ee3c588146102c15780636cf61127146102df576101a8565b8062923f9e146101ad578063076fcc1f146101dd5780630b8e12fc146101f95780631003e2d21461022957806316b407a81461024557806318182eaa14610275575b600080fd5b6101c760048036038101906101c2919061250b565b610568565b6040516101d49190612a39565b60405180910390f35b6101f760048036038101906101f29190612615565b610591565b005b610213600480360381019061020e919061250b565b610746565b6040516102209190612c96565b60405180910390f35b610243600480360381019061023e919061250b565b610766565b005b61025f600480360381019061025a919061250b565b61082c565b60405161026c9190612c96565b60405180910390f35b61028f600480360381019061028a9190612538565b61084c565b60405161029c9190612a39565b60405180910390f35b6102bf60048036038101906102ba919061250b565b6108bf565b005b6102c9610910565b6040516102d69190612c96565b60405180910390f35b6102f960048036038101906102f49190612579565b61091a565b6040516103069190612a39565b60405180910390f35b61031761098c565b60405161032491906129fc565b60405180910390f35b61034760048036038101906103429190612423565b6109b6565b005b610363600480360381019061035e919061250b565b610f10565b6040516103739493929190612cb1565b60405180910390f35b6103966004803603810190610391919061250b565b611007565b6040516103a39190612c74565b60405180910390f35b6103b46110e7565b6040516103c19190612c96565b60405180910390f35b6103e460048036038101906103df919061250b565b61116d565b6040516103f19190612a39565b60405180910390f35b61040261119a565b60405161040f9190612c96565b60405180910390f35b610432600480360381019061042d91906124c2565b6111a4565b60405161043f9190612c96565b60405180910390f35b6104506111ab565b60405161045d9190612c96565b60405180910390f35b610480600480360381019061047b919061250b565b6111b5565b005b61049c6004803603810190610497919061250b565b611315565b005b6104b860048036038101906104b39190612398565b6114ae565b005b6104c2611c21565b005b6104de60048036038101906104d9919061250b565b611c75565b6040516104eb9190612a17565b60405180910390f35b61050e600480360381019061050991906125d5565b611ce6565b005b610518611ee5565b005b610534600480360381019061052f919061250b565b611ffe565b6040516105419190612a17565b60405180910390f35b61055261206f565b60405161055f9190612c96565b60405180910390f35b60008060086000848152602001908152602001600020600101541461058c57600190505b919050565b600660009054906101000a900473ffffffffffffffffffffffffffffffffffffffff1673ffffffffffffffffffffffffffffffffffffffff163373ffffffffffffffffffffffffffffffffffffffff1614610621576040517f08c379a000000000000000000000000000000000000000000000000000000000815260040161061890612c14565b60405180910390fd5b816000811415610666576040517f08c379a000000000000000000000000000000000000000000000000000000000815260040161065d90612a74565b60405180910390fd5b600115156007600083815260200190815260200160002060009054906101000a900460ff161515146106cd576040517f08c379a00000000000000000000000000000000000000000000000000000000081526004016106c490612a54565b60405180910390fd5b6000600860008381526020019081526020016000206001015414610726576040517f08c379a000000000000000000000000000000000000000000000000000000000815260040161071d90612bf4565b60405180910390fd5b816008600085815260200190815260200160002060000181905550505050565b600060086000838152602001908152602001600020600101549050919050565b6004600101600082815260200190815260200160002060009054906101000a900460ff166107ee5760016004600101600083815260200190815260200160002060006101000a81548160ff0219169083151502179055506004600001819080600181540180825580915050600190039060005260206000200160009091909190915055610829565b6040517f08c379a000000000000000000000000000000000000000000000000000000000815260040161082090612ab4565b60405180910390fd5b50565b600060086000838152602001908152602001600020600001549050919050565b600080610200905060008114156108675760009150506108b9565b60005b6102008110156108b257848482610200811061088957610888612f45565b5b6020020151141561089f576001925050506108b9565b80806108aa90612e9e565b91505061086a565b5060009150505b92915050565b6001600260008282546108d29190612dcf565b925050819055506000600360006101000a81548160ff0219169083151502179055508060008060025481526020019081526020016000208190555050565b6000600954905090565b600080825190506000811415610934576000915050610986565b60005b8181101561097f578484828151811061095357610952612f45565b5b6020026020010151141561096c57600192505050610986565b808061097790612e9e565b915050610937565b5060009150505b92915050565b6000600660009054906101000a900473ffffffffffffffffffffffffffffffffffffffff16905090565b600660009054906101000a900473ffffffffffffffffffffffffffffffffffffffff1673ffffffffffffffffffffffffffffffffffffffff163373ffffffffffffffffffffffffffffffffffffffff1614610a46576040517f08c379a0000000000000000000000000000000000000000000000000000000008152600401610a3d90612c14565b60405180910390fd5b816000811415610a8b576040517f08c379a0000000000000000000000000000000000000000000000000000000008152600401610a8290612a74565b60405180910390fd5b600115156007600083815260200190815260200160002060009054906101000a900460ff16151514610af2576040517f08c379a0000000000000000000000000000000000000000000000000000000008152600401610ae990612a54565b60405180910390fd5b6000600860008381526020019081526020016000206001015414610b4b576040517f08c379a0000000000000000000000000000000000000000000000000000000008152600401610b4290612bf4565b60405180910390fd5b8351855114610b8f576040517f08c379a0000000000000000000000000000000000000000000000000000000008152600401610b8690612ad4565b60405180910390fd5b60005b8551811015610e3457610bbe868281518110610bb157610bb0612f45565b5b6020026020010151610766565b6000868281518110610bd357610bd2612f45565b5b60200260200101511415610c1c576040517f08c379a0000000000000000000000000000000000000000000000000000000008152600401610c1390612c34565b60405180910390fd5b6001151560076000888481518110610c3757610c36612f45565b5b6020026020010151815260200190815260200160002060009054906101000a900460ff16151514610c9d576040517f08c379a0000000000000000000000000000000000000000000000000000000008152600401610c9490612c54565b60405180910390fd5b600060086000888481518110610cb657610cb5612f45565b5b60200260200101518152602001908152602001600020600101541415610d11576040517f08c379a0000000000000000000000000000000000000000000000000000000008152600401610d0890612bb4565b60405180910390fd5b848181518110610d2457610d23612f45565b5b602002602001015160086000888481518110610d4357610d42612f45565b5b602002602001015181526020019081526020016000206000015414610d9d576040517f08c379a0000000000000000000000000000000000000000000000000000000008152600401610d9490612b34565b60405180910390fd5b6000151560086000888481518110610db857610db7612f45565b5b6020026020010151815260200190815260200160002060020160009054906101000a900460ff16151514610e21576040517f08c379a0000000000000000000000000000000000000000000000000000000008152600401610e1890612b14565b60405180910390fd5b8080610e2c90612e9e565b915050610b92565b5060096000815480929190610e4890612e9e565b9190505550816008600085815260200190815260200160002060000181905550426008600085815260200190815260200160002060010181905550600085511415610e9257610f09565b8451600a6000828254610ea59190612dcf565b9250508190555084600860008581526020019081526020016000206003016000019080519060200190610ed9929190612079565b5083600860008581526020019081526020016000206003016001019080519060200190610f07929190612079565b505b5050505050565b60086020528060005260406000206000915090508060000154908060010154908060020160009054906101000a900460ff16908060030160405180604001604052908160008201805480602002602001604051908101604052809291908181526020018280548015610fa157602002820191906000526020600020905b815481526020019060010190808311610f8d575b5050505050815260200160018201805480602002602001604051908101604052809291908181526020018280548015610ff957602002820191906000526020600020905b815481526020019060010190808311610fe5575b505050505081525050905084565b61100f6120c6565b600860008381526020019081526020016000206003016040518060400160405290816000820180548060200260200160405190810160405280929190818152602001828054801561107f57602002820191906000526020600020905b81548152602001906001019080831161106b575b50505050508152602001600182018054806020026020016040519081016040528092919081815260200182805480156110d757602002820191906000526020600020905b8154815260200190600101908083116110c3575b5050505050815250509050919050565b600060015460025410156110fa57600080fd5b60008060015481526020019081526020016000205490506002546001541415611139576001600360006101000a81548160ff0219169083151502179055505b60008060015481526020019081526020016000206000905560018060008282546111639190612dcf565b9250508190555090565b60006008600083815260200190815260200160002060020160009054906101000a900460ff169050919050565b6000600954905090565b6000919050565b6000600a54905090565b6111bd6120e0565b60006111c76120e0565b60006111d2856108bf565b60005b600360009054906101000a900460ff1661130d576111f16110e7565b90506111fd818661084c565b61122e57808585610200811061121657611215612f45565b5b602002018181525050838061122a90612e9e565b9450505b60005b60086000838152602001908152602001600020600301600001805490508110156113075761129360086000848152602001908152602001600020600301600001828154811061128357611282612f45565b5b90600052602060002001546108bf565b6008600083815260200190815260200160002060030160010181815481106112be576112bd612f45565b5b9060005260206000200154848461020081106112dd576112dc612f45565b5b60200201818152505082806112f190612e9e565b93505080806112ff90612e9e565b915050611231565b506111d5565b505050505050565b600660009054906101000a900473ffffffffffffffffffffffffffffffffffffffff1673ffffffffffffffffffffffffffffffffffffffff163373ffffffffffffffffffffffffffffffffffffffff16146113a5576040517f08c379a000000000000000000000000000000000000000000000000000000000815260040161139c90612c14565b60405180910390fd5b8060008114156113ea576040517f08c379a00000000000000000000000000000000000000000000000000000000081526004016113e190612a74565b60405180910390fd5b600115156007600083815260200190815260200160002060009054906101000a900460ff16151514611451576040517f08c379a000000000000000000000000000000000000000000000000000000000815260040161144890612a54565b60405180910390fd5b60006008600083815260200190815260200160002060010154146114aa576040517f08c379a00000000000000000000000000000000000000000000000000000000081526004016114a190612bf4565b60405180910390fd5b5050565b600660009054906101000a900473ffffffffffffffffffffffffffffffffffffffff1673ffffffffffffffffffffffffffffffffffffffff163373ffffffffffffffffffffffffffffffffffffffff161461153e576040517f08c379a000000000000000000000000000000000000000000000000000000000815260040161153590612c14565b60405180910390fd5b6000811415611582576040517f08c379a000000000000000000000000000000000000000000000000000000000815260040161157990612a74565b60405180910390fd5b600115156007600083815260200190815260200160002060009054906101000a900460ff161515146115e9576040517f08c379a00000000000000000000000000000000000000000000000000000000081526004016115e090612a54565b60405180910390fd5b600060086000838152602001908152602001600020600101541415611643576040517f08c379a000000000000000000000000000000000000000000000000000000000815260040161163a90612b94565b60405180910390fd5b60008351141561165257611c1c565b60005b83518110156118f75761168184828151811061167457611673612f45565b5b6020026020010151610766565b600084828151811061169657611695612f45565b5b602002602001015114156116df576040517f08c379a00000000000000000000000000000000000000000000000000000000081526004016116d690612c34565b60405180910390fd5b60011515600760008684815181106116fa576116f9612f45565b5b6020026020010151815260200190815260200160002060009054906101000a900460ff16151514611760576040517f08c379a000000000000000000000000000000000000000000000000000000000815260040161175790612c54565b60405180910390fd5b60006008600086848151811061177957611778612f45565b5b602002602001015181526020019081526020016000206001015414156117d4576040517f08c379a00000000000000000000000000000000000000000000000000000000081526004016117cb90612bd4565b60405180910390fd5b8281815181106117e7576117e6612f45565b5b60200260200101516008600086848151811061180657611805612f45565b5b602002602001015181526020019081526020016000206000015414611860576040517f08c379a000000000000000000000000000000000000000000000000000000000815260040161185790612b34565b60405180910390fd5b600015156008600086848151811061187b5761187a612f45565b5b6020026020010151815260200190815260200160002060020160009054906101000a900460ff161515146118e4576040517f08c379a00000000000000000000000000000000000000000000000000000000081526004016118db90612b14565b60405180910390fd5b80806118ef90612e9e565b915050611655565b50815183511461193c576040517f08c379a000000000000000000000000000000000000000000000000000000000815260040161193390612ad4565b60405180910390fd5b6000611948828561091a565b9050801561198b576040517f08c379a000000000000000000000000000000000000000000000000000000000815260040161198290612a94565b60405180910390fd5b82518451146119cf576040517f08c379a00000000000000000000000000000000000000000000000000000000081526004016119c690612b54565b60405180910390fd5b60005b8451811015611c195760005b6008600085815260200190815260200160002060030160000180549050811015611b3957858281518110611a1557611a14612f45565b5b6020026020010151600860008681526020019081526020016000206003016000018281548110611a4857611a47612f45565b5b90600052602060002001541415611a94576040517f08c379a0000000000000000000000000000000000000000000000000000000008152600401611a8b90612b74565b60405180910390fd5b8360086000888581518110611aac57611aab612f45565b5b602002602001015181526020019081526020016000206003016000018281548110611ada57611ad9612f45565b5b90600052602060002001541415611b26576040517f08c379a0000000000000000000000000000000000000000000000000000000008152600401611b1d90612af4565b60405180910390fd5b8080611b3190612e9e565b9150506119de565b50600a6000815480929190611b4d90612e9e565b919050555060086000848152602001908152602001600020600301600001858281518110611b7e57611b7d612f45565b5b6020026020010151908060018154018082558091505060019003906000526020600020016000909190919091505560086000848152602001908152602001600020600301600101848281518110611bd857611bd7612f45565b5b602002602001015190806001815401808255809150506001900390600052602060002001600090919091909150558080611c1190612e9e565b9150506119d2565b50505b505050565b60005b600460000180549050811015611c72576004600001805480611c4957611c48612f16565b5b600190038181906000526020600020016000905590558080611c6a90612e9e565b915050611c24565b50565b606060086000838152602001908152602001600020600301600101805480602002602001604051908101604052809291908181526020018280548015611cda57602002820191906000526020600020905b815481526020019060010190808311611cc6575b50505050509050919050565b600660009054906101000a900473ffffffffffffffffffffffffffffffffffffffff1673ffffffffffffffffffffffffffffffffffffffff163373ffffffffffffffffffffffffffffffffffffffff1614611d76576040517f08c379a0000000000000000000000000000000000000000000000000000000008152600401611d6d90612c14565b60405180910390fd5b6000821415611dba576040517f08c379a0000000000000000000000000000000000000000000000000000000008152600401611db190612a74565b60405180910390fd5b600115156007600084815260200190815260200160002060009054906101000a900460ff16151514611e21576040517f08c379a0000000000000000000000000000000000000000000000000000000008152600401611e1890612a54565b60405180910390fd5b600060086000848152602001908152602001600020600101541415611e7b576040517f08c379a0000000000000000000000000000000000000000000000000000000008152600401611e7290612b94565b60405180910390fd5b806008600084815260200190815260200160002060020160006101000a81548160ff021916908315150217905515611eb257611ee1565b806008600084815260200190815260200160002060020160006101000a81548160ff0219169083151502179055505b5050565b600660009054906101000a900473ffffffffffffffffffffffffffffffffffffffff1673ffffffffffffffffffffffffffffffffffffffff163373ffffffffffffffffffffffffffffffffffffffff1614611f75576040517f08c379a0000000000000000000000000000000000000000000000000000000008152600401611f6c90612c14565b60405180910390fd5b6001600760006001815260200190815260200160002060006101000a81548160ff0219169083151502179055506001600760006002815260200190815260200160002060006101000a81548160ff0219169083151502179055506001600760006003815260200190815260200160002060006101000a81548160ff021916908315150217905550565b60606008600083815260200190815260200160002060030160000180548060200260200160405190810160405280929190818152602001828054801561206357602002820191906000526020600020905b81548152602001906001019080831161204f575b50505050509050919050565b6000600a54905090565b8280548282559060005260206000209081019282156120b5579160200282015b828111156120b4578251825591602001919060010190612099565b5b5090506120c29190612104565b5090565b604051806040016040528060608152602001606081525090565b60405180614000016040528061020090602082028036833780820191505090505090565b5b8082111561211d576000816000905550600101612105565b5090565b600061213461212f84612d22565b612cfd565b9050808285602086028201111561214e5761214d612fb2565b5b60005b8581101561217e57816121648882612383565b845260208401935060208301925050600181019050612151565b5050509392505050565b600061219b61219684612d48565b612cfd565b905080838252602082019050828560208602820111156121be576121bd612fb2565b5b60005b858110156121ee57816121d48882612383565b8452602084019350602083019250506001810190506121c1565b5050509392505050565b600082601f83011261220d5761220c612fa3565b5b61020061221b848285612121565b91505092915050565b600082601f83011261223957612238612fa3565b5b8135612249848260208601612188565b91505092915050565b6000813590506122618161349f565b92915050565b60006040828403121561227d5761227c612fa8565b5b6122876040612cfd565b9050600082013567ffffffffffffffff8111156122a7576122a6612fad565b5b6122b384828501612224565b600083015250602082013567ffffffffffffffff8111156122d7576122d6612fad565b5b6122e384828501612224565b60208301525092915050565b60006080828403121561230557612304612fa8565b5b61230f6080612cfd565b9050600061231f84828501612383565b600083015250602061233384828501612383565b602083015250604061234784828501612252565b604083015250606082013567ffffffffffffffff81111561236b5761236a612fad565b5b61237784828501612267565b60608301525092915050565b600081359050612392816134b6565b92915050565b6000806000606084860312156123b1576123b0612fbc565b5b600084013567ffffffffffffffff8111156123cf576123ce612fb7565b5b6123db86828701612224565b935050602084013567ffffffffffffffff8111156123fc576123fb612fb7565b5b61240886828701612224565b925050604061241986828701612383565b9150509250925092565b6000806000806080858703121561243d5761243c612fbc565b5b600085013567ffffffffffffffff81111561245b5761245a612fb7565b5b61246787828801612224565b945050602085013567ffffffffffffffff81111561248857612487612fb7565b5b61249487828801612224565b93505060406124a587828801612383565b92505060606124b687828801612383565b91505092959194509250565b6000602082840312156124d8576124d7612fbc565b5b600082013567ffffffffffffffff8111156124f6576124f5612fb7565b5b612502848285016122ef565b91505092915050565b60006020828403121561252157612520612fbc565b5b600061252f84828501612383565b91505092915050565b60008061402083850312156125505761254f612fbc565b5b600061255e85828601612383565b925050602061256f858286016121f8565b9150509250929050565b600080604083850312156125905761258f612fbc565b5b600061259e85828601612383565b925050602083013567ffffffffffffffff8111156125bf576125be612fb7565b5b6125cb85828601612224565b9150509250929050565b600080604083850312156125ec576125eb612fbc565b5b60006125fa85828601612383565b925050602061260b85828601612252565b9150509250929050565b6000806040838503121561262c5761262b612fbc565b5b600061263a85828601612383565b925050602061264b85828601612383565b9150509250929050565b600061266183836129de565b60208301905092915050565b61267681612e25565b82525050565b600061268782612d84565b6126918185612d9c565b935061269c83612d74565b8060005b838110156126cd5781516126b48882612655565b97506126bf83612d8f565b9250506001810190506126a0565b5085935050505092915050565b60006126e582612d84565b6126ef8185612dad565b93506126fa83612d74565b8060005b8381101561272b5781516127128882612655565b975061271d83612d8f565b9250506001810190506126fe565b5085935050505092915050565b61274181612e37565b82525050565b6000612754602c83612dbe565b915061275f82612fd2565b604082019050919050565b6000612777601b83612dbe565b915061278282613021565b602082019050919050565b600061279a602c83612dbe565b91506127a58261304a565b604082019050919050565b60006127bd603683612dbe565b91506127c882613099565b604082019050919050565b60006127e0603783612dbe565b91506127eb826130e8565b604082019050919050565b6000612803602483612dbe565b915061280e82613137565b604082019050919050565b6000612826603a83612dbe565b915061283182613186565b604082019050919050565b6000612849603483612dbe565b9150612854826131d5565b604082019050919050565b600061286c603083612dbe565b915061287782613224565b604082019050919050565b600061288f603c83612dbe565b915061289a82613273565b604082019050919050565b60006128b2601f83612dbe565b91506128bd826132c2565b602082019050919050565b60006128d5602d83612dbe565b91506128e0826132eb565b604082019050919050565b60006128f8602b83612dbe565b91506129038261333a565b604082019050919050565b600061291b602483612dbe565b915061292682613389565b604082019050919050565b600061293e601383612dbe565b9150612949826133d8565b602082019050919050565b6000612961602183612dbe565b915061296c82613401565b604082019050919050565b6000612984602f83612dbe565b915061298f82613450565b604082019050919050565b600060408301600083015184820360008601526129b7828261267c565b915050602083015184820360208601526129d1828261267c565b9150508091505092915050565b6129e781612e63565b82525050565b6129f681612e63565b82525050565b6000602082019050612a11600083018461266d565b92915050565b60006020820190508181036000830152612a3181846126da565b905092915050565b6000602082019050612a4e6000830184612738565b92915050565b60006020820190508181036000830152612a6d81612747565b9050919050565b60006020820190508181036000830152612a8d8161276a565b9050919050565b60006020820190508181036000830152612aad8161278d565b9050919050565b60006020820190508181036000830152612acd816127b0565b9050919050565b60006020820190508181036000830152612aed816127d3565b9050919050565b60006020820190508181036000830152612b0d816127f6565b9050919050565b60006020820190508181036000830152612b2d81612819565b9050919050565b60006020820190508181036000830152612b4d8161283c565b9050919050565b60006020820190508181036000830152612b6d8161285f565b9050919050565b60006020820190508181036000830152612b8d81612882565b9050919050565b60006020820190508181036000830152612bad816128a5565b9050919050565b60006020820190508181036000830152612bcd816128c8565b9050919050565b60006020820190508181036000830152612bed816128eb565b9050919050565b60006020820190508181036000830152612c0d8161290e565b9050919050565b60006020820190508181036000830152612c2d81612931565b9050919050565b60006020820190508181036000830152612c4d81612954565b9050919050565b60006020820190508181036000830152612c6d81612977565b9050919050565b60006020820190508181036000830152612c8e818461299a565b905092915050565b6000602082019050612cab60008301846129ed565b92915050565b6000608082019050612cc660008301876129ed565b612cd360208301866129ed565b612ce06040830185612738565b8181036060830152612cf2818461299a565b905095945050505050565b6000612d07612d18565b9050612d138282612e6d565b919050565b6000604051905090565b600067ffffffffffffffff821115612d3d57612d3c612f74565b5b602082029050919050565b600067ffffffffffffffff821115612d6357612d62612f74565b5b602082029050602081019050919050565b6000819050602082019050919050565b600081519050919050565b6000602082019050919050565b600082825260208201905092915050565b600082825260208201905092915050565b600082825260208201905092915050565b6000612dda82612e63565b9150612de583612e63565b9250827fffffffffffffffffffffffffffffffffffffffffffffffffffffffffffffffff03821115612e1a57612e19612ee7565b5b828201905092915050565b6000612e3082612e43565b9050919050565b60008115159050919050565b600073ffffffffffffffffffffffffffffffffffffffff82169050919050565b6000819050919050565b612e7682612fc1565b810181811067ffffffffffffffff82111715612e9557612e94612f74565b5b80604052505050565b6000612ea982612e63565b91507fffffffffffffffffffffffffffffffffffffffffffffffffffffffffffffffff821415612edc57612edb612ee7565b5b600182019050919050565b7f4e487b7100000000000000000000000000000000000000000000000000000000600052601160045260246000fd5b7f4e487b7100000000000000000000000000000000000000000000000000000000600052603160045260246000fd5b7f4e487b7100000000000000000000000000000000000000000000000000000000600052603260045260246000fd5b7f4e487b7100000000000000000000000000000000000000000000000000000000600052604160045260246000fd5b600080fd5b600080fd5b600080fd5b600080fd5b600080fd5b600080fd5b6000601f19601f8301169050919050565b7f54686520746f6b656e206973206e6f742061207265676973746572656420455260008201527f43203131353520746f6b656e0000000000000000000000000000000000000000602082015250565b7f54686520746f6b656e2049442063616e6e6f74206265207a65726f0000000000600082015250565b7f546f6b656e49442063616e6e6f74206265206120737562736574206f6620706160008201527f72656e74546f6b656e4944730000000000000000000000000000000000000000602082015250565b7f5468652076616c756520796f752061726520696e70757474696e67206d616b6560008201527f73207468652076616c756573206e6f7420612073657400000000000000000000602082015250565b7f546865206c656e677468206f6620706172656e742049647320616e642077656960008201527f676874732073686f756c64206265207468652073616d65000000000000000000602082015250565b7f4572726f723a20616e206772617068206c6f6f702077696c6c2062652063726560008201527f6174656400000000000000000000000000000000000000000000000000000000602082015250565b7f4120706172656e7420494420697320626c61636b6c697374656420736f20746860008201527f69732070726f636573732063616e6e6f7420636f6e74696e7565000000000000602082015250565b7f4120706172656e7420696420646f6573206e6f7420636f6f7265736f6e64207460008201527f6f2074686520636f727265637420776569676874000000000000000000000000602082015250565b7f546865206c656e677468206f662049647320616e64207765696768747320736860008201527f6f756c64206265207468652073616d6500000000000000000000000000000000602082015250565b7f4572726f723a204564676520636f6e6e656374696f6e20796f7520617265207460008201527f7279696e6720746f2061646420616c6c72656164792065786973747300000000602082015250565b7f494420686173206e6f74206265656e20616464656420746f2067726170682e00600082015250565b7f4120706172656e7420746f6b656e20494420686173206e6f74206265656e206160008201527f6464656420746f20677261706800000000000000000000000000000000000000602082015250565b7f706172656e7420746f6b656e20494420686173206e6f74206265656e2061646460008201527f656420746f206772617068000000000000000000000000000000000000000000602082015250565b7f49442068617320616c6c7265616479206265656e20616464656420746f20677260008201527f6170682e00000000000000000000000000000000000000000000000000000000602082015250565b7f55736572206d7573742062652061646d696e2e00000000000000000000000000600082015250565b7f54686520746f6b656e204944206f66206120706172656e74206973207a65726f60008201527f2e00000000000000000000000000000000000000000000000000000000000000602082015250565b7f4120706172656e7420746f6b656e206973206e6f74206120726567697374656460008201527f20455243203131353520746f6b656e0000000000000000000000000000000000602082015250565b6134a881612e37565b81146134b357600080fd5b50565b6134bf81612e63565b81146134ca57600080fd5b5056fea2646970667358221220aa4225922a0482b6a1992ca7a9ec07fe9f0f5de3eabf1a7103829cd0e3d6a83264736f6c63430008060033",
  "linkReferences": {},
  "deployedLinkReferences": {}
}