{
  "_format": "hh-sol-artifact-1",
  "contractName": "copyrightGraph",
  "sourceName": "contracts/copyrightMaster.sol",
  "abi": [
    {
      "inputs": [],
      "stateMutability": "nonpayable",
      "type": "constructor"
    },
    {
      "anonymous": false,
      "inputs": [
        {
          "components": [
            {
              "internalType": "uint256",
              "name": "weight",
              "type": "uint256"
            },
            {
              "internalType": "uint256",
              "name": "timeStamp",
              "type": "uint256"
            },
            {
              "internalType": "bool",
              "name": "isBlacklisted",
              "type": "bool"
            },
            {
              "components": [
                {
                  "internalType": "uint256[]",
                  "name": "to",
                  "type": "uint256[]"
                },
                {
                  "internalType": "uint256[]",
                  "name": "weight",
                  "type": "uint256[]"
                }
              ],
              "internalType": "struct ICopyrightMaster.Edge",
              "name": "edge",
              "type": "tuple"
            }
          ],
          "indexed": false,
          "internalType": "struct ICopyrightMaster.Token",
          "name": "token",
          "type": "tuple"
        }
      ],
      "name": "AddTokenToGraph",
      "type": "event"
    },
    {
      "anonymous": false,
      "inputs": [
        {
          "indexed": false,
          "internalType": "uint256",
          "name": "id",
          "type": "uint256"
        },
        {
          "indexed": false,
          "internalType": "uint256",
          "name": "newWeight",
          "type": "uint256"
        }
      ],
      "name": "ChangeTokenWeight",
      "type": "event"
    },
    {
      "anonymous": false,
      "inputs": [
        {
          "indexed": false,
          "internalType": "uint256",
          "name": "id",
          "type": "uint256"
        },
        {
          "indexed": false,
          "internalType": "bool",
          "name": "isBlacklisted",
          "type": "bool"
        }
      ],
      "name": "TokenBlacklisted",
      "type": "event"
    },
    {
      "inputs": [
        {
          "internalType": "uint256",
          "name": "",
          "type": "uint256"
        }
      ],
      "name": "_idToTokenStruct",
      "outputs": [
        {
          "internalType": "uint256",
          "name": "weight",
          "type": "uint256"
        },
        {
          "internalType": "uint256",
          "name": "timeStamp",
          "type": "uint256"
        },
        {
          "internalType": "bool",
          "name": "isBlacklisted",
          "type": "bool"
        },
        {
          "components": [
            {
              "internalType": "uint256[]",
              "name": "to",
              "type": "uint256[]"
            },
            {
              "internalType": "uint256[]",
              "name": "weight",
              "type": "uint256[]"
            }
          ],
          "internalType": "struct ICopyrightMaster.Edge",
          "name": "edge",
          "type": "tuple"
        }
      ],
      "stateMutability": "view",
      "type": "function"
    },
    {
      "inputs": [
        {
          "internalType": "uint256",
          "name": "id",
          "type": "uint256"
        }
      ],
      "name": "bfsTraversal",
      "outputs": [],
      "stateMutability": "nonpayable",
      "type": "function"
    },
    {
      "inputs": [
        {
          "internalType": "uint256",
          "name": "id",
          "type": "uint256"
        },
        {
          "internalType": "bool",
          "name": "isBlacklisted",
          "type": "bool"
        }
      ],
      "name": "blacklistToken",
      "outputs": [],
      "stateMutability": "nonpayable",
      "type": "function"
    },
    {
      "inputs": [
        {
          "internalType": "uint256",
          "name": "id",
          "type": "uint256"
        },
        {
          "internalType": "uint256",
          "name": "newWeight",
          "type": "uint256"
        }
      ],
      "name": "changeTokenWeight",
      "outputs": [],
      "stateMutability": "nonpayable",
      "type": "function"
    },
    {
      "inputs": [],
      "name": "dequeue",
      "outputs": [
        {
          "internalType": "uint256",
          "name": "id",
          "type": "uint256"
        }
      ],
      "stateMutability": "nonpayable",
      "type": "function"
    },
    {
      "inputs": [],
      "name": "edgeCount",
      "outputs": [
        {
          "internalType": "uint256",
          "name": "",
          "type": "uint256"
        }
      ],
      "stateMutability": "view",
      "type": "function"
    },
    {
      "inputs": [
        {
          "internalType": "uint256",
          "name": "id",
          "type": "uint256"
        }
      ],
      "name": "edgeTo",
      "outputs": [
        {
          "internalType": "uint256[]",
          "name": "",
          "type": "uint256[]"
        }
      ],
      "stateMutability": "view",
      "type": "function"
    },
    {
      "inputs": [
        {
          "internalType": "uint256",
          "name": "id",
          "type": "uint256"
        }
      ],
      "name": "edgeWeights",
      "outputs": [
        {
          "internalType": "uint256[]",
          "name": "",
          "type": "uint256[]"
        }
      ],
      "stateMutability": "view",
      "type": "function"
    },
    {
      "inputs": [
        {
          "internalType": "uint256",
          "name": "id",
          "type": "uint256"
        }
      ],
      "name": "enqueue",
      "outputs": [],
      "stateMutability": "nonpayable",
      "type": "function"
    },
    {
      "inputs": [],
      "name": "getAdmin",
      "outputs": [
        {
          "internalType": "address",
          "name": "",
          "type": "address"
        }
      ],
      "stateMutability": "view",
      "type": "function"
    },
    {
      "inputs": [],
      "name": "getTokenRegisteredCount",
      "outputs": [
        {
          "internalType": "uint256",
          "name": "",
          "type": "uint256"
        }
      ],
      "stateMutability": "view",
      "type": "function"
    },
    {
      "inputs": [],
      "name": "getTotalEdgeCount",
      "outputs": [
        {
          "internalType": "uint256",
          "name": "",
          "type": "uint256"
        }
      ],
      "stateMutability": "view",
      "type": "function"
    },
    {
      "inputs": [
        {
          "internalType": "uint256[]",
          "name": "parentIds",
          "type": "uint256[]"
        },
        {
          "internalType": "uint256[]",
          "name": "parentWeights",
          "type": "uint256[]"
        },
        {
          "internalType": "uint256",
          "name": "id",
          "type": "uint256"
        }
      ],
      "name": "insertEdges",
      "outputs": [],
      "stateMutability": "nonpayable",
      "type": "function"
    },
    {
      "inputs": [
        {
          "internalType": "uint256[]",
          "name": "parentIds",
          "type": "uint256[]"
        },
        {
          "internalType": "uint256[]",
          "name": "parentWeights",
          "type": "uint256[]"
        },
        {
          "internalType": "uint256",
          "name": "id",
          "type": "uint256"
        },
        {
          "internalType": "uint256",
          "name": "weight",
          "type": "uint256"
        }
      ],
      "name": "insertToken",
      "outputs": [],
      "stateMutability": "nonpayable",
      "type": "function"
    },
    {
      "inputs": [
        {
          "internalType": "uint256",
          "name": "id",
          "type": "uint256"
        },
        {
          "internalType": "uint256[]",
          "name": "parentTokenIds",
          "type": "uint256[]"
        }
      ],
      "name": "isSubset",
      "outputs": [
        {
          "internalType": "bool",
          "name": "",
          "type": "bool"
        }
      ],
      "stateMutability": "pure",
      "type": "function"
    },
    {
      "inputs": [
        {
          "internalType": "uint256",
          "name": "id",
          "type": "uint256"
        },
        {
          "internalType": "uint256[512]",
          "name": "parentTokenIds",
          "type": "uint256[512]"
        }
      ],
      "name": "isSubsetSpecialMemory",
      "outputs": [
        {
          "internalType": "bool",
          "name": "",
          "type": "bool"
        }
      ],
      "stateMutability": "pure",
      "type": "function"
    },
    {
      "inputs": [],
      "name": "makeERC1155ForTesting",
      "outputs": [],
      "stateMutability": "nonpayable",
      "type": "function"
    },
    {
      "inputs": [
        {
          "internalType": "uint256",
          "name": "id",
          "type": "uint256"
        }
      ],
      "name": "returnEdge",
      "outputs": [
        {
          "components": [
            {
              "internalType": "uint256[]",
              "name": "to",
              "type": "uint256[]"
            },
            {
              "internalType": "uint256[]",
              "name": "weight",
              "type": "uint256[]"
            }
          ],
          "internalType": "struct ICopyrightMaster.Edge",
          "name": "edge",
          "type": "tuple"
        }
      ],
      "stateMutability": "view",
      "type": "function"
    },
    {
      "inputs": [
        {
          "components": [
            {
              "internalType": "uint256",
              "name": "weight",
              "type": "uint256"
            },
            {
              "internalType": "uint256",
              "name": "timeStamp",
              "type": "uint256"
            },
            {
              "internalType": "bool",
              "name": "isBlacklisted",
              "type": "bool"
            },
            {
              "components": [
                {
                  "internalType": "uint256[]",
                  "name": "to",
                  "type": "uint256[]"
                },
                {
                  "internalType": "uint256[]",
                  "name": "weight",
                  "type": "uint256[]"
                }
              ],
              "internalType": "struct ICopyrightMaster.Edge",
              "name": "edge",
              "type": "tuple"
            }
          ],
          "internalType": "struct ICopyrightMaster.Token",
          "name": "token",
          "type": "tuple"
        }
      ],
      "name": "returnId",
      "outputs": [
        {
          "internalType": "uint256",
          "name": "id",
          "type": "uint256"
        }
      ],
      "stateMutability": "pure",
      "type": "function"
    },
    {
      "inputs": [
        {
          "internalType": "uint256",
          "name": "id",
          "type": "uint256"
        }
      ],
      "name": "returnIsBlacklisted",
      "outputs": [
        {
          "internalType": "bool",
          "name": "isBlacklisted",
          "type": "bool"
        }
      ],
      "stateMutability": "view",
      "type": "function"
    },
    {
      "inputs": [
        {
          "internalType": "uint256",
          "name": "id",
          "type": "uint256"
        }
      ],
      "name": "returnTime",
      "outputs": [
        {
          "internalType": "uint256",
          "name": "timeStamp",
          "type": "uint256"
        }
      ],
      "stateMutability": "view",
      "type": "function"
    },
    {
      "inputs": [
        {
          "internalType": "uint256",
          "name": "id",
          "type": "uint256"
        }
      ],
      "name": "returnTokenWeight",
      "outputs": [
        {
          "internalType": "uint256",
          "name": "weight",
          "type": "uint256"
        }
      ],
      "stateMutability": "view",
      "type": "function"
    },
    {
      "inputs": [
        {
          "internalType": "uint256",
          "name": "id",
          "type": "uint256"
        }
      ],
      "name": "sortByTime",
      "outputs": [],
      "stateMutability": "nonpayable",
      "type": "function"
    },
    {
      "inputs": [],
      "name": "tokenCount",
      "outputs": [
        {
          "internalType": "uint256",
          "name": "",
          "type": "uint256"
        }
      ],
      "stateMutability": "view",
      "type": "function"
    },
    {
      "inputs": [
        {
          "internalType": "uint256",
          "name": "id",
          "type": "uint256"
        }
      ],
      "name": "tokenExists",
      "outputs": [
        {
          "internalType": "bool",
          "name": "exists",
          "type": "bool"
        }
      ],
      "stateMutability": "view",
      "type": "function"
    }
  ],
  "bytecode": "0x60806040526001805560006002556001600360006101000a81548160ff0219169083151502179055506000600655600060075534801561003e57600080fd5b5033600360016101000a81548173ffffffffffffffffffffffffffffffffffffffff021916908373ffffffffffffffffffffffffffffffffffffffff1602179055506131338061008f6000396000f3fe608060405234801561001057600080fd5b50600436106101725760003560e01c8063957908d1116100de578063b0f555ae11610097578063ce8b4afd11610071578063ce8b4afd14610498578063d7753a65146104b4578063e8ca8c3e146104be578063ee8a9fd6146104ee57610172565b8063b0f555ae14610430578063beae49421461044c578063c95574491461046857610172565b8063957908d11461035a578063981ad468146103785780639f181b5e146103a8578063a6c7c955146103c6578063a9138861146103f6578063aca382a01461041457610172565b80635ee3c588116101305780635ee3c5881461026f5780636cf611271461028d5780636e9960c3146102bd578063866fe41a146102db57806389e0496f146102f757806394b908301461032a57610172565b8062923f9e14610177578063076fcc1f146101a75780630b8e12fc146101c357806316b407a8146101f357806318182eaa146102235780631ffc735d14610253575b600080fd5b610191600480360381019061018c91906121fc565b61050c565b60405161019e9190612707565b60405180910390f35b6101c160048036038101906101bc9190612306565b610535565b005b6101dd60048036038101906101d891906121fc565b6106ea565b6040516101ea9190612944565b60405180910390f35b61020d600480360381019061020891906121fc565b61070a565b60405161021a9190612944565b60405180910390f35b61023d60048036038101906102389190612229565b61072a565b60405161024a9190612707565b60405180910390f35b61026d600480360381019061026891906121fc565b61079d565b005b6102776107ee565b6040516102849190612944565b60405180910390f35b6102a760048036038101906102a2919061226a565b6107f8565b6040516102b49190612707565b60405180910390f35b6102c561086a565b6040516102d291906126ca565b60405180910390f35b6102f560048036038101906102f09190612114565b610894565b005b610311600480360381019061030c91906121fc565b610dcb565b604051610321949392919061295f565b60405180910390f35b610344600480360381019061033f91906121fc565b610ec2565b6040516103519190612922565b60405180910390f35b610362610fa2565b60405161036f9190612944565b60405180910390f35b610392600480360381019061038d91906121fc565b611028565b60405161039f9190612707565b60405180910390f35b6103b0611055565b6040516103bd9190612944565b60405180910390f35b6103e060048036038101906103db91906121b3565b61105f565b6040516103ed9190612944565b60405180910390f35b6103fe611066565b60405161040b9190612944565b60405180910390f35b61042e600480360381019061042991906121fc565b611070565b005b61044a600480360381019061044591906121fc565b6111d0565b005b61046660048036038101906104619190612089565b611369565b005b610482600480360381019061047d91906121fc565b611966565b60405161048f91906126e5565b60405180910390f35b6104b260048036038101906104ad91906122c6565b6119d7565b005b6104bc611bd6565b005b6104d860048036038101906104d391906121fc565b611cef565b6040516104e591906126e5565b60405180910390f35b6104f6611d60565b6040516105039190612944565b60405180910390f35b60008060056000848152602001908152602001600020600101541461053057600190505b919050565b600360019054906101000a900473ffffffffffffffffffffffffffffffffffffffff1673ffffffffffffffffffffffffffffffffffffffff163373ffffffffffffffffffffffffffffffffffffffff16146105c5576040517f08c379a00000000000000000000000000000000000000000000000000000000081526004016105bc906128c2565b60405180910390fd5b81600081141561060a576040517f08c379a000000000000000000000000000000000000000000000000000000000815260040161060190612742565b60405180910390fd5b600115156004600083815260200190815260200160002060009054906101000a900460ff16151514610671576040517f08c379a000000000000000000000000000000000000000000000000000000000815260040161066890612722565b60405180910390fd5b60006005600083815260200190815260200160002060010154146106ca576040517f08c379a00000000000000000000000000000000000000000000000000000000081526004016106c1906128a2565b60405180910390fd5b816005600085815260200190815260200160002060000181905550505050565b600060056000838152602001908152602001600020600101549050919050565b600060056000838152602001908152602001600020600001549050919050565b60008061020090506000811415610745576000915050610797565b60005b61020081101561079057848482610200811061076757610766612bc4565b5b6020020151141561077d57600192505050610797565b808061078890612b4c565b915050610748565b5060009150505b92915050565b6001600260008282546107b09190612a7d565b925050819055506000600360006101000a81548160ff0219169083151502179055508060008060025481526020019081526020016000208190555050565b6000600654905090565b600080825190506000811415610812576000915050610864565b60005b8181101561085d578484828151811061083157610830612bc4565b5b6020026020010151141561084a57600192505050610864565b808061085590612b4c565b915050610815565b5060009150505b92915050565b6000600360019054906101000a900473ffffffffffffffffffffffffffffffffffffffff16905090565b600360019054906101000a900473ffffffffffffffffffffffffffffffffffffffff1673ffffffffffffffffffffffffffffffffffffffff163373ffffffffffffffffffffffffffffffffffffffff1614610924576040517f08c379a000000000000000000000000000000000000000000000000000000000815260040161091b906128c2565b60405180910390fd5b816000811415610969576040517f08c379a000000000000000000000000000000000000000000000000000000000815260040161096090612742565b60405180910390fd5b600115156004600083815260200190815260200160002060009054906101000a900460ff161515146109d0576040517f08c379a00000000000000000000000000000000000000000000000000000000081526004016109c790612722565b60405180910390fd5b6000600560008381526020019081526020016000206001015414610a29576040517f08c379a0000000000000000000000000000000000000000000000000000000008152600401610a20906128a2565b60405180910390fd5b8351855114610a6d576040517f08c379a0000000000000000000000000000000000000000000000000000000008152600401610a6490612782565b60405180910390fd5b60005b8551811015610cef576000868281518110610a8e57610a8d612bc4565b5b60200260200101511415610ad7576040517f08c379a0000000000000000000000000000000000000000000000000000000008152600401610ace906128e2565b60405180910390fd5b6001151560046000888481518110610af257610af1612bc4565b5b6020026020010151815260200190815260200160002060009054906101000a900460ff16151514610b58576040517f08c379a0000000000000000000000000000000000000000000000000000000008152600401610b4f90612902565b60405180910390fd5b600060056000888481518110610b7157610b70612bc4565b5b60200260200101518152602001908152602001600020600101541415610bcc576040517f08c379a0000000000000000000000000000000000000000000000000000000008152600401610bc390612862565b60405180910390fd5b848181518110610bdf57610bde612bc4565b5b602002602001015160056000888481518110610bfe57610bfd612bc4565b5b602002602001015181526020019081526020016000206000015414610c58576040517f08c379a0000000000000000000000000000000000000000000000000000000008152600401610c4f906127e2565b60405180910390fd5b6000151560056000888481518110610c7357610c72612bc4565b5b6020026020010151815260200190815260200160002060020160009054906101000a900460ff16151514610cdc576040517f08c379a0000000000000000000000000000000000000000000000000000000008152600401610cd3906127c2565b60405180910390fd5b8080610ce790612b4c565b915050610a70565b5060066000815480929190610d0390612b4c565b9190505550816005600085815260200190815260200160002060000181905550426005600085815260200190815260200160002060010181905550600085511415610d4d57610dc4565b845160076000828254610d609190612a7d565b9250508190555084600560008581526020019081526020016000206003016000019080519060200190610d94929190611d6a565b5083600560008581526020019081526020016000206003016001019080519060200190610dc2929190611d6a565b505b5050505050565b60056020528060005260406000206000915090508060000154908060010154908060020160009054906101000a900460ff16908060030160405180604001604052908160008201805480602002602001604051908101604052809291908181526020018280548015610e5c57602002820191906000526020600020905b815481526020019060010190808311610e48575b5050505050815260200160018201805480602002602001604051908101604052809291908181526020018280548015610eb457602002820191906000526020600020905b815481526020019060010190808311610ea0575b505050505081525050905084565b610eca611db7565b6005600083815260200190815260200160002060030160405180604001604052908160008201805480602002602001604051908101604052809291908181526020018280548015610f3a57602002820191906000526020600020905b815481526020019060010190808311610f26575b5050505050815260200160018201805480602002602001604051908101604052809291908181526020018280548015610f9257602002820191906000526020600020905b815481526020019060010190808311610f7e575b5050505050815250509050919050565b60006001546002541015610fb557600080fd5b60008060015481526020019081526020016000205490506002546001541415610ff4576001600360006101000a81548160ff0219169083151502179055505b600080600154815260200190815260200160002060009055600180600082825461101e9190612a7d565b9250508190555090565b60006005600083815260200190815260200160002060020160009054906101000a900460ff169050919050565b6000600654905090565b6000919050565b6000600754905090565b611078611dd1565b6000611082611dd1565b600061108d8561079d565b60005b600360009054906101000a900460ff166111c8576110ac610fa2565b90506110b8818661072a565b6110e95780858561020081106110d1576110d0612bc4565b5b60200201818152505083806110e590612b4c565b9450505b60005b60056000838152602001908152602001600020600301600001805490508110156111c25761114e60056000848152602001908152602001600020600301600001828154811061113e5761113d612bc4565b5b906000526020600020015461079d565b60056000838152602001908152602001600020600301600101818154811061117957611178612bc4565b5b90600052602060002001548484610200811061119857611197612bc4565b5b60200201818152505082806111ac90612b4c565b93505080806111ba90612b4c565b9150506110ec565b50611090565b505050505050565b600360019054906101000a900473ffffffffffffffffffffffffffffffffffffffff1673ffffffffffffffffffffffffffffffffffffffff163373ffffffffffffffffffffffffffffffffffffffff1614611260576040517f08c379a0000000000000000000000000000000000000000000000000000000008152600401611257906128c2565b60405180910390fd5b8060008114156112a5576040517f08c379a000000000000000000000000000000000000000000000000000000000815260040161129c90612742565b60405180910390fd5b600115156004600083815260200190815260200160002060009054906101000a900460ff1615151461130c576040517f08c379a000000000000000000000000000000000000000000000000000000000815260040161130390612722565b60405180910390fd5b6000600560008381526020019081526020016000206001015414611365576040517f08c379a000000000000000000000000000000000000000000000000000000000815260040161135c906128a2565b60405180910390fd5b5050565b600360019054906101000a900473ffffffffffffffffffffffffffffffffffffffff1673ffffffffffffffffffffffffffffffffffffffff163373ffffffffffffffffffffffffffffffffffffffff16146113f9576040517f08c379a00000000000000000000000000000000000000000000000000000000081526004016113f0906128c2565b60405180910390fd5b80600081141561143e576040517f08c379a000000000000000000000000000000000000000000000000000000000815260040161143590612742565b60405180910390fd5b600115156004600083815260200190815260200160002060009054906101000a900460ff161515146114a5576040517f08c379a000000000000000000000000000000000000000000000000000000000815260040161149c90612722565b60405180910390fd5b60006005600083815260200190815260200160002060010154146114fe576040517f08c379a00000000000000000000000000000000000000000000000000000000081526004016114f5906128a2565b60405180910390fd5b60008451141561150d57611960565b60005b845181101561167f57600085828151811061152e5761152d612bc4565b5b60200260200101511415611577576040517f08c379a000000000000000000000000000000000000000000000000000000000815260040161156e90612742565b60405180910390fd5b600115156004600087848151811061159257611591612bc4565b5b6020026020010151815260200190815260200160002060009054906101000a900460ff161515146115f8576040517f08c379a00000000000000000000000000000000000000000000000000000000081526004016115ef90612902565b60405180910390fd5b60006005600087848151811061161157611610612bc4565b5b6020026020010151815260200190815260200160002060010154141561166c576040517f08c379a000000000000000000000000000000000000000000000000000000000815260040161166390612882565b60405180910390fd5b808061167790612b4c565b915050611510565b50600061168c83866107f8565b905080156116cf576040517f08c379a00000000000000000000000000000000000000000000000000000000081526004016116c690612762565b60405180910390fd5b8351855114611713576040517f08c379a000000000000000000000000000000000000000000000000000000000815260040161170a90612802565b60405180910390fd5b60005b855181101561195d5760005b600560008681526020019081526020016000206003016000018054905081101561187d5786828151811061175957611758612bc4565b5b602002602001015160056000878152602001908152602001600020600301600001828154811061178c5761178b612bc4565b5b906000526020600020015414156117d8576040517f08c379a00000000000000000000000000000000000000000000000000000000081526004016117cf90612822565b60405180910390fd5b84600560008985815181106117f0576117ef612bc4565b5b60200260200101518152602001908152602001600020600301600001828154811061181e5761181d612bc4565b5b9060005260206000200154141561186a576040517f08c379a0000000000000000000000000000000000000000000000000000000008152600401611861906127a2565b60405180910390fd5b808061187590612b4c565b915050611722565b506007600081548092919061189190612b4c565b9190505550600560008581526020019081526020016000206003016000018682815181106118c2576118c1612bc4565b5b602002602001015190806001815401808255809150506001900390600052602060002001600090919091909150556005600085815260200190815260200160002060030160010185828151811061191c5761191b612bc4565b5b60200260200101519080600181540180825580915050600190039060005260206000200160009091909190915055808061195590612b4c565b915050611716565b50505b50505050565b6060600560008381526020019081526020016000206003016001018054806020026020016040519081016040528092919081815260200182805480156119cb57602002820191906000526020600020905b8154815260200190600101908083116119b7575b50505050509050919050565b600360019054906101000a900473ffffffffffffffffffffffffffffffffffffffff1673ffffffffffffffffffffffffffffffffffffffff163373ffffffffffffffffffffffffffffffffffffffff1614611a67576040517f08c379a0000000000000000000000000000000000000000000000000000000008152600401611a5e906128c2565b60405180910390fd5b6000821415611aab576040517f08c379a0000000000000000000000000000000000000000000000000000000008152600401611aa290612742565b60405180910390fd5b600115156004600084815260200190815260200160002060009054906101000a900460ff16151514611b12576040517f08c379a0000000000000000000000000000000000000000000000000000000008152600401611b0990612722565b60405180910390fd5b600060056000848152602001908152602001600020600101541415611b6c576040517f08c379a0000000000000000000000000000000000000000000000000000000008152600401611b6390612842565b60405180910390fd5b806005600084815260200190815260200160002060020160006101000a81548160ff021916908315150217905515611ba357611bd2565b806005600084815260200190815260200160002060020160006101000a81548160ff0219169083151502179055505b5050565b600360019054906101000a900473ffffffffffffffffffffffffffffffffffffffff1673ffffffffffffffffffffffffffffffffffffffff163373ffffffffffffffffffffffffffffffffffffffff1614611c66576040517f08c379a0000000000000000000000000000000000000000000000000000000008152600401611c5d906128c2565b60405180910390fd5b6001600460006001815260200190815260200160002060006101000a81548160ff0219169083151502179055506001600460006002815260200190815260200160002060006101000a81548160ff0219169083151502179055506001600460006003815260200190815260200160002060006101000a81548160ff021916908315150217905550565b606060056000838152602001908152602001600020600301600001805480602002602001604051908101604052809291908181526020018280548015611d5457602002820191906000526020600020905b815481526020019060010190808311611d40575b50505050509050919050565b6000600754905090565b828054828255906000526020600020908101928215611da6579160200282015b82811115611da5578251825591602001919060010190611d8a565b5b509050611db39190611df5565b5090565b604051806040016040528060608152602001606081525090565b60405180614000016040528061020090602082028036833780820191505090505090565b5b80821115611e0e576000816000905550600101611df6565b5090565b6000611e25611e20846129d0565b6129ab565b90508082856020860282011115611e3f57611e3e612c31565b5b60005b85811015611e6f5781611e558882612074565b845260208401935060208301925050600181019050611e42565b5050509392505050565b6000611e8c611e87846129f6565b6129ab565b90508083825260208201905082856020860282011115611eaf57611eae612c31565b5b60005b85811015611edf5781611ec58882612074565b845260208401935060208301925050600181019050611eb2565b5050509392505050565b600082601f830112611efe57611efd612c22565b5b610200611f0c848285611e12565b91505092915050565b600082601f830112611f2a57611f29612c22565b5b8135611f3a848260208601611e79565b91505092915050565b600081359050611f52816130cf565b92915050565b600060408284031215611f6e57611f6d612c27565b5b611f7860406129ab565b9050600082013567ffffffffffffffff811115611f9857611f97612c2c565b5b611fa484828501611f15565b600083015250602082013567ffffffffffffffff811115611fc857611fc7612c2c565b5b611fd484828501611f15565b60208301525092915050565b600060808284031215611ff657611ff5612c27565b5b61200060806129ab565b9050600061201084828501612074565b600083015250602061202484828501612074565b602083015250604061203884828501611f43565b604083015250606082013567ffffffffffffffff81111561205c5761205b612c2c565b5b61206884828501611f58565b60608301525092915050565b600081359050612083816130e6565b92915050565b6000806000606084860312156120a2576120a1612c3b565b5b600084013567ffffffffffffffff8111156120c0576120bf612c36565b5b6120cc86828701611f15565b935050602084013567ffffffffffffffff8111156120ed576120ec612c36565b5b6120f986828701611f15565b925050604061210a86828701612074565b9150509250925092565b6000806000806080858703121561212e5761212d612c3b565b5b600085013567ffffffffffffffff81111561214c5761214b612c36565b5b61215887828801611f15565b945050602085013567ffffffffffffffff81111561217957612178612c36565b5b61218587828801611f15565b935050604061219687828801612074565b92505060606121a787828801612074565b91505092959194509250565b6000602082840312156121c9576121c8612c3b565b5b600082013567ffffffffffffffff8111156121e7576121e6612c36565b5b6121f384828501611fe0565b91505092915050565b60006020828403121561221257612211612c3b565b5b600061222084828501612074565b91505092915050565b600080614020838503121561224157612240612c3b565b5b600061224f85828601612074565b925050602061226085828601611ee9565b9150509250929050565b6000806040838503121561228157612280612c3b565b5b600061228f85828601612074565b925050602083013567ffffffffffffffff8111156122b0576122af612c36565b5b6122bc85828601611f15565b9150509250929050565b600080604083850312156122dd576122dc612c3b565b5b60006122eb85828601612074565b92505060206122fc85828601611f43565b9150509250929050565b6000806040838503121561231d5761231c612c3b565b5b600061232b85828601612074565b925050602061233c85828601612074565b9150509250929050565b600061235283836126ac565b60208301905092915050565b61236781612ad3565b82525050565b600061237882612a32565b6123828185612a4a565b935061238d83612a22565b8060005b838110156123be5781516123a58882612346565b97506123b083612a3d565b925050600181019050612391565b5085935050505092915050565b60006123d682612a32565b6123e08185612a5b565b93506123eb83612a22565b8060005b8381101561241c5781516124038882612346565b975061240e83612a3d565b9250506001810190506123ef565b5085935050505092915050565b61243281612ae5565b82525050565b6000612445602c83612a6c565b915061245082612c51565b604082019050919050565b6000612468601b83612a6c565b915061247382612ca0565b602082019050919050565b600061248b602c83612a6c565b915061249682612cc9565b604082019050919050565b60006124ae603783612a6c565b91506124b982612d18565b604082019050919050565b60006124d1602483612a6c565b91506124dc82612d67565b604082019050919050565b60006124f4603a83612a6c565b91506124ff82612db6565b604082019050919050565b6000612517603483612a6c565b915061252282612e05565b604082019050919050565b600061253a603083612a6c565b915061254582612e54565b604082019050919050565b600061255d603c83612a6c565b915061256882612ea3565b604082019050919050565b6000612580601f83612a6c565b915061258b82612ef2565b602082019050919050565b60006125a3602d83612a6c565b91506125ae82612f1b565b604082019050919050565b60006125c6602b83612a6c565b91506125d182612f6a565b604082019050919050565b60006125e9602483612a6c565b91506125f482612fb9565b604082019050919050565b600061260c601383612a6c565b915061261782613008565b602082019050919050565b600061262f602183612a6c565b915061263a82613031565b604082019050919050565b6000612652602f83612a6c565b915061265d82613080565b604082019050919050565b60006040830160008301518482036000860152612685828261236d565b9150506020830151848203602086015261269f828261236d565b9150508091505092915050565b6126b581612b11565b82525050565b6126c481612b11565b82525050565b60006020820190506126df600083018461235e565b92915050565b600060208201905081810360008301526126ff81846123cb565b905092915050565b600060208201905061271c6000830184612429565b92915050565b6000602082019050818103600083015261273b81612438565b9050919050565b6000602082019050818103600083015261275b8161245b565b9050919050565b6000602082019050818103600083015261277b8161247e565b9050919050565b6000602082019050818103600083015261279b816124a1565b9050919050565b600060208201905081810360008301526127bb816124c4565b9050919050565b600060208201905081810360008301526127db816124e7565b9050919050565b600060208201905081810360008301526127fb8161250a565b9050919050565b6000602082019050818103600083015261281b8161252d565b9050919050565b6000602082019050818103600083015261283b81612550565b9050919050565b6000602082019050818103600083015261285b81612573565b9050919050565b6000602082019050818103600083015261287b81612596565b9050919050565b6000602082019050818103600083015261289b816125b9565b9050919050565b600060208201905081810360008301526128bb816125dc565b9050919050565b600060208201905081810360008301526128db816125ff565b9050919050565b600060208201905081810360008301526128fb81612622565b9050919050565b6000602082019050818103600083015261291b81612645565b9050919050565b6000602082019050818103600083015261293c8184612668565b905092915050565b600060208201905061295960008301846126bb565b92915050565b600060808201905061297460008301876126bb565b61298160208301866126bb565b61298e6040830185612429565b81810360608301526129a08184612668565b905095945050505050565b60006129b56129c6565b90506129c18282612b1b565b919050565b6000604051905090565b600067ffffffffffffffff8211156129eb576129ea612bf3565b5b602082029050919050565b600067ffffffffffffffff821115612a1157612a10612bf3565b5b602082029050602081019050919050565b6000819050602082019050919050565b600081519050919050565b6000602082019050919050565b600082825260208201905092915050565b600082825260208201905092915050565b600082825260208201905092915050565b6000612a8882612b11565b9150612a9383612b11565b9250827fffffffffffffffffffffffffffffffffffffffffffffffffffffffffffffffff03821115612ac857612ac7612b95565b5b828201905092915050565b6000612ade82612af1565b9050919050565b60008115159050919050565b600073ffffffffffffffffffffffffffffffffffffffff82169050919050565b6000819050919050565b612b2482612c40565b810181811067ffffffffffffffff82111715612b4357612b42612bf3565b5b80604052505050565b6000612b5782612b11565b91507fffffffffffffffffffffffffffffffffffffffffffffffffffffffffffffffff821415612b8a57612b89612b95565b5b600182019050919050565b7f4e487b7100000000000000000000000000000000000000000000000000000000600052601160045260246000fd5b7f4e487b7100000000000000000000000000000000000000000000000000000000600052603260045260246000fd5b7f4e487b7100000000000000000000000000000000000000000000000000000000600052604160045260246000fd5b600080fd5b600080fd5b600080fd5b600080fd5b600080fd5b600080fd5b6000601f19601f8301169050919050565b7f54686520746f6b656e206973206e6f742061207265676973746572656420455260008201527f43203131353520746f6b656e0000000000000000000000000000000000000000602082015250565b7f54686520746f6b656e2049442063616e6e6f74206265207a65726f0000000000600082015250565b7f546f6b656e49442063616e6e6f74206265206120737562736574206f6620706160008201527f72656e74546f6b656e4944730000000000000000000000000000000000000000602082015250565b7f546865206c656e677468206f6620706172656e742049647320616e642077656960008201527f676874732073686f756c64206265207468652073616d65000000000000000000602082015250565b7f4572726f723a20616e206772617068206c6f6f702077696c6c2062652063726560008201527f6174656400000000000000000000000000000000000000000000000000000000602082015250565b7f4120706172656e7420494420697320626c61636b6c697374656420736f20746860008201527f69732070726f636573732063616e6e6f7420636f6e74696e7565000000000000602082015250565b7f4120706172656e7420696420646f6573206e6f7420636f6f7265736f6e64207460008201527f6f2074686520636f727265637420776569676874000000000000000000000000602082015250565b7f546865206c656e677468206f662049647320616e64207765696768747320736860008201527f6f756c64206265207468652073616d6500000000000000000000000000000000602082015250565b7f4572726f723a204564676520636f6e6e656374696f6e20796f7520617265207460008201527f7279696e6720746f2061646420616c6c72656164792065786973747300000000602082015250565b7f494420686173206e6f74206265656e20616464656420746f2067726170682e00600082015250565b7f4120706172656e7420746f6b656e20494420686173206e6f74206265656e206160008201527f6464656420746f20677261706800000000000000000000000000000000000000602082015250565b7f706172656e7420746f6b656e20494420686173206e6f74206265656e2061646460008201527f656420746f206772617068000000000000000000000000000000000000000000602082015250565b7f49442068617320616c6c7265616479206265656e20616464656420746f20677260008201527f6170682e00000000000000000000000000000000000000000000000000000000602082015250565b7f55736572206d7573742062652061646d696e2e00000000000000000000000000600082015250565b7f54686520746f6b656e204944206f66206120706172656e74206973207a65726f60008201527f2e00000000000000000000000000000000000000000000000000000000000000602082015250565b7f4120706172656e7420746f6b656e206973206e6f74206120726567697374656460008201527f20455243203131353520746f6b656e0000000000000000000000000000000000602082015250565b6130d881612ae5565b81146130e357600080fd5b50565b6130ef81612b11565b81146130fa57600080fd5b5056fea2646970667358221220b20f0fcc855bef7c8bdeaf97a089ad576c31b61be186239187bf2dbbd679296e64736f6c63430008060033",
  "linkReferences": {},
  "deployedLinkReferences": {}
}