{
  "_format": "hh-sol-artifact-1",
  "contractName": "copyrightGraph",
  "sourceName": "contracts/copyrightMaster.sol",
  "abi": [
    {
      "inputs": [],
      "stateMutability": "nonpayable",
      "type": "constructor"
    },
    {
      "anonymous": false,
      "inputs": [
        {
          "components": [
            {
              "internalType": "uint256",
              "name": "weight",
              "type": "uint256"
            },
            {
              "internalType": "uint256",
              "name": "timeStamp",
              "type": "uint256"
            },
            {
              "internalType": "bool",
              "name": "isBlacklisted",
              "type": "bool"
            },
            {
              "components": [
                {
                  "internalType": "uint256",
                  "name": "to",
                  "type": "uint256"
                },
                {
                  "internalType": "uint256",
                  "name": "weight",
                  "type": "uint256"
                }
              ],
              "internalType": "struct ICopyrightMaster.Edge[]",
              "name": "edge",
              "type": "tuple[]"
            }
          ],
          "indexed": false,
          "internalType": "struct ICopyrightMaster.Token",
          "name": "token",
          "type": "tuple"
        }
      ],
      "name": "AddTokenToGraph",
      "type": "event"
    },
    {
      "anonymous": false,
      "inputs": [
        {
          "indexed": false,
          "internalType": "uint256",
          "name": "id",
          "type": "uint256"
        },
        {
          "indexed": false,
          "internalType": "uint256",
          "name": "newWeight",
          "type": "uint256"
        }
      ],
      "name": "ChangeTokenWeight",
      "type": "event"
    },
    {
      "anonymous": false,
      "inputs": [
        {
          "indexed": false,
          "internalType": "uint256",
          "name": "id",
          "type": "uint256"
        },
        {
          "indexed": false,
          "internalType": "bool",
          "name": "isBlacklisted",
          "type": "bool"
        }
      ],
      "name": "TokenBlacklisted",
      "type": "event"
    },
    {
      "inputs": [
        {
          "internalType": "uint256",
          "name": "",
          "type": "uint256"
        }
      ],
      "name": "_idToTokenStruct",
      "outputs": [
        {
          "internalType": "uint256",
          "name": "weight",
          "type": "uint256"
        },
        {
          "internalType": "uint256",
          "name": "timeStamp",
          "type": "uint256"
        },
        {
          "internalType": "bool",
          "name": "isBlacklisted",
          "type": "bool"
        }
      ],
      "stateMutability": "view",
      "type": "function"
    },
    {
      "inputs": [
        {
          "internalType": "uint256",
          "name": "id",
          "type": "uint256"
        },
        {
          "internalType": "uint256",
          "name": "addToSet",
          "type": "uint256"
        }
      ],
      "name": "add",
      "outputs": [],
      "stateMutability": "nonpayable",
      "type": "function"
    },
    {
      "inputs": [
        {
          "internalType": "uint256",
          "name": "id",
          "type": "uint256"
        }
      ],
      "name": "bfsTraversal",
      "outputs": [],
      "stateMutability": "nonpayable",
      "type": "function"
    },
    {
      "inputs": [
        {
          "internalType": "uint256",
          "name": "id",
          "type": "uint256"
        },
        {
          "internalType": "bool",
          "name": "isBlacklisted",
          "type": "bool"
        }
      ],
      "name": "blacklistToken",
      "outputs": [],
      "stateMutability": "nonpayable",
      "type": "function"
    },
    {
      "inputs": [
        {
          "internalType": "uint256",
          "name": "id",
          "type": "uint256"
        },
        {
          "internalType": "uint256",
          "name": "newWeight",
          "type": "uint256"
        }
      ],
      "name": "changeTokenWeight",
      "outputs": [],
      "stateMutability": "nonpayable",
      "type": "function"
    },
    {
      "inputs": [
        {
          "internalType": "uint256",
          "name": "id",
          "type": "uint256"
        }
      ],
      "name": "clearSet",
      "outputs": [],
      "stateMutability": "nonpayable",
      "type": "function"
    },
    {
      "inputs": [],
      "name": "dequeue",
      "outputs": [
        {
          "internalType": "uint256",
          "name": "id",
          "type": "uint256"
        }
      ],
      "stateMutability": "nonpayable",
      "type": "function"
    },
    {
      "inputs": [
        {
          "internalType": "uint256",
          "name": "id",
          "type": "uint256"
        }
      ],
      "name": "enqueue",
      "outputs": [],
      "stateMutability": "nonpayable",
      "type": "function"
    },
    {
      "inputs": [],
      "name": "getAdmin",
      "outputs": [
        {
          "internalType": "address",
          "name": "",
          "type": "address"
        }
      ],
      "stateMutability": "view",
      "type": "function"
    },
    {
      "inputs": [
        {
          "internalType": "uint256",
          "name": "id",
          "type": "uint256"
        }
      ],
      "name": "getEdge",
      "outputs": [
        {
          "components": [
            {
              "internalType": "uint256",
              "name": "to",
              "type": "uint256"
            },
            {
              "internalType": "uint256",
              "name": "weight",
              "type": "uint256"
            }
          ],
          "internalType": "struct ICopyrightMaster.Edge[]",
          "name": "edge",
          "type": "tuple[]"
        }
      ],
      "stateMutability": "view",
      "type": "function"
    },
    {
      "inputs": [],
      "name": "getTokenRegisteredCount",
      "outputs": [
        {
          "internalType": "uint256",
          "name": "",
          "type": "uint256"
        }
      ],
      "stateMutability": "view",
      "type": "function"
    },
    {
      "inputs": [],
      "name": "getTotalEdgeCount",
      "outputs": [
        {
          "internalType": "uint256",
          "name": "",
          "type": "uint256"
        }
      ],
      "stateMutability": "view",
      "type": "function"
    },
    {
      "inputs": [
        {
          "internalType": "uint256[]",
          "name": "parentIds",
          "type": "uint256[]"
        },
        {
          "internalType": "uint256[]",
          "name": "parentWeights",
          "type": "uint256[]"
        },
        {
          "internalType": "uint256",
          "name": "id",
          "type": "uint256"
        }
      ],
      "name": "insertEdges",
      "outputs": [],
      "stateMutability": "nonpayable",
      "type": "function"
    },
    {
      "inputs": [
        {
          "internalType": "uint256[]",
          "name": "parentIds",
          "type": "uint256[]"
        },
        {
          "internalType": "uint256[]",
          "name": "parentWeights",
          "type": "uint256[]"
        },
        {
          "internalType": "uint256",
          "name": "id",
          "type": "uint256"
        },
        {
          "internalType": "uint256",
          "name": "weight",
          "type": "uint256"
        }
      ],
      "name": "insertToken",
      "outputs": [],
      "stateMutability": "nonpayable",
      "type": "function"
    },
    {
      "inputs": [
        {
          "internalType": "uint256",
          "name": "id",
          "type": "uint256"
        },
        {
          "internalType": "uint256[]",
          "name": "parentTokenIds",
          "type": "uint256[]"
        }
      ],
      "name": "isSubset",
      "outputs": [
        {
          "internalType": "bool",
          "name": "",
          "type": "bool"
        }
      ],
      "stateMutability": "pure",
      "type": "function"
    },
    {
      "inputs": [
        {
          "internalType": "uint256",
          "name": "id",
          "type": "uint256"
        },
        {
          "internalType": "uint256[512]",
          "name": "parentTokenIds",
          "type": "uint256[512]"
        }
      ],
      "name": "isSubsetSpecialMemory",
      "outputs": [
        {
          "internalType": "bool",
          "name": "",
          "type": "bool"
        }
      ],
      "stateMutability": "pure",
      "type": "function"
    },
    {
      "inputs": [],
      "name": "makeERC1155ForTesting",
      "outputs": [],
      "stateMutability": "nonpayable",
      "type": "function"
    },
    {
      "inputs": [
        {
          "components": [
            {
              "internalType": "uint256",
              "name": "weight",
              "type": "uint256"
            },
            {
              "internalType": "uint256",
              "name": "timeStamp",
              "type": "uint256"
            },
            {
              "internalType": "bool",
              "name": "isBlacklisted",
              "type": "bool"
            },
            {
              "components": [
                {
                  "internalType": "uint256",
                  "name": "to",
                  "type": "uint256"
                },
                {
                  "internalType": "uint256",
                  "name": "weight",
                  "type": "uint256"
                }
              ],
              "internalType": "struct ICopyrightMaster.Edge[]",
              "name": "edge",
              "type": "tuple[]"
            }
          ],
          "internalType": "struct ICopyrightMaster.Token",
          "name": "token",
          "type": "tuple"
        }
      ],
      "name": "returnId",
      "outputs": [
        {
          "internalType": "uint256",
          "name": "id",
          "type": "uint256"
        }
      ],
      "stateMutability": "pure",
      "type": "function"
    },
    {
      "inputs": [
        {
          "internalType": "uint256",
          "name": "id",
          "type": "uint256"
        }
      ],
      "name": "returnIsBlacklisted",
      "outputs": [
        {
          "internalType": "bool",
          "name": "isBlacklisted",
          "type": "bool"
        }
      ],
      "stateMutability": "view",
      "type": "function"
    },
    {
      "inputs": [
        {
          "internalType": "uint256",
          "name": "id",
          "type": "uint256"
        }
      ],
      "name": "returnTime",
      "outputs": [
        {
          "internalType": "uint256",
          "name": "timeStamp",
          "type": "uint256"
        }
      ],
      "stateMutability": "view",
      "type": "function"
    },
    {
      "inputs": [
        {
          "internalType": "uint256",
          "name": "id",
          "type": "uint256"
        }
      ],
      "name": "returnTokenWeight",
      "outputs": [
        {
          "internalType": "uint256",
          "name": "weight",
          "type": "uint256"
        }
      ],
      "stateMutability": "view",
      "type": "function"
    },
    {
      "inputs": [
        {
          "internalType": "uint256",
          "name": "id",
          "type": "uint256"
        }
      ],
      "name": "sortByTime",
      "outputs": [],
      "stateMutability": "nonpayable",
      "type": "function"
    },
    {
      "inputs": [],
      "name": "tokenCount",
      "outputs": [
        {
          "internalType": "uint256",
          "name": "",
          "type": "uint256"
        }
      ],
      "stateMutability": "view",
      "type": "function"
    },
    {
      "inputs": [
        {
          "internalType": "uint256",
          "name": "id",
          "type": "uint256"
        }
      ],
      "name": "tokenExists",
      "outputs": [
        {
          "internalType": "bool",
          "name": "exists",
          "type": "bool"
        }
      ],
      "stateMutability": "view",
      "type": "function"
    }
  ],
  "bytecode": "0x60806040526001805560006002556001600360006101000a81548160ff0219169083151502179055506000600855600060095534801561003e57600080fd5b5033600560006101000a81548173ffffffffffffffffffffffffffffffffffffffff021916908373ffffffffffffffffffffffffffffffffffffffff1602179055506133018061008f6000396000f3fe608060405234801561001057600080fd5b50600436106101575760003560e01c8063957908d1116100c3578063b0f555ae1161007c578063b0f555ae14610400578063be6d291e1461041c578063beae49421461044c578063ce8b4afd14610468578063d7753a6514610484578063d8be1fd41461048e57610157565b8063957908d11461032a578063981ad468146103485780639a914c44146103785780639f181b5e146103a8578063a9138861146103c6578063aca382a0146103e457610157565b80635ee3c588116101155780635ee3c588146102545780636cf61127146102725780636e9960c3146102a2578063771602f7146102c0578063866fe41a146102dc57806389e0496f146102f857610157565b8062923f9e1461015c578063076fcc1f1461018c5780630b8e12fc146101a857806316b407a8146101d857806318182eaa146102085780631ffc735d14610238575b600080fd5b61017660048036038101906101719190612398565b6104aa565b6040516101839190612853565b60405180910390f35b6101a660048036038101906101a191906124a2565b6104d3565b005b6101c260048036038101906101bd9190612398565b6106f1565b6040516101cf9190612a8e565b60405180910390f35b6101f260048036038101906101ed9190612398565b610711565b6040516101ff9190612a8e565b60405180910390f35b610222600480360381019061021d91906123c5565b610731565b60405161022f9190612853565b60405180910390f35b610252600480360381019061024d9190612398565b6107a4565b005b61025c6107f5565b6040516102699190612a8e565b60405180910390f35b61028c60048036038101906102879190612406565b6107ff565b6040516102999190612853565b60405180910390f35b6102aa610871565b6040516102b79190612816565b60405180910390f35b6102da60048036038101906102d591906124a2565b61089b565b005b6102f660048036038101906102f191906122b0565b610995565b005b610312600480360381019061030d9190612398565b610f58565b60405161032193929190612aa9565b60405180910390f35b610332610f8f565b60405161033f9190612a8e565b60405180910390f35b610362600480360381019061035d9190612398565b611015565b60405161036f9190612853565b60405180910390f35b610392600480360381019061038d9190612398565b611042565b60405161039f9190612831565b60405180910390f35b6103b06110cb565b6040516103bd9190612a8e565b60405180910390f35b6103ce6110d5565b6040516103db9190612a8e565b60405180910390f35b6103fe60048036038101906103f99190612398565b6110df565b005b61041a60048036038101906104159190612398565b611244565b005b6104366004803603810190610431919061234f565b6113dd565b6040516104439190612a8e565b60405180910390f35b61046660048036038101906104619190612225565b6113e4565b005b610482600480360381019061047d9190612462565b611b95565b005b61048c611d94565b005b6104a860048036038101906104a39190612398565b611ead565b005b6000806007600084815260200190815260200160002060010154146104ce57600190505b919050565b600560009054906101000a900473ffffffffffffffffffffffffffffffffffffffff1673ffffffffffffffffffffffffffffffffffffffff163373ffffffffffffffffffffffffffffffffffffffff1614610563576040517f08c379a000000000000000000000000000000000000000000000000000000000815260040161055a90612a2e565b60405180910390fd5b60008214156105a7576040517f08c379a000000000000000000000000000000000000000000000000000000000815260040161059e906128ae565b60405180910390fd5b600115156006600084815260200190815260200160002060009054906101000a900460ff1615151461060e576040517f08c379a00000000000000000000000000000000000000000000000000000000081526004016106059061288e565b60405180910390fd5b600060076000848152602001908152602001600020600101541415610668576040517f08c379a000000000000000000000000000000000000000000000000000000000815260040161065f906129ae565b60405180910390fd5b600015156007600084815260200190815260200160002060020160009054906101000a900460ff161515146106d2576040517f08c379a00000000000000000000000000000000000000000000000000000000081526004016106c99061286e565b60405180910390fd5b8060076000848152602001908152602001600020600001819055505050565b600060076000838152602001908152602001600020600101549050919050565b600060076000838152602001908152602001600020600001549050919050565b6000806102009050600081141561074c57600091505061079e565b60005b61020081101561079757848482610200811061076e5761076d612d43565b5b602002015114156107845760019250505061079e565b808061078f90612c9c565b91505061074f565b5060009150505b92915050565b6001600260008282546107b79190612bcd565b925050819055506000600360006101000a81548160ff0219169083151502179055508060008060025481526020019081526020016000208190555050565b6000600854905090565b60008082519050600081141561081957600091505061086b565b60005b81811015610864578484828151811061083857610837612d43565b5b602002602001015114156108515760019250505061086b565b808061085c90612c9c565b91505061081c565b5060009150505b92915050565b6000600560009054906101000a900473ffffffffffffffffffffffffffffffffffffffff16905090565b60046000838152602001908152602001600020600101600082815260200190815260200160002060009054906101000a900460ff1661095657600160046000848152602001908152602001600020600101600083815260200190815260200160002060006101000a81548160ff02191690831515021790555060046000838152602001908152602001600020600001819080600181540180825580915050600190039060005260206000200160009091909190915055610991565b6040517f08c379a00000000000000000000000000000000000000000000000000000000081526004016109889061294e565b60405180910390fd5b5050565b600560009054906101000a900473ffffffffffffffffffffffffffffffffffffffff1673ffffffffffffffffffffffffffffffffffffffff163373ffffffffffffffffffffffffffffffffffffffff1614610a25576040517f08c379a0000000000000000000000000000000000000000000000000000000008152600401610a1c90612a2e565b60405180910390fd5b816000811415610a6a576040517f08c379a0000000000000000000000000000000000000000000000000000000008152600401610a61906128ae565b60405180910390fd5b600115156006600083815260200190815260200160002060009054906101000a900460ff16151514610ad1576040517f08c379a0000000000000000000000000000000000000000000000000000000008152600401610ac89061288e565b60405180910390fd5b6000600760008381526020019081526020016000206001015414610b2a576040517f08c379a0000000000000000000000000000000000000000000000000000000008152600401610b2190612a0e565b60405180910390fd5b8351855114610b6e576040517f08c379a0000000000000000000000000000000000000000000000000000000008152600401610b65906128ee565b60405180910390fd5b60005b8551811015610e1457610b9e84878381518110610b9157610b90612d43565b5b602002602001015161089b565b6000868281518110610bb357610bb2612d43565b5b60200260200101511415610bfc576040517f08c379a0000000000000000000000000000000000000000000000000000000008152600401610bf390612a4e565b60405180910390fd5b6001151560066000888481518110610c1757610c16612d43565b5b6020026020010151815260200190815260200160002060009054906101000a900460ff16151514610c7d576040517f08c379a0000000000000000000000000000000000000000000000000000000008152600401610c7490612a6e565b60405180910390fd5b600060076000888481518110610c9657610c95612d43565b5b60200260200101518152602001908152602001600020600101541415610cf1576040517f08c379a0000000000000000000000000000000000000000000000000000000008152600401610ce8906129ce565b60405180910390fd5b848181518110610d0457610d03612d43565b5b602002602001015160076000888481518110610d2357610d22612d43565b5b602002602001015181526020019081526020016000206000015414610d7d576040517f08c379a0000000000000000000000000000000000000000000000000000000008152600401610d749061296e565b60405180910390fd5b6000151560076000888481518110610d9857610d97612d43565b5b6020026020010151815260200190815260200160002060020160009054906101000a900460ff16151514610e01576040517f08c379a0000000000000000000000000000000000000000000000000000000008152600401610df89061292e565b60405180910390fd5b8080610e0c90612c9c565b915050610b71565b5060086000815480929190610e2890612c9c565b9190505550816007600085815260200190815260200160002060000181905550426007600085815260200190815260200160002060010181905550600085511415610e7257610f51565b845160096000828254610e859190612bcd565b9250508190555060005b8551811015610f4f5760006040518060400160405280888481518110610eb857610eb7612d43565b5b60200260200101518152602001878481518110610ed857610ed7612d43565b5b602002602001015181525090506007600086815260200190815260200160002060030181908060018154018082558091505060019003906000526020600020906002020160009091909190915060008201518160000155602082015181600101555050508080610f4790612c9c565b915050610e8f565b505b5050505050565b60076020528060005260406000206000915090508060000154908060010154908060020160009054906101000a900460ff16905083565b60006001546002541015610fa257600080fd5b60008060015481526020019081526020016000205490506002546001541415610fe1576001600360006101000a81548160ff0219169083151502179055505b600080600154815260200190815260200160002060009055600180600082825461100b9190612bcd565b9250508190555090565b60006007600083815260200190815260200160002060020160009054906101000a900460ff169050919050565b606060076000838152602001908152602001600020600301805480602002602001604051908101604052809291908181526020016000905b828210156110c05783829060005260206000209060020201604051806040016040529081600082015481526020016001820154815250508152602001906001019061107a565b505050509050919050565b6000600854905090565b6000600954905090565b6110e7611f24565b60006110f1611f24565b60006110fc856107a4565b60005b600360009054906101000a900460ff1661123c5761111b610f8f565b90506111278186610731565b6111585780858561020081106111405761113f612d43565b5b602002018181525050838061115490612c9c565b9450505b60005b6007600083815260200190815260200160002060030180549050811015611236576111be6007600084815260200190815260200160002060030182815481106111a7576111a6612d43565b5b9060005260206000209060020201600001546107a4565b6007600083815260200190815260200160002060030181815481106111e6576111e5612d43565b5b9060005260206000209060020201600101548484610200811061120c5761120b612d43565b5b602002018181525050828061122090612c9c565b935050808061122e90612c9c565b91505061115b565b506110ff565b505050505050565b600560009054906101000a900473ffffffffffffffffffffffffffffffffffffffff1673ffffffffffffffffffffffffffffffffffffffff163373ffffffffffffffffffffffffffffffffffffffff16146112d4576040517f08c379a00000000000000000000000000000000000000000000000000000000081526004016112cb90612a2e565b60405180910390fd5b806000811415611319576040517f08c379a0000000000000000000000000000000000000000000000000000000008152600401611310906128ae565b60405180910390fd5b600115156006600083815260200190815260200160002060009054906101000a900460ff16151514611380576040517f08c379a00000000000000000000000000000000000000000000000000000000081526004016113779061288e565b60405180910390fd5b60006007600083815260200190815260200160002060010154146113d9576040517f08c379a00000000000000000000000000000000000000000000000000000000081526004016113d090612a0e565b60405180910390fd5b5050565b6000919050565b600560009054906101000a900473ffffffffffffffffffffffffffffffffffffffff1673ffffffffffffffffffffffffffffffffffffffff163373ffffffffffffffffffffffffffffffffffffffff1614611474576040517f08c379a000000000000000000000000000000000000000000000000000000000815260040161146b90612a2e565b60405180910390fd5b60008114156114b8576040517f08c379a00000000000000000000000000000000000000000000000000000000081526004016114af906128ae565b60405180910390fd5b600115156006600083815260200190815260200160002060009054906101000a900460ff1615151461151f576040517f08c379a00000000000000000000000000000000000000000000000000000000081526004016115169061288e565b60405180910390fd5b600060076000838152602001908152602001600020600101541415611579576040517f08c379a0000000000000000000000000000000000000000000000000000000008152600401611570906129ae565b60405180910390fd5b600015156007600083815260200190815260200160002060020160009054906101000a900460ff161515146115e3576040517f08c379a00000000000000000000000000000000000000000000000000000000081526004016115da9061286e565b60405180910390fd5b6000835114156115f257611b90565b60005b8351811015611898576116228285838151811061161557611614612d43565b5b602002602001015161089b565b600084828151811061163757611636612d43565b5b60200260200101511415611680576040517f08c379a000000000000000000000000000000000000000000000000000000000815260040161167790612a4e565b60405180910390fd5b600115156006600086848151811061169b5761169a612d43565b5b6020026020010151815260200190815260200160002060009054906101000a900460ff16151514611701576040517f08c379a00000000000000000000000000000000000000000000000000000000081526004016116f890612a6e565b60405180910390fd5b60006007600086848151811061171a57611719612d43565b5b60200260200101518152602001908152602001600020600101541415611775576040517f08c379a000000000000000000000000000000000000000000000000000000000815260040161176c906129ee565b60405180910390fd5b82818151811061178857611787612d43565b5b6020026020010151600760008684815181106117a7576117a6612d43565b5b602002602001015181526020019081526020016000206000015414611801576040517f08c379a00000000000000000000000000000000000000000000000000000000081526004016117f89061296e565b60405180910390fd5b600015156007600086848151811061181c5761181b612d43565b5b6020026020010151815260200190815260200160002060020160009054906101000a900460ff16151514611885576040517f08c379a000000000000000000000000000000000000000000000000000000000815260040161187c9061292e565b60405180910390fd5b808061189090612c9c565b9150506115f5565b5081518351146118dd576040517f08c379a00000000000000000000000000000000000000000000000000000000081526004016118d4906128ee565b60405180910390fd5b60006118e982856107ff565b9050801561192c576040517f08c379a0000000000000000000000000000000000000000000000000000000008152600401611923906128ce565b60405180910390fd5b60005b8451811015611aaf5760005b6007600085815260200190815260200160002060030180549050811015611a9b5785828151811061196f5761196e612d43565b5b602002602001015160076000868152602001908152602001600020600301828154811061199f5761199e612d43565b5b90600052602060002090600202016000015414156119f2576040517f08c379a00000000000000000000000000000000000000000000000000000000081526004016119e99061298e565b60405180910390fd5b8360076000888581518110611a0a57611a09612d43565b5b602002602001015181526020019081526020016000206003018281548110611a3557611a34612d43565b5b9060005260206000209060020201600001541415611a88576040517f08c379a0000000000000000000000000000000000000000000000000000000008152600401611a7f9061290e565b60405180910390fd5b8080611a9390612c9c565b91505061193b565b508080611aa790612c9c565b91505061192f565b50835160096000828254611ac39190612bcd565b9250508190555060005b8451811015611b8d5760006040518060400160405280878481518110611af657611af5612d43565b5b60200260200101518152602001868481518110611b1657611b15612d43565b5b602002602001015181525090506007600085815260200190815260200160002060030181908060018154018082558091505060019003906000526020600020906002020160009091909190915060008201518160000155602082015181600101555050508080611b8590612c9c565b915050611acd565b50505b505050565b600560009054906101000a900473ffffffffffffffffffffffffffffffffffffffff1673ffffffffffffffffffffffffffffffffffffffff163373ffffffffffffffffffffffffffffffffffffffff1614611c25576040517f08c379a0000000000000000000000000000000000000000000000000000000008152600401611c1c90612a2e565b60405180910390fd5b6000821415611c69576040517f08c379a0000000000000000000000000000000000000000000000000000000008152600401611c60906128ae565b60405180910390fd5b600115156006600084815260200190815260200160002060009054906101000a900460ff16151514611cd0576040517f08c379a0000000000000000000000000000000000000000000000000000000008152600401611cc79061288e565b60405180910390fd5b600060076000848152602001908152602001600020600101541415611d2a576040517f08c379a0000000000000000000000000000000000000000000000000000000008152600401611d21906129ae565b60405180910390fd5b806007600084815260200190815260200160002060020160006101000a81548160ff021916908315150217905515611d6157611d90565b806007600084815260200190815260200160002060020160006101000a81548160ff0219169083151502179055505b5050565b600560009054906101000a900473ffffffffffffffffffffffffffffffffffffffff1673ffffffffffffffffffffffffffffffffffffffff163373ffffffffffffffffffffffffffffffffffffffff1614611e24576040517f08c379a0000000000000000000000000000000000000000000000000000000008152600401611e1b90612a2e565b60405180910390fd5b6001600660006001815260200190815260200160002060006101000a81548160ff0219169083151502179055506001600660006002815260200190815260200160002060006101000a81548160ff0219169083151502179055506001600660006003815260200190815260200160002060006101000a81548160ff021916908315150217905550565b60005b6004600083815260200190815260200160002060000180549050811015611f205760046000838152602001908152602001600020600001805480611ef757611ef6612d14565b5b600190038181906000526020600020016000905590558080611f1890612c9c565b915050611eb0565b5050565b60405180614000016040528061020090602082028036833780820191505090505090565b6000611f5b611f5684612b05565b612ae0565b90508083825260208201905082856040860282011115611f7e57611f7d612db0565b5b60005b85811015611fae5781611f94888261212c565b845260208401935060408301925050600181019050611f81565b5050509392505050565b6000611fcb611fc684612b31565b612ae0565b90508082856020860282011115611fe557611fe4612db0565b5b60005b858110156120155781611ffb8882612210565b845260208401935060208301925050600181019050611fe8565b5050509392505050565b600061203261202d84612b57565b612ae0565b9050808382526020820190508285602086028201111561205557612054612db0565b5b60005b85811015612085578161206b8882612210565b845260208401935060208301925050600181019050612058565b5050509392505050565b600082601f8301126120a4576120a3612da1565b5b81356120b4848260208601611f48565b91505092915050565b600082601f8301126120d2576120d1612da1565b5b6102006120e0848285611fb8565b91505092915050565b600082601f8301126120fe576120fd612da1565b5b813561210e84826020860161201f565b91505092915050565b6000813590506121268161329d565b92915050565b60006040828403121561214257612141612da6565b5b61214c6040612ae0565b9050600061215c84828501612210565b600083015250602061217084828501612210565b60208301525092915050565b60006080828403121561219257612191612da6565b5b61219c6080612ae0565b905060006121ac84828501612210565b60008301525060206121c084828501612210565b60208301525060406121d484828501612117565b604083015250606082013567ffffffffffffffff8111156121f8576121f7612dab565b5b6122048482850161208f565b60608301525092915050565b60008135905061221f816132b4565b92915050565b60008060006060848603121561223e5761223d612dba565b5b600084013567ffffffffffffffff81111561225c5761225b612db5565b5b612268868287016120e9565b935050602084013567ffffffffffffffff81111561228957612288612db5565b5b612295868287016120e9565b92505060406122a686828701612210565b9150509250925092565b600080600080608085870312156122ca576122c9612dba565b5b600085013567ffffffffffffffff8111156122e8576122e7612db5565b5b6122f4878288016120e9565b945050602085013567ffffffffffffffff81111561231557612314612db5565b5b612321878288016120e9565b935050604061233287828801612210565b925050606061234387828801612210565b91505092959194509250565b60006020828403121561236557612364612dba565b5b600082013567ffffffffffffffff81111561238357612382612db5565b5b61238f8482850161217c565b91505092915050565b6000602082840312156123ae576123ad612dba565b5b60006123bc84828501612210565b91505092915050565b60008061402083850312156123dd576123dc612dba565b5b60006123eb85828601612210565b92505060206123fc858286016120bd565b9150509250929050565b6000806040838503121561241d5761241c612dba565b5b600061242b85828601612210565b925050602083013567ffffffffffffffff81111561244c5761244b612db5565b5b612458858286016120e9565b9150509250929050565b6000806040838503121561247957612478612dba565b5b600061248785828601612210565b925050602061249885828601612117565b9150509250929050565b600080604083850312156124b9576124b8612dba565b5b60006124c785828601612210565b92505060206124d885828601612210565b9150509250929050565b60006124ee83836127c9565b60408301905092915050565b61250381612c23565b82525050565b600061251482612b93565b61251e8185612bab565b935061252983612b83565b8060005b8381101561255a57815161254188826124e2565b975061254c83612b9e565b92505060018101905061252d565b5085935050505092915050565b61257081612c35565b82525050565b6000612583603183612bbc565b915061258e82612dd0565b604082019050919050565b60006125a6602c83612bbc565b91506125b182612e1f565b604082019050919050565b60006125c9601b83612bbc565b91506125d482612e6e565b602082019050919050565b60006125ec602c83612bbc565b91506125f782612e97565b604082019050919050565b600061260f603783612bbc565b915061261a82612ee6565b604082019050919050565b6000612632602483612bbc565b915061263d82612f35565b604082019050919050565b6000612655603a83612bbc565b915061266082612f84565b604082019050919050565b6000612678603383612bbc565b915061268382612fd3565b604082019050919050565b600061269b603483612bbc565b91506126a682613022565b604082019050919050565b60006126be603c83612bbc565b91506126c982613071565b604082019050919050565b60006126e1601f83612bbc565b91506126ec826130c0565b602082019050919050565b6000612704602d83612bbc565b915061270f826130e9565b604082019050919050565b6000612727602b83612bbc565b915061273282613138565b604082019050919050565b600061274a602483612bbc565b915061275582613187565b604082019050919050565b600061276d601383612bbc565b9150612778826131d6565b602082019050919050565b6000612790602183612bbc565b915061279b826131ff565b604082019050919050565b60006127b3602f83612bbc565b91506127be8261324e565b604082019050919050565b6040820160008201516127df60008501826127f8565b5060208201516127f260208501826127f8565b50505050565b61280181612c61565b82525050565b61281081612c61565b82525050565b600060208201905061282b60008301846124fa565b92915050565b6000602082019050818103600083015261284b8184612509565b905092915050565b60006020820190506128686000830184612567565b92915050565b6000602082019050818103600083015261288781612576565b9050919050565b600060208201905081810360008301526128a781612599565b9050919050565b600060208201905081810360008301526128c7816125bc565b9050919050565b600060208201905081810360008301526128e7816125df565b9050919050565b6000602082019050818103600083015261290781612602565b9050919050565b6000602082019050818103600083015261292781612625565b9050919050565b6000602082019050818103600083015261294781612648565b9050919050565b600060208201905081810360008301526129678161266b565b9050919050565b600060208201905081810360008301526129878161268e565b9050919050565b600060208201905081810360008301526129a7816126b1565b9050919050565b600060208201905081810360008301526129c7816126d4565b9050919050565b600060208201905081810360008301526129e7816126f7565b9050919050565b60006020820190508181036000830152612a078161271a565b9050919050565b60006020820190508181036000830152612a278161273d565b9050919050565b60006020820190508181036000830152612a4781612760565b9050919050565b60006020820190508181036000830152612a6781612783565b9050919050565b60006020820190508181036000830152612a87816127a6565b9050919050565b6000602082019050612aa36000830184612807565b92915050565b6000606082019050612abe6000830186612807565b612acb6020830185612807565b612ad86040830184612567565b949350505050565b6000612aea612afb565b9050612af68282612c6b565b919050565b6000604051905090565b600067ffffffffffffffff821115612b2057612b1f612d72565b5b602082029050602081019050919050565b600067ffffffffffffffff821115612b4c57612b4b612d72565b5b602082029050919050565b600067ffffffffffffffff821115612b7257612b71612d72565b5b602082029050602081019050919050565b6000819050602082019050919050565b600081519050919050565b6000602082019050919050565b600082825260208201905092915050565b600082825260208201905092915050565b6000612bd882612c61565b9150612be383612c61565b9250827fffffffffffffffffffffffffffffffffffffffffffffffffffffffffffffffff03821115612c1857612c17612ce5565b5b828201905092915050565b6000612c2e82612c41565b9050919050565b60008115159050919050565b600073ffffffffffffffffffffffffffffffffffffffff82169050919050565b6000819050919050565b612c7482612dbf565b810181811067ffffffffffffffff82111715612c9357612c92612d72565b5b80604052505050565b6000612ca782612c61565b91507fffffffffffffffffffffffffffffffffffffffffffffffffffffffffffffffff821415612cda57612cd9612ce5565b5b600182019050919050565b7f4e487b7100000000000000000000000000000000000000000000000000000000600052601160045260246000fd5b7f4e487b7100000000000000000000000000000000000000000000000000000000600052603160045260246000fd5b7f4e487b7100000000000000000000000000000000000000000000000000000000600052603260045260246000fd5b7f4e487b7100000000000000000000000000000000000000000000000000000000600052604160045260246000fd5b600080fd5b600080fd5b600080fd5b600080fd5b600080fd5b600080fd5b6000601f19601f8301169050919050565b7f696420697320626c61636b6c697374656420736f20746869732070726f63657360008201527f732063616e6e6f7420636f6e74696e7565000000000000000000000000000000602082015250565b7f54686520746f6b656e206973206e6f742061207265676973746572656420455260008201527f43203131353520746f6b656e0000000000000000000000000000000000000000602082015250565b7f54686520746f6b656e2049442063616e6e6f74206265207a65726f0000000000600082015250565b7f546f6b656e49442063616e6e6f74206265206120737562736574206f6620706160008201527f72656e74546f6b656e4944730000000000000000000000000000000000000000602082015250565b7f546865206c656e677468206f6620706172656e742049647320616e642077656960008201527f676874732073686f756c64206265207468652073616d65000000000000000000602082015250565b7f4572726f723a20616e206772617068206c6f6f702077696c6c2062652063726560008201527f6174656400000000000000000000000000000000000000000000000000000000602082015250565b7f4120706172656e7420494420697320626c61636b6c697374656420736f20746860008201527f69732070726f636573732063616e6e6f7420636f6e74696e7565000000000000602082015250565b7f412076616c756520796f752061726520696e70757474696e6720696e6469636160008201527f746573206120627265616b206f66207365742e00000000000000000000000000602082015250565b7f4120706172656e7420696420646f6573206e6f7420636f6f7265736f6e64207460008201527f6f2074686520636f727265637420776569676874000000000000000000000000602082015250565b7f4572726f723a204564676520636f6e6e656374696f6e20796f7520617265207460008201527f7279696e6720746f2061646420616c6c72656164792065786973747300000000602082015250565b7f494420686173206e6f74206265656e20616464656420746f2067726170682e00600082015250565b7f4120706172656e7420746f6b656e20494420686173206e6f74206265656e206160008201527f6464656420746f20677261706800000000000000000000000000000000000000602082015250565b7f706172656e7420746f6b656e20494420686173206e6f74206265656e2061646460008201527f656420746f206772617068000000000000000000000000000000000000000000602082015250565b7f49442068617320616c6c7265616479206265656e20616464656420746f20677260008201527f6170682e00000000000000000000000000000000000000000000000000000000602082015250565b7f55736572206d7573742062652061646d696e2e00000000000000000000000000600082015250565b7f54686520746f6b656e204944206f66206120706172656e74206973207a65726f60008201527f2e00000000000000000000000000000000000000000000000000000000000000602082015250565b7f4120706172656e7420746f6b656e206973206e6f74206120726567697374656460008201527f20455243203131353520746f6b656e0000000000000000000000000000000000602082015250565b6132a681612c35565b81146132b157600080fd5b50565b6132bd81612c61565b81146132c857600080fd5b5056fea2646970667358221220c1bdd258cd1cdfe2e5ea2d6d550550a26bc4179098c852e3139852111993b8ac64736f6c63430008060033",
  "linkReferences": {},
  "deployedLinkReferences": {}
}