{
  "_format": "hh-sol-artifact-1",
  "contractName": "copyrightMaster",
  "sourceName": "contracts/copyrightMaster.sol",
  "abi": [
    {
      "inputs": [],
      "stateMutability": "nonpayable",
      "type": "constructor"
    },
    {
      "anonymous": false,
      "inputs": [
        {
          "components": [
            {
              "internalType": "uint256",
              "name": "id",
              "type": "uint256"
            },
            {
              "internalType": "uint256",
              "name": "weight",
              "type": "uint256"
            },
            {
              "internalType": "uint256",
              "name": "timeStamp",
              "type": "uint256"
            },
            {
              "internalType": "bool",
              "name": "isBlacklisted",
              "type": "bool"
            },
            {
              "components": [
                {
                  "internalType": "uint256[]",
                  "name": "to",
                  "type": "uint256[]"
                },
                {
                  "internalType": "uint256[]",
                  "name": "weight",
                  "type": "uint256[]"
                }
              ],
              "internalType": "struct ICopyrightMaster.Edge",
              "name": "edge",
              "type": "tuple"
            }
          ],
          "indexed": false,
          "internalType": "struct ICopyrightMaster.Token",
          "name": "token",
          "type": "tuple"
        }
      ],
      "name": "AddTokenToGraph",
      "type": "event"
    },
    {
      "anonymous": false,
      "inputs": [
        {
          "indexed": false,
          "internalType": "uint256",
          "name": "id",
          "type": "uint256"
        },
        {
          "indexed": false,
          "internalType": "uint256",
          "name": "newWeight",
          "type": "uint256"
        }
      ],
      "name": "ChangeTokenWeight",
      "type": "event"
    },
    {
      "anonymous": false,
      "inputs": [
        {
          "indexed": false,
          "internalType": "uint256",
          "name": "id",
          "type": "uint256"
        },
        {
          "indexed": false,
          "internalType": "bool",
          "name": "isBlacklisted",
          "type": "bool"
        }
      ],
      "name": "TokenBlacklisted",
      "type": "event"
    },
    {
      "inputs": [
        {
          "internalType": "uint256",
          "name": "",
          "type": "uint256"
        }
      ],
      "name": "_idToIsERC1155",
      "outputs": [
        {
          "internalType": "bool",
          "name": "",
          "type": "bool"
        }
      ],
      "stateMutability": "view",
      "type": "function"
    },
    {
      "inputs": [
        {
          "internalType": "uint256",
          "name": "id",
          "type": "uint256"
        }
      ],
      "name": "bfsTraversal",
      "outputs": [],
      "stateMutability": "nonpayable",
      "type": "function"
    },
    {
      "inputs": [
        {
          "internalType": "uint256",
          "name": "id",
          "type": "uint256"
        },
        {
          "internalType": "bool",
          "name": "isBlacklisted",
          "type": "bool"
        }
      ],
      "name": "blacklistToken",
      "outputs": [],
      "stateMutability": "nonpayable",
      "type": "function"
    },
    {
      "inputs": [
        {
          "internalType": "uint256",
          "name": "id",
          "type": "uint256"
        },
        {
          "internalType": "uint256",
          "name": "newWeight",
          "type": "uint256"
        }
      ],
      "name": "changeTokenWeight",
      "outputs": [],
      "stateMutability": "nonpayable",
      "type": "function"
    },
    {
      "inputs": [],
      "name": "dequeue",
      "outputs": [
        {
          "internalType": "uint256",
          "name": "id",
          "type": "uint256"
        }
      ],
      "stateMutability": "nonpayable",
      "type": "function"
    },
    {
      "inputs": [],
      "name": "edgeCount",
      "outputs": [
        {
          "internalType": "uint256",
          "name": "",
          "type": "uint256"
        }
      ],
      "stateMutability": "view",
      "type": "function"
    },
    {
      "inputs": [
        {
          "internalType": "uint256",
          "name": "id",
          "type": "uint256"
        }
      ],
      "name": "edgeTo",
      "outputs": [
        {
          "internalType": "uint256[]",
          "name": "",
          "type": "uint256[]"
        }
      ],
      "stateMutability": "view",
      "type": "function"
    },
    {
      "inputs": [
        {
          "internalType": "uint256",
          "name": "id",
          "type": "uint256"
        }
      ],
      "name": "edgeWeights",
      "outputs": [
        {
          "internalType": "uint256[]",
          "name": "",
          "type": "uint256[]"
        }
      ],
      "stateMutability": "view",
      "type": "function"
    },
    {
      "inputs": [
        {
          "internalType": "uint256",
          "name": "id",
          "type": "uint256"
        }
      ],
      "name": "enqueue",
      "outputs": [],
      "stateMutability": "nonpayable",
      "type": "function"
    },
    {
      "inputs": [],
      "name": "getAdmin",
      "outputs": [
        {
          "internalType": "address",
          "name": "",
          "type": "address"
        }
      ],
      "stateMutability": "view",
      "type": "function"
    },
    {
      "inputs": [
        {
          "internalType": "uint256[]",
          "name": "parentIds",
          "type": "uint256[]"
        },
        {
          "internalType": "uint256[]",
          "name": "parentWeights",
          "type": "uint256[]"
        },
        {
          "internalType": "uint256",
          "name": "id",
          "type": "uint256"
        }
      ],
      "name": "insertEdges",
      "outputs": [],
      "stateMutability": "nonpayable",
      "type": "function"
    },
    {
      "inputs": [
        {
          "internalType": "uint256[]",
          "name": "parentIds",
          "type": "uint256[]"
        },
        {
          "internalType": "uint256[]",
          "name": "parentWeights",
          "type": "uint256[]"
        },
        {
          "internalType": "uint256",
          "name": "id",
          "type": "uint256"
        },
        {
          "internalType": "uint256",
          "name": "weight",
          "type": "uint256"
        }
      ],
      "name": "insertToken",
      "outputs": [],
      "stateMutability": "nonpayable",
      "type": "function"
    },
    {
      "inputs": [
        {
          "internalType": "uint256",
          "name": "id",
          "type": "uint256"
        },
        {
          "internalType": "uint256[]",
          "name": "parentTokenIds",
          "type": "uint256[]"
        }
      ],
      "name": "isSubset",
      "outputs": [
        {
          "internalType": "bool",
          "name": "",
          "type": "bool"
        }
      ],
      "stateMutability": "pure",
      "type": "function"
    },
    {
      "inputs": [
        {
          "internalType": "uint256",
          "name": "id",
          "type": "uint256"
        },
        {
          "internalType": "uint256[512]",
          "name": "parentTokenIds",
          "type": "uint256[512]"
        }
      ],
      "name": "isSubsetSpecialMemory",
      "outputs": [
        {
          "internalType": "bool",
          "name": "",
          "type": "bool"
        }
      ],
      "stateMutability": "pure",
      "type": "function"
    },
    {
      "inputs": [],
      "name": "makeERC1155ForTesting",
      "outputs": [],
      "stateMutability": "nonpayable",
      "type": "function"
    },
    {
      "inputs": [
        {
          "internalType": "uint256",
          "name": "id",
          "type": "uint256"
        }
      ],
      "name": "returnEdge",
      "outputs": [
        {
          "components": [
            {
              "internalType": "uint256[]",
              "name": "to",
              "type": "uint256[]"
            },
            {
              "internalType": "uint256[]",
              "name": "weight",
              "type": "uint256[]"
            }
          ],
          "internalType": "struct ICopyrightMaster.Edge",
          "name": "edge",
          "type": "tuple"
        }
      ],
      "stateMutability": "view",
      "type": "function"
    },
    {
      "inputs": [
        {
          "components": [
            {
              "internalType": "uint256",
              "name": "id",
              "type": "uint256"
            },
            {
              "internalType": "uint256",
              "name": "weight",
              "type": "uint256"
            },
            {
              "internalType": "uint256",
              "name": "timeStamp",
              "type": "uint256"
            },
            {
              "internalType": "bool",
              "name": "isBlacklisted",
              "type": "bool"
            },
            {
              "components": [
                {
                  "internalType": "uint256[]",
                  "name": "to",
                  "type": "uint256[]"
                },
                {
                  "internalType": "uint256[]",
                  "name": "weight",
                  "type": "uint256[]"
                }
              ],
              "internalType": "struct ICopyrightMaster.Edge",
              "name": "edge",
              "type": "tuple"
            }
          ],
          "internalType": "struct ICopyrightMaster.Token",
          "name": "token",
          "type": "tuple"
        }
      ],
      "name": "returnId",
      "outputs": [
        {
          "internalType": "uint256",
          "name": "id",
          "type": "uint256"
        }
      ],
      "stateMutability": "pure",
      "type": "function"
    },
    {
      "inputs": [
        {
          "internalType": "uint256",
          "name": "id",
          "type": "uint256"
        }
      ],
      "name": "returnIsBlacklisted",
      "outputs": [
        {
          "internalType": "bool",
          "name": "isBlacklisted",
          "type": "bool"
        }
      ],
      "stateMutability": "view",
      "type": "function"
    },
    {
      "inputs": [
        {
          "internalType": "uint256",
          "name": "id",
          "type": "uint256"
        }
      ],
      "name": "returnTime",
      "outputs": [
        {
          "internalType": "uint256",
          "name": "timeStamp",
          "type": "uint256"
        }
      ],
      "stateMutability": "view",
      "type": "function"
    },
    {
      "inputs": [
        {
          "internalType": "uint256",
          "name": "id",
          "type": "uint256"
        }
      ],
      "name": "returnTokenWeight",
      "outputs": [
        {
          "internalType": "uint256",
          "name": "weight",
          "type": "uint256"
        }
      ],
      "stateMutability": "view",
      "type": "function"
    },
    {
      "inputs": [
        {
          "internalType": "uint256",
          "name": "id",
          "type": "uint256"
        }
      ],
      "name": "sortByTime",
      "outputs": [],
      "stateMutability": "nonpayable",
      "type": "function"
    },
    {
      "inputs": [],
      "name": "tokenCount",
      "outputs": [
        {
          "internalType": "uint256",
          "name": "",
          "type": "uint256"
        }
      ],
      "stateMutability": "view",
      "type": "function"
    },
    {
      "inputs": [
        {
          "internalType": "uint256",
          "name": "id",
          "type": "uint256"
        }
      ],
      "name": "tokenExists",
      "outputs": [
        {
          "internalType": "bool",
          "name": "exists",
          "type": "bool"
        }
      ],
      "stateMutability": "view",
      "type": "function"
    }
  ],
  "bytecode": "0x60806040526001805560006002556001600360006101000a81548160ff0219169083151502179055506000600655600060075534801561003e57600080fd5b5033600360016101000a81548173ffffffffffffffffffffffffffffffffffffffff021916908373ffffffffffffffffffffffffffffffffffffffff160217905550612c2e8061008f6000396000f3fe608060405234801561001057600080fd5b506004361061014c5760003560e01c806394b90830116100c3578063beae49421161007c578063beae4942146103e7578063c955744914610403578063ce8b4afd14610433578063d7753a651461044f578063e8ca8c3e14610459578063ee8a9fd6146104895761014c565b806394b9083014610313578063957908d114610343578063981ad468146103615780639f181b5e14610391578063aca382a0146103af578063b0f555ae146103cb5761014c565b80631ffc735d116101155780631ffc735d1461022d578063281d75ab1461024957806365af0366146102795780636cf61127146102a95780636e9960c3146102d9578063866fe41a146102f75761014c565b8062923f9e14610151578063076fcc1f146101815780630b8e12fc1461019d57806316b407a8146101cd57806318182eaa146101fd575b600080fd5b61016b60048036038101906101669190611ff7565b6104a7565b6040516101789190612453565b60405180910390f35b61019b60048036038101906101969190612101565b6104d0565b005b6101b760048036038101906101b29190611ff7565b610685565b6040516101c491906125f0565b60405180910390f35b6101e760048036038101906101e29190611ff7565b6106a5565b6040516101f491906125f0565b60405180910390f35b61021760048036038101906102129190612024565b6106c5565b6040516102249190612453565b60405180910390f35b61024760048036038101906102429190611ff7565b610738565b005b610263600480360381019061025e9190611ff7565b610789565b6040516102709190612453565b60405180910390f35b610293600480360381019061028e9190611fae565b6107a9565b6040516102a091906125f0565b60405180910390f35b6102c360048036038101906102be9190612065565b6107b7565b6040516102d09190612453565b60405180910390f35b6102e1610829565b6040516102ee9190612416565b60405180910390f35b610311600480360381019061030c9190611f0f565b610853565b005b61032d60048036038101906103289190611ff7565b610ce6565b60405161033a91906125ce565b60405180910390f35b61034b610dc6565b60405161035891906125f0565b60405180910390f35b61037b60048036038101906103769190611ff7565b610e4c565b6040516103889190612453565b60405180910390f35b610399610e79565b6040516103a691906125f0565b60405180910390f35b6103c960048036038101906103c49190611ff7565b610e83565b005b6103e560048036038101906103e09190611ff7565b610fe3565b005b61040160048036038101906103fc9190611e84565b61117c565b005b61041d60048036038101906104189190611ff7565b611779565b60405161042a9190612431565b60405180910390f35b61044d600480360381019061044891906120c1565b6117ea565b005b6104576119ea565b005b610473600480360381019061046e9190611ff7565b611ad6565b6040516104809190612431565b60405180910390f35b610491611b47565b60405161049e91906125f0565b60405180910390f35b6000806005600084815260200190815260200160002060000154146104cb57600190505b919050565b600360019054906101000a900473ffffffffffffffffffffffffffffffffffffffff1673ffffffffffffffffffffffffffffffffffffffff163373ffffffffffffffffffffffffffffffffffffffff1614610560576040517f08c379a00000000000000000000000000000000000000000000000000000000081526004016105579061256e565b60405180910390fd5b8160008114156105a5576040517f08c379a000000000000000000000000000000000000000000000000000000000815260040161059c9061248e565b60405180910390fd5b600115156004600083815260200190815260200160002060009054906101000a900460ff1615151461060c576040517f08c379a00000000000000000000000000000000000000000000000000000000081526004016106039061246e565b60405180910390fd5b6000600560008381526020019081526020016000206000015414610665576040517f08c379a000000000000000000000000000000000000000000000000000000000815260040161065c9061254e565b60405180910390fd5b816005600085815260200190815260200160002060010181905550505050565b600060056000838152602001908152602001600020600201549050919050565b600060056000838152602001908152602001600020600101549050919050565b600080610200905060008114156106e0576000915050610732565b60005b61020081101561072b57848482610200811061070257610701612824565b5b6020020151141561071857600192505050610732565b8080610723906127ac565b9150506106e3565b5060009150505b92915050565b60016002600082825461074b91906126dd565b925050819055506000600360006101000a81548160ff0219169083151502179055508060008060025481526020019081526020016000208190555050565b60046020528060005260406000206000915054906101000a900460ff1681565b600081600001519050919050565b6000808251905060008114156107d1576000915050610823565b60005b8181101561081c57848482815181106107f0576107ef612824565b5b6020026020010151141561080957600192505050610823565b8080610814906127ac565b9150506107d4565b5060009150505b92915050565b6000600360019054906101000a900473ffffffffffffffffffffffffffffffffffffffff16905090565b600360019054906101000a900473ffffffffffffffffffffffffffffffffffffffff1673ffffffffffffffffffffffffffffffffffffffff163373ffffffffffffffffffffffffffffffffffffffff16146108e3576040517f08c379a00000000000000000000000000000000000000000000000000000000081526004016108da9061256e565b60405180910390fd5b816000811415610928576040517f08c379a000000000000000000000000000000000000000000000000000000000815260040161091f9061248e565b60405180910390fd5b600115156004600083815260200190815260200160002060009054906101000a900460ff1615151461098f576040517f08c379a00000000000000000000000000000000000000000000000000000000081526004016109869061246e565b60405180910390fd5b60006005600083815260200190815260200160002060000154146109e8576040517f08c379a00000000000000000000000000000000000000000000000000000000081526004016109df9061254e565b60405180910390fd5b60005b8551811015610b5a576000868281518110610a0957610a08612824565b5b60200260200101511415610a52576040517f08c379a0000000000000000000000000000000000000000000000000000000008152600401610a499061258e565b60405180910390fd5b6001151560046000888481518110610a6d57610a6c612824565b5b6020026020010151815260200190815260200160002060009054906101000a900460ff16151514610ad3576040517f08c379a0000000000000000000000000000000000000000000000000000000008152600401610aca906125ae565b60405180910390fd5b600060056000888481518110610aec57610aeb612824565b5b60200260200101518152602001908152602001600020600001541415610b47576040517f08c379a0000000000000000000000000000000000000000000000000000000008152600401610b3e9061252e565b60405180910390fd5b8080610b52906127ac565b9150506109eb565b506000610b6784876107b7565b90508015610baa576040517f08c379a0000000000000000000000000000000000000000000000000000000008152600401610ba1906124ae565b60405180910390fd5b60066000815480929190610bbd906127ac565b9190505550836005600086815260200190815260200160002060000181905550826005600086815260200190815260200160002060010181905550426005600086815260200190815260200160002060020181905550600086511415610c235750610cdf565b8451865114610c67576040517f08c379a0000000000000000000000000000000000000000000000000000000008152600401610c5e906124ee565b60405180910390fd5b855160076000828254610c7a91906126dd565b9250508190555085600560008681526020019081526020016000206004016000019080519060200190610cae929190611b51565b5084600560008681526020019081526020016000206004016001019080519060200190610cdc929190611b51565b50505b5050505050565b610cee611b9e565b6005600083815260200190815260200160002060040160405180604001604052908160008201805480602002602001604051908101604052809291908181526020018280548015610d5e57602002820191906000526020600020905b815481526020019060010190808311610d4a575b5050505050815260200160018201805480602002602001604051908101604052809291908181526020018280548015610db657602002820191906000526020600020905b815481526020019060010190808311610da2575b5050505050815250509050919050565b60006001546002541015610dd957600080fd5b60008060015481526020019081526020016000205490506002546001541415610e18576001600360006101000a81548160ff0219169083151502179055505b6000806001548152602001908152602001600020600090556001806000828254610e4291906126dd565b9250508190555090565b60006005600083815260200190815260200160002060030160009054906101000a900460ff169050919050565b6000600654905090565b610e8b611bb8565b6000610e95611bb8565b6000610ea085610738565b60005b600360009054906101000a900460ff16610fdb57610ebf610dc6565b9050610ecb81866106c5565b610efc578085856102008110610ee457610ee3612824565b5b6020020181815250508380610ef8906127ac565b9450505b60005b6005600083815260200190815260200160002060040160000180549050811015610fd557610f61600560008481526020019081526020016000206004016000018281548110610f5157610f50612824565b5b9060005260206000200154610738565b600560008381526020019081526020016000206004016001018181548110610f8c57610f8b612824565b5b906000526020600020015484846102008110610fab57610faa612824565b5b6020020181815250508280610fbf906127ac565b9350508080610fcd906127ac565b915050610eff565b50610ea3565b505050505050565b600360019054906101000a900473ffffffffffffffffffffffffffffffffffffffff1673ffffffffffffffffffffffffffffffffffffffff163373ffffffffffffffffffffffffffffffffffffffff1614611073576040517f08c379a000000000000000000000000000000000000000000000000000000000815260040161106a9061256e565b60405180910390fd5b8060008114156110b8576040517f08c379a00000000000000000000000000000000000000000000000000000000081526004016110af9061248e565b60405180910390fd5b600115156004600083815260200190815260200160002060009054906101000a900460ff1615151461111f576040517f08c379a00000000000000000000000000000000000000000000000000000000081526004016111169061246e565b60405180910390fd5b6000600560008381526020019081526020016000206000015414611178576040517f08c379a000000000000000000000000000000000000000000000000000000000815260040161116f9061254e565b60405180910390fd5b5050565b600360019054906101000a900473ffffffffffffffffffffffffffffffffffffffff1673ffffffffffffffffffffffffffffffffffffffff163373ffffffffffffffffffffffffffffffffffffffff161461120c576040517f08c379a00000000000000000000000000000000000000000000000000000000081526004016112039061256e565b60405180910390fd5b806000811415611251576040517f08c379a00000000000000000000000000000000000000000000000000000000081526004016112489061248e565b60405180910390fd5b600115156004600083815260200190815260200160002060009054906101000a900460ff161515146112b8576040517f08c379a00000000000000000000000000000000000000000000000000000000081526004016112af9061246e565b60405180910390fd5b6000600560008381526020019081526020016000206000015414611311576040517f08c379a00000000000000000000000000000000000000000000000000000000081526004016113089061254e565b60405180910390fd5b60008451141561132057611773565b60005b845181101561149257600085828151811061134157611340612824565b5b6020026020010151141561138a576040517f08c379a00000000000000000000000000000000000000000000000000000000081526004016113819061248e565b60405180910390fd5b60011515600460008784815181106113a5576113a4612824565b5b6020026020010151815260200190815260200160002060009054906101000a900460ff1615151461140b576040517f08c379a0000000000000000000000000000000000000000000000000000000008152600401611402906125ae565b60405180910390fd5b60006005600087848151811061142457611423612824565b5b6020026020010151815260200190815260200160002060000154141561147f576040517f08c379a00000000000000000000000000000000000000000000000000000000081526004016114769061252e565b60405180910390fd5b808061148a906127ac565b915050611323565b50600061149f83866107b7565b905080156114e2576040517f08c379a00000000000000000000000000000000000000000000000000000000081526004016114d9906124ae565b60405180910390fd5b8351855114611526576040517f08c379a000000000000000000000000000000000000000000000000000000000815260040161151d906124ee565b60405180910390fd5b60005b85518110156117705760005b60056000868152602001908152602001600020600401600001805490508110156116905786828151811061156c5761156b612824565b5b602002602001015160056000878152602001908152602001600020600401600001828154811061159f5761159e612824565b5b906000526020600020015414156115eb576040517f08c379a00000000000000000000000000000000000000000000000000000000081526004016115e29061250e565b60405180910390fd5b846005600089858151811061160357611602612824565b5b60200260200101518152602001908152602001600020600401600001828154811061163157611630612824565b5b9060005260206000200154141561167d576040517f08c379a0000000000000000000000000000000000000000000000000000000008152600401611674906124ce565b60405180910390fd5b8080611688906127ac565b915050611535565b50600760008154809291906116a4906127ac565b9190505550600560008581526020019081526020016000206004016000018682815181106116d5576116d4612824565b5b602002602001015190806001815401808255809150506001900390600052602060002001600090919091909150556005600085815260200190815260200160002060040160010185828151811061172f5761172e612824565b5b602002602001015190806001815401808255809150506001900390600052602060002001600090919091909150558080611768906127ac565b915050611529565b50505b50505050565b6060600560008381526020019081526020016000206004016001018054806020026020016040519081016040528092919081815260200182805480156117de57602002820191906000526020600020905b8154815260200190600101908083116117ca575b50505050509050919050565b600360019054906101000a900473ffffffffffffffffffffffffffffffffffffffff1673ffffffffffffffffffffffffffffffffffffffff163373ffffffffffffffffffffffffffffffffffffffff161461187a576040517f08c379a00000000000000000000000000000000000000000000000000000000081526004016118719061256e565b60405180910390fd5b8160008114156118bf576040517f08c379a00000000000000000000000000000000000000000000000000000000081526004016118b69061248e565b60405180910390fd5b600115156004600083815260200190815260200160002060009054906101000a900460ff16151514611926576040517f08c379a000000000000000000000000000000000000000000000000000000000815260040161191d9061246e565b60405180910390fd5b600060056000838152602001908152602001600020600001541461197f576040517f08c379a00000000000000000000000000000000000000000000000000000000081526004016119769061254e565b60405180910390fd5b816005600085815260200190815260200160002060030160006101000a81548160ff0219169083151502179055156119b6576119e5565b816005600085815260200190815260200160002060030160006101000a81548160ff0219169083151502179055505b505050565b600360019054906101000a900473ffffffffffffffffffffffffffffffffffffffff1673ffffffffffffffffffffffffffffffffffffffff163373ffffffffffffffffffffffffffffffffffffffff1614611a7a576040517f08c379a0000000000000000000000000000000000000000000000000000000008152600401611a719061256e565b60405180910390fd5b6001600460006001815260200190815260200160002060006101000a81548160ff0219169083151502179055506001600460006002815260200190815260200160002060006101000a81548160ff021916908315150217905550565b606060056000838152602001908152602001600020600401600001805480602002602001604051908101604052809291908181526020018280548015611b3b57602002820191906000526020600020905b815481526020019060010190808311611b27575b50505050509050919050565b6000600754905090565b828054828255906000526020600020908101928215611b8d579160200282015b82811115611b8c578251825591602001919060010190611b71565b5b509050611b9a9190611bdc565b5090565b604051806040016040528060608152602001606081525090565b60405180614000016040528061020090602082028036833780820191505090505090565b5b80821115611bf5576000816000905550600101611bdd565b5090565b6000611c0c611c0784612630565b61260b565b90508082856020860282011115611c2657611c25612891565b5b60005b85811015611c565781611c3c8882611e6f565b845260208401935060208301925050600181019050611c29565b5050509392505050565b6000611c73611c6e84612656565b61260b565b90508083825260208201905082856020860282011115611c9657611c95612891565b5b60005b85811015611cc65781611cac8882611e6f565b845260208401935060208301925050600181019050611c99565b5050509392505050565b600082601f830112611ce557611ce4612882565b5b610200611cf3848285611bf9565b91505092915050565b600082601f830112611d1157611d10612882565b5b8135611d21848260208601611c60565b91505092915050565b600081359050611d3981612bca565b92915050565b600060408284031215611d5557611d54612887565b5b611d5f604061260b565b9050600082013567ffffffffffffffff811115611d7f57611d7e61288c565b5b611d8b84828501611cfc565b600083015250602082013567ffffffffffffffff811115611daf57611dae61288c565b5b611dbb84828501611cfc565b60208301525092915050565b600060a08284031215611ddd57611ddc612887565b5b611de760a061260b565b90506000611df784828501611e6f565b6000830152506020611e0b84828501611e6f565b6020830152506040611e1f84828501611e6f565b6040830152506060611e3384828501611d2a565b606083015250608082013567ffffffffffffffff811115611e5757611e5661288c565b5b611e6384828501611d3f565b60808301525092915050565b600081359050611e7e81612be1565b92915050565b600080600060608486031215611e9d57611e9c61289b565b5b600084013567ffffffffffffffff811115611ebb57611eba612896565b5b611ec786828701611cfc565b935050602084013567ffffffffffffffff811115611ee857611ee7612896565b5b611ef486828701611cfc565b9250506040611f0586828701611e6f565b9150509250925092565b60008060008060808587031215611f2957611f2861289b565b5b600085013567ffffffffffffffff811115611f4757611f46612896565b5b611f5387828801611cfc565b945050602085013567ffffffffffffffff811115611f7457611f73612896565b5b611f8087828801611cfc565b9350506040611f9187828801611e6f565b9250506060611fa287828801611e6f565b91505092959194509250565b600060208284031215611fc457611fc361289b565b5b600082013567ffffffffffffffff811115611fe257611fe1612896565b5b611fee84828501611dc7565b91505092915050565b60006020828403121561200d5761200c61289b565b5b600061201b84828501611e6f565b91505092915050565b600080614020838503121561203c5761203b61289b565b5b600061204a85828601611e6f565b925050602061205b85828601611cd0565b9150509250929050565b6000806040838503121561207c5761207b61289b565b5b600061208a85828601611e6f565b925050602083013567ffffffffffffffff8111156120ab576120aa612896565b5b6120b785828601611cfc565b9150509250929050565b600080604083850312156120d8576120d761289b565b5b60006120e685828601611e6f565b92505060206120f785828601611d2a565b9150509250929050565b600080604083850312156121185761211761289b565b5b600061212685828601611e6f565b925050602061213785828601611e6f565b9150509250929050565b600061214d83836123f8565b60208301905092915050565b61216281612733565b82525050565b600061217382612692565b61217d81856126aa565b935061218883612682565b8060005b838110156121b95781516121a08882612141565b97506121ab8361269d565b92505060018101905061218c565b5085935050505092915050565b60006121d182612692565b6121db81856126bb565b93506121e683612682565b8060005b838110156122175781516121fe8882612141565b97506122098361269d565b9250506001810190506121ea565b5085935050505092915050565b61222d81612745565b82525050565b6000612240602c836126cc565b915061224b826128b1565b604082019050919050565b6000612263601b836126cc565b915061226e82612900565b602082019050919050565b6000612286602c836126cc565b915061229182612929565b604082019050919050565b60006122a96024836126cc565b91506122b482612978565b604082019050919050565b60006122cc6030836126cc565b91506122d7826129c7565b604082019050919050565b60006122ef603c836126cc565b91506122fa82612a16565b604082019050919050565b6000612312602b836126cc565b915061231d82612a65565b604082019050919050565b60006123356024836126cc565b915061234082612ab4565b604082019050919050565b60006123586013836126cc565b915061236382612b03565b602082019050919050565b600061237b6021836126cc565b915061238682612b2c565b604082019050919050565b600061239e602f836126cc565b91506123a982612b7b565b604082019050919050565b600060408301600083015184820360008601526123d18282612168565b915050602083015184820360208601526123eb8282612168565b9150508091505092915050565b61240181612771565b82525050565b61241081612771565b82525050565b600060208201905061242b6000830184612159565b92915050565b6000602082019050818103600083015261244b81846121c6565b905092915050565b60006020820190506124686000830184612224565b92915050565b6000602082019050818103600083015261248781612233565b9050919050565b600060208201905081810360008301526124a781612256565b9050919050565b600060208201905081810360008301526124c781612279565b9050919050565b600060208201905081810360008301526124e78161229c565b9050919050565b60006020820190508181036000830152612507816122bf565b9050919050565b60006020820190508181036000830152612527816122e2565b9050919050565b6000602082019050818103600083015261254781612305565b9050919050565b6000602082019050818103600083015261256781612328565b9050919050565b600060208201905081810360008301526125878161234b565b9050919050565b600060208201905081810360008301526125a78161236e565b9050919050565b600060208201905081810360008301526125c781612391565b9050919050565b600060208201905081810360008301526125e881846123b4565b905092915050565b60006020820190506126056000830184612407565b92915050565b6000612615612626565b9050612621828261277b565b919050565b6000604051905090565b600067ffffffffffffffff82111561264b5761264a612853565b5b602082029050919050565b600067ffffffffffffffff82111561267157612670612853565b5b602082029050602081019050919050565b6000819050602082019050919050565b600081519050919050565b6000602082019050919050565b600082825260208201905092915050565b600082825260208201905092915050565b600082825260208201905092915050565b60006126e882612771565b91506126f383612771565b9250827fffffffffffffffffffffffffffffffffffffffffffffffffffffffffffffffff03821115612728576127276127f5565b5b828201905092915050565b600061273e82612751565b9050919050565b60008115159050919050565b600073ffffffffffffffffffffffffffffffffffffffff82169050919050565b6000819050919050565b612784826128a0565b810181811067ffffffffffffffff821117156127a3576127a2612853565b5b80604052505050565b60006127b782612771565b91507fffffffffffffffffffffffffffffffffffffffffffffffffffffffffffffffff8214156127ea576127e96127f5565b5b600182019050919050565b7f4e487b7100000000000000000000000000000000000000000000000000000000600052601160045260246000fd5b7f4e487b7100000000000000000000000000000000000000000000000000000000600052603260045260246000fd5b7f4e487b7100000000000000000000000000000000000000000000000000000000600052604160045260246000fd5b600080fd5b600080fd5b600080fd5b600080fd5b600080fd5b600080fd5b6000601f19601f8301169050919050565b7f54686520746f6b656e206973206e6f742061207265676973746572656420455260008201527f43203131353520746f6b656e0000000000000000000000000000000000000000602082015250565b7f54686520746f6b656e2049442063616e6e6f74206265207a65726f0000000000600082015250565b7f546f6b656e49442063616e6e6f74206265206120737562736574206f6620706160008201527f72656e74546f6b656e4944730000000000000000000000000000000000000000602082015250565b7f4572726f723a20616e206772617068206c6f6f702077696c6c2062652063726560008201527f6174656400000000000000000000000000000000000000000000000000000000602082015250565b7f546865206c656e677468206f662049647320616e64207765696768747320736860008201527f6f756c64206265207468652073616d6500000000000000000000000000000000602082015250565b7f4572726f723a204564676520636f6e6e656374696f6e20796f7520617265207460008201527f7279696e6720746f2061646420616c6c72656164792065786973747300000000602082015250565b7f706172656e7420746f6b656e20494420686173206e6f74206265656e2061646460008201527f656420746f206772617068000000000000000000000000000000000000000000602082015250565b7f49442068617320616c6c7265616479206265656e20616464656420746f20677260008201527f6170682e00000000000000000000000000000000000000000000000000000000602082015250565b7f55736572206d7573742062652061646d696e2e00000000000000000000000000600082015250565b7f54686520746f6b656e204944206f66206120706172656e74206973207a65726f60008201527f2e00000000000000000000000000000000000000000000000000000000000000602082015250565b7f4120706172656e7420746f6b656e206973206e6f74206120726567697374656460008201527f20455243203131353520746f6b656e0000000000000000000000000000000000602082015250565b612bd381612745565b8114612bde57600080fd5b50565b612bea81612771565b8114612bf557600080fd5b5056fea2646970667358221220677d1d914ca82a7007fce3f76046a851bb088fdf2eee0827dd76285c5af05bc764736f6c63430008060033",
  "linkReferences": {},
  "deployedLinkReferences": {}
}